{
  "_format": "hh-sol-artifact-1",
  "contractName": "Storage",
  "sourceName": "contracts/Storage.sol",
  "abi": [
    {
      "inputs": [
        {
          "internalType": "uint256",
          "name": "",
          "type": "uint256"
        }
      ],
      "name": "allFreelancerAddresses",
      "outputs": [
        {
          "internalType": "address",
          "name": "",
          "type": "address"
        }
      ],
      "stateMutability": "view",
      "type": "function"
    },
    {
      "inputs": [
        {
          "internalType": "address",
          "name": "",
          "type": "address"
        }
      ],
      "name": "employers",
      "outputs": [
        {
          "internalType": "address",
          "name": "employerAddress",
          "type": "address"
        },
        {
          "internalType": "string",
          "name": "name",
          "type": "string"
        },
        {
          "internalType": "string",
          "name": "industry",
          "type": "string"
        },
        {
          "internalType": "uint256",
          "name": "balance",
          "type": "uint256"
        },
        {
          "internalType": "string",
          "name": "country",
          "type": "string"
        },
        {
          "internalType": "string",
          "name": "image",
          "type": "string"
        },
        {
          "internalType": "bool",
          "name": "registered",
          "type": "bool"
        },
        {
          "internalType": "uint256",
          "name": "registration_date",
          "type": "uint256"
        }
      ],
      "stateMutability": "view",
      "type": "function"
    },
    {
      "inputs": [
        {
          "internalType": "address",
          "name": "",
          "type": "address"
        },
        {
          "internalType": "uint256",
          "name": "",
          "type": "uint256"
        }
      ],
      "name": "escrowFunds",
      "outputs": [
        {
          "internalType": "uint256",
          "name": "",
          "type": "uint256"
        }
      ],
      "stateMutability": "view",
      "type": "function"
    },
    {
      "inputs": [
        {
          "internalType": "address",
          "name": "",
          "type": "address"
        }
      ],
      "name": "freelancers",
      "outputs": [
        {
          "internalType": "address",
          "name": "freelancerAddress",
          "type": "address"
        },
        {
          "internalType": "string",
          "name": "name",
          "type": "string"
        },
        {
          "internalType": "string",
          "name": "skills",
          "type": "string"
        },
        {
          "internalType": "uint256",
          "name": "balance",
          "type": "uint256"
        },
        {
          "internalType": "string",
          "name": "country",
          "type": "string"
        },
        {
          "internalType": "string",
          "name": "gigTitle",
          "type": "string"
        },
        {
          "internalType": "string",
          "name": "gitDescription",
          "type": "string"
        },
        {
          "internalType": "uint256",
          "name": "jobsCompleted",
          "type": "uint256"
        },
        {
          "internalType": "bool",
          "name": "registered",
          "type": "bool"
        },
        {
          "internalType": "uint256",
          "name": "registration_date",
          "type": "uint256"
        },
        {
          "internalType": "uint256",
          "name": "starting_price",
          "type": "uint256"
        }
      ],
      "stateMutability": "view",
      "type": "function"
    },
    {
      "inputs": [
        {
          "internalType": "uint256",
          "name": "",
          "type": "uint256"
        }
      ],
      "name": "jobs",
      "outputs": [
        {
          "internalType": "uint8",
          "name": "id",
          "type": "uint8"
        },
        {
          "internalType": "address",
          "name": "employer",
          "type": "address"
        },
        {
          "internalType": "string",
          "name": "title",
          "type": "string"
        },
        {
          "internalType": "string",
          "name": "description",
          "type": "string"
        },
        {
          "internalType": "uint256",
          "name": "budget",
          "type": "uint256"
        },
        {
          "internalType": "bool",
          "name": "completed",
          "type": "bool"
        },
        {
          "internalType": "address",
          "name": "hiredFreelancer",
          "type": "address"
        }
      ],
      "stateMutability": "view",
      "type": "function"
    },
    {
      "inputs": [],
      "name": "owner",
      "outputs": [
        {
          "internalType": "address",
          "name": "",
          "type": "address"
        }
      ],
      "stateMutability": "view",
      "type": "function"
    },
    {
      "inputs": [
        {
          "internalType": "address",
          "name": "",
          "type": "address"
        }
      ],
      "name": "roles",
      "outputs": [
        {
          "internalType": "uint8",
          "name": "",
          "type": "uint8"
        }
      ],
      "stateMutability": "view",
      "type": "function"
    },
    {
      "inputs": [],
      "name": "totalCompletedJobs",
      "outputs": [
        {
          "internalType": "uint256",
          "name": "",
          "type": "uint256"
        }
      ],
      "stateMutability": "view",
      "type": "function"
    },
    {
      "inputs": [],
      "name": "totalEmployers",
      "outputs": [
        {
          "internalType": "uint256",
          "name": "",
          "type": "uint256"
        }
      ],
      "stateMutability": "view",
      "type": "function"
    },
    {
      "inputs": [],
      "name": "totalFreelancers",
      "outputs": [
        {
          "internalType": "uint256",
          "name": "",
          "type": "uint256"
        }
      ],
      "stateMutability": "view",
      "type": "function"
    },
    {
      "inputs": [],
      "name": "totalJobs",
      "outputs": [
        {
          "internalType": "uint8",
          "name": "",
          "type": "uint8"
        }
      ],
      "stateMutability": "view",
      "type": "function"
    },
    {
      "inputs": [
        {
          "internalType": "address",
          "name": "",
          "type": "address"
        }
      ],
      "name": "walletToUser",
      "outputs": [
        {
          "internalType": "address",
          "name": "",
          "type": "address"
        }
      ],
      "stateMutability": "view",
      "type": "function"
    }
  ],
  "bytecode": "0x608060405234801561001057600080fd5b5061100a806100206000396000f3fe608060405234801561001057600080fd5b50600436106100b45760003560e01c80635e586eb1116100715780635e586eb1146101ba5780638da5cb5b146101d857806399374642146101f6578063c27a9dd414610226578063ef8de2d814610256578063fcafae1114610286576100b4565b80630be435bd146100b95780631033397b146100f0578063180aedf31461010e5780631906b4ce146101445780631ace87b31461016257806321bd669314610180575b600080fd5b6100d360048036038101906100ce9190610b89565b6102b6565b6040516100e7989796959493929190610c89565b60405180910390f35b6100f861054b565b6040516101059190610d23565b60405180910390f35b61012860048036038101906101239190610d6a565b610551565b60405161013b9796959493929190610db3565b60405180910390f35b61014c6106fd565b6040516101599190610d23565b60405180910390f35b61016a610703565b6040516101779190610e30565b60405180910390f35b61019a60048036038101906101959190610b89565b610716565b6040516101b19b9a99989796959493929190610e4b565b60405180910390f35b6101c2610a45565b6040516101cf9190610d23565b60405180910390f35b6101e0610a4b565b6040516101ed9190610f19565b60405180910390f35b610210600480360381019061020b9190610b89565b610a6f565b60405161021d9190610e30565b60405180910390f35b610240600480360381019061023b9190610d6a565b610a8f565b60405161024d9190610f19565b60405180910390f35b610270600480360381019061026b9190610b89565b610ace565b60405161027d9190610f19565b60405180910390f35b6102a0600480360381019061029b9190610f34565b610b01565b6040516102ad9190610d23565b60405180910390f35b60066020528060005260406000206000915090508060000160009054906101000a900473ffffffffffffffffffffffffffffffffffffffff16908060010180546102ff90610fa3565b80601f016020809104026020016040519081016040528092919081815260200182805461032b90610fa3565b80156103785780601f1061034d57610100808354040283529160200191610378565b820191906000526020600020905b81548152906001019060200180831161035b57829003601f168201915b50505050509080600201805461038d90610fa3565b80601f01602080910402602001604051908101604052809291908181526020018280546103b990610fa3565b80156104065780601f106103db57610100808354040283529160200191610406565b820191906000526020600020905b8154815290600101906020018083116103e957829003601f168201915b50505050509080600301549080600401805461042190610fa3565b80601f016020809104026020016040519081016040528092919081815260200182805461044d90610fa3565b801561049a5780601f1061046f5761010080835404028352916020019161049a565b820191906000526020600020905b81548152906001019060200180831161047d57829003601f168201915b5050505050908060050180546104af90610fa3565b80601f01602080910402602001604051908101604052809291908181526020018280546104db90610fa3565b80156105285780601f106104fd57610100808354040283529160200191610528565b820191906000526020600020905b81548152906001019060200180831161050b57829003601f168201915b5050505050908060060160009054906101000a900460ff16908060070154905088565b60035481565b60046020528060005260406000206000915090508060000160009054906101000a900460ff16908060000160019054906101000a900473ffffffffffffffffffffffffffffffffffffffff16908060010180546105ad90610fa3565b80601f01602080910402602001604051908101604052809291908181526020018280546105d990610fa3565b80156106265780601f106105fb57610100808354040283529160200191610626565b820191906000526020600020905b81548152906001019060200180831161060957829003601f168201915b50505050509080600201805461063b90610fa3565b80601f016020809104026020016040519081016040528092919081815260200182805461066790610fa3565b80156106b45780601f10610689576101008083540402835291602001916106b4565b820191906000526020600020905b81548152906001019060200180831161069757829003601f168201915b5050505050908060030154908060040160009054906101000a900460ff16908060060160009054906101000a900473ffffffffffffffffffffffffffffffffffffffff16905087565b60025481565b600060149054906101000a900460ff1681565b60056020528060005260406000206000915090508060000160009054906101000a900473ffffffffffffffffffffffffffffffffffffffff169080600101805461075f90610fa3565b80601f016020809104026020016040519081016040528092919081815260200182805461078b90610fa3565b80156107d85780601f106107ad576101008083540402835291602001916107d8565b820191906000526020600020905b8154815290600101906020018083116107bb57829003601f168201915b5050505050908060020180546107ed90610fa3565b80601f016020809104026020016040519081016040528092919081815260200182805461081990610fa3565b80156108665780601f1061083b57610100808354040283529160200191610866565b820191906000526020600020905b81548152906001019060200180831161084957829003601f168201915b50505050509080600301549080600401805461088190610fa3565b80601f01602080910402602001604051908101604052809291908181526020018280546108ad90610fa3565b80156108fa5780601f106108cf576101008083540402835291602001916108fa565b820191906000526020600020905b8154815290600101906020018083116108dd57829003601f168201915b50505050509080600501805461090f90610fa3565b80601f016020809104026020016040519081016040528092919081815260200182805461093b90610fa3565b80156109885780601f1061095d57610100808354040283529160200191610988565b820191906000526020600020905b81548152906001019060200180831161096b57829003601f168201915b50505050509080600601805461099d90610fa3565b80601f01602080910402602001604051908101604052809291908181526020018280546109c990610fa3565b8015610a165780601f106109eb57610100808354040283529160200191610a16565b820191906000526020600020905b8154815290600101906020018083116109f957829003601f168201915b5050505050908060080154908060090160009054906101000a900460ff169080600a01549080600b015490508b565b60015481565b60008054906101000a900473ffffffffffffffffffffffffffffffffffffffff1681565b60086020528060005260406000206000915054906101000a900460ff1681565b60098181548110610a9f57600080fd5b906000526020600020016000915054906101000a900473ffffffffffffffffffffffffffffffffffffffff1681565b600a6020528060005260406000206000915054906101000a900473ffffffffffffffffffffffffffffffffffffffff1681565b6007602052816000526040600020602052806000526040600020600091509150505481565b600080fd5b600073ffffffffffffffffffffffffffffffffffffffff82169050919050565b6000610b5682610b2b565b9050919050565b610b6681610b4b565b8114610b7157600080fd5b50565b600081359050610b8381610b5d565b92915050565b600060208284031215610b9f57610b9e610b26565b5b6000610bad84828501610b74565b91505092915050565b610bbf81610b4b565b82525050565b600081519050919050565b600082825260208201905092915050565b60005b83811015610bff578082015181840152602081019050610be4565b60008484015250505050565b6000601f19601f8301169050919050565b6000610c2782610bc5565b610c318185610bd0565b9350610c41818560208601610be1565b610c4a81610c0b565b840191505092915050565b6000819050919050565b610c6881610c55565b82525050565b60008115159050919050565b610c8381610c6e565b82525050565b600061010082019050610c9f600083018b610bb6565b8181036020830152610cb1818a610c1c565b90508181036040830152610cc58189610c1c565b9050610cd46060830188610c5f565b8181036080830152610ce68187610c1c565b905081810360a0830152610cfa8186610c1c565b9050610d0960c0830185610c7a565b610d1660e0830184610c5f565b9998505050505050505050565b6000602082019050610d386000830184610c5f565b92915050565b610d4781610c55565b8114610d5257600080fd5b50565b600081359050610d6481610d3e565b92915050565b600060208284031215610d8057610d7f610b26565b5b6000610d8e84828501610d55565b91505092915050565b600060ff82169050919050565b610dad81610d97565b82525050565b600060e082019050610dc8600083018a610da4565b610dd56020830189610bb6565b8181036040830152610de78188610c1c565b90508181036060830152610dfb8187610c1c565b9050610e0a6080830186610c5f565b610e1760a0830185610c7a565b610e2460c0830184610bb6565b98975050505050505050565b6000602082019050610e456000830184610da4565b92915050565b600061016082019050610e61600083018e610bb6565b8181036020830152610e73818d610c1c565b90508181036040830152610e87818c610c1c565b9050610e96606083018b610c5f565b8181036080830152610ea8818a610c1c565b905081810360a0830152610ebc8189610c1c565b905081810360c0830152610ed08188610c1c565b9050610edf60e0830187610c5f565b610eed610100830186610c7a565b610efb610120830185610c5f565b610f09610140830184610c5f565b9c9b505050505050505050505050565b6000602082019050610f2e6000830184610bb6565b92915050565b60008060408385031215610f4b57610f4a610b26565b5b6000610f5985828601610b74565b9250506020610f6a85828601610d55565b9150509250929050565b7f4e487b7100000000000000000000000000000000000000000000000000000000600052602260045260246000fd5b60006002820490506001821680610fbb57607f821691505b602082108103610fce57610fcd610f74565b5b5091905056fea2646970667358221220d19b95a6cde2d28e7a3a631a9eb20291ae2ba1649acca39732a2889a5ef8f90b64736f6c63430008180033",
  "linkReferences": {},
  "deployedLinkReferences": {}
}