{
  "_format": "hh-sol-artifact-1",
  "contractName": "Storage",
  "sourceName": "contracts/Storage.sol",
  "abi": [
    {
      "inputs": [
        {
          "internalType": "uint256",
          "name": "",
          "type": "uint256"
        }
      ],
      "name": "allFreelancerAddresses",
      "outputs": [
        {
          "internalType": "address",
          "name": "",
          "type": "address"
        }
      ],
      "stateMutability": "view",
      "type": "function"
    },
    {
      "inputs": [
        {
          "internalType": "address",
          "name": "",
          "type": "address"
        }
      ],
      "name": "employers",
      "outputs": [
        {
          "internalType": "address",
          "name": "employerAddress",
          "type": "address"
        },
        {
          "internalType": "string",
          "name": "name",
          "type": "string"
        },
        {
          "internalType": "string",
          "name": "industry",
          "type": "string"
        },
        {
          "internalType": "uint256",
          "name": "balance",
          "type": "uint256"
        },
        {
          "internalType": "string",
          "name": "country",
          "type": "string"
        },
        {
          "internalType": "string",
          "name": "image",
          "type": "string"
        },
        {
          "internalType": "bool",
          "name": "registered",
          "type": "bool"
        },
        {
          "internalType": "uint256",
          "name": "registration_date",
          "type": "uint256"
        }
      ],
      "stateMutability": "view",
      "type": "function"
    },
    {
      "inputs": [
        {
          "internalType": "address",
          "name": "",
          "type": "address"
        },
        {
          "internalType": "uint256",
          "name": "",
          "type": "uint256"
        }
      ],
      "name": "escrowFunds",
      "outputs": [
        {
          "internalType": "uint256",
          "name": "",
          "type": "uint256"
        }
      ],
      "stateMutability": "view",
      "type": "function"
    },
    {
      "inputs": [
        {
          "internalType": "address",
          "name": "",
          "type": "address"
        }
      ],
      "name": "freelancers",
      "outputs": [
        {
          "internalType": "address",
          "name": "freelancerAddress",
          "type": "address"
        },
        {
          "internalType": "string",
          "name": "name",
          "type": "string"
        },
        {
          "internalType": "string",
          "name": "skills",
          "type": "string"
        },
        {
          "internalType": "uint256",
          "name": "balance",
          "type": "uint256"
        },
        {
          "internalType": "string",
          "name": "country",
          "type": "string"
        },
        {
          "internalType": "string",
          "name": "gigTitle",
          "type": "string"
        },
        {
          "internalType": "string",
          "name": "gitDescription",
          "type": "string"
        },
        {
          "internalType": "uint256",
          "name": "jobsCompleted",
          "type": "uint256"
        },
        {
          "internalType": "bool",
          "name": "registered",
          "type": "bool"
        },
        {
          "internalType": "uint256",
          "name": "registration_date",
          "type": "uint256"
        },
        {
          "internalType": "uint256",
          "name": "starting_price",
          "type": "uint256"
        }
      ],
      "stateMutability": "view",
      "type": "function"
    },
    {
      "inputs": [
        {
          "internalType": "uint256",
          "name": "",
          "type": "uint256"
        }
      ],
      "name": "jobs",
      "outputs": [
        {
          "internalType": "uint8",
          "name": "id",
          "type": "uint8"
        },
        {
          "internalType": "address",
          "name": "employer",
          "type": "address"
        },
        {
          "internalType": "string",
          "name": "title",
          "type": "string"
        },
        {
          "internalType": "string",
          "name": "description",
          "type": "string"
        },
        {
          "internalType": "uint256",
          "name": "budget",
          "type": "uint256"
        },
        {
          "internalType": "bool",
          "name": "completed",
          "type": "bool"
        },
        {
          "internalType": "address",
          "name": "hiredFreelancer",
          "type": "address"
        }
      ],
      "stateMutability": "view",
      "type": "function"
    },
    {
      "inputs": [],
      "name": "owner",
      "outputs": [
        {
          "internalType": "address",
          "name": "",
          "type": "address"
        }
      ],
      "stateMutability": "view",
      "type": "function"
    },
    {
      "inputs": [
        {
          "internalType": "address",
          "name": "",
          "type": "address"
        }
      ],
      "name": "roles",
      "outputs": [
        {
          "internalType": "uint8",
          "name": "",
          "type": "uint8"
        }
      ],
      "stateMutability": "view",
      "type": "function"
    },
    {
      "inputs": [],
      "name": "totalCompletedJobs",
      "outputs": [
        {
          "internalType": "uint256",
          "name": "",
          "type": "uint256"
        }
      ],
      "stateMutability": "view",
      "type": "function"
    },
    {
      "inputs": [],
      "name": "totalEmployers",
      "outputs": [
        {
          "internalType": "uint256",
          "name": "",
          "type": "uint256"
        }
      ],
      "stateMutability": "view",
      "type": "function"
    },
    {
      "inputs": [],
      "name": "totalFreelancers",
      "outputs": [
        {
          "internalType": "uint256",
          "name": "",
          "type": "uint256"
        }
      ],
      "stateMutability": "view",
      "type": "function"
    },
    {
      "inputs": [],
      "name": "totalJobs",
      "outputs": [
        {
          "internalType": "uint8",
          "name": "",
          "type": "uint8"
        }
      ],
      "stateMutability": "view",
      "type": "function"
    }
  ],
  "bytecode": "0x608060405234801561001057600080fd5b50610f9c806100206000396000f3fe608060405234801561001057600080fd5b50600436106100a95760003560e01c806321bd66931161007157806321bd6693146101755780635e586eb1146101af5780638da5cb5b146101cd57806399374642146101eb578063c27a9dd41461021b578063fcafae111461024b576100a9565b80630be435bd146100ae5780631033397b146100e5578063180aedf3146101035780631906b4ce146101395780631ace87b314610157575b600080fd5b6100c860048036038101906100c39190610b1b565b61027b565b6040516100dc989796959493929190610c1b565b60405180910390f35b6100ed610510565b6040516100fa9190610cb5565b60405180910390f35b61011d60048036038101906101189190610cfc565b610516565b6040516101309796959493929190610d45565b60405180910390f35b6101416106c2565b60405161014e9190610cb5565b60405180910390f35b61015f6106c8565b60405161016c9190610dc2565b60405180910390f35b61018f600480360381019061018a9190610b1b565b6106db565b6040516101a69b9a99989796959493929190610ddd565b60405180910390f35b6101b7610a0a565b6040516101c49190610cb5565b60405180910390f35b6101d5610a10565b6040516101e29190610eab565b60405180910390f35b61020560048036038101906102009190610b1b565b610a34565b6040516102129190610dc2565b60405180910390f35b61023560048036038101906102309190610cfc565b610a54565b6040516102429190610eab565b60405180910390f35b61026560048036038101906102609190610ec6565b610a93565b6040516102729190610cb5565b60405180910390f35b60066020528060005260406000206000915090508060000160009054906101000a900473ffffffffffffffffffffffffffffffffffffffff16908060010180546102c490610f35565b80601f01602080910402602001604051908101604052809291908181526020018280546102f090610f35565b801561033d5780601f106103125761010080835404028352916020019161033d565b820191906000526020600020905b81548152906001019060200180831161032057829003601f168201915b50505050509080600201805461035290610f35565b80601f016020809104026020016040519081016040528092919081815260200182805461037e90610f35565b80156103cb5780601f106103a0576101008083540402835291602001916103cb565b820191906000526020600020905b8154815290600101906020018083116103ae57829003601f168201915b5050505050908060030154908060040180546103e690610f35565b80601f016020809104026020016040519081016040528092919081815260200182805461041290610f35565b801561045f5780601f106104345761010080835404028352916020019161045f565b820191906000526020600020905b81548152906001019060200180831161044257829003601f168201915b50505050509080600501805461047490610f35565b80601f01602080910402602001604051908101604052809291908181526020018280546104a090610f35565b80156104ed5780601f106104c2576101008083540402835291602001916104ed565b820191906000526020600020905b8154815290600101906020018083116104d057829003601f168201915b5050505050908060060160009054906101000a900460ff16908060070154905088565b60035481565b60046020528060005260406000206000915090508060000160009054906101000a900460ff16908060000160019054906101000a900473ffffffffffffffffffffffffffffffffffffffff169080600101805461057290610f35565b80601f016020809104026020016040519081016040528092919081815260200182805461059e90610f35565b80156105eb5780601f106105c0576101008083540402835291602001916105eb565b820191906000526020600020905b8154815290600101906020018083116105ce57829003601f168201915b50505050509080600201805461060090610f35565b80601f016020809104026020016040519081016040528092919081815260200182805461062c90610f35565b80156106795780601f1061064e57610100808354040283529160200191610679565b820191906000526020600020905b81548152906001019060200180831161065c57829003601f168201915b5050505050908060030154908060040160009054906101000a900460ff16908060060160009054906101000a900473ffffffffffffffffffffffffffffffffffffffff16905087565b60025481565b600060149054906101000a900460ff1681565b60056020528060005260406000206000915090508060000160009054906101000a900473ffffffffffffffffffffffffffffffffffffffff169080600101805461072490610f35565b80601f016020809104026020016040519081016040528092919081815260200182805461075090610f35565b801561079d5780601f106107725761010080835404028352916020019161079d565b820191906000526020600020905b81548152906001019060200180831161078057829003601f168201915b5050505050908060020180546107b290610f35565b80601f01602080910402602001604051908101604052809291908181526020018280546107de90610f35565b801561082b5780601f106108005761010080835404028352916020019161082b565b820191906000526020600020905b81548152906001019060200180831161080e57829003601f168201915b50505050509080600301549080600401805461084690610f35565b80601f016020809104026020016040519081016040528092919081815260200182805461087290610f35565b80156108bf5780601f10610894576101008083540402835291602001916108bf565b820191906000526020600020905b8154815290600101906020018083116108a257829003601f168201915b5050505050908060050180546108d490610f35565b80601f016020809104026020016040519081016040528092919081815260200182805461090090610f35565b801561094d5780601f106109225761010080835404028352916020019161094d565b820191906000526020600020905b81548152906001019060200180831161093057829003601f168201915b50505050509080600601805461096290610f35565b80601f016020809104026020016040519081016040528092919081815260200182805461098e90610f35565b80156109db5780601f106109b0576101008083540402835291602001916109db565b820191906000526020600020905b8154815290600101906020018083116109be57829003601f168201915b5050505050908060080154908060090160009054906101000a900460ff169080600a01549080600b015490508b565b60015481565b60008054906101000a900473ffffffffffffffffffffffffffffffffffffffff1681565b60086020528060005260406000206000915054906101000a900460ff1681565b60098181548110610a6457600080fd5b906000526020600020016000915054906101000a900473ffffffffffffffffffffffffffffffffffffffff1681565b6007602052816000526040600020602052806000526040600020600091509150505481565b600080fd5b600073ffffffffffffffffffffffffffffffffffffffff82169050919050565b6000610ae882610abd565b9050919050565b610af881610add565b8114610b0357600080fd5b50565b600081359050610b1581610aef565b92915050565b600060208284031215610b3157610b30610ab8565b5b6000610b3f84828501610b06565b91505092915050565b610b5181610add565b82525050565b600081519050919050565b600082825260208201905092915050565b60005b83811015610b91578082015181840152602081019050610b76565b60008484015250505050565b6000601f19601f8301169050919050565b6000610bb982610b57565b610bc38185610b62565b9350610bd3818560208601610b73565b610bdc81610b9d565b840191505092915050565b6000819050919050565b610bfa81610be7565b82525050565b60008115159050919050565b610c1581610c00565b82525050565b600061010082019050610c31600083018b610b48565b8181036020830152610c43818a610bae565b90508181036040830152610c578189610bae565b9050610c666060830188610bf1565b8181036080830152610c788187610bae565b905081810360a0830152610c8c8186610bae565b9050610c9b60c0830185610c0c565b610ca860e0830184610bf1565b9998505050505050505050565b6000602082019050610cca6000830184610bf1565b92915050565b610cd981610be7565b8114610ce457600080fd5b50565b600081359050610cf681610cd0565b92915050565b600060208284031215610d1257610d11610ab8565b5b6000610d2084828501610ce7565b91505092915050565b600060ff82169050919050565b610d3f81610d29565b82525050565b600060e082019050610d5a600083018a610d36565b610d676020830189610b48565b8181036040830152610d798188610bae565b90508181036060830152610d8d8187610bae565b9050610d9c6080830186610bf1565b610da960a0830185610c0c565b610db660c0830184610b48565b98975050505050505050565b6000602082019050610dd76000830184610d36565b92915050565b600061016082019050610df3600083018e610b48565b8181036020830152610e05818d610bae565b90508181036040830152610e19818c610bae565b9050610e28606083018b610bf1565b8181036080830152610e3a818a610bae565b905081810360a0830152610e4e8189610bae565b905081810360c0830152610e628188610bae565b9050610e7160e0830187610bf1565b610e7f610100830186610c0c565b610e8d610120830185610bf1565b610e9b610140830184610bf1565b9c9b505050505050505050505050565b6000602082019050610ec06000830184610b48565b92915050565b60008060408385031215610edd57610edc610ab8565b5b6000610eeb85828601610b06565b9250506020610efc85828601610ce7565b9150509250929050565b7f4e487b7100000000000000000000000000000000000000000000000000000000600052602260045260246000fd5b60006002820490506001821680610f4d57607f821691505b602082108103610f6057610f5f610f06565b5b5091905056fea2646970667358221220bf3c0af6c0a4e4bfee892c64911ccd9268b31bf8e344c95d7c96e36437c152b864736f6c63430008180033",
  "linkReferences": {},
  "deployedLinkReferences": {}
}