{
  "_format": "hh-sol-artifact-1",
  "contractName": "Dfreelancer",
  "sourceName": "contracts/Freelancer.sol",
  "abi": [
    {
      "anonymous": false,
      "inputs": [
        {
          "indexed": false,
          "internalType": "uint256",
          "name": "jobId",
          "type": "uint256"
        },
        {
          "indexed": false,
          "internalType": "address",
          "name": "employerAddress",
          "type": "address"
        },
        {
          "indexed": false,
          "internalType": "address",
          "name": "freelancerAddress",
          "type": "address"
        }
      ],
      "name": "AppliedForJob",
      "type": "event"
    },
    {
      "anonymous": false,
      "inputs": [
        {
          "indexed": false,
          "internalType": "address",
          "name": "EmployerAddress",
          "type": "address"
        },
        {
          "indexed": false,
          "internalType": "string",
          "name": "name",
          "type": "string"
        }
      ],
      "name": "EmployerRegistered",
      "type": "event"
    },
    {
      "anonymous": false,
      "inputs": [
        {
          "indexed": false,
          "internalType": "address",
          "name": "freelancerAddress",
          "type": "address"
        },
        {
          "indexed": false,
          "internalType": "string[]",
          "name": "name",
          "type": "string[]"
        },
        {
          "indexed": false,
          "internalType": "uint256",
          "name": "amount",
          "type": "uint256"
        }
      ],
      "name": "FreelancerRegistered",
      "type": "event"
    },
    {
      "anonymous": false,
      "inputs": [
        {
          "indexed": false,
          "internalType": "uint256",
          "name": "jobId",
          "type": "uint256"
        },
        {
          "indexed": false,
          "internalType": "address",
          "name": "sender",
          "type": "address"
        },
        {
          "indexed": false,
          "internalType": "uint256",
          "name": "amount",
          "type": "uint256"
        }
      ],
      "name": "FundsDeposited",
      "type": "event"
    },
    {
      "anonymous": false,
      "inputs": [
        {
          "indexed": false,
          "internalType": "uint256",
          "name": "jobId",
          "type": "uint256"
        },
        {
          "indexed": false,
          "internalType": "address",
          "name": "freelancerAddress",
          "type": "address"
        },
        {
          "indexed": false,
          "internalType": "uint256",
          "name": "amount",
          "type": "uint256"
        }
      ],
      "name": "FundsReleased",
      "type": "event"
    },
    {
      "anonymous": false,
      "inputs": [
        {
          "indexed": false,
          "internalType": "uint256",
          "name": "jobId",
          "type": "uint256"
        },
        {
          "indexed": false,
          "internalType": "address",
          "name": "freelancerAddress",
          "type": "address"
        },
        {
          "indexed": false,
          "internalType": "uint256",
          "name": "payment",
          "type": "uint256"
        }
      ],
      "name": "JobCompleted",
      "type": "event"
    },
    {
      "anonymous": false,
      "inputs": [
        {
          "indexed": false,
          "internalType": "uint256",
          "name": "jobId",
          "type": "uint256"
        },
        {
          "indexed": false,
          "internalType": "string",
          "name": "title",
          "type": "string"
        }
      ],
      "name": "JobCreated",
      "type": "event"
    },
    {
      "anonymous": false,
      "inputs": [
        {
          "indexed": false,
          "internalType": "address",
          "name": "freelancer",
          "type": "address"
        },
        {
          "indexed": false,
          "internalType": "uint256",
          "name": "amount",
          "type": "uint256"
        }
      ],
      "name": "WithdrawFund",
      "type": "event"
    },
    {
      "inputs": [
        {
          "internalType": "uint256",
          "name": "",
          "type": "uint256"
        }
      ],
      "name": "allFreelancerAddresses",
      "outputs": [
        {
          "internalType": "address",
          "name": "",
          "type": "address"
        }
      ],
      "stateMutability": "view",
      "type": "function"
    },
    {
      "inputs": [],
      "name": "allJobs",
      "outputs": [
        {
          "components": [
            {
              "internalType": "uint8",
              "name": "id",
              "type": "uint8"
            },
            {
              "internalType": "address",
              "name": "employer",
              "type": "address"
            },
            {
              "internalType": "string",
              "name": "title",
              "type": "string"
            },
            {
              "internalType": "string",
              "name": "description",
              "type": "string"
            },
            {
              "internalType": "uint256",
              "name": "budget",
              "type": "uint256"
            },
            {
              "internalType": "bool",
              "name": "completed",
              "type": "bool"
            },
            {
              "internalType": "address[]",
              "name": "applicants",
              "type": "address[]"
            },
            {
              "internalType": "address",
              "name": "hiredFreelancer",
              "type": "address"
            }
          ],
          "internalType": "struct Djob.Job[]",
          "name": "props",
          "type": "tuple[]"
        }
      ],
      "stateMutability": "view",
      "type": "function"
    },
    {
      "inputs": [
        {
          "internalType": "uint256",
          "name": "jobId",
          "type": "uint256"
        }
      ],
      "name": "applyForJob",
      "outputs": [],
      "stateMutability": "nonpayable",
      "type": "function"
    },
    {
      "inputs": [
        {
          "internalType": "uint256",
          "name": "jobId",
          "type": "uint256"
        },
        {
          "internalType": "address",
          "name": "freelancerAddress",
          "type": "address"
        }
      ],
      "name": "completeJob",
      "outputs": [],
      "stateMutability": "nonpayable",
      "type": "function"
    },
    {
      "inputs": [
        {
          "internalType": "string",
          "name": "_title",
          "type": "string"
        },
        {
          "internalType": "string",
          "name": "_description",
          "type": "string"
        },
        {
          "internalType": "uint256",
          "name": "_budget",
          "type": "uint256"
        }
      ],
      "name": "createJob",
      "outputs": [],
      "stateMutability": "nonpayable",
      "type": "function"
    },
    {
      "inputs": [
        {
          "internalType": "uint256",
          "name": "jobId",
          "type": "uint256"
        }
      ],
      "name": "depositFunds",
      "outputs": [],
      "stateMutability": "payable",
      "type": "function"
    },
    {
      "inputs": [
        {
          "internalType": "address",
          "name": "",
          "type": "address"
        }
      ],
      "name": "employers",
      "outputs": [
        {
          "internalType": "address",
          "name": "employerAddress",
          "type": "address"
        },
        {
          "internalType": "string",
          "name": "name",
          "type": "string"
        },
        {
          "internalType": "string",
          "name": "industry",
          "type": "string"
        },
        {
          "internalType": "uint256",
          "name": "balance",
          "type": "uint256"
        },
        {
          "internalType": "string",
          "name": "country",
          "type": "string"
        },
        {
          "internalType": "string",
          "name": "image",
          "type": "string"
        },
        {
          "internalType": "bool",
          "name": "registered",
          "type": "bool"
        },
        {
          "internalType": "uint256",
          "name": "registration_date",
          "type": "uint256"
        }
      ],
      "stateMutability": "view",
      "type": "function"
    },
    {
      "inputs": [
        {
          "internalType": "address",
          "name": "",
          "type": "address"
        }
      ],
      "name": "freelancers",
      "outputs": [
        {
          "internalType": "address",
          "name": "freelancerAddress",
          "type": "address"
        },
        {
          "internalType": "string",
          "name": "name",
          "type": "string"
        },
        {
          "internalType": "string",
          "name": "skills",
          "type": "string"
        },
        {
          "internalType": "uint256",
          "name": "balance",
          "type": "uint256"
        },
        {
          "internalType": "string",
          "name": "country",
          "type": "string"
        },
        {
          "internalType": "string",
          "name": "gigTitle",
          "type": "string"
        },
        {
          "internalType": "string",
          "name": "gitDescription",
          "type": "string"
        },
        {
          "internalType": "uint256",
          "name": "jobsCompleted",
          "type": "uint256"
        },
        {
          "internalType": "bool",
          "name": "registered",
          "type": "bool"
        },
        {
          "internalType": "uint256",
          "name": "registration_date",
          "type": "uint256"
        },
        {
          "internalType": "uint256",
          "name": "starting_price",
          "type": "uint256"
        }
      ],
      "stateMutability": "view",
      "type": "function"
    },
    {
      "inputs": [],
      "name": "getAllFreelancers",
      "outputs": [
        {
          "components": [
            {
              "internalType": "address",
              "name": "freelancerAddress",
              "type": "address"
            },
            {
              "internalType": "string",
              "name": "name",
              "type": "string"
            },
            {
              "internalType": "string",
              "name": "skills",
              "type": "string"
            },
            {
              "internalType": "uint256",
              "name": "balance",
              "type": "uint256"
            },
            {
              "internalType": "string",
              "name": "country",
              "type": "string"
            },
            {
              "internalType": "string",
              "name": "gigTitle",
              "type": "string"
            },
            {
              "internalType": "string",
              "name": "gitDescription",
              "type": "string"
            },
            {
              "internalType": "string[]",
              "name": "images",
              "type": "string[]"
            },
            {
              "internalType": "uint256",
              "name": "jobsCompleted",
              "type": "uint256"
            },
            {
              "internalType": "bool",
              "name": "registered",
              "type": "bool"
            },
            {
              "internalType": "uint256",
              "name": "registration_date",
              "type": "uint256"
            },
            {
              "internalType": "uint256",
              "name": "starting_price",
              "type": "uint256"
            }
          ],
          "internalType": "struct Djob.Freelancer[]",
          "name": "",
          "type": "tuple[]"
        }
      ],
      "stateMutability": "view",
      "type": "function"
    },
    {
      "inputs": [
        {
          "internalType": "address",
          "name": "_employer",
          "type": "address"
        }
      ],
      "name": "getEmployerByAddress",
      "outputs": [
        {
          "components": [
            {
              "internalType": "address",
              "name": "employerAddress",
              "type": "address"
            },
            {
              "internalType": "string",
              "name": "name",
              "type": "string"
            },
            {
              "internalType": "string",
              "name": "industry",
              "type": "string"
            },
            {
              "internalType": "uint256",
              "name": "balance",
              "type": "uint256"
            },
            {
              "internalType": "string",
              "name": "country",
              "type": "string"
            },
            {
              "internalType": "string",
              "name": "image",
              "type": "string"
            },
            {
              "internalType": "bool",
              "name": "registered",
              "type": "bool"
            },
            {
              "internalType": "uint256",
              "name": "registration_date",
              "type": "uint256"
            }
          ],
          "internalType": "struct Djob.Employer",
          "name": "props",
          "type": "tuple"
        }
      ],
      "stateMutability": "view",
      "type": "function"
    },
    {
      "inputs": [
        {
          "internalType": "address",
          "name": "_employer",
          "type": "address"
        },
        {
          "internalType": "uint256",
          "name": "_job_id",
          "type": "uint256"
        }
      ],
      "name": "getEmployerEscrow",
      "outputs": [
        {
          "internalType": "uint256",
          "name": "",
          "type": "uint256"
        }
      ],
      "stateMutability": "view",
      "type": "function"
    },
    {
      "inputs": [
        {
          "internalType": "address",
          "name": "_freelancer",
          "type": "address"
        }
      ],
      "name": "getFreelancerByAddress",
      "outputs": [
        {
          "components": [
            {
              "internalType": "address",
              "name": "freelancerAddress",
              "type": "address"
            },
            {
              "internalType": "string",
              "name": "name",
              "type": "string"
            },
            {
              "internalType": "string",
              "name": "skills",
              "type": "string"
            },
            {
              "internalType": "uint256",
              "name": "balance",
              "type": "uint256"
            },
            {
              "internalType": "string",
              "name": "country",
              "type": "string"
            },
            {
              "internalType": "string",
              "name": "gigTitle",
              "type": "string"
            },
            {
              "internalType": "string",
              "name": "gitDescription",
              "type": "string"
            },
            {
              "internalType": "string[]",
              "name": "images",
              "type": "string[]"
            },
            {
              "internalType": "uint256",
              "name": "jobsCompleted",
              "type": "uint256"
            },
            {
              "internalType": "bool",
              "name": "registered",
              "type": "bool"
            },
            {
              "internalType": "uint256",
              "name": "registration_date",
              "type": "uint256"
            },
            {
              "internalType": "uint256",
              "name": "starting_price",
              "type": "uint256"
            }
          ],
          "internalType": "struct Djob.Freelancer",
          "name": "props",
          "type": "tuple"
        }
      ],
      "stateMutability": "view",
      "type": "function"
    },
    {
      "inputs": [
        {
          "internalType": "uint256",
          "name": "jobId",
          "type": "uint256"
        }
      ],
      "name": "getJobByID",
      "outputs": [
        {
          "components": [
            {
              "internalType": "uint8",
              "name": "id",
              "type": "uint8"
            },
            {
              "internalType": "address",
              "name": "employer",
              "type": "address"
            },
            {
              "internalType": "string",
              "name": "title",
              "type": "string"
            },
            {
              "internalType": "string",
              "name": "description",
              "type": "string"
            },
            {
              "internalType": "uint256",
              "name": "budget",
              "type": "uint256"
            },
            {
              "internalType": "bool",
              "name": "completed",
              "type": "bool"
            },
            {
              "internalType": "address[]",
              "name": "applicants",
              "type": "address[]"
            },
            {
              "internalType": "address",
              "name": "hiredFreelancer",
              "type": "address"
            }
          ],
          "internalType": "struct Djob.Job",
          "name": "props",
          "type": "tuple"
        }
      ],
      "stateMutability": "view",
      "type": "function"
    },
    {
      "inputs": [
        {
          "internalType": "uint256",
          "name": "jobId",
          "type": "uint256"
        },
        {
          "internalType": "address",
          "name": "freelancerAddress",
          "type": "address"
        }
      ],
      "name": "hireFreelancer",
      "outputs": [],
      "stateMutability": "nonpayable",
      "type": "function"
    },
    {
      "inputs": [],
      "name": "owner",
      "outputs": [
        {
          "internalType": "address",
          "name": "",
          "type": "address"
        }
      ],
      "stateMutability": "view",
      "type": "function"
    },
    {
      "inputs": [
        {
          "internalType": "string",
          "name": "_name",
          "type": "string"
        },
        {
          "internalType": "string",
          "name": "_industry",
          "type": "string"
        },
        {
          "internalType": "string",
          "name": "_country",
          "type": "string"
        },
        {
          "internalType": "string",
          "name": "_imageURI",
          "type": "string"
        }
      ],
      "name": "registerEmployer",
      "outputs": [],
      "stateMutability": "nonpayable",
      "type": "function"
    },
    {
      "inputs": [
        {
          "internalType": "string",
          "name": "_name",
          "type": "string"
        },
        {
          "internalType": "string",
          "name": "_skills",
          "type": "string"
        },
        {
          "internalType": "string",
          "name": "_country",
          "type": "string"
        },
        {
          "internalType": "string",
          "name": "_gigTitle",
          "type": "string"
        },
        {
          "internalType": "string",
          "name": "_gigDesc",
          "type": "string"
        },
        {
          "internalType": "string[]",
          "name": "_images",
          "type": "string[]"
        },
        {
          "internalType": "uint256",
          "name": "_starting_price",
          "type": "uint256"
        }
      ],
      "name": "registerFreelancer",
      "outputs": [],
      "stateMutability": "nonpayable",
      "type": "function"
    },
    {
      "inputs": [
        {
          "internalType": "uint256",
          "name": "jobId",
          "type": "uint256"
        },
        {
          "internalType": "address",
          "name": "freelancerAddress",
          "type": "address"
        }
      ],
      "name": "releaseEscrow",
      "outputs": [],
      "stateMutability": "nonpayable",
      "type": "function"
    },
    {
      "inputs": [],
      "name": "totalCompletedJobs",
      "outputs": [
        {
          "internalType": "uint256",
          "name": "",
          "type": "uint256"
        }
      ],
      "stateMutability": "view",
      "type": "function"
    },
    {
      "inputs": [],
      "name": "totalEmployers",
      "outputs": [
        {
          "internalType": "uint256",
          "name": "",
          "type": "uint256"
        }
      ],
      "stateMutability": "view",
      "type": "function"
    },
    {
      "inputs": [],
      "name": "totalFreelancers",
      "outputs": [
        {
          "internalType": "uint256",
          "name": "",
          "type": "uint256"
        }
      ],
      "stateMutability": "view",
      "type": "function"
    },
    {
      "inputs": [],
      "name": "totalJobs",
      "outputs": [
        {
          "internalType": "uint8",
          "name": "",
          "type": "uint8"
        }
      ],
      "stateMutability": "view",
      "type": "function"
    },
    {
      "inputs": [],
      "name": "withdrawEarnings",
      "outputs": [],
      "stateMutability": "nonpayable",
      "type": "function"
    }
  ],
  "bytecode": "0x608060405234801561001057600080fd5b50336000806101000a81548173ffffffffffffffffffffffffffffffffffffffff021916908373ffffffffffffffffffffffffffffffffffffffff160217905550615e1580620000616000396000f3fe6080604052600436106101405760003560e01c80635e586eb1116100b6578063b73c6ce91161006f578063b73c6ce914610472578063c27a9dd414610489578063c6cb3bbe146104c6578063c8d1b6aa146104ef578063dfac8ce51461051a578063e0c94ae51461055757610140565b80635e586eb1146103645780636a6b67d11461038f57806373a06f42146103b85780637a787125146103e15780638da5cb5b1461041e578063b0f26f181461044957610140565b80631c7af7a0116101085780631c7af7a01461023357806321bd669314610270578063359b248c146102b7578063371ae9f4146102e25780633b76594d1461031f57806358d7f8951461033b57610140565b80630be435bd146101455780630e553442146101895780631033397b146101b25780631906b4ce146101dd5780631ace87b314610208575b600080fd5b34801561015157600080fd5b5061016c60048036038101906101679190613e35565b610580565b604051610180989796959493929190613f35565b60405180910390f35b34801561019557600080fd5b506101b060048036038101906101ab9190614104565b610815565b005b3480156101be57600080fd5b506101c7610a87565b6040516101d491906141db565b60405180910390f35b3480156101e957600080fd5b506101f2610a8d565b6040516101ff91906141db565b60405180910390f35b34801561021457600080fd5b5061021d610a93565b60405161022a9190614212565b60405180910390f35b34801561023f57600080fd5b5061025a60048036038101906102559190613e35565b610aa6565b604051610267919061448d565b60405180910390f35b34801561027c57600080fd5b5061029760048036038101906102929190613e35565b610f4c565b6040516102ae9b9a999897969594939291906144af565b60405180910390f35b3480156102c357600080fd5b506102cc61127b565b6040516102d99190614766565b60405180910390f35b3480156102ee57600080fd5b50610309600480360381019061030491906147b4565b6117ec565b604051610316919061495d565b60405180910390f35b610339600480360381019061033491906147b4565b611b1b565b005b34801561034757600080fd5b50610362600480360381019061035d9190614a65565b611d8d565b005b34801561037057600080fd5b506103796120cb565b60405161038691906141db565b60405180910390f35b34801561039b57600080fd5b506103b660048036038101906103b19190614baf565b6120d1565b005b3480156103c457600080fd5b506103df60048036038101906103da9190614bef565b6123ce565b005b3480156103ed57600080fd5b5061040860048036038101906104039190613e35565b61271b565b6040516104159190614d3f565b60405180910390f35b34801561042a57600080fd5b50610433612a42565b6040516104409190614d61565b60405180910390f35b34801561045557600080fd5b50610470600480360381019061046b9190614baf565b612a66565b005b34801561047e57600080fd5b50610487612cd5565b005b34801561049557600080fd5b506104b060048036038101906104ab91906147b4565b612f46565b6040516104bd9190614d61565b60405180910390f35b3480156104d257600080fd5b506104ed60048036038101906104e89190614baf565b612f85565b005b3480156104fb57600080fd5b506105046133ba565b6040516105119190614efc565b60405180910390f35b34801561052657600080fd5b50610541600480360381019061053c9190614f1e565b61373b565b60405161054e91906141db565b60405180910390f35b34801561056357600080fd5b5061057e600480360381019061057991906147b4565b613796565b005b60076020528060005260406000206000915090508060000160009054906101000a900473ffffffffffffffffffffffffffffffffffffffff16908060010180546105c990614f8d565b80601f01602080910402602001604051908101604052809291908181526020018280546105f590614f8d565b80156106425780601f1061061757610100808354040283529160200191610642565b820191906000526020600020905b81548152906001019060200180831161062557829003601f168201915b50505050509080600201805461065790614f8d565b80601f016020809104026020016040519081016040528092919081815260200182805461068390614f8d565b80156106d05780601f106106a5576101008083540402835291602001916106d0565b820191906000526020600020905b8154815290600101906020018083116106b357829003601f168201915b5050505050908060030154908060040180546106eb90614f8d565b80601f016020809104026020016040519081016040528092919081815260200182805461071790614f8d565b80156107645780601f1061073957610100808354040283529160200191610764565b820191906000526020600020905b81548152906001019060200180831161074757829003601f168201915b50505050509080600501805461077990614f8d565b80601f01602080910402602001604051908101604052809291908181526020018280546107a590614f8d565b80156107f25780601f106107c7576101008083540402835291602001916107f2565b820191906000526020600020905b8154815290600101906020018083116107d557829003601f168201915b5050505050908060060160009054906101000a900460ff16908060070154905088565b60001515600760003373ffffffffffffffffffffffffffffffffffffffff1673ffffffffffffffffffffffffffffffffffffffff16815260200190815260200160002060060160009054906101000a900460ff161515146108ab576040517f08c379a00000000000000000000000000000000000000000000000000000000081526004016108a29061500a565b60405180910390fd5b60008451116108b957600080fd5b60008351116108c757600080fd5b600260008154809291906108da90615059565b91905055506040518061010001604052803373ffffffffffffffffffffffffffffffffffffffff1681526020018581526020018481526020016000815260200183815260200182815260200160011515815260200142815250600760003373ffffffffffffffffffffffffffffffffffffffff1673ffffffffffffffffffffffffffffffffffffffff16815260200190815260200160002060008201518160000160006101000a81548173ffffffffffffffffffffffffffffffffffffffff021916908373ffffffffffffffffffffffffffffffffffffffff16021790555060208201518160010190816109ce919061524d565b5060408201518160020190816109e4919061524d565b50606082015181600301556080820151816004019081610a04919061524d565b5060a0820151816005019081610a1a919061524d565b5060c08201518160060160006101000a81548160ff02191690831515021790555060e082015181600701559050507f6c0e8aabac6898602e5264c9a24b2394d9895a70bd2f4c44c8ca0fcfcec6477f3385604051610a7992919061531f565b60405180910390a150505050565b60035481565b60025481565b600060149054906101000a900460ff1681565b610aae613b13565b600660008373ffffffffffffffffffffffffffffffffffffffff1673ffffffffffffffffffffffffffffffffffffffff168152602001908152602001600020604051806101800160405290816000820160009054906101000a900473ffffffffffffffffffffffffffffffffffffffff1673ffffffffffffffffffffffffffffffffffffffff1673ffffffffffffffffffffffffffffffffffffffff168152602001600182018054610b5f90614f8d565b80601f0160208091040260200160405190810160405280929190818152602001828054610b8b90614f8d565b8015610bd85780601f10610bad57610100808354040283529160200191610bd8565b820191906000526020600020905b815481529060010190602001808311610bbb57829003601f168201915b50505050508152602001600282018054610bf190614f8d565b80601f0160208091040260200160405190810160405280929190818152602001828054610c1d90614f8d565b8015610c6a5780601f10610c3f57610100808354040283529160200191610c6a565b820191906000526020600020905b815481529060010190602001808311610c4d57829003601f168201915b5050505050815260200160038201548152602001600482018054610c8d90614f8d565b80601f0160208091040260200160405190810160405280929190818152602001828054610cb990614f8d565b8015610d065780601f10610cdb57610100808354040283529160200191610d06565b820191906000526020600020905b815481529060010190602001808311610ce957829003601f168201915b50505050508152602001600582018054610d1f90614f8d565b80601f0160208091040260200160405190810160405280929190818152602001828054610d4b90614f8d565b8015610d985780601f10610d6d57610100808354040283529160200191610d98565b820191906000526020600020905b815481529060010190602001808311610d7b57829003601f168201915b50505050508152602001600682018054610db190614f8d565b80601f0160208091040260200160405190810160405280929190818152602001828054610ddd90614f8d565b8015610e2a5780601f10610dff57610100808354040283529160200191610e2a565b820191906000526020600020905b815481529060010190602001808311610e0d57829003601f168201915b5050505050815260200160078201805480602002602001604051908101604052809291908181526020016000905b82821015610f04578382906000526020600020018054610e7790614f8d565b80601f0160208091040260200160405190810160405280929190818152602001828054610ea390614f8d565b8015610ef05780601f10610ec557610100808354040283529160200191610ef0565b820191906000526020600020905b815481529060010190602001808311610ed357829003601f168201915b505050505081526020019060010190610e58565b505050508152602001600882015481526020016009820160009054906101000a900460ff16151515158152602001600a8201548152602001600b820154815250509050919050565b60066020528060005260406000206000915090508060000160009054906101000a900473ffffffffffffffffffffffffffffffffffffffff1690806001018054610f9590614f8d565b80601f0160208091040260200160405190810160405280929190818152602001828054610fc190614f8d565b801561100e5780601f10610fe35761010080835404028352916020019161100e565b820191906000526020600020905b815481529060010190602001808311610ff157829003601f168201915b50505050509080600201805461102390614f8d565b80601f016020809104026020016040519081016040528092919081815260200182805461104f90614f8d565b801561109c5780601f106110715761010080835404028352916020019161109c565b820191906000526020600020905b81548152906001019060200180831161107f57829003601f168201915b5050505050908060030154908060040180546110b790614f8d565b80601f01602080910402602001604051908101604052809291908181526020018280546110e390614f8d565b80156111305780601f1061110557610100808354040283529160200191611130565b820191906000526020600020905b81548152906001019060200180831161111357829003601f168201915b50505050509080600501805461114590614f8d565b80601f016020809104026020016040519081016040528092919081815260200182805461117190614f8d565b80156111be5780601f10611193576101008083540402835291602001916111be565b820191906000526020600020905b8154815290600101906020018083116111a157829003601f168201915b5050505050908060060180546111d390614f8d565b80601f01602080910402602001604051908101604052809291908181526020018280546111ff90614f8d565b801561124c5780601f106112215761010080835404028352916020019161124c565b820191906000526020600020905b81548152906001019060200180831161122f57829003601f168201915b5050505050908060080154908060090160009054906101000a900460ff169080600a01549080600b015490508b565b6060600060015467ffffffffffffffff81111561129b5761129a613fd9565b5b6040519080825280602002602001820160405280156112d457816020015b6112c1613b13565b8152602001906001900390816112b95790505b50905060005b6001548110156117e45760066000600483815481106112fc576112fb61534f565b5b9060005260206000200160009054906101000a900473ffffffffffffffffffffffffffffffffffffffff1673ffffffffffffffffffffffffffffffffffffffff1673ffffffffffffffffffffffffffffffffffffffff168152602001908152602001600020604051806101800160405290816000820160009054906101000a900473ffffffffffffffffffffffffffffffffffffffff1673ffffffffffffffffffffffffffffffffffffffff1673ffffffffffffffffffffffffffffffffffffffff1681526020016001820180546113d390614f8d565b80601f01602080910402602001604051908101604052809291908181526020018280546113ff90614f8d565b801561144c5780601f106114215761010080835404028352916020019161144c565b820191906000526020600020905b81548152906001019060200180831161142f57829003601f168201915b5050505050815260200160028201805461146590614f8d565b80601f016020809104026020016040519081016040528092919081815260200182805461149190614f8d565b80156114de5780601f106114b3576101008083540402835291602001916114de565b820191906000526020600020905b8154815290600101906020018083116114c157829003601f168201915b505050505081526020016003820154815260200160048201805461150190614f8d565b80601f016020809104026020016040519081016040528092919081815260200182805461152d90614f8d565b801561157a5780601f1061154f5761010080835404028352916020019161157a565b820191906000526020600020905b81548152906001019060200180831161155d57829003601f168201915b5050505050815260200160058201805461159390614f8d565b80601f01602080910402602001604051908101604052809291908181526020018280546115bf90614f8d565b801561160c5780601f106115e15761010080835404028352916020019161160c565b820191906000526020600020905b8154815290600101906020018083116115ef57829003601f168201915b5050505050815260200160068201805461162590614f8d565b80601f016020809104026020016040519081016040528092919081815260200182805461165190614f8d565b801561169e5780601f106116735761010080835404028352916020019161169e565b820191906000526020600020905b81548152906001019060200180831161168157829003601f168201915b5050505050815260200160078201805480602002602001604051908101604052809291908181526020016000905b828210156117785783829060005260206000200180546116eb90614f8d565b80601f016020809104026020016040519081016040528092919081815260200182805461171790614f8d565b80156117645780601f1061173957610100808354040283529160200191611764565b820191906000526020600020905b81548152906001019060200180831161174757829003601f168201915b5050505050815260200190600101906116cc565b505050508152602001600882015481526020016009820160009054906101000a900460ff16151515158152602001600a8201548152602001600b820154815250508282815181106117cc576117cb61534f565b5b602002602001018190525080806001019150506112da565b508091505090565b6117f4613b8c565b6000821180156118165750600060149054906101000a900460ff1660ff168211155b611855576040517f08c379a000000000000000000000000000000000000000000000000000000000815260040161184c906153ca565b60405180910390fd5b60056000838152602001908152602001600020604051806101000160405290816000820160009054906101000a900460ff1660ff1660ff1681526020016000820160019054906101000a900473ffffffffffffffffffffffffffffffffffffffff1673ffffffffffffffffffffffffffffffffffffffff1673ffffffffffffffffffffffffffffffffffffffff1681526020016001820180546118f790614f8d565b80601f016020809104026020016040519081016040528092919081815260200182805461192390614f8d565b80156119705780601f1061194557610100808354040283529160200191611970565b820191906000526020600020905b81548152906001019060200180831161195357829003601f168201915b5050505050815260200160028201805461198990614f8d565b80601f01602080910402602001604051908101604052809291908181526020018280546119b590614f8d565b8015611a025780601f106119d757610100808354040283529160200191611a02565b820191906000526020600020905b8154815290600101906020018083116119e557829003601f168201915b50505050508152602001600382015481526020016004820160009054906101000a900460ff1615151515815260200160058201805480602002602001604051908101604052809291908181526020018280548015611ab557602002820191906000526020600020905b8160009054906101000a900473ffffffffffffffffffffffffffffffffffffffff1673ffffffffffffffffffffffffffffffffffffffff1681526020019060010190808311611a6b575b505050505081526020016006820160009054906101000a900473ffffffffffffffffffffffffffffffffffffffff1673ffffffffffffffffffffffffffffffffffffffff1673ffffffffffffffffffffffffffffffffffffffff16815250509050919050565b600060149054906101000a900460ff1660ff168111158015611b3d5750600081115b611b7c576040517f08c379a0000000000000000000000000000000000000000000000000000000008152600401611b7390615436565b60405180910390fd5b60006005600083815260200190815260200160002090506000600760003373ffffffffffffffffffffffffffffffffffffffff1673ffffffffffffffffffffffffffffffffffffffff16815260200190815260200160002090503373ffffffffffffffffffffffffffffffffffffffff168260000160019054906101000a900473ffffffffffffffffffffffffffffffffffffffff1673ffffffffffffffffffffffffffffffffffffffff1614611c3257600080fd5b8160040160009054906101000a900460ff1615611c84576040517f08c379a0000000000000000000000000000000000000000000000000000000008152600401611c7b906154a2565b60405180910390fd5b8160030154341015611ccb576040517f08c379a0000000000000000000000000000000000000000000000000000000008152600401611cc29061550e565b60405180910390fd5b34816003016000828254611cdf919061552e565b9250508190555034600860003373ffffffffffffffffffffffffffffffffffffffff1673ffffffffffffffffffffffffffffffffffffffff16815260200190815260200160002060008581526020019081526020016000206000828254611d46919061552e565b925050819055507fe030e47e27825a2ad1b19e4cf2e70bfbfb3124af275c7727a82b114ba7b29a85833334604051611d8093929190615562565b60405180910390a1505050565b60001515600660003373ffffffffffffffffffffffffffffffffffffffff1673ffffffffffffffffffffffffffffffffffffffff16815260200190815260200160002060090160009054906101000a900460ff16151514611e23576040517f08c379a0000000000000000000000000000000000000000000000000000000008152600401611e1a9061500a565b60405180910390fd5b6000875111611e3157600080fd5b6000865111611e3f57600080fd5b60016000815480929190611e5290615059565b91905055506040518061018001604052803373ffffffffffffffffffffffffffffffffffffffff168152602001888152602001878152602001600081526020018681526020018581526020018481526020018381526020016000815260200160011515815260200142815260200182815250600660003373ffffffffffffffffffffffffffffffffffffffff1673ffffffffffffffffffffffffffffffffffffffff16815260200190815260200160002060008201518160000160006101000a81548173ffffffffffffffffffffffffffffffffffffffff021916908373ffffffffffffffffffffffffffffffffffffffff1602179055506020820151816001019081611f5f919061524d565b506040820151816002019081611f75919061524d565b50606082015181600301556080820151816004019081611f95919061524d565b5060a0820151816005019081611fab919061524d565b5060c0820151816006019081611fc1919061524d565b5060e0820151816007019080519060200190611fde929190613c02565b5061010082015181600801556101208201518160090160006101000a81548160ff02191690831515021790555061014082015181600a015561016082015181600b01559050506004339080600181540180825580915050600190039060005260206000200160009091909190916101000a81548173ffffffffffffffffffffffffffffffffffffffff021916908373ffffffffffffffffffffffffffffffffffffffff1602179055507f21bef455eb0e77b12a579311ca8616d72216c8b628577eeda276ac16fe5b622e3383836040516120ba9392919061561f565b60405180910390a150505050505050565b60015481565b338073ffffffffffffffffffffffffffffffffffffffff16600760003373ffffffffffffffffffffffffffffffffffffffff1673ffffffffffffffffffffffffffffffffffffffff16815260200190815260200160002060000160009054906101000a900473ffffffffffffffffffffffffffffffffffffffff1673ffffffffffffffffffffffffffffffffffffffff16146121a2576040517f08c379a0000000000000000000000000000000000000000000000000000000008152600401612199906156a9565b60405180910390fd5b600060149054906101000a900460ff1660ff1683111580156121c45750600083115b612203576040517f08c379a00000000000000000000000000000000000000000000000000000000081526004016121fa90615715565b60405180910390fd5b6000600560008581526020019081526020016000209050600073ffffffffffffffffffffffffffffffffffffffff168160000160019054906101000a900473ffffffffffffffffffffffffffffffffffffffff1673ffffffffffffffffffffffffffffffffffffffff16036122ad576040517f08c379a00000000000000000000000000000000000000000000000000000000081526004016122a490615781565b60405180910390fd5b6122b78184613aa6565b6122f6576040517f08c379a00000000000000000000000000000000000000000000000000000000081526004016122ed906157ed565b60405180910390fd5b60008160030154905060018260040160006101000a81548160ff0219169083151502179055506003600081548092919061232f90615059565b9190505550600660008573ffffffffffffffffffffffffffffffffffffffff1673ffffffffffffffffffffffffffffffffffffffff168152602001908152602001600020600801600081548092919061238790615059565b91905055507f4dbba472101e9f148a3a5ecbe793f0ee16a7efe4bf3f8cbfab5330e1642ef9558585836040516123bf93929190615562565b60405180910390a15050505050565b338073ffffffffffffffffffffffffffffffffffffffff16600760003373ffffffffffffffffffffffffffffffffffffffff1673ffffffffffffffffffffffffffffffffffffffff16815260200190815260200160002060000160009054906101000a900473ffffffffffffffffffffffffffffffffffffffff1673ffffffffffffffffffffffffffffffffffffffff161461249f576040517f08c379a0000000000000000000000000000000000000000000000000000000008152600401612496906156a9565b60405180910390fd5b6000601481819054906101000a900460ff16809291906124be9061580d565b91906101000a81548160ff021916908360ff1602179055505060008060149054906101000a900460ff1690506040518061010001604052808260ff1681526020013373ffffffffffffffffffffffffffffffffffffffff168152602001868152602001858152602001848152602001600015158152602001600067ffffffffffffffff81111561255157612550613fd9565b5b60405190808252806020026020018201604052801561257f5781602001602082028036833780820191505090505b508152602001600073ffffffffffffffffffffffffffffffffffffffff16815250600560008360ff16815260200190815260200160002060008201518160000160006101000a81548160ff021916908360ff16021790555060208201518160000160016101000a81548173ffffffffffffffffffffffffffffffffffffffff021916908373ffffffffffffffffffffffffffffffffffffffff1602179055506040820151816001019081612633919061524d565b506060820151816002019081612649919061524d565b506080820151816003015560a08201518160040160006101000a81548160ff02191690831515021790555060c0820151816005019080519060200190612690929190613c5b565b5060e08201518160060160006101000a81548173ffffffffffffffffffffffffffffffffffffffff021916908373ffffffffffffffffffffffffffffffffffffffff1602179055509050507fb63f0fdfb200b05c8b95fb4dcf8f8abd30f0b6884d532792e705afab4f37380a818660405161270c929190615867565b60405180910390a15050505050565b612723613ce5565b600760008373ffffffffffffffffffffffffffffffffffffffff1673ffffffffffffffffffffffffffffffffffffffff168152602001908152602001600020604051806101000160405290816000820160009054906101000a900473ffffffffffffffffffffffffffffffffffffffff1673ffffffffffffffffffffffffffffffffffffffff1673ffffffffffffffffffffffffffffffffffffffff1681526020016001820180546127d490614f8d565b80601f016020809104026020016040519081016040528092919081815260200182805461280090614f8d565b801561284d5780601f106128225761010080835404028352916020019161284d565b820191906000526020600020905b81548152906001019060200180831161283057829003601f168201915b5050505050815260200160028201805461286690614f8d565b80601f016020809104026020016040519081016040528092919081815260200182805461289290614f8d565b80156128df5780601f106128b4576101008083540402835291602001916128df565b820191906000526020600020905b8154815290600101906020018083116128c257829003601f168201915b505050505081526020016003820154815260200160048201805461290290614f8d565b80601f016020809104026020016040519081016040528092919081815260200182805461292e90614f8d565b801561297b5780601f106129505761010080835404028352916020019161297b565b820191906000526020600020905b81548152906001019060200180831161295e57829003601f168201915b5050505050815260200160058201805461299490614f8d565b80601f01602080910402602001604051908101604052809291908181526020018280546129c090614f8d565b8015612a0d5780601f106129e257610100808354040283529160200191612a0d565b820191906000526020600020905b8154815290600101906020018083116129f057829003601f168201915b505050505081526020016006820160009054906101000a900460ff161515151581526020016007820154815250509050919050565b60008054906101000a900473ffffffffffffffffffffffffffffffffffffffff1681565b338073ffffffffffffffffffffffffffffffffffffffff16600760003373ffffffffffffffffffffffffffffffffffffffff1673ffffffffffffffffffffffffffffffffffffffff16815260200190815260200160002060000160009054906101000a900473ffffffffffffffffffffffffffffffffffffffff1673ffffffffffffffffffffffffffffffffffffffff1614612b37576040517f08c379a0000000000000000000000000000000000000000000000000000000008152600401612b2e906156a9565b60405180910390fd5b600060149054906101000a900460ff1660ff168311158015612b595750600083115b612b98576040517f08c379a0000000000000000000000000000000000000000000000000000000008152600401612b8f90615436565b60405180910390fd5b6000600560008581526020019081526020016000209050600073ffffffffffffffffffffffffffffffffffffffff168160000160019054906101000a900473ffffffffffffffffffffffffffffffffffffffff1673ffffffffffffffffffffffffffffffffffffffff1603612c42576040517f08c379a0000000000000000000000000000000000000000000000000000000008152600401612c3990615781565b60405180910390fd5b612c4c8184613aa6565b15612c8c576040517f08c379a0000000000000000000000000000000000000000000000000000000008152600401612c83906158e3565b60405180910390fd5b828160060160006101000a81548173ffffffffffffffffffffffffffffffffffffffff021916908373ffffffffffffffffffffffffffffffffffffffff16021790555050505050565b338073ffffffffffffffffffffffffffffffffffffffff16600660003373ffffffffffffffffffffffffffffffffffffffff1673ffffffffffffffffffffffffffffffffffffffff16815260200190815260200160002060000160009054906101000a900473ffffffffffffffffffffffffffffffffffffffff1673ffffffffffffffffffffffffffffffffffffffff1614612da6576040517f08c379a0000000000000000000000000000000000000000000000000000000008152600401612d9d9061594f565b60405180910390fd5b6000600660003373ffffffffffffffffffffffffffffffffffffffff1673ffffffffffffffffffffffffffffffffffffffff16815260200190815260200160002090506000816003015411612e30576040517f08c379a0000000000000000000000000000000000000000000000000000000008152600401612e27906159bb565b60405180910390fd5b60006064605f8360030154612e4591906159db565b612e4f9190615a4c565b90506000826003018190555060003373ffffffffffffffffffffffffffffffffffffffff1682604051612e8190615aae565b60006040518083038185875af1925050503d8060008114612ebe576040519150601f19603f3d011682016040523d82523d6000602084013e612ec3565b606091505b5050905080612f07576040517f08c379a0000000000000000000000000000000000000000000000000000000008152600401612efe90615b0f565b60405180910390fd5b7f09ad672d4e7c4892da934d1051932ebe9ec4b6ec8c3f40d569176db3e93e5abe3383604051612f38929190615b2f565b60405180910390a150505050565b60048181548110612f5657600080fd5b906000526020600020016000915054906101000a900473ffffffffffffffffffffffffffffffffffffffff1681565b338073ffffffffffffffffffffffffffffffffffffffff16600760003373ffffffffffffffffffffffffffffffffffffffff1673ffffffffffffffffffffffffffffffffffffffff16815260200190815260200160002060000160009054906101000a900473ffffffffffffffffffffffffffffffffffffffff1673ffffffffffffffffffffffffffffffffffffffff1614613056576040517f08c379a000000000000000000000000000000000000000000000000000000000815260040161304d906156a9565b60405180910390fd5b600060149054906101000a900460ff1660ff1683111580156130785750600083115b6130b7576040517f08c379a00000000000000000000000000000000000000000000000000000000081526004016130ae90615436565b60405180910390fd5b60006005600085815260200190815260200160002090508060000160019054906101000a900473ffffffffffffffffffffffffffffffffffffffff1673ffffffffffffffffffffffffffffffffffffffff163373ffffffffffffffffffffffffffffffffffffffff161461312a57600080fd5b60018160040160006101000a81548160ff0219169083151502179055613185576040517f08c379a000000000000000000000000000000000000000000000000000000000815260040161317c90615ba4565b60405180910390fd5b6000600860003373ffffffffffffffffffffffffffffffffffffffff1673ffffffffffffffffffffffffffffffffffffffff16815260200190815260200160002060008681526020019081526020016000205490506000811161321d576040517f08c379a000000000000000000000000000000000000000000000000000000000815260040161321490615c10565b60405180910390fd5b8160030154811015613264576040517f08c379a000000000000000000000000000000000000000000000000000000000815260040161325b90615c7c565b60405180910390fd5b6000600860003373ffffffffffffffffffffffffffffffffffffffff1673ffffffffffffffffffffffffffffffffffffffff1681526020019081526020016000206000878152602001908152602001600020819055506000600660008673ffffffffffffffffffffffffffffffffffffffff1673ffffffffffffffffffffffffffffffffffffffff168152602001908152602001600020905081816003016000828254613311919061552e565b925050819055506000600760003373ffffffffffffffffffffffffffffffffffffffff1673ffffffffffffffffffffffffffffffffffffffff16815260200190815260200160002090508281600301600082825461336f9190615c9c565b925050819055507f6e3c6096795c8298a218b2cfb8bde42726ff7c9a3d27b4d3ba41ab7f74feb5fb8787856040516133a993929190615562565b60405180910390a150505050505050565b6060600060149054906101000a900460ff1660ff1667ffffffffffffffff8111156133e8576133e7613fd9565b5b60405190808252806020026020018201604052801561342157816020015b61340e613b8c565b8152602001906001900390816134065790505b50905060005b600060149054906101000a900460ff1660ff168110156137375760056000600183613452919061552e565b8152602001908152602001600020604051806101000160405290816000820160009054906101000a900460ff1660ff1660ff1681526020016000820160019054906101000a900473ffffffffffffffffffffffffffffffffffffffff1673ffffffffffffffffffffffffffffffffffffffff1673ffffffffffffffffffffffffffffffffffffffff1681526020016001820180546134ef90614f8d565b80601f016020809104026020016040519081016040528092919081815260200182805461351b90614f8d565b80156135685780601f1061353d57610100808354040283529160200191613568565b820191906000526020600020905b81548152906001019060200180831161354b57829003601f168201915b5050505050815260200160028201805461358190614f8d565b80601f01602080910402602001604051908101604052809291908181526020018280546135ad90614f8d565b80156135fa5780601f106135cf576101008083540402835291602001916135fa565b820191906000526020600020905b8154815290600101906020018083116135dd57829003601f168201915b50505050508152602001600382015481526020016004820160009054906101000a900460ff16151515158152602001600582018054806020026020016040519081016040528092919081815260200182805480156136ad57602002820191906000526020600020905b8160009054906101000a900473ffffffffffffffffffffffffffffffffffffffff1673ffffffffffffffffffffffffffffffffffffffff1681526020019060010190808311613663575b505050505081526020016006820160009054906101000a900473ffffffffffffffffffffffffffffffffffffffff1673ffffffffffffffffffffffffffffffffffffffff1673ffffffffffffffffffffffffffffffffffffffff168152505082828151811061371f5761371e61534f565b5b60200260200101819052508080600101915050613427565b5090565b6000600860008473ffffffffffffffffffffffffffffffffffffffff1673ffffffffffffffffffffffffffffffffffffffff168152602001908152602001600020600083815260200190815260200160002054905092915050565b600060149054906101000a900460ff1660ff1681111580156137b85750600081115b6137f7576040517f08c379a00000000000000000000000000000000000000000000000000000000081526004016137ee90615715565b60405180910390fd5b6000600560008381526020019081526020016000209050600073ffffffffffffffffffffffffffffffffffffffff168160000160019054906101000a900473ffffffffffffffffffffffffffffffffffffffff1673ffffffffffffffffffffffffffffffffffffffff16036138a1576040517f08c379a000000000000000000000000000000000000000000000000000000000815260040161389890615781565b60405180910390fd5b600073ffffffffffffffffffffffffffffffffffffffff163373ffffffffffffffffffffffffffffffffffffffff1603613910576040517f08c379a000000000000000000000000000000000000000000000000000000000815260040161390790615d1c565b60405180910390fd5b60005b81600501805490508110156139dd573373ffffffffffffffffffffffffffffffffffffffff1682600501828154811061394f5761394e61534f565b5b9060005260206000200160009054906101000a900473ffffffffffffffffffffffffffffffffffffffff1673ffffffffffffffffffffffffffffffffffffffff16036139d0576040517f08c379a00000000000000000000000000000000000000000000000000000000081526004016139c790615d88565b60405180910390fd5b8080600101915050613913565b5080600501339080600181540180825580915050600190039060005260206000200160009091909190916101000a81548173ffffffffffffffffffffffffffffffffffffffff021916908373ffffffffffffffffffffffffffffffffffffffff1602179055507f2b443803772f6da2db17c7357119f932841870fdf0a3a5d8ca9d2e112bb13326828260000160019054906101000a900473ffffffffffffffffffffffffffffffffffffffff1633604051613a9a93929190615da8565b60405180910390a15050565b60008173ffffffffffffffffffffffffffffffffffffffff168360060160009054906101000a900473ffffffffffffffffffffffffffffffffffffffff1673ffffffffffffffffffffffffffffffffffffffff1603613b085760019050613b0d565b600090505b92915050565b604051806101800160405280600073ffffffffffffffffffffffffffffffffffffffff168152602001606081526020016060815260200160008152602001606081526020016060815260200160608152602001606081526020016000815260200160001515815260200160008152602001600081525090565b604051806101000160405280600060ff168152602001600073ffffffffffffffffffffffffffffffffffffffff16815260200160608152602001606081526020016000815260200160001515815260200160608152602001600073ffffffffffffffffffffffffffffffffffffffff1681525090565b828054828255906000526020600020908101928215613c4a579160200282015b82811115613c49578251829081613c39919061524d565b5091602001919060010190613c22565b5b509050613c579190613d42565b5090565b828054828255906000526020600020908101928215613cd4579160200282015b82811115613cd35782518260006101000a81548173ffffffffffffffffffffffffffffffffffffffff021916908373ffffffffffffffffffffffffffffffffffffffff16021790555091602001919060010190613c7b565b5b509050613ce19190613d66565b5090565b604051806101000160405280600073ffffffffffffffffffffffffffffffffffffffff1681526020016060815260200160608152602001600081526020016060815260200160608152602001600015158152602001600081525090565b5b80821115613d625760008181613d599190613d83565b50600101613d43565b5090565b5b80821115613d7f576000816000905550600101613d67565b5090565b508054613d8f90614f8d565b6000825580601f10613da15750613dc0565b601f016020900490600052602060002090810190613dbf9190613d66565b5b50565b6000604051905090565b600080fd5b600080fd5b600073ffffffffffffffffffffffffffffffffffffffff82169050919050565b6000613e0282613dd7565b9050919050565b613e1281613df7565b8114613e1d57600080fd5b50565b600081359050613e2f81613e09565b92915050565b600060208284031215613e4b57613e4a613dcd565b5b6000613e5984828501613e20565b91505092915050565b613e6b81613df7565b82525050565b600081519050919050565b600082825260208201905092915050565b60005b83811015613eab578082015181840152602081019050613e90565b60008484015250505050565b6000601f19601f8301169050919050565b6000613ed382613e71565b613edd8185613e7c565b9350613eed818560208601613e8d565b613ef681613eb7565b840191505092915050565b6000819050919050565b613f1481613f01565b82525050565b60008115159050919050565b613f2f81613f1a565b82525050565b600061010082019050613f4b600083018b613e62565b8181036020830152613f5d818a613ec8565b90508181036040830152613f718189613ec8565b9050613f806060830188613f0b565b8181036080830152613f928187613ec8565b905081810360a0830152613fa68186613ec8565b9050613fb560c0830185613f26565b613fc260e0830184613f0b565b9998505050505050505050565b600080fd5b600080fd5b7f4e487b7100000000000000000000000000000000000000000000000000000000600052604160045260246000fd5b61401182613eb7565b810181811067ffffffffffffffff821117156140305761402f613fd9565b5b80604052505050565b6000614043613dc3565b905061404f8282614008565b919050565b600067ffffffffffffffff82111561406f5761406e613fd9565b5b61407882613eb7565b9050602081019050919050565b82818337600083830152505050565b60006140a76140a284614054565b614039565b9050828152602081018484840111156140c3576140c2613fd4565b5b6140ce848285614085565b509392505050565b600082601f8301126140eb576140ea613fcf565b5b81356140fb848260208601614094565b91505092915050565b6000806000806080858703121561411e5761411d613dcd565b5b600085013567ffffffffffffffff81111561413c5761413b613dd2565b5b614148878288016140d6565b945050602085013567ffffffffffffffff81111561416957614168613dd2565b5b614175878288016140d6565b935050604085013567ffffffffffffffff81111561419657614195613dd2565b5b6141a2878288016140d6565b925050606085013567ffffffffffffffff8111156141c3576141c2613dd2565b5b6141cf878288016140d6565b91505092959194509250565b60006020820190506141f06000830184613f0b565b92915050565b600060ff82169050919050565b61420c816141f6565b82525050565b60006020820190506142276000830184614203565b92915050565b61423681613df7565b82525050565b600082825260208201905092915050565b600061425882613e71565b614262818561423c565b9350614272818560208601613e8d565b61427b81613eb7565b840191505092915050565b61428f81613f01565b82525050565b600081519050919050565b600082825260208201905092915050565b6000819050602082019050919050565b60006142cd838361424d565b905092915050565b6000602082019050919050565b60006142ed82614295565b6142f781856142a0565b935083602082028501614309856142b1565b8060005b85811015614345578484038952815161432685826142c1565b9450614331836142d5565b925060208a0199505060018101905061430d565b50829750879550505050505092915050565b61436081613f1a565b82525050565b60006101808301600083015161437f600086018261422d565b5060208301518482036020860152614397828261424d565b915050604083015184820360408601526143b1828261424d565b91505060608301516143c66060860182614286565b50608083015184820360808601526143de828261424d565b91505060a083015184820360a08601526143f8828261424d565b91505060c083015184820360c0860152614412828261424d565b91505060e083015184820360e086015261442c82826142e2565b915050610100830151614443610100860182614286565b50610120830151614458610120860182614357565b5061014083015161446d610140860182614286565b50610160830151614482610160860182614286565b508091505092915050565b600060208201905081810360008301526144a78184614366565b905092915050565b6000610160820190506144c5600083018e613e62565b81810360208301526144d7818d613ec8565b905081810360408301526144eb818c613ec8565b90506144fa606083018b613f0b565b818103608083015261450c818a613ec8565b905081810360a08301526145208189613ec8565b905081810360c08301526145348188613ec8565b905061454360e0830187613f0b565b614551610100830186613f26565b61455f610120830185613f0b565b61456d610140830184613f0b565b9c9b505050505050505050505050565b600081519050919050565b600082825260208201905092915050565b6000819050602082019050919050565b6000610180830160008301516145c2600086018261422d565b50602083015184820360208601526145da828261424d565b915050604083015184820360408601526145f4828261424d565b91505060608301516146096060860182614286565b5060808301518482036080860152614621828261424d565b91505060a083015184820360a086015261463b828261424d565b91505060c083015184820360c0860152614655828261424d565b91505060e083015184820360e086015261466f82826142e2565b915050610100830151614686610100860182614286565b5061012083015161469b610120860182614357565b506101408301516146b0610140860182614286565b506101608301516146c5610160860182614286565b508091505092915050565b60006146dc83836145a9565b905092915050565b6000602082019050919050565b60006146fc8261457d565b6147068185614588565b93508360208202850161471885614599565b8060005b85811015614754578484038952815161473585826146d0565b9450614740836146e4565b925060208a0199505060018101905061471c565b50829750879550505050505092915050565b6000602082019050818103600083015261478081846146f1565b905092915050565b61479181613f01565b811461479c57600080fd5b50565b6000813590506147ae81614788565b92915050565b6000602082840312156147ca576147c9613dcd565b5b60006147d88482850161479f565b91505092915050565b6147ea816141f6565b82525050565b600081519050919050565b600082825260208201905092915050565b6000819050602082019050919050565b6000614828838361422d565b60208301905092915050565b6000602082019050919050565b600061484c826147f0565b61485681856147fb565b93506148618361480c565b8060005b83811015614892578151614879888261481c565b975061488483614834565b925050600181019050614865565b5085935050505092915050565b6000610100830160008301516148b860008601826147e1565b5060208301516148cb602086018261422d565b50604083015184820360408601526148e3828261424d565b915050606083015184820360608601526148fd828261424d565b91505060808301516149126080860182614286565b5060a083015161492560a0860182614357565b5060c083015184820360c086015261493d8282614841565b91505060e083015161495260e086018261422d565b508091505092915050565b60006020820190508181036000830152614977818461489f565b905092915050565b600067ffffffffffffffff82111561499a57614999613fd9565b5b602082029050602081019050919050565b600080fd5b60006149c36149be8461497f565b614039565b905080838252602082019050602084028301858111156149e6576149e56149ab565b5b835b81811015614a2d57803567ffffffffffffffff811115614a0b57614a0a613fcf565b5b808601614a1889826140d6565b855260208501945050506020810190506149e8565b5050509392505050565b600082601f830112614a4c57614a4b613fcf565b5b8135614a5c8482602086016149b0565b91505092915050565b600080600080600080600060e0888a031215614a8457614a83613dcd565b5b600088013567ffffffffffffffff811115614aa257614aa1613dd2565b5b614aae8a828b016140d6565b975050602088013567ffffffffffffffff811115614acf57614ace613dd2565b5b614adb8a828b016140d6565b965050604088013567ffffffffffffffff811115614afc57614afb613dd2565b5b614b088a828b016140d6565b955050606088013567ffffffffffffffff811115614b2957614b28613dd2565b5b614b358a828b016140d6565b945050608088013567ffffffffffffffff811115614b5657614b55613dd2565b5b614b628a828b016140d6565b93505060a088013567ffffffffffffffff811115614b8357614b82613dd2565b5b614b8f8a828b01614a37565b92505060c0614ba08a828b0161479f565b91505092959891949750929550565b60008060408385031215614bc657614bc5613dcd565b5b6000614bd48582860161479f565b9250506020614be585828601613e20565b9150509250929050565b600080600060608486031215614c0857614c07613dcd565b5b600084013567ffffffffffffffff811115614c2657614c25613dd2565b5b614c32868287016140d6565b935050602084013567ffffffffffffffff811115614c5357614c52613dd2565b5b614c5f868287016140d6565b9250506040614c708682870161479f565b9150509250925092565b600061010083016000830151614c93600086018261422d565b5060208301518482036020860152614cab828261424d565b91505060408301518482036040860152614cc5828261424d565b9150506060830151614cda6060860182614286565b5060808301518482036080860152614cf2828261424d565b91505060a083015184820360a0860152614d0c828261424d565b91505060c0830151614d2160c0860182614357565b5060e0830151614d3460e0860182614286565b508091505092915050565b60006020820190508181036000830152614d598184614c7a565b905092915050565b6000602082019050614d766000830184613e62565b92915050565b600081519050919050565b600082825260208201905092915050565b6000819050602082019050919050565b600061010083016000830151614dc160008601826147e1565b506020830151614dd4602086018261422d565b5060408301518482036040860152614dec828261424d565b91505060608301518482036060860152614e06828261424d565b9150506080830151614e1b6080860182614286565b5060a0830151614e2e60a0860182614357565b5060c083015184820360c0860152614e468282614841565b91505060e0830151614e5b60e086018261422d565b508091505092915050565b6000614e728383614da8565b905092915050565b6000602082019050919050565b6000614e9282614d7c565b614e9c8185614d87565b935083602082028501614eae85614d98565b8060005b85811015614eea5784840389528151614ecb8582614e66565b9450614ed683614e7a565b925060208a01995050600181019050614eb2565b50829750879550505050505092915050565b60006020820190508181036000830152614f168184614e87565b905092915050565b60008060408385031215614f3557614f34613dcd565b5b6000614f4385828601613e20565b9250506020614f548582860161479f565b9150509250929050565b7f4e487b7100000000000000000000000000000000000000000000000000000000600052602260045260246000fd5b60006002820490506001821680614fa557607f821691505b602082108103614fb857614fb7614f5e565b5b50919050565b7f4152000000000000000000000000000000000000000000000000000000000000600082015250565b6000614ff4600283613e7c565b9150614fff82614fbe565b602082019050919050565b6000602082019050818103600083015261502381614fe7565b9050919050565b7f4e487b7100000000000000000000000000000000000000000000000000000000600052601160045260246000fd5b600061506482613f01565b91507fffffffffffffffffffffffffffffffffffffffffffffffffffffffffffffffff82036150965761509561502a565b5b600182019050919050565b60008190508160005260206000209050919050565b60006020601f8301049050919050565b600082821b905092915050565b6000600883026151037fffffffffffffffffffffffffffffffffffffffffffffffffffffffffffffffff826150c6565b61510d86836150c6565b95508019841693508086168417925050509392505050565b6000819050919050565b600061514a61514561514084613f01565b615125565b613f01565b9050919050565b6000819050919050565b6151648361512f565b61517861517082615151565b8484546150d3565b825550505050565b600090565b61518d615180565b61519881848461515b565b505050565b5b818110156151bc576151b1600082615185565b60018101905061519e565b5050565b601f821115615201576151d2816150a1565b6151db846150b6565b810160208510156151ea578190505b6151fe6151f6856150b6565b83018261519d565b50505b505050565b600082821c905092915050565b600061522460001984600802615206565b1980831691505092915050565b600061523d8383615213565b9150826002028217905092915050565b61525682613e71565b67ffffffffffffffff81111561526f5761526e613fd9565b5b6152798254614f8d565b6152848282856151c0565b600060209050601f8311600181146152b757600084156152a5578287015190505b6152af8582615231565b865550615317565b601f1984166152c5866150a1565b60005b828110156152ed578489015182556001820191506020850194506020810190506152c8565b8683101561530a5784890151615306601f891682615213565b8355505b6001600288020188555050505b505050505050565b60006040820190506153346000830185613e62565b81810360208301526153468184613ec8565b90509392505050565b7f4e487b7100000000000000000000000000000000000000000000000000000000600052603260045260246000fd5b7f494a000000000000000000000000000000000000000000000000000000000000600082015250565b60006153b4600283613e7c565b91506153bf8261537e565b602082019050919050565b600060208201905081810360008301526153e3816153a7565b9050919050565b7f4a44452e00000000000000000000000000000000000000000000000000000000600082015250565b6000615420600483613e7c565b915061542b826153ea565b602082019050919050565b6000602082019050818103600083015261544f81615413565b9050919050565b7f4a41430000000000000000000000000000000000000000000000000000000000600082015250565b600061548c600383613e7c565b915061549782615456565b602082019050919050565b600060208201905081810360008301526154bb8161547f565b9050919050565b7f4941000000000000000000000000000000000000000000000000000000000000600082015250565b60006154f8600283613e7c565b9150615503826154c2565b602082019050919050565b60006020820190508181036000830152615527816154eb565b9050919050565b600061553982613f01565b915061554483613f01565b925082820190508082111561555c5761555b61502a565b5b92915050565b60006060820190506155776000830186613f0b565b6155846020830185613e62565b6155916040830184613f0b565b949350505050565b600082825260208201905092915050565b60006155b582614295565b6155bf8185615599565b9350836020820285016155d1856142b1565b8060005b8581101561560d57848403895281516155ee85826142c1565b94506155f9836142d5565b925060208a019950506001810190506155d5565b50829750879550505050505092915050565b60006060820190506156346000830186613e62565b818103602083015261564681856155aa565b90506156556040830184613f0b565b949350505050565b7f4f45460000000000000000000000000000000000000000000000000000000000600082015250565b6000615693600383613e7c565b915061569e8261565d565b602082019050919050565b600060208201905081810360008301526156c281615686565b9050919050565b7f4a44450000000000000000000000000000000000000000000000000000000000600082015250565b60006156ff600383613e7c565b915061570a826156c9565b602082019050919050565b6000602082019050818103600083015261572e816156f2565b9050919050565b7f4a4e460000000000000000000000000000000000000000000000000000000000600082015250565b600061576b600383613e7c565b915061577682615735565b602082019050919050565b6000602082019050818103600083015261579a8161575e565b9050919050565b7f464e480000000000000000000000000000000000000000000000000000000000600082015250565b60006157d7600383613e7c565b91506157e2826157a1565b602082019050919050565b60006020820190508181036000830152615806816157ca565b9050919050565b6000615818826141f6565b915060ff820361582b5761582a61502a565b5b600182019050919050565b600061585161584c615847846141f6565b615125565b613f01565b9050919050565b61586181615836565b82525050565b600060408201905061587c6000830185615858565b818103602083015261588e8184613ec8565b90509392505050565b7f4641480000000000000000000000000000000000000000000000000000000000600082015250565b60006158cd600383613e7c565b91506158d882615897565b602082019050919050565b600060208201905081810360008301526158fc816158c0565b9050919050565b7f4f46460000000000000000000000000000000000000000000000000000000000600082015250565b6000615939600383613e7c565b915061594482615903565b602082019050919050565b600060208201905081810360008301526159688161592c565b9050919050565b7f4e42570000000000000000000000000000000000000000000000000000000000600082015250565b60006159a5600383613e7c565b91506159b08261596f565b602082019050919050565b600060208201905081810360008301526159d481615998565b9050919050565b60006159e682613f01565b91506159f183613f01565b92508282026159ff81613f01565b91508282048414831517615a1657615a1561502a565b5b5092915050565b7f4e487b7100000000000000000000000000000000000000000000000000000000600052601260045260246000fd5b6000615a5782613f01565b9150615a6283613f01565b925082615a7257615a71615a1d565b5b828204905092915050565b600081905092915050565b50565b6000615a98600083615a7d565b9150615aa382615a88565b600082019050919050565b6000615ab982615a8b565b9150819050919050565b7f5446000000000000000000000000000000000000000000000000000000000000600082015250565b6000615af9600283613e7c565b9150615b0482615ac3565b602082019050919050565b60006020820190508181036000830152615b2881615aec565b9050919050565b6000604082019050615b446000830185613e62565b615b516020830184613f0b565b9392505050565b7f4a4e430000000000000000000000000000000000000000000000000000000000600082015250565b6000615b8e600383613e7c565b9150615b9982615b58565b602082019050919050565b60006020820190508181036000830152615bbd81615b81565b9050919050565b7f4e46450000000000000000000000000000000000000000000000000000000000600082015250565b6000615bfa600383613e7c565b9150615c0582615bc4565b602082019050919050565b60006020820190508181036000830152615c2981615bed565b9050919050565b7f4946000000000000000000000000000000000000000000000000000000000000600082015250565b6000615c66600283613e7c565b9150615c7182615c30565b602082019050919050565b60006020820190508181036000830152615c9581615c59565b9050919050565b6000615ca782613f01565b9150615cb283613f01565b9250828203905081811115615cca57615cc961502a565b5b92915050565b7f49412e0000000000000000000000000000000000000000000000000000000000600082015250565b6000615d06600383613e7c565b9150615d1182615cd0565b602082019050919050565b60006020820190508181036000830152615d3581615cf9565b9050919050565b7f5948410000000000000000000000000000000000000000000000000000000000600082015250565b6000615d72600383613e7c565b9150615d7d82615d3c565b602082019050919050565b60006020820190508181036000830152615da181615d65565b9050919050565b6000606082019050615dbd6000830186613f0b565b615dca6020830185613e62565b615dd76040830184613e62565b94935050505056fea2646970667358221220f11510ef7e2f0fe23b750f3e9ceb1631022fc32196a6e4cd11f987a9ef176ad564736f6c63430008180033",
  "linkReferences": {},
  "deployedLinkReferences": {}
}