{
  "_format": "hh-sol-artifact-1",
  "contractName": "Djob",
  "sourceName": "contracts/Job.sol",
  "abi": [
    {
      "inputs": [],
      "stateMutability": "nonpayable",
      "type": "constructor"
    },
    {
      "inputs": [],
      "name": "AlreadyRegistered",
      "type": "error"
    },
    {
      "inputs": [],
      "name": "WrongRole",
      "type": "error"
    },
    {
      "anonymous": false,
      "inputs": [
        {
          "indexed": false,
          "internalType": "uint256",
          "name": "jobId",
          "type": "uint256"
        },
        {
          "indexed": false,
          "internalType": "address",
          "name": "employerAddress",
          "type": "address"
        },
        {
          "indexed": false,
          "internalType": "address",
          "name": "freelancerAddress",
          "type": "address"
        }
      ],
      "name": "AppliedForJob",
      "type": "event"
    },
    {
      "anonymous": false,
      "inputs": [
        {
          "indexed": false,
          "internalType": "address",
          "name": "EmployerAddress",
          "type": "address"
        },
        {
          "indexed": false,
          "internalType": "string",
          "name": "name",
          "type": "string"
        }
      ],
      "name": "EmployerRegistered",
      "type": "event"
    },
    {
      "anonymous": false,
      "inputs": [
        {
          "indexed": false,
          "internalType": "address",
          "name": "freelancerAddress",
          "type": "address"
        },
        {
          "indexed": false,
          "internalType": "string[]",
          "name": "name",
          "type": "string[]"
        },
        {
          "indexed": false,
          "internalType": "uint256",
          "name": "amount",
          "type": "uint256"
        }
      ],
      "name": "FreelancerRegistered",
      "type": "event"
    },
    {
      "anonymous": false,
      "inputs": [
        {
          "indexed": false,
          "internalType": "uint256",
          "name": "jobId",
          "type": "uint256"
        },
        {
          "indexed": false,
          "internalType": "address",
          "name": "sender",
          "type": "address"
        },
        {
          "indexed": false,
          "internalType": "uint256",
          "name": "amount",
          "type": "uint256"
        }
      ],
      "name": "FundsDeposited",
      "type": "event"
    },
    {
      "anonymous": false,
      "inputs": [
        {
          "indexed": false,
          "internalType": "uint256",
          "name": "jobId",
          "type": "uint256"
        },
        {
          "indexed": false,
          "internalType": "address",
          "name": "freelancerAddress",
          "type": "address"
        },
        {
          "indexed": false,
          "internalType": "uint256",
          "name": "amount",
          "type": "uint256"
        }
      ],
      "name": "FundsReleased",
      "type": "event"
    },
    {
      "anonymous": false,
      "inputs": [
        {
          "indexed": false,
          "internalType": "uint256",
          "name": "jobId",
          "type": "uint256"
        },
        {
          "indexed": false,
          "internalType": "address",
          "name": "freelancerAddress",
          "type": "address"
        },
        {
          "indexed": false,
          "internalType": "uint256",
          "name": "payment",
          "type": "uint256"
        }
      ],
      "name": "JobCompleted",
      "type": "event"
    },
    {
      "anonymous": false,
      "inputs": [
        {
          "indexed": false,
          "internalType": "uint256",
          "name": "jobId",
          "type": "uint256"
        },
        {
          "indexed": false,
          "internalType": "string",
          "name": "title",
          "type": "string"
        }
      ],
      "name": "JobCreated",
      "type": "event"
    },
    {
      "anonymous": false,
      "inputs": [
        {
          "indexed": false,
          "internalType": "address",
          "name": "freelancer",
          "type": "address"
        },
        {
          "indexed": false,
          "internalType": "uint256",
          "name": "amount",
          "type": "uint256"
        }
      ],
      "name": "WithdrawFund",
      "type": "event"
    },
    {
      "inputs": [
        {
          "internalType": "uint256",
          "name": "",
          "type": "uint256"
        }
      ],
      "name": "allFreelancerAddresses",
      "outputs": [
        {
          "internalType": "address",
          "name": "",
          "type": "address"
        }
      ],
      "stateMutability": "view",
      "type": "function"
    },
    {
      "inputs": [],
      "name": "allJobs",
      "outputs": [
        {
          "components": [
            {
              "internalType": "uint8",
              "name": "id",
              "type": "uint8"
            },
            {
              "internalType": "address",
              "name": "employer",
              "type": "address"
            },
            {
              "internalType": "string",
              "name": "title",
              "type": "string"
            },
            {
              "internalType": "string",
              "name": "description",
              "type": "string"
            },
            {
              "internalType": "uint256",
              "name": "budget",
              "type": "uint256"
            },
            {
              "internalType": "bool",
              "name": "completed",
              "type": "bool"
            },
            {
              "internalType": "address[]",
              "name": "applicants",
              "type": "address[]"
            },
            {
              "internalType": "address",
              "name": "hiredFreelancer",
              "type": "address"
            }
          ],
          "internalType": "struct Djob.Job[]",
          "name": "props",
          "type": "tuple[]"
        }
      ],
      "stateMutability": "view",
      "type": "function"
    },
    {
      "inputs": [
        {
          "internalType": "uint256",
          "name": "jobId",
          "type": "uint256"
        }
      ],
      "name": "applyForJob",
      "outputs": [],
      "stateMutability": "nonpayable",
      "type": "function"
    },
    {
      "inputs": [
        {
          "internalType": "uint256",
          "name": "jobId",
          "type": "uint256"
        },
        {
          "internalType": "address",
          "name": "freelancerAddress",
          "type": "address"
        }
      ],
      "name": "completeJob",
      "outputs": [],
      "stateMutability": "nonpayable",
      "type": "function"
    },
    {
      "inputs": [
        {
          "internalType": "string",
          "name": "_title",
          "type": "string"
        },
        {
          "internalType": "string",
          "name": "_description",
          "type": "string"
        },
        {
          "internalType": "uint256",
          "name": "_budget",
          "type": "uint256"
        }
      ],
      "name": "createJob",
      "outputs": [],
      "stateMutability": "nonpayable",
      "type": "function"
    },
    {
      "inputs": [
        {
          "internalType": "address",
          "name": "",
          "type": "address"
        }
      ],
      "name": "employers",
      "outputs": [
        {
          "internalType": "address",
          "name": "employerAddress",
          "type": "address"
        },
        {
          "internalType": "string",
          "name": "name",
          "type": "string"
        },
        {
          "internalType": "string",
          "name": "industry",
          "type": "string"
        },
        {
          "internalType": "uint256",
          "name": "balance",
          "type": "uint256"
        },
        {
          "internalType": "string",
          "name": "country",
          "type": "string"
        },
        {
          "internalType": "string",
          "name": "image",
          "type": "string"
        },
        {
          "internalType": "bool",
          "name": "registered",
          "type": "bool"
        },
        {
          "internalType": "uint256",
          "name": "registration_date",
          "type": "uint256"
        }
      ],
      "stateMutability": "view",
      "type": "function"
    },
    {
      "inputs": [
        {
          "internalType": "address",
          "name": "",
          "type": "address"
        }
      ],
      "name": "freelancers",
      "outputs": [
        {
          "internalType": "address",
          "name": "freelancerAddress",
          "type": "address"
        },
        {
          "internalType": "string",
          "name": "name",
          "type": "string"
        },
        {
          "internalType": "string",
          "name": "skills",
          "type": "string"
        },
        {
          "internalType": "uint256",
          "name": "balance",
          "type": "uint256"
        },
        {
          "internalType": "string",
          "name": "country",
          "type": "string"
        },
        {
          "internalType": "string",
          "name": "gigTitle",
          "type": "string"
        },
        {
          "internalType": "string",
          "name": "gitDescription",
          "type": "string"
        },
        {
          "internalType": "uint256",
          "name": "jobsCompleted",
          "type": "uint256"
        },
        {
          "internalType": "bool",
          "name": "registered",
          "type": "bool"
        },
        {
          "internalType": "uint256",
          "name": "registration_date",
          "type": "uint256"
        },
        {
          "internalType": "uint256",
          "name": "starting_price",
          "type": "uint256"
        }
      ],
      "stateMutability": "view",
      "type": "function"
    },
    {
      "inputs": [
        {
          "internalType": "uint256",
          "name": "jobId",
          "type": "uint256"
        }
      ],
      "name": "getJobByID",
      "outputs": [
        {
          "components": [
            {
              "internalType": "uint8",
              "name": "id",
              "type": "uint8"
            },
            {
              "internalType": "address",
              "name": "employer",
              "type": "address"
            },
            {
              "internalType": "string",
              "name": "title",
              "type": "string"
            },
            {
              "internalType": "string",
              "name": "description",
              "type": "string"
            },
            {
              "internalType": "uint256",
              "name": "budget",
              "type": "uint256"
            },
            {
              "internalType": "bool",
              "name": "completed",
              "type": "bool"
            },
            {
              "internalType": "address[]",
              "name": "applicants",
              "type": "address[]"
            },
            {
              "internalType": "address",
              "name": "hiredFreelancer",
              "type": "address"
            }
          ],
          "internalType": "struct Djob.Job",
          "name": "props",
          "type": "tuple"
        }
      ],
      "stateMutability": "view",
      "type": "function"
    },
    {
      "inputs": [],
      "name": "owner",
      "outputs": [
        {
          "internalType": "address",
          "name": "",
          "type": "address"
        }
      ],
      "stateMutability": "view",
      "type": "function"
    },
    {
      "inputs": [
        {
          "internalType": "address",
          "name": "",
          "type": "address"
        }
      ],
      "name": "roles",
      "outputs": [
        {
          "internalType": "uint8",
          "name": "",
          "type": "uint8"
        }
      ],
      "stateMutability": "view",
      "type": "function"
    },
    {
      "inputs": [],
      "name": "totalCompletedJobs",
      "outputs": [
        {
          "internalType": "uint256",
          "name": "",
          "type": "uint256"
        }
      ],
      "stateMutability": "view",
      "type": "function"
    },
    {
      "inputs": [],
      "name": "totalEmployers",
      "outputs": [
        {
          "internalType": "uint256",
          "name": "",
          "type": "uint256"
        }
      ],
      "stateMutability": "view",
      "type": "function"
    },
    {
      "inputs": [],
      "name": "totalFreelancers",
      "outputs": [
        {
          "internalType": "uint256",
          "name": "",
          "type": "uint256"
        }
      ],
      "stateMutability": "view",
      "type": "function"
    },
    {
      "inputs": [],
      "name": "totalJobs",
      "outputs": [
        {
          "internalType": "uint8",
          "name": "",
          "type": "uint8"
        }
      ],
      "stateMutability": "view",
      "type": "function"
    }
  ],
  "bytecode": "0x608060405234801561001057600080fd5b50336000806101000a81548173ffffffffffffffffffffffffffffffffffffffff021916908373ffffffffffffffffffffffffffffffffffffffff160217905550612b2b806100606000396000f3fe608060405234801561001057600080fd5b50600436106100ea5760003560e01c80636a6b67d11161008c5780639937464211610066578063993746421461025e578063c27a9dd41461028e578063c8d1b6aa146102be578063e0c94ae5146102dc576100ea565b80636a6b67d11461020857806373a06f42146102245780638da5cb5b14610240576100ea565b80631ace87b3116100c85780631ace87b31461016257806321bd669314610180578063371ae9f4146101ba5780635e586eb1146101ea576100ea565b80630be435bd146100ef5780631033397b146101265780631906b4ce14610144575b600080fd5b61010960048036038101906101049190611ad8565b6102f8565b60405161011d989796959493929190611bd8565b60405180910390f35b61012e61058d565b60405161013b9190611c72565b60405180910390f35b61014c610593565b6040516101599190611c72565b60405180910390f35b61016a610599565b6040516101779190611ca9565b60405180910390f35b61019a60048036038101906101959190611ad8565b6105ac565b6040516101b19b9a99989796959493929190611cc4565b60405180910390f35b6101d460048036038101906101cf9190611dbe565b6108db565b6040516101e19190611fde565b60405180910390f35b6101f2610c0a565b6040516101ff9190611c72565b60405180910390f35b610222600480360381019061021d9190612000565b610c10565b005b61023e60048036038101906102399190612175565b610ec4565b005b6102486111c8565b6040516102559190612200565b60405180910390f35b61027860048036038101906102739190611ad8565b6111ec565b6040516102859190611ca9565b60405180910390f35b6102a860048036038101906102a39190611dbe565b61120c565b6040516102b59190612200565b60405180910390f35b6102c661124b565b6040516102d3919061239b565b60405180910390f35b6102f660048036038101906102f19190611dbe565b6115cc565b005b60076020528060005260406000206000915090508060000160009054906101000a900473ffffffffffffffffffffffffffffffffffffffff1690806001018054610341906123ec565b80601f016020809104026020016040519081016040528092919081815260200182805461036d906123ec565b80156103ba5780601f1061038f576101008083540402835291602001916103ba565b820191906000526020600020905b81548152906001019060200180831161039d57829003601f168201915b5050505050908060020180546103cf906123ec565b80601f01602080910402602001604051908101604052809291908181526020018280546103fb906123ec565b80156104485780601f1061041d57610100808354040283529160200191610448565b820191906000526020600020905b81548152906001019060200180831161042b57829003601f168201915b505050505090806003015490806004018054610463906123ec565b80601f016020809104026020016040519081016040528092919081815260200182805461048f906123ec565b80156104dc5780601f106104b1576101008083540402835291602001916104dc565b820191906000526020600020905b8154815290600101906020018083116104bf57829003601f168201915b5050505050908060050180546104f1906123ec565b80601f016020809104026020016040519081016040528092919081815260200182805461051d906123ec565b801561056a5780601f1061053f5761010080835404028352916020019161056a565b820191906000526020600020905b81548152906001019060200180831161054d57829003601f168201915b5050505050908060060160009054906101000a900460ff16908060070154905088565b60035481565b60025481565b600060149054906101000a900460ff1681565b60066020528060005260406000206000915090508060000160009054906101000a900473ffffffffffffffffffffffffffffffffffffffff16908060010180546105f5906123ec565b80601f0160208091040260200160405190810160405280929190818152602001828054610621906123ec565b801561066e5780601f106106435761010080835404028352916020019161066e565b820191906000526020600020905b81548152906001019060200180831161065157829003601f168201915b505050505090806002018054610683906123ec565b80601f01602080910402602001604051908101604052809291908181526020018280546106af906123ec565b80156106fc5780601f106106d1576101008083540402835291602001916106fc565b820191906000526020600020905b8154815290600101906020018083116106df57829003601f168201915b505050505090806003015490806004018054610717906123ec565b80601f0160208091040260200160405190810160405280929190818152602001828054610743906123ec565b80156107905780601f1061076557610100808354040283529160200191610790565b820191906000526020600020905b81548152906001019060200180831161077357829003601f168201915b5050505050908060050180546107a5906123ec565b80601f01602080910402602001604051908101604052809291908181526020018280546107d1906123ec565b801561081e5780601f106107f35761010080835404028352916020019161081e565b820191906000526020600020905b81548152906001019060200180831161080157829003601f168201915b505050505090806006018054610833906123ec565b80601f016020809104026020016040519081016040528092919081815260200182805461085f906123ec565b80156108ac5780601f10610881576101008083540402835291602001916108ac565b820191906000526020600020905b81548152906001019060200180831161088f57829003601f168201915b5050505050908060080154908060090160009054906101000a900460ff169080600a01549080600b015490508b565b6108e3611949565b6000821180156109055750600060149054906101000a900460ff1660ff168211155b610944576040517f08c379a000000000000000000000000000000000000000000000000000000000815260040161093b90612469565b60405180910390fd5b60056000838152602001908152602001600020604051806101000160405290816000820160009054906101000a900460ff1660ff1660ff1681526020016000820160019054906101000a900473ffffffffffffffffffffffffffffffffffffffff1673ffffffffffffffffffffffffffffffffffffffff1673ffffffffffffffffffffffffffffffffffffffff1681526020016001820180546109e6906123ec565b80601f0160208091040260200160405190810160405280929190818152602001828054610a12906123ec565b8015610a5f5780601f10610a3457610100808354040283529160200191610a5f565b820191906000526020600020905b815481529060010190602001808311610a4257829003601f168201915b50505050508152602001600282018054610a78906123ec565b80601f0160208091040260200160405190810160405280929190818152602001828054610aa4906123ec565b8015610af15780601f10610ac657610100808354040283529160200191610af1565b820191906000526020600020905b815481529060010190602001808311610ad457829003601f168201915b50505050508152602001600382015481526020016004820160009054906101000a900460ff1615151515815260200160058201805480602002602001604051908101604052809291908181526020018280548015610ba457602002820191906000526020600020905b8160009054906101000a900473ffffffffffffffffffffffffffffffffffffffff1673ffffffffffffffffffffffffffffffffffffffff1681526020019060010190808311610b5a575b505050505081526020016006820160009054906101000a900473ffffffffffffffffffffffffffffffffffffffff1673ffffffffffffffffffffffffffffffffffffffff1673ffffffffffffffffffffffffffffffffffffffff16815250509050919050565b60015481565b6001600960003373ffffffffffffffffffffffffffffffffffffffff1673ffffffffffffffffffffffffffffffffffffffff16815260200190815260200160002060009054906101000a900460ff1660ff1614610c99576040517f7669999000000000000000000000000000000000000000000000000000000000815260040160405180910390fd5b600060149054906101000a900460ff1660ff168211158015610cbb5750600082115b610cfa576040517f08c379a0000000000000000000000000000000000000000000000000000000008152600401610cf1906124d5565b60405180910390fd5b6000600560008481526020019081526020016000209050600073ffffffffffffffffffffffffffffffffffffffff168160000160019054906101000a900473ffffffffffffffffffffffffffffffffffffffff1673ffffffffffffffffffffffffffffffffffffffff1603610da4576040517f08c379a0000000000000000000000000000000000000000000000000000000008152600401610d9b90612541565b60405180910390fd5b610dae81836118dc565b610ded576040517f08c379a0000000000000000000000000000000000000000000000000000000008152600401610de4906125ad565b60405180910390fd5b60008160030154905060018260040160006101000a81548160ff02191690831515021790555060036000815480929190610e26906125fc565b9190505550600660008473ffffffffffffffffffffffffffffffffffffffff1673ffffffffffffffffffffffffffffffffffffffff1681526020019081526020016000206008016000815480929190610e7e906125fc565b91905055507f4dbba472101e9f148a3a5ecbe793f0ee16a7efe4bf3f8cbfab5330e1642ef955848483604051610eb693929190612644565b60405180910390a150505050565b6001600960003373ffffffffffffffffffffffffffffffffffffffff1673ffffffffffffffffffffffffffffffffffffffff16815260200190815260200160002060009054906101000a900460ff1660ff1614610f4d576040517f7669999000000000000000000000000000000000000000000000000000000000815260040160405180910390fd5b6000601481819054906101000a900460ff1680929190610f6c9061267b565b91906101000a81548160ff021916908360ff1602179055505060008060149054906101000a900460ff1690506040518061010001604052808260ff1681526020013373ffffffffffffffffffffffffffffffffffffffff168152602001858152602001848152602001838152602001600015158152602001600067ffffffffffffffff811115610fff57610ffe61204a565b5b60405190808252806020026020018201604052801561102d5781602001602082028036833780820191505090505b508152602001600073ffffffffffffffffffffffffffffffffffffffff16815250600560008360ff16815260200190815260200160002060008201518160000160006101000a81548160ff021916908360ff16021790555060208201518160000160016101000a81548173ffffffffffffffffffffffffffffffffffffffff021916908373ffffffffffffffffffffffffffffffffffffffff16021790555060408201518160010190816110e19190612850565b5060608201518160020190816110f79190612850565b506080820151816003015560a08201518160040160006101000a81548160ff02191690831515021790555060c082015181600501908051906020019061113e9291906119bf565b5060e08201518160060160006101000a81548173ffffffffffffffffffffffffffffffffffffffff021916908373ffffffffffffffffffffffffffffffffffffffff1602179055509050507fb63f0fdfb200b05c8b95fb4dcf8f8abd30f0b6884d532792e705afab4f37380a81856040516111ba929190612953565b60405180910390a150505050565b60008054906101000a900473ffffffffffffffffffffffffffffffffffffffff1681565b60096020528060005260406000206000915054906101000a900460ff1681565b6004818154811061121c57600080fd5b906000526020600020016000915054906101000a900473ffffffffffffffffffffffffffffffffffffffff1681565b6060600060149054906101000a900460ff1660ff1667ffffffffffffffff8111156112795761127861204a565b5b6040519080825280602002602001820160405280156112b257816020015b61129f611949565b8152602001906001900390816112975790505b50905060005b600060149054906101000a900460ff1660ff168110156115c857600560006001836112e39190612983565b8152602001908152602001600020604051806101000160405290816000820160009054906101000a900460ff1660ff1660ff1681526020016000820160019054906101000a900473ffffffffffffffffffffffffffffffffffffffff1673ffffffffffffffffffffffffffffffffffffffff1673ffffffffffffffffffffffffffffffffffffffff168152602001600182018054611380906123ec565b80601f01602080910402602001604051908101604052809291908181526020018280546113ac906123ec565b80156113f95780601f106113ce576101008083540402835291602001916113f9565b820191906000526020600020905b8154815290600101906020018083116113dc57829003601f168201915b50505050508152602001600282018054611412906123ec565b80601f016020809104026020016040519081016040528092919081815260200182805461143e906123ec565b801561148b5780601f106114605761010080835404028352916020019161148b565b820191906000526020600020905b81548152906001019060200180831161146e57829003601f168201915b50505050508152602001600382015481526020016004820160009054906101000a900460ff161515151581526020016005820180548060200260200160405190810160405280929190818152602001828054801561153e57602002820191906000526020600020905b8160009054906101000a900473ffffffffffffffffffffffffffffffffffffffff1673ffffffffffffffffffffffffffffffffffffffff16815260200190600101908083116114f4575b505050505081526020016006820160009054906101000a900473ffffffffffffffffffffffffffffffffffffffff1673ffffffffffffffffffffffffffffffffffffffff1673ffffffffffffffffffffffffffffffffffffffff16815250508282815181106115b0576115af6129b7565b5b602002602001018190525080806001019150506112b8565b5090565b600060149054906101000a900460ff1660ff1681111580156115ee5750600081115b61162d576040517f08c379a0000000000000000000000000000000000000000000000000000000008152600401611624906124d5565b60405180910390fd5b6000600560008381526020019081526020016000209050600073ffffffffffffffffffffffffffffffffffffffff168160000160019054906101000a900473ffffffffffffffffffffffffffffffffffffffff1673ffffffffffffffffffffffffffffffffffffffff16036116d7576040517f08c379a00000000000000000000000000000000000000000000000000000000081526004016116ce90612541565b60405180910390fd5b600073ffffffffffffffffffffffffffffffffffffffff163373ffffffffffffffffffffffffffffffffffffffff1603611746576040517f08c379a000000000000000000000000000000000000000000000000000000000815260040161173d90612a32565b60405180910390fd5b60005b8160050180549050811015611813573373ffffffffffffffffffffffffffffffffffffffff16826005018281548110611785576117846129b7565b5b9060005260206000200160009054906101000a900473ffffffffffffffffffffffffffffffffffffffff1673ffffffffffffffffffffffffffffffffffffffff1603611806576040517f08c379a00000000000000000000000000000000000000000000000000000000081526004016117fd90612a9e565b60405180910390fd5b8080600101915050611749565b5080600501339080600181540180825580915050600190039060005260206000200160009091909190916101000a81548173ffffffffffffffffffffffffffffffffffffffff021916908373ffffffffffffffffffffffffffffffffffffffff1602179055507f2b443803772f6da2db17c7357119f932841870fdf0a3a5d8ca9d2e112bb13326828260000160019054906101000a900473ffffffffffffffffffffffffffffffffffffffff16336040516118d093929190612abe565b60405180910390a15050565b60008173ffffffffffffffffffffffffffffffffffffffff168360060160009054906101000a900473ffffffffffffffffffffffffffffffffffffffff1673ffffffffffffffffffffffffffffffffffffffff160361193e5760019050611943565b600090505b92915050565b604051806101000160405280600060ff168152602001600073ffffffffffffffffffffffffffffffffffffffff16815260200160608152602001606081526020016000815260200160001515815260200160608152602001600073ffffffffffffffffffffffffffffffffffffffff1681525090565b828054828255906000526020600020908101928215611a38579160200282015b82811115611a375782518260006101000a81548173ffffffffffffffffffffffffffffffffffffffff021916908373ffffffffffffffffffffffffffffffffffffffff160217905550916020019190600101906119df565b5b509050611a459190611a49565b5090565b5b80821115611a62576000816000905550600101611a4a565b5090565b6000604051905090565b600080fd5b600080fd5b600073ffffffffffffffffffffffffffffffffffffffff82169050919050565b6000611aa582611a7a565b9050919050565b611ab581611a9a565b8114611ac057600080fd5b50565b600081359050611ad281611aac565b92915050565b600060208284031215611aee57611aed611a70565b5b6000611afc84828501611ac3565b91505092915050565b611b0e81611a9a565b82525050565b600081519050919050565b600082825260208201905092915050565b60005b83811015611b4e578082015181840152602081019050611b33565b60008484015250505050565b6000601f19601f8301169050919050565b6000611b7682611b14565b611b808185611b1f565b9350611b90818560208601611b30565b611b9981611b5a565b840191505092915050565b6000819050919050565b611bb781611ba4565b82525050565b60008115159050919050565b611bd281611bbd565b82525050565b600061010082019050611bee600083018b611b05565b8181036020830152611c00818a611b6b565b90508181036040830152611c148189611b6b565b9050611c236060830188611bae565b8181036080830152611c358187611b6b565b905081810360a0830152611c498186611b6b565b9050611c5860c0830185611bc9565b611c6560e0830184611bae565b9998505050505050505050565b6000602082019050611c876000830184611bae565b92915050565b600060ff82169050919050565b611ca381611c8d565b82525050565b6000602082019050611cbe6000830184611c9a565b92915050565b600061016082019050611cda600083018e611b05565b8181036020830152611cec818d611b6b565b90508181036040830152611d00818c611b6b565b9050611d0f606083018b611bae565b8181036080830152611d21818a611b6b565b905081810360a0830152611d358189611b6b565b905081810360c0830152611d498188611b6b565b9050611d5860e0830187611bae565b611d66610100830186611bc9565b611d74610120830185611bae565b611d82610140830184611bae565b9c9b505050505050505050505050565b611d9b81611ba4565b8114611da657600080fd5b50565b600081359050611db881611d92565b92915050565b600060208284031215611dd457611dd3611a70565b5b6000611de284828501611da9565b91505092915050565b611df481611c8d565b82525050565b611e0381611a9a565b82525050565b600082825260208201905092915050565b6000611e2582611b14565b611e2f8185611e09565b9350611e3f818560208601611b30565b611e4881611b5a565b840191505092915050565b611e5c81611ba4565b82525050565b611e6b81611bbd565b82525050565b600081519050919050565b600082825260208201905092915050565b6000819050602082019050919050565b6000611ea98383611dfa565b60208301905092915050565b6000602082019050919050565b6000611ecd82611e71565b611ed78185611e7c565b9350611ee283611e8d565b8060005b83811015611f13578151611efa8882611e9d565b9750611f0583611eb5565b925050600181019050611ee6565b5085935050505092915050565b600061010083016000830151611f396000860182611deb565b506020830151611f4c6020860182611dfa565b5060408301518482036040860152611f648282611e1a565b91505060608301518482036060860152611f7e8282611e1a565b9150506080830151611f936080860182611e53565b5060a0830151611fa660a0860182611e62565b5060c083015184820360c0860152611fbe8282611ec2565b91505060e0830151611fd360e0860182611dfa565b508091505092915050565b60006020820190508181036000830152611ff88184611f20565b905092915050565b6000806040838503121561201757612016611a70565b5b600061202585828601611da9565b925050602061203685828601611ac3565b9150509250929050565b600080fd5b600080fd5b7f4e487b7100000000000000000000000000000000000000000000000000000000600052604160045260246000fd5b61208282611b5a565b810181811067ffffffffffffffff821117156120a1576120a061204a565b5b80604052505050565b60006120b4611a66565b90506120c08282612079565b919050565b600067ffffffffffffffff8211156120e0576120df61204a565b5b6120e982611b5a565b9050602081019050919050565b82818337600083830152505050565b6000612118612113846120c5565b6120aa565b90508281526020810184848401111561213457612133612045565b5b61213f8482856120f6565b509392505050565b600082601f83011261215c5761215b612040565b5b813561216c848260208601612105565b91505092915050565b60008060006060848603121561218e5761218d611a70565b5b600084013567ffffffffffffffff8111156121ac576121ab611a75565b5b6121b886828701612147565b935050602084013567ffffffffffffffff8111156121d9576121d8611a75565b5b6121e586828701612147565b92505060406121f686828701611da9565b9150509250925092565b60006020820190506122156000830184611b05565b92915050565b600081519050919050565b600082825260208201905092915050565b6000819050602082019050919050565b6000610100830160008301516122606000860182611deb565b5060208301516122736020860182611dfa565b506040830151848203604086015261228b8282611e1a565b915050606083015184820360608601526122a58282611e1a565b91505060808301516122ba6080860182611e53565b5060a08301516122cd60a0860182611e62565b5060c083015184820360c08601526122e58282611ec2565b91505060e08301516122fa60e0860182611dfa565b508091505092915050565b60006123118383612247565b905092915050565b6000602082019050919050565b60006123318261221b565b61233b8185612226565b93508360208202850161234d85612237565b8060005b85811015612389578484038952815161236a8582612305565b945061237583612319565b925060208a01995050600181019050612351565b50829750879550505050505092915050565b600060208201905081810360008301526123b58184612326565b905092915050565b7f4e487b7100000000000000000000000000000000000000000000000000000000600052602260045260246000fd5b6000600282049050600182168061240457607f821691505b602082108103612417576124166123bd565b5b50919050565b7f494a000000000000000000000000000000000000000000000000000000000000600082015250565b6000612453600283611b1f565b915061245e8261241d565b602082019050919050565b6000602082019050818103600083015261248281612446565b9050919050565b7f4a44450000000000000000000000000000000000000000000000000000000000600082015250565b60006124bf600383611b1f565b91506124ca82612489565b602082019050919050565b600060208201905081810360008301526124ee816124b2565b9050919050565b7f4a4e460000000000000000000000000000000000000000000000000000000000600082015250565b600061252b600383611b1f565b9150612536826124f5565b602082019050919050565b6000602082019050818103600083015261255a8161251e565b9050919050565b7f464e480000000000000000000000000000000000000000000000000000000000600082015250565b6000612597600383611b1f565b91506125a282612561565b602082019050919050565b600060208201905081810360008301526125c68161258a565b9050919050565b7f4e487b7100000000000000000000000000000000000000000000000000000000600052601160045260246000fd5b600061260782611ba4565b91507fffffffffffffffffffffffffffffffffffffffffffffffffffffffffffffffff8203612639576126386125cd565b5b600182019050919050565b60006060820190506126596000830186611bae565b6126666020830185611b05565b6126736040830184611bae565b949350505050565b600061268682611c8d565b915060ff8203612699576126986125cd565b5b600182019050919050565b60008190508160005260206000209050919050565b60006020601f8301049050919050565b600082821b905092915050565b6000600883026127067fffffffffffffffffffffffffffffffffffffffffffffffffffffffffffffffff826126c9565b61271086836126c9565b95508019841693508086168417925050509392505050565b6000819050919050565b600061274d61274861274384611ba4565b612728565b611ba4565b9050919050565b6000819050919050565b61276783612732565b61277b61277382612754565b8484546126d6565b825550505050565b600090565b612790612783565b61279b81848461275e565b505050565b5b818110156127bf576127b4600082612788565b6001810190506127a1565b5050565b601f821115612804576127d5816126a4565b6127de846126b9565b810160208510156127ed578190505b6128016127f9856126b9565b8301826127a0565b50505b505050565b600082821c905092915050565b600061282760001984600802612809565b1980831691505092915050565b60006128408383612816565b9150826002028217905092915050565b61285982611b14565b67ffffffffffffffff8111156128725761287161204a565b5b61287c82546123ec565b6128878282856127c3565b600060209050601f8311600181146128ba57600084156128a8578287015190505b6128b28582612834565b86555061291a565b601f1984166128c8866126a4565b60005b828110156128f0578489015182556001820191506020850194506020810190506128cb565b8683101561290d5784890151612909601f891682612816565b8355505b6001600288020188555050505b505050505050565b600061293d61293861293384611c8d565b612728565b611ba4565b9050919050565b61294d81612922565b82525050565b60006040820190506129686000830185612944565b818103602083015261297a8184611b6b565b90509392505050565b600061298e82611ba4565b915061299983611ba4565b92508282019050808211156129b1576129b06125cd565b5b92915050565b7f4e487b7100000000000000000000000000000000000000000000000000000000600052603260045260246000fd5b7f49412e0000000000000000000000000000000000000000000000000000000000600082015250565b6000612a1c600383611b1f565b9150612a27826129e6565b602082019050919050565b60006020820190508181036000830152612a4b81612a0f565b9050919050565b7f5948410000000000000000000000000000000000000000000000000000000000600082015250565b6000612a88600383611b1f565b9150612a9382612a52565b602082019050919050565b60006020820190508181036000830152612ab781612a7b565b9050919050565b6000606082019050612ad36000830186611bae565b612ae06020830185611b05565b612aed6040830184611b05565b94935050505056fea2646970667358221220c280420bea9f0e7636f13430a09188d2f4a70d9c6068ab35dfa19b040a4c9f7d64736f6c63430008180033",
  "linkReferences": {},
  "deployedLinkReferences": {}
}