{
  "_format": "hh-sol-artifact-1",
  "contractName": "EmployerLogic",
  "sourceName": "contracts/EmployerLogic.sol",
  "abi": [
    {
      "inputs": [],
      "name": "AR_E",
      "type": "error"
    },
    {
      "inputs": [],
      "name": "II_E",
      "type": "error"
    },
    {
      "inputs": [],
      "name": "WR_E",
      "type": "error"
    },
    {
      "anonymous": false,
      "inputs": [
        {
          "indexed": false,
          "internalType": "address",
          "name": "employerAddress",
          "type": "address"
        },
        {
          "indexed": false,
          "internalType": "string",
          "name": "name",
          "type": "string"
        }
      ],
      "name": "EmployerRegistered",
      "type": "event"
    },
    {
      "anonymous": false,
      "inputs": [
        {
          "indexed": false,
          "internalType": "uint256",
          "name": "jobId",
          "type": "uint256"
        },
        {
          "indexed": false,
          "internalType": "address",
          "name": "sender",
          "type": "address"
        },
        {
          "indexed": false,
          "internalType": "uint256",
          "name": "amount",
          "type": "uint256"
        }
      ],
      "name": "FundsDeposited",
      "type": "event"
    },
    {
      "anonymous": false,
      "inputs": [
        {
          "indexed": false,
          "internalType": "uint256",
          "name": "jobId",
          "type": "uint256"
        },
        {
          "indexed": false,
          "internalType": "address",
          "name": "freelancerAddress",
          "type": "address"
        },
        {
          "indexed": false,
          "internalType": "uint256",
          "name": "amount",
          "type": "uint256"
        }
      ],
      "name": "FundsReleased",
      "type": "event"
    },
    {
      "anonymous": false,
      "inputs": [
        {
          "indexed": false,
          "internalType": "uint256",
          "name": "jobId",
          "type": "uint256"
        },
        {
          "indexed": false,
          "internalType": "string",
          "name": "title",
          "type": "string"
        }
      ],
      "name": "JobCreated",
      "type": "event"
    },
    {
      "inputs": [
        {
          "internalType": "uint256",
          "name": "",
          "type": "uint256"
        }
      ],
      "name": "allFreelancerAddresses",
      "outputs": [
        {
          "internalType": "address",
          "name": "",
          "type": "address"
        }
      ],
      "stateMutability": "view",
      "type": "function"
    },
    {
      "inputs": [
        {
          "internalType": "string",
          "name": "_title",
          "type": "string"
        },
        {
          "internalType": "string",
          "name": "_description",
          "type": "string"
        },
        {
          "internalType": "uint256",
          "name": "_budget",
          "type": "uint256"
        }
      ],
      "name": "createJob",
      "outputs": [],
      "stateMutability": "nonpayable",
      "type": "function"
    },
    {
      "inputs": [
        {
          "internalType": "uint256",
          "name": "jobId",
          "type": "uint256"
        }
      ],
      "name": "depositFunds",
      "outputs": [],
      "stateMutability": "payable",
      "type": "function"
    },
    {
      "inputs": [
        {
          "internalType": "string",
          "name": "_name",
          "type": "string"
        },
        {
          "internalType": "string",
          "name": "_industry",
          "type": "string"
        },
        {
          "internalType": "string",
          "name": "_country",
          "type": "string"
        },
        {
          "internalType": "string",
          "name": "_imageURI",
          "type": "string"
        }
      ],
      "name": "editEmployerProfile",
      "outputs": [],
      "stateMutability": "nonpayable",
      "type": "function"
    },
    {
      "inputs": [
        {
          "internalType": "address",
          "name": "",
          "type": "address"
        }
      ],
      "name": "employers",
      "outputs": [
        {
          "internalType": "address",
          "name": "employerAddress",
          "type": "address"
        },
        {
          "internalType": "string",
          "name": "name",
          "type": "string"
        },
        {
          "internalType": "string",
          "name": "industry",
          "type": "string"
        },
        {
          "internalType": "uint256",
          "name": "balance",
          "type": "uint256"
        },
        {
          "internalType": "string",
          "name": "country",
          "type": "string"
        },
        {
          "internalType": "string",
          "name": "image",
          "type": "string"
        },
        {
          "internalType": "bool",
          "name": "registered",
          "type": "bool"
        },
        {
          "internalType": "uint256",
          "name": "registration_date",
          "type": "uint256"
        }
      ],
      "stateMutability": "view",
      "type": "function"
    },
    {
      "inputs": [
        {
          "internalType": "address",
          "name": "",
          "type": "address"
        },
        {
          "internalType": "uint256",
          "name": "",
          "type": "uint256"
        }
      ],
      "name": "escrowFunds",
      "outputs": [
        {
          "internalType": "uint256",
          "name": "",
          "type": "uint256"
        }
      ],
      "stateMutability": "view",
      "type": "function"
    },
    {
      "inputs": [
        {
          "internalType": "address",
          "name": "",
          "type": "address"
        }
      ],
      "name": "freelancers",
      "outputs": [
        {
          "internalType": "address",
          "name": "freelancerAddress",
          "type": "address"
        },
        {
          "internalType": "string",
          "name": "name",
          "type": "string"
        },
        {
          "internalType": "string",
          "name": "skills",
          "type": "string"
        },
        {
          "internalType": "uint256",
          "name": "balance",
          "type": "uint256"
        },
        {
          "internalType": "string",
          "name": "country",
          "type": "string"
        },
        {
          "internalType": "string",
          "name": "gigTitle",
          "type": "string"
        },
        {
          "internalType": "string",
          "name": "gitDescription",
          "type": "string"
        },
        {
          "internalType": "uint256",
          "name": "jobsCompleted",
          "type": "uint256"
        },
        {
          "internalType": "bool",
          "name": "registered",
          "type": "bool"
        },
        {
          "internalType": "uint256",
          "name": "registration_date",
          "type": "uint256"
        },
        {
          "internalType": "uint256",
          "name": "starting_price",
          "type": "uint256"
        }
      ],
      "stateMutability": "view",
      "type": "function"
    },
    {
      "inputs": [
        {
          "internalType": "address",
          "name": "_employer",
          "type": "address"
        }
      ],
      "name": "getEmployerByAddress",
      "outputs": [
        {
          "components": [
            {
              "internalType": "address",
              "name": "employerAddress",
              "type": "address"
            },
            {
              "internalType": "string",
              "name": "name",
              "type": "string"
            },
            {
              "internalType": "string",
              "name": "industry",
              "type": "string"
            },
            {
              "internalType": "uint256",
              "name": "balance",
              "type": "uint256"
            },
            {
              "internalType": "string",
              "name": "country",
              "type": "string"
            },
            {
              "internalType": "string",
              "name": "image",
              "type": "string"
            },
            {
              "internalType": "bool",
              "name": "registered",
              "type": "bool"
            },
            {
              "internalType": "uint256",
              "name": "registration_date",
              "type": "uint256"
            }
          ],
          "internalType": "struct Storage.Employer",
          "name": "props",
          "type": "tuple"
        }
      ],
      "stateMutability": "view",
      "type": "function"
    },
    {
      "inputs": [
        {
          "internalType": "address",
          "name": "_employer",
          "type": "address"
        },
        {
          "internalType": "uint256",
          "name": "_job_id",
          "type": "uint256"
        }
      ],
      "name": "getEmployerEscrow",
      "outputs": [
        {
          "internalType": "uint256",
          "name": "",
          "type": "uint256"
        }
      ],
      "stateMutability": "view",
      "type": "function"
    },
    {
      "inputs": [
        {
          "internalType": "uint256",
          "name": "",
          "type": "uint256"
        }
      ],
      "name": "jobs",
      "outputs": [
        {
          "internalType": "uint8",
          "name": "id",
          "type": "uint8"
        },
        {
          "internalType": "address",
          "name": "employer",
          "type": "address"
        },
        {
          "internalType": "string",
          "name": "title",
          "type": "string"
        },
        {
          "internalType": "string",
          "name": "description",
          "type": "string"
        },
        {
          "internalType": "uint256",
          "name": "budget",
          "type": "uint256"
        },
        {
          "internalType": "bool",
          "name": "completed",
          "type": "bool"
        },
        {
          "internalType": "address",
          "name": "hiredFreelancer",
          "type": "address"
        }
      ],
      "stateMutability": "view",
      "type": "function"
    },
    {
      "inputs": [],
      "name": "owner",
      "outputs": [
        {
          "internalType": "address",
          "name": "",
          "type": "address"
        }
      ],
      "stateMutability": "view",
      "type": "function"
    },
    {
      "inputs": [
        {
          "internalType": "string",
          "name": "_name",
          "type": "string"
        },
        {
          "internalType": "string",
          "name": "_industry",
          "type": "string"
        },
        {
          "internalType": "string",
          "name": "_country",
          "type": "string"
        },
        {
          "internalType": "string",
          "name": "_imageURI",
          "type": "string"
        }
      ],
      "name": "registerEmployer",
      "outputs": [],
      "stateMutability": "nonpayable",
      "type": "function"
    },
    {
      "inputs": [
        {
          "internalType": "uint256",
          "name": "jobId",
          "type": "uint256"
        },
        {
          "internalType": "address",
          "name": "freelancerAddress",
          "type": "address"
        }
      ],
      "name": "releaseEscrow",
      "outputs": [],
      "stateMutability": "nonpayable",
      "type": "function"
    },
    {
      "inputs": [
        {
          "internalType": "address",
          "name": "",
          "type": "address"
        }
      ],
      "name": "roles",
      "outputs": [
        {
          "internalType": "uint8",
          "name": "",
          "type": "uint8"
        }
      ],
      "stateMutability": "view",
      "type": "function"
    },
    {
      "inputs": [],
      "name": "totalCompletedJobs",
      "outputs": [
        {
          "internalType": "uint256",
          "name": "",
          "type": "uint256"
        }
      ],
      "stateMutability": "view",
      "type": "function"
    },
    {
      "inputs": [],
      "name": "totalEmployers",
      "outputs": [
        {
          "internalType": "uint256",
          "name": "",
          "type": "uint256"
        }
      ],
      "stateMutability": "view",
      "type": "function"
    },
    {
      "inputs": [],
      "name": "totalFreelancers",
      "outputs": [
        {
          "internalType": "uint256",
          "name": "",
          "type": "uint256"
        }
      ],
      "stateMutability": "view",
      "type": "function"
    },
    {
      "inputs": [],
      "name": "totalJobs",
      "outputs": [
        {
          "internalType": "uint8",
          "name": "",
          "type": "uint8"
        }
      ],
      "stateMutability": "view",
      "type": "function"
    }
  ],
  "bytecode": "0x608060405234801561001057600080fd5b50612e21806100206000396000f3fe6080604052600436106101095760003560e01c80635e586eb11161009557806399374642116100645780639937464214610387578063c27a9dd4146103c4578063c6cb3bbe14610401578063dfac8ce51461042a578063fcafae111461046757610109565b80635e586eb1146102cb57806373a06f42146102f65780637a7871251461031f5780638da5cb5b1461035c57610109565b80631906b4ce116100dc5780631906b4ce146101e95780631ace87b31461021457806321bd66931461023f5780632a02c56a146102865780633b76594d146102af57610109565b80630be435bd1461010e5780630e553442146101525780631033397b1461017b578063180aedf3146101a6575b600080fd5b34801561011a57600080fd5b5061013560048036038101906101309190611f6d565b6104a4565b60405161014998979695949392919061206d565b60405180910390f35b34801561015e57600080fd5b506101796004803603810190610174919061223c565b610739565b005b34801561018757600080fd5b506101906109f7565b60405161019d9190612313565b60405180910390f35b3480156101b257600080fd5b506101cd60048036038101906101c8919061235a565b6109fd565b6040516101e097969594939291906123a3565b60405180910390f35b3480156101f557600080fd5b506101fe610ba9565b60405161020b9190612313565b60405180910390f35b34801561022057600080fd5b50610229610baf565b6040516102369190612420565b60405180910390f35b34801561024b57600080fd5b5061026660048036038101906102619190611f6d565b610bc2565b60405161027d9b9a9998979695949392919061243b565b60405180910390f35b34801561029257600080fd5b506102ad60048036038101906102a8919061223c565b610ef1565b005b6102c960048036038101906102c4919061235a565b611054565b005b3480156102d757600080fd5b506102e0611349565b6040516102ed9190612313565b60405180910390f35b34801561030257600080fd5b5061031d60048036038101906103189190612509565b61134f565b005b34801561032b57600080fd5b5061034660048036038101906103419190611f6d565b611653565b60405161035391906126d0565b60405180910390f35b34801561036857600080fd5b5061037161197a565b60405161037e91906126f2565b60405180910390f35b34801561039357600080fd5b506103ae60048036038101906103a99190611f6d565b61199e565b6040516103bb9190612420565b60405180910390f35b3480156103d057600080fd5b506103eb60048036038101906103e6919061235a565b6119be565b6040516103f891906126f2565b60405180910390f35b34801561040d57600080fd5b506104286004803603810190610423919061270d565b6119fd565b005b34801561043657600080fd5b50610451600480360381019061044c919061274d565b611d77565b60405161045e9190612313565b60405180910390f35b34801561047357600080fd5b5061048e6004803603810190610489919061274d565b611dd2565b60405161049b9190612313565b60405180910390f35b60066020528060005260406000206000915090508060000160009054906101000a900473ffffffffffffffffffffffffffffffffffffffff16908060010180546104ed906127bc565b80601f0160208091040260200160405190810160405280929190818152602001828054610519906127bc565b80156105665780601f1061053b57610100808354040283529160200191610566565b820191906000526020600020905b81548152906001019060200180831161054957829003601f168201915b50505050509080600201805461057b906127bc565b80601f01602080910402602001604051908101604052809291908181526020018280546105a7906127bc565b80156105f45780601f106105c9576101008083540402835291602001916105f4565b820191906000526020600020905b8154815290600101906020018083116105d757829003601f168201915b50505050509080600301549080600401805461060f906127bc565b80601f016020809104026020016040519081016040528092919081815260200182805461063b906127bc565b80156106885780601f1061065d57610100808354040283529160200191610688565b820191906000526020600020905b81548152906001019060200180831161066b57829003601f168201915b50505050509080600501805461069d906127bc565b80601f01602080910402602001604051908101604052809291908181526020018280546106c9906127bc565b80156107165780601f106106eb57610100808354040283529160200191610716565b820191906000526020600020905b8154815290600101906020018083116106f957829003601f168201915b5050505050908060060160009054906101000a900460ff16908060070154905088565b6000600860003373ffffffffffffffffffffffffffffffffffffffff1673ffffffffffffffffffffffffffffffffffffffff16815260200190815260200160002060009054906101000a900460ff1660ff16146107c2576040517f3ec7876100000000000000000000000000000000000000000000000000000000815260040160405180910390fd5b60008451116107d057600080fd5b60008351116107de57600080fd5b600260008154809291906107f19061281c565b91905055506001600860003373ffffffffffffffffffffffffffffffffffffffff1673ffffffffffffffffffffffffffffffffffffffff16815260200190815260200160002060006101000a81548160ff021916908360ff1602179055506040518061010001604052803373ffffffffffffffffffffffffffffffffffffffff1681526020018581526020018481526020016000815260200183815260200182815260200160011515815260200142815250600660003373ffffffffffffffffffffffffffffffffffffffff1673ffffffffffffffffffffffffffffffffffffffff16815260200190815260200160002060008201518160000160006101000a81548173ffffffffffffffffffffffffffffffffffffffff021916908373ffffffffffffffffffffffffffffffffffffffff160217905550602082015181600101908161093e9190612a10565b5060408201518160020190816109549190612a10565b506060820151816003015560808201518160040190816109749190612a10565b5060a082015181600501908161098a9190612a10565b5060c08201518160060160006101000a81548160ff02191690831515021790555060e082015181600701559050507f6c0e8aabac6898602e5264c9a24b2394d9895a70bd2f4c44c8ca0fcfcec6477f33856040516109e9929190612ae2565b60405180910390a150505050565b60035481565b60046020528060005260406000206000915090508060000160009054906101000a900460ff16908060000160019054906101000a900473ffffffffffffffffffffffffffffffffffffffff1690806001018054610a59906127bc565b80601f0160208091040260200160405190810160405280929190818152602001828054610a85906127bc565b8015610ad25780601f10610aa757610100808354040283529160200191610ad2565b820191906000526020600020905b815481529060010190602001808311610ab557829003601f168201915b505050505090806002018054610ae7906127bc565b80601f0160208091040260200160405190810160405280929190818152602001828054610b13906127bc565b8015610b605780601f10610b3557610100808354040283529160200191610b60565b820191906000526020600020905b815481529060010190602001808311610b4357829003601f168201915b5050505050908060030154908060040160009054906101000a900460ff16908060060160009054906101000a900473ffffffffffffffffffffffffffffffffffffffff16905087565b60025481565b600060149054906101000a900460ff1681565b60056020528060005260406000206000915090508060000160009054906101000a900473ffffffffffffffffffffffffffffffffffffffff1690806001018054610c0b906127bc565b80601f0160208091040260200160405190810160405280929190818152602001828054610c37906127bc565b8015610c845780601f10610c5957610100808354040283529160200191610c84565b820191906000526020600020905b815481529060010190602001808311610c6757829003601f168201915b505050505090806002018054610c99906127bc565b80601f0160208091040260200160405190810160405280929190818152602001828054610cc5906127bc565b8015610d125780601f10610ce757610100808354040283529160200191610d12565b820191906000526020600020905b815481529060010190602001808311610cf557829003601f168201915b505050505090806003015490806004018054610d2d906127bc565b80601f0160208091040260200160405190810160405280929190818152602001828054610d59906127bc565b8015610da65780601f10610d7b57610100808354040283529160200191610da6565b820191906000526020600020905b815481529060010190602001808311610d8957829003601f168201915b505050505090806005018054610dbb906127bc565b80601f0160208091040260200160405190810160405280929190818152602001828054610de7906127bc565b8015610e345780601f10610e0957610100808354040283529160200191610e34565b820191906000526020600020905b815481529060010190602001808311610e1757829003601f168201915b505050505090806006018054610e49906127bc565b80601f0160208091040260200160405190810160405280929190818152602001828054610e75906127bc565b8015610ec25780601f10610e9757610100808354040283529160200191610ec2565b820191906000526020600020905b815481529060010190602001808311610ea557829003601f168201915b5050505050908060080154908060090160009054906101000a900460ff169080600a01549080600b015490508b565b6001600860003373ffffffffffffffffffffffffffffffffffffffff1673ffffffffffffffffffffffffffffffffffffffff16815260200190815260200160002060009054906101000a900460ff1660ff1614610f7a576040517fa9d6d02a00000000000000000000000000000000000000000000000000000000815260040160405180910390fd5b600084511480610f8b575060008351145b15610fc2576040517f3b1bc5cc00000000000000000000000000000000000000000000000000000000815260040160405180910390fd5b6000600660003373ffffffffffffffffffffffffffffffffffffffff1673ffffffffffffffffffffffffffffffffffffffff1681526020019081526020016000209050848160010190816110169190612a10565b50838160020190816110289190612a10565b508281600401908161103a9190612a10565b508181600501908161104c9190612a10565b505050505050565b6001600860003373ffffffffffffffffffffffffffffffffffffffff1673ffffffffffffffffffffffffffffffffffffffff16815260200190815260200160002060009054906101000a900460ff1660ff16146110dd576040517fa9d6d02a00000000000000000000000000000000000000000000000000000000815260040160405180910390fd5b6000811180156110ff5750600060149054906101000a900460ff1660ff168111155b61113e576040517f08c379a000000000000000000000000000000000000000000000000000000000815260040161113590612b5e565b60405180910390fd5b60006004600083815260200190815260200160002090503373ffffffffffffffffffffffffffffffffffffffff168160000160019054906101000a900473ffffffffffffffffffffffffffffffffffffffff1673ffffffffffffffffffffffffffffffffffffffff16146111b157600080fd5b8060040160009054906101000a900460ff1615611203576040517f08c379a00000000000000000000000000000000000000000000000000000000081526004016111fa90612bca565b60405180910390fd5b806003015434101561124a576040517f08c379a000000000000000000000000000000000000000000000000000000000815260040161124190612c36565b60405180910390fd5b34600660003373ffffffffffffffffffffffffffffffffffffffff1673ffffffffffffffffffffffffffffffffffffffff168152602001908152602001600020600301600082825461129c9190612c56565b9250508190555034600760003373ffffffffffffffffffffffffffffffffffffffff1673ffffffffffffffffffffffffffffffffffffffff168152602001908152602001600020600084815260200190815260200160002060008282546113039190612c56565b925050819055507fe030e47e27825a2ad1b19e4cf2e70bfbfb3124af275c7727a82b114ba7b29a8582333460405161133d93929190612c8a565b60405180910390a15050565b60015481565b6001600860003373ffffffffffffffffffffffffffffffffffffffff1673ffffffffffffffffffffffffffffffffffffffff16815260200190815260200160002060009054906101000a900460ff1660ff16146113d8576040517fa9d6d02a00000000000000000000000000000000000000000000000000000000815260040160405180910390fd5b6000601481819054906101000a900460ff16809291906113f790612cc1565b91906101000a81548160ff021916908360ff1602179055505060008060149054906101000a900460ff1690506040518061010001604052808260ff1681526020013373ffffffffffffffffffffffffffffffffffffffff168152602001858152602001848152602001838152602001600015158152602001600067ffffffffffffffff81111561148a57611489612111565b5b6040519080825280602002602001820160405280156114b85781602001602082028036833780820191505090505b508152602001600073ffffffffffffffffffffffffffffffffffffffff16815250600460008360ff16815260200190815260200160002060008201518160000160006101000a81548160ff021916908360ff16021790555060208201518160000160016101000a81548173ffffffffffffffffffffffffffffffffffffffff021916908373ffffffffffffffffffffffffffffffffffffffff160217905550604082015181600101908161156c9190612a10565b5060608201518160020190816115829190612a10565b506080820151816003015560a08201518160040160006101000a81548160ff02191690831515021790555060c08201518160050190805190602001906115c9929190611df7565b5060e08201518160060160006101000a81548173ffffffffffffffffffffffffffffffffffffffff021916908373ffffffffffffffffffffffffffffffffffffffff1602179055509050507fb63f0fdfb200b05c8b95fb4dcf8f8abd30f0b6884d532792e705afab4f37380a8185604051611645929190612d1b565b60405180910390a150505050565b61165b611e81565b600660008373ffffffffffffffffffffffffffffffffffffffff1673ffffffffffffffffffffffffffffffffffffffff168152602001908152602001600020604051806101000160405290816000820160009054906101000a900473ffffffffffffffffffffffffffffffffffffffff1673ffffffffffffffffffffffffffffffffffffffff1673ffffffffffffffffffffffffffffffffffffffff16815260200160018201805461170c906127bc565b80601f0160208091040260200160405190810160405280929190818152602001828054611738906127bc565b80156117855780601f1061175a57610100808354040283529160200191611785565b820191906000526020600020905b81548152906001019060200180831161176857829003601f168201915b5050505050815260200160028201805461179e906127bc565b80601f01602080910402602001604051908101604052809291908181526020018280546117ca906127bc565b80156118175780601f106117ec57610100808354040283529160200191611817565b820191906000526020600020905b8154815290600101906020018083116117fa57829003601f168201915b505050505081526020016003820154815260200160048201805461183a906127bc565b80601f0160208091040260200160405190810160405280929190818152602001828054611866906127bc565b80156118b35780601f10611888576101008083540402835291602001916118b3565b820191906000526020600020905b81548152906001019060200180831161189657829003601f168201915b505050505081526020016005820180546118cc906127bc565b80601f01602080910402602001604051908101604052809291908181526020018280546118f8906127bc565b80156119455780601f1061191a57610100808354040283529160200191611945565b820191906000526020600020905b81548152906001019060200180831161192857829003601f168201915b505050505081526020016006820160009054906101000a900460ff161515151581526020016007820154815250509050919050565b60008054906101000a900473ffffffffffffffffffffffffffffffffffffffff1681565b60086020528060005260406000206000915054906101000a900460ff1681565b600981815481106119ce57600080fd5b906000526020600020016000915054906101000a900473ffffffffffffffffffffffffffffffffffffffff1681565b6001600860003373ffffffffffffffffffffffffffffffffffffffff1673ffffffffffffffffffffffffffffffffffffffff16815260200190815260200160002060009054906101000a900460ff1660ff1614611a86576040517fa9d6d02a00000000000000000000000000000000000000000000000000000000815260040160405180910390fd5b600082118015611aa85750600060149054906101000a900460ff1660ff168211155b611ae7576040517f08c379a0000000000000000000000000000000000000000000000000000000008152600401611ade90612b5e565b60405180910390fd5b60006004600084815260200190815260200160002090508060040160009054906101000a900460ff16611b4f576040517f08c379a0000000000000000000000000000000000000000000000000000000008152600401611b4690612bca565b60405180910390fd5b6000600760003373ffffffffffffffffffffffffffffffffffffffff1673ffffffffffffffffffffffffffffffffffffffff168152602001908152602001600020600085815260200190815260200160002054905060008111611be7576040517f08c379a0000000000000000000000000000000000000000000000000000000008152600401611bde90612d97565b60405180910390fd5b8160030154811015611c2e576040517f08c379a0000000000000000000000000000000000000000000000000000000008152600401611c2590612c36565b60405180910390fd5b6000600760003373ffffffffffffffffffffffffffffffffffffffff1673ffffffffffffffffffffffffffffffffffffffff16815260200190815260200160002060008681526020019081526020016000208190555080600560008573ffffffffffffffffffffffffffffffffffffffff1673ffffffffffffffffffffffffffffffffffffffff1681526020019081526020016000206003016000828254611cd69190612c56565b9250508190555080600660003373ffffffffffffffffffffffffffffffffffffffff1673ffffffffffffffffffffffffffffffffffffffff1681526020019081526020016000206003016000828254611d2f9190612db7565b925050819055507f6e3c6096795c8298a218b2cfb8bde42726ff7c9a3d27b4d3ba41ab7f74feb5fb848483604051611d6993929190612c8a565b60405180910390a150505050565b6000600760008473ffffffffffffffffffffffffffffffffffffffff1673ffffffffffffffffffffffffffffffffffffffff168152602001908152602001600020600083815260200190815260200160002054905092915050565b6007602052816000526040600020602052806000526040600020600091509150505481565b828054828255906000526020600020908101928215611e70579160200282015b82811115611e6f5782518260006101000a81548173ffffffffffffffffffffffffffffffffffffffff021916908373ffffffffffffffffffffffffffffffffffffffff16021790555091602001919060010190611e17565b5b509050611e7d9190611ede565b5090565b604051806101000160405280600073ffffffffffffffffffffffffffffffffffffffff1681526020016060815260200160608152602001600081526020016060815260200160608152602001600015158152602001600081525090565b5b80821115611ef7576000816000905550600101611edf565b5090565b6000604051905090565b600080fd5b600080fd5b600073ffffffffffffffffffffffffffffffffffffffff82169050919050565b6000611f3a82611f0f565b9050919050565b611f4a81611f2f565b8114611f5557600080fd5b50565b600081359050611f6781611f41565b92915050565b600060208284031215611f8357611f82611f05565b5b6000611f9184828501611f58565b91505092915050565b611fa381611f2f565b82525050565b600081519050919050565b600082825260208201905092915050565b60005b83811015611fe3578082015181840152602081019050611fc8565b60008484015250505050565b6000601f19601f8301169050919050565b600061200b82611fa9565b6120158185611fb4565b9350612025818560208601611fc5565b61202e81611fef565b840191505092915050565b6000819050919050565b61204c81612039565b82525050565b60008115159050919050565b61206781612052565b82525050565b600061010082019050612083600083018b611f9a565b8181036020830152612095818a612000565b905081810360408301526120a98189612000565b90506120b86060830188612043565b81810360808301526120ca8187612000565b905081810360a08301526120de8186612000565b90506120ed60c083018561205e565b6120fa60e0830184612043565b9998505050505050505050565b600080fd5b600080fd5b7f4e487b7100000000000000000000000000000000000000000000000000000000600052604160045260246000fd5b61214982611fef565b810181811067ffffffffffffffff8211171561216857612167612111565b5b80604052505050565b600061217b611efb565b90506121878282612140565b919050565b600067ffffffffffffffff8211156121a7576121a6612111565b5b6121b082611fef565b9050602081019050919050565b82818337600083830152505050565b60006121df6121da8461218c565b612171565b9050828152602081018484840111156121fb576121fa61210c565b5b6122068482856121bd565b509392505050565b600082601f83011261222357612222612107565b5b81356122338482602086016121cc565b91505092915050565b6000806000806080858703121561225657612255611f05565b5b600085013567ffffffffffffffff81111561227457612273611f0a565b5b6122808782880161220e565b945050602085013567ffffffffffffffff8111156122a1576122a0611f0a565b5b6122ad8782880161220e565b935050604085013567ffffffffffffffff8111156122ce576122cd611f0a565b5b6122da8782880161220e565b925050606085013567ffffffffffffffff8111156122fb576122fa611f0a565b5b6123078782880161220e565b91505092959194509250565b60006020820190506123286000830184612043565b92915050565b61233781612039565b811461234257600080fd5b50565b6000813590506123548161232e565b92915050565b6000602082840312156123705761236f611f05565b5b600061237e84828501612345565b91505092915050565b600060ff82169050919050565b61239d81612387565b82525050565b600060e0820190506123b8600083018a612394565b6123c56020830189611f9a565b81810360408301526123d78188612000565b905081810360608301526123eb8187612000565b90506123fa6080830186612043565b61240760a083018561205e565b61241460c0830184611f9a565b98975050505050505050565b60006020820190506124356000830184612394565b92915050565b600061016082019050612451600083018e611f9a565b8181036020830152612463818d612000565b90508181036040830152612477818c612000565b9050612486606083018b612043565b8181036080830152612498818a612000565b905081810360a08301526124ac8189612000565b905081810360c08301526124c08188612000565b90506124cf60e0830187612043565b6124dd61010083018661205e565b6124eb610120830185612043565b6124f9610140830184612043565b9c9b505050505050505050505050565b60008060006060848603121561252257612521611f05565b5b600084013567ffffffffffffffff8111156125405761253f611f0a565b5b61254c8682870161220e565b935050602084013567ffffffffffffffff81111561256d5761256c611f0a565b5b6125798682870161220e565b925050604061258a86828701612345565b9150509250925092565b61259d81611f2f565b82525050565b600082825260208201905092915050565b60006125bf82611fa9565b6125c981856125a3565b93506125d9818560208601611fc5565b6125e281611fef565b840191505092915050565b6125f681612039565b82525050565b61260581612052565b82525050565b6000610100830160008301516126246000860182612594565b506020830151848203602086015261263c82826125b4565b9150506040830151848203604086015261265682826125b4565b915050606083015161266b60608601826125ed565b506080830151848203608086015261268382826125b4565b91505060a083015184820360a086015261269d82826125b4565b91505060c08301516126b260c08601826125fc565b5060e08301516126c560e08601826125ed565b508091505092915050565b600060208201905081810360008301526126ea818461260b565b905092915050565b60006020820190506127076000830184611f9a565b92915050565b6000806040838503121561272457612723611f05565b5b600061273285828601612345565b925050602061274385828601611f58565b9150509250929050565b6000806040838503121561276457612763611f05565b5b600061277285828601611f58565b925050602061278385828601612345565b9150509250929050565b7f4e487b7100000000000000000000000000000000000000000000000000000000600052602260045260246000fd5b600060028204905060018216806127d457607f821691505b6020821081036127e7576127e661278d565b5b50919050565b7f4e487b7100000000000000000000000000000000000000000000000000000000600052601160045260246000fd5b600061282782612039565b91507fffffffffffffffffffffffffffffffffffffffffffffffffffffffffffffffff8203612859576128586127ed565b5b600182019050919050565b60008190508160005260206000209050919050565b60006020601f8301049050919050565b600082821b905092915050565b6000600883026128c67fffffffffffffffffffffffffffffffffffffffffffffffffffffffffffffffff82612889565b6128d08683612889565b95508019841693508086168417925050509392505050565b6000819050919050565b600061290d61290861290384612039565b6128e8565b612039565b9050919050565b6000819050919050565b612927836128f2565b61293b61293382612914565b848454612896565b825550505050565b600090565b612950612943565b61295b81848461291e565b505050565b5b8181101561297f57612974600082612948565b600181019050612961565b5050565b601f8211156129c45761299581612864565b61299e84612879565b810160208510156129ad578190505b6129c16129b985612879565b830182612960565b50505b505050565b600082821c905092915050565b60006129e7600019846008026129c9565b1980831691505092915050565b6000612a0083836129d6565b9150826002028217905092915050565b612a1982611fa9565b67ffffffffffffffff811115612a3257612a31612111565b5b612a3c82546127bc565b612a47828285612983565b600060209050601f831160018114612a7a5760008415612a68578287015190505b612a7285826129f4565b865550612ada565b601f198416612a8886612864565b60005b82811015612ab057848901518255600182019150602085019450602081019050612a8b565b86831015612acd5784890151612ac9601f8916826129d6565b8355505b6001600288020188555050505b505050505050565b6000604082019050612af76000830185611f9a565b8181036020830152612b098184612000565b90509392505050565b7f4a44455f45000000000000000000000000000000000000000000000000000000600082015250565b6000612b48600583611fb4565b9150612b5382612b12565b602082019050919050565b60006020820190508181036000830152612b7781612b3b565b9050919050565b7f4a4e435f45000000000000000000000000000000000000000000000000000000600082015250565b6000612bb4600583611fb4565b9150612bbf82612b7e565b602082019050919050565b60006020820190508181036000830152612be381612ba7565b9050919050565b7f4946000000000000000000000000000000000000000000000000000000000000600082015250565b6000612c20600283611fb4565b9150612c2b82612bea565b602082019050919050565b60006020820190508181036000830152612c4f81612c13565b9050919050565b6000612c6182612039565b9150612c6c83612039565b9250828201905080821115612c8457612c836127ed565b5b92915050565b6000606082019050612c9f6000830186612043565b612cac6020830185611f9a565b612cb96040830184612043565b949350505050565b6000612ccc82612387565b915060ff8203612cdf57612cde6127ed565b5b600182019050919050565b6000612d05612d00612cfb84612387565b6128e8565b612039565b9050919050565b612d1581612cea565b82525050565b6000604082019050612d306000830185612d0c565b8181036020830152612d428184612000565b90509392505050565b7f4e46455f45000000000000000000000000000000000000000000000000000000600082015250565b6000612d81600583611fb4565b9150612d8c82612d4b565b602082019050919050565b60006020820190508181036000830152612db081612d74565b9050919050565b6000612dc282612039565b9150612dcd83612039565b9250828203905081811115612de557612de46127ed565b5b9291505056fea26469706673582212204974ebc4b102a075d94999a131297b22c6dbe4b27251745b40e8f971d016f02964736f6c63430008180033",
  "linkReferences": {},
  "deployedLinkReferences": {}
}