{
  "_format": "hh-sol-artifact-1",
  "contractName": "Employers",
  "sourceName": "contracts/Employer.sol",
  "abi": [
    {
      "inputs": [],
      "name": "AlreadyRegistered",
      "type": "error"
    },
    {
      "inputs": [],
      "name": "WrongRole",
      "type": "error"
    },
    {
      "anonymous": false,
      "inputs": [
        {
          "indexed": false,
          "internalType": "uint256",
          "name": "jobId",
          "type": "uint256"
        },
        {
          "indexed": false,
          "internalType": "address",
          "name": "employerAddress",
          "type": "address"
        },
        {
          "indexed": false,
          "internalType": "address",
          "name": "freelancerAddress",
          "type": "address"
        }
      ],
      "name": "AppliedForJob",
      "type": "event"
    },
    {
      "anonymous": false,
      "inputs": [
        {
          "indexed": false,
          "internalType": "address",
          "name": "EmployerAddress",
          "type": "address"
        },
        {
          "indexed": false,
          "internalType": "string",
          "name": "name",
          "type": "string"
        }
      ],
      "name": "EmployerRegistered",
      "type": "event"
    },
    {
      "anonymous": false,
      "inputs": [
        {
          "indexed": false,
          "internalType": "address",
          "name": "freelancerAddress",
          "type": "address"
        },
        {
          "indexed": false,
          "internalType": "string[]",
          "name": "name",
          "type": "string[]"
        },
        {
          "indexed": false,
          "internalType": "uint256",
          "name": "amount",
          "type": "uint256"
        }
      ],
      "name": "FreelancerRegistered",
      "type": "event"
    },
    {
      "anonymous": false,
      "inputs": [
        {
          "indexed": false,
          "internalType": "uint256",
          "name": "jobId",
          "type": "uint256"
        },
        {
          "indexed": false,
          "internalType": "address",
          "name": "sender",
          "type": "address"
        },
        {
          "indexed": false,
          "internalType": "uint256",
          "name": "amount",
          "type": "uint256"
        }
      ],
      "name": "FundsDeposited",
      "type": "event"
    },
    {
      "anonymous": false,
      "inputs": [
        {
          "indexed": false,
          "internalType": "uint256",
          "name": "jobId",
          "type": "uint256"
        },
        {
          "indexed": false,
          "internalType": "address",
          "name": "freelancerAddress",
          "type": "address"
        },
        {
          "indexed": false,
          "internalType": "uint256",
          "name": "amount",
          "type": "uint256"
        }
      ],
      "name": "FundsReleased",
      "type": "event"
    },
    {
      "anonymous": false,
      "inputs": [
        {
          "indexed": false,
          "internalType": "uint256",
          "name": "jobId",
          "type": "uint256"
        },
        {
          "indexed": false,
          "internalType": "address",
          "name": "freelancerAddress",
          "type": "address"
        },
        {
          "indexed": false,
          "internalType": "uint256",
          "name": "payment",
          "type": "uint256"
        }
      ],
      "name": "JobCompleted",
      "type": "event"
    },
    {
      "anonymous": false,
      "inputs": [
        {
          "indexed": false,
          "internalType": "uint256",
          "name": "jobId",
          "type": "uint256"
        },
        {
          "indexed": false,
          "internalType": "string",
          "name": "title",
          "type": "string"
        }
      ],
      "name": "JobCreated",
      "type": "event"
    },
    {
      "anonymous": false,
      "inputs": [
        {
          "indexed": false,
          "internalType": "address",
          "name": "freelancer",
          "type": "address"
        },
        {
          "indexed": false,
          "internalType": "uint256",
          "name": "amount",
          "type": "uint256"
        }
      ],
      "name": "WithdrawFund",
      "type": "event"
    },
    {
      "inputs": [
        {
          "internalType": "uint256",
          "name": "",
          "type": "uint256"
        }
      ],
      "name": "allFreelancerAddresses",
      "outputs": [
        {
          "internalType": "address",
          "name": "",
          "type": "address"
        }
      ],
      "stateMutability": "view",
      "type": "function"
    },
    {
      "inputs": [],
      "name": "allJobs",
      "outputs": [
        {
          "components": [
            {
              "internalType": "uint8",
              "name": "id",
              "type": "uint8"
            },
            {
              "internalType": "address",
              "name": "employer",
              "type": "address"
            },
            {
              "internalType": "string",
              "name": "title",
              "type": "string"
            },
            {
              "internalType": "string",
              "name": "description",
              "type": "string"
            },
            {
              "internalType": "uint256",
              "name": "budget",
              "type": "uint256"
            },
            {
              "internalType": "bool",
              "name": "completed",
              "type": "bool"
            },
            {
              "internalType": "address[]",
              "name": "applicants",
              "type": "address[]"
            },
            {
              "internalType": "address",
              "name": "hiredFreelancer",
              "type": "address"
            }
          ],
          "internalType": "struct Djob.Job[]",
          "name": "props",
          "type": "tuple[]"
        }
      ],
      "stateMutability": "view",
      "type": "function"
    },
    {
      "inputs": [
        {
          "internalType": "uint256",
          "name": "jobId",
          "type": "uint256"
        }
      ],
      "name": "applyForJob",
      "outputs": [],
      "stateMutability": "nonpayable",
      "type": "function"
    },
    {
      "inputs": [
        {
          "internalType": "uint256",
          "name": "jobId",
          "type": "uint256"
        },
        {
          "internalType": "address",
          "name": "freelancerAddress",
          "type": "address"
        }
      ],
      "name": "completeJob",
      "outputs": [],
      "stateMutability": "nonpayable",
      "type": "function"
    },
    {
      "inputs": [
        {
          "internalType": "string",
          "name": "_title",
          "type": "string"
        },
        {
          "internalType": "string",
          "name": "_description",
          "type": "string"
        },
        {
          "internalType": "uint256",
          "name": "_budget",
          "type": "uint256"
        }
      ],
      "name": "createJob",
      "outputs": [],
      "stateMutability": "nonpayable",
      "type": "function"
    },
    {
      "inputs": [
        {
          "internalType": "address",
          "name": "",
          "type": "address"
        }
      ],
      "name": "employers",
      "outputs": [
        {
          "internalType": "address",
          "name": "employerAddress",
          "type": "address"
        },
        {
          "internalType": "string",
          "name": "name",
          "type": "string"
        },
        {
          "internalType": "string",
          "name": "industry",
          "type": "string"
        },
        {
          "internalType": "uint256",
          "name": "balance",
          "type": "uint256"
        },
        {
          "internalType": "string",
          "name": "country",
          "type": "string"
        },
        {
          "internalType": "string",
          "name": "image",
          "type": "string"
        },
        {
          "internalType": "bool",
          "name": "registered",
          "type": "bool"
        },
        {
          "internalType": "uint256",
          "name": "registration_date",
          "type": "uint256"
        }
      ],
      "stateMutability": "view",
      "type": "function"
    },
    {
      "inputs": [
        {
          "internalType": "address",
          "name": "",
          "type": "address"
        }
      ],
      "name": "freelancers",
      "outputs": [
        {
          "internalType": "address",
          "name": "freelancerAddress",
          "type": "address"
        },
        {
          "internalType": "string",
          "name": "name",
          "type": "string"
        },
        {
          "internalType": "string",
          "name": "skills",
          "type": "string"
        },
        {
          "internalType": "uint256",
          "name": "balance",
          "type": "uint256"
        },
        {
          "internalType": "string",
          "name": "country",
          "type": "string"
        },
        {
          "internalType": "string",
          "name": "gigTitle",
          "type": "string"
        },
        {
          "internalType": "string",
          "name": "gitDescription",
          "type": "string"
        },
        {
          "internalType": "uint256",
          "name": "jobsCompleted",
          "type": "uint256"
        },
        {
          "internalType": "bool",
          "name": "registered",
          "type": "bool"
        },
        {
          "internalType": "uint256",
          "name": "registration_date",
          "type": "uint256"
        },
        {
          "internalType": "uint256",
          "name": "starting_price",
          "type": "uint256"
        }
      ],
      "stateMutability": "view",
      "type": "function"
    },
    {
      "inputs": [
        {
          "internalType": "address",
          "name": "_employer",
          "type": "address"
        }
      ],
      "name": "getEmployerByAddress",
      "outputs": [
        {
          "components": [
            {
              "internalType": "address",
              "name": "employerAddress",
              "type": "address"
            },
            {
              "internalType": "string",
              "name": "name",
              "type": "string"
            },
            {
              "internalType": "string",
              "name": "industry",
              "type": "string"
            },
            {
              "internalType": "uint256",
              "name": "balance",
              "type": "uint256"
            },
            {
              "internalType": "string",
              "name": "country",
              "type": "string"
            },
            {
              "internalType": "string",
              "name": "image",
              "type": "string"
            },
            {
              "internalType": "bool",
              "name": "registered",
              "type": "bool"
            },
            {
              "internalType": "uint256",
              "name": "registration_date",
              "type": "uint256"
            }
          ],
          "internalType": "struct Djob.Employer",
          "name": "props",
          "type": "tuple"
        }
      ],
      "stateMutability": "view",
      "type": "function"
    },
    {
      "inputs": [
        {
          "internalType": "address",
          "name": "_employer",
          "type": "address"
        },
        {
          "internalType": "uint256",
          "name": "_job_id",
          "type": "uint256"
        }
      ],
      "name": "getEmployerEscrow",
      "outputs": [
        {
          "internalType": "uint256",
          "name": "",
          "type": "uint256"
        }
      ],
      "stateMutability": "view",
      "type": "function"
    },
    {
      "inputs": [
        {
          "internalType": "uint256",
          "name": "jobId",
          "type": "uint256"
        }
      ],
      "name": "getJobByID",
      "outputs": [
        {
          "components": [
            {
              "internalType": "uint8",
              "name": "id",
              "type": "uint8"
            },
            {
              "internalType": "address",
              "name": "employer",
              "type": "address"
            },
            {
              "internalType": "string",
              "name": "title",
              "type": "string"
            },
            {
              "internalType": "string",
              "name": "description",
              "type": "string"
            },
            {
              "internalType": "uint256",
              "name": "budget",
              "type": "uint256"
            },
            {
              "internalType": "bool",
              "name": "completed",
              "type": "bool"
            },
            {
              "internalType": "address[]",
              "name": "applicants",
              "type": "address[]"
            },
            {
              "internalType": "address",
              "name": "hiredFreelancer",
              "type": "address"
            }
          ],
          "internalType": "struct Djob.Job",
          "name": "props",
          "type": "tuple"
        }
      ],
      "stateMutability": "view",
      "type": "function"
    },
    {
      "inputs": [
        {
          "internalType": "uint256",
          "name": "jobId",
          "type": "uint256"
        },
        {
          "internalType": "address",
          "name": "freelancerAddress",
          "type": "address"
        }
      ],
      "name": "hireFreelancer",
      "outputs": [],
      "stateMutability": "nonpayable",
      "type": "function"
    },
    {
      "inputs": [],
      "name": "owner",
      "outputs": [
        {
          "internalType": "address",
          "name": "",
          "type": "address"
        }
      ],
      "stateMutability": "view",
      "type": "function"
    },
    {
      "inputs": [
        {
          "internalType": "string",
          "name": "_name",
          "type": "string"
        },
        {
          "internalType": "string",
          "name": "_industry",
          "type": "string"
        },
        {
          "internalType": "string",
          "name": "_country",
          "type": "string"
        },
        {
          "internalType": "string",
          "name": "_imageURI",
          "type": "string"
        }
      ],
      "name": "registerEmployer",
      "outputs": [],
      "stateMutability": "nonpayable",
      "type": "function"
    },
    {
      "inputs": [
        {
          "internalType": "address",
          "name": "",
          "type": "address"
        }
      ],
      "name": "roles",
      "outputs": [
        {
          "internalType": "uint8",
          "name": "",
          "type": "uint8"
        }
      ],
      "stateMutability": "view",
      "type": "function"
    },
    {
      "inputs": [],
      "name": "totalCompletedJobs",
      "outputs": [
        {
          "internalType": "uint256",
          "name": "",
          "type": "uint256"
        }
      ],
      "stateMutability": "view",
      "type": "function"
    },
    {
      "inputs": [],
      "name": "totalEmployers",
      "outputs": [
        {
          "internalType": "uint256",
          "name": "",
          "type": "uint256"
        }
      ],
      "stateMutability": "view",
      "type": "function"
    },
    {
      "inputs": [],
      "name": "totalFreelancers",
      "outputs": [
        {
          "internalType": "uint256",
          "name": "",
          "type": "uint256"
        }
      ],
      "stateMutability": "view",
      "type": "function"
    },
    {
      "inputs": [],
      "name": "totalJobs",
      "outputs": [
        {
          "internalType": "uint8",
          "name": "",
          "type": "uint8"
        }
      ],
      "stateMutability": "view",
      "type": "function"
    }
  ],
  "bytecode": "0x608060405234801561001057600080fd5b50336000806101000a81548173ffffffffffffffffffffffffffffffffffffffff021916908373ffffffffffffffffffffffffffffffffffffffff1602179055506138ba806100606000396000f3fe608060405234801561001057600080fd5b50600436106101165760003560e01c806373a06f42116100a2578063b0f26f1811610071578063b0f26f1814610306578063c27a9dd414610322578063c8d1b6aa14610352578063dfac8ce514610370578063e0c94ae5146103a057610116565b806373a06f421461026c5780637a787125146102885780638da5cb5b146102b857806399374642146102d657610116565b80631ace87b3116100e95780631ace87b3146101aa57806321bd6693146101c8578063371ae9f4146102025780635e586eb1146102325780636a6b67d11461025057610116565b80630be435bd1461011b5780630e553442146101525780631033397b1461016e5780631906b4ce1461018c575b600080fd5b610135600480360381019061013091906124f5565b6103bc565b6040516101499897969594939291906125f5565b60405180910390f35b61016c600480360381019061016791906127c4565b610651565b005b6101766109a5565b604051610183919061289b565b60405180910390f35b6101946109ab565b6040516101a1919061289b565b60405180910390f35b6101b26109b1565b6040516101bf91906128d2565b60405180910390f35b6101e260048036038101906101dd91906124f5565b6109c4565b6040516101f99b9a999897969594939291906128ed565b60405180910390f35b61021c600480360381019061021791906129e7565b610cf3565b6040516102299190612c07565b60405180910390f35b61023a611022565b604051610247919061289b565b60405180910390f35b61026a60048036038101906102659190612c29565b611028565b005b61028660048036038101906102819190612c69565b6112dc565b005b6102a2600480360381019061029d91906124f5565b6115e0565b6040516102af9190612db9565b60405180910390f35b6102c0611907565b6040516102cd9190612ddb565b60405180910390f35b6102f060048036038101906102eb91906124f5565b61192b565b6040516102fd91906128d2565b60405180910390f35b610320600480360381019061031b9190612c29565b61194b565b005b61033c600480360381019061033791906129e7565b611b71565b6040516103499190612ddb565b60405180910390f35b61035a611bb0565b6040516103679190612f76565b60405180910390f35b61038a60048036038101906103859190612f98565b611f31565b604051610397919061289b565b60405180910390f35b6103ba60048036038101906103b591906129e7565b611f8c565b005b60076020528060005260406000206000915090508060000160009054906101000a900473ffffffffffffffffffffffffffffffffffffffff169080600101805461040590613007565b80601f016020809104026020016040519081016040528092919081815260200182805461043190613007565b801561047e5780601f106104535761010080835404028352916020019161047e565b820191906000526020600020905b81548152906001019060200180831161046157829003601f168201915b50505050509080600201805461049390613007565b80601f01602080910402602001604051908101604052809291908181526020018280546104bf90613007565b801561050c5780601f106104e15761010080835404028352916020019161050c565b820191906000526020600020905b8154815290600101906020018083116104ef57829003601f168201915b50505050509080600301549080600401805461052790613007565b80601f016020809104026020016040519081016040528092919081815260200182805461055390613007565b80156105a05780601f10610575576101008083540402835291602001916105a0565b820191906000526020600020905b81548152906001019060200180831161058357829003601f168201915b5050505050908060050180546105b590613007565b80601f01602080910402602001604051908101604052809291908181526020018280546105e190613007565b801561062e5780601f106106035761010080835404028352916020019161062e565b820191906000526020600020905b81548152906001019060200180831161061157829003601f168201915b5050505050908060060160009054906101000a900460ff16908060070154905088565b6000600960003373ffffffffffffffffffffffffffffffffffffffff1673ffffffffffffffffffffffffffffffffffffffff16815260200190815260200160002060009054906101000a900460ff1660ff16146106da576040517f3a81d6fc00000000000000000000000000000000000000000000000000000000815260040160405180910390fd5b60001515600760003373ffffffffffffffffffffffffffffffffffffffff1673ffffffffffffffffffffffffffffffffffffffff16815260200190815260200160002060060160009054906101000a900460ff16151514610770576040517f08c379a000000000000000000000000000000000000000000000000000000000815260040161076790613084565b60405180910390fd5b600084511161077e57600080fd5b600083511161078c57600080fd5b6002600081548092919061079f906130d3565b91905055506001600960003373ffffffffffffffffffffffffffffffffffffffff1673ffffffffffffffffffffffffffffffffffffffff16815260200190815260200160002060006101000a81548160ff021916908360ff1602179055506040518061010001604052803373ffffffffffffffffffffffffffffffffffffffff1681526020018581526020018481526020016000815260200183815260200182815260200160011515815260200142815250600760003373ffffffffffffffffffffffffffffffffffffffff1673ffffffffffffffffffffffffffffffffffffffff16815260200190815260200160002060008201518160000160006101000a81548173ffffffffffffffffffffffffffffffffffffffff021916908373ffffffffffffffffffffffffffffffffffffffff16021790555060208201518160010190816108ec91906132c7565b50604082015181600201908161090291906132c7565b5060608201518160030155608082015181600401908161092291906132c7565b5060a082015181600501908161093891906132c7565b5060c08201518160060160006101000a81548160ff02191690831515021790555060e082015181600701559050507f6c0e8aabac6898602e5264c9a24b2394d9895a70bd2f4c44c8ca0fcfcec6477f3385604051610997929190613399565b60405180910390a150505050565b60035481565b60025481565b600060149054906101000a900460ff1681565b60066020528060005260406000206000915090508060000160009054906101000a900473ffffffffffffffffffffffffffffffffffffffff1690806001018054610a0d90613007565b80601f0160208091040260200160405190810160405280929190818152602001828054610a3990613007565b8015610a865780601f10610a5b57610100808354040283529160200191610a86565b820191906000526020600020905b815481529060010190602001808311610a6957829003601f168201915b505050505090806002018054610a9b90613007565b80601f0160208091040260200160405190810160405280929190818152602001828054610ac790613007565b8015610b145780601f10610ae957610100808354040283529160200191610b14565b820191906000526020600020905b815481529060010190602001808311610af757829003601f168201915b505050505090806003015490806004018054610b2f90613007565b80601f0160208091040260200160405190810160405280929190818152602001828054610b5b90613007565b8015610ba85780601f10610b7d57610100808354040283529160200191610ba8565b820191906000526020600020905b815481529060010190602001808311610b8b57829003601f168201915b505050505090806005018054610bbd90613007565b80601f0160208091040260200160405190810160405280929190818152602001828054610be990613007565b8015610c365780601f10610c0b57610100808354040283529160200191610c36565b820191906000526020600020905b815481529060010190602001808311610c1957829003601f168201915b505050505090806006018054610c4b90613007565b80601f0160208091040260200160405190810160405280929190818152602001828054610c7790613007565b8015610cc45780601f10610c9957610100808354040283529160200191610cc4565b820191906000526020600020905b815481529060010190602001808311610ca757829003601f168201915b5050505050908060080154908060090160009054906101000a900460ff169080600a01549080600b015490508b565b610cfb612309565b600082118015610d1d5750600060149054906101000a900460ff1660ff168211155b610d5c576040517f08c379a0000000000000000000000000000000000000000000000000000000008152600401610d5390613415565b60405180910390fd5b60056000838152602001908152602001600020604051806101000160405290816000820160009054906101000a900460ff1660ff1660ff1681526020016000820160019054906101000a900473ffffffffffffffffffffffffffffffffffffffff1673ffffffffffffffffffffffffffffffffffffffff1673ffffffffffffffffffffffffffffffffffffffff168152602001600182018054610dfe90613007565b80601f0160208091040260200160405190810160405280929190818152602001828054610e2a90613007565b8015610e775780601f10610e4c57610100808354040283529160200191610e77565b820191906000526020600020905b815481529060010190602001808311610e5a57829003601f168201915b50505050508152602001600282018054610e9090613007565b80601f0160208091040260200160405190810160405280929190818152602001828054610ebc90613007565b8015610f095780601f10610ede57610100808354040283529160200191610f09565b820191906000526020600020905b815481529060010190602001808311610eec57829003601f168201915b50505050508152602001600382015481526020016004820160009054906101000a900460ff1615151515815260200160058201805480602002602001604051908101604052809291908181526020018280548015610fbc57602002820191906000526020600020905b8160009054906101000a900473ffffffffffffffffffffffffffffffffffffffff1673ffffffffffffffffffffffffffffffffffffffff1681526020019060010190808311610f72575b505050505081526020016006820160009054906101000a900473ffffffffffffffffffffffffffffffffffffffff1673ffffffffffffffffffffffffffffffffffffffff1673ffffffffffffffffffffffffffffffffffffffff16815250509050919050565b60015481565b6001600960003373ffffffffffffffffffffffffffffffffffffffff1673ffffffffffffffffffffffffffffffffffffffff16815260200190815260200160002060009054906101000a900460ff1660ff16146110b1576040517f7669999000000000000000000000000000000000000000000000000000000000815260040160405180910390fd5b600060149054906101000a900460ff1660ff1682111580156110d35750600082115b611112576040517f08c379a000000000000000000000000000000000000000000000000000000000815260040161110990613481565b60405180910390fd5b6000600560008481526020019081526020016000209050600073ffffffffffffffffffffffffffffffffffffffff168160000160019054906101000a900473ffffffffffffffffffffffffffffffffffffffff1673ffffffffffffffffffffffffffffffffffffffff16036111bc576040517f08c379a00000000000000000000000000000000000000000000000000000000081526004016111b3906134ed565b60405180910390fd5b6111c6818361229c565b611205576040517f08c379a00000000000000000000000000000000000000000000000000000000081526004016111fc90613559565b60405180910390fd5b60008160030154905060018260040160006101000a81548160ff0219169083151502179055506003600081548092919061123e906130d3565b9190505550600660008473ffffffffffffffffffffffffffffffffffffffff1673ffffffffffffffffffffffffffffffffffffffff1681526020019081526020016000206008016000815480929190611296906130d3565b91905055507f4dbba472101e9f148a3a5ecbe793f0ee16a7efe4bf3f8cbfab5330e1642ef9558484836040516112ce93929190613579565b60405180910390a150505050565b6001600960003373ffffffffffffffffffffffffffffffffffffffff1673ffffffffffffffffffffffffffffffffffffffff16815260200190815260200160002060009054906101000a900460ff1660ff1614611365576040517f7669999000000000000000000000000000000000000000000000000000000000815260040160405180910390fd5b6000601481819054906101000a900460ff1680929190611384906135b0565b91906101000a81548160ff021916908360ff1602179055505060008060149054906101000a900460ff1690506040518061010001604052808260ff1681526020013373ffffffffffffffffffffffffffffffffffffffff168152602001858152602001848152602001838152602001600015158152602001600067ffffffffffffffff81111561141757611416612699565b5b6040519080825280602002602001820160405280156114455781602001602082028036833780820191505090505b508152602001600073ffffffffffffffffffffffffffffffffffffffff16815250600560008360ff16815260200190815260200160002060008201518160000160006101000a81548160ff021916908360ff16021790555060208201518160000160016101000a81548173ffffffffffffffffffffffffffffffffffffffff021916908373ffffffffffffffffffffffffffffffffffffffff16021790555060408201518160010190816114f991906132c7565b50606082015181600201908161150f91906132c7565b506080820151816003015560a08201518160040160006101000a81548160ff02191690831515021790555060c082015181600501908051906020019061155692919061237f565b5060e08201518160060160006101000a81548173ffffffffffffffffffffffffffffffffffffffff021916908373ffffffffffffffffffffffffffffffffffffffff1602179055509050507fb63f0fdfb200b05c8b95fb4dcf8f8abd30f0b6884d532792e705afab4f37380a81856040516115d292919061360a565b60405180910390a150505050565b6115e8612409565b600760008373ffffffffffffffffffffffffffffffffffffffff1673ffffffffffffffffffffffffffffffffffffffff168152602001908152602001600020604051806101000160405290816000820160009054906101000a900473ffffffffffffffffffffffffffffffffffffffff1673ffffffffffffffffffffffffffffffffffffffff1673ffffffffffffffffffffffffffffffffffffffff16815260200160018201805461169990613007565b80601f01602080910402602001604051908101604052809291908181526020018280546116c590613007565b80156117125780601f106116e757610100808354040283529160200191611712565b820191906000526020600020905b8154815290600101906020018083116116f557829003601f168201915b5050505050815260200160028201805461172b90613007565b80601f016020809104026020016040519081016040528092919081815260200182805461175790613007565b80156117a45780601f10611779576101008083540402835291602001916117a4565b820191906000526020600020905b81548152906001019060200180831161178757829003601f168201915b50505050508152602001600382015481526020016004820180546117c790613007565b80601f01602080910402602001604051908101604052809291908181526020018280546117f390613007565b80156118405780601f1061181557610100808354040283529160200191611840565b820191906000526020600020905b81548152906001019060200180831161182357829003601f168201915b5050505050815260200160058201805461185990613007565b80601f016020809104026020016040519081016040528092919081815260200182805461188590613007565b80156118d25780601f106118a7576101008083540402835291602001916118d2565b820191906000526020600020905b8154815290600101906020018083116118b557829003601f168201915b505050505081526020016006820160009054906101000a900460ff161515151581526020016007820154815250509050919050565b60008054906101000a900473ffffffffffffffffffffffffffffffffffffffff1681565b60096020528060005260406000206000915054906101000a900460ff1681565b6001600960003373ffffffffffffffffffffffffffffffffffffffff1673ffffffffffffffffffffffffffffffffffffffff16815260200190815260200160002060009054906101000a900460ff1660ff16146119d4576040517f7669999000000000000000000000000000000000000000000000000000000000815260040160405180910390fd5b600060149054906101000a900460ff1660ff1682111580156119f65750600082115b611a35576040517f08c379a0000000000000000000000000000000000000000000000000000000008152600401611a2c90613686565b60405180910390fd5b6000600560008481526020019081526020016000209050600073ffffffffffffffffffffffffffffffffffffffff168160000160019054906101000a900473ffffffffffffffffffffffffffffffffffffffff1673ffffffffffffffffffffffffffffffffffffffff1603611adf576040517f08c379a0000000000000000000000000000000000000000000000000000000008152600401611ad6906134ed565b60405180910390fd5b611ae9818361229c565b15611b29576040517f08c379a0000000000000000000000000000000000000000000000000000000008152600401611b20906136f2565b60405180910390fd5b818160060160006101000a81548173ffffffffffffffffffffffffffffffffffffffff021916908373ffffffffffffffffffffffffffffffffffffffff160217905550505050565b60048181548110611b8157600080fd5b906000526020600020016000915054906101000a900473ffffffffffffffffffffffffffffffffffffffff1681565b6060600060149054906101000a900460ff1660ff1667ffffffffffffffff811115611bde57611bdd612699565b5b604051908082528060200260200182016040528015611c1757816020015b611c04612309565b815260200190600190039081611bfc5790505b50905060005b600060149054906101000a900460ff1660ff16811015611f2d5760056000600183611c489190613712565b8152602001908152602001600020604051806101000160405290816000820160009054906101000a900460ff1660ff1660ff1681526020016000820160019054906101000a900473ffffffffffffffffffffffffffffffffffffffff1673ffffffffffffffffffffffffffffffffffffffff1673ffffffffffffffffffffffffffffffffffffffff168152602001600182018054611ce590613007565b80601f0160208091040260200160405190810160405280929190818152602001828054611d1190613007565b8015611d5e5780601f10611d3357610100808354040283529160200191611d5e565b820191906000526020600020905b815481529060010190602001808311611d4157829003601f168201915b50505050508152602001600282018054611d7790613007565b80601f0160208091040260200160405190810160405280929190818152602001828054611da390613007565b8015611df05780601f10611dc557610100808354040283529160200191611df0565b820191906000526020600020905b815481529060010190602001808311611dd357829003601f168201915b50505050508152602001600382015481526020016004820160009054906101000a900460ff1615151515815260200160058201805480602002602001604051908101604052809291908181526020018280548015611ea357602002820191906000526020600020905b8160009054906101000a900473ffffffffffffffffffffffffffffffffffffffff1673ffffffffffffffffffffffffffffffffffffffff1681526020019060010190808311611e59575b505050505081526020016006820160009054906101000a900473ffffffffffffffffffffffffffffffffffffffff1673ffffffffffffffffffffffffffffffffffffffff1673ffffffffffffffffffffffffffffffffffffffff1681525050828281518110611f1557611f14613746565b5b60200260200101819052508080600101915050611c1d565b5090565b6000600860008473ffffffffffffffffffffffffffffffffffffffff1673ffffffffffffffffffffffffffffffffffffffff168152602001908152602001600020600083815260200190815260200160002054905092915050565b600060149054906101000a900460ff1660ff168111158015611fae5750600081115b611fed576040517f08c379a0000000000000000000000000000000000000000000000000000000008152600401611fe490613481565b60405180910390fd5b6000600560008381526020019081526020016000209050600073ffffffffffffffffffffffffffffffffffffffff168160000160019054906101000a900473ffffffffffffffffffffffffffffffffffffffff1673ffffffffffffffffffffffffffffffffffffffff1603612097576040517f08c379a000000000000000000000000000000000000000000000000000000000815260040161208e906134ed565b60405180910390fd5b600073ffffffffffffffffffffffffffffffffffffffff163373ffffffffffffffffffffffffffffffffffffffff1603612106576040517f08c379a00000000000000000000000000000000000000000000000000000000081526004016120fd906137c1565b60405180910390fd5b60005b81600501805490508110156121d3573373ffffffffffffffffffffffffffffffffffffffff1682600501828154811061214557612144613746565b5b9060005260206000200160009054906101000a900473ffffffffffffffffffffffffffffffffffffffff1673ffffffffffffffffffffffffffffffffffffffff16036121c6576040517f08c379a00000000000000000000000000000000000000000000000000000000081526004016121bd9061382d565b60405180910390fd5b8080600101915050612109565b5080600501339080600181540180825580915050600190039060005260206000200160009091909190916101000a81548173ffffffffffffffffffffffffffffffffffffffff021916908373ffffffffffffffffffffffffffffffffffffffff1602179055507f2b443803772f6da2db17c7357119f932841870fdf0a3a5d8ca9d2e112bb13326828260000160019054906101000a900473ffffffffffffffffffffffffffffffffffffffff16336040516122909392919061384d565b60405180910390a15050565b60008173ffffffffffffffffffffffffffffffffffffffff168360060160009054906101000a900473ffffffffffffffffffffffffffffffffffffffff1673ffffffffffffffffffffffffffffffffffffffff16036122fe5760019050612303565b600090505b92915050565b604051806101000160405280600060ff168152602001600073ffffffffffffffffffffffffffffffffffffffff16815260200160608152602001606081526020016000815260200160001515815260200160608152602001600073ffffffffffffffffffffffffffffffffffffffff1681525090565b8280548282559060005260206000209081019282156123f8579160200282015b828111156123f75782518260006101000a81548173ffffffffffffffffffffffffffffffffffffffff021916908373ffffffffffffffffffffffffffffffffffffffff1602179055509160200191906001019061239f565b5b5090506124059190612466565b5090565b604051806101000160405280600073ffffffffffffffffffffffffffffffffffffffff1681526020016060815260200160608152602001600081526020016060815260200160608152602001600015158152602001600081525090565b5b8082111561247f576000816000905550600101612467565b5090565b6000604051905090565b600080fd5b600080fd5b600073ffffffffffffffffffffffffffffffffffffffff82169050919050565b60006124c282612497565b9050919050565b6124d2816124b7565b81146124dd57600080fd5b50565b6000813590506124ef816124c9565b92915050565b60006020828403121561250b5761250a61248d565b5b6000612519848285016124e0565b91505092915050565b61252b816124b7565b82525050565b600081519050919050565b600082825260208201905092915050565b60005b8381101561256b578082015181840152602081019050612550565b60008484015250505050565b6000601f19601f8301169050919050565b600061259382612531565b61259d818561253c565b93506125ad81856020860161254d565b6125b681612577565b840191505092915050565b6000819050919050565b6125d4816125c1565b82525050565b60008115159050919050565b6125ef816125da565b82525050565b60006101008201905061260b600083018b612522565b818103602083015261261d818a612588565b905081810360408301526126318189612588565b905061264060608301886125cb565b81810360808301526126528187612588565b905081810360a08301526126668186612588565b905061267560c08301856125e6565b61268260e08301846125cb565b9998505050505050505050565b600080fd5b600080fd5b7f4e487b7100000000000000000000000000000000000000000000000000000000600052604160045260246000fd5b6126d182612577565b810181811067ffffffffffffffff821117156126f0576126ef612699565b5b80604052505050565b6000612703612483565b905061270f82826126c8565b919050565b600067ffffffffffffffff82111561272f5761272e612699565b5b61273882612577565b9050602081019050919050565b82818337600083830152505050565b600061276761276284612714565b6126f9565b90508281526020810184848401111561278357612782612694565b5b61278e848285612745565b509392505050565b600082601f8301126127ab576127aa61268f565b5b81356127bb848260208601612754565b91505092915050565b600080600080608085870312156127de576127dd61248d565b5b600085013567ffffffffffffffff8111156127fc576127fb612492565b5b61280887828801612796565b945050602085013567ffffffffffffffff81111561282957612828612492565b5b61283587828801612796565b935050604085013567ffffffffffffffff81111561285657612855612492565b5b61286287828801612796565b925050606085013567ffffffffffffffff81111561288357612882612492565b5b61288f87828801612796565b91505092959194509250565b60006020820190506128b060008301846125cb565b92915050565b600060ff82169050919050565b6128cc816128b6565b82525050565b60006020820190506128e760008301846128c3565b92915050565b600061016082019050612903600083018e612522565b8181036020830152612915818d612588565b90508181036040830152612929818c612588565b9050612938606083018b6125cb565b818103608083015261294a818a612588565b905081810360a083015261295e8189612588565b905081810360c08301526129728188612588565b905061298160e08301876125cb565b61298f6101008301866125e6565b61299d6101208301856125cb565b6129ab6101408301846125cb565b9c9b505050505050505050505050565b6129c4816125c1565b81146129cf57600080fd5b50565b6000813590506129e1816129bb565b92915050565b6000602082840312156129fd576129fc61248d565b5b6000612a0b848285016129d2565b91505092915050565b612a1d816128b6565b82525050565b612a2c816124b7565b82525050565b600082825260208201905092915050565b6000612a4e82612531565b612a588185612a32565b9350612a6881856020860161254d565b612a7181612577565b840191505092915050565b612a85816125c1565b82525050565b612a94816125da565b82525050565b600081519050919050565b600082825260208201905092915050565b6000819050602082019050919050565b6000612ad28383612a23565b60208301905092915050565b6000602082019050919050565b6000612af682612a9a565b612b008185612aa5565b9350612b0b83612ab6565b8060005b83811015612b3c578151612b238882612ac6565b9750612b2e83612ade565b925050600181019050612b0f565b5085935050505092915050565b600061010083016000830151612b626000860182612a14565b506020830151612b756020860182612a23565b5060408301518482036040860152612b8d8282612a43565b91505060608301518482036060860152612ba78282612a43565b9150506080830151612bbc6080860182612a7c565b5060a0830151612bcf60a0860182612a8b565b5060c083015184820360c0860152612be78282612aeb565b91505060e0830151612bfc60e0860182612a23565b508091505092915050565b60006020820190508181036000830152612c218184612b49565b905092915050565b60008060408385031215612c4057612c3f61248d565b5b6000612c4e858286016129d2565b9250506020612c5f858286016124e0565b9150509250929050565b600080600060608486031215612c8257612c8161248d565b5b600084013567ffffffffffffffff811115612ca057612c9f612492565b5b612cac86828701612796565b935050602084013567ffffffffffffffff811115612ccd57612ccc612492565b5b612cd986828701612796565b9250506040612cea868287016129d2565b9150509250925092565b600061010083016000830151612d0d6000860182612a23565b5060208301518482036020860152612d258282612a43565b91505060408301518482036040860152612d3f8282612a43565b9150506060830151612d546060860182612a7c565b5060808301518482036080860152612d6c8282612a43565b91505060a083015184820360a0860152612d868282612a43565b91505060c0830151612d9b60c0860182612a8b565b5060e0830151612dae60e0860182612a7c565b508091505092915050565b60006020820190508181036000830152612dd38184612cf4565b905092915050565b6000602082019050612df06000830184612522565b92915050565b600081519050919050565b600082825260208201905092915050565b6000819050602082019050919050565b600061010083016000830151612e3b6000860182612a14565b506020830151612e4e6020860182612a23565b5060408301518482036040860152612e668282612a43565b91505060608301518482036060860152612e808282612a43565b9150506080830151612e956080860182612a7c565b5060a0830151612ea860a0860182612a8b565b5060c083015184820360c0860152612ec08282612aeb565b91505060e0830151612ed560e0860182612a23565b508091505092915050565b6000612eec8383612e22565b905092915050565b6000602082019050919050565b6000612f0c82612df6565b612f168185612e01565b935083602082028501612f2885612e12565b8060005b85811015612f645784840389528151612f458582612ee0565b9450612f5083612ef4565b925060208a01995050600181019050612f2c565b50829750879550505050505092915050565b60006020820190508181036000830152612f908184612f01565b905092915050565b60008060408385031215612faf57612fae61248d565b5b6000612fbd858286016124e0565b9250506020612fce858286016129d2565b9150509250929050565b7f4e487b7100000000000000000000000000000000000000000000000000000000600052602260045260246000fd5b6000600282049050600182168061301f57607f821691505b60208210810361303257613031612fd8565b5b50919050565b7f4152000000000000000000000000000000000000000000000000000000000000600082015250565b600061306e60028361253c565b915061307982613038565b602082019050919050565b6000602082019050818103600083015261309d81613061565b9050919050565b7f4e487b7100000000000000000000000000000000000000000000000000000000600052601160045260246000fd5b60006130de826125c1565b91507fffffffffffffffffffffffffffffffffffffffffffffffffffffffffffffffff82036131105761310f6130a4565b5b600182019050919050565b60008190508160005260206000209050919050565b60006020601f8301049050919050565b600082821b905092915050565b60006008830261317d7fffffffffffffffffffffffffffffffffffffffffffffffffffffffffffffffff82613140565b6131878683613140565b95508019841693508086168417925050509392505050565b6000819050919050565b60006131c46131bf6131ba846125c1565b61319f565b6125c1565b9050919050565b6000819050919050565b6131de836131a9565b6131f26131ea826131cb565b84845461314d565b825550505050565b600090565b6132076131fa565b6132128184846131d5565b505050565b5b818110156132365761322b6000826131ff565b600181019050613218565b5050565b601f82111561327b5761324c8161311b565b61325584613130565b81016020851015613264578190505b61327861327085613130565b830182613217565b50505b505050565b600082821c905092915050565b600061329e60001984600802613280565b1980831691505092915050565b60006132b7838361328d565b9150826002028217905092915050565b6132d082612531565b67ffffffffffffffff8111156132e9576132e8612699565b5b6132f38254613007565b6132fe82828561323a565b600060209050601f831160018114613331576000841561331f578287015190505b61332985826132ab565b865550613391565b601f19841661333f8661311b565b60005b8281101561336757848901518255600182019150602085019450602081019050613342565b868310156133845784890151613380601f89168261328d565b8355505b6001600288020188555050505b505050505050565b60006040820190506133ae6000830185612522565b81810360208301526133c08184612588565b90509392505050565b7f494a000000000000000000000000000000000000000000000000000000000000600082015250565b60006133ff60028361253c565b915061340a826133c9565b602082019050919050565b6000602082019050818103600083015261342e816133f2565b9050919050565b7f4a44450000000000000000000000000000000000000000000000000000000000600082015250565b600061346b60038361253c565b915061347682613435565b602082019050919050565b6000602082019050818103600083015261349a8161345e565b9050919050565b7f4a4e460000000000000000000000000000000000000000000000000000000000600082015250565b60006134d760038361253c565b91506134e2826134a1565b602082019050919050565b60006020820190508181036000830152613506816134ca565b9050919050565b7f464e480000000000000000000000000000000000000000000000000000000000600082015250565b600061354360038361253c565b915061354e8261350d565b602082019050919050565b6000602082019050818103600083015261357281613536565b9050919050565b600060608201905061358e60008301866125cb565b61359b6020830185612522565b6135a860408301846125cb565b949350505050565b60006135bb826128b6565b915060ff82036135ce576135cd6130a4565b5b600182019050919050565b60006135f46135ef6135ea846128b6565b61319f565b6125c1565b9050919050565b613604816135d9565b82525050565b600060408201905061361f60008301856135fb565b81810360208301526136318184612588565b90509392505050565b7f4a44452e00000000000000000000000000000000000000000000000000000000600082015250565b600061367060048361253c565b915061367b8261363a565b602082019050919050565b6000602082019050818103600083015261369f81613663565b9050919050565b7f4641480000000000000000000000000000000000000000000000000000000000600082015250565b60006136dc60038361253c565b91506136e7826136a6565b602082019050919050565b6000602082019050818103600083015261370b816136cf565b9050919050565b600061371d826125c1565b9150613728836125c1565b92508282019050808211156137405761373f6130a4565b5b92915050565b7f4e487b7100000000000000000000000000000000000000000000000000000000600052603260045260246000fd5b7f49412e0000000000000000000000000000000000000000000000000000000000600082015250565b60006137ab60038361253c565b91506137b682613775565b602082019050919050565b600060208201905081810360008301526137da8161379e565b9050919050565b7f5948410000000000000000000000000000000000000000000000000000000000600082015250565b600061381760038361253c565b9150613822826137e1565b602082019050919050565b600060208201905081810360008301526138468161380a565b9050919050565b600060608201905061386260008301866125cb565b61386f6020830185612522565b61387c6040830184612522565b94935050505056fea2646970667358221220dcd11a66ce5102d05e111008fc15c090cc24a1cda98a51a916caca956e45f88664736f6c63430008180033",
  "linkReferences": {},
  "deployedLinkReferences": {}
}