{
  "_format": "hh-sol-artifact-1",
  "contractName": "FreelancerLogic",
  "sourceName": "contracts/FreelancerLogic.sol",
  "abi": [
    {
      "inputs": [],
      "name": "AR_F",
      "type": "error"
    },
    {
      "inputs": [],
      "name": "II_F",
      "type": "error"
    },
    {
      "inputs": [],
      "name": "WR_F",
      "type": "error"
    },
    {
      "anonymous": false,
      "inputs": [
        {
          "indexed": false,
          "internalType": "address",
          "name": "freelancerAddress",
          "type": "address"
        },
        {
          "indexed": false,
          "internalType": "string[]",
          "name": "images",
          "type": "string[]"
        },
        {
          "indexed": false,
          "internalType": "uint256",
          "name": "amount",
          "type": "uint256"
        }
      ],
      "name": "FreelancerRegistered",
      "type": "event"
    },
    {
      "anonymous": false,
      "inputs": [
        {
          "indexed": false,
          "internalType": "address",
          "name": "freelancer",
          "type": "address"
        },
        {
          "indexed": false,
          "internalType": "uint256",
          "name": "amount",
          "type": "uint256"
        }
      ],
      "name": "WithdrawFund",
      "type": "event"
    },
    {
      "inputs": [
        {
          "internalType": "uint256",
          "name": "",
          "type": "uint256"
        }
      ],
      "name": "allFreelancerAddresses",
      "outputs": [
        {
          "internalType": "address",
          "name": "",
          "type": "address"
        }
      ],
      "stateMutability": "view",
      "type": "function"
    },
    {
      "inputs": [
        {
          "internalType": "string",
          "name": "_name",
          "type": "string"
        },
        {
          "internalType": "string",
          "name": "_skills",
          "type": "string"
        },
        {
          "internalType": "string",
          "name": "_country",
          "type": "string"
        },
        {
          "internalType": "string",
          "name": "_gigTitle",
          "type": "string"
        },
        {
          "internalType": "string",
          "name": "_gigDesc",
          "type": "string"
        },
        {
          "internalType": "string[]",
          "name": "_images",
          "type": "string[]"
        },
        {
          "internalType": "uint256",
          "name": "_starting_price",
          "type": "uint256"
        }
      ],
      "name": "editFreelancerProfile",
      "outputs": [],
      "stateMutability": "nonpayable",
      "type": "function"
    },
    {
      "inputs": [
        {
          "internalType": "address",
          "name": "",
          "type": "address"
        }
      ],
      "name": "employers",
      "outputs": [
        {
          "internalType": "address",
          "name": "employerAddress",
          "type": "address"
        },
        {
          "internalType": "string",
          "name": "name",
          "type": "string"
        },
        {
          "internalType": "string",
          "name": "industry",
          "type": "string"
        },
        {
          "internalType": "uint256",
          "name": "balance",
          "type": "uint256"
        },
        {
          "internalType": "string",
          "name": "country",
          "type": "string"
        },
        {
          "internalType": "string",
          "name": "image",
          "type": "string"
        },
        {
          "internalType": "bool",
          "name": "registered",
          "type": "bool"
        },
        {
          "internalType": "uint256",
          "name": "registration_date",
          "type": "uint256"
        }
      ],
      "stateMutability": "view",
      "type": "function"
    },
    {
      "inputs": [
        {
          "internalType": "address",
          "name": "",
          "type": "address"
        },
        {
          "internalType": "uint256",
          "name": "",
          "type": "uint256"
        }
      ],
      "name": "escrowFunds",
      "outputs": [
        {
          "internalType": "uint256",
          "name": "",
          "type": "uint256"
        }
      ],
      "stateMutability": "view",
      "type": "function"
    },
    {
      "inputs": [
        {
          "internalType": "address",
          "name": "",
          "type": "address"
        }
      ],
      "name": "freelancers",
      "outputs": [
        {
          "internalType": "address",
          "name": "freelancerAddress",
          "type": "address"
        },
        {
          "internalType": "string",
          "name": "name",
          "type": "string"
        },
        {
          "internalType": "string",
          "name": "skills",
          "type": "string"
        },
        {
          "internalType": "uint256",
          "name": "balance",
          "type": "uint256"
        },
        {
          "internalType": "string",
          "name": "country",
          "type": "string"
        },
        {
          "internalType": "string",
          "name": "gigTitle",
          "type": "string"
        },
        {
          "internalType": "string",
          "name": "gitDescription",
          "type": "string"
        },
        {
          "internalType": "uint256",
          "name": "jobsCompleted",
          "type": "uint256"
        },
        {
          "internalType": "bool",
          "name": "registered",
          "type": "bool"
        },
        {
          "internalType": "uint256",
          "name": "registration_date",
          "type": "uint256"
        },
        {
          "internalType": "uint256",
          "name": "starting_price",
          "type": "uint256"
        }
      ],
      "stateMutability": "view",
      "type": "function"
    },
    {
      "inputs": [
        {
          "internalType": "address",
          "name": "_freelancer",
          "type": "address"
        }
      ],
      "name": "getFreelancerByAddress",
      "outputs": [
        {
          "components": [
            {
              "internalType": "address",
              "name": "freelancerAddress",
              "type": "address"
            },
            {
              "internalType": "string",
              "name": "name",
              "type": "string"
            },
            {
              "internalType": "string",
              "name": "skills",
              "type": "string"
            },
            {
              "internalType": "uint256",
              "name": "balance",
              "type": "uint256"
            },
            {
              "internalType": "string",
              "name": "country",
              "type": "string"
            },
            {
              "internalType": "string",
              "name": "gigTitle",
              "type": "string"
            },
            {
              "internalType": "string",
              "name": "gitDescription",
              "type": "string"
            },
            {
              "internalType": "string[]",
              "name": "images",
              "type": "string[]"
            },
            {
              "internalType": "uint256",
              "name": "jobsCompleted",
              "type": "uint256"
            },
            {
              "internalType": "bool",
              "name": "registered",
              "type": "bool"
            },
            {
              "internalType": "uint256",
              "name": "registration_date",
              "type": "uint256"
            },
            {
              "internalType": "uint256",
              "name": "starting_price",
              "type": "uint256"
            }
          ],
          "internalType": "struct Storage.Freelancer",
          "name": "props",
          "type": "tuple"
        }
      ],
      "stateMutability": "view",
      "type": "function"
    },
    {
      "inputs": [
        {
          "internalType": "uint256",
          "name": "",
          "type": "uint256"
        }
      ],
      "name": "jobs",
      "outputs": [
        {
          "internalType": "uint8",
          "name": "id",
          "type": "uint8"
        },
        {
          "internalType": "address",
          "name": "employer",
          "type": "address"
        },
        {
          "internalType": "string",
          "name": "title",
          "type": "string"
        },
        {
          "internalType": "string",
          "name": "description",
          "type": "string"
        },
        {
          "internalType": "uint256",
          "name": "budget",
          "type": "uint256"
        },
        {
          "internalType": "bool",
          "name": "completed",
          "type": "bool"
        },
        {
          "internalType": "address",
          "name": "hiredFreelancer",
          "type": "address"
        }
      ],
      "stateMutability": "view",
      "type": "function"
    },
    {
      "inputs": [],
      "name": "owner",
      "outputs": [
        {
          "internalType": "address",
          "name": "",
          "type": "address"
        }
      ],
      "stateMutability": "view",
      "type": "function"
    },
    {
      "inputs": [
        {
          "internalType": "string",
          "name": "_name",
          "type": "string"
        },
        {
          "internalType": "string",
          "name": "_skills",
          "type": "string"
        },
        {
          "internalType": "string",
          "name": "_country",
          "type": "string"
        },
        {
          "internalType": "string",
          "name": "_gigTitle",
          "type": "string"
        },
        {
          "internalType": "string",
          "name": "_gigDesc",
          "type": "string"
        },
        {
          "internalType": "string[]",
          "name": "_images",
          "type": "string[]"
        },
        {
          "internalType": "uint256",
          "name": "_starting_price",
          "type": "uint256"
        }
      ],
      "name": "registerFreelancer",
      "outputs": [],
      "stateMutability": "nonpayable",
      "type": "function"
    },
    {
      "inputs": [
        {
          "internalType": "address",
          "name": "",
          "type": "address"
        }
      ],
      "name": "roles",
      "outputs": [
        {
          "internalType": "uint8",
          "name": "",
          "type": "uint8"
        }
      ],
      "stateMutability": "view",
      "type": "function"
    },
    {
      "inputs": [],
      "name": "totalCompletedJobs",
      "outputs": [
        {
          "internalType": "uint256",
          "name": "",
          "type": "uint256"
        }
      ],
      "stateMutability": "view",
      "type": "function"
    },
    {
      "inputs": [],
      "name": "totalEmployers",
      "outputs": [
        {
          "internalType": "uint256",
          "name": "",
          "type": "uint256"
        }
      ],
      "stateMutability": "view",
      "type": "function"
    },
    {
      "inputs": [],
      "name": "totalFreelancers",
      "outputs": [
        {
          "internalType": "uint256",
          "name": "",
          "type": "uint256"
        }
      ],
      "stateMutability": "view",
      "type": "function"
    },
    {
      "inputs": [],
      "name": "totalJobs",
      "outputs": [
        {
          "internalType": "uint8",
          "name": "",
          "type": "uint8"
        }
      ],
      "stateMutability": "view",
      "type": "function"
    },
    {
      "inputs": [],
      "name": "withdrawEarnings",
      "outputs": [],
      "stateMutability": "nonpayable",
      "type": "function"
    }
  ],
  "bytecode": "0x608060405234801561001057600080fd5b50612937806100206000396000f3fe608060405234801561001057600080fd5b50600436106100f55760003560e01c806358d7f895116100975780639937464211610066578063993746421461029f578063b73c6ce9146102cf578063c27a9dd4146102d9578063fcafae1114610309576100f5565b806358d7f8951461022b5780635e586eb1146102475780638da5cb5b1461026557806391ca168714610283576100f5565b80631906b4ce116100d35780631906b4ce146101855780631ace87b3146101a35780631c7af7a0146101c157806321bd6693146101f1576100f5565b80630be435bd146100fa5780631033397b14610131578063180aedf31461014f575b600080fd5b610114600480360381019061010f919061192d565b610339565b604051610128989796959493929190611a2d565b60405180910390f35b6101396105ce565b6040516101469190611ac7565b60405180910390f35b61016960048036038101906101649190611b0e565b6105d4565b60405161017c9796959493929190611b57565b60405180910390f35b61018d610780565b60405161019a9190611ac7565b60405180910390f35b6101ab610786565b6040516101b89190611bd4565b60405180910390f35b6101db60048036038101906101d6919061192d565b610799565b6040516101e89190611e4f565b60405180910390f35b61020b6004803603810190610206919061192d565b610c3f565b6040516102229b9a99989796959493929190611e71565b60405180910390f35b6102456004803603810190610240919061215a565b610f6e565b005b61024f6112f8565b60405161025c9190611ac7565b60405180910390f35b61026d6112fe565b60405161027a91906122a4565b60405180910390f35b61029d6004803603810190610298919061215a565b611322565b005b6102b960048036038101906102b4919061192d565b6114bc565b6040516102c69190611bd4565b60405180910390f35b6102d76114dc565b005b6102f360048036038101906102ee9190611b0e565b611704565b60405161030091906122a4565b60405180910390f35b610323600480360381019061031e91906122bf565b611743565b6040516103309190611ac7565b60405180910390f35b60066020528060005260406000206000915090508060000160009054906101000a900473ffffffffffffffffffffffffffffffffffffffff16908060010180546103829061232e565b80601f01602080910402602001604051908101604052809291908181526020018280546103ae9061232e565b80156103fb5780601f106103d0576101008083540402835291602001916103fb565b820191906000526020600020905b8154815290600101906020018083116103de57829003601f168201915b5050505050908060020180546104109061232e565b80601f016020809104026020016040519081016040528092919081815260200182805461043c9061232e565b80156104895780601f1061045e57610100808354040283529160200191610489565b820191906000526020600020905b81548152906001019060200180831161046c57829003601f168201915b5050505050908060030154908060040180546104a49061232e565b80601f01602080910402602001604051908101604052809291908181526020018280546104d09061232e565b801561051d5780601f106104f25761010080835404028352916020019161051d565b820191906000526020600020905b81548152906001019060200180831161050057829003601f168201915b5050505050908060050180546105329061232e565b80601f016020809104026020016040519081016040528092919081815260200182805461055e9061232e565b80156105ab5780601f10610580576101008083540402835291602001916105ab565b820191906000526020600020905b81548152906001019060200180831161058e57829003601f168201915b5050505050908060060160009054906101000a900460ff16908060070154905088565b60035481565b60046020528060005260406000206000915090508060000160009054906101000a900460ff16908060000160019054906101000a900473ffffffffffffffffffffffffffffffffffffffff16908060010180546106309061232e565b80601f016020809104026020016040519081016040528092919081815260200182805461065c9061232e565b80156106a95780601f1061067e576101008083540402835291602001916106a9565b820191906000526020600020905b81548152906001019060200180831161068c57829003601f168201915b5050505050908060020180546106be9061232e565b80601f01602080910402602001604051908101604052809291908181526020018280546106ea9061232e565b80156107375780601f1061070c57610100808354040283529160200191610737565b820191906000526020600020905b81548152906001019060200180831161071a57829003601f168201915b5050505050908060030154908060040160009054906101000a900460ff16908060060160009054906101000a900473ffffffffffffffffffffffffffffffffffffffff16905087565b60025481565b600060149054906101000a900460ff1681565b6107a1611768565b600560008373ffffffffffffffffffffffffffffffffffffffff1673ffffffffffffffffffffffffffffffffffffffff168152602001908152602001600020604051806101800160405290816000820160009054906101000a900473ffffffffffffffffffffffffffffffffffffffff1673ffffffffffffffffffffffffffffffffffffffff1673ffffffffffffffffffffffffffffffffffffffff1681526020016001820180546108529061232e565b80601f016020809104026020016040519081016040528092919081815260200182805461087e9061232e565b80156108cb5780601f106108a0576101008083540402835291602001916108cb565b820191906000526020600020905b8154815290600101906020018083116108ae57829003601f168201915b505050505081526020016002820180546108e49061232e565b80601f01602080910402602001604051908101604052809291908181526020018280546109109061232e565b801561095d5780601f106109325761010080835404028352916020019161095d565b820191906000526020600020905b81548152906001019060200180831161094057829003601f168201915b50505050508152602001600382015481526020016004820180546109809061232e565b80601f01602080910402602001604051908101604052809291908181526020018280546109ac9061232e565b80156109f95780601f106109ce576101008083540402835291602001916109f9565b820191906000526020600020905b8154815290600101906020018083116109dc57829003601f168201915b50505050508152602001600582018054610a129061232e565b80601f0160208091040260200160405190810160405280929190818152602001828054610a3e9061232e565b8015610a8b5780601f10610a6057610100808354040283529160200191610a8b565b820191906000526020600020905b815481529060010190602001808311610a6e57829003601f168201915b50505050508152602001600682018054610aa49061232e565b80601f0160208091040260200160405190810160405280929190818152602001828054610ad09061232e565b8015610b1d5780601f10610af257610100808354040283529160200191610b1d565b820191906000526020600020905b815481529060010190602001808311610b0057829003601f168201915b5050505050815260200160078201805480602002602001604051908101604052809291908181526020016000905b82821015610bf7578382906000526020600020018054610b6a9061232e565b80601f0160208091040260200160405190810160405280929190818152602001828054610b969061232e565b8015610be35780601f10610bb857610100808354040283529160200191610be3565b820191906000526020600020905b815481529060010190602001808311610bc657829003601f168201915b505050505081526020019060010190610b4b565b505050508152602001600882015481526020016009820160009054906101000a900460ff16151515158152602001600a8201548152602001600b820154815250509050919050565b60056020528060005260406000206000915090508060000160009054906101000a900473ffffffffffffffffffffffffffffffffffffffff1690806001018054610c889061232e565b80601f0160208091040260200160405190810160405280929190818152602001828054610cb49061232e565b8015610d015780601f10610cd657610100808354040283529160200191610d01565b820191906000526020600020905b815481529060010190602001808311610ce457829003601f168201915b505050505090806002018054610d169061232e565b80601f0160208091040260200160405190810160405280929190818152602001828054610d429061232e565b8015610d8f5780601f10610d6457610100808354040283529160200191610d8f565b820191906000526020600020905b815481529060010190602001808311610d7257829003601f168201915b505050505090806003015490806004018054610daa9061232e565b80601f0160208091040260200160405190810160405280929190818152602001828054610dd69061232e565b8015610e235780601f10610df857610100808354040283529160200191610e23565b820191906000526020600020905b815481529060010190602001808311610e0657829003601f168201915b505050505090806005018054610e389061232e565b80601f0160208091040260200160405190810160405280929190818152602001828054610e649061232e565b8015610eb15780601f10610e8657610100808354040283529160200191610eb1565b820191906000526020600020905b815481529060010190602001808311610e9457829003601f168201915b505050505090806006018054610ec69061232e565b80601f0160208091040260200160405190810160405280929190818152602001828054610ef29061232e565b8015610f3f5780601f10610f1457610100808354040283529160200191610f3f565b820191906000526020600020905b815481529060010190602001808311610f2257829003601f168201915b5050505050908060080154908060090160009054906101000a900460ff169080600a01549080600b015490508b565b6000600860003373ffffffffffffffffffffffffffffffffffffffff1673ffffffffffffffffffffffffffffffffffffffff16815260200190815260200160002060009054906101000a900460ff1660ff1614610ff7576040517f0af79ad300000000000000000000000000000000000000000000000000000000815260040160405180910390fd5b600087511161100557600080fd5b600086511161101357600080fd5b600160008154809291906110269061238e565b91905055506002600860003373ffffffffffffffffffffffffffffffffffffffff1673ffffffffffffffffffffffffffffffffffffffff16815260200190815260200160002060006101000a81548160ff021916908360ff1602179055506040518061018001604052803373ffffffffffffffffffffffffffffffffffffffff168152602001888152602001878152602001600081526020018681526020018581526020018481526020018381526020016000815260200160011515815260200142815260200182815250600560003373ffffffffffffffffffffffffffffffffffffffff1673ffffffffffffffffffffffffffffffffffffffff16815260200190815260200160002060008201518160000160006101000a81548173ffffffffffffffffffffffffffffffffffffffff021916908373ffffffffffffffffffffffffffffffffffffffff160217905550602082015181600101908161118c9190612582565b5060408201518160020190816111a29190612582565b506060820151816003015560808201518160040190816111c29190612582565b5060a08201518160050190816111d89190612582565b5060c08201518160060190816111ee9190612582565b5060e082015181600701908051906020019061120b9291906117e1565b5061010082015181600801556101208201518160090160006101000a81548160ff02191690831515021790555061014082015181600a015561016082015181600b01559050506009339080600181540180825580915050600190039060005260206000200160009091909190916101000a81548173ffffffffffffffffffffffffffffffffffffffff021916908373ffffffffffffffffffffffffffffffffffffffff1602179055507f21bef455eb0e77b12a579311ca8616d72216c8b628577eeda276ac16fe5b622e3383836040516112e7939291906126da565b60405180910390a150505050505050565b60015481565b60008054906101000a900473ffffffffffffffffffffffffffffffffffffffff1681565b6002600860003373ffffffffffffffffffffffffffffffffffffffff1673ffffffffffffffffffffffffffffffffffffffff16815260200190815260200160002060009054906101000a900460ff1660ff16146113ab576040517fc23cf1f400000000000000000000000000000000000000000000000000000000815260040160405180910390fd5b6000875114806113bc575060008651145b156113f3576040517fbd0febc100000000000000000000000000000000000000000000000000000000815260040160405180910390fd5b6000600560003373ffffffffffffffffffffffffffffffffffffffff1673ffffffffffffffffffffffffffffffffffffffff1681526020019081526020016000209050878160010190816114479190612582565b50868160020190816114599190612582565b508581600401908161146b9190612582565b508481600501908161147d9190612582565b508381600601908161148f9190612582565b50828160070190805190602001906114a89291906117e1565b508181600b01819055505050505050505050565b60086020528060005260406000206000915054906101000a900460ff1681565b6002600860003373ffffffffffffffffffffffffffffffffffffffff1673ffffffffffffffffffffffffffffffffffffffff16815260200190815260200160002060009054906101000a900460ff1660ff1614611565576040517fc23cf1f400000000000000000000000000000000000000000000000000000000815260040160405180910390fd5b6000600560003373ffffffffffffffffffffffffffffffffffffffff1673ffffffffffffffffffffffffffffffffffffffff168152602001908152602001600020905060008160030154116115ef576040517f08c379a00000000000000000000000000000000000000000000000000000000081526004016115e690612764565b60405180910390fd5b60006064605f83600301546116049190612784565b61160e91906127f5565b90506000826003018190555060003373ffffffffffffffffffffffffffffffffffffffff168260405161164090612857565b60006040518083038185875af1925050503d806000811461167d576040519150601f19603f3d011682016040523d82523d6000602084013e611682565b606091505b50509050806116c6576040517f08c379a00000000000000000000000000000000000000000000000000000000081526004016116bd906128b8565b60405180910390fd5b7f09ad672d4e7c4892da934d1051932ebe9ec4b6ec8c3f40d569176db3e93e5abe33836040516116f79291906128d8565b60405180910390a1505050565b6009818154811061171457600080fd5b906000526020600020016000915054906101000a900473ffffffffffffffffffffffffffffffffffffffff1681565b6007602052816000526040600020602052806000526040600020600091509150505481565b604051806101800160405280600073ffffffffffffffffffffffffffffffffffffffff168152602001606081526020016060815260200160008152602001606081526020016060815260200160608152602001606081526020016000815260200160001515815260200160008152602001600081525090565b828054828255906000526020600020908101928215611829579160200282015b828111156118285782518290816118189190612582565b5091602001919060010190611801565b5b509050611836919061183a565b5090565b5b8082111561185a5760008181611851919061185e565b5060010161183b565b5090565b50805461186a9061232e565b6000825580601f1061187c575061189b565b601f01602090049060005260206000209081019061189a919061189e565b5b50565b5b808211156118b757600081600090555060010161189f565b5090565b6000604051905090565b600080fd5b600080fd5b600073ffffffffffffffffffffffffffffffffffffffff82169050919050565b60006118fa826118cf565b9050919050565b61190a816118ef565b811461191557600080fd5b50565b60008135905061192781611901565b92915050565b600060208284031215611943576119426118c5565b5b600061195184828501611918565b91505092915050565b611963816118ef565b82525050565b600081519050919050565b600082825260208201905092915050565b60005b838110156119a3578082015181840152602081019050611988565b60008484015250505050565b6000601f19601f8301169050919050565b60006119cb82611969565b6119d58185611974565b93506119e5818560208601611985565b6119ee816119af565b840191505092915050565b6000819050919050565b611a0c816119f9565b82525050565b60008115159050919050565b611a2781611a12565b82525050565b600061010082019050611a43600083018b61195a565b8181036020830152611a55818a6119c0565b90508181036040830152611a6981896119c0565b9050611a786060830188611a03565b8181036080830152611a8a81876119c0565b905081810360a0830152611a9e81866119c0565b9050611aad60c0830185611a1e565b611aba60e0830184611a03565b9998505050505050505050565b6000602082019050611adc6000830184611a03565b92915050565b611aeb816119f9565b8114611af657600080fd5b50565b600081359050611b0881611ae2565b92915050565b600060208284031215611b2457611b236118c5565b5b6000611b3284828501611af9565b91505092915050565b600060ff82169050919050565b611b5181611b3b565b82525050565b600060e082019050611b6c600083018a611b48565b611b79602083018961195a565b8181036040830152611b8b81886119c0565b90508181036060830152611b9f81876119c0565b9050611bae6080830186611a03565b611bbb60a0830185611a1e565b611bc860c083018461195a565b98975050505050505050565b6000602082019050611be96000830184611b48565b92915050565b611bf8816118ef565b82525050565b600082825260208201905092915050565b6000611c1a82611969565b611c248185611bfe565b9350611c34818560208601611985565b611c3d816119af565b840191505092915050565b611c51816119f9565b82525050565b600081519050919050565b600082825260208201905092915050565b6000819050602082019050919050565b6000611c8f8383611c0f565b905092915050565b6000602082019050919050565b6000611caf82611c57565b611cb98185611c62565b935083602082028501611ccb85611c73565b8060005b85811015611d075784840389528151611ce88582611c83565b9450611cf383611c97565b925060208a01995050600181019050611ccf565b50829750879550505050505092915050565b611d2281611a12565b82525050565b600061018083016000830151611d416000860182611bef565b5060208301518482036020860152611d598282611c0f565b91505060408301518482036040860152611d738282611c0f565b9150506060830151611d886060860182611c48565b5060808301518482036080860152611da08282611c0f565b91505060a083015184820360a0860152611dba8282611c0f565b91505060c083015184820360c0860152611dd48282611c0f565b91505060e083015184820360e0860152611dee8282611ca4565b915050610100830151611e05610100860182611c48565b50610120830151611e1a610120860182611d19565b50610140830151611e2f610140860182611c48565b50610160830151611e44610160860182611c48565b508091505092915050565b60006020820190508181036000830152611e698184611d28565b905092915050565b600061016082019050611e87600083018e61195a565b8181036020830152611e99818d6119c0565b90508181036040830152611ead818c6119c0565b9050611ebc606083018b611a03565b8181036080830152611ece818a6119c0565b905081810360a0830152611ee281896119c0565b905081810360c0830152611ef681886119c0565b9050611f0560e0830187611a03565b611f13610100830186611a1e565b611f21610120830185611a03565b611f2f610140830184611a03565b9c9b505050505050505050505050565b600080fd5b600080fd5b7f4e487b7100000000000000000000000000000000000000000000000000000000600052604160045260246000fd5b611f81826119af565b810181811067ffffffffffffffff82111715611fa057611f9f611f49565b5b80604052505050565b6000611fb36118bb565b9050611fbf8282611f78565b919050565b600067ffffffffffffffff821115611fdf57611fde611f49565b5b611fe8826119af565b9050602081019050919050565b82818337600083830152505050565b600061201761201284611fc4565b611fa9565b90508281526020810184848401111561203357612032611f44565b5b61203e848285611ff5565b509392505050565b600082601f83011261205b5761205a611f3f565b5b813561206b848260208601612004565b91505092915050565b600067ffffffffffffffff82111561208f5761208e611f49565b5b602082029050602081019050919050565b600080fd5b60006120b86120b384612074565b611fa9565b905080838252602082019050602084028301858111156120db576120da6120a0565b5b835b8181101561212257803567ffffffffffffffff811115612100576120ff611f3f565b5b80860161210d8982612046565b855260208501945050506020810190506120dd565b5050509392505050565b600082601f83011261214157612140611f3f565b5b81356121518482602086016120a5565b91505092915050565b600080600080600080600060e0888a031215612179576121786118c5565b5b600088013567ffffffffffffffff811115612197576121966118ca565b5b6121a38a828b01612046565b975050602088013567ffffffffffffffff8111156121c4576121c36118ca565b5b6121d08a828b01612046565b965050604088013567ffffffffffffffff8111156121f1576121f06118ca565b5b6121fd8a828b01612046565b955050606088013567ffffffffffffffff81111561221e5761221d6118ca565b5b61222a8a828b01612046565b945050608088013567ffffffffffffffff81111561224b5761224a6118ca565b5b6122578a828b01612046565b93505060a088013567ffffffffffffffff811115612278576122776118ca565b5b6122848a828b0161212c565b92505060c06122958a828b01611af9565b91505092959891949750929550565b60006020820190506122b9600083018461195a565b92915050565b600080604083850312156122d6576122d56118c5565b5b60006122e485828601611918565b92505060206122f585828601611af9565b9150509250929050565b7f4e487b7100000000000000000000000000000000000000000000000000000000600052602260045260246000fd5b6000600282049050600182168061234657607f821691505b602082108103612359576123586122ff565b5b50919050565b7f4e487b7100000000000000000000000000000000000000000000000000000000600052601160045260246000fd5b6000612399826119f9565b91507fffffffffffffffffffffffffffffffffffffffffffffffffffffffffffffffff82036123cb576123ca61235f565b5b600182019050919050565b60008190508160005260206000209050919050565b60006020601f8301049050919050565b600082821b905092915050565b6000600883026124387fffffffffffffffffffffffffffffffffffffffffffffffffffffffffffffffff826123fb565b61244286836123fb565b95508019841693508086168417925050509392505050565b6000819050919050565b600061247f61247a612475846119f9565b61245a565b6119f9565b9050919050565b6000819050919050565b61249983612464565b6124ad6124a582612486565b848454612408565b825550505050565b600090565b6124c26124b5565b6124cd818484612490565b505050565b5b818110156124f1576124e66000826124ba565b6001810190506124d3565b5050565b601f82111561253657612507816123d6565b612510846123eb565b8101602085101561251f578190505b61253361252b856123eb565b8301826124d2565b50505b505050565b600082821c905092915050565b60006125596000198460080261253b565b1980831691505092915050565b60006125728383612548565b9150826002028217905092915050565b61258b82611969565b67ffffffffffffffff8111156125a4576125a3611f49565b5b6125ae825461232e565b6125b98282856124f5565b600060209050601f8311600181146125ec57600084156125da578287015190505b6125e48582612566565b86555061264c565b601f1984166125fa866123d6565b60005b82811015612622578489015182556001820191506020850194506020810190506125fd565b8683101561263f578489015161263b601f891682612548565b8355505b6001600288020188555050505b505050505050565b600082825260208201905092915050565b600061267082611c57565b61267a8185612654565b93508360208202850161268c85611c73565b8060005b858110156126c857848403895281516126a98582611c83565b94506126b483611c97565b925060208a01995050600181019050612690565b50829750879550505050505092915050565b60006060820190506126ef600083018661195a565b81810360208301526127018185612665565b90506127106040830184611a03565b949350505050565b7f4e42570000000000000000000000000000000000000000000000000000000000600082015250565b600061274e600383611974565b915061275982612718565b602082019050919050565b6000602082019050818103600083015261277d81612741565b9050919050565b600061278f826119f9565b915061279a836119f9565b92508282026127a8816119f9565b915082820484148315176127bf576127be61235f565b5b5092915050565b7f4e487b7100000000000000000000000000000000000000000000000000000000600052601260045260246000fd5b6000612800826119f9565b915061280b836119f9565b92508261281b5761281a6127c6565b5b828204905092915050565b600081905092915050565b50565b6000612841600083612826565b915061284c82612831565b600082019050919050565b600061286282612834565b9150819050919050565b7f5446000000000000000000000000000000000000000000000000000000000000600082015250565b60006128a2600283611974565b91506128ad8261286c565b602082019050919050565b600060208201905081810360008301526128d181612895565b9050919050565b60006040820190506128ed600083018561195a565b6128fa6020830184611a03565b939250505056fea26469706673582212209caad536a062669c17bc099c9432021144a6c3d2fdb430fd3b4e000757c8ff6d64736f6c63430008180033",
  "linkReferences": {},
  "deployedLinkReferences": {}
}