{
  "_format": "hh-sol-artifact-1",
  "contractName": "Proxy",
  "sourceName": "contracts/Proxy.sol",
  "abi": [
    {
      "inputs": [
        {
          "internalType": "address",
          "name": "_implementation",
          "type": "address"
        },
        {
          "internalType": "bytes",
          "name": "_initData",
          "type": "bytes"
        }
      ],
      "stateMutability": "nonpayable",
      "type": "constructor"
    },
    {
      "stateMutability": "payable",
      "type": "fallback"
    },
    {
      "inputs": [],
      "name": "implementation",
      "outputs": [
        {
          "internalType": "address",
          "name": "",
          "type": "address"
        }
      ],
      "stateMutability": "view",
      "type": "function"
    },
    {
      "stateMutability": "payable",
      "type": "receive"
    }
  ],
  "bytecode": "0x608060405234801561001057600080fd5b506040516104e73803806104e7833981810160405281019061003291906102c8565b816000806101000a81548173ffffffffffffffffffffffffffffffffffffffff021916908373ffffffffffffffffffffffffffffffffffffffff1602179055506000808373ffffffffffffffffffffffffffffffffffffffff168360405161009a919061036b565b600060405180830381855af49150503d80600081146100d5576040519150601f19603f3d011682016040523d82523d6000602084013e6100da565b606091505b5091509150816100ec57805160208201fd5b50505050610382565b6000604051905090565b600080fd5b600080fd5b600073ffffffffffffffffffffffffffffffffffffffff82169050919050565b600061013482610109565b9050919050565b61014481610129565b811461014f57600080fd5b50565b6000815190506101618161013b565b92915050565b600080fd5b600080fd5b6000601f19601f8301169050919050565b7f4e487b7100000000000000000000000000000000000000000000000000000000600052604160045260246000fd5b6101ba82610171565b810181811067ffffffffffffffff821117156101d9576101d8610182565b5b80604052505050565b60006101ec6100f5565b90506101f882826101b1565b919050565b600067ffffffffffffffff82111561021857610217610182565b5b61022182610171565b9050602081019050919050565b60005b8381101561024c578082015181840152602081019050610231565b60008484015250505050565b600061026b610266846101fd565b6101e2565b9050828152602081018484840111156102875761028661016c565b5b61029284828561022e565b509392505050565b600082601f8301126102af576102ae610167565b5b81516102bf848260208601610258565b91505092915050565b600080604083850312156102df576102de6100ff565b5b60006102ed85828601610152565b925050602083015167ffffffffffffffff81111561030e5761030d610104565b5b61031a8582860161029a565b9150509250929050565b600081519050919050565b600081905092915050565b600061034582610324565b61034f818561032f565b935061035f81856020860161022e565b80840191505092915050565b6000610377828461033a565b915081905092915050565b610156806103916000396000f3fe6080604052600436106100225760003560e01c80635c60da1b1461007557610029565b3661002957005b60008060009054906101000a900473ffffffffffffffffffffffffffffffffffffffff1690503660008037600080366000845af43d6000803e8060008114610070573d6000f35b3d6000fd5b34801561008157600080fd5b5061008a6100a0565b6040516100979190610105565b60405180910390f35b60008054906101000a900473ffffffffffffffffffffffffffffffffffffffff1681565b600073ffffffffffffffffffffffffffffffffffffffff82169050919050565b60006100ef826100c4565b9050919050565b6100ff816100e4565b82525050565b600060208201905061011a60008301846100f6565b9291505056fea2646970667358221220018ad16f8e07c657d223793f4a1a64e49041468e565e793e23638ca2b611837264736f6c63430008180033",
  "linkReferences": {},
  "deployedLinkReferences": {}
}