{
  "_format": "hh-sol-artifact-1",
  "contractName": "JobLogic",
  "sourceName": "contracts/JobLogic.sol",
  "abi": [
    {
      "inputs": [],
      "name": "YHA",
      "type": "error"
    },
    {
      "anonymous": false,
      "inputs": [
        {
          "indexed": false,
          "internalType": "uint256",
          "name": "jobId",
          "type": "uint256"
        },
        {
          "indexed": false,
          "internalType": "address",
          "name": "employer",
          "type": "address"
        },
        {
          "indexed": false,
          "internalType": "address",
          "name": "freelancer",
          "type": "address"
        }
      ],
      "name": "AppliedForJob",
      "type": "event"
    },
    {
      "anonymous": false,
      "inputs": [
        {
          "indexed": false,
          "internalType": "uint256",
          "name": "jobId",
          "type": "uint256"
        },
        {
          "indexed": false,
          "internalType": "address",
          "name": "freelancer",
          "type": "address"
        },
        {
          "indexed": false,
          "internalType": "uint256",
          "name": "payment",
          "type": "uint256"
        }
      ],
      "name": "JobCompleted",
      "type": "event"
    },
    {
      "inputs": [
        {
          "internalType": "uint256",
          "name": "",
          "type": "uint256"
        }
      ],
      "name": "allFreelancerAddresses",
      "outputs": [
        {
          "internalType": "address",
          "name": "",
          "type": "address"
        }
      ],
      "stateMutability": "view",
      "type": "function"
    },
    {
      "inputs": [],
      "name": "allJobs",
      "outputs": [
        {
          "components": [
            {
              "internalType": "uint8",
              "name": "id",
              "type": "uint8"
            },
            {
              "internalType": "address",
              "name": "employer",
              "type": "address"
            },
            {
              "internalType": "string",
              "name": "title",
              "type": "string"
            },
            {
              "internalType": "string",
              "name": "description",
              "type": "string"
            },
            {
              "internalType": "uint256",
              "name": "budget",
              "type": "uint256"
            },
            {
              "internalType": "bool",
              "name": "completed",
              "type": "bool"
            },
            {
              "internalType": "address[]",
              "name": "applicants",
              "type": "address[]"
            },
            {
              "internalType": "address",
              "name": "hiredFreelancer",
              "type": "address"
            }
          ],
          "internalType": "struct Storage.Job[]",
          "name": "",
          "type": "tuple[]"
        }
      ],
      "stateMutability": "view",
      "type": "function"
    },
    {
      "inputs": [
        {
          "internalType": "uint256",
          "name": "jobId",
          "type": "uint256"
        }
      ],
      "name": "applyForJob",
      "outputs": [],
      "stateMutability": "nonpayable",
      "type": "function"
    },
    {
      "inputs": [
        {
          "internalType": "uint256",
          "name": "jobId",
          "type": "uint256"
        },
        {
          "internalType": "address",
          "name": "freelancerAddress",
          "type": "address"
        }
      ],
      "name": "completeJob",
      "outputs": [],
      "stateMutability": "nonpayable",
      "type": "function"
    },
    {
      "inputs": [
        {
          "internalType": "address",
          "name": "",
          "type": "address"
        }
      ],
      "name": "employers",
      "outputs": [
        {
          "internalType": "address",
          "name": "employerAddress",
          "type": "address"
        },
        {
          "internalType": "string",
          "name": "name",
          "type": "string"
        },
        {
          "internalType": "string",
          "name": "industry",
          "type": "string"
        },
        {
          "internalType": "uint256",
          "name": "balance",
          "type": "uint256"
        },
        {
          "internalType": "string",
          "name": "country",
          "type": "string"
        },
        {
          "internalType": "string",
          "name": "image",
          "type": "string"
        },
        {
          "internalType": "bool",
          "name": "registered",
          "type": "bool"
        },
        {
          "internalType": "uint256",
          "name": "registration_date",
          "type": "uint256"
        }
      ],
      "stateMutability": "view",
      "type": "function"
    },
    {
      "inputs": [
        {
          "internalType": "address",
          "name": "",
          "type": "address"
        },
        {
          "internalType": "uint256",
          "name": "",
          "type": "uint256"
        }
      ],
      "name": "escrowFunds",
      "outputs": [
        {
          "internalType": "uint256",
          "name": "",
          "type": "uint256"
        }
      ],
      "stateMutability": "view",
      "type": "function"
    },
    {
      "inputs": [
        {
          "internalType": "address",
          "name": "",
          "type": "address"
        }
      ],
      "name": "freelancers",
      "outputs": [
        {
          "internalType": "address",
          "name": "freelancerAddress",
          "type": "address"
        },
        {
          "internalType": "string",
          "name": "name",
          "type": "string"
        },
        {
          "internalType": "string",
          "name": "skills",
          "type": "string"
        },
        {
          "internalType": "uint256",
          "name": "balance",
          "type": "uint256"
        },
        {
          "internalType": "string",
          "name": "country",
          "type": "string"
        },
        {
          "internalType": "string",
          "name": "gigTitle",
          "type": "string"
        },
        {
          "internalType": "string",
          "name": "gitDescription",
          "type": "string"
        },
        {
          "internalType": "uint256",
          "name": "jobsCompleted",
          "type": "uint256"
        },
        {
          "internalType": "bool",
          "name": "registered",
          "type": "bool"
        },
        {
          "internalType": "uint256",
          "name": "registration_date",
          "type": "uint256"
        },
        {
          "internalType": "uint256",
          "name": "starting_price",
          "type": "uint256"
        }
      ],
      "stateMutability": "view",
      "type": "function"
    },
    {
      "inputs": [
        {
          "internalType": "uint256",
          "name": "jobId",
          "type": "uint256"
        }
      ],
      "name": "getJobByID",
      "outputs": [
        {
          "components": [
            {
              "internalType": "uint8",
              "name": "id",
              "type": "uint8"
            },
            {
              "internalType": "address",
              "name": "employer",
              "type": "address"
            },
            {
              "internalType": "string",
              "name": "title",
              "type": "string"
            },
            {
              "internalType": "string",
              "name": "description",
              "type": "string"
            },
            {
              "internalType": "uint256",
              "name": "budget",
              "type": "uint256"
            },
            {
              "internalType": "bool",
              "name": "completed",
              "type": "bool"
            },
            {
              "internalType": "address[]",
              "name": "applicants",
              "type": "address[]"
            },
            {
              "internalType": "address",
              "name": "hiredFreelancer",
              "type": "address"
            }
          ],
          "internalType": "struct Storage.Job",
          "name": "",
          "type": "tuple"
        }
      ],
      "stateMutability": "view",
      "type": "function"
    },
    {
      "inputs": [
        {
          "internalType": "uint256",
          "name": "jobId",
          "type": "uint256"
        },
        {
          "internalType": "address",
          "name": "freelancerAddress",
          "type": "address"
        }
      ],
      "name": "hireFreelancer",
      "outputs": [],
      "stateMutability": "nonpayable",
      "type": "function"
    },
    {
      "inputs": [
        {
          "internalType": "uint256",
          "name": "",
          "type": "uint256"
        }
      ],
      "name": "jobs",
      "outputs": [
        {
          "internalType": "uint8",
          "name": "id",
          "type": "uint8"
        },
        {
          "internalType": "address",
          "name": "employer",
          "type": "address"
        },
        {
          "internalType": "string",
          "name": "title",
          "type": "string"
        },
        {
          "internalType": "string",
          "name": "description",
          "type": "string"
        },
        {
          "internalType": "uint256",
          "name": "budget",
          "type": "uint256"
        },
        {
          "internalType": "bool",
          "name": "completed",
          "type": "bool"
        },
        {
          "internalType": "address",
          "name": "hiredFreelancer",
          "type": "address"
        }
      ],
      "stateMutability": "view",
      "type": "function"
    },
    {
      "inputs": [],
      "name": "owner",
      "outputs": [
        {
          "internalType": "address",
          "name": "",
          "type": "address"
        }
      ],
      "stateMutability": "view",
      "type": "function"
    },
    {
      "inputs": [
        {
          "internalType": "address",
          "name": "",
          "type": "address"
        }
      ],
      "name": "roles",
      "outputs": [
        {
          "internalType": "uint8",
          "name": "",
          "type": "uint8"
        }
      ],
      "stateMutability": "view",
      "type": "function"
    },
    {
      "inputs": [],
      "name": "totalCompletedJobs",
      "outputs": [
        {
          "internalType": "uint256",
          "name": "",
          "type": "uint256"
        }
      ],
      "stateMutability": "view",
      "type": "function"
    },
    {
      "inputs": [],
      "name": "totalEmployers",
      "outputs": [
        {
          "internalType": "uint256",
          "name": "",
          "type": "uint256"
        }
      ],
      "stateMutability": "view",
      "type": "function"
    },
    {
      "inputs": [],
      "name": "totalFreelancers",
      "outputs": [
        {
          "internalType": "uint256",
          "name": "",
          "type": "uint256"
        }
      ],
      "stateMutability": "view",
      "type": "function"
    },
    {
      "inputs": [],
      "name": "totalJobs",
      "outputs": [
        {
          "internalType": "uint8",
          "name": "",
          "type": "uint8"
        }
      ],
      "stateMutability": "view",
      "type": "function"
    }
  ],
  "bytecode": "0x608060405234801561001057600080fd5b506125c9806100206000396000f3fe608060405234801561001057600080fd5b50600436106101005760003560e01c80636a6b67d111610097578063c27a9dd411610066578063c27a9dd4146102da578063c8d1b6aa1461030a578063e0c94ae514610328578063fcafae111461034457610100565b80636a6b67d1146102545780638da5cb5b14610270578063993746421461028e578063b0f26f18146102be57610100565b80631ace87b3116100d35780631ace87b3146101ae57806321bd6693146101cc578063371ae9f4146102065780635e586eb11461023657610100565b80630be435bd146101055780631033397b1461013c578063180aedf31461015a5780631906b4ce14610190575b600080fd5b61011f600480360381019061011a91906119be565b610374565b604051610133989796959493929190611abe565b60405180910390f35b610144610609565b6040516101519190611b58565b60405180910390f35b610174600480360381019061016f9190611b9f565b61060f565b6040516101879796959493929190611be8565b60405180910390f35b6101986107bb565b6040516101a59190611b58565b60405180910390f35b6101b66107c1565b6040516101c39190611c65565b60405180910390f35b6101e660048036038101906101e191906119be565b6107d4565b6040516101fd9b9a99989796959493929190611c80565b60405180910390f35b610220600480360381019061021b9190611b9f565b610b03565b60405161022d9190611f41565b60405180910390f35b61023e610e32565b60405161024b9190611b58565b60405180910390f35b61026e60048036038101906102699190611f63565b610e38565b005b610278611026565b6040516102859190611fa3565b60405180910390f35b6102a860048036038101906102a391906119be565b61104a565b6040516102b59190611c65565b60405180910390f35b6102d860048036038101906102d39190611f63565b61106a565b005b6102f460048036038101906102ef9190611b9f565b611206565b6040516103019190611fa3565b60405180910390f35b610312611245565b60405161031f919061213e565b60405180910390f35b610342600480360381019061033d9190611b9f565b6115cb565b005b61035e60048036038101906103599190612160565b611863565b60405161036b9190611b58565b60405180910390f35b60066020528060005260406000206000915090508060000160009054906101000a900473ffffffffffffffffffffffffffffffffffffffff16908060010180546103bd906121cf565b80601f01602080910402602001604051908101604052809291908181526020018280546103e9906121cf565b80156104365780601f1061040b57610100808354040283529160200191610436565b820191906000526020600020905b81548152906001019060200180831161041957829003601f168201915b50505050509080600201805461044b906121cf565b80601f0160208091040260200160405190810160405280929190818152602001828054610477906121cf565b80156104c45780601f10610499576101008083540402835291602001916104c4565b820191906000526020600020905b8154815290600101906020018083116104a757829003601f168201915b5050505050908060030154908060040180546104df906121cf565b80601f016020809104026020016040519081016040528092919081815260200182805461050b906121cf565b80156105585780601f1061052d57610100808354040283529160200191610558565b820191906000526020600020905b81548152906001019060200180831161053b57829003601f168201915b50505050509080600501805461056d906121cf565b80601f0160208091040260200160405190810160405280929190818152602001828054610599906121cf565b80156105e65780601f106105bb576101008083540402835291602001916105e6565b820191906000526020600020905b8154815290600101906020018083116105c957829003601f168201915b5050505050908060060160009054906101000a900460ff16908060070154905088565b60035481565b60046020528060005260406000206000915090508060000160009054906101000a900460ff16908060000160019054906101000a900473ffffffffffffffffffffffffffffffffffffffff169080600101805461066b906121cf565b80601f0160208091040260200160405190810160405280929190818152602001828054610697906121cf565b80156106e45780601f106106b9576101008083540402835291602001916106e4565b820191906000526020600020905b8154815290600101906020018083116106c757829003601f168201915b5050505050908060020180546106f9906121cf565b80601f0160208091040260200160405190810160405280929190818152602001828054610725906121cf565b80156107725780601f1061074757610100808354040283529160200191610772565b820191906000526020600020905b81548152906001019060200180831161075557829003601f168201915b5050505050908060030154908060040160009054906101000a900460ff16908060060160009054906101000a900473ffffffffffffffffffffffffffffffffffffffff16905087565b60025481565b600060149054906101000a900460ff1681565b60056020528060005260406000206000915090508060000160009054906101000a900473ffffffffffffffffffffffffffffffffffffffff169080600101805461081d906121cf565b80601f0160208091040260200160405190810160405280929190818152602001828054610849906121cf565b80156108965780601f1061086b57610100808354040283529160200191610896565b820191906000526020600020905b81548152906001019060200180831161087957829003601f168201915b5050505050908060020180546108ab906121cf565b80601f01602080910402602001604051908101604052809291908181526020018280546108d7906121cf565b80156109245780601f106108f957610100808354040283529160200191610924565b820191906000526020600020905b81548152906001019060200180831161090757829003601f168201915b50505050509080600301549080600401805461093f906121cf565b80601f016020809104026020016040519081016040528092919081815260200182805461096b906121cf565b80156109b85780601f1061098d576101008083540402835291602001916109b8565b820191906000526020600020905b81548152906001019060200180831161099b57829003601f168201915b5050505050908060050180546109cd906121cf565b80601f01602080910402602001604051908101604052809291908181526020018280546109f9906121cf565b8015610a465780601f10610a1b57610100808354040283529160200191610a46565b820191906000526020600020905b815481529060010190602001808311610a2957829003601f168201915b505050505090806006018054610a5b906121cf565b80601f0160208091040260200160405190810160405280929190818152602001828054610a87906121cf565b8015610ad45780601f10610aa957610100808354040283529160200191610ad4565b820191906000526020600020905b815481529060010190602001808311610ab757829003601f168201915b5050505050908060080154908060090160009054906101000a900460ff169080600a01549080600b015490508b565b610b0b6118e5565b600082118015610b2d5750600060149054906101000a900460ff1660ff168211155b610b6c576040517f08c379a0000000000000000000000000000000000000000000000000000000008152600401610b639061224c565b60405180910390fd5b60046000838152602001908152602001600020604051806101000160405290816000820160009054906101000a900460ff1660ff1660ff1681526020016000820160019054906101000a900473ffffffffffffffffffffffffffffffffffffffff1673ffffffffffffffffffffffffffffffffffffffff1673ffffffffffffffffffffffffffffffffffffffff168152602001600182018054610c0e906121cf565b80601f0160208091040260200160405190810160405280929190818152602001828054610c3a906121cf565b8015610c875780601f10610c5c57610100808354040283529160200191610c87565b820191906000526020600020905b815481529060010190602001808311610c6a57829003601f168201915b50505050508152602001600282018054610ca0906121cf565b80601f0160208091040260200160405190810160405280929190818152602001828054610ccc906121cf565b8015610d195780601f10610cee57610100808354040283529160200191610d19565b820191906000526020600020905b815481529060010190602001808311610cfc57829003601f168201915b50505050508152602001600382015481526020016004820160009054906101000a900460ff1615151515815260200160058201805480602002602001604051908101604052809291908181526020018280548015610dcc57602002820191906000526020600020905b8160009054906101000a900473ffffffffffffffffffffffffffffffffffffffff1673ffffffffffffffffffffffffffffffffffffffff1681526020019060010190808311610d82575b505050505081526020016006820160009054906101000a900473ffffffffffffffffffffffffffffffffffffffff1673ffffffffffffffffffffffffffffffffffffffff1673ffffffffffffffffffffffffffffffffffffffff16815250509050919050565b60015481565b600082118015610e5a5750600060149054906101000a900460ff1660ff168211155b610e99576040517f08c379a0000000000000000000000000000000000000000000000000000000008152600401610e909061224c565b60405180910390fd5b60006004600084815260200190815260200160002090503373ffffffffffffffffffffffffffffffffffffffff168160000160019054906101000a900473ffffffffffffffffffffffffffffffffffffffff1673ffffffffffffffffffffffffffffffffffffffff1614610f0c57600080fd5b610f168183611888565b610f55576040517f08c379a0000000000000000000000000000000000000000000000000000000008152600401610f4c906122b8565b60405180910390fd5b60018160040160006101000a81548160ff02191690831515021790555060036000815480929190610f8590612307565b9190505550600560008373ffffffffffffffffffffffffffffffffffffffff1673ffffffffffffffffffffffffffffffffffffffff1681526020019081526020016000206008016000815480929190610fdd90612307565b91905055507f4dbba472101e9f148a3a5ecbe793f0ee16a7efe4bf3f8cbfab5330e1642ef955838383600301546040516110199392919061234f565b60405180910390a1505050565b60008054906101000a900473ffffffffffffffffffffffffffffffffffffffff1681565b60086020528060005260406000206000915054906101000a900460ff1681565b60008211801561108c5750600060149054906101000a900460ff1660ff168211155b6110cb576040517f08c379a00000000000000000000000000000000000000000000000000000000081526004016110c29061224c565b60405180910390fd5b60006004600084815260200190815260200160002090503373ffffffffffffffffffffffffffffffffffffffff168160000160019054906101000a900473ffffffffffffffffffffffffffffffffffffffff1673ffffffffffffffffffffffffffffffffffffffff1614611174576040517f08c379a000000000000000000000000000000000000000000000000000000000815260040161116b906123d2565b60405180910390fd5b61117e8183611888565b156111be576040517f08c379a00000000000000000000000000000000000000000000000000000000081526004016111b59061243e565b60405180910390fd5b818160060160006101000a81548173ffffffffffffffffffffffffffffffffffffffff021916908373ffffffffffffffffffffffffffffffffffffffff160217905550505050565b6009818154811061121657600080fd5b906000526020600020016000915054906101000a900473ffffffffffffffffffffffffffffffffffffffff1681565b606060008060149054906101000a900460ff1660ff1667ffffffffffffffff8111156112745761127361245e565b5b6040519080825280602002602001820160405280156112ad57816020015b61129a6118e5565b8152602001906001900390816112925790505b50905060005b600060149054906101000a900460ff1660ff168110156115c357600460006001836112de919061248d565b8152602001908152602001600020604051806101000160405290816000820160009054906101000a900460ff1660ff1660ff1681526020016000820160019054906101000a900473ffffffffffffffffffffffffffffffffffffffff1673ffffffffffffffffffffffffffffffffffffffff1673ffffffffffffffffffffffffffffffffffffffff16815260200160018201805461137b906121cf565b80601f01602080910402602001604051908101604052809291908181526020018280546113a7906121cf565b80156113f45780601f106113c9576101008083540402835291602001916113f4565b820191906000526020600020905b8154815290600101906020018083116113d757829003601f168201915b5050505050815260200160028201805461140d906121cf565b80601f0160208091040260200160405190810160405280929190818152602001828054611439906121cf565b80156114865780601f1061145b57610100808354040283529160200191611486565b820191906000526020600020905b81548152906001019060200180831161146957829003601f168201915b50505050508152602001600382015481526020016004820160009054906101000a900460ff161515151581526020016005820180548060200260200160405190810160405280929190818152602001828054801561153957602002820191906000526020600020905b8160009054906101000a900473ffffffffffffffffffffffffffffffffffffffff1673ffffffffffffffffffffffffffffffffffffffff16815260200190600101908083116114ef575b505050505081526020016006820160009054906101000a900473ffffffffffffffffffffffffffffffffffffffff1673ffffffffffffffffffffffffffffffffffffffff1673ffffffffffffffffffffffffffffffffffffffff16815250508282815181106115ab576115aa6124c1565b5b602002602001018190525080806001019150506112b3565b508091505090565b6000811180156115ed5750600060149054906101000a900460ff1660ff168111155b61162c576040517f08c379a00000000000000000000000000000000000000000000000000000000081526004016116239061224c565b60405180910390fd5b6000600460008381526020019081526020016000209050600073ffffffffffffffffffffffffffffffffffffffff168160000160019054906101000a900473ffffffffffffffffffffffffffffffffffffffff1673ffffffffffffffffffffffffffffffffffffffff16036116d6576040517f08c379a00000000000000000000000000000000000000000000000000000000081526004016116cd9061253c565b60405180910390fd5b60005b816005018054905081101561179a573373ffffffffffffffffffffffffffffffffffffffff16826005018281548110611715576117146124c1565b5b9060005260206000200160009054906101000a900473ffffffffffffffffffffffffffffffffffffffff1673ffffffffffffffffffffffffffffffffffffffff160361178d576040517f5e4abc8c00000000000000000000000000000000000000000000000000000000815260040160405180910390fd5b80806001019150506116d9565b5080600501339080600181540180825580915050600190039060005260206000200160009091909190916101000a81548173ffffffffffffffffffffffffffffffffffffffff021916908373ffffffffffffffffffffffffffffffffffffffff1602179055507f2b443803772f6da2db17c7357119f932841870fdf0a3a5d8ca9d2e112bb13326828260000160019054906101000a900473ffffffffffffffffffffffffffffffffffffffff16336040516118579392919061255c565b60405180910390a15050565b6007602052816000526040600020602052806000526040600020600091509150505481565b60008173ffffffffffffffffffffffffffffffffffffffff168360060160009054906101000a900473ffffffffffffffffffffffffffffffffffffffff1673ffffffffffffffffffffffffffffffffffffffff1614905092915050565b604051806101000160405280600060ff168152602001600073ffffffffffffffffffffffffffffffffffffffff16815260200160608152602001606081526020016000815260200160001515815260200160608152602001600073ffffffffffffffffffffffffffffffffffffffff1681525090565b600080fd5b600073ffffffffffffffffffffffffffffffffffffffff82169050919050565b600061198b82611960565b9050919050565b61199b81611980565b81146119a657600080fd5b50565b6000813590506119b881611992565b92915050565b6000602082840312156119d4576119d361195b565b5b60006119e2848285016119a9565b91505092915050565b6119f481611980565b82525050565b600081519050919050565b600082825260208201905092915050565b60005b83811015611a34578082015181840152602081019050611a19565b60008484015250505050565b6000601f19601f8301169050919050565b6000611a5c826119fa565b611a668185611a05565b9350611a76818560208601611a16565b611a7f81611a40565b840191505092915050565b6000819050919050565b611a9d81611a8a565b82525050565b60008115159050919050565b611ab881611aa3565b82525050565b600061010082019050611ad4600083018b6119eb565b8181036020830152611ae6818a611a51565b90508181036040830152611afa8189611a51565b9050611b096060830188611a94565b8181036080830152611b1b8187611a51565b905081810360a0830152611b2f8186611a51565b9050611b3e60c0830185611aaf565b611b4b60e0830184611a94565b9998505050505050505050565b6000602082019050611b6d6000830184611a94565b92915050565b611b7c81611a8a565b8114611b8757600080fd5b50565b600081359050611b9981611b73565b92915050565b600060208284031215611bb557611bb461195b565b5b6000611bc384828501611b8a565b91505092915050565b600060ff82169050919050565b611be281611bcc565b82525050565b600060e082019050611bfd600083018a611bd9565b611c0a60208301896119eb565b8181036040830152611c1c8188611a51565b90508181036060830152611c308187611a51565b9050611c3f6080830186611a94565b611c4c60a0830185611aaf565b611c5960c08301846119eb565b98975050505050505050565b6000602082019050611c7a6000830184611bd9565b92915050565b600061016082019050611c96600083018e6119eb565b8181036020830152611ca8818d611a51565b90508181036040830152611cbc818c611a51565b9050611ccb606083018b611a94565b8181036080830152611cdd818a611a51565b905081810360a0830152611cf18189611a51565b905081810360c0830152611d058188611a51565b9050611d1460e0830187611a94565b611d22610100830186611aaf565b611d30610120830185611a94565b611d3e610140830184611a94565b9c9b505050505050505050505050565b611d5781611bcc565b82525050565b611d6681611980565b82525050565b600082825260208201905092915050565b6000611d88826119fa565b611d928185611d6c565b9350611da2818560208601611a16565b611dab81611a40565b840191505092915050565b611dbf81611a8a565b82525050565b611dce81611aa3565b82525050565b600081519050919050565b600082825260208201905092915050565b6000819050602082019050919050565b6000611e0c8383611d5d565b60208301905092915050565b6000602082019050919050565b6000611e3082611dd4565b611e3a8185611ddf565b9350611e4583611df0565b8060005b83811015611e76578151611e5d8882611e00565b9750611e6883611e18565b925050600181019050611e49565b5085935050505092915050565b600061010083016000830151611e9c6000860182611d4e565b506020830151611eaf6020860182611d5d565b5060408301518482036040860152611ec78282611d7d565b91505060608301518482036060860152611ee18282611d7d565b9150506080830151611ef66080860182611db6565b5060a0830151611f0960a0860182611dc5565b5060c083015184820360c0860152611f218282611e25565b91505060e0830151611f3660e0860182611d5d565b508091505092915050565b60006020820190508181036000830152611f5b8184611e83565b905092915050565b60008060408385031215611f7a57611f7961195b565b5b6000611f8885828601611b8a565b9250506020611f99858286016119a9565b9150509250929050565b6000602082019050611fb860008301846119eb565b92915050565b600081519050919050565b600082825260208201905092915050565b6000819050602082019050919050565b6000610100830160008301516120036000860182611d4e565b5060208301516120166020860182611d5d565b506040830151848203604086015261202e8282611d7d565b915050606083015184820360608601526120488282611d7d565b915050608083015161205d6080860182611db6565b5060a083015161207060a0860182611dc5565b5060c083015184820360c08601526120888282611e25565b91505060e083015161209d60e0860182611d5d565b508091505092915050565b60006120b48383611fea565b905092915050565b6000602082019050919050565b60006120d482611fbe565b6120de8185611fc9565b9350836020820285016120f085611fda565b8060005b8581101561212c578484038952815161210d85826120a8565b9450612118836120bc565b925060208a019950506001810190506120f4565b50829750879550505050505092915050565b6000602082019050818103600083015261215881846120c9565b905092915050565b600080604083850312156121775761217661195b565b5b6000612185858286016119a9565b925050602061219685828601611b8a565b9150509250929050565b7f4e487b7100000000000000000000000000000000000000000000000000000000600052602260045260246000fd5b600060028204905060018216806121e757607f821691505b6020821081036121fa576121f96121a0565b5b50919050565b7f4a44450000000000000000000000000000000000000000000000000000000000600082015250565b6000612236600383611a05565b915061224182612200565b602082019050919050565b6000602082019050818103600083015261226581612229565b9050919050565b7f464e480000000000000000000000000000000000000000000000000000000000600082015250565b60006122a2600383611a05565b91506122ad8261226c565b602082019050919050565b600060208201905081810360008301526122d181612295565b9050919050565b7f4e487b7100000000000000000000000000000000000000000000000000000000600052601160045260246000fd5b600061231282611a8a565b91507fffffffffffffffffffffffffffffffffffffffffffffffffffffffffffffffff8203612344576123436122d8565b5b600182019050919050565b60006060820190506123646000830186611a94565b61237160208301856119eb565b61237e6040830184611a94565b949350505050565b7f5752000000000000000000000000000000000000000000000000000000000000600082015250565b60006123bc600283611a05565b91506123c782612386565b602082019050919050565b600060208201905081810360008301526123eb816123af565b9050919050565b7f4641480000000000000000000000000000000000000000000000000000000000600082015250565b6000612428600383611a05565b9150612433826123f2565b602082019050919050565b600060208201905081810360008301526124578161241b565b9050919050565b7f4e487b7100000000000000000000000000000000000000000000000000000000600052604160045260246000fd5b600061249882611a8a565b91506124a383611a8a565b92508282019050808211156124bb576124ba6122d8565b5b92915050565b7f4e487b7100000000000000000000000000000000000000000000000000000000600052603260045260246000fd5b7f4a4e460000000000000000000000000000000000000000000000000000000000600082015250565b6000612526600383611a05565b9150612531826124f0565b602082019050919050565b6000602082019050818103600083015261255581612519565b9050919050565b60006060820190506125716000830186611a94565b61257e60208301856119eb565b61258b60408301846119eb565b94935050505056fea2646970667358221220f485809696afdcc88082d4ac7b3e9de1429d56e5799c0c63b167da8a2d95c37f64736f6c63430008180033",
  "linkReferences": {},
  "deployedLinkReferences": {}
}