{"contracts/Dfreelancer.sol":{"Dfreelancer":{"abi":[{"inputs":[],"name":"AR_E","type":"error"},{"inputs":[],"name":"AR_F","type":"error"},{"inputs":[],"name":"II_E","type":"error"},{"inputs":[],"name":"II_F","type":"error"},{"inputs":[],"name":"InvalidInitialization","type":"error"},{"inputs":[],"name":"NotInitializing","type":"error"},{"inputs":[],"name":"WR_E","type":"error"},{"inputs":[],"name":"WR_F","type":"error"},{"inputs":[],"name":"YHA","type":"error"},{"anonymous":false,"inputs":[{"indexed":false,"internalType":"uint256","name":"jobId","type":"uint256"},{"indexed":false,"internalType":"address","name":"employer","type":"address"},{"indexed":false,"internalType":"address","name":"freelancer","type":"address"}],"name":"AppliedForJob","type":"event"},{"anonymous":false,"inputs":[{"indexed":false,"internalType":"address","name":"employerAddress","type":"address"},{"indexed":false,"internalType":"string","name":"name","type":"string"}],"name":"EmployerRegistered","type":"event"},{"anonymous":false,"inputs":[{"indexed":false,"internalType":"address","name":"freelancerAddress","type":"address"},{"indexed":false,"internalType":"string[]","name":"images","type":"string[]"},{"indexed":false,"internalType":"uint256","name":"amount","type":"uint256"}],"name":"FreelancerRegistered","type":"event"},{"anonymous":false,"inputs":[{"indexed":false,"internalType":"uint256","name":"jobId","type":"uint256"},{"indexed":false,"internalType":"address","name":"sender","type":"address"},{"indexed":false,"internalType":"uint256","name":"amount","type":"uint256"}],"name":"FundsDeposited","type":"event"},{"anonymous":false,"inputs":[{"indexed":false,"internalType":"uint256","name":"jobId","type":"uint256"},{"indexed":false,"internalType":"address","name":"freelancerAddress","type":"address"},{"indexed":false,"internalType":"uint256","name":"amount","type":"uint256"}],"name":"FundsReleased","type":"event"},{"anonymous":false,"inputs":[{"indexed":false,"internalType":"uint64","name":"version","type":"uint64"}],"name":"Initialized","type":"event"},{"anonymous":false,"inputs":[{"indexed":false,"internalType":"uint256","name":"jobId","type":"uint256"},{"indexed":false,"internalType":"address","name":"freelancer","type":"address"},{"indexed":false,"internalType":"uint256","name":"payment","type":"uint256"}],"name":"JobCompleted","type":"event"},{"anonymous":false,"inputs":[{"indexed":false,"internalType":"uint256","name":"jobId","type":"uint256"},{"indexed":false,"internalType":"string","name":"title","type":"string"}],"name":"JobCreated","type":"event"},{"anonymous":false,"inputs":[{"indexed":false,"internalType":"address","name":"freelancer","type":"address"},{"indexed":false,"internalType":"uint256","name":"amount","type":"uint256"}],"name":"WithdrawFund","type":"event"},{"inputs":[{"internalType":"uint256","name":"","type":"uint256"}],"name":"allFreelancerAddresses","outputs":[{"internalType":"address","name":"","type":"address"}],"stateMutability":"view","type":"function"},{"inputs":[],"name":"allJobs","outputs":[{"components":[{"internalType":"uint8","name":"id","type":"uint8"},{"internalType":"address","name":"employer","type":"address"},{"internalType":"string","name":"title","type":"string"},{"internalType":"string","name":"description","type":"string"},{"internalType":"uint256","name":"budget","type":"uint256"},{"internalType":"bool","name":"completed","type":"bool"},{"internalType":"address[]","name":"applicants","type":"address[]"},{"internalType":"address","name":"hiredFreelancer","type":"address"}],"internalType":"struct Storage.Job[]","name":"","type":"tuple[]"}],"stateMutability":"view","type":"function"},{"inputs":[{"internalType":"uint256","name":"jobId","type":"uint256"}],"name":"applyForJob","outputs":[],"stateMutability":"nonpayable","type":"function"},{"inputs":[{"internalType":"uint256","name":"jobId","type":"uint256"},{"internalType":"address","name":"freelancerAddress","type":"address"}],"name":"completeJob","outputs":[],"stateMutability":"nonpayable","type":"function"},{"inputs":[{"internalType":"string","name":"_title","type":"string"},{"internalType":"string","name":"_description","type":"string"},{"internalType":"uint256","name":"_budget","type":"uint256"}],"name":"createJob","outputs":[],"stateMutability":"nonpayable","type":"function"},{"inputs":[{"internalType":"uint256","name":"jobId","type":"uint256"}],"name":"depositFunds","outputs":[],"stateMutability":"payable","type":"function"},{"inputs":[{"internalType":"string","name":"_name","type":"string"},{"internalType":"string","name":"_industry","type":"string"},{"internalType":"string","name":"_country","type":"string"},{"internalType":"string","name":"_imageURI","type":"string"}],"name":"editEmployerProfile","outputs":[],"stateMutability":"nonpayable","type":"function"},{"inputs":[{"internalType":"string","name":"_name","type":"string"},{"internalType":"string","name":"_skills","type":"string"},{"internalType":"string","name":"_country","type":"string"},{"internalType":"string","name":"_gigTitle","type":"string"},{"internalType":"string","name":"_gigDesc","type":"string"},{"internalType":"string[]","name":"_images","type":"string[]"},{"internalType":"uint256","name":"_starting_price","type":"uint256"}],"name":"editFreelancerProfile","outputs":[],"stateMutability":"nonpayable","type":"function"},{"inputs":[{"internalType":"address","name":"","type":"address"}],"name":"employers","outputs":[{"internalType":"address","name":"employerAddress","type":"address"},{"internalType":"string","name":"name","type":"string"},{"internalType":"string","name":"industry","type":"string"},{"internalType":"uint256","name":"balance","type":"uint256"},{"internalType":"string","name":"country","type":"string"},{"internalType":"string","name":"image","type":"string"},{"internalType":"bool","name":"registered","type":"bool"},{"internalType":"uint256","name":"registration_date","type":"uint256"}],"stateMutability":"view","type":"function"},{"inputs":[{"internalType":"address","name":"","type":"address"},{"internalType":"uint256","name":"","type":"uint256"}],"name":"escrowFunds","outputs":[{"internalType":"uint256","name":"","type":"uint256"}],"stateMutability":"view","type":"function"},{"inputs":[{"internalType":"address","name":"","type":"address"}],"name":"freelancers","outputs":[{"internalType":"address","name":"freelancerAddress","type":"address"},{"internalType":"string","name":"name","type":"string"},{"internalType":"string","name":"skills","type":"string"},{"internalType":"uint256","name":"balance","type":"uint256"},{"internalType":"string","name":"country","type":"string"},{"internalType":"string","name":"gigTitle","type":"string"},{"internalType":"string","name":"gitDescription","type":"string"},{"internalType":"uint256","name":"jobsCompleted","type":"uint256"},{"internalType":"bool","name":"registered","type":"bool"},{"internalType":"uint256","name":"registration_date","type":"uint256"},{"internalType":"uint256","name":"starting_price","type":"uint256"}],"stateMutability":"view","type":"function"},{"inputs":[{"internalType":"address","name":"_employer","type":"address"}],"name":"getEmployerByAddress","outputs":[{"components":[{"internalType":"address","name":"employerAddress","type":"address"},{"internalType":"string","name":"name","type":"string"},{"internalType":"string","name":"industry","type":"string"},{"internalType":"uint256","name":"balance","type":"uint256"},{"internalType":"string","name":"country","type":"string"},{"internalType":"string","name":"image","type":"string"},{"internalType":"bool","name":"registered","type":"bool"},{"internalType":"uint256","name":"registration_date","type":"uint256"}],"internalType":"struct Storage.Employer","name":"props","type":"tuple"}],"stateMutability":"view","type":"function"},{"inputs":[{"internalType":"address","name":"_employer","type":"address"},{"internalType":"uint256","name":"_job_id","type":"uint256"}],"name":"getEmployerEscrow","outputs":[{"internalType":"uint256","name":"","type":"uint256"}],"stateMutability":"view","type":"function"},{"inputs":[{"internalType":"address","name":"_freelancer","type":"address"}],"name":"getFreelancerByAddress","outputs":[{"components":[{"internalType":"address","name":"freelancerAddress","type":"address"},{"internalType":"string","name":"name","type":"string"},{"internalType":"string","name":"skills","type":"string"},{"internalType":"uint256","name":"balance","type":"uint256"},{"internalType":"string","name":"country","type":"string"},{"internalType":"string","name":"gigTitle","type":"string"},{"internalType":"string","name":"gitDescription","type":"string"},{"internalType":"string[]","name":"images","type":"string[]"},{"internalType":"uint256","name":"jobsCompleted","type":"uint256"},{"internalType":"bool","name":"registered","type":"bool"},{"internalType":"uint256","name":"registration_date","type":"uint256"},{"internalType":"uint256","name":"starting_price","type":"uint256"}],"internalType":"struct Storage.Freelancer","name":"props","type":"tuple"}],"stateMutability":"view","type":"function"},{"inputs":[{"internalType":"uint256","name":"jobId","type":"uint256"}],"name":"getJobByID","outputs":[{"components":[{"internalType":"uint8","name":"id","type":"uint8"},{"internalType":"address","name":"employer","type":"address"},{"internalType":"string","name":"title","type":"string"},{"internalType":"string","name":"description","type":"string"},{"internalType":"uint256","name":"budget","type":"uint256"},{"internalType":"bool","name":"completed","type":"bool"},{"internalType":"address[]","name":"applicants","type":"address[]"},{"internalType":"address","name":"hiredFreelancer","type":"address"}],"internalType":"struct Storage.Job","name":"","type":"tuple"}],"stateMutability":"view","type":"function"},{"inputs":[{"internalType":"uint256","name":"jobId","type":"uint256"},{"internalType":"address","name":"freelancerAddress","type":"address"}],"name":"hireFreelancer","outputs":[],"stateMutability":"nonpayable","type":"function"},{"inputs":[{"internalType":"address","name":"_owner","type":"address"}],"name":"initialize","outputs":[],"stateMutability":"nonpayable","type":"function"},{"inputs":[{"internalType":"uint256","name":"","type":"uint256"}],"name":"jobs","outputs":[{"internalType":"uint8","name":"id","type":"uint8"},{"internalType":"address","name":"employer","type":"address"},{"internalType":"string","name":"title","type":"string"},{"internalType":"string","name":"description","type":"string"},{"internalType":"uint256","name":"budget","type":"uint256"},{"internalType":"bool","name":"completed","type":"bool"},{"internalType":"address","name":"hiredFreelancer","type":"address"}],"stateMutability":"view","type":"function"},{"inputs":[],"name":"owner","outputs":[{"internalType":"address","name":"","type":"address"}],"stateMutability":"view","type":"function"},{"inputs":[{"internalType":"address","name":"creator","type":"address"},{"internalType":"string","name":"_name","type":"string"},{"internalType":"string","name":"_industry","type":"string"},{"internalType":"string","name":"_country","type":"string"},{"internalType":"string","name":"_imageURI","type":"string"}],"name":"registerEmployer","outputs":[],"stateMutability":"nonpayable","type":"function"},{"inputs":[{"internalType":"address","name":"creator","type":"address"},{"internalType":"string","name":"_name","type":"string"},{"internalType":"string","name":"_skills","type":"string"},{"internalType":"string","name":"_country","type":"string"},{"internalType":"string","name":"_gigTitle","type":"string"},{"internalType":"string","name":"_gigDesc","type":"string"},{"internalType":"string[]","name":"_images","type":"string[]"},{"internalType":"uint256","name":"_starting_price","type":"uint256"}],"name":"registerFreelancer","outputs":[],"stateMutability":"nonpayable","type":"function"},{"inputs":[{"internalType":"uint256","name":"jobId","type":"uint256"},{"internalType":"address","name":"freelancerAddress","type":"address"}],"name":"releaseEscrow","outputs":[],"stateMutability":"nonpayable","type":"function"},{"inputs":[{"internalType":"address","name":"","type":"address"}],"name":"roles","outputs":[{"internalType":"uint8","name":"","type":"uint8"}],"stateMutability":"view","type":"function"},{"inputs":[],"name":"totalCompletedJobs","outputs":[{"internalType":"uint256","name":"","type":"uint256"}],"stateMutability":"view","type":"function"},{"inputs":[],"name":"totalEmployers","outputs":[{"internalType":"uint256","name":"","type":"uint256"}],"stateMutability":"view","type":"function"},{"inputs":[],"name":"totalFreelancers","outputs":[{"internalType":"uint256","name":"","type":"uint256"}],"stateMutability":"view","type":"function"},{"inputs":[],"name":"totalJobs","outputs":[{"internalType":"uint8","name":"","type":"uint8"}],"stateMutability":"view","type":"function"},{"inputs":[{"internalType":"address","name":"","type":"address"}],"name":"walletToUser","outputs":[{"internalType":"address","name":"","type":"address"}],"stateMutability":"view","type":"function"}],"devdoc":{"errors":{"InvalidInitialization()":[{"details":"The contract is already initialized."}],"NotInitializing()":[{"details":"The contract is not initializing."}]},"events":{"Initialized(uint64)":{"details":"Triggered when the contract has been initialized or reinitialized."}},"kind":"dev","methods":{},"version":1},"evm":{"bytecode":{"linkReferences":{},"object":"608060405234801561001057600080fd5b50615f8e80620000216000396000f3fe6080604052600436106101b75760003560e01c80638da5cb5b116100ec578063c6cb3bbe1161008a578063e0c94ae511610064578063e0c94ae51461065e578063eacc35c514610687578063ef8de2d8146106b0578063fcafae11146106ed576101b7565b8063c6cb3bbe146105cd578063c8d1b6aa146105f6578063dfac8ce514610621576101b7565b8063b0f26f18116100c6578063b0f26f1814610515578063c151f3c61461053e578063c27a9dd414610567578063c4d66de8146105a4576101b7565b80638da5cb5b1461048457806391ca1687146104af57806399374642146104d8576101b7565b80632a02c56a116101595780635e586eb1116101335780635e586eb1146103ca5780636a6b67d1146103f557806373a06f421461041e5780637a78712514610447576101b7565b80632a02c56a14610348578063371ae9f4146103715780633b76594d146103ae576101b7565b80631906b4ce116101955780631906b4ce1461026e5780631ace87b3146102995780631c7af7a0146102c457806321bd669314610301576101b7565b80630be435bd146101bc5780631033397b14610200578063180aedf31461022b575b600080fd5b3480156101c857600080fd5b506101e360048036038101906101de91906143d2565b61072a565b6040516101f79897969594939291906144d2565b60405180910390f35b34801561020c57600080fd5b506102156109bf565b604051610222919061456c565b60405180910390f35b34801561023757600080fd5b50610252600480360381019061024d91906145b3565b6109c5565b60405161026597969594939291906145fc565b60405180910390f35b34801561027a57600080fd5b50610283610b71565b604051610290919061456c565b60405180910390f35b3480156102a557600080fd5b506102ae610b77565b6040516102bb9190614679565b60405180910390f35b3480156102d057600080fd5b506102eb60048036038101906102e691906143d2565b610b8a565b6040516102f891906148f4565b60405180910390f35b34801561030d57600080fd5b50610328600480360381019061032391906143d2565b611030565b60405161033f9b9a99989796959493929190614916565b60405180910390f35b34801561035457600080fd5b5061036f600480360381019061036a9190614b19565b61135f565b005b34801561037d57600080fd5b50610398600480360381019061039391906145b3565b6115ea565b6040516103a59190614d6c565b60405180910390f35b6103c860048036038101906103c391906145b3565b611919565b005b3480156103d657600080fd5b506103df611d36565b6040516103ec919061456c565b60405180910390f35b34801561040157600080fd5b5061041c60048036038101906104179190614d8e565b611d3c565b005b34801561042a57600080fd5b5061044560048036038101906104409190614dce565b611f8f565b005b34801561045357600080fd5b5061046e600480360381019061046991906143d2565b6123bb565b60405161047b9190614f1e565b60405180910390f35b34801561049057600080fd5b506104996126e2565b6040516104a69190614f40565b60405180910390f35b3480156104bb57600080fd5b506104d660048036038101906104d19190615041565b612706565b005b3480156104e457600080fd5b506104ff60048036038101906104fa91906143d2565b6129c8565b60405161050c9190614679565b60405180910390f35b34801561052157600080fd5b5061053c60048036038101906105379190614d8e565b6129e8565b005b34801561054a57600080fd5b506105656004803603810190610560919061518b565b612be9565b005b34801561057357600080fd5b5061058e600480360381019061058991906145b3565b612ff2565b60405161059b9190614f40565b60405180910390f35b3480156105b057600080fd5b506105cb60048036038101906105c691906143d2565b613031565b005b3480156105d957600080fd5b506105f460048036038101906105ef9190614d8e565b6131f7565b005b34801561060257600080fd5b5061060b613699565b6040516106189190615469565b60405180910390f35b34801561062d57600080fd5b506106486004803603810190610643919061548b565b613a1f565b604051610655919061456c565b60405180910390f35b34801561066a57600080fd5b50610685600480360381019061068091906145b3565b613a7a565b005b34801561069357600080fd5b506106ae60048036038101906106a991906154cb565b613c7f565b005b3480156106bc57600080fd5b506106d760048036038101906106d291906143d2565b613fbc565b6040516106e49190614f40565b60405180910390f35b3480156106f957600080fd5b50610714600480360381019061070f919061548b565b613fef565b604051610721919061456c565b60405180910390f35b60066020528060005260406000206000915090508060000160009054906101000a900473ffffffffffffffffffffffffffffffffffffffff1690806001018054610773906155e5565b80601f016020809104026020016040519081016040528092919081815260200182805461079f906155e5565b80156107ec5780601f106107c1576101008083540402835291602001916107ec565b820191906000526020600020905b8154815290600101906020018083116107cf57829003601f168201915b505050505090806002018054610801906155e5565b80601f016020809104026020016040519081016040528092919081815260200182805461082d906155e5565b801561087a5780601f1061084f5761010080835404028352916020019161087a565b820191906000526020600020905b81548152906001019060200180831161085d57829003601f168201915b505050505090806003015490806004018054610895906155e5565b80601f01602080910402602001604051908101604052809291908181526020018280546108c1906155e5565b801561090e5780601f106108e35761010080835404028352916020019161090e565b820191906000526020600020905b8154815290600101906020018083116108f157829003601f168201915b505050505090806005018054610923906155e5565b80601f016020809104026020016040519081016040528092919081815260200182805461094f906155e5565b801561099c5780601f106109715761010080835404028352916020019161099c565b820191906000526020600020905b81548152906001019060200180831161097f57829003601f168201915b5050505050908060060160009054906101000a900460ff16908060070154905088565b60035481565b60046020528060005260406000206000915090508060000160009054906101000a900460ff16908060000160019054906101000a900473ffffffffffffffffffffffffffffffffffffffff1690806001018054610a21906155e5565b80601f0160208091040260200160405190810160405280929190818152602001828054610a4d906155e5565b8015610a9a5780601f10610a6f57610100808354040283529160200191610a9a565b820191906000526020600020905b815481529060010190602001808311610a7d57829003601f168201915b505050505090806002018054610aaf906155e5565b80601f0160208091040260200160405190810160405280929190818152602001828054610adb906155e5565b8015610b285780601f10610afd57610100808354040283529160200191610b28565b820191906000526020600020905b815481529060010190602001808311610b0b57829003601f168201915b5050505050908060030154908060040160009054906101000a900460ff16908060060160009054906101000a900473ffffffffffffffffffffffffffffffffffffffff16905087565b60025481565b600060149054906101000a900460ff1681565b610b926140b0565b600560008373ffffffffffffffffffffffffffffffffffffffff1673ffffffffffffffffffffffffffffffffffffffff168152602001908152602001600020604051806101800160405290816000820160009054906101000a900473ffffffffffffffffffffffffffffffffffffffff1673ffffffffffffffffffffffffffffffffffffffff1673ffffffffffffffffffffffffffffffffffffffff168152602001600182018054610c43906155e5565b80601f0160208091040260200160405190810160405280929190818152602001828054610c6f906155e5565b8015610cbc5780601f10610c9157610100808354040283529160200191610cbc565b820191906000526020600020905b815481529060010190602001808311610c9f57829003601f168201915b50505050508152602001600282018054610cd5906155e5565b80601f0160208091040260200160405190810160405280929190818152602001828054610d01906155e5565b8015610d4e5780601f10610d2357610100808354040283529160200191610d4e565b820191906000526020600020905b815481529060010190602001808311610d3157829003601f168201915b5050505050815260200160038201548152602001600482018054610d71906155e5565b80601f0160208091040260200160405190810160405280929190818152602001828054610d9d906155e5565b8015610dea5780601f10610dbf57610100808354040283529160200191610dea565b820191906000526020600020905b815481529060010190602001808311610dcd57829003601f168201915b50505050508152602001600582018054610e03906155e5565b80601f0160208091040260200160405190810160405280929190818152602001828054610e2f906155e5565b8015610e7c5780601f10610e5157610100808354040283529160200191610e7c565b820191906000526020600020905b815481529060010190602001808311610e5f57829003601f168201915b50505050508152602001600682018054610e95906155e5565b80601f0160208091040260200160405190810160405280929190818152602001828054610ec1906155e5565b8015610f0e5780601f10610ee357610100808354040283529160200191610f0e565b820191906000526020600020905b815481529060010190602001808311610ef157829003601f168201915b5050505050815260200160078201805480602002602001604051908101604052809291908181526020016000905b82821015610fe8578382906000526020600020018054610f5b906155e5565b80601f0160208091040260200160405190810160405280929190818152602001828054610f87906155e5565b8015610fd45780601f10610fa957610100808354040283529160200191610fd4565b820191906000526020600020905b815481529060010190602001808311610fb757829003601f168201915b505050505081526020019060010190610f3c565b505050508152602001600882015481526020016009820160009054906101000a900460ff16151515158152602001600a8201548152602001600b820154815250509050919050565b60056020528060005260406000206000915090508060000160009054906101000a900473ffffffffffffffffffffffffffffffffffffffff1690806001018054611079906155e5565b80601f01602080910402602001604051908101604052809291908181526020018280546110a5906155e5565b80156110f25780601f106110c7576101008083540402835291602001916110f2565b820191906000526020600020905b8154815290600101906020018083116110d557829003601f168201915b505050505090806002018054611107906155e5565b80601f0160208091040260200160405190810160405280929190818152602001828054611133906155e5565b80156111805780601f1061115557610100808354040283529160200191611180565b820191906000526020600020905b81548152906001019060200180831161116357829003601f168201915b50505050509080600301549080600401805461119b906155e5565b80601f01602080910402602001604051908101604052809291908181526020018280546111c7906155e5565b80156112145780601f106111e957610100808354040283529160200191611214565b820191906000526020600020905b8154815290600101906020018083116111f757829003601f168201915b505050505090806005018054611229906155e5565b80601f0160208091040260200160405190810160405280929190818152602001828054611255906155e5565b80156112a25780601f10611277576101008083540402835291602001916112a2565b820191906000526020600020905b81548152906001019060200180831161128557829003601f168201915b5050505050908060060180546112b7906155e5565b80601f01602080910402602001604051908101604052809291908181526020018280546112e3906155e5565b80156113305780601f1061130557610100808354040283529160200191611330565b820191906000526020600020905b81548152906001019060200180831161131357829003601f168201915b5050505050908060080154908060090160009054906101000a900460ff169080600a01549080600b015490508b565b6000600a60003373ffffffffffffffffffffffffffffffffffffffff1673ffffffffffffffffffffffffffffffffffffffff16815260200190815260200160002060009054906101000a900473ffffffffffffffffffffffffffffffffffffffff1690506001600860003373ffffffffffffffffffffffffffffffffffffffff1673ffffffffffffffffffffffffffffffffffffffff16815260200190815260200160002060009054906101000a900460ff1660ff161415801561147357506001600860008373ffffffffffffffffffffffffffffffffffffffff1673ffffffffffffffffffffffffffffffffffffffff16815260200190815260200160002060009054906101000a900460ff1660ff1614155b156114aa576040517fa9d6d02a00000000000000000000000000000000000000000000000000000000815260040160405180910390fd5b6000855114806114bb575060008451145b156114f2576040517f3b1bc5cc00000000000000000000000000000000000000000000000000000000815260040160405180910390fd5b6000600a60003373ffffffffffffffffffffffffffffffffffffffff1673ffffffffffffffffffffffffffffffffffffffff16815260200190815260200160002060009054906101000a900473ffffffffffffffffffffffffffffffffffffffff1690506000600660008373ffffffffffffffffffffffffffffffffffffffff1673ffffffffffffffffffffffffffffffffffffffff1681526020019081526020016000209050868160010190816115aa91906157c2565b50858160020190816115bc91906157c2565b50848160040190816115ce91906157c2565b50838160050190816115e091906157c2565b5050505050505050565b6115f2614129565b6000821180156116145750600060149054906101000a900460ff1660ff168211155b611653576040517f08c379a000000000000000000000000000000000000000000000000000000000815260040161164a906158e0565b60405180910390fd5b60046000838152602001908152602001600020604051806101000160405290816000820160009054906101000a900460ff1660ff1660ff1681526020016000820160019054906101000a900473ffffffffffffffffffffffffffffffffffffffff1673ffffffffffffffffffffffffffffffffffffffff1673ffffffffffffffffffffffffffffffffffffffff1681526020016001820180546116f5906155e5565b80601f0160208091040260200160405190810160405280929190818152602001828054611721906155e5565b801561176e5780601f106117435761010080835404028352916020019161176e565b820191906000526020600020905b81548152906001019060200180831161175157829003601f168201915b50505050508152602001600282018054611787906155e5565b80601f01602080910402602001604051908101604052809291908181526020018280546117b3906155e5565b80156118005780601f106117d557610100808354040283529160200191611800565b820191906000526020600020905b8154815290600101906020018083116117e357829003601f168201915b50505050508152602001600382015481526020016004820160009054906101000a900460ff16151515158152602001600582018054806020026020016040519081016040528092919081815260200182805480156118b357602002820191906000526020600020905b8160009054906101000a900473ffffffffffffffffffffffffffffffffffffffff1673ffffffffffffffffffffffffffffffffffffffff1681526020019060010190808311611869575b505050505081526020016006820160009054906101000a900473ffffffffffffffffffffffffffffffffffffffff1673ffffffffffffffffffffffffffffffffffffffff1673ffffffffffffffffffffffffffffffffffffffff16815250509050919050565b6000600a60003373ffffffffffffffffffffffffffffffffffffffff1673ffffffffffffffffffffffffffffffffffffffff16815260200190815260200160002060009054906101000a900473ffffffffffffffffffffffffffffffffffffffff1690506001600860003373ffffffffffffffffffffffffffffffffffffffff1673ffffffffffffffffffffffffffffffffffffffff16815260200190815260200160002060009054906101000a900460ff1660ff1614158015611a2d57506001600860008373ffffffffffffffffffffffffffffffffffffffff1673ffffffffffffffffffffffffffffffffffffffff16815260200190815260200160002060009054906101000a900460ff1660ff1614155b15611a64576040517fa9d6d02a00000000000000000000000000000000000000000000000000000000815260040160405180910390fd5b600082118015611a865750600060149054906101000a900460ff1660ff168211155b611ac5576040517f08c379a0000000000000000000000000000000000000000000000000000000008152600401611abc9061594c565b60405180910390fd5b6000600a60003373ffffffffffffffffffffffffffffffffffffffff1673ffffffffffffffffffffffffffffffffffffffff16815260200190815260200160002060009054906101000a900473ffffffffffffffffffffffffffffffffffffffff16905060006004600085815260200190815260200160002090508173ffffffffffffffffffffffffffffffffffffffff168160000160019054906101000a900473ffffffffffffffffffffffffffffffffffffffff1673ffffffffffffffffffffffffffffffffffffffff1614611b9c57600080fd5b8060040160009054906101000a900460ff1615611bee576040517f08c379a0000000000000000000000000000000000000000000000000000000008152600401611be5906159b8565b60405180910390fd5b8060030154341015611c35576040517f08c379a0000000000000000000000000000000000000000000000000000000008152600401611c2c90615a24565b60405180910390fd5b34600660008473ffffffffffffffffffffffffffffffffffffffff1673ffffffffffffffffffffffffffffffffffffffff1681526020019081526020016000206003016000828254611c879190615a73565b9250508190555034600760008473ffffffffffffffffffffffffffffffffffffffff1673ffffffffffffffffffffffffffffffffffffffff16815260200190815260200160002060008681526020019081526020016000206000828254611cee9190615a73565b925050819055507fe030e47e27825a2ad1b19e4cf2e70bfbfb3124af275c7727a82b114ba7b29a85843334604051611d2893929190615aa7565b60405180910390a150505050565b60015481565b600082118015611d5e5750600060149054906101000a900460ff1660ff168211155b611d9d576040517f08c379a0000000000000000000000000000000000000000000000000000000008152600401611d94906158e0565b60405180910390fd5b60006004600084815260200190815260200160002090506000600a60003373ffffffffffffffffffffffffffffffffffffffff1673ffffffffffffffffffffffffffffffffffffffff16815260200190815260200160002060009054906101000a900473ffffffffffffffffffffffffffffffffffffffff1690508073ffffffffffffffffffffffffffffffffffffffff168260000160019054906101000a900473ffffffffffffffffffffffffffffffffffffffff1673ffffffffffffffffffffffffffffffffffffffff1614611e7457600080fd5b611e7e8284614014565b611ebd576040517f08c379a0000000000000000000000000000000000000000000000000000000008152600401611eb490615b2a565b60405180910390fd5b60018260040160006101000a81548160ff02191690831515021790555060036000815480929190611eed90615b4a565b9190505550600560008473ffffffffffffffffffffffffffffffffffffffff1673ffffffffffffffffffffffffffffffffffffffff1681526020019081526020016000206008016000815480929190611f4590615b4a565b91905055507f4dbba472101e9f148a3a5ecbe793f0ee16a7efe4bf3f8cbfab5330e1642ef95584848460030154604051611f8193929190615aa7565b60405180910390a150505050565b6000600a60003373ffffffffffffffffffffffffffffffffffffffff1673ffffffffffffffffffffffffffffffffffffffff16815260200190815260200160002060009054906101000a900473ffffffffffffffffffffffffffffffffffffffff1690506001600860003373ffffffffffffffffffffffffffffffffffffffff1673ffffffffffffffffffffffffffffffffffffffff16815260200190815260200160002060009054906101000a900460ff1660ff16141580156120a357506001600860008373ffffffffffffffffffffffffffffffffffffffff1673ffffffffffffffffffffffffffffffffffffffff16815260200190815260200160002060009054906101000a900460ff1660ff1614155b156120da576040517fa9d6d02a00000000000000000000000000000000000000000000000000000000815260040160405180910390fd5b6000601481819054906101000a900460ff16809291906120f990615b92565b91906101000a81548160ff021916908360ff1602179055505060008060149054906101000a900460ff1690506000600a60003373ffffffffffffffffffffffffffffffffffffffff1673ffffffffffffffffffffffffffffffffffffffff16815260200190815260200160002060009054906101000a900473ffffffffffffffffffffffffffffffffffffffff1690506040518061010001604052808360ff1681526020018273ffffffffffffffffffffffffffffffffffffffff168152602001878152602001868152602001858152602001600015158152602001600067ffffffffffffffff8111156121f0576121ef6149ee565b5b60405190808252806020026020018201604052801561221e5781602001602082028036833780820191505090505b508152602001600073ffffffffffffffffffffffffffffffffffffffff16815250600460008460ff16815260200190815260200160002060008201518160000160006101000a81548160ff021916908360ff16021790555060208201518160000160016101000a81548173ffffffffffffffffffffffffffffffffffffffff021916908373ffffffffffffffffffffffffffffffffffffffff16021790555060408201518160010190816122d291906157c2565b5060608201518160020190816122e891906157c2565b506080820151816003015560a08201518160040160006101000a81548160ff02191690831515021790555060c082015181600501908051906020019061232f92919061419f565b5060e08201518160060160006101000a81548173ffffffffffffffffffffffffffffffffffffffff021916908373ffffffffffffffffffffffffffffffffffffffff1602179055509050507fb63f0fdfb200b05c8b95fb4dcf8f8abd30f0b6884d532792e705afab4f37380a82876040516123ab929190615bec565b60405180910390a1505050505050565b6123c3614229565b600660008373ffffffffffffffffffffffffffffffffffffffff1673ffffffffffffffffffffffffffffffffffffffff168152602001908152602001600020604051806101000160405290816000820160009054906101000a900473ffffffffffffffffffffffffffffffffffffffff1673ffffffffffffffffffffffffffffffffffffffff1673ffffffffffffffffffffffffffffffffffffffff168152602001600182018054612474906155e5565b80601f01602080910402602001604051908101604052809291908181526020018280546124a0906155e5565b80156124ed5780601f106124c2576101008083540402835291602001916124ed565b820191906000526020600020905b8154815290600101906020018083116124d057829003601f168201915b50505050508152602001600282018054612506906155e5565b80601f0160208091040260200160405190810160405280929190818152602001828054612532906155e5565b801561257f5780601f106125545761010080835404028352916020019161257f565b820191906000526020600020905b81548152906001019060200180831161256257829003601f168201915b50505050508152602001600382015481526020016004820180546125a2906155e5565b80601f01602080910402602001604051908101604052809291908181526020018280546125ce906155e5565b801561261b5780601f106125f05761010080835404028352916020019161261b565b820191906000526020600020905b8154815290600101906020018083116125fe57829003601f168201915b50505050508152602001600582018054612634906155e5565b80601f0160208091040260200160405190810160405280929190818152602001828054612660906155e5565b80156126ad5780601f10612682576101008083540402835291602001916126ad565b820191906000526020600020905b81548152906001019060200180831161269057829003601f168201915b505050505081526020016006820160009054906101000a900460ff161515151581526020016007820154815250509050919050565b60008054906101000a900473ffffffffffffffffffffffffffffffffffffffff1681565b6000600a60003373ffffffffffffffffffffffffffffffffffffffff1673ffffffffffffffffffffffffffffffffffffffff16815260200190815260200160002060009054906101000a900473ffffffffffffffffffffffffffffffffffffffff1690506002600860003373ffffffffffffffffffffffffffffffffffffffff1673ffffffffffffffffffffffffffffffffffffffff16815260200190815260200160002060009054906101000a900460ff1660ff161415801561281a57506002600860008373ffffffffffffffffffffffffffffffffffffffff1673ffffffffffffffffffffffffffffffffffffffff16815260200190815260200160002060009054906101000a900460ff1660ff1614155b15612851576040517fc23cf1f400000000000000000000000000000000000000000000000000000000815260040160405180910390fd5b600088511480612862575060008751145b15612899576040517fbd0febc100000000000000000000000000000000000000000000000000000000815260040160405180910390fd5b6000600a60003373ffffffffffffffffffffffffffffffffffffffff1673ffffffffffffffffffffffffffffffffffffffff16815260200190815260200160002060009054906101000a900473ffffffffffffffffffffffffffffffffffffffff1690506000600560008373ffffffffffffffffffffffffffffffffffffffff1673ffffffffffffffffffffffffffffffffffffffff16815260200190815260200160002090508981600101908161295191906157c2565b508881600201908161296391906157c2565b508781600401908161297591906157c2565b508681600501908161298791906157c2565b508581600601908161299991906157c2565b50848160070190805190602001906129b2929190614286565b508381600b018190555050505050505050505050565b60086020528060005260406000206000915054906101000a900460ff1681565b600082118015612a0a5750600060149054906101000a900460ff1660ff168211155b612a49576040517f08c379a0000000000000000000000000000000000000000000000000000000008152600401612a40906158e0565b60405180910390fd5b60006004600084815260200190815260200160002090506000600a60003373ffffffffffffffffffffffffffffffffffffffff1673ffffffffffffffffffffffffffffffffffffffff16815260200190815260200160002060009054906101000a900473ffffffffffffffffffffffffffffffffffffffff1690508073ffffffffffffffffffffffffffffffffffffffff168260000160019054906101000a900473ffffffffffffffffffffffffffffffffffffffff1673ffffffffffffffffffffffffffffffffffffffff1614612b56576040517f08c379a0000000000000000000000000000000000000000000000000000000008152600401612b4d90615c68565b60405180910390fd5b612b608284614014565b15612ba0576040517f08c379a0000000000000000000000000000000000000000000000000000000008152600401612b9790615cd4565b60405180910390fd5b828260060160006101000a81548173ffffffffffffffffffffffffffffffffffffffff021916908373ffffffffffffffffffffffffffffffffffffffff16021790555050505050565b6000600860003373ffffffffffffffffffffffffffffffffffffffff1673ffffffffffffffffffffffffffffffffffffffff16815260200190815260200160002060009054906101000a900460ff1660ff1614612c72576040517f0af79ad300000000000000000000000000000000000000000000000000000000815260040160405180910390fd5b6000875111612c8057600080fd5b6000865111612c8e57600080fd5b60016000815480929190612ca190615b4a565b91905055506002600860003373ffffffffffffffffffffffffffffffffffffffff1673ffffffffffffffffffffffffffffffffffffffff16815260200190815260200160002060006101000a81548160ff021916908360ff16021790555087600a60003373ffffffffffffffffffffffffffffffffffffffff1673ffffffffffffffffffffffffffffffffffffffff16815260200190815260200160002060006101000a81548173ffffffffffffffffffffffffffffffffffffffff021916908373ffffffffffffffffffffffffffffffffffffffff1602179055506040518061018001604052808973ffffffffffffffffffffffffffffffffffffffff168152602001888152602001878152602001600081526020018681526020018581526020018481526020018381526020016000815260200160011515815260200142815260200182815250600560008a73ffffffffffffffffffffffffffffffffffffffff1673ffffffffffffffffffffffffffffffffffffffff16815260200190815260200160002060008201518160000160006101000a81548173ffffffffffffffffffffffffffffffffffffffff021916908373ffffffffffffffffffffffffffffffffffffffff1602179055506020820151816001019081612e8591906157c2565b506040820151816002019081612e9b91906157c2565b50606082015181600301556080820151816004019081612ebb91906157c2565b5060a0820151816005019081612ed191906157c2565b5060c0820151816006019081612ee791906157c2565b5060e0820151816007019080519060200190612f04929190614286565b5061010082015181600801556101208201518160090160006101000a81548160ff02191690831515021790555061014082015181600a015561016082015181600b01559050506009889080600181540180825580915050600190039060005260206000200160009091909190916101000a81548173ffffffffffffffffffffffffffffffffffffffff021916908373ffffffffffffffffffffffffffffffffffffffff1602179055507f21bef455eb0e77b12a579311ca8616d72216c8b628577eeda276ac16fe5b622e888383604051612fe093929190615d7a565b60405180910390a15050505050505050565b6009818154811061300257600080fd5b906000526020600020016000915054906101000a900473ffffffffffffffffffffffffffffffffffffffff1681565b600061303b614071565b905060008160000160089054906101000a900460ff1615905060008260000160009054906101000a900467ffffffffffffffff1690506000808267ffffffffffffffff161480156130895750825b9050600060018367ffffffffffffffff161480156130be575060003073ffffffffffffffffffffffffffffffffffffffff163b145b9050811580156130cc575080155b15613103576040517ff92ee8a900000000000000000000000000000000000000000000000000000000815260040160405180910390fd5b60018560000160006101000a81548167ffffffffffffffff021916908367ffffffffffffffff16021790555083156131535760018560000160086101000a81548160ff0219169083151502179055505b856000806101000a81548173ffffffffffffffffffffffffffffffffffffffff021916908373ffffffffffffffffffffffffffffffffffffffff16021790555083156131ef5760008560000160086101000a81548160ff0219169083151502179055507fc7f505b2f371ae2175ee4913f4499e1f2633a7b5936321eed1cdaeb6115181d260016040516131e69190615e07565b60405180910390a15b505050505050565b6000600a60003373ffffffffffffffffffffffffffffffffffffffff1673ffffffffffffffffffffffffffffffffffffffff16815260200190815260200160002060009054906101000a900473ffffffffffffffffffffffffffffffffffffffff1690506001600860003373ffffffffffffffffffffffffffffffffffffffff1673ffffffffffffffffffffffffffffffffffffffff16815260200190815260200160002060009054906101000a900460ff1660ff161415801561330b57506001600860008373ffffffffffffffffffffffffffffffffffffffff1673ffffffffffffffffffffffffffffffffffffffff16815260200190815260200160002060009054906101000a900460ff1660ff1614155b15613342576040517fa9d6d02a00000000000000000000000000000000000000000000000000000000815260040160405180910390fd5b6000831180156133645750600060149054906101000a900460ff1660ff168311155b6133a3576040517f08c379a000000000000000000000000000000000000000000000000000000000815260040161339a9061594c565b60405180910390fd5b6000600a60003373ffffffffffffffffffffffffffffffffffffffff1673ffffffffffffffffffffffffffffffffffffffff16815260200190815260200160002060009054906101000a900473ffffffffffffffffffffffffffffffffffffffff16905060006004600086815260200190815260200160002090508060040160009054906101000a900460ff1661346f576040517f08c379a0000000000000000000000000000000000000000000000000000000008152600401613466906159b8565b60405180910390fd5b6000600760008473ffffffffffffffffffffffffffffffffffffffff1673ffffffffffffffffffffffffffffffffffffffff168152602001908152602001600020600087815260200190815260200160002054905060008111613507576040517f08c379a00000000000000000000000000000000000000000000000000000000081526004016134fe90615e6e565b60405180910390fd5b816003015481101561354e576040517f08c379a000000000000000000000000000000000000000000000000000000000815260040161354590615a24565b60405180910390fd5b6000600760008573ffffffffffffffffffffffffffffffffffffffff1673ffffffffffffffffffffffffffffffffffffffff16815260200190815260200160002060008881526020019081526020016000208190555080600560008773ffffffffffffffffffffffffffffffffffffffff1673ffffffffffffffffffffffffffffffffffffffff16815260200190815260200160002060030160008282546135f69190615a73565b9250508190555080600660008573ffffffffffffffffffffffffffffffffffffffff1673ffffffffffffffffffffffffffffffffffffffff168152602001908152602001600020600301600082825461364f9190615e8e565b925050819055507f6e3c6096795c8298a218b2cfb8bde42726ff7c9a3d27b4d3ba41ab7f74feb5fb86868360405161368993929190615aa7565b60405180910390a1505050505050565b606060008060149054906101000a900460ff1660ff1667ffffffffffffffff8111156136c8576136c76149ee565b5b60405190808252806020026020018201604052801561370157816020015b6136ee614129565b8152602001906001900390816136e65790505b50905060005b600060149054906101000a900460ff1660ff16811015613a1757600460006001836137329190615a73565b8152602001908152602001600020604051806101000160405290816000820160009054906101000a900460ff1660ff1660ff1681526020016000820160019054906101000a900473ffffffffffffffffffffffffffffffffffffffff1673ffffffffffffffffffffffffffffffffffffffff1673ffffffffffffffffffffffffffffffffffffffff1681526020016001820180546137cf906155e5565b80601f01602080910402602001604051908101604052809291908181526020018280546137fb906155e5565b80156138485780601f1061381d57610100808354040283529160200191613848565b820191906000526020600020905b81548152906001019060200180831161382b57829003601f168201915b50505050508152602001600282018054613861906155e5565b80601f016020809104026020016040519081016040528092919081815260200182805461388d906155e5565b80156138da5780601f106138af576101008083540402835291602001916138da565b820191906000526020600020905b8154815290600101906020018083116138bd57829003601f168201915b50505050508152602001600382015481526020016004820160009054906101000a900460ff161515151581526020016005820180548060200260200160405190810160405280929190818152602001828054801561398d57602002820191906000526020600020905b8160009054906101000a900473ffffffffffffffffffffffffffffffffffffffff1673ffffffffffffffffffffffffffffffffffffffff1681526020019060010190808311613943575b505050505081526020016006820160009054906101000a900473ffffffffffffffffffffffffffffffffffffffff1673ffffffffffffffffffffffffffffffffffffffff1673ffffffffffffffffffffffffffffffffffffffff16815250508282815181106139ff576139fe615ec2565b5b60200260200101819052508080600101915050613707565b508091505090565b6000600760008473ffffffffffffffffffffffffffffffffffffffff1673ffffffffffffffffffffffffffffffffffffffff168152602001908152602001600020600083815260200190815260200160002054905092915050565b600081118015613a9c5750600060149054906101000a900460ff1660ff168111155b613adb576040517f08c379a0000000000000000000000000000000000000000000000000000000008152600401613ad2906158e0565b60405180910390fd5b600060046000838152602001908152602001600020905060005b8160050180549050811015613bb6573373ffffffffffffffffffffffffffffffffffffffff16826005018281548110613b3157613b30615ec2565b5b9060005260206000200160009054906101000a900473ffffffffffffffffffffffffffffffffffffffff1673ffffffffffffffffffffffffffffffffffffffff1603613ba9576040517f5e4abc8c00000000000000000000000000000000000000000000000000000000815260040160405180910390fd5b8080600101915050613af5565b5080600501339080600181540180825580915050600190039060005260206000200160009091909190916101000a81548173ffffffffffffffffffffffffffffffffffffffff021916908373ffffffffffffffffffffffffffffffffffffffff1602179055507f2b443803772f6da2db17c7357119f932841870fdf0a3a5d8ca9d2e112bb13326828260000160019054906101000a900473ffffffffffffffffffffffffffffffffffffffff1633604051613c7393929190615ef1565b60405180910390a15050565b6000600860003373ffffffffffffffffffffffffffffffffffffffff1673ffffffffffffffffffffffffffffffffffffffff16815260200190815260200160002060009054906101000a900460ff1660ff1614613d08576040517f3ec7876100000000000000000000000000000000000000000000000000000000815260040160405180910390fd5b6000845111613d1657600080fd5b6000835111613d2457600080fd5b60026000815480929190613d3790615b4a565b91905055506001600860003373ffffffffffffffffffffffffffffffffffffffff1673ffffffffffffffffffffffffffffffffffffffff16815260200190815260200160002060006101000a81548160ff021916908360ff16021790555084600a60003373ffffffffffffffffffffffffffffffffffffffff1673ffffffffffffffffffffffffffffffffffffffff16815260200190815260200160002060006101000a81548173ffffffffffffffffffffffffffffffffffffffff021916908373ffffffffffffffffffffffffffffffffffffffff1602179055506040518061010001604052808673ffffffffffffffffffffffffffffffffffffffff1681526020018581526020018481526020016000815260200183815260200182815260200160011515815260200142815250600660008773ffffffffffffffffffffffffffffffffffffffff1673ffffffffffffffffffffffffffffffffffffffff16815260200190815260200160002060008201518160000160006101000a81548173ffffffffffffffffffffffffffffffffffffffff021916908373ffffffffffffffffffffffffffffffffffffffff1602179055506020820151816001019081613f0291906157c2565b506040820151816002019081613f1891906157c2565b50606082015181600301556080820151816004019081613f3891906157c2565b5060a0820151816005019081613f4e91906157c2565b5060c08201518160060160006101000a81548160ff02191690831515021790555060e082015181600701559050507f6c0e8aabac6898602e5264c9a24b2394d9895a70bd2f4c44c8ca0fcfcec6477f8585604051613fad929190615f28565b60405180910390a15050505050565b600a6020528060005260406000206000915054906101000a900473ffffffffffffffffffffffffffffffffffffffff1681565b6007602052816000526040600020602052806000526040600020600091509150505481565b60008173ffffffffffffffffffffffffffffffffffffffff168360060160009054906101000a900473ffffffffffffffffffffffffffffffffffffffff1673ffffffffffffffffffffffffffffffffffffffff1614905092915050565b60008061407c614085565b90508091505090565b60007ff0c57e16840df040f15088dc2f81fe391c3923bec73e23a9662efc9c229c6a0060001b905090565b604051806101800160405280600073ffffffffffffffffffffffffffffffffffffffff168152602001606081526020016060815260200160008152602001606081526020016060815260200160608152602001606081526020016000815260200160001515815260200160008152602001600081525090565b604051806101000160405280600060ff168152602001600073ffffffffffffffffffffffffffffffffffffffff16815260200160608152602001606081526020016000815260200160001515815260200160608152602001600073ffffffffffffffffffffffffffffffffffffffff1681525090565b828054828255906000526020600020908101928215614218579160200282015b828111156142175782518260006101000a81548173ffffffffffffffffffffffffffffffffffffffff021916908373ffffffffffffffffffffffffffffffffffffffff160217905550916020019190600101906141bf565b5b50905061422591906142df565b5090565b604051806101000160405280600073ffffffffffffffffffffffffffffffffffffffff1681526020016060815260200160608152602001600081526020016060815260200160608152602001600015158152602001600081525090565b8280548282559060005260206000209081019282156142ce579160200282015b828111156142cd5782518290816142bd91906157c2565b50916020019190600101906142a6565b5b5090506142db91906142fc565b5090565b5b808211156142f85760008160009055506001016142e0565b5090565b5b8082111561431c57600081816143139190614320565b506001016142fd565b5090565b50805461432c906155e5565b6000825580601f1061433e575061435d565b601f01602090049060005260206000209081019061435c91906142df565b5b50565b6000604051905090565b600080fd5b600080fd5b600073ffffffffffffffffffffffffffffffffffffffff82169050919050565b600061439f82614374565b9050919050565b6143af81614394565b81146143ba57600080fd5b50565b6000813590506143cc816143a6565b92915050565b6000602082840312156143e8576143e761436a565b5b60006143f6848285016143bd565b91505092915050565b61440881614394565b82525050565b600081519050919050565b600082825260208201905092915050565b60005b8381101561444857808201518184015260208101905061442d565b60008484015250505050565b6000601f19601f8301169050919050565b60006144708261440e565b61447a8185614419565b935061448a81856020860161442a565b61449381614454565b840191505092915050565b6000819050919050565b6144b18161449e565b82525050565b60008115159050919050565b6144cc816144b7565b82525050565b6000610100820190506144e8600083018b6143ff565b81810360208301526144fa818a614465565b9050818103604083015261450e8189614465565b905061451d60608301886144a8565b818103608083015261452f8187614465565b905081810360a08301526145438186614465565b905061455260c08301856144c3565b61455f60e08301846144a8565b9998505050505050505050565b600060208201905061458160008301846144a8565b92915050565b6145908161449e565b811461459b57600080fd5b50565b6000813590506145ad81614587565b92915050565b6000602082840312156145c9576145c861436a565b5b60006145d78482850161459e565b91505092915050565b600060ff82169050919050565b6145f6816145e0565b82525050565b600060e082019050614611600083018a6145ed565b61461e60208301896143ff565b81810360408301526146308188614465565b905081810360608301526146448187614465565b905061465360808301866144a8565b61466060a08301856144c3565b61466d60c08301846143ff565b98975050505050505050565b600060208201905061468e60008301846145ed565b92915050565b61469d81614394565b82525050565b600082825260208201905092915050565b60006146bf8261440e565b6146c981856146a3565b93506146d981856020860161442a565b6146e281614454565b840191505092915050565b6146f68161449e565b82525050565b600081519050919050565b600082825260208201905092915050565b6000819050602082019050919050565b600061473483836146b4565b905092915050565b6000602082019050919050565b6000614754826146fc565b61475e8185614707565b93508360208202850161477085614718565b8060005b858110156147ac578484038952815161478d8582614728565b94506147988361473c565b925060208a01995050600181019050614774565b50829750879550505050505092915050565b6147c7816144b7565b82525050565b6000610180830160008301516147e66000860182614694565b50602083015184820360208601526147fe82826146b4565b9150506040830151848203604086015261481882826146b4565b915050606083015161482d60608601826146ed565b506080830151848203608086015261484582826146b4565b91505060a083015184820360a086015261485f82826146b4565b91505060c083015184820360c086015261487982826146b4565b91505060e083015184820360e08601526148938282614749565b9150506101008301516148aa6101008601826146ed565b506101208301516148bf6101208601826147be565b506101408301516148d46101408601826146ed565b506101608301516148e96101608601826146ed565b508091505092915050565b6000602082019050818103600083015261490e81846147cd565b905092915050565b60006101608201905061492c600083018e6143ff565b818103602083015261493e818d614465565b90508181036040830152614952818c614465565b9050614961606083018b6144a8565b8181036080830152614973818a614465565b905081810360a08301526149878189614465565b905081810360c083015261499b8188614465565b90506149aa60e08301876144a8565b6149b86101008301866144c3565b6149c66101208301856144a8565b6149d46101408301846144a8565b9c9b505050505050505050505050565b600080fd5b600080fd5b7f4e487b7100000000000000000000000000000000000000000000000000000000600052604160045260246000fd5b614a2682614454565b810181811067ffffffffffffffff82111715614a4557614a446149ee565b5b80604052505050565b6000614a58614360565b9050614a648282614a1d565b919050565b600067ffffffffffffffff821115614a8457614a836149ee565b5b614a8d82614454565b9050602081019050919050565b82818337600083830152505050565b6000614abc614ab784614a69565b614a4e565b905082815260208101848484011115614ad857614ad76149e9565b5b614ae3848285614a9a565b509392505050565b600082601f830112614b0057614aff6149e4565b5b8135614b10848260208601614aa9565b91505092915050565b60008060008060808587031215614b3357614b3261436a565b5b600085013567ffffffffffffffff811115614b5157614b5061436f565b5b614b5d87828801614aeb565b945050602085013567ffffffffffffffff811115614b7e57614b7d61436f565b5b614b8a87828801614aeb565b935050604085013567ffffffffffffffff811115614bab57614baa61436f565b5b614bb787828801614aeb565b925050606085013567ffffffffffffffff811115614bd857614bd761436f565b5b614be487828801614aeb565b91505092959194509250565b614bf9816145e0565b82525050565b600081519050919050565b600082825260208201905092915050565b6000819050602082019050919050565b6000614c378383614694565b60208301905092915050565b6000602082019050919050565b6000614c5b82614bff565b614c658185614c0a565b9350614c7083614c1b565b8060005b83811015614ca1578151614c888882614c2b565b9750614c9383614c43565b925050600181019050614c74565b5085935050505092915050565b600061010083016000830151614cc76000860182614bf0565b506020830151614cda6020860182614694565b5060408301518482036040860152614cf282826146b4565b91505060608301518482036060860152614d0c82826146b4565b9150506080830151614d2160808601826146ed565b5060a0830151614d3460a08601826147be565b5060c083015184820360c0860152614d4c8282614c50565b91505060e0830151614d6160e0860182614694565b508091505092915050565b60006020820190508181036000830152614d868184614cae565b905092915050565b60008060408385031215614da557614da461436a565b5b6000614db38582860161459e565b9250506020614dc4858286016143bd565b9150509250929050565b600080600060608486031215614de757614de661436a565b5b600084013567ffffffffffffffff811115614e0557614e0461436f565b5b614e1186828701614aeb565b935050602084013567ffffffffffffffff811115614e3257614e3161436f565b5b614e3e86828701614aeb565b9250506040614e4f8682870161459e565b9150509250925092565b600061010083016000830151614e726000860182614694565b5060208301518482036020860152614e8a82826146b4565b91505060408301518482036040860152614ea482826146b4565b9150506060830151614eb960608601826146ed565b5060808301518482036080860152614ed182826146b4565b91505060a083015184820360a0860152614eeb82826146b4565b91505060c0830151614f0060c08601826147be565b5060e0830151614f1360e08601826146ed565b508091505092915050565b60006020820190508181036000830152614f388184614e59565b905092915050565b6000602082019050614f5560008301846143ff565b92915050565b600067ffffffffffffffff821115614f7657614f756149ee565b5b602082029050602081019050919050565b600080fd5b6000614f9f614f9a84614f5b565b614a4e565b90508083825260208201905060208402830185811115614fc257614fc1614f87565b5b835b8181101561500957803567ffffffffffffffff811115614fe757614fe66149e4565b5b808601614ff48982614aeb565b85526020850194505050602081019050614fc4565b5050509392505050565b600082601f830112615028576150276149e4565b5b8135615038848260208601614f8c565b91505092915050565b600080600080600080600060e0888a0312156150605761505f61436a565b5b600088013567ffffffffffffffff81111561507e5761507d61436f565b5b61508a8a828b01614aeb565b975050602088013567ffffffffffffffff8111156150ab576150aa61436f565b5b6150b78a828b01614aeb565b965050604088013567ffffffffffffffff8111156150d8576150d761436f565b5b6150e48a828b01614aeb565b955050606088013567ffffffffffffffff8111156151055761510461436f565b5b6151118a828b01614aeb565b945050608088013567ffffffffffffffff8111156151325761513161436f565b5b61513e8a828b01614aeb565b93505060a088013567ffffffffffffffff81111561515f5761515e61436f565b5b61516b8a828b01615013565b92505060c061517c8a828b0161459e565b91505092959891949750929550565b600080600080600080600080610100898b0312156151ac576151ab61436a565b5b60006151ba8b828c016143bd565b985050602089013567ffffffffffffffff8111156151db576151da61436f565b5b6151e78b828c01614aeb565b975050604089013567ffffffffffffffff8111156152085761520761436f565b5b6152148b828c01614aeb565b965050606089013567ffffffffffffffff8111156152355761523461436f565b5b6152418b828c01614aeb565b955050608089013567ffffffffffffffff8111156152625761526161436f565b5b61526e8b828c01614aeb565b94505060a089013567ffffffffffffffff81111561528f5761528e61436f565b5b61529b8b828c01614aeb565b93505060c089013567ffffffffffffffff8111156152bc576152bb61436f565b5b6152c88b828c01615013565b92505060e06152d98b828c0161459e565b9150509295985092959890939650565b600081519050919050565b600082825260208201905092915050565b6000819050602082019050919050565b60006101008301600083015161532e6000860182614bf0565b5060208301516153416020860182614694565b506040830151848203604086015261535982826146b4565b9150506060830151848203606086015261537382826146b4565b915050608083015161538860808601826146ed565b5060a083015161539b60a08601826147be565b5060c083015184820360c08601526153b38282614c50565b91505060e08301516153c860e0860182614694565b508091505092915050565b60006153df8383615315565b905092915050565b6000602082019050919050565b60006153ff826152e9565b61540981856152f4565b93508360208202850161541b85615305565b8060005b85811015615457578484038952815161543885826153d3565b9450615443836153e7565b925060208a0199505060018101905061541f565b50829750879550505050505092915050565b6000602082019050818103600083015261548381846153f4565b905092915050565b600080604083850312156154a2576154a161436a565b5b60006154b0858286016143bd565b92505060206154c18582860161459e565b9150509250929050565b600080600080600060a086880312156154e7576154e661436a565b5b60006154f5888289016143bd565b955050602086013567ffffffffffffffff8111156155165761551561436f565b5b61552288828901614aeb565b945050604086013567ffffffffffffffff8111156155435761554261436f565b5b61554f88828901614aeb565b935050606086013567ffffffffffffffff8111156155705761556f61436f565b5b61557c88828901614aeb565b925050608086013567ffffffffffffffff81111561559d5761559c61436f565b5b6155a988828901614aeb565b9150509295509295909350565b7f4e487b7100000000000000000000000000000000000000000000000000000000600052602260045260246000fd5b600060028204905060018216806155fd57607f821691505b6020821081036156105761560f6155b6565b5b50919050565b60008190508160005260206000209050919050565b60006020601f8301049050919050565b600082821b905092915050565b6000600883026156787fffffffffffffffffffffffffffffffffffffffffffffffffffffffffffffffff8261563b565b615682868361563b565b95508019841693508086168417925050509392505050565b6000819050919050565b60006156bf6156ba6156b58461449e565b61569a565b61449e565b9050919050565b6000819050919050565b6156d9836156a4565b6156ed6156e5826156c6565b848454615648565b825550505050565b600090565b6157026156f5565b61570d8184846156d0565b505050565b5b81811015615731576157266000826156fa565b600181019050615713565b5050565b601f8211156157765761574781615616565b6157508461562b565b8101602085101561575f578190505b61577361576b8561562b565b830182615712565b50505b505050565b600082821c905092915050565b60006157996000198460080261577b565b1980831691505092915050565b60006157b28383615788565b9150826002028217905092915050565b6157cb8261440e565b67ffffffffffffffff8111156157e4576157e36149ee565b5b6157ee82546155e5565b6157f9828285615735565b600060209050601f83116001811461582c576000841561581a578287015190505b61582485826157a6565b86555061588c565b601f19841661583a86615616565b60005b828110156158625784890151825560018201915060208501945060208101905061583d565b8683101561587f578489015161587b601f891682615788565b8355505b6001600288020188555050505b505050505050565b7f4a44450000000000000000000000000000000000000000000000000000000000600082015250565b60006158ca600383614419565b91506158d582615894565b602082019050919050565b600060208201905081810360008301526158f9816158bd565b9050919050565b7f4a44455f45000000000000000000000000000000000000000000000000000000600082015250565b6000615936600583614419565b915061594182615900565b602082019050919050565b6000602082019050818103600083015261596581615929565b9050919050565b7f4a4e435f45000000000000000000000000000000000000000000000000000000600082015250565b60006159a2600583614419565b91506159ad8261596c565b602082019050919050565b600060208201905081810360008301526159d181615995565b9050919050565b7f4946000000000000000000000000000000000000000000000000000000000000600082015250565b6000615a0e600283614419565b9150615a19826159d8565b602082019050919050565b60006020820190508181036000830152615a3d81615a01565b9050919050565b7f4e487b7100000000000000000000000000000000000000000000000000000000600052601160045260246000fd5b6000615a7e8261449e565b9150615a898361449e565b9250828201905080821115615aa157615aa0615a44565b5b92915050565b6000606082019050615abc60008301866144a8565b615ac960208301856143ff565b615ad660408301846144a8565b949350505050565b7f464e480000000000000000000000000000000000000000000000000000000000600082015250565b6000615b14600383614419565b9150615b1f82615ade565b602082019050919050565b60006020820190508181036000830152615b4381615b07565b9050919050565b6000615b558261449e565b91507fffffffffffffffffffffffffffffffffffffffffffffffffffffffffffffffff8203615b8757615b86615a44565b5b600182019050919050565b6000615b9d826145e0565b915060ff8203615bb057615baf615a44565b5b600182019050919050565b6000615bd6615bd1615bcc846145e0565b61569a565b61449e565b9050919050565b615be681615bbb565b82525050565b6000604082019050615c016000830185615bdd565b8181036020830152615c138184614465565b90509392505050565b7f5752000000000000000000000000000000000000000000000000000000000000600082015250565b6000615c52600283614419565b9150615c5d82615c1c565b602082019050919050565b60006020820190508181036000830152615c8181615c45565b9050919050565b7f4641480000000000000000000000000000000000000000000000000000000000600082015250565b6000615cbe600383614419565b9150615cc982615c88565b602082019050919050565b60006020820190508181036000830152615ced81615cb1565b9050919050565b600082825260208201905092915050565b6000615d10826146fc565b615d1a8185615cf4565b935083602082028501615d2c85614718565b8060005b85811015615d685784840389528151615d498582614728565b9450615d548361473c565b925060208a01995050600181019050615d30565b50829750879550505050505092915050565b6000606082019050615d8f60008301866143ff565b8181036020830152615da18185615d05565b9050615db060408301846144a8565b949350505050565b6000819050919050565b600067ffffffffffffffff82169050919050565b6000615df1615dec615de784615db8565b61569a565b615dc2565b9050919050565b615e0181615dd6565b82525050565b6000602082019050615e1c6000830184615df8565b92915050565b7f4e46455f45000000000000000000000000000000000000000000000000000000600082015250565b6000615e58600583614419565b9150615e6382615e22565b602082019050919050565b60006020820190508181036000830152615e8781615e4b565b9050919050565b6000615e998261449e565b9150615ea48361449e565b9250828203905081811115615ebc57615ebb615a44565b5b92915050565b7f4e487b7100000000000000000000000000000000000000000000000000000000600052603260045260246000fd5b6000606082019050615f0660008301866144a8565b615f1360208301856143ff565b615f2060408301846143ff565b949350505050565b6000604082019050615f3d60008301856143ff565b8181036020830152615f4f8184614465565b9050939250505056fea264697066735822122088452c8cb1c9e3e7ddb7e82d39b1d4dd55b45835250bc5ace2a7df53966b33b664736f6c63430008180033","opcodes":"PUSH1 0x80 PUSH1 0x40 MSTORE CALLVALUE DUP1 ISZERO PUSH2 0x10 JUMPI PUSH1 0x0 DUP1 REVERT JUMPDEST POP PUSH2 0x5F8E DUP1 PUSH3 0x21 PUSH1 0x0 CODECOPY PUSH1 0x0 RETURN INVALID PUSH1 0x80 PUSH1 0x40 MSTORE PUSH1 0x4 CALLDATASIZE LT PUSH2 0x1B7 JUMPI PUSH1 0x0 CALLDATALOAD PUSH1 0xE0 SHR DUP1 PUSH4 0x8DA5CB5B GT PUSH2 0xEC JUMPI DUP1 PUSH4 0xC6CB3BBE GT PUSH2 0x8A JUMPI DUP1 PUSH4 0xE0C94AE5 GT PUSH2 0x64 JUMPI DUP1 PUSH4 0xE0C94AE5 EQ PUSH2 0x65E JUMPI DUP1 PUSH4 0xEACC35C5 EQ PUSH2 0x687 JUMPI DUP1 PUSH4 0xEF8DE2D8 EQ PUSH2 0x6B0 JUMPI DUP1 PUSH4 0xFCAFAE11 EQ PUSH2 0x6ED JUMPI PUSH2 0x1B7 JUMP JUMPDEST DUP1 PUSH4 0xC6CB3BBE EQ PUSH2 0x5CD JUMPI DUP1 PUSH4 0xC8D1B6AA EQ PUSH2 0x5F6 JUMPI DUP1 PUSH4 0xDFAC8CE5 EQ PUSH2 0x621 JUMPI PUSH2 0x1B7 JUMP JUMPDEST DUP1 PUSH4 0xB0F26F18 GT PUSH2 0xC6 JUMPI DUP1 PUSH4 0xB0F26F18 EQ PUSH2 0x515 JUMPI DUP1 PUSH4 0xC151F3C6 EQ PUSH2 0x53E JUMPI DUP1 PUSH4 0xC27A9DD4 EQ PUSH2 0x567 JUMPI DUP1 PUSH4 0xC4D66DE8 EQ PUSH2 0x5A4 JUMPI PUSH2 0x1B7 JUMP JUMPDEST DUP1 PUSH4 0x8DA5CB5B EQ PUSH2 0x484 JUMPI DUP1 PUSH4 0x91CA1687 EQ PUSH2 0x4AF JUMPI DUP1 PUSH4 0x99374642 EQ PUSH2 0x4D8 JUMPI PUSH2 0x1B7 JUMP JUMPDEST DUP1 PUSH4 0x2A02C56A GT PUSH2 0x159 JUMPI DUP1 PUSH4 0x5E586EB1 GT PUSH2 0x133 JUMPI DUP1 PUSH4 0x5E586EB1 EQ PUSH2 0x3CA JUMPI DUP1 PUSH4 0x6A6B67D1 EQ PUSH2 0x3F5 JUMPI DUP1 PUSH4 0x73A06F42 EQ PUSH2 0x41E JUMPI DUP1 PUSH4 0x7A787125 EQ PUSH2 0x447 JUMPI PUSH2 0x1B7 JUMP JUMPDEST DUP1 PUSH4 0x2A02C56A EQ PUSH2 0x348 JUMPI DUP1 PUSH4 0x371AE9F4 EQ PUSH2 0x371 JUMPI DUP1 PUSH4 0x3B76594D EQ PUSH2 0x3AE JUMPI PUSH2 0x1B7 JUMP JUMPDEST DUP1 PUSH4 0x1906B4CE GT PUSH2 0x195 JUMPI DUP1 PUSH4 0x1906B4CE EQ PUSH2 0x26E JUMPI DUP1 PUSH4 0x1ACE87B3 EQ PUSH2 0x299 JUMPI DUP1 PUSH4 0x1C7AF7A0 EQ PUSH2 0x2C4 JUMPI DUP1 PUSH4 0x21BD6693 EQ PUSH2 0x301 JUMPI PUSH2 0x1B7 JUMP JUMPDEST DUP1 PUSH4 0xBE435BD EQ PUSH2 0x1BC JUMPI DUP1 PUSH4 0x1033397B EQ PUSH2 0x200 JUMPI DUP1 PUSH4 0x180AEDF3 EQ PUSH2 0x22B JUMPI JUMPDEST PUSH1 0x0 DUP1 REVERT JUMPDEST CALLVALUE DUP1 ISZERO PUSH2 0x1C8 JUMPI PUSH1 0x0 DUP1 REVERT JUMPDEST POP PUSH2 0x1E3 PUSH1 0x4 DUP1 CALLDATASIZE SUB DUP2 ADD SWAP1 PUSH2 0x1DE SWAP2 SWAP1 PUSH2 0x43D2 JUMP JUMPDEST PUSH2 0x72A JUMP JUMPDEST PUSH1 0x40 MLOAD PUSH2 0x1F7 SWAP9 SWAP8 SWAP7 SWAP6 SWAP5 SWAP4 SWAP3 SWAP2 SWAP1 PUSH2 0x44D2 JUMP JUMPDEST PUSH1 0x40 MLOAD DUP1 SWAP2 SUB SWAP1 RETURN JUMPDEST CALLVALUE DUP1 ISZERO PUSH2 0x20C JUMPI PUSH1 0x0 DUP1 REVERT JUMPDEST POP PUSH2 0x215 PUSH2 0x9BF JUMP JUMPDEST PUSH1 0x40 MLOAD PUSH2 0x222 SWAP2 SWAP1 PUSH2 0x456C JUMP JUMPDEST PUSH1 0x40 MLOAD DUP1 SWAP2 SUB SWAP1 RETURN JUMPDEST CALLVALUE DUP1 ISZERO PUSH2 0x237 JUMPI PUSH1 0x0 DUP1 REVERT JUMPDEST POP PUSH2 0x252 PUSH1 0x4 DUP1 CALLDATASIZE SUB DUP2 ADD SWAP1 PUSH2 0x24D SWAP2 SWAP1 PUSH2 0x45B3 JUMP JUMPDEST PUSH2 0x9C5 JUMP JUMPDEST PUSH1 0x40 MLOAD PUSH2 0x265 SWAP8 SWAP7 SWAP6 SWAP5 SWAP4 SWAP3 SWAP2 SWAP1 PUSH2 0x45FC JUMP JUMPDEST PUSH1 0x40 MLOAD DUP1 SWAP2 SUB SWAP1 RETURN JUMPDEST CALLVALUE DUP1 ISZERO PUSH2 0x27A JUMPI PUSH1 0x0 DUP1 REVERT JUMPDEST POP PUSH2 0x283 PUSH2 0xB71 JUMP JUMPDEST PUSH1 0x40 MLOAD PUSH2 0x290 SWAP2 SWAP1 PUSH2 0x456C JUMP JUMPDEST PUSH1 0x40 MLOAD DUP1 SWAP2 SUB SWAP1 RETURN JUMPDEST CALLVALUE DUP1 ISZERO PUSH2 0x2A5 JUMPI PUSH1 0x0 DUP1 REVERT JUMPDEST POP PUSH2 0x2AE PUSH2 0xB77 JUMP JUMPDEST PUSH1 0x40 MLOAD PUSH2 0x2BB SWAP2 SWAP1 PUSH2 0x4679 JUMP JUMPDEST PUSH1 0x40 MLOAD DUP1 SWAP2 SUB SWAP1 RETURN JUMPDEST CALLVALUE DUP1 ISZERO PUSH2 0x2D0 JUMPI PUSH1 0x0 DUP1 REVERT JUMPDEST POP PUSH2 0x2EB PUSH1 0x4 DUP1 CALLDATASIZE SUB DUP2 ADD SWAP1 PUSH2 0x2E6 SWAP2 SWAP1 PUSH2 0x43D2 JUMP JUMPDEST PUSH2 0xB8A JUMP JUMPDEST PUSH1 0x40 MLOAD PUSH2 0x2F8 SWAP2 SWAP1 PUSH2 0x48F4 JUMP JUMPDEST PUSH1 0x40 MLOAD DUP1 SWAP2 SUB SWAP1 RETURN JUMPDEST CALLVALUE DUP1 ISZERO PUSH2 0x30D JUMPI PUSH1 0x0 DUP1 REVERT JUMPDEST POP PUSH2 0x328 PUSH1 0x4 DUP1 CALLDATASIZE SUB DUP2 ADD SWAP1 PUSH2 0x323 SWAP2 SWAP1 PUSH2 0x43D2 JUMP JUMPDEST PUSH2 0x1030 JUMP JUMPDEST PUSH1 0x40 MLOAD PUSH2 0x33F SWAP12 SWAP11 SWAP10 SWAP9 SWAP8 SWAP7 SWAP6 SWAP5 SWAP4 SWAP3 SWAP2 SWAP1 PUSH2 0x4916 JUMP JUMPDEST PUSH1 0x40 MLOAD DUP1 SWAP2 SUB SWAP1 RETURN JUMPDEST CALLVALUE DUP1 ISZERO PUSH2 0x354 JUMPI PUSH1 0x0 DUP1 REVERT JUMPDEST POP PUSH2 0x36F PUSH1 0x4 DUP1 CALLDATASIZE SUB DUP2 ADD SWAP1 PUSH2 0x36A SWAP2 SWAP1 PUSH2 0x4B19 JUMP JUMPDEST PUSH2 0x135F JUMP JUMPDEST STOP JUMPDEST CALLVALUE DUP1 ISZERO PUSH2 0x37D JUMPI PUSH1 0x0 DUP1 REVERT JUMPDEST POP PUSH2 0x398 PUSH1 0x4 DUP1 CALLDATASIZE SUB DUP2 ADD SWAP1 PUSH2 0x393 SWAP2 SWAP1 PUSH2 0x45B3 JUMP JUMPDEST PUSH2 0x15EA JUMP JUMPDEST PUSH1 0x40 MLOAD PUSH2 0x3A5 SWAP2 SWAP1 PUSH2 0x4D6C JUMP JUMPDEST PUSH1 0x40 MLOAD DUP1 SWAP2 SUB SWAP1 RETURN JUMPDEST PUSH2 0x3C8 PUSH1 0x4 DUP1 CALLDATASIZE SUB DUP2 ADD SWAP1 PUSH2 0x3C3 SWAP2 SWAP1 PUSH2 0x45B3 JUMP JUMPDEST PUSH2 0x1919 JUMP JUMPDEST STOP JUMPDEST CALLVALUE DUP1 ISZERO PUSH2 0x3D6 JUMPI PUSH1 0x0 DUP1 REVERT JUMPDEST POP PUSH2 0x3DF PUSH2 0x1D36 JUMP JUMPDEST PUSH1 0x40 MLOAD PUSH2 0x3EC SWAP2 SWAP1 PUSH2 0x456C JUMP JUMPDEST PUSH1 0x40 MLOAD DUP1 SWAP2 SUB SWAP1 RETURN JUMPDEST CALLVALUE DUP1 ISZERO PUSH2 0x401 JUMPI PUSH1 0x0 DUP1 REVERT JUMPDEST POP PUSH2 0x41C PUSH1 0x4 DUP1 CALLDATASIZE SUB DUP2 ADD SWAP1 PUSH2 0x417 SWAP2 SWAP1 PUSH2 0x4D8E JUMP JUMPDEST PUSH2 0x1D3C JUMP JUMPDEST STOP JUMPDEST CALLVALUE DUP1 ISZERO PUSH2 0x42A JUMPI PUSH1 0x0 DUP1 REVERT JUMPDEST POP PUSH2 0x445 PUSH1 0x4 DUP1 CALLDATASIZE SUB DUP2 ADD SWAP1 PUSH2 0x440 SWAP2 SWAP1 PUSH2 0x4DCE JUMP JUMPDEST PUSH2 0x1F8F JUMP JUMPDEST STOP JUMPDEST CALLVALUE DUP1 ISZERO PUSH2 0x453 JUMPI PUSH1 0x0 DUP1 REVERT JUMPDEST POP PUSH2 0x46E PUSH1 0x4 DUP1 CALLDATASIZE SUB DUP2 ADD SWAP1 PUSH2 0x469 SWAP2 SWAP1 PUSH2 0x43D2 JUMP JUMPDEST PUSH2 0x23BB JUMP JUMPDEST PUSH1 0x40 MLOAD PUSH2 0x47B SWAP2 SWAP1 PUSH2 0x4F1E JUMP JUMPDEST PUSH1 0x40 MLOAD DUP1 SWAP2 SUB SWAP1 RETURN JUMPDEST CALLVALUE DUP1 ISZERO PUSH2 0x490 JUMPI PUSH1 0x0 DUP1 REVERT JUMPDEST POP PUSH2 0x499 PUSH2 0x26E2 JUMP JUMPDEST PUSH1 0x40 MLOAD PUSH2 0x4A6 SWAP2 SWAP1 PUSH2 0x4F40 JUMP JUMPDEST PUSH1 0x40 MLOAD DUP1 SWAP2 SUB SWAP1 RETURN JUMPDEST CALLVALUE DUP1 ISZERO PUSH2 0x4BB JUMPI PUSH1 0x0 DUP1 REVERT JUMPDEST POP PUSH2 0x4D6 PUSH1 0x4 DUP1 CALLDATASIZE SUB DUP2 ADD SWAP1 PUSH2 0x4D1 SWAP2 SWAP1 PUSH2 0x5041 JUMP JUMPDEST PUSH2 0x2706 JUMP JUMPDEST STOP JUMPDEST CALLVALUE DUP1 ISZERO PUSH2 0x4E4 JUMPI PUSH1 0x0 DUP1 REVERT JUMPDEST POP PUSH2 0x4FF PUSH1 0x4 DUP1 CALLDATASIZE SUB DUP2 ADD SWAP1 PUSH2 0x4FA SWAP2 SWAP1 PUSH2 0x43D2 JUMP JUMPDEST PUSH2 0x29C8 JUMP JUMPDEST PUSH1 0x40 MLOAD PUSH2 0x50C SWAP2 SWAP1 PUSH2 0x4679 JUMP JUMPDEST PUSH1 0x40 MLOAD DUP1 SWAP2 SUB SWAP1 RETURN JUMPDEST CALLVALUE DUP1 ISZERO PUSH2 0x521 JUMPI PUSH1 0x0 DUP1 REVERT JUMPDEST POP PUSH2 0x53C PUSH1 0x4 DUP1 CALLDATASIZE SUB DUP2 ADD SWAP1 PUSH2 0x537 SWAP2 SWAP1 PUSH2 0x4D8E JUMP JUMPDEST PUSH2 0x29E8 JUMP JUMPDEST STOP JUMPDEST CALLVALUE DUP1 ISZERO PUSH2 0x54A JUMPI PUSH1 0x0 DUP1 REVERT JUMPDEST POP PUSH2 0x565 PUSH1 0x4 DUP1 CALLDATASIZE SUB DUP2 ADD SWAP1 PUSH2 0x560 SWAP2 SWAP1 PUSH2 0x518B JUMP JUMPDEST PUSH2 0x2BE9 JUMP JUMPDEST STOP JUMPDEST CALLVALUE DUP1 ISZERO PUSH2 0x573 JUMPI PUSH1 0x0 DUP1 REVERT JUMPDEST POP PUSH2 0x58E PUSH1 0x4 DUP1 CALLDATASIZE SUB DUP2 ADD SWAP1 PUSH2 0x589 SWAP2 SWAP1 PUSH2 0x45B3 JUMP JUMPDEST PUSH2 0x2FF2 JUMP JUMPDEST PUSH1 0x40 MLOAD PUSH2 0x59B SWAP2 SWAP1 PUSH2 0x4F40 JUMP JUMPDEST PUSH1 0x40 MLOAD DUP1 SWAP2 SUB SWAP1 RETURN JUMPDEST CALLVALUE DUP1 ISZERO PUSH2 0x5B0 JUMPI PUSH1 0x0 DUP1 REVERT JUMPDEST POP PUSH2 0x5CB PUSH1 0x4 DUP1 CALLDATASIZE SUB DUP2 ADD SWAP1 PUSH2 0x5C6 SWAP2 SWAP1 PUSH2 0x43D2 JUMP JUMPDEST PUSH2 0x3031 JUMP JUMPDEST STOP JUMPDEST CALLVALUE DUP1 ISZERO PUSH2 0x5D9 JUMPI PUSH1 0x0 DUP1 REVERT JUMPDEST POP PUSH2 0x5F4 PUSH1 0x4 DUP1 CALLDATASIZE SUB DUP2 ADD SWAP1 PUSH2 0x5EF SWAP2 SWAP1 PUSH2 0x4D8E JUMP JUMPDEST PUSH2 0x31F7 JUMP JUMPDEST STOP JUMPDEST CALLVALUE DUP1 ISZERO PUSH2 0x602 JUMPI PUSH1 0x0 DUP1 REVERT JUMPDEST POP PUSH2 0x60B PUSH2 0x3699 JUMP JUMPDEST PUSH1 0x40 MLOAD PUSH2 0x618 SWAP2 SWAP1 PUSH2 0x5469 JUMP JUMPDEST PUSH1 0x40 MLOAD DUP1 SWAP2 SUB SWAP1 RETURN JUMPDEST CALLVALUE DUP1 ISZERO PUSH2 0x62D JUMPI PUSH1 0x0 DUP1 REVERT JUMPDEST POP PUSH2 0x648 PUSH1 0x4 DUP1 CALLDATASIZE SUB DUP2 ADD SWAP1 PUSH2 0x643 SWAP2 SWAP1 PUSH2 0x548B JUMP JUMPDEST PUSH2 0x3A1F JUMP JUMPDEST PUSH1 0x40 MLOAD PUSH2 0x655 SWAP2 SWAP1 PUSH2 0x456C JUMP JUMPDEST PUSH1 0x40 MLOAD DUP1 SWAP2 SUB SWAP1 RETURN JUMPDEST CALLVALUE DUP1 ISZERO PUSH2 0x66A JUMPI PUSH1 0x0 DUP1 REVERT JUMPDEST POP PUSH2 0x685 PUSH1 0x4 DUP1 CALLDATASIZE SUB DUP2 ADD SWAP1 PUSH2 0x680 SWAP2 SWAP1 PUSH2 0x45B3 JUMP JUMPDEST PUSH2 0x3A7A JUMP JUMPDEST STOP JUMPDEST CALLVALUE DUP1 ISZERO PUSH2 0x693 JUMPI PUSH1 0x0 DUP1 REVERT JUMPDEST POP PUSH2 0x6AE PUSH1 0x4 DUP1 CALLDATASIZE SUB DUP2 ADD SWAP1 PUSH2 0x6A9 SWAP2 SWAP1 PUSH2 0x54CB JUMP JUMPDEST PUSH2 0x3C7F JUMP JUMPDEST STOP JUMPDEST CALLVALUE DUP1 ISZERO PUSH2 0x6BC JUMPI PUSH1 0x0 DUP1 REVERT JUMPDEST POP PUSH2 0x6D7 PUSH1 0x4 DUP1 CALLDATASIZE SUB DUP2 ADD SWAP1 PUSH2 0x6D2 SWAP2 SWAP1 PUSH2 0x43D2 JUMP JUMPDEST PUSH2 0x3FBC JUMP JUMPDEST PUSH1 0x40 MLOAD PUSH2 0x6E4 SWAP2 SWAP1 PUSH2 0x4F40 JUMP JUMPDEST PUSH1 0x40 MLOAD DUP1 SWAP2 SUB SWAP1 RETURN JUMPDEST CALLVALUE DUP1 ISZERO PUSH2 0x6F9 JUMPI PUSH1 0x0 DUP1 REVERT JUMPDEST POP PUSH2 0x714 PUSH1 0x4 DUP1 CALLDATASIZE SUB DUP2 ADD SWAP1 PUSH2 0x70F SWAP2 SWAP1 PUSH2 0x548B JUMP JUMPDEST PUSH2 0x3FEF JUMP JUMPDEST PUSH1 0x40 MLOAD PUSH2 0x721 SWAP2 SWAP1 PUSH2 0x456C JUMP JUMPDEST PUSH1 0x40 MLOAD DUP1 SWAP2 SUB SWAP1 RETURN JUMPDEST PUSH1 0x6 PUSH1 0x20 MSTORE DUP1 PUSH1 0x0 MSTORE PUSH1 0x40 PUSH1 0x0 KECCAK256 PUSH1 0x0 SWAP2 POP SWAP1 POP DUP1 PUSH1 0x0 ADD PUSH1 0x0 SWAP1 SLOAD SWAP1 PUSH2 0x100 EXP SWAP1 DIV PUSH20 0xFFFFFFFFFFFFFFFFFFFFFFFFFFFFFFFFFFFFFFFF AND SWAP1 DUP1 PUSH1 0x1 ADD DUP1 SLOAD PUSH2 0x773 SWAP1 PUSH2 0x55E5 JUMP JUMPDEST DUP1 PUSH1 0x1F ADD PUSH1 0x20 DUP1 SWAP2 DIV MUL PUSH1 0x20 ADD PUSH1 0x40 MLOAD SWAP1 DUP2 ADD PUSH1 0x40 MSTORE DUP1 SWAP3 SWAP2 SWAP1 DUP2 DUP2 MSTORE PUSH1 0x20 ADD DUP3 DUP1 SLOAD PUSH2 0x79F SWAP1 PUSH2 0x55E5 JUMP JUMPDEST DUP1 ISZERO PUSH2 0x7EC JUMPI DUP1 PUSH1 0x1F LT PUSH2 0x7C1 JUMPI PUSH2 0x100 DUP1 DUP4 SLOAD DIV MUL DUP4 MSTORE SWAP2 PUSH1 0x20 ADD SWAP2 PUSH2 0x7EC JUMP JUMPDEST DUP3 ADD SWAP2 SWAP1 PUSH1 0x0 MSTORE PUSH1 0x20 PUSH1 0x0 KECCAK256 SWAP1 JUMPDEST DUP2 SLOAD DUP2 MSTORE SWAP1 PUSH1 0x1 ADD SWAP1 PUSH1 0x20 ADD DUP1 DUP4 GT PUSH2 0x7CF JUMPI DUP3 SWAP1 SUB PUSH1 0x1F AND DUP3 ADD SWAP2 JUMPDEST POP POP POP POP POP SWAP1 DUP1 PUSH1 0x2 ADD DUP1 SLOAD PUSH2 0x801 SWAP1 PUSH2 0x55E5 JUMP JUMPDEST DUP1 PUSH1 0x1F ADD PUSH1 0x20 DUP1 SWAP2 DIV MUL PUSH1 0x20 ADD PUSH1 0x40 MLOAD SWAP1 DUP2 ADD PUSH1 0x40 MSTORE DUP1 SWAP3 SWAP2 SWAP1 DUP2 DUP2 MSTORE PUSH1 0x20 ADD DUP3 DUP1 SLOAD PUSH2 0x82D SWAP1 PUSH2 0x55E5 JUMP JUMPDEST DUP1 ISZERO PUSH2 0x87A JUMPI DUP1 PUSH1 0x1F LT PUSH2 0x84F JUMPI PUSH2 0x100 DUP1 DUP4 SLOAD DIV MUL DUP4 MSTORE SWAP2 PUSH1 0x20 ADD SWAP2 PUSH2 0x87A JUMP JUMPDEST DUP3 ADD SWAP2 SWAP1 PUSH1 0x0 MSTORE PUSH1 0x20 PUSH1 0x0 KECCAK256 SWAP1 JUMPDEST DUP2 SLOAD DUP2 MSTORE SWAP1 PUSH1 0x1 ADD SWAP1 PUSH1 0x20 ADD DUP1 DUP4 GT PUSH2 0x85D JUMPI DUP3 SWAP1 SUB PUSH1 0x1F AND DUP3 ADD SWAP2 JUMPDEST POP POP POP POP POP SWAP1 DUP1 PUSH1 0x3 ADD SLOAD SWAP1 DUP1 PUSH1 0x4 ADD DUP1 SLOAD PUSH2 0x895 SWAP1 PUSH2 0x55E5 JUMP JUMPDEST DUP1 PUSH1 0x1F ADD PUSH1 0x20 DUP1 SWAP2 DIV MUL PUSH1 0x20 ADD PUSH1 0x40 MLOAD SWAP1 DUP2 ADD PUSH1 0x40 MSTORE DUP1 SWAP3 SWAP2 SWAP1 DUP2 DUP2 MSTORE PUSH1 0x20 ADD DUP3 DUP1 SLOAD PUSH2 0x8C1 SWAP1 PUSH2 0x55E5 JUMP JUMPDEST DUP1 ISZERO PUSH2 0x90E JUMPI DUP1 PUSH1 0x1F LT PUSH2 0x8E3 JUMPI PUSH2 0x100 DUP1 DUP4 SLOAD DIV MUL DUP4 MSTORE SWAP2 PUSH1 0x20 ADD SWAP2 PUSH2 0x90E JUMP JUMPDEST DUP3 ADD SWAP2 SWAP1 PUSH1 0x0 MSTORE PUSH1 0x20 PUSH1 0x0 KECCAK256 SWAP1 JUMPDEST DUP2 SLOAD DUP2 MSTORE SWAP1 PUSH1 0x1 ADD SWAP1 PUSH1 0x20 ADD DUP1 DUP4 GT PUSH2 0x8F1 JUMPI DUP3 SWAP1 SUB PUSH1 0x1F AND DUP3 ADD SWAP2 JUMPDEST POP POP POP POP POP SWAP1 DUP1 PUSH1 0x5 ADD DUP1 SLOAD PUSH2 0x923 SWAP1 PUSH2 0x55E5 JUMP JUMPDEST DUP1 PUSH1 0x1F ADD PUSH1 0x20 DUP1 SWAP2 DIV MUL PUSH1 0x20 ADD PUSH1 0x40 MLOAD SWAP1 DUP2 ADD PUSH1 0x40 MSTORE DUP1 SWAP3 SWAP2 SWAP1 DUP2 DUP2 MSTORE PUSH1 0x20 ADD DUP3 DUP1 SLOAD PUSH2 0x94F SWAP1 PUSH2 0x55E5 JUMP JUMPDEST DUP1 ISZERO PUSH2 0x99C JUMPI DUP1 PUSH1 0x1F LT PUSH2 0x971 JUMPI PUSH2 0x100 DUP1 DUP4 SLOAD DIV MUL DUP4 MSTORE SWAP2 PUSH1 0x20 ADD SWAP2 PUSH2 0x99C JUMP JUMPDEST DUP3 ADD SWAP2 SWAP1 PUSH1 0x0 MSTORE PUSH1 0x20 PUSH1 0x0 KECCAK256 SWAP1 JUMPDEST DUP2 SLOAD DUP2 MSTORE SWAP1 PUSH1 0x1 ADD SWAP1 PUSH1 0x20 ADD DUP1 DUP4 GT PUSH2 0x97F JUMPI DUP3 SWAP1 SUB PUSH1 0x1F AND DUP3 ADD SWAP2 JUMPDEST POP POP POP POP POP SWAP1 DUP1 PUSH1 0x6 ADD PUSH1 0x0 SWAP1 SLOAD SWAP1 PUSH2 0x100 EXP SWAP1 DIV PUSH1 0xFF AND SWAP1 DUP1 PUSH1 0x7 ADD SLOAD SWAP1 POP DUP9 JUMP JUMPDEST PUSH1 0x3 SLOAD DUP2 JUMP JUMPDEST PUSH1 0x4 PUSH1 0x20 MSTORE DUP1 PUSH1 0x0 MSTORE PUSH1 0x40 PUSH1 0x0 KECCAK256 PUSH1 0x0 SWAP2 POP SWAP1 POP DUP1 PUSH1 0x0 ADD PUSH1 0x0 SWAP1 SLOAD SWAP1 PUSH2 0x100 EXP SWAP1 DIV PUSH1 0xFF AND SWAP1 DUP1 PUSH1 0x0 ADD PUSH1 0x1 SWAP1 SLOAD SWAP1 PUSH2 0x100 EXP SWAP1 DIV PUSH20 0xFFFFFFFFFFFFFFFFFFFFFFFFFFFFFFFFFFFFFFFF AND SWAP1 DUP1 PUSH1 0x1 ADD DUP1 SLOAD PUSH2 0xA21 SWAP1 PUSH2 0x55E5 JUMP JUMPDEST DUP1 PUSH1 0x1F ADD PUSH1 0x20 DUP1 SWAP2 DIV MUL PUSH1 0x20 ADD PUSH1 0x40 MLOAD SWAP1 DUP2 ADD PUSH1 0x40 MSTORE DUP1 SWAP3 SWAP2 SWAP1 DUP2 DUP2 MSTORE PUSH1 0x20 ADD DUP3 DUP1 SLOAD PUSH2 0xA4D SWAP1 PUSH2 0x55E5 JUMP JUMPDEST DUP1 ISZERO PUSH2 0xA9A JUMPI DUP1 PUSH1 0x1F LT PUSH2 0xA6F JUMPI PUSH2 0x100 DUP1 DUP4 SLOAD DIV MUL DUP4 MSTORE SWAP2 PUSH1 0x20 ADD SWAP2 PUSH2 0xA9A JUMP JUMPDEST DUP3 ADD SWAP2 SWAP1 PUSH1 0x0 MSTORE PUSH1 0x20 PUSH1 0x0 KECCAK256 SWAP1 JUMPDEST DUP2 SLOAD DUP2 MSTORE SWAP1 PUSH1 0x1 ADD SWAP1 PUSH1 0x20 ADD DUP1 DUP4 GT PUSH2 0xA7D JUMPI DUP3 SWAP1 SUB PUSH1 0x1F AND DUP3 ADD SWAP2 JUMPDEST POP POP POP POP POP SWAP1 DUP1 PUSH1 0x2 ADD DUP1 SLOAD PUSH2 0xAAF SWAP1 PUSH2 0x55E5 JUMP JUMPDEST DUP1 PUSH1 0x1F ADD PUSH1 0x20 DUP1 SWAP2 DIV MUL PUSH1 0x20 ADD PUSH1 0x40 MLOAD SWAP1 DUP2 ADD PUSH1 0x40 MSTORE DUP1 SWAP3 SWAP2 SWAP1 DUP2 DUP2 MSTORE PUSH1 0x20 ADD DUP3 DUP1 SLOAD PUSH2 0xADB SWAP1 PUSH2 0x55E5 JUMP JUMPDEST DUP1 ISZERO PUSH2 0xB28 JUMPI DUP1 PUSH1 0x1F LT PUSH2 0xAFD JUMPI PUSH2 0x100 DUP1 DUP4 SLOAD DIV MUL DUP4 MSTORE SWAP2 PUSH1 0x20 ADD SWAP2 PUSH2 0xB28 JUMP JUMPDEST DUP3 ADD SWAP2 SWAP1 PUSH1 0x0 MSTORE PUSH1 0x20 PUSH1 0x0 KECCAK256 SWAP1 JUMPDEST DUP2 SLOAD DUP2 MSTORE SWAP1 PUSH1 0x1 ADD SWAP1 PUSH1 0x20 ADD DUP1 DUP4 GT PUSH2 0xB0B JUMPI DUP3 SWAP1 SUB PUSH1 0x1F AND DUP3 ADD SWAP2 JUMPDEST POP POP POP POP POP SWAP1 DUP1 PUSH1 0x3 ADD SLOAD SWAP1 DUP1 PUSH1 0x4 ADD PUSH1 0x0 SWAP1 SLOAD SWAP1 PUSH2 0x100 EXP SWAP1 DIV PUSH1 0xFF AND SWAP1 DUP1 PUSH1 0x6 ADD PUSH1 0x0 SWAP1 SLOAD SWAP1 PUSH2 0x100 EXP SWAP1 DIV PUSH20 0xFFFFFFFFFFFFFFFFFFFFFFFFFFFFFFFFFFFFFFFF AND SWAP1 POP DUP8 JUMP JUMPDEST PUSH1 0x2 SLOAD DUP2 JUMP JUMPDEST PUSH1 0x0 PUSH1 0x14 SWAP1 SLOAD SWAP1 PUSH2 0x100 EXP SWAP1 DIV PUSH1 0xFF AND DUP2 JUMP JUMPDEST PUSH2 0xB92 PUSH2 0x40B0 JUMP JUMPDEST PUSH1 0x5 PUSH1 0x0 DUP4 PUSH20 0xFFFFFFFFFFFFFFFFFFFFFFFFFFFFFFFFFFFFFFFF AND PUSH20 0xFFFFFFFFFFFFFFFFFFFFFFFFFFFFFFFFFFFFFFFF AND DUP2 MSTORE PUSH1 0x20 ADD SWAP1 DUP2 MSTORE PUSH1 0x20 ADD PUSH1 0x0 KECCAK256 PUSH1 0x40 MLOAD DUP1 PUSH2 0x180 ADD PUSH1 0x40 MSTORE SWAP1 DUP2 PUSH1 0x0 DUP3 ADD PUSH1 0x0 SWAP1 SLOAD SWAP1 PUSH2 0x100 EXP SWAP1 DIV PUSH20 0xFFFFFFFFFFFFFFFFFFFFFFFFFFFFFFFFFFFFFFFF AND PUSH20 0xFFFFFFFFFFFFFFFFFFFFFFFFFFFFFFFFFFFFFFFF AND PUSH20 0xFFFFFFFFFFFFFFFFFFFFFFFFFFFFFFFFFFFFFFFF AND DUP2 MSTORE PUSH1 0x20 ADD PUSH1 0x1 DUP3 ADD DUP1 SLOAD PUSH2 0xC43 SWAP1 PUSH2 0x55E5 JUMP JUMPDEST DUP1 PUSH1 0x1F ADD PUSH1 0x20 DUP1 SWAP2 DIV MUL PUSH1 0x20 ADD PUSH1 0x40 MLOAD SWAP1 DUP2 ADD PUSH1 0x40 MSTORE DUP1 SWAP3 SWAP2 SWAP1 DUP2 DUP2 MSTORE PUSH1 0x20 ADD DUP3 DUP1 SLOAD PUSH2 0xC6F SWAP1 PUSH2 0x55E5 JUMP JUMPDEST DUP1 ISZERO PUSH2 0xCBC JUMPI DUP1 PUSH1 0x1F LT PUSH2 0xC91 JUMPI PUSH2 0x100 DUP1 DUP4 SLOAD DIV MUL DUP4 MSTORE SWAP2 PUSH1 0x20 ADD SWAP2 PUSH2 0xCBC JUMP JUMPDEST DUP3 ADD SWAP2 SWAP1 PUSH1 0x0 MSTORE PUSH1 0x20 PUSH1 0x0 KECCAK256 SWAP1 JUMPDEST DUP2 SLOAD DUP2 MSTORE SWAP1 PUSH1 0x1 ADD SWAP1 PUSH1 0x20 ADD DUP1 DUP4 GT PUSH2 0xC9F JUMPI DUP3 SWAP1 SUB PUSH1 0x1F AND DUP3 ADD SWAP2 JUMPDEST POP POP POP POP POP DUP2 MSTORE PUSH1 0x20 ADD PUSH1 0x2 DUP3 ADD DUP1 SLOAD PUSH2 0xCD5 SWAP1 PUSH2 0x55E5 JUMP JUMPDEST DUP1 PUSH1 0x1F ADD PUSH1 0x20 DUP1 SWAP2 DIV MUL PUSH1 0x20 ADD PUSH1 0x40 MLOAD SWAP1 DUP2 ADD PUSH1 0x40 MSTORE DUP1 SWAP3 SWAP2 SWAP1 DUP2 DUP2 MSTORE PUSH1 0x20 ADD DUP3 DUP1 SLOAD PUSH2 0xD01 SWAP1 PUSH2 0x55E5 JUMP JUMPDEST DUP1 ISZERO PUSH2 0xD4E JUMPI DUP1 PUSH1 0x1F LT PUSH2 0xD23 JUMPI PUSH2 0x100 DUP1 DUP4 SLOAD DIV MUL DUP4 MSTORE SWAP2 PUSH1 0x20 ADD SWAP2 PUSH2 0xD4E JUMP JUMPDEST DUP3 ADD SWAP2 SWAP1 PUSH1 0x0 MSTORE PUSH1 0x20 PUSH1 0x0 KECCAK256 SWAP1 JUMPDEST DUP2 SLOAD DUP2 MSTORE SWAP1 PUSH1 0x1 ADD SWAP1 PUSH1 0x20 ADD DUP1 DUP4 GT PUSH2 0xD31 JUMPI DUP3 SWAP1 SUB PUSH1 0x1F AND DUP3 ADD SWAP2 JUMPDEST POP POP POP POP POP DUP2 MSTORE PUSH1 0x20 ADD PUSH1 0x3 DUP3 ADD SLOAD DUP2 MSTORE PUSH1 0x20 ADD PUSH1 0x4 DUP3 ADD DUP1 SLOAD PUSH2 0xD71 SWAP1 PUSH2 0x55E5 JUMP JUMPDEST DUP1 PUSH1 0x1F ADD PUSH1 0x20 DUP1 SWAP2 DIV MUL PUSH1 0x20 ADD PUSH1 0x40 MLOAD SWAP1 DUP2 ADD PUSH1 0x40 MSTORE DUP1 SWAP3 SWAP2 SWAP1 DUP2 DUP2 MSTORE PUSH1 0x20 ADD DUP3 DUP1 SLOAD PUSH2 0xD9D SWAP1 PUSH2 0x55E5 JUMP JUMPDEST DUP1 ISZERO PUSH2 0xDEA JUMPI DUP1 PUSH1 0x1F LT PUSH2 0xDBF JUMPI PUSH2 0x100 DUP1 DUP4 SLOAD DIV MUL DUP4 MSTORE SWAP2 PUSH1 0x20 ADD SWAP2 PUSH2 0xDEA JUMP JUMPDEST DUP3 ADD SWAP2 SWAP1 PUSH1 0x0 MSTORE PUSH1 0x20 PUSH1 0x0 KECCAK256 SWAP1 JUMPDEST DUP2 SLOAD DUP2 MSTORE SWAP1 PUSH1 0x1 ADD SWAP1 PUSH1 0x20 ADD DUP1 DUP4 GT PUSH2 0xDCD JUMPI DUP3 SWAP1 SUB PUSH1 0x1F AND DUP3 ADD SWAP2 JUMPDEST POP POP POP POP POP DUP2 MSTORE PUSH1 0x20 ADD PUSH1 0x5 DUP3 ADD DUP1 SLOAD PUSH2 0xE03 SWAP1 PUSH2 0x55E5 JUMP JUMPDEST DUP1 PUSH1 0x1F ADD PUSH1 0x20 DUP1 SWAP2 DIV MUL PUSH1 0x20 ADD PUSH1 0x40 MLOAD SWAP1 DUP2 ADD PUSH1 0x40 MSTORE DUP1 SWAP3 SWAP2 SWAP1 DUP2 DUP2 MSTORE PUSH1 0x20 ADD DUP3 DUP1 SLOAD PUSH2 0xE2F SWAP1 PUSH2 0x55E5 JUMP JUMPDEST DUP1 ISZERO PUSH2 0xE7C JUMPI DUP1 PUSH1 0x1F LT PUSH2 0xE51 JUMPI PUSH2 0x100 DUP1 DUP4 SLOAD DIV MUL DUP4 MSTORE SWAP2 PUSH1 0x20 ADD SWAP2 PUSH2 0xE7C JUMP JUMPDEST DUP3 ADD SWAP2 SWAP1 PUSH1 0x0 MSTORE PUSH1 0x20 PUSH1 0x0 KECCAK256 SWAP1 JUMPDEST DUP2 SLOAD DUP2 MSTORE SWAP1 PUSH1 0x1 ADD SWAP1 PUSH1 0x20 ADD DUP1 DUP4 GT PUSH2 0xE5F JUMPI DUP3 SWAP1 SUB PUSH1 0x1F AND DUP3 ADD SWAP2 JUMPDEST POP POP POP POP POP DUP2 MSTORE PUSH1 0x20 ADD PUSH1 0x6 DUP3 ADD DUP1 SLOAD PUSH2 0xE95 SWAP1 PUSH2 0x55E5 JUMP JUMPDEST DUP1 PUSH1 0x1F ADD PUSH1 0x20 DUP1 SWAP2 DIV MUL PUSH1 0x20 ADD PUSH1 0x40 MLOAD SWAP1 DUP2 ADD PUSH1 0x40 MSTORE DUP1 SWAP3 SWAP2 SWAP1 DUP2 DUP2 MSTORE PUSH1 0x20 ADD DUP3 DUP1 SLOAD PUSH2 0xEC1 SWAP1 PUSH2 0x55E5 JUMP JUMPDEST DUP1 ISZERO PUSH2 0xF0E JUMPI DUP1 PUSH1 0x1F LT PUSH2 0xEE3 JUMPI PUSH2 0x100 DUP1 DUP4 SLOAD DIV MUL DUP4 MSTORE SWAP2 PUSH1 0x20 ADD SWAP2 PUSH2 0xF0E JUMP JUMPDEST DUP3 ADD SWAP2 SWAP1 PUSH1 0x0 MSTORE PUSH1 0x20 PUSH1 0x0 KECCAK256 SWAP1 JUMPDEST DUP2 SLOAD DUP2 MSTORE SWAP1 PUSH1 0x1 ADD SWAP1 PUSH1 0x20 ADD DUP1 DUP4 GT PUSH2 0xEF1 JUMPI DUP3 SWAP1 SUB PUSH1 0x1F AND DUP3 ADD SWAP2 JUMPDEST POP POP POP POP POP DUP2 MSTORE PUSH1 0x20 ADD PUSH1 0x7 DUP3 ADD DUP1 SLOAD DUP1 PUSH1 0x20 MUL PUSH1 0x20 ADD PUSH1 0x40 MLOAD SWAP1 DUP2 ADD PUSH1 0x40 MSTORE DUP1 SWAP3 SWAP2 SWAP1 DUP2 DUP2 MSTORE PUSH1 0x20 ADD PUSH1 0x0 SWAP1 JUMPDEST DUP3 DUP3 LT ISZERO PUSH2 0xFE8 JUMPI DUP4 DUP3 SWAP1 PUSH1 0x0 MSTORE PUSH1 0x20 PUSH1 0x0 KECCAK256 ADD DUP1 SLOAD PUSH2 0xF5B SWAP1 PUSH2 0x55E5 JUMP JUMPDEST DUP1 PUSH1 0x1F ADD PUSH1 0x20 DUP1 SWAP2 DIV MUL PUSH1 0x20 ADD PUSH1 0x40 MLOAD SWAP1 DUP2 ADD PUSH1 0x40 MSTORE DUP1 SWAP3 SWAP2 SWAP1 DUP2 DUP2 MSTORE PUSH1 0x20 ADD DUP3 DUP1 SLOAD PUSH2 0xF87 SWAP1 PUSH2 0x55E5 JUMP JUMPDEST DUP1 ISZERO PUSH2 0xFD4 JUMPI DUP1 PUSH1 0x1F LT PUSH2 0xFA9 JUMPI PUSH2 0x100 DUP1 DUP4 SLOAD DIV MUL DUP4 MSTORE SWAP2 PUSH1 0x20 ADD SWAP2 PUSH2 0xFD4 JUMP JUMPDEST DUP3 ADD SWAP2 SWAP1 PUSH1 0x0 MSTORE PUSH1 0x20 PUSH1 0x0 KECCAK256 SWAP1 JUMPDEST DUP2 SLOAD DUP2 MSTORE SWAP1 PUSH1 0x1 ADD SWAP1 PUSH1 0x20 ADD DUP1 DUP4 GT PUSH2 0xFB7 JUMPI DUP3 SWAP1 SUB PUSH1 0x1F AND DUP3 ADD SWAP2 JUMPDEST POP POP POP POP POP DUP2 MSTORE PUSH1 0x20 ADD SWAP1 PUSH1 0x1 ADD SWAP1 PUSH2 0xF3C JUMP JUMPDEST POP POP POP POP DUP2 MSTORE PUSH1 0x20 ADD PUSH1 0x8 DUP3 ADD SLOAD DUP2 MSTORE PUSH1 0x20 ADD PUSH1 0x9 DUP3 ADD PUSH1 0x0 SWAP1 SLOAD SWAP1 PUSH2 0x100 EXP SWAP1 DIV PUSH1 0xFF AND ISZERO ISZERO ISZERO ISZERO DUP2 MSTORE PUSH1 0x20 ADD PUSH1 0xA DUP3 ADD SLOAD DUP2 MSTORE PUSH1 0x20 ADD PUSH1 0xB DUP3 ADD SLOAD DUP2 MSTORE POP POP SWAP1 POP SWAP2 SWAP1 POP JUMP JUMPDEST PUSH1 0x5 PUSH1 0x20 MSTORE DUP1 PUSH1 0x0 MSTORE PUSH1 0x40 PUSH1 0x0 KECCAK256 PUSH1 0x0 SWAP2 POP SWAP1 POP DUP1 PUSH1 0x0 ADD PUSH1 0x0 SWAP1 SLOAD SWAP1 PUSH2 0x100 EXP SWAP1 DIV PUSH20 0xFFFFFFFFFFFFFFFFFFFFFFFFFFFFFFFFFFFFFFFF AND SWAP1 DUP1 PUSH1 0x1 ADD DUP1 SLOAD PUSH2 0x1079 SWAP1 PUSH2 0x55E5 JUMP JUMPDEST DUP1 PUSH1 0x1F ADD PUSH1 0x20 DUP1 SWAP2 DIV MUL PUSH1 0x20 ADD PUSH1 0x40 MLOAD SWAP1 DUP2 ADD PUSH1 0x40 MSTORE DUP1 SWAP3 SWAP2 SWAP1 DUP2 DUP2 MSTORE PUSH1 0x20 ADD DUP3 DUP1 SLOAD PUSH2 0x10A5 SWAP1 PUSH2 0x55E5 JUMP JUMPDEST DUP1 ISZERO PUSH2 0x10F2 JUMPI DUP1 PUSH1 0x1F LT PUSH2 0x10C7 JUMPI PUSH2 0x100 DUP1 DUP4 SLOAD DIV MUL DUP4 MSTORE SWAP2 PUSH1 0x20 ADD SWAP2 PUSH2 0x10F2 JUMP JUMPDEST DUP3 ADD SWAP2 SWAP1 PUSH1 0x0 MSTORE PUSH1 0x20 PUSH1 0x0 KECCAK256 SWAP1 JUMPDEST DUP2 SLOAD DUP2 MSTORE SWAP1 PUSH1 0x1 ADD SWAP1 PUSH1 0x20 ADD DUP1 DUP4 GT PUSH2 0x10D5 JUMPI DUP3 SWAP1 SUB PUSH1 0x1F AND DUP3 ADD SWAP2 JUMPDEST POP POP POP POP POP SWAP1 DUP1 PUSH1 0x2 ADD DUP1 SLOAD PUSH2 0x1107 SWAP1 PUSH2 0x55E5 JUMP JUMPDEST DUP1 PUSH1 0x1F ADD PUSH1 0x20 DUP1 SWAP2 DIV MUL PUSH1 0x20 ADD PUSH1 0x40 MLOAD SWAP1 DUP2 ADD PUSH1 0x40 MSTORE DUP1 SWAP3 SWAP2 SWAP1 DUP2 DUP2 MSTORE PUSH1 0x20 ADD DUP3 DUP1 SLOAD PUSH2 0x1133 SWAP1 PUSH2 0x55E5 JUMP JUMPDEST DUP1 ISZERO PUSH2 0x1180 JUMPI DUP1 PUSH1 0x1F LT PUSH2 0x1155 JUMPI PUSH2 0x100 DUP1 DUP4 SLOAD DIV MUL DUP4 MSTORE SWAP2 PUSH1 0x20 ADD SWAP2 PUSH2 0x1180 JUMP JUMPDEST DUP3 ADD SWAP2 SWAP1 PUSH1 0x0 MSTORE PUSH1 0x20 PUSH1 0x0 KECCAK256 SWAP1 JUMPDEST DUP2 SLOAD DUP2 MSTORE SWAP1 PUSH1 0x1 ADD SWAP1 PUSH1 0x20 ADD DUP1 DUP4 GT PUSH2 0x1163 JUMPI DUP3 SWAP1 SUB PUSH1 0x1F AND DUP3 ADD SWAP2 JUMPDEST POP POP POP POP POP SWAP1 DUP1 PUSH1 0x3 ADD SLOAD SWAP1 DUP1 PUSH1 0x4 ADD DUP1 SLOAD PUSH2 0x119B SWAP1 PUSH2 0x55E5 JUMP JUMPDEST DUP1 PUSH1 0x1F ADD PUSH1 0x20 DUP1 SWAP2 DIV MUL PUSH1 0x20 ADD PUSH1 0x40 MLOAD SWAP1 DUP2 ADD PUSH1 0x40 MSTORE DUP1 SWAP3 SWAP2 SWAP1 DUP2 DUP2 MSTORE PUSH1 0x20 ADD DUP3 DUP1 SLOAD PUSH2 0x11C7 SWAP1 PUSH2 0x55E5 JUMP JUMPDEST DUP1 ISZERO PUSH2 0x1214 JUMPI DUP1 PUSH1 0x1F LT PUSH2 0x11E9 JUMPI PUSH2 0x100 DUP1 DUP4 SLOAD DIV MUL DUP4 MSTORE SWAP2 PUSH1 0x20 ADD SWAP2 PUSH2 0x1214 JUMP JUMPDEST DUP3 ADD SWAP2 SWAP1 PUSH1 0x0 MSTORE PUSH1 0x20 PUSH1 0x0 KECCAK256 SWAP1 JUMPDEST DUP2 SLOAD DUP2 MSTORE SWAP1 PUSH1 0x1 ADD SWAP1 PUSH1 0x20 ADD DUP1 DUP4 GT PUSH2 0x11F7 JUMPI DUP3 SWAP1 SUB PUSH1 0x1F AND DUP3 ADD SWAP2 JUMPDEST POP POP POP POP POP SWAP1 DUP1 PUSH1 0x5 ADD DUP1 SLOAD PUSH2 0x1229 SWAP1 PUSH2 0x55E5 JUMP JUMPDEST DUP1 PUSH1 0x1F ADD PUSH1 0x20 DUP1 SWAP2 DIV MUL PUSH1 0x20 ADD PUSH1 0x40 MLOAD SWAP1 DUP2 ADD PUSH1 0x40 MSTORE DUP1 SWAP3 SWAP2 SWAP1 DUP2 DUP2 MSTORE PUSH1 0x20 ADD DUP3 DUP1 SLOAD PUSH2 0x1255 SWAP1 PUSH2 0x55E5 JUMP JUMPDEST DUP1 ISZERO PUSH2 0x12A2 JUMPI DUP1 PUSH1 0x1F LT PUSH2 0x1277 JUMPI PUSH2 0x100 DUP1 DUP4 SLOAD DIV MUL DUP4 MSTORE SWAP2 PUSH1 0x20 ADD SWAP2 PUSH2 0x12A2 JUMP JUMPDEST DUP3 ADD SWAP2 SWAP1 PUSH1 0x0 MSTORE PUSH1 0x20 PUSH1 0x0 KECCAK256 SWAP1 JUMPDEST DUP2 SLOAD DUP2 MSTORE SWAP1 PUSH1 0x1 ADD SWAP1 PUSH1 0x20 ADD DUP1 DUP4 GT PUSH2 0x1285 JUMPI DUP3 SWAP1 SUB PUSH1 0x1F AND DUP3 ADD SWAP2 JUMPDEST POP POP POP POP POP SWAP1 DUP1 PUSH1 0x6 ADD DUP1 SLOAD PUSH2 0x12B7 SWAP1 PUSH2 0x55E5 JUMP JUMPDEST DUP1 PUSH1 0x1F ADD PUSH1 0x20 DUP1 SWAP2 DIV MUL PUSH1 0x20 ADD PUSH1 0x40 MLOAD SWAP1 DUP2 ADD PUSH1 0x40 MSTORE DUP1 SWAP3 SWAP2 SWAP1 DUP2 DUP2 MSTORE PUSH1 0x20 ADD DUP3 DUP1 SLOAD PUSH2 0x12E3 SWAP1 PUSH2 0x55E5 JUMP JUMPDEST DUP1 ISZERO PUSH2 0x1330 JUMPI DUP1 PUSH1 0x1F LT PUSH2 0x1305 JUMPI PUSH2 0x100 DUP1 DUP4 SLOAD DIV MUL DUP4 MSTORE SWAP2 PUSH1 0x20 ADD SWAP2 PUSH2 0x1330 JUMP JUMPDEST DUP3 ADD SWAP2 SWAP1 PUSH1 0x0 MSTORE PUSH1 0x20 PUSH1 0x0 KECCAK256 SWAP1 JUMPDEST DUP2 SLOAD DUP2 MSTORE SWAP1 PUSH1 0x1 ADD SWAP1 PUSH1 0x20 ADD DUP1 DUP4 GT PUSH2 0x1313 JUMPI DUP3 SWAP1 SUB PUSH1 0x1F AND DUP3 ADD SWAP2 JUMPDEST POP POP POP POP POP SWAP1 DUP1 PUSH1 0x8 ADD SLOAD SWAP1 DUP1 PUSH1 0x9 ADD PUSH1 0x0 SWAP1 SLOAD SWAP1 PUSH2 0x100 EXP SWAP1 DIV PUSH1 0xFF AND SWAP1 DUP1 PUSH1 0xA ADD SLOAD SWAP1 DUP1 PUSH1 0xB ADD SLOAD SWAP1 POP DUP12 JUMP JUMPDEST PUSH1 0x0 PUSH1 0xA PUSH1 0x0 CALLER PUSH20 0xFFFFFFFFFFFFFFFFFFFFFFFFFFFFFFFFFFFFFFFF AND PUSH20 0xFFFFFFFFFFFFFFFFFFFFFFFFFFFFFFFFFFFFFFFF AND DUP2 MSTORE PUSH1 0x20 ADD SWAP1 DUP2 MSTORE PUSH1 0x20 ADD PUSH1 0x0 KECCAK256 PUSH1 0x0 SWAP1 SLOAD SWAP1 PUSH2 0x100 EXP SWAP1 DIV PUSH20 0xFFFFFFFFFFFFFFFFFFFFFFFFFFFFFFFFFFFFFFFF AND SWAP1 POP PUSH1 0x1 PUSH1 0x8 PUSH1 0x0 CALLER PUSH20 0xFFFFFFFFFFFFFFFFFFFFFFFFFFFFFFFFFFFFFFFF AND PUSH20 0xFFFFFFFFFFFFFFFFFFFFFFFFFFFFFFFFFFFFFFFF AND DUP2 MSTORE PUSH1 0x20 ADD SWAP1 DUP2 MSTORE PUSH1 0x20 ADD PUSH1 0x0 KECCAK256 PUSH1 0x0 SWAP1 SLOAD SWAP1 PUSH2 0x100 EXP SWAP1 DIV PUSH1 0xFF AND PUSH1 0xFF AND EQ ISZERO DUP1 ISZERO PUSH2 0x1473 JUMPI POP PUSH1 0x1 PUSH1 0x8 PUSH1 0x0 DUP4 PUSH20 0xFFFFFFFFFFFFFFFFFFFFFFFFFFFFFFFFFFFFFFFF AND PUSH20 0xFFFFFFFFFFFFFFFFFFFFFFFFFFFFFFFFFFFFFFFF AND DUP2 MSTORE PUSH1 0x20 ADD SWAP1 DUP2 MSTORE PUSH1 0x20 ADD PUSH1 0x0 KECCAK256 PUSH1 0x0 SWAP1 SLOAD SWAP1 PUSH2 0x100 EXP SWAP1 DIV PUSH1 0xFF AND PUSH1 0xFF AND EQ ISZERO JUMPDEST ISZERO PUSH2 0x14AA JUMPI PUSH1 0x40 MLOAD PUSH32 0xA9D6D02A00000000000000000000000000000000000000000000000000000000 DUP2 MSTORE PUSH1 0x4 ADD PUSH1 0x40 MLOAD DUP1 SWAP2 SUB SWAP1 REVERT JUMPDEST PUSH1 0x0 DUP6 MLOAD EQ DUP1 PUSH2 0x14BB JUMPI POP PUSH1 0x0 DUP5 MLOAD EQ JUMPDEST ISZERO PUSH2 0x14F2 JUMPI PUSH1 0x40 MLOAD PUSH32 0x3B1BC5CC00000000000000000000000000000000000000000000000000000000 DUP2 MSTORE PUSH1 0x4 ADD PUSH1 0x40 MLOAD DUP1 SWAP2 SUB SWAP1 REVERT JUMPDEST PUSH1 0x0 PUSH1 0xA PUSH1 0x0 CALLER PUSH20 0xFFFFFFFFFFFFFFFFFFFFFFFFFFFFFFFFFFFFFFFF AND PUSH20 0xFFFFFFFFFFFFFFFFFFFFFFFFFFFFFFFFFFFFFFFF AND DUP2 MSTORE PUSH1 0x20 ADD SWAP1 DUP2 MSTORE PUSH1 0x20 ADD PUSH1 0x0 KECCAK256 PUSH1 0x0 SWAP1 SLOAD SWAP1 PUSH2 0x100 EXP SWAP1 DIV PUSH20 0xFFFFFFFFFFFFFFFFFFFFFFFFFFFFFFFFFFFFFFFF AND SWAP1 POP PUSH1 0x0 PUSH1 0x6 PUSH1 0x0 DUP4 PUSH20 0xFFFFFFFFFFFFFFFFFFFFFFFFFFFFFFFFFFFFFFFF AND PUSH20 0xFFFFFFFFFFFFFFFFFFFFFFFFFFFFFFFFFFFFFFFF AND DUP2 MSTORE PUSH1 0x20 ADD SWAP1 DUP2 MSTORE PUSH1 0x20 ADD PUSH1 0x0 KECCAK256 SWAP1 POP DUP7 DUP2 PUSH1 0x1 ADD SWAP1 DUP2 PUSH2 0x15AA SWAP2 SWAP1 PUSH2 0x57C2 JUMP JUMPDEST POP DUP6 DUP2 PUSH1 0x2 ADD SWAP1 DUP2 PUSH2 0x15BC SWAP2 SWAP1 PUSH2 0x57C2 JUMP JUMPDEST POP DUP5 DUP2 PUSH1 0x4 ADD SWAP1 DUP2 PUSH2 0x15CE SWAP2 SWAP1 PUSH2 0x57C2 JUMP JUMPDEST POP DUP4 DUP2 PUSH1 0x5 ADD SWAP1 DUP2 PUSH2 0x15E0 SWAP2 SWAP1 PUSH2 0x57C2 JUMP JUMPDEST POP POP POP POP POP POP POP POP JUMP JUMPDEST PUSH2 0x15F2 PUSH2 0x4129 JUMP JUMPDEST PUSH1 0x0 DUP3 GT DUP1 ISZERO PUSH2 0x1614 JUMPI POP PUSH1 0x0 PUSH1 0x14 SWAP1 SLOAD SWAP1 PUSH2 0x100 EXP SWAP1 DIV PUSH1 0xFF AND PUSH1 0xFF AND DUP3 GT ISZERO JUMPDEST PUSH2 0x1653 JUMPI PUSH1 0x40 MLOAD PUSH32 0x8C379A000000000000000000000000000000000000000000000000000000000 DUP2 MSTORE PUSH1 0x4 ADD PUSH2 0x164A SWAP1 PUSH2 0x58E0 JUMP JUMPDEST PUSH1 0x40 MLOAD DUP1 SWAP2 SUB SWAP1 REVERT JUMPDEST PUSH1 0x4 PUSH1 0x0 DUP4 DUP2 MSTORE PUSH1 0x20 ADD SWAP1 DUP2 MSTORE PUSH1 0x20 ADD PUSH1 0x0 KECCAK256 PUSH1 0x40 MLOAD DUP1 PUSH2 0x100 ADD PUSH1 0x40 MSTORE SWAP1 DUP2 PUSH1 0x0 DUP3 ADD PUSH1 0x0 SWAP1 SLOAD SWAP1 PUSH2 0x100 EXP SWAP1 DIV PUSH1 0xFF AND PUSH1 0xFF AND PUSH1 0xFF AND DUP2 MSTORE PUSH1 0x20 ADD PUSH1 0x0 DUP3 ADD PUSH1 0x1 SWAP1 SLOAD SWAP1 PUSH2 0x100 EXP SWAP1 DIV PUSH20 0xFFFFFFFFFFFFFFFFFFFFFFFFFFFFFFFFFFFFFFFF AND PUSH20 0xFFFFFFFFFFFFFFFFFFFFFFFFFFFFFFFFFFFFFFFF AND PUSH20 0xFFFFFFFFFFFFFFFFFFFFFFFFFFFFFFFFFFFFFFFF AND DUP2 MSTORE PUSH1 0x20 ADD PUSH1 0x1 DUP3 ADD DUP1 SLOAD PUSH2 0x16F5 SWAP1 PUSH2 0x55E5 JUMP JUMPDEST DUP1 PUSH1 0x1F ADD PUSH1 0x20 DUP1 SWAP2 DIV MUL PUSH1 0x20 ADD PUSH1 0x40 MLOAD SWAP1 DUP2 ADD PUSH1 0x40 MSTORE DUP1 SWAP3 SWAP2 SWAP1 DUP2 DUP2 MSTORE PUSH1 0x20 ADD DUP3 DUP1 SLOAD PUSH2 0x1721 SWAP1 PUSH2 0x55E5 JUMP JUMPDEST DUP1 ISZERO PUSH2 0x176E JUMPI DUP1 PUSH1 0x1F LT PUSH2 0x1743 JUMPI PUSH2 0x100 DUP1 DUP4 SLOAD DIV MUL DUP4 MSTORE SWAP2 PUSH1 0x20 ADD SWAP2 PUSH2 0x176E JUMP JUMPDEST DUP3 ADD SWAP2 SWAP1 PUSH1 0x0 MSTORE PUSH1 0x20 PUSH1 0x0 KECCAK256 SWAP1 JUMPDEST DUP2 SLOAD DUP2 MSTORE SWAP1 PUSH1 0x1 ADD SWAP1 PUSH1 0x20 ADD DUP1 DUP4 GT PUSH2 0x1751 JUMPI DUP3 SWAP1 SUB PUSH1 0x1F AND DUP3 ADD SWAP2 JUMPDEST POP POP POP POP POP DUP2 MSTORE PUSH1 0x20 ADD PUSH1 0x2 DUP3 ADD DUP1 SLOAD PUSH2 0x1787 SWAP1 PUSH2 0x55E5 JUMP JUMPDEST DUP1 PUSH1 0x1F ADD PUSH1 0x20 DUP1 SWAP2 DIV MUL PUSH1 0x20 ADD PUSH1 0x40 MLOAD SWAP1 DUP2 ADD PUSH1 0x40 MSTORE DUP1 SWAP3 SWAP2 SWAP1 DUP2 DUP2 MSTORE PUSH1 0x20 ADD DUP3 DUP1 SLOAD PUSH2 0x17B3 SWAP1 PUSH2 0x55E5 JUMP JUMPDEST DUP1 ISZERO PUSH2 0x1800 JUMPI DUP1 PUSH1 0x1F LT PUSH2 0x17D5 JUMPI PUSH2 0x100 DUP1 DUP4 SLOAD DIV MUL DUP4 MSTORE SWAP2 PUSH1 0x20 ADD SWAP2 PUSH2 0x1800 JUMP JUMPDEST DUP3 ADD SWAP2 SWAP1 PUSH1 0x0 MSTORE PUSH1 0x20 PUSH1 0x0 KECCAK256 SWAP1 JUMPDEST DUP2 SLOAD DUP2 MSTORE SWAP1 PUSH1 0x1 ADD SWAP1 PUSH1 0x20 ADD DUP1 DUP4 GT PUSH2 0x17E3 JUMPI DUP3 SWAP1 SUB PUSH1 0x1F AND DUP3 ADD SWAP2 JUMPDEST POP POP POP POP POP DUP2 MSTORE PUSH1 0x20 ADD PUSH1 0x3 DUP3 ADD SLOAD DUP2 MSTORE PUSH1 0x20 ADD PUSH1 0x4 DUP3 ADD PUSH1 0x0 SWAP1 SLOAD SWAP1 PUSH2 0x100 EXP SWAP1 DIV PUSH1 0xFF AND ISZERO ISZERO ISZERO ISZERO DUP2 MSTORE PUSH1 0x20 ADD PUSH1 0x5 DUP3 ADD DUP1 SLOAD DUP1 PUSH1 0x20 MUL PUSH1 0x20 ADD PUSH1 0x40 MLOAD SWAP1 DUP2 ADD PUSH1 0x40 MSTORE DUP1 SWAP3 SWAP2 SWAP1 DUP2 DUP2 MSTORE PUSH1 0x20 ADD DUP3 DUP1 SLOAD DUP1 ISZERO PUSH2 0x18B3 JUMPI PUSH1 0x20 MUL DUP3 ADD SWAP2 SWAP1 PUSH1 0x0 MSTORE PUSH1 0x20 PUSH1 0x0 KECCAK256 SWAP1 JUMPDEST DUP2 PUSH1 0x0 SWAP1 SLOAD SWAP1 PUSH2 0x100 EXP SWAP1 DIV PUSH20 0xFFFFFFFFFFFFFFFFFFFFFFFFFFFFFFFFFFFFFFFF AND PUSH20 0xFFFFFFFFFFFFFFFFFFFFFFFFFFFFFFFFFFFFFFFF AND DUP2 MSTORE PUSH1 0x20 ADD SWAP1 PUSH1 0x1 ADD SWAP1 DUP1 DUP4 GT PUSH2 0x1869 JUMPI JUMPDEST POP POP POP POP POP DUP2 MSTORE PUSH1 0x20 ADD PUSH1 0x6 DUP3 ADD PUSH1 0x0 SWAP1 SLOAD SWAP1 PUSH2 0x100 EXP SWAP1 DIV PUSH20 0xFFFFFFFFFFFFFFFFFFFFFFFFFFFFFFFFFFFFFFFF AND PUSH20 0xFFFFFFFFFFFFFFFFFFFFFFFFFFFFFFFFFFFFFFFF AND PUSH20 0xFFFFFFFFFFFFFFFFFFFFFFFFFFFFFFFFFFFFFFFF AND DUP2 MSTORE POP POP SWAP1 POP SWAP2 SWAP1 POP JUMP JUMPDEST PUSH1 0x0 PUSH1 0xA PUSH1 0x0 CALLER PUSH20 0xFFFFFFFFFFFFFFFFFFFFFFFFFFFFFFFFFFFFFFFF AND PUSH20 0xFFFFFFFFFFFFFFFFFFFFFFFFFFFFFFFFFFFFFFFF AND DUP2 MSTORE PUSH1 0x20 ADD SWAP1 DUP2 MSTORE PUSH1 0x20 ADD PUSH1 0x0 KECCAK256 PUSH1 0x0 SWAP1 SLOAD SWAP1 PUSH2 0x100 EXP SWAP1 DIV PUSH20 0xFFFFFFFFFFFFFFFFFFFFFFFFFFFFFFFFFFFFFFFF AND SWAP1 POP PUSH1 0x1 PUSH1 0x8 PUSH1 0x0 CALLER PUSH20 0xFFFFFFFFFFFFFFFFFFFFFFFFFFFFFFFFFFFFFFFF AND PUSH20 0xFFFFFFFFFFFFFFFFFFFFFFFFFFFFFFFFFFFFFFFF AND DUP2 MSTORE PUSH1 0x20 ADD SWAP1 DUP2 MSTORE PUSH1 0x20 ADD PUSH1 0x0 KECCAK256 PUSH1 0x0 SWAP1 SLOAD SWAP1 PUSH2 0x100 EXP SWAP1 DIV PUSH1 0xFF AND PUSH1 0xFF AND EQ ISZERO DUP1 ISZERO PUSH2 0x1A2D JUMPI POP PUSH1 0x1 PUSH1 0x8 PUSH1 0x0 DUP4 PUSH20 0xFFFFFFFFFFFFFFFFFFFFFFFFFFFFFFFFFFFFFFFF AND PUSH20 0xFFFFFFFFFFFFFFFFFFFFFFFFFFFFFFFFFFFFFFFF AND DUP2 MSTORE PUSH1 0x20 ADD SWAP1 DUP2 MSTORE PUSH1 0x20 ADD PUSH1 0x0 KECCAK256 PUSH1 0x0 SWAP1 SLOAD SWAP1 PUSH2 0x100 EXP SWAP1 DIV PUSH1 0xFF AND PUSH1 0xFF AND EQ ISZERO JUMPDEST ISZERO PUSH2 0x1A64 JUMPI PUSH1 0x40 MLOAD PUSH32 0xA9D6D02A00000000000000000000000000000000000000000000000000000000 DUP2 MSTORE PUSH1 0x4 ADD PUSH1 0x40 MLOAD DUP1 SWAP2 SUB SWAP1 REVERT JUMPDEST PUSH1 0x0 DUP3 GT DUP1 ISZERO PUSH2 0x1A86 JUMPI POP PUSH1 0x0 PUSH1 0x14 SWAP1 SLOAD SWAP1 PUSH2 0x100 EXP SWAP1 DIV PUSH1 0xFF AND PUSH1 0xFF AND DUP3 GT ISZERO JUMPDEST PUSH2 0x1AC5 JUMPI PUSH1 0x40 MLOAD PUSH32 0x8C379A000000000000000000000000000000000000000000000000000000000 DUP2 MSTORE PUSH1 0x4 ADD PUSH2 0x1ABC SWAP1 PUSH2 0x594C JUMP JUMPDEST PUSH1 0x40 MLOAD DUP1 SWAP2 SUB SWAP1 REVERT JUMPDEST PUSH1 0x0 PUSH1 0xA PUSH1 0x0 CALLER PUSH20 0xFFFFFFFFFFFFFFFFFFFFFFFFFFFFFFFFFFFFFFFF AND PUSH20 0xFFFFFFFFFFFFFFFFFFFFFFFFFFFFFFFFFFFFFFFF AND DUP2 MSTORE PUSH1 0x20 ADD SWAP1 DUP2 MSTORE PUSH1 0x20 ADD PUSH1 0x0 KECCAK256 PUSH1 0x0 SWAP1 SLOAD SWAP1 PUSH2 0x100 EXP SWAP1 DIV PUSH20 0xFFFFFFFFFFFFFFFFFFFFFFFFFFFFFFFFFFFFFFFF AND SWAP1 POP PUSH1 0x0 PUSH1 0x4 PUSH1 0x0 DUP6 DUP2 MSTORE PUSH1 0x20 ADD SWAP1 DUP2 MSTORE PUSH1 0x20 ADD PUSH1 0x0 KECCAK256 SWAP1 POP DUP2 PUSH20 0xFFFFFFFFFFFFFFFFFFFFFFFFFFFFFFFFFFFFFFFF AND DUP2 PUSH1 0x0 ADD PUSH1 0x1 SWAP1 SLOAD SWAP1 PUSH2 0x100 EXP SWAP1 DIV PUSH20 0xFFFFFFFFFFFFFFFFFFFFFFFFFFFFFFFFFFFFFFFF AND PUSH20 0xFFFFFFFFFFFFFFFFFFFFFFFFFFFFFFFFFFFFFFFF AND EQ PUSH2 0x1B9C JUMPI PUSH1 0x0 DUP1 REVERT JUMPDEST DUP1 PUSH1 0x4 ADD PUSH1 0x0 SWAP1 SLOAD SWAP1 PUSH2 0x100 EXP SWAP1 DIV PUSH1 0xFF AND ISZERO PUSH2 0x1BEE JUMPI PUSH1 0x40 MLOAD PUSH32 0x8C379A000000000000000000000000000000000000000000000000000000000 DUP2 MSTORE PUSH1 0x4 ADD PUSH2 0x1BE5 SWAP1 PUSH2 0x59B8 JUMP JUMPDEST PUSH1 0x40 MLOAD DUP1 SWAP2 SUB SWAP1 REVERT JUMPDEST DUP1 PUSH1 0x3 ADD SLOAD CALLVALUE LT ISZERO PUSH2 0x1C35 JUMPI PUSH1 0x40 MLOAD PUSH32 0x8C379A000000000000000000000000000000000000000000000000000000000 DUP2 MSTORE PUSH1 0x4 ADD PUSH2 0x1C2C SWAP1 PUSH2 0x5A24 JUMP JUMPDEST PUSH1 0x40 MLOAD DUP1 SWAP2 SUB SWAP1 REVERT JUMPDEST CALLVALUE PUSH1 0x6 PUSH1 0x0 DUP5 PUSH20 0xFFFFFFFFFFFFFFFFFFFFFFFFFFFFFFFFFFFFFFFF AND PUSH20 0xFFFFFFFFFFFFFFFFFFFFFFFFFFFFFFFFFFFFFFFF AND DUP2 MSTORE PUSH1 0x20 ADD SWAP1 DUP2 MSTORE PUSH1 0x20 ADD PUSH1 0x0 KECCAK256 PUSH1 0x3 ADD PUSH1 0x0 DUP3 DUP3 SLOAD PUSH2 0x1C87 SWAP2 SWAP1 PUSH2 0x5A73 JUMP JUMPDEST SWAP3 POP POP DUP2 SWAP1 SSTORE POP CALLVALUE PUSH1 0x7 PUSH1 0x0 DUP5 PUSH20 0xFFFFFFFFFFFFFFFFFFFFFFFFFFFFFFFFFFFFFFFF AND PUSH20 0xFFFFFFFFFFFFFFFFFFFFFFFFFFFFFFFFFFFFFFFF AND DUP2 MSTORE PUSH1 0x20 ADD SWAP1 DUP2 MSTORE PUSH1 0x20 ADD PUSH1 0x0 KECCAK256 PUSH1 0x0 DUP7 DUP2 MSTORE PUSH1 0x20 ADD SWAP1 DUP2 MSTORE PUSH1 0x20 ADD PUSH1 0x0 KECCAK256 PUSH1 0x0 DUP3 DUP3 SLOAD PUSH2 0x1CEE SWAP2 SWAP1 PUSH2 0x5A73 JUMP JUMPDEST SWAP3 POP POP DUP2 SWAP1 SSTORE POP PUSH32 0xE030E47E27825A2AD1B19E4CF2E70BFBFB3124AF275C7727A82B114BA7B29A85 DUP5 CALLER CALLVALUE PUSH1 0x40 MLOAD PUSH2 0x1D28 SWAP4 SWAP3 SWAP2 SWAP1 PUSH2 0x5AA7 JUMP JUMPDEST PUSH1 0x40 MLOAD DUP1 SWAP2 SUB SWAP1 LOG1 POP POP POP POP JUMP JUMPDEST PUSH1 0x1 SLOAD DUP2 JUMP JUMPDEST PUSH1 0x0 DUP3 GT DUP1 ISZERO PUSH2 0x1D5E JUMPI POP PUSH1 0x0 PUSH1 0x14 SWAP1 SLOAD SWAP1 PUSH2 0x100 EXP SWAP1 DIV PUSH1 0xFF AND PUSH1 0xFF AND DUP3 GT ISZERO JUMPDEST PUSH2 0x1D9D JUMPI PUSH1 0x40 MLOAD PUSH32 0x8C379A000000000000000000000000000000000000000000000000000000000 DUP2 MSTORE PUSH1 0x4 ADD PUSH2 0x1D94 SWAP1 PUSH2 0x58E0 JUMP JUMPDEST PUSH1 0x40 MLOAD DUP1 SWAP2 SUB SWAP1 REVERT JUMPDEST PUSH1 0x0 PUSH1 0x4 PUSH1 0x0 DUP5 DUP2 MSTORE PUSH1 0x20 ADD SWAP1 DUP2 MSTORE PUSH1 0x20 ADD PUSH1 0x0 KECCAK256 SWAP1 POP PUSH1 0x0 PUSH1 0xA PUSH1 0x0 CALLER PUSH20 0xFFFFFFFFFFFFFFFFFFFFFFFFFFFFFFFFFFFFFFFF AND PUSH20 0xFFFFFFFFFFFFFFFFFFFFFFFFFFFFFFFFFFFFFFFF AND DUP2 MSTORE PUSH1 0x20 ADD SWAP1 DUP2 MSTORE PUSH1 0x20 ADD PUSH1 0x0 KECCAK256 PUSH1 0x0 SWAP1 SLOAD SWAP1 PUSH2 0x100 EXP SWAP1 DIV PUSH20 0xFFFFFFFFFFFFFFFFFFFFFFFFFFFFFFFFFFFFFFFF AND SWAP1 POP DUP1 PUSH20 0xFFFFFFFFFFFFFFFFFFFFFFFFFFFFFFFFFFFFFFFF AND DUP3 PUSH1 0x0 ADD PUSH1 0x1 SWAP1 SLOAD SWAP1 PUSH2 0x100 EXP SWAP1 DIV PUSH20 0xFFFFFFFFFFFFFFFFFFFFFFFFFFFFFFFFFFFFFFFF AND PUSH20 0xFFFFFFFFFFFFFFFFFFFFFFFFFFFFFFFFFFFFFFFF AND EQ PUSH2 0x1E74 JUMPI PUSH1 0x0 DUP1 REVERT JUMPDEST PUSH2 0x1E7E DUP3 DUP5 PUSH2 0x4014 JUMP JUMPDEST PUSH2 0x1EBD JUMPI PUSH1 0x40 MLOAD PUSH32 0x8C379A000000000000000000000000000000000000000000000000000000000 DUP2 MSTORE PUSH1 0x4 ADD PUSH2 0x1EB4 SWAP1 PUSH2 0x5B2A JUMP JUMPDEST PUSH1 0x40 MLOAD DUP1 SWAP2 SUB SWAP1 REVERT JUMPDEST PUSH1 0x1 DUP3 PUSH1 0x4 ADD PUSH1 0x0 PUSH2 0x100 EXP DUP2 SLOAD DUP2 PUSH1 0xFF MUL NOT AND SWAP1 DUP4 ISZERO ISZERO MUL OR SWAP1 SSTORE POP PUSH1 0x3 PUSH1 0x0 DUP2 SLOAD DUP1 SWAP3 SWAP2 SWAP1 PUSH2 0x1EED SWAP1 PUSH2 0x5B4A JUMP JUMPDEST SWAP2 SWAP1 POP SSTORE POP PUSH1 0x5 PUSH1 0x0 DUP5 PUSH20 0xFFFFFFFFFFFFFFFFFFFFFFFFFFFFFFFFFFFFFFFF AND PUSH20 0xFFFFFFFFFFFFFFFFFFFFFFFFFFFFFFFFFFFFFFFF AND DUP2 MSTORE PUSH1 0x20 ADD SWAP1 DUP2 MSTORE PUSH1 0x20 ADD PUSH1 0x0 KECCAK256 PUSH1 0x8 ADD PUSH1 0x0 DUP2 SLOAD DUP1 SWAP3 SWAP2 SWAP1 PUSH2 0x1F45 SWAP1 PUSH2 0x5B4A JUMP JUMPDEST SWAP2 SWAP1 POP SSTORE POP PUSH32 0x4DBBA472101E9F148A3A5ECBE793F0EE16A7EFE4BF3F8CBFAB5330E1642EF955 DUP5 DUP5 DUP5 PUSH1 0x3 ADD SLOAD PUSH1 0x40 MLOAD PUSH2 0x1F81 SWAP4 SWAP3 SWAP2 SWAP1 PUSH2 0x5AA7 JUMP JUMPDEST PUSH1 0x40 MLOAD DUP1 SWAP2 SUB SWAP1 LOG1 POP POP POP POP JUMP JUMPDEST PUSH1 0x0 PUSH1 0xA PUSH1 0x0 CALLER PUSH20 0xFFFFFFFFFFFFFFFFFFFFFFFFFFFFFFFFFFFFFFFF AND PUSH20 0xFFFFFFFFFFFFFFFFFFFFFFFFFFFFFFFFFFFFFFFF AND DUP2 MSTORE PUSH1 0x20 ADD SWAP1 DUP2 MSTORE PUSH1 0x20 ADD PUSH1 0x0 KECCAK256 PUSH1 0x0 SWAP1 SLOAD SWAP1 PUSH2 0x100 EXP SWAP1 DIV PUSH20 0xFFFFFFFFFFFFFFFFFFFFFFFFFFFFFFFFFFFFFFFF AND SWAP1 POP PUSH1 0x1 PUSH1 0x8 PUSH1 0x0 CALLER PUSH20 0xFFFFFFFFFFFFFFFFFFFFFFFFFFFFFFFFFFFFFFFF AND PUSH20 0xFFFFFFFFFFFFFFFFFFFFFFFFFFFFFFFFFFFFFFFF AND DUP2 MSTORE PUSH1 0x20 ADD SWAP1 DUP2 MSTORE PUSH1 0x20 ADD PUSH1 0x0 KECCAK256 PUSH1 0x0 SWAP1 SLOAD SWAP1 PUSH2 0x100 EXP SWAP1 DIV PUSH1 0xFF AND PUSH1 0xFF AND EQ ISZERO DUP1 ISZERO PUSH2 0x20A3 JUMPI POP PUSH1 0x1 PUSH1 0x8 PUSH1 0x0 DUP4 PUSH20 0xFFFFFFFFFFFFFFFFFFFFFFFFFFFFFFFFFFFFFFFF AND PUSH20 0xFFFFFFFFFFFFFFFFFFFFFFFFFFFFFFFFFFFFFFFF AND DUP2 MSTORE PUSH1 0x20 ADD SWAP1 DUP2 MSTORE PUSH1 0x20 ADD PUSH1 0x0 KECCAK256 PUSH1 0x0 SWAP1 SLOAD SWAP1 PUSH2 0x100 EXP SWAP1 DIV PUSH1 0xFF AND PUSH1 0xFF AND EQ ISZERO JUMPDEST ISZERO PUSH2 0x20DA JUMPI PUSH1 0x40 MLOAD PUSH32 0xA9D6D02A00000000000000000000000000000000000000000000000000000000 DUP2 MSTORE PUSH1 0x4 ADD PUSH1 0x40 MLOAD DUP1 SWAP2 SUB SWAP1 REVERT JUMPDEST PUSH1 0x0 PUSH1 0x14 DUP2 DUP2 SWAP1 SLOAD SWAP1 PUSH2 0x100 EXP SWAP1 DIV PUSH1 0xFF AND DUP1 SWAP3 SWAP2 SWAP1 PUSH2 0x20F9 SWAP1 PUSH2 0x5B92 JUMP JUMPDEST SWAP2 SWAP1 PUSH2 0x100 EXP DUP2 SLOAD DUP2 PUSH1 0xFF MUL NOT AND SWAP1 DUP4 PUSH1 0xFF AND MUL OR SWAP1 SSTORE POP POP PUSH1 0x0 DUP1 PUSH1 0x14 SWAP1 SLOAD SWAP1 PUSH2 0x100 EXP SWAP1 DIV PUSH1 0xFF AND SWAP1 POP PUSH1 0x0 PUSH1 0xA PUSH1 0x0 CALLER PUSH20 0xFFFFFFFFFFFFFFFFFFFFFFFFFFFFFFFFFFFFFFFF AND PUSH20 0xFFFFFFFFFFFFFFFFFFFFFFFFFFFFFFFFFFFFFFFF AND DUP2 MSTORE PUSH1 0x20 ADD SWAP1 DUP2 MSTORE PUSH1 0x20 ADD PUSH1 0x0 KECCAK256 PUSH1 0x0 SWAP1 SLOAD SWAP1 PUSH2 0x100 EXP SWAP1 DIV PUSH20 0xFFFFFFFFFFFFFFFFFFFFFFFFFFFFFFFFFFFFFFFF AND SWAP1 POP PUSH1 0x40 MLOAD DUP1 PUSH2 0x100 ADD PUSH1 0x40 MSTORE DUP1 DUP4 PUSH1 0xFF AND DUP2 MSTORE PUSH1 0x20 ADD DUP3 PUSH20 0xFFFFFFFFFFFFFFFFFFFFFFFFFFFFFFFFFFFFFFFF AND DUP2 MSTORE PUSH1 0x20 ADD DUP8 DUP2 MSTORE PUSH1 0x20 ADD DUP7 DUP2 MSTORE PUSH1 0x20 ADD DUP6 DUP2 MSTORE PUSH1 0x20 ADD PUSH1 0x0 ISZERO ISZERO DUP2 MSTORE PUSH1 0x20 ADD PUSH1 0x0 PUSH8 0xFFFFFFFFFFFFFFFF DUP2 GT ISZERO PUSH2 0x21F0 JUMPI PUSH2 0x21EF PUSH2 0x49EE JUMP JUMPDEST JUMPDEST PUSH1 0x40 MLOAD SWAP1 DUP1 DUP3 MSTORE DUP1 PUSH1 0x20 MUL PUSH1 0x20 ADD DUP3 ADD PUSH1 0x40 MSTORE DUP1 ISZERO PUSH2 0x221E JUMPI DUP2 PUSH1 0x20 ADD PUSH1 0x20 DUP3 MUL DUP1 CALLDATASIZE DUP4 CALLDATACOPY DUP1 DUP3 ADD SWAP2 POP POP SWAP1 POP JUMPDEST POP DUP2 MSTORE PUSH1 0x20 ADD PUSH1 0x0 PUSH20 0xFFFFFFFFFFFFFFFFFFFFFFFFFFFFFFFFFFFFFFFF AND DUP2 MSTORE POP PUSH1 0x4 PUSH1 0x0 DUP5 PUSH1 0xFF AND DUP2 MSTORE PUSH1 0x20 ADD SWAP1 DUP2 MSTORE PUSH1 0x20 ADD PUSH1 0x0 KECCAK256 PUSH1 0x0 DUP3 ADD MLOAD DUP2 PUSH1 0x0 ADD PUSH1 0x0 PUSH2 0x100 EXP DUP2 SLOAD DUP2 PUSH1 0xFF MUL NOT AND SWAP1 DUP4 PUSH1 0xFF AND MUL OR SWAP1 SSTORE POP PUSH1 0x20 DUP3 ADD MLOAD DUP2 PUSH1 0x0 ADD PUSH1 0x1 PUSH2 0x100 EXP DUP2 SLOAD DUP2 PUSH20 0xFFFFFFFFFFFFFFFFFFFFFFFFFFFFFFFFFFFFFFFF MUL NOT AND SWAP1 DUP4 PUSH20 0xFFFFFFFFFFFFFFFFFFFFFFFFFFFFFFFFFFFFFFFF AND MUL OR SWAP1 SSTORE POP PUSH1 0x40 DUP3 ADD MLOAD DUP2 PUSH1 0x1 ADD SWAP1 DUP2 PUSH2 0x22D2 SWAP2 SWAP1 PUSH2 0x57C2 JUMP JUMPDEST POP PUSH1 0x60 DUP3 ADD MLOAD DUP2 PUSH1 0x2 ADD SWAP1 DUP2 PUSH2 0x22E8 SWAP2 SWAP1 PUSH2 0x57C2 JUMP JUMPDEST POP PUSH1 0x80 DUP3 ADD MLOAD DUP2 PUSH1 0x3 ADD SSTORE PUSH1 0xA0 DUP3 ADD MLOAD DUP2 PUSH1 0x4 ADD PUSH1 0x0 PUSH2 0x100 EXP DUP2 SLOAD DUP2 PUSH1 0xFF MUL NOT AND SWAP1 DUP4 ISZERO ISZERO MUL OR SWAP1 SSTORE POP PUSH1 0xC0 DUP3 ADD MLOAD DUP2 PUSH1 0x5 ADD SWAP1 DUP1 MLOAD SWAP1 PUSH1 0x20 ADD SWAP1 PUSH2 0x232F SWAP3 SWAP2 SWAP1 PUSH2 0x419F JUMP JUMPDEST POP PUSH1 0xE0 DUP3 ADD MLOAD DUP2 PUSH1 0x6 ADD PUSH1 0x0 PUSH2 0x100 EXP DUP2 SLOAD DUP2 PUSH20 0xFFFFFFFFFFFFFFFFFFFFFFFFFFFFFFFFFFFFFFFF MUL NOT AND SWAP1 DUP4 PUSH20 0xFFFFFFFFFFFFFFFFFFFFFFFFFFFFFFFFFFFFFFFF AND MUL OR SWAP1 SSTORE POP SWAP1 POP POP PUSH32 0xB63F0FDFB200B05C8B95FB4DCF8F8ABD30F0B6884D532792E705AFAB4F37380A DUP3 DUP8 PUSH1 0x40 MLOAD PUSH2 0x23AB SWAP3 SWAP2 SWAP1 PUSH2 0x5BEC JUMP JUMPDEST PUSH1 0x40 MLOAD DUP1 SWAP2 SUB SWAP1 LOG1 POP POP POP POP POP POP JUMP JUMPDEST PUSH2 0x23C3 PUSH2 0x4229 JUMP JUMPDEST PUSH1 0x6 PUSH1 0x0 DUP4 PUSH20 0xFFFFFFFFFFFFFFFFFFFFFFFFFFFFFFFFFFFFFFFF AND PUSH20 0xFFFFFFFFFFFFFFFFFFFFFFFFFFFFFFFFFFFFFFFF AND DUP2 MSTORE PUSH1 0x20 ADD SWAP1 DUP2 MSTORE PUSH1 0x20 ADD PUSH1 0x0 KECCAK256 PUSH1 0x40 MLOAD DUP1 PUSH2 0x100 ADD PUSH1 0x40 MSTORE SWAP1 DUP2 PUSH1 0x0 DUP3 ADD PUSH1 0x0 SWAP1 SLOAD SWAP1 PUSH2 0x100 EXP SWAP1 DIV PUSH20 0xFFFFFFFFFFFFFFFFFFFFFFFFFFFFFFFFFFFFFFFF AND PUSH20 0xFFFFFFFFFFFFFFFFFFFFFFFFFFFFFFFFFFFFFFFF AND PUSH20 0xFFFFFFFFFFFFFFFFFFFFFFFFFFFFFFFFFFFFFFFF AND DUP2 MSTORE PUSH1 0x20 ADD PUSH1 0x1 DUP3 ADD DUP1 SLOAD PUSH2 0x2474 SWAP1 PUSH2 0x55E5 JUMP JUMPDEST DUP1 PUSH1 0x1F ADD PUSH1 0x20 DUP1 SWAP2 DIV MUL PUSH1 0x20 ADD PUSH1 0x40 MLOAD SWAP1 DUP2 ADD PUSH1 0x40 MSTORE DUP1 SWAP3 SWAP2 SWAP1 DUP2 DUP2 MSTORE PUSH1 0x20 ADD DUP3 DUP1 SLOAD PUSH2 0x24A0 SWAP1 PUSH2 0x55E5 JUMP JUMPDEST DUP1 ISZERO PUSH2 0x24ED JUMPI DUP1 PUSH1 0x1F LT PUSH2 0x24C2 JUMPI PUSH2 0x100 DUP1 DUP4 SLOAD DIV MUL DUP4 MSTORE SWAP2 PUSH1 0x20 ADD SWAP2 PUSH2 0x24ED JUMP JUMPDEST DUP3 ADD SWAP2 SWAP1 PUSH1 0x0 MSTORE PUSH1 0x20 PUSH1 0x0 KECCAK256 SWAP1 JUMPDEST DUP2 SLOAD DUP2 MSTORE SWAP1 PUSH1 0x1 ADD SWAP1 PUSH1 0x20 ADD DUP1 DUP4 GT PUSH2 0x24D0 JUMPI DUP3 SWAP1 SUB PUSH1 0x1F AND DUP3 ADD SWAP2 JUMPDEST POP POP POP POP POP DUP2 MSTORE PUSH1 0x20 ADD PUSH1 0x2 DUP3 ADD DUP1 SLOAD PUSH2 0x2506 SWAP1 PUSH2 0x55E5 JUMP JUMPDEST DUP1 PUSH1 0x1F ADD PUSH1 0x20 DUP1 SWAP2 DIV MUL PUSH1 0x20 ADD PUSH1 0x40 MLOAD SWAP1 DUP2 ADD PUSH1 0x40 MSTORE DUP1 SWAP3 SWAP2 SWAP1 DUP2 DUP2 MSTORE PUSH1 0x20 ADD DUP3 DUP1 SLOAD PUSH2 0x2532 SWAP1 PUSH2 0x55E5 JUMP JUMPDEST DUP1 ISZERO PUSH2 0x257F JUMPI DUP1 PUSH1 0x1F LT PUSH2 0x2554 JUMPI PUSH2 0x100 DUP1 DUP4 SLOAD DIV MUL DUP4 MSTORE SWAP2 PUSH1 0x20 ADD SWAP2 PUSH2 0x257F JUMP JUMPDEST DUP3 ADD SWAP2 SWAP1 PUSH1 0x0 MSTORE PUSH1 0x20 PUSH1 0x0 KECCAK256 SWAP1 JUMPDEST DUP2 SLOAD DUP2 MSTORE SWAP1 PUSH1 0x1 ADD SWAP1 PUSH1 0x20 ADD DUP1 DUP4 GT PUSH2 0x2562 JUMPI DUP3 SWAP1 SUB PUSH1 0x1F AND DUP3 ADD SWAP2 JUMPDEST POP POP POP POP POP DUP2 MSTORE PUSH1 0x20 ADD PUSH1 0x3 DUP3 ADD SLOAD DUP2 MSTORE PUSH1 0x20 ADD PUSH1 0x4 DUP3 ADD DUP1 SLOAD PUSH2 0x25A2 SWAP1 PUSH2 0x55E5 JUMP JUMPDEST DUP1 PUSH1 0x1F ADD PUSH1 0x20 DUP1 SWAP2 DIV MUL PUSH1 0x20 ADD PUSH1 0x40 MLOAD SWAP1 DUP2 ADD PUSH1 0x40 MSTORE DUP1 SWAP3 SWAP2 SWAP1 DUP2 DUP2 MSTORE PUSH1 0x20 ADD DUP3 DUP1 SLOAD PUSH2 0x25CE SWAP1 PUSH2 0x55E5 JUMP JUMPDEST DUP1 ISZERO PUSH2 0x261B JUMPI DUP1 PUSH1 0x1F LT PUSH2 0x25F0 JUMPI PUSH2 0x100 DUP1 DUP4 SLOAD DIV MUL DUP4 MSTORE SWAP2 PUSH1 0x20 ADD SWAP2 PUSH2 0x261B JUMP JUMPDEST DUP3 ADD SWAP2 SWAP1 PUSH1 0x0 MSTORE PUSH1 0x20 PUSH1 0x0 KECCAK256 SWAP1 JUMPDEST DUP2 SLOAD DUP2 MSTORE SWAP1 PUSH1 0x1 ADD SWAP1 PUSH1 0x20 ADD DUP1 DUP4 GT PUSH2 0x25FE JUMPI DUP3 SWAP1 SUB PUSH1 0x1F AND DUP3 ADD SWAP2 JUMPDEST POP POP POP POP POP DUP2 MSTORE PUSH1 0x20 ADD PUSH1 0x5 DUP3 ADD DUP1 SLOAD PUSH2 0x2634 SWAP1 PUSH2 0x55E5 JUMP JUMPDEST DUP1 PUSH1 0x1F ADD PUSH1 0x20 DUP1 SWAP2 DIV MUL PUSH1 0x20 ADD PUSH1 0x40 MLOAD SWAP1 DUP2 ADD PUSH1 0x40 MSTORE DUP1 SWAP3 SWAP2 SWAP1 DUP2 DUP2 MSTORE PUSH1 0x20 ADD DUP3 DUP1 SLOAD PUSH2 0x2660 SWAP1 PUSH2 0x55E5 JUMP JUMPDEST DUP1 ISZERO PUSH2 0x26AD JUMPI DUP1 PUSH1 0x1F LT PUSH2 0x2682 JUMPI PUSH2 0x100 DUP1 DUP4 SLOAD DIV MUL DUP4 MSTORE SWAP2 PUSH1 0x20 ADD SWAP2 PUSH2 0x26AD JUMP JUMPDEST DUP3 ADD SWAP2 SWAP1 PUSH1 0x0 MSTORE PUSH1 0x20 PUSH1 0x0 KECCAK256 SWAP1 JUMPDEST DUP2 SLOAD DUP2 MSTORE SWAP1 PUSH1 0x1 ADD SWAP1 PUSH1 0x20 ADD DUP1 DUP4 GT PUSH2 0x2690 JUMPI DUP3 SWAP1 SUB PUSH1 0x1F AND DUP3 ADD SWAP2 JUMPDEST POP POP POP POP POP DUP2 MSTORE PUSH1 0x20 ADD PUSH1 0x6 DUP3 ADD PUSH1 0x0 SWAP1 SLOAD SWAP1 PUSH2 0x100 EXP SWAP1 DIV PUSH1 0xFF AND ISZERO ISZERO ISZERO ISZERO DUP2 MSTORE PUSH1 0x20 ADD PUSH1 0x7 DUP3 ADD SLOAD DUP2 MSTORE POP POP SWAP1 POP SWAP2 SWAP1 POP JUMP JUMPDEST PUSH1 0x0 DUP1 SLOAD SWAP1 PUSH2 0x100 EXP SWAP1 DIV PUSH20 0xFFFFFFFFFFFFFFFFFFFFFFFFFFFFFFFFFFFFFFFF AND DUP2 JUMP JUMPDEST PUSH1 0x0 PUSH1 0xA PUSH1 0x0 CALLER PUSH20 0xFFFFFFFFFFFFFFFFFFFFFFFFFFFFFFFFFFFFFFFF AND PUSH20 0xFFFFFFFFFFFFFFFFFFFFFFFFFFFFFFFFFFFFFFFF AND DUP2 MSTORE PUSH1 0x20 ADD SWAP1 DUP2 MSTORE PUSH1 0x20 ADD PUSH1 0x0 KECCAK256 PUSH1 0x0 SWAP1 SLOAD SWAP1 PUSH2 0x100 EXP SWAP1 DIV PUSH20 0xFFFFFFFFFFFFFFFFFFFFFFFFFFFFFFFFFFFFFFFF AND SWAP1 POP PUSH1 0x2 PUSH1 0x8 PUSH1 0x0 CALLER PUSH20 0xFFFFFFFFFFFFFFFFFFFFFFFFFFFFFFFFFFFFFFFF AND PUSH20 0xFFFFFFFFFFFFFFFFFFFFFFFFFFFFFFFFFFFFFFFF AND DUP2 MSTORE PUSH1 0x20 ADD SWAP1 DUP2 MSTORE PUSH1 0x20 ADD PUSH1 0x0 KECCAK256 PUSH1 0x0 SWAP1 SLOAD SWAP1 PUSH2 0x100 EXP SWAP1 DIV PUSH1 0xFF AND PUSH1 0xFF AND EQ ISZERO DUP1 ISZERO PUSH2 0x281A JUMPI POP PUSH1 0x2 PUSH1 0x8 PUSH1 0x0 DUP4 PUSH20 0xFFFFFFFFFFFFFFFFFFFFFFFFFFFFFFFFFFFFFFFF AND PUSH20 0xFFFFFFFFFFFFFFFFFFFFFFFFFFFFFFFFFFFFFFFF AND DUP2 MSTORE PUSH1 0x20 ADD SWAP1 DUP2 MSTORE PUSH1 0x20 ADD PUSH1 0x0 KECCAK256 PUSH1 0x0 SWAP1 SLOAD SWAP1 PUSH2 0x100 EXP SWAP1 DIV PUSH1 0xFF AND PUSH1 0xFF AND EQ ISZERO JUMPDEST ISZERO PUSH2 0x2851 JUMPI PUSH1 0x40 MLOAD PUSH32 0xC23CF1F400000000000000000000000000000000000000000000000000000000 DUP2 MSTORE PUSH1 0x4 ADD PUSH1 0x40 MLOAD DUP1 SWAP2 SUB SWAP1 REVERT JUMPDEST PUSH1 0x0 DUP9 MLOAD EQ DUP1 PUSH2 0x2862 JUMPI POP PUSH1 0x0 DUP8 MLOAD EQ JUMPDEST ISZERO PUSH2 0x2899 JUMPI PUSH1 0x40 MLOAD PUSH32 0xBD0FEBC100000000000000000000000000000000000000000000000000000000 DUP2 MSTORE PUSH1 0x4 ADD PUSH1 0x40 MLOAD DUP1 SWAP2 SUB SWAP1 REVERT JUMPDEST PUSH1 0x0 PUSH1 0xA PUSH1 0x0 CALLER PUSH20 0xFFFFFFFFFFFFFFFFFFFFFFFFFFFFFFFFFFFFFFFF AND PUSH20 0xFFFFFFFFFFFFFFFFFFFFFFFFFFFFFFFFFFFFFFFF AND DUP2 MSTORE PUSH1 0x20 ADD SWAP1 DUP2 MSTORE PUSH1 0x20 ADD PUSH1 0x0 KECCAK256 PUSH1 0x0 SWAP1 SLOAD SWAP1 PUSH2 0x100 EXP SWAP1 DIV PUSH20 0xFFFFFFFFFFFFFFFFFFFFFFFFFFFFFFFFFFFFFFFF AND SWAP1 POP PUSH1 0x0 PUSH1 0x5 PUSH1 0x0 DUP4 PUSH20 0xFFFFFFFFFFFFFFFFFFFFFFFFFFFFFFFFFFFFFFFF AND PUSH20 0xFFFFFFFFFFFFFFFFFFFFFFFFFFFFFFFFFFFFFFFF AND DUP2 MSTORE PUSH1 0x20 ADD SWAP1 DUP2 MSTORE PUSH1 0x20 ADD PUSH1 0x0 KECCAK256 SWAP1 POP DUP10 DUP2 PUSH1 0x1 ADD SWAP1 DUP2 PUSH2 0x2951 SWAP2 SWAP1 PUSH2 0x57C2 JUMP JUMPDEST POP DUP9 DUP2 PUSH1 0x2 ADD SWAP1 DUP2 PUSH2 0x2963 SWAP2 SWAP1 PUSH2 0x57C2 JUMP JUMPDEST POP DUP8 DUP2 PUSH1 0x4 ADD SWAP1 DUP2 PUSH2 0x2975 SWAP2 SWAP1 PUSH2 0x57C2 JUMP JUMPDEST POP DUP7 DUP2 PUSH1 0x5 ADD SWAP1 DUP2 PUSH2 0x2987 SWAP2 SWAP1 PUSH2 0x57C2 JUMP JUMPDEST POP DUP6 DUP2 PUSH1 0x6 ADD SWAP1 DUP2 PUSH2 0x2999 SWAP2 SWAP1 PUSH2 0x57C2 JUMP JUMPDEST POP DUP5 DUP2 PUSH1 0x7 ADD SWAP1 DUP1 MLOAD SWAP1 PUSH1 0x20 ADD SWAP1 PUSH2 0x29B2 SWAP3 SWAP2 SWAP1 PUSH2 0x4286 JUMP JUMPDEST POP DUP4 DUP2 PUSH1 0xB ADD DUP2 SWAP1 SSTORE POP POP POP POP POP POP POP POP POP POP POP JUMP JUMPDEST PUSH1 0x8 PUSH1 0x20 MSTORE DUP1 PUSH1 0x0 MSTORE PUSH1 0x40 PUSH1 0x0 KECCAK256 PUSH1 0x0 SWAP2 POP SLOAD SWAP1 PUSH2 0x100 EXP SWAP1 DIV PUSH1 0xFF AND DUP2 JUMP JUMPDEST PUSH1 0x0 DUP3 GT DUP1 ISZERO PUSH2 0x2A0A JUMPI POP PUSH1 0x0 PUSH1 0x14 SWAP1 SLOAD SWAP1 PUSH2 0x100 EXP SWAP1 DIV PUSH1 0xFF AND PUSH1 0xFF AND DUP3 GT ISZERO JUMPDEST PUSH2 0x2A49 JUMPI PUSH1 0x40 MLOAD PUSH32 0x8C379A000000000000000000000000000000000000000000000000000000000 DUP2 MSTORE PUSH1 0x4 ADD PUSH2 0x2A40 SWAP1 PUSH2 0x58E0 JUMP JUMPDEST PUSH1 0x40 MLOAD DUP1 SWAP2 SUB SWAP1 REVERT JUMPDEST PUSH1 0x0 PUSH1 0x4 PUSH1 0x0 DUP5 DUP2 MSTORE PUSH1 0x20 ADD SWAP1 DUP2 MSTORE PUSH1 0x20 ADD PUSH1 0x0 KECCAK256 SWAP1 POP PUSH1 0x0 PUSH1 0xA PUSH1 0x0 CALLER PUSH20 0xFFFFFFFFFFFFFFFFFFFFFFFFFFFFFFFFFFFFFFFF AND PUSH20 0xFFFFFFFFFFFFFFFFFFFFFFFFFFFFFFFFFFFFFFFF AND DUP2 MSTORE PUSH1 0x20 ADD SWAP1 DUP2 MSTORE PUSH1 0x20 ADD PUSH1 0x0 KECCAK256 PUSH1 0x0 SWAP1 SLOAD SWAP1 PUSH2 0x100 EXP SWAP1 DIV PUSH20 0xFFFFFFFFFFFFFFFFFFFFFFFFFFFFFFFFFFFFFFFF AND SWAP1 POP DUP1 PUSH20 0xFFFFFFFFFFFFFFFFFFFFFFFFFFFFFFFFFFFFFFFF AND DUP3 PUSH1 0x0 ADD PUSH1 0x1 SWAP1 SLOAD SWAP1 PUSH2 0x100 EXP SWAP1 DIV PUSH20 0xFFFFFFFFFFFFFFFFFFFFFFFFFFFFFFFFFFFFFFFF AND PUSH20 0xFFFFFFFFFFFFFFFFFFFFFFFFFFFFFFFFFFFFFFFF AND EQ PUSH2 0x2B56 JUMPI PUSH1 0x40 MLOAD PUSH32 0x8C379A000000000000000000000000000000000000000000000000000000000 DUP2 MSTORE PUSH1 0x4 ADD PUSH2 0x2B4D SWAP1 PUSH2 0x5C68 JUMP JUMPDEST PUSH1 0x40 MLOAD DUP1 SWAP2 SUB SWAP1 REVERT JUMPDEST PUSH2 0x2B60 DUP3 DUP5 PUSH2 0x4014 JUMP JUMPDEST ISZERO PUSH2 0x2BA0 JUMPI PUSH1 0x40 MLOAD PUSH32 0x8C379A000000000000000000000000000000000000000000000000000000000 DUP2 MSTORE PUSH1 0x4 ADD PUSH2 0x2B97 SWAP1 PUSH2 0x5CD4 JUMP JUMPDEST PUSH1 0x40 MLOAD DUP1 SWAP2 SUB SWAP1 REVERT JUMPDEST DUP3 DUP3 PUSH1 0x6 ADD PUSH1 0x0 PUSH2 0x100 EXP DUP2 SLOAD DUP2 PUSH20 0xFFFFFFFFFFFFFFFFFFFFFFFFFFFFFFFFFFFFFFFF MUL NOT AND SWAP1 DUP4 PUSH20 0xFFFFFFFFFFFFFFFFFFFFFFFFFFFFFFFFFFFFFFFF AND MUL OR SWAP1 SSTORE POP POP POP POP POP JUMP JUMPDEST PUSH1 0x0 PUSH1 0x8 PUSH1 0x0 CALLER PUSH20 0xFFFFFFFFFFFFFFFFFFFFFFFFFFFFFFFFFFFFFFFF AND PUSH20 0xFFFFFFFFFFFFFFFFFFFFFFFFFFFFFFFFFFFFFFFF AND DUP2 MSTORE PUSH1 0x20 ADD SWAP1 DUP2 MSTORE PUSH1 0x20 ADD PUSH1 0x0 KECCAK256 PUSH1 0x0 SWAP1 SLOAD SWAP1 PUSH2 0x100 EXP SWAP1 DIV PUSH1 0xFF AND PUSH1 0xFF AND EQ PUSH2 0x2C72 JUMPI PUSH1 0x40 MLOAD PUSH32 0xAF79AD300000000000000000000000000000000000000000000000000000000 DUP2 MSTORE PUSH1 0x4 ADD PUSH1 0x40 MLOAD DUP1 SWAP2 SUB SWAP1 REVERT JUMPDEST PUSH1 0x0 DUP8 MLOAD GT PUSH2 0x2C80 JUMPI PUSH1 0x0 DUP1 REVERT JUMPDEST PUSH1 0x0 DUP7 MLOAD GT PUSH2 0x2C8E JUMPI PUSH1 0x0 DUP1 REVERT JUMPDEST PUSH1 0x1 PUSH1 0x0 DUP2 SLOAD DUP1 SWAP3 SWAP2 SWAP1 PUSH2 0x2CA1 SWAP1 PUSH2 0x5B4A JUMP JUMPDEST SWAP2 SWAP1 POP SSTORE POP PUSH1 0x2 PUSH1 0x8 PUSH1 0x0 CALLER PUSH20 0xFFFFFFFFFFFFFFFFFFFFFFFFFFFFFFFFFFFFFFFF AND PUSH20 0xFFFFFFFFFFFFFFFFFFFFFFFFFFFFFFFFFFFFFFFF AND DUP2 MSTORE PUSH1 0x20 ADD SWAP1 DUP2 MSTORE PUSH1 0x20 ADD PUSH1 0x0 KECCAK256 PUSH1 0x0 PUSH2 0x100 EXP DUP2 SLOAD DUP2 PUSH1 0xFF MUL NOT AND SWAP1 DUP4 PUSH1 0xFF AND MUL OR SWAP1 SSTORE POP DUP8 PUSH1 0xA PUSH1 0x0 CALLER PUSH20 0xFFFFFFFFFFFFFFFFFFFFFFFFFFFFFFFFFFFFFFFF AND PUSH20 0xFFFFFFFFFFFFFFFFFFFFFFFFFFFFFFFFFFFFFFFF AND DUP2 MSTORE PUSH1 0x20 ADD SWAP1 DUP2 MSTORE PUSH1 0x20 ADD PUSH1 0x0 KECCAK256 PUSH1 0x0 PUSH2 0x100 EXP DUP2 SLOAD DUP2 PUSH20 0xFFFFFFFFFFFFFFFFFFFFFFFFFFFFFFFFFFFFFFFF MUL NOT AND SWAP1 DUP4 PUSH20 0xFFFFFFFFFFFFFFFFFFFFFFFFFFFFFFFFFFFFFFFF AND MUL OR SWAP1 SSTORE POP PUSH1 0x40 MLOAD DUP1 PUSH2 0x180 ADD PUSH1 0x40 MSTORE DUP1 DUP10 PUSH20 0xFFFFFFFFFFFFFFFFFFFFFFFFFFFFFFFFFFFFFFFF AND DUP2 MSTORE PUSH1 0x20 ADD DUP9 DUP2 MSTORE PUSH1 0x20 ADD DUP8 DUP2 MSTORE PUSH1 0x20 ADD PUSH1 0x0 DUP2 MSTORE PUSH1 0x20 ADD DUP7 DUP2 MSTORE PUSH1 0x20 ADD DUP6 DUP2 MSTORE PUSH1 0x20 ADD DUP5 DUP2 MSTORE PUSH1 0x20 ADD DUP4 DUP2 MSTORE PUSH1 0x20 ADD PUSH1 0x0 DUP2 MSTORE PUSH1 0x20 ADD PUSH1 0x1 ISZERO ISZERO DUP2 MSTORE PUSH1 0x20 ADD TIMESTAMP DUP2 MSTORE PUSH1 0x20 ADD DUP3 DUP2 MSTORE POP PUSH1 0x5 PUSH1 0x0 DUP11 PUSH20 0xFFFFFFFFFFFFFFFFFFFFFFFFFFFFFFFFFFFFFFFF AND PUSH20 0xFFFFFFFFFFFFFFFFFFFFFFFFFFFFFFFFFFFFFFFF AND DUP2 MSTORE PUSH1 0x20 ADD SWAP1 DUP2 MSTORE PUSH1 0x20 ADD PUSH1 0x0 KECCAK256 PUSH1 0x0 DUP3 ADD MLOAD DUP2 PUSH1 0x0 ADD PUSH1 0x0 PUSH2 0x100 EXP DUP2 SLOAD DUP2 PUSH20 0xFFFFFFFFFFFFFFFFFFFFFFFFFFFFFFFFFFFFFFFF MUL NOT AND SWAP1 DUP4 PUSH20 0xFFFFFFFFFFFFFFFFFFFFFFFFFFFFFFFFFFFFFFFF AND MUL OR SWAP1 SSTORE POP PUSH1 0x20 DUP3 ADD MLOAD DUP2 PUSH1 0x1 ADD SWAP1 DUP2 PUSH2 0x2E85 SWAP2 SWAP1 PUSH2 0x57C2 JUMP JUMPDEST POP PUSH1 0x40 DUP3 ADD MLOAD DUP2 PUSH1 0x2 ADD SWAP1 DUP2 PUSH2 0x2E9B SWAP2 SWAP1 PUSH2 0x57C2 JUMP JUMPDEST POP PUSH1 0x60 DUP3 ADD MLOAD DUP2 PUSH1 0x3 ADD SSTORE PUSH1 0x80 DUP3 ADD MLOAD DUP2 PUSH1 0x4 ADD SWAP1 DUP2 PUSH2 0x2EBB SWAP2 SWAP1 PUSH2 0x57C2 JUMP JUMPDEST POP PUSH1 0xA0 DUP3 ADD MLOAD DUP2 PUSH1 0x5 ADD SWAP1 DUP2 PUSH2 0x2ED1 SWAP2 SWAP1 PUSH2 0x57C2 JUMP JUMPDEST POP PUSH1 0xC0 DUP3 ADD MLOAD DUP2 PUSH1 0x6 ADD SWAP1 DUP2 PUSH2 0x2EE7 SWAP2 SWAP1 PUSH2 0x57C2 JUMP JUMPDEST POP PUSH1 0xE0 DUP3 ADD MLOAD DUP2 PUSH1 0x7 ADD SWAP1 DUP1 MLOAD SWAP1 PUSH1 0x20 ADD SWAP1 PUSH2 0x2F04 SWAP3 SWAP2 SWAP1 PUSH2 0x4286 JUMP JUMPDEST POP PUSH2 0x100 DUP3 ADD MLOAD DUP2 PUSH1 0x8 ADD SSTORE PUSH2 0x120 DUP3 ADD MLOAD DUP2 PUSH1 0x9 ADD PUSH1 0x0 PUSH2 0x100 EXP DUP2 SLOAD DUP2 PUSH1 0xFF MUL NOT AND SWAP1 DUP4 ISZERO ISZERO MUL OR SWAP1 SSTORE POP PUSH2 0x140 DUP3 ADD MLOAD DUP2 PUSH1 0xA ADD SSTORE PUSH2 0x160 DUP3 ADD MLOAD DUP2 PUSH1 0xB ADD SSTORE SWAP1 POP POP PUSH1 0x9 DUP9 SWAP1 DUP1 PUSH1 0x1 DUP2 SLOAD ADD DUP1 DUP3 SSTORE DUP1 SWAP2 POP POP PUSH1 0x1 SWAP1 SUB SWAP1 PUSH1 0x0 MSTORE PUSH1 0x20 PUSH1 0x0 KECCAK256 ADD PUSH1 0x0 SWAP1 SWAP2 SWAP1 SWAP2 SWAP1 SWAP2 PUSH2 0x100 EXP DUP2 SLOAD DUP2 PUSH20 0xFFFFFFFFFFFFFFFFFFFFFFFFFFFFFFFFFFFFFFFF MUL NOT AND SWAP1 DUP4 PUSH20 0xFFFFFFFFFFFFFFFFFFFFFFFFFFFFFFFFFFFFFFFF AND MUL OR SWAP1 SSTORE POP PUSH32 0x21BEF455EB0E77B12A579311CA8616D72216C8B628577EEDA276AC16FE5B622E DUP9 DUP4 DUP4 PUSH1 0x40 MLOAD PUSH2 0x2FE0 SWAP4 SWAP3 SWAP2 SWAP1 PUSH2 0x5D7A JUMP JUMPDEST PUSH1 0x40 MLOAD DUP1 SWAP2 SUB SWAP1 LOG1 POP POP POP POP POP POP POP POP JUMP JUMPDEST PUSH1 0x9 DUP2 DUP2 SLOAD DUP2 LT PUSH2 0x3002 JUMPI PUSH1 0x0 DUP1 REVERT JUMPDEST SWAP1 PUSH1 0x0 MSTORE PUSH1 0x20 PUSH1 0x0 KECCAK256 ADD PUSH1 0x0 SWAP2 POP SLOAD SWAP1 PUSH2 0x100 EXP SWAP1 DIV PUSH20 0xFFFFFFFFFFFFFFFFFFFFFFFFFFFFFFFFFFFFFFFF AND DUP2 JUMP JUMPDEST PUSH1 0x0 PUSH2 0x303B PUSH2 0x4071 JUMP JUMPDEST SWAP1 POP PUSH1 0x0 DUP2 PUSH1 0x0 ADD PUSH1 0x8 SWAP1 SLOAD SWAP1 PUSH2 0x100 EXP SWAP1 DIV PUSH1 0xFF AND ISZERO SWAP1 POP PUSH1 0x0 DUP3 PUSH1 0x0 ADD PUSH1 0x0 SWAP1 SLOAD SWAP1 PUSH2 0x100 EXP SWAP1 DIV PUSH8 0xFFFFFFFFFFFFFFFF AND SWAP1 POP PUSH1 0x0 DUP1 DUP3 PUSH8 0xFFFFFFFFFFFFFFFF AND EQ DUP1 ISZERO PUSH2 0x3089 JUMPI POP DUP3 JUMPDEST SWAP1 POP PUSH1 0x0 PUSH1 0x1 DUP4 PUSH8 0xFFFFFFFFFFFFFFFF AND EQ DUP1 ISZERO PUSH2 0x30BE JUMPI POP PUSH1 0x0 ADDRESS PUSH20 0xFFFFFFFFFFFFFFFFFFFFFFFFFFFFFFFFFFFFFFFF AND EXTCODESIZE EQ JUMPDEST SWAP1 POP DUP2 ISZERO DUP1 ISZERO PUSH2 0x30CC JUMPI POP DUP1 ISZERO JUMPDEST ISZERO PUSH2 0x3103 JUMPI PUSH1 0x40 MLOAD PUSH32 0xF92EE8A900000000000000000000000000000000000000000000000000000000 DUP2 MSTORE PUSH1 0x4 ADD PUSH1 0x40 MLOAD DUP1 SWAP2 SUB SWAP1 REVERT JUMPDEST PUSH1 0x1 DUP6 PUSH1 0x0 ADD PUSH1 0x0 PUSH2 0x100 EXP DUP2 SLOAD DUP2 PUSH8 0xFFFFFFFFFFFFFFFF MUL NOT AND SWAP1 DUP4 PUSH8 0xFFFFFFFFFFFFFFFF AND MUL OR SWAP1 SSTORE POP DUP4 ISZERO PUSH2 0x3153 JUMPI PUSH1 0x1 DUP6 PUSH1 0x0 ADD PUSH1 0x8 PUSH2 0x100 EXP DUP2 SLOAD DUP2 PUSH1 0xFF MUL NOT AND SWAP1 DUP4 ISZERO ISZERO MUL OR SWAP1 SSTORE POP JUMPDEST DUP6 PUSH1 0x0 DUP1 PUSH2 0x100 EXP DUP2 SLOAD DUP2 PUSH20 0xFFFFFFFFFFFFFFFFFFFFFFFFFFFFFFFFFFFFFFFF MUL NOT AND SWAP1 DUP4 PUSH20 0xFFFFFFFFFFFFFFFFFFFFFFFFFFFFFFFFFFFFFFFF AND MUL OR SWAP1 SSTORE POP DUP4 ISZERO PUSH2 0x31EF JUMPI PUSH1 0x0 DUP6 PUSH1 0x0 ADD PUSH1 0x8 PUSH2 0x100 EXP DUP2 SLOAD DUP2 PUSH1 0xFF MUL NOT AND SWAP1 DUP4 ISZERO ISZERO MUL OR SWAP1 SSTORE POP PUSH32 0xC7F505B2F371AE2175EE4913F4499E1F2633A7B5936321EED1CDAEB6115181D2 PUSH1 0x1 PUSH1 0x40 MLOAD PUSH2 0x31E6 SWAP2 SWAP1 PUSH2 0x5E07 JUMP JUMPDEST PUSH1 0x40 MLOAD DUP1 SWAP2 SUB SWAP1 LOG1 JUMPDEST POP POP POP POP POP POP JUMP JUMPDEST PUSH1 0x0 PUSH1 0xA PUSH1 0x0 CALLER PUSH20 0xFFFFFFFFFFFFFFFFFFFFFFFFFFFFFFFFFFFFFFFF AND PUSH20 0xFFFFFFFFFFFFFFFFFFFFFFFFFFFFFFFFFFFFFFFF AND DUP2 MSTORE PUSH1 0x20 ADD SWAP1 DUP2 MSTORE PUSH1 0x20 ADD PUSH1 0x0 KECCAK256 PUSH1 0x0 SWAP1 SLOAD SWAP1 PUSH2 0x100 EXP SWAP1 DIV PUSH20 0xFFFFFFFFFFFFFFFFFFFFFFFFFFFFFFFFFFFFFFFF AND SWAP1 POP PUSH1 0x1 PUSH1 0x8 PUSH1 0x0 CALLER PUSH20 0xFFFFFFFFFFFFFFFFFFFFFFFFFFFFFFFFFFFFFFFF AND PUSH20 0xFFFFFFFFFFFFFFFFFFFFFFFFFFFFFFFFFFFFFFFF AND DUP2 MSTORE PUSH1 0x20 ADD SWAP1 DUP2 MSTORE PUSH1 0x20 ADD PUSH1 0x0 KECCAK256 PUSH1 0x0 SWAP1 SLOAD SWAP1 PUSH2 0x100 EXP SWAP1 DIV PUSH1 0xFF AND PUSH1 0xFF AND EQ ISZERO DUP1 ISZERO PUSH2 0x330B JUMPI POP PUSH1 0x1 PUSH1 0x8 PUSH1 0x0 DUP4 PUSH20 0xFFFFFFFFFFFFFFFFFFFFFFFFFFFFFFFFFFFFFFFF AND PUSH20 0xFFFFFFFFFFFFFFFFFFFFFFFFFFFFFFFFFFFFFFFF AND DUP2 MSTORE PUSH1 0x20 ADD SWAP1 DUP2 MSTORE PUSH1 0x20 ADD PUSH1 0x0 KECCAK256 PUSH1 0x0 SWAP1 SLOAD SWAP1 PUSH2 0x100 EXP SWAP1 DIV PUSH1 0xFF AND PUSH1 0xFF AND EQ ISZERO JUMPDEST ISZERO PUSH2 0x3342 JUMPI PUSH1 0x40 MLOAD PUSH32 0xA9D6D02A00000000000000000000000000000000000000000000000000000000 DUP2 MSTORE PUSH1 0x4 ADD PUSH1 0x40 MLOAD DUP1 SWAP2 SUB SWAP1 REVERT JUMPDEST PUSH1 0x0 DUP4 GT DUP1 ISZERO PUSH2 0x3364 JUMPI POP PUSH1 0x0 PUSH1 0x14 SWAP1 SLOAD SWAP1 PUSH2 0x100 EXP SWAP1 DIV PUSH1 0xFF AND PUSH1 0xFF AND DUP4 GT ISZERO JUMPDEST PUSH2 0x33A3 JUMPI PUSH1 0x40 MLOAD PUSH32 0x8C379A000000000000000000000000000000000000000000000000000000000 DUP2 MSTORE PUSH1 0x4 ADD PUSH2 0x339A SWAP1 PUSH2 0x594C JUMP JUMPDEST PUSH1 0x40 MLOAD DUP1 SWAP2 SUB SWAP1 REVERT JUMPDEST PUSH1 0x0 PUSH1 0xA PUSH1 0x0 CALLER PUSH20 0xFFFFFFFFFFFFFFFFFFFFFFFFFFFFFFFFFFFFFFFF AND PUSH20 0xFFFFFFFFFFFFFFFFFFFFFFFFFFFFFFFFFFFFFFFF AND DUP2 MSTORE PUSH1 0x20 ADD SWAP1 DUP2 MSTORE PUSH1 0x20 ADD PUSH1 0x0 KECCAK256 PUSH1 0x0 SWAP1 SLOAD SWAP1 PUSH2 0x100 EXP SWAP1 DIV PUSH20 0xFFFFFFFFFFFFFFFFFFFFFFFFFFFFFFFFFFFFFFFF AND SWAP1 POP PUSH1 0x0 PUSH1 0x4 PUSH1 0x0 DUP7 DUP2 MSTORE PUSH1 0x20 ADD SWAP1 DUP2 MSTORE PUSH1 0x20 ADD PUSH1 0x0 KECCAK256 SWAP1 POP DUP1 PUSH1 0x4 ADD PUSH1 0x0 SWAP1 SLOAD SWAP1 PUSH2 0x100 EXP SWAP1 DIV PUSH1 0xFF AND PUSH2 0x346F JUMPI PUSH1 0x40 MLOAD PUSH32 0x8C379A000000000000000000000000000000000000000000000000000000000 DUP2 MSTORE PUSH1 0x4 ADD PUSH2 0x3466 SWAP1 PUSH2 0x59B8 JUMP JUMPDEST PUSH1 0x40 MLOAD DUP1 SWAP2 SUB SWAP1 REVERT JUMPDEST PUSH1 0x0 PUSH1 0x7 PUSH1 0x0 DUP5 PUSH20 0xFFFFFFFFFFFFFFFFFFFFFFFFFFFFFFFFFFFFFFFF AND PUSH20 0xFFFFFFFFFFFFFFFFFFFFFFFFFFFFFFFFFFFFFFFF AND DUP2 MSTORE PUSH1 0x20 ADD SWAP1 DUP2 MSTORE PUSH1 0x20 ADD PUSH1 0x0 KECCAK256 PUSH1 0x0 DUP8 DUP2 MSTORE PUSH1 0x20 ADD SWAP1 DUP2 MSTORE PUSH1 0x20 ADD PUSH1 0x0 KECCAK256 SLOAD SWAP1 POP PUSH1 0x0 DUP2 GT PUSH2 0x3507 JUMPI PUSH1 0x40 MLOAD PUSH32 0x8C379A000000000000000000000000000000000000000000000000000000000 DUP2 MSTORE PUSH1 0x4 ADD PUSH2 0x34FE SWAP1 PUSH2 0x5E6E JUMP JUMPDEST PUSH1 0x40 MLOAD DUP1 SWAP2 SUB SWAP1 REVERT JUMPDEST DUP2 PUSH1 0x3 ADD SLOAD DUP2 LT ISZERO PUSH2 0x354E JUMPI PUSH1 0x40 MLOAD PUSH32 0x8C379A000000000000000000000000000000000000000000000000000000000 DUP2 MSTORE PUSH1 0x4 ADD PUSH2 0x3545 SWAP1 PUSH2 0x5A24 JUMP JUMPDEST PUSH1 0x40 MLOAD DUP1 SWAP2 SUB SWAP1 REVERT JUMPDEST PUSH1 0x0 PUSH1 0x7 PUSH1 0x0 DUP6 PUSH20 0xFFFFFFFFFFFFFFFFFFFFFFFFFFFFFFFFFFFFFFFF AND PUSH20 0xFFFFFFFFFFFFFFFFFFFFFFFFFFFFFFFFFFFFFFFF AND DUP2 MSTORE PUSH1 0x20 ADD SWAP1 DUP2 MSTORE PUSH1 0x20 ADD PUSH1 0x0 KECCAK256 PUSH1 0x0 DUP9 DUP2 MSTORE PUSH1 0x20 ADD SWAP1 DUP2 MSTORE PUSH1 0x20 ADD PUSH1 0x0 KECCAK256 DUP2 SWAP1 SSTORE POP DUP1 PUSH1 0x5 PUSH1 0x0 DUP8 PUSH20 0xFFFFFFFFFFFFFFFFFFFFFFFFFFFFFFFFFFFFFFFF AND PUSH20 0xFFFFFFFFFFFFFFFFFFFFFFFFFFFFFFFFFFFFFFFF AND DUP2 MSTORE PUSH1 0x20 ADD SWAP1 DUP2 MSTORE PUSH1 0x20 ADD PUSH1 0x0 KECCAK256 PUSH1 0x3 ADD PUSH1 0x0 DUP3 DUP3 SLOAD PUSH2 0x35F6 SWAP2 SWAP1 PUSH2 0x5A73 JUMP JUMPDEST SWAP3 POP POP DUP2 SWAP1 SSTORE POP DUP1 PUSH1 0x6 PUSH1 0x0 DUP6 PUSH20 0xFFFFFFFFFFFFFFFFFFFFFFFFFFFFFFFFFFFFFFFF AND PUSH20 0xFFFFFFFFFFFFFFFFFFFFFFFFFFFFFFFFFFFFFFFF AND DUP2 MSTORE PUSH1 0x20 ADD SWAP1 DUP2 MSTORE PUSH1 0x20 ADD PUSH1 0x0 KECCAK256 PUSH1 0x3 ADD PUSH1 0x0 DUP3 DUP3 SLOAD PUSH2 0x364F SWAP2 SWAP1 PUSH2 0x5E8E JUMP JUMPDEST SWAP3 POP POP DUP2 SWAP1 SSTORE POP PUSH32 0x6E3C6096795C8298A218B2CFB8BDE42726FF7C9A3D27B4D3BA41AB7F74FEB5FB DUP7 DUP7 DUP4 PUSH1 0x40 MLOAD PUSH2 0x3689 SWAP4 SWAP3 SWAP2 SWAP1 PUSH2 0x5AA7 JUMP JUMPDEST PUSH1 0x40 MLOAD DUP1 SWAP2 SUB SWAP1 LOG1 POP POP POP POP POP POP JUMP JUMPDEST PUSH1 0x60 PUSH1 0x0 DUP1 PUSH1 0x14 SWAP1 SLOAD SWAP1 PUSH2 0x100 EXP SWAP1 DIV PUSH1 0xFF AND PUSH1 0xFF AND PUSH8 0xFFFFFFFFFFFFFFFF DUP2 GT ISZERO PUSH2 0x36C8 JUMPI PUSH2 0x36C7 PUSH2 0x49EE JUMP JUMPDEST JUMPDEST PUSH1 0x40 MLOAD SWAP1 DUP1 DUP3 MSTORE DUP1 PUSH1 0x20 MUL PUSH1 0x20 ADD DUP3 ADD PUSH1 0x40 MSTORE DUP1 ISZERO PUSH2 0x3701 JUMPI DUP2 PUSH1 0x20 ADD JUMPDEST PUSH2 0x36EE PUSH2 0x4129 JUMP JUMPDEST DUP2 MSTORE PUSH1 0x20 ADD SWAP1 PUSH1 0x1 SWAP1 SUB SWAP1 DUP2 PUSH2 0x36E6 JUMPI SWAP1 POP JUMPDEST POP SWAP1 POP PUSH1 0x0 JUMPDEST PUSH1 0x0 PUSH1 0x14 SWAP1 SLOAD SWAP1 PUSH2 0x100 EXP SWAP1 DIV PUSH1 0xFF AND PUSH1 0xFF AND DUP2 LT ISZERO PUSH2 0x3A17 JUMPI PUSH1 0x4 PUSH1 0x0 PUSH1 0x1 DUP4 PUSH2 0x3732 SWAP2 SWAP1 PUSH2 0x5A73 JUMP JUMPDEST DUP2 MSTORE PUSH1 0x20 ADD SWAP1 DUP2 MSTORE PUSH1 0x20 ADD PUSH1 0x0 KECCAK256 PUSH1 0x40 MLOAD DUP1 PUSH2 0x100 ADD PUSH1 0x40 MSTORE SWAP1 DUP2 PUSH1 0x0 DUP3 ADD PUSH1 0x0 SWAP1 SLOAD SWAP1 PUSH2 0x100 EXP SWAP1 DIV PUSH1 0xFF AND PUSH1 0xFF AND PUSH1 0xFF AND DUP2 MSTORE PUSH1 0x20 ADD PUSH1 0x0 DUP3 ADD PUSH1 0x1 SWAP1 SLOAD SWAP1 PUSH2 0x100 EXP SWAP1 DIV PUSH20 0xFFFFFFFFFFFFFFFFFFFFFFFFFFFFFFFFFFFFFFFF AND PUSH20 0xFFFFFFFFFFFFFFFFFFFFFFFFFFFFFFFFFFFFFFFF AND PUSH20 0xFFFFFFFFFFFFFFFFFFFFFFFFFFFFFFFFFFFFFFFF AND DUP2 MSTORE PUSH1 0x20 ADD PUSH1 0x1 DUP3 ADD DUP1 SLOAD PUSH2 0x37CF SWAP1 PUSH2 0x55E5 JUMP JUMPDEST DUP1 PUSH1 0x1F ADD PUSH1 0x20 DUP1 SWAP2 DIV MUL PUSH1 0x20 ADD PUSH1 0x40 MLOAD SWAP1 DUP2 ADD PUSH1 0x40 MSTORE DUP1 SWAP3 SWAP2 SWAP1 DUP2 DUP2 MSTORE PUSH1 0x20 ADD DUP3 DUP1 SLOAD PUSH2 0x37FB SWAP1 PUSH2 0x55E5 JUMP JUMPDEST DUP1 ISZERO PUSH2 0x3848 JUMPI DUP1 PUSH1 0x1F LT PUSH2 0x381D JUMPI PUSH2 0x100 DUP1 DUP4 SLOAD DIV MUL DUP4 MSTORE SWAP2 PUSH1 0x20 ADD SWAP2 PUSH2 0x3848 JUMP JUMPDEST DUP3 ADD SWAP2 SWAP1 PUSH1 0x0 MSTORE PUSH1 0x20 PUSH1 0x0 KECCAK256 SWAP1 JUMPDEST DUP2 SLOAD DUP2 MSTORE SWAP1 PUSH1 0x1 ADD SWAP1 PUSH1 0x20 ADD DUP1 DUP4 GT PUSH2 0x382B JUMPI DUP3 SWAP1 SUB PUSH1 0x1F AND DUP3 ADD SWAP2 JUMPDEST POP POP POP POP POP DUP2 MSTORE PUSH1 0x20 ADD PUSH1 0x2 DUP3 ADD DUP1 SLOAD PUSH2 0x3861 SWAP1 PUSH2 0x55E5 JUMP JUMPDEST DUP1 PUSH1 0x1F ADD PUSH1 0x20 DUP1 SWAP2 DIV MUL PUSH1 0x20 ADD PUSH1 0x40 MLOAD SWAP1 DUP2 ADD PUSH1 0x40 MSTORE DUP1 SWAP3 SWAP2 SWAP1 DUP2 DUP2 MSTORE PUSH1 0x20 ADD DUP3 DUP1 SLOAD PUSH2 0x388D SWAP1 PUSH2 0x55E5 JUMP JUMPDEST DUP1 ISZERO PUSH2 0x38DA JUMPI DUP1 PUSH1 0x1F LT PUSH2 0x38AF JUMPI PUSH2 0x100 DUP1 DUP4 SLOAD DIV MUL DUP4 MSTORE SWAP2 PUSH1 0x20 ADD SWAP2 PUSH2 0x38DA JUMP JUMPDEST DUP3 ADD SWAP2 SWAP1 PUSH1 0x0 MSTORE PUSH1 0x20 PUSH1 0x0 KECCAK256 SWAP1 JUMPDEST DUP2 SLOAD DUP2 MSTORE SWAP1 PUSH1 0x1 ADD SWAP1 PUSH1 0x20 ADD DUP1 DUP4 GT PUSH2 0x38BD JUMPI DUP3 SWAP1 SUB PUSH1 0x1F AND DUP3 ADD SWAP2 JUMPDEST POP POP POP POP POP DUP2 MSTORE PUSH1 0x20 ADD PUSH1 0x3 DUP3 ADD SLOAD DUP2 MSTORE PUSH1 0x20 ADD PUSH1 0x4 DUP3 ADD PUSH1 0x0 SWAP1 SLOAD SWAP1 PUSH2 0x100 EXP SWAP1 DIV PUSH1 0xFF AND ISZERO ISZERO ISZERO ISZERO DUP2 MSTORE PUSH1 0x20 ADD PUSH1 0x5 DUP3 ADD DUP1 SLOAD DUP1 PUSH1 0x20 MUL PUSH1 0x20 ADD PUSH1 0x40 MLOAD SWAP1 DUP2 ADD PUSH1 0x40 MSTORE DUP1 SWAP3 SWAP2 SWAP1 DUP2 DUP2 MSTORE PUSH1 0x20 ADD DUP3 DUP1 SLOAD DUP1 ISZERO PUSH2 0x398D JUMPI PUSH1 0x20 MUL DUP3 ADD SWAP2 SWAP1 PUSH1 0x0 MSTORE PUSH1 0x20 PUSH1 0x0 KECCAK256 SWAP1 JUMPDEST DUP2 PUSH1 0x0 SWAP1 SLOAD SWAP1 PUSH2 0x100 EXP SWAP1 DIV PUSH20 0xFFFFFFFFFFFFFFFFFFFFFFFFFFFFFFFFFFFFFFFF AND PUSH20 0xFFFFFFFFFFFFFFFFFFFFFFFFFFFFFFFFFFFFFFFF AND DUP2 MSTORE PUSH1 0x20 ADD SWAP1 PUSH1 0x1 ADD SWAP1 DUP1 DUP4 GT PUSH2 0x3943 JUMPI JUMPDEST POP POP POP POP POP DUP2 MSTORE PUSH1 0x20 ADD PUSH1 0x6 DUP3 ADD PUSH1 0x0 SWAP1 SLOAD SWAP1 PUSH2 0x100 EXP SWAP1 DIV PUSH20 0xFFFFFFFFFFFFFFFFFFFFFFFFFFFFFFFFFFFFFFFF AND PUSH20 0xFFFFFFFFFFFFFFFFFFFFFFFFFFFFFFFFFFFFFFFF AND PUSH20 0xFFFFFFFFFFFFFFFFFFFFFFFFFFFFFFFFFFFFFFFF AND DUP2 MSTORE POP POP DUP3 DUP3 DUP2 MLOAD DUP2 LT PUSH2 0x39FF JUMPI PUSH2 0x39FE PUSH2 0x5EC2 JUMP JUMPDEST JUMPDEST PUSH1 0x20 MUL PUSH1 0x20 ADD ADD DUP2 SWAP1 MSTORE POP DUP1 DUP1 PUSH1 0x1 ADD SWAP2 POP POP PUSH2 0x3707 JUMP JUMPDEST POP DUP1 SWAP2 POP POP SWAP1 JUMP JUMPDEST PUSH1 0x0 PUSH1 0x7 PUSH1 0x0 DUP5 PUSH20 0xFFFFFFFFFFFFFFFFFFFFFFFFFFFFFFFFFFFFFFFF AND PUSH20 0xFFFFFFFFFFFFFFFFFFFFFFFFFFFFFFFFFFFFFFFF AND DUP2 MSTORE PUSH1 0x20 ADD SWAP1 DUP2 MSTORE PUSH1 0x20 ADD PUSH1 0x0 KECCAK256 PUSH1 0x0 DUP4 DUP2 MSTORE PUSH1 0x20 ADD SWAP1 DUP2 MSTORE PUSH1 0x20 ADD PUSH1 0x0 KECCAK256 SLOAD SWAP1 POP SWAP3 SWAP2 POP POP JUMP JUMPDEST PUSH1 0x0 DUP2 GT DUP1 ISZERO PUSH2 0x3A9C JUMPI POP PUSH1 0x0 PUSH1 0x14 SWAP1 SLOAD SWAP1 PUSH2 0x100 EXP SWAP1 DIV PUSH1 0xFF AND PUSH1 0xFF AND DUP2 GT ISZERO JUMPDEST PUSH2 0x3ADB JUMPI PUSH1 0x40 MLOAD PUSH32 0x8C379A000000000000000000000000000000000000000000000000000000000 DUP2 MSTORE PUSH1 0x4 ADD PUSH2 0x3AD2 SWAP1 PUSH2 0x58E0 JUMP JUMPDEST PUSH1 0x40 MLOAD DUP1 SWAP2 SUB SWAP1 REVERT JUMPDEST PUSH1 0x0 PUSH1 0x4 PUSH1 0x0 DUP4 DUP2 MSTORE PUSH1 0x20 ADD SWAP1 DUP2 MSTORE PUSH1 0x20 ADD PUSH1 0x0 KECCAK256 SWAP1 POP PUSH1 0x0 JUMPDEST DUP2 PUSH1 0x5 ADD DUP1 SLOAD SWAP1 POP DUP2 LT ISZERO PUSH2 0x3BB6 JUMPI CALLER PUSH20 0xFFFFFFFFFFFFFFFFFFFFFFFFFFFFFFFFFFFFFFFF AND DUP3 PUSH1 0x5 ADD DUP3 DUP2 SLOAD DUP2 LT PUSH2 0x3B31 JUMPI PUSH2 0x3B30 PUSH2 0x5EC2 JUMP JUMPDEST JUMPDEST SWAP1 PUSH1 0x0 MSTORE PUSH1 0x20 PUSH1 0x0 KECCAK256 ADD PUSH1 0x0 SWAP1 SLOAD SWAP1 PUSH2 0x100 EXP SWAP1 DIV PUSH20 0xFFFFFFFFFFFFFFFFFFFFFFFFFFFFFFFFFFFFFFFF AND PUSH20 0xFFFFFFFFFFFFFFFFFFFFFFFFFFFFFFFFFFFFFFFF AND SUB PUSH2 0x3BA9 JUMPI PUSH1 0x40 MLOAD PUSH32 0x5E4ABC8C00000000000000000000000000000000000000000000000000000000 DUP2 MSTORE PUSH1 0x4 ADD PUSH1 0x40 MLOAD DUP1 SWAP2 SUB SWAP1 REVERT JUMPDEST DUP1 DUP1 PUSH1 0x1 ADD SWAP2 POP POP PUSH2 0x3AF5 JUMP JUMPDEST POP DUP1 PUSH1 0x5 ADD CALLER SWAP1 DUP1 PUSH1 0x1 DUP2 SLOAD ADD DUP1 DUP3 SSTORE DUP1 SWAP2 POP POP PUSH1 0x1 SWAP1 SUB SWAP1 PUSH1 0x0 MSTORE PUSH1 0x20 PUSH1 0x0 KECCAK256 ADD PUSH1 0x0 SWAP1 SWAP2 SWAP1 SWAP2 SWAP1 SWAP2 PUSH2 0x100 EXP DUP2 SLOAD DUP2 PUSH20 0xFFFFFFFFFFFFFFFFFFFFFFFFFFFFFFFFFFFFFFFF MUL NOT AND SWAP1 DUP4 PUSH20 0xFFFFFFFFFFFFFFFFFFFFFFFFFFFFFFFFFFFFFFFF AND MUL OR SWAP1 SSTORE POP PUSH32 0x2B443803772F6DA2DB17C7357119F932841870FDF0A3A5D8CA9D2E112BB13326 DUP3 DUP3 PUSH1 0x0 ADD PUSH1 0x1 SWAP1 SLOAD SWAP1 PUSH2 0x100 EXP SWAP1 DIV PUSH20 0xFFFFFFFFFFFFFFFFFFFFFFFFFFFFFFFFFFFFFFFF AND CALLER PUSH1 0x40 MLOAD PUSH2 0x3C73 SWAP4 SWAP3 SWAP2 SWAP1 PUSH2 0x5EF1 JUMP JUMPDEST PUSH1 0x40 MLOAD DUP1 SWAP2 SUB SWAP1 LOG1 POP POP JUMP JUMPDEST PUSH1 0x0 PUSH1 0x8 PUSH1 0x0 CALLER PUSH20 0xFFFFFFFFFFFFFFFFFFFFFFFFFFFFFFFFFFFFFFFF AND PUSH20 0xFFFFFFFFFFFFFFFFFFFFFFFFFFFFFFFFFFFFFFFF AND DUP2 MSTORE PUSH1 0x20 ADD SWAP1 DUP2 MSTORE PUSH1 0x20 ADD PUSH1 0x0 KECCAK256 PUSH1 0x0 SWAP1 SLOAD SWAP1 PUSH2 0x100 EXP SWAP1 DIV PUSH1 0xFF AND PUSH1 0xFF AND EQ PUSH2 0x3D08 JUMPI PUSH1 0x40 MLOAD PUSH32 0x3EC7876100000000000000000000000000000000000000000000000000000000 DUP2 MSTORE PUSH1 0x4 ADD PUSH1 0x40 MLOAD DUP1 SWAP2 SUB SWAP1 REVERT JUMPDEST PUSH1 0x0 DUP5 MLOAD GT PUSH2 0x3D16 JUMPI PUSH1 0x0 DUP1 REVERT JUMPDEST PUSH1 0x0 DUP4 MLOAD GT PUSH2 0x3D24 JUMPI PUSH1 0x0 DUP1 REVERT JUMPDEST PUSH1 0x2 PUSH1 0x0 DUP2 SLOAD DUP1 SWAP3 SWAP2 SWAP1 PUSH2 0x3D37 SWAP1 PUSH2 0x5B4A JUMP JUMPDEST SWAP2 SWAP1 POP SSTORE POP PUSH1 0x1 PUSH1 0x8 PUSH1 0x0 CALLER PUSH20 0xFFFFFFFFFFFFFFFFFFFFFFFFFFFFFFFFFFFFFFFF AND PUSH20 0xFFFFFFFFFFFFFFFFFFFFFFFFFFFFFFFFFFFFFFFF AND DUP2 MSTORE PUSH1 0x20 ADD SWAP1 DUP2 MSTORE PUSH1 0x20 ADD PUSH1 0x0 KECCAK256 PUSH1 0x0 PUSH2 0x100 EXP DUP2 SLOAD DUP2 PUSH1 0xFF MUL NOT AND SWAP1 DUP4 PUSH1 0xFF AND MUL OR SWAP1 SSTORE POP DUP5 PUSH1 0xA PUSH1 0x0 CALLER PUSH20 0xFFFFFFFFFFFFFFFFFFFFFFFFFFFFFFFFFFFFFFFF AND PUSH20 0xFFFFFFFFFFFFFFFFFFFFFFFFFFFFFFFFFFFFFFFF AND DUP2 MSTORE PUSH1 0x20 ADD SWAP1 DUP2 MSTORE PUSH1 0x20 ADD PUSH1 0x0 KECCAK256 PUSH1 0x0 PUSH2 0x100 EXP DUP2 SLOAD DUP2 PUSH20 0xFFFFFFFFFFFFFFFFFFFFFFFFFFFFFFFFFFFFFFFF MUL NOT AND SWAP1 DUP4 PUSH20 0xFFFFFFFFFFFFFFFFFFFFFFFFFFFFFFFFFFFFFFFF AND MUL OR SWAP1 SSTORE POP PUSH1 0x40 MLOAD DUP1 PUSH2 0x100 ADD PUSH1 0x40 MSTORE DUP1 DUP7 PUSH20 0xFFFFFFFFFFFFFFFFFFFFFFFFFFFFFFFFFFFFFFFF AND DUP2 MSTORE PUSH1 0x20 ADD DUP6 DUP2 MSTORE PUSH1 0x20 ADD DUP5 DUP2 MSTORE PUSH1 0x20 ADD PUSH1 0x0 DUP2 MSTORE PUSH1 0x20 ADD DUP4 DUP2 MSTORE PUSH1 0x20 ADD DUP3 DUP2 MSTORE PUSH1 0x20 ADD PUSH1 0x1 ISZERO ISZERO DUP2 MSTORE PUSH1 0x20 ADD TIMESTAMP DUP2 MSTORE POP PUSH1 0x6 PUSH1 0x0 DUP8 PUSH20 0xFFFFFFFFFFFFFFFFFFFFFFFFFFFFFFFFFFFFFFFF AND PUSH20 0xFFFFFFFFFFFFFFFFFFFFFFFFFFFFFFFFFFFFFFFF AND DUP2 MSTORE PUSH1 0x20 ADD SWAP1 DUP2 MSTORE PUSH1 0x20 ADD PUSH1 0x0 KECCAK256 PUSH1 0x0 DUP3 ADD MLOAD DUP2 PUSH1 0x0 ADD PUSH1 0x0 PUSH2 0x100 EXP DUP2 SLOAD DUP2 PUSH20 0xFFFFFFFFFFFFFFFFFFFFFFFFFFFFFFFFFFFFFFFF MUL NOT AND SWAP1 DUP4 PUSH20 0xFFFFFFFFFFFFFFFFFFFFFFFFFFFFFFFFFFFFFFFF AND MUL OR SWAP1 SSTORE POP PUSH1 0x20 DUP3 ADD MLOAD DUP2 PUSH1 0x1 ADD SWAP1 DUP2 PUSH2 0x3F02 SWAP2 SWAP1 PUSH2 0x57C2 JUMP JUMPDEST POP PUSH1 0x40 DUP3 ADD MLOAD DUP2 PUSH1 0x2 ADD SWAP1 DUP2 PUSH2 0x3F18 SWAP2 SWAP1 PUSH2 0x57C2 JUMP JUMPDEST POP PUSH1 0x60 DUP3 ADD MLOAD DUP2 PUSH1 0x3 ADD SSTORE PUSH1 0x80 DUP3 ADD MLOAD DUP2 PUSH1 0x4 ADD SWAP1 DUP2 PUSH2 0x3F38 SWAP2 SWAP1 PUSH2 0x57C2 JUMP JUMPDEST POP PUSH1 0xA0 DUP3 ADD MLOAD DUP2 PUSH1 0x5 ADD SWAP1 DUP2 PUSH2 0x3F4E SWAP2 SWAP1 PUSH2 0x57C2 JUMP JUMPDEST POP PUSH1 0xC0 DUP3 ADD MLOAD DUP2 PUSH1 0x6 ADD PUSH1 0x0 PUSH2 0x100 EXP DUP2 SLOAD DUP2 PUSH1 0xFF MUL NOT AND SWAP1 DUP4 ISZERO ISZERO MUL OR SWAP1 SSTORE POP PUSH1 0xE0 DUP3 ADD MLOAD DUP2 PUSH1 0x7 ADD SSTORE SWAP1 POP POP PUSH32 0x6C0E8AABAC6898602E5264C9A24B2394D9895A70BD2F4C44C8CA0FCFCEC6477F DUP6 DUP6 PUSH1 0x40 MLOAD PUSH2 0x3FAD SWAP3 SWAP2 SWAP1 PUSH2 0x5F28 JUMP JUMPDEST PUSH1 0x40 MLOAD DUP1 SWAP2 SUB SWAP1 LOG1 POP POP POP POP POP JUMP JUMPDEST PUSH1 0xA PUSH1 0x20 MSTORE DUP1 PUSH1 0x0 MSTORE PUSH1 0x40 PUSH1 0x0 KECCAK256 PUSH1 0x0 SWAP2 POP SLOAD SWAP1 PUSH2 0x100 EXP SWAP1 DIV PUSH20 0xFFFFFFFFFFFFFFFFFFFFFFFFFFFFFFFFFFFFFFFF AND DUP2 JUMP JUMPDEST PUSH1 0x7 PUSH1 0x20 MSTORE DUP2 PUSH1 0x0 MSTORE PUSH1 0x40 PUSH1 0x0 KECCAK256 PUSH1 0x20 MSTORE DUP1 PUSH1 0x0 MSTORE PUSH1 0x40 PUSH1 0x0 KECCAK256 PUSH1 0x0 SWAP2 POP SWAP2 POP POP SLOAD DUP2 JUMP JUMPDEST PUSH1 0x0 DUP2 PUSH20 0xFFFFFFFFFFFFFFFFFFFFFFFFFFFFFFFFFFFFFFFF AND DUP4 PUSH1 0x6 ADD PUSH1 0x0 SWAP1 SLOAD SWAP1 PUSH2 0x100 EXP SWAP1 DIV PUSH20 0xFFFFFFFFFFFFFFFFFFFFFFFFFFFFFFFFFFFFFFFF AND PUSH20 0xFFFFFFFFFFFFFFFFFFFFFFFFFFFFFFFFFFFFFFFF AND EQ SWAP1 POP SWAP3 SWAP2 POP POP JUMP JUMPDEST PUSH1 0x0 DUP1 PUSH2 0x407C PUSH2 0x4085 JUMP JUMPDEST SWAP1 POP DUP1 SWAP2 POP POP SWAP1 JUMP JUMPDEST PUSH1 0x0 PUSH32 0xF0C57E16840DF040F15088DC2F81FE391C3923BEC73E23A9662EFC9C229C6A00 PUSH1 0x0 SHL SWAP1 POP SWAP1 JUMP JUMPDEST PUSH1 0x40 MLOAD DUP1 PUSH2 0x180 ADD PUSH1 0x40 MSTORE DUP1 PUSH1 0x0 PUSH20 0xFFFFFFFFFFFFFFFFFFFFFFFFFFFFFFFFFFFFFFFF AND DUP2 MSTORE PUSH1 0x20 ADD PUSH1 0x60 DUP2 MSTORE PUSH1 0x20 ADD PUSH1 0x60 DUP2 MSTORE PUSH1 0x20 ADD PUSH1 0x0 DUP2 MSTORE PUSH1 0x20 ADD PUSH1 0x60 DUP2 MSTORE PUSH1 0x20 ADD PUSH1 0x60 DUP2 MSTORE PUSH1 0x20 ADD PUSH1 0x60 DUP2 MSTORE PUSH1 0x20 ADD PUSH1 0x60 DUP2 MSTORE PUSH1 0x20 ADD PUSH1 0x0 DUP2 MSTORE PUSH1 0x20 ADD PUSH1 0x0 ISZERO ISZERO DUP2 MSTORE PUSH1 0x20 ADD PUSH1 0x0 DUP2 MSTORE PUSH1 0x20 ADD PUSH1 0x0 DUP2 MSTORE POP SWAP1 JUMP JUMPDEST PUSH1 0x40 MLOAD DUP1 PUSH2 0x100 ADD PUSH1 0x40 MSTORE DUP1 PUSH1 0x0 PUSH1 0xFF AND DUP2 MSTORE PUSH1 0x20 ADD PUSH1 0x0 PUSH20 0xFFFFFFFFFFFFFFFFFFFFFFFFFFFFFFFFFFFFFFFF AND DUP2 MSTORE PUSH1 0x20 ADD PUSH1 0x60 DUP2 MSTORE PUSH1 0x20 ADD PUSH1 0x60 DUP2 MSTORE PUSH1 0x20 ADD PUSH1 0x0 DUP2 MSTORE PUSH1 0x20 ADD PUSH1 0x0 ISZERO ISZERO DUP2 MSTORE PUSH1 0x20 ADD PUSH1 0x60 DUP2 MSTORE PUSH1 0x20 ADD PUSH1 0x0 PUSH20 0xFFFFFFFFFFFFFFFFFFFFFFFFFFFFFFFFFFFFFFFF AND DUP2 MSTORE POP SWAP1 JUMP JUMPDEST DUP3 DUP1 SLOAD DUP3 DUP3 SSTORE SWAP1 PUSH1 0x0 MSTORE PUSH1 0x20 PUSH1 0x0 KECCAK256 SWAP1 DUP2 ADD SWAP3 DUP3 ISZERO PUSH2 0x4218 JUMPI SWAP2 PUSH1 0x20 MUL DUP3 ADD JUMPDEST DUP3 DUP2 GT ISZERO PUSH2 0x4217 JUMPI DUP3 MLOAD DUP3 PUSH1 0x0 PUSH2 0x100 EXP DUP2 SLOAD DUP2 PUSH20 0xFFFFFFFFFFFFFFFFFFFFFFFFFFFFFFFFFFFFFFFF MUL NOT AND SWAP1 DUP4 PUSH20 0xFFFFFFFFFFFFFFFFFFFFFFFFFFFFFFFFFFFFFFFF AND MUL OR SWAP1 SSTORE POP SWAP2 PUSH1 0x20 ADD SWAP2 SWAP1 PUSH1 0x1 ADD SWAP1 PUSH2 0x41BF JUMP JUMPDEST JUMPDEST POP SWAP1 POP PUSH2 0x4225 SWAP2 SWAP1 PUSH2 0x42DF JUMP JUMPDEST POP SWAP1 JUMP JUMPDEST PUSH1 0x40 MLOAD DUP1 PUSH2 0x100 ADD PUSH1 0x40 MSTORE DUP1 PUSH1 0x0 PUSH20 0xFFFFFFFFFFFFFFFFFFFFFFFFFFFFFFFFFFFFFFFF AND DUP2 MSTORE PUSH1 0x20 ADD PUSH1 0x60 DUP2 MSTORE PUSH1 0x20 ADD PUSH1 0x60 DUP2 MSTORE PUSH1 0x20 ADD PUSH1 0x0 DUP2 MSTORE PUSH1 0x20 ADD PUSH1 0x60 DUP2 MSTORE PUSH1 0x20 ADD PUSH1 0x60 DUP2 MSTORE PUSH1 0x20 ADD PUSH1 0x0 ISZERO ISZERO DUP2 MSTORE PUSH1 0x20 ADD PUSH1 0x0 DUP2 MSTORE POP SWAP1 JUMP JUMPDEST DUP3 DUP1 SLOAD DUP3 DUP3 SSTORE SWAP1 PUSH1 0x0 MSTORE PUSH1 0x20 PUSH1 0x0 KECCAK256 SWAP1 DUP2 ADD SWAP3 DUP3 ISZERO PUSH2 0x42CE JUMPI SWAP2 PUSH1 0x20 MUL DUP3 ADD JUMPDEST DUP3 DUP2 GT ISZERO PUSH2 0x42CD JUMPI DUP3 MLOAD DUP3 SWAP1 DUP2 PUSH2 0x42BD SWAP2 SWAP1 PUSH2 0x57C2 JUMP JUMPDEST POP SWAP2 PUSH1 0x20 ADD SWAP2 SWAP1 PUSH1 0x1 ADD SWAP1 PUSH2 0x42A6 JUMP JUMPDEST JUMPDEST POP SWAP1 POP PUSH2 0x42DB SWAP2 SWAP1 PUSH2 0x42FC JUMP JUMPDEST POP SWAP1 JUMP JUMPDEST JUMPDEST DUP1 DUP3 GT ISZERO PUSH2 0x42F8 JUMPI PUSH1 0x0 DUP2 PUSH1 0x0 SWAP1 SSTORE POP PUSH1 0x1 ADD PUSH2 0x42E0 JUMP JUMPDEST POP SWAP1 JUMP JUMPDEST JUMPDEST DUP1 DUP3 GT ISZERO PUSH2 0x431C JUMPI PUSH1 0x0 DUP2 DUP2 PUSH2 0x4313 SWAP2 SWAP1 PUSH2 0x4320 JUMP JUMPDEST POP PUSH1 0x1 ADD PUSH2 0x42FD JUMP JUMPDEST POP SWAP1 JUMP JUMPDEST POP DUP1 SLOAD PUSH2 0x432C SWAP1 PUSH2 0x55E5 JUMP JUMPDEST PUSH1 0x0 DUP3 SSTORE DUP1 PUSH1 0x1F LT PUSH2 0x433E JUMPI POP PUSH2 0x435D JUMP JUMPDEST PUSH1 0x1F ADD PUSH1 0x20 SWAP1 DIV SWAP1 PUSH1 0x0 MSTORE PUSH1 0x20 PUSH1 0x0 KECCAK256 SWAP1 DUP2 ADD SWAP1 PUSH2 0x435C SWAP2 SWAP1 PUSH2 0x42DF JUMP JUMPDEST JUMPDEST POP JUMP JUMPDEST PUSH1 0x0 PUSH1 0x40 MLOAD SWAP1 POP SWAP1 JUMP JUMPDEST PUSH1 0x0 DUP1 REVERT JUMPDEST PUSH1 0x0 DUP1 REVERT JUMPDEST PUSH1 0x0 PUSH20 0xFFFFFFFFFFFFFFFFFFFFFFFFFFFFFFFFFFFFFFFF DUP3 AND SWAP1 POP SWAP2 SWAP1 POP JUMP JUMPDEST PUSH1 0x0 PUSH2 0x439F DUP3 PUSH2 0x4374 JUMP JUMPDEST SWAP1 POP SWAP2 SWAP1 POP JUMP JUMPDEST PUSH2 0x43AF DUP2 PUSH2 0x4394 JUMP JUMPDEST DUP2 EQ PUSH2 0x43BA JUMPI PUSH1 0x0 DUP1 REVERT JUMPDEST POP JUMP JUMPDEST PUSH1 0x0 DUP2 CALLDATALOAD SWAP1 POP PUSH2 0x43CC DUP2 PUSH2 0x43A6 JUMP JUMPDEST SWAP3 SWAP2 POP POP JUMP JUMPDEST PUSH1 0x0 PUSH1 0x20 DUP3 DUP5 SUB SLT ISZERO PUSH2 0x43E8 JUMPI PUSH2 0x43E7 PUSH2 0x436A JUMP JUMPDEST JUMPDEST PUSH1 0x0 PUSH2 0x43F6 DUP5 DUP3 DUP6 ADD PUSH2 0x43BD JUMP JUMPDEST SWAP2 POP POP SWAP3 SWAP2 POP POP JUMP JUMPDEST PUSH2 0x4408 DUP2 PUSH2 0x4394 JUMP JUMPDEST DUP3 MSTORE POP POP JUMP JUMPDEST PUSH1 0x0 DUP2 MLOAD SWAP1 POP SWAP2 SWAP1 POP JUMP JUMPDEST PUSH1 0x0 DUP3 DUP3 MSTORE PUSH1 0x20 DUP3 ADD SWAP1 POP SWAP3 SWAP2 POP POP JUMP JUMPDEST PUSH1 0x0 JUMPDEST DUP4 DUP2 LT ISZERO PUSH2 0x4448 JUMPI DUP1 DUP3 ADD MLOAD DUP2 DUP5 ADD MSTORE PUSH1 0x20 DUP2 ADD SWAP1 POP PUSH2 0x442D JUMP JUMPDEST PUSH1 0x0 DUP5 DUP5 ADD MSTORE POP POP POP POP JUMP JUMPDEST PUSH1 0x0 PUSH1 0x1F NOT PUSH1 0x1F DUP4 ADD AND SWAP1 POP SWAP2 SWAP1 POP JUMP JUMPDEST PUSH1 0x0 PUSH2 0x4470 DUP3 PUSH2 0x440E JUMP JUMPDEST PUSH2 0x447A DUP2 DUP6 PUSH2 0x4419 JUMP JUMPDEST SWAP4 POP PUSH2 0x448A DUP2 DUP6 PUSH1 0x20 DUP7 ADD PUSH2 0x442A JUMP JUMPDEST PUSH2 0x4493 DUP2 PUSH2 0x4454 JUMP JUMPDEST DUP5 ADD SWAP2 POP POP SWAP3 SWAP2 POP POP JUMP JUMPDEST PUSH1 0x0 DUP2 SWAP1 POP SWAP2 SWAP1 POP JUMP JUMPDEST PUSH2 0x44B1 DUP2 PUSH2 0x449E JUMP JUMPDEST DUP3 MSTORE POP POP JUMP JUMPDEST PUSH1 0x0 DUP2 ISZERO ISZERO SWAP1 POP SWAP2 SWAP1 POP JUMP JUMPDEST PUSH2 0x44CC DUP2 PUSH2 0x44B7 JUMP JUMPDEST DUP3 MSTORE POP POP JUMP JUMPDEST PUSH1 0x0 PUSH2 0x100 DUP3 ADD SWAP1 POP PUSH2 0x44E8 PUSH1 0x0 DUP4 ADD DUP12 PUSH2 0x43FF JUMP JUMPDEST DUP2 DUP2 SUB PUSH1 0x20 DUP4 ADD MSTORE PUSH2 0x44FA DUP2 DUP11 PUSH2 0x4465 JUMP JUMPDEST SWAP1 POP DUP2 DUP2 SUB PUSH1 0x40 DUP4 ADD MSTORE PUSH2 0x450E DUP2 DUP10 PUSH2 0x4465 JUMP JUMPDEST SWAP1 POP PUSH2 0x451D PUSH1 0x60 DUP4 ADD DUP9 PUSH2 0x44A8 JUMP JUMPDEST DUP2 DUP2 SUB PUSH1 0x80 DUP4 ADD MSTORE PUSH2 0x452F DUP2 DUP8 PUSH2 0x4465 JUMP JUMPDEST SWAP1 POP DUP2 DUP2 SUB PUSH1 0xA0 DUP4 ADD MSTORE PUSH2 0x4543 DUP2 DUP7 PUSH2 0x4465 JUMP JUMPDEST SWAP1 POP PUSH2 0x4552 PUSH1 0xC0 DUP4 ADD DUP6 PUSH2 0x44C3 JUMP JUMPDEST PUSH2 0x455F PUSH1 0xE0 DUP4 ADD DUP5 PUSH2 0x44A8 JUMP JUMPDEST SWAP10 SWAP9 POP POP POP POP POP POP POP POP POP JUMP JUMPDEST PUSH1 0x0 PUSH1 0x20 DUP3 ADD SWAP1 POP PUSH2 0x4581 PUSH1 0x0 DUP4 ADD DUP5 PUSH2 0x44A8 JUMP JUMPDEST SWAP3 SWAP2 POP POP JUMP JUMPDEST PUSH2 0x4590 DUP2 PUSH2 0x449E JUMP JUMPDEST DUP2 EQ PUSH2 0x459B JUMPI PUSH1 0x0 DUP1 REVERT JUMPDEST POP JUMP JUMPDEST PUSH1 0x0 DUP2 CALLDATALOAD SWAP1 POP PUSH2 0x45AD DUP2 PUSH2 0x4587 JUMP JUMPDEST SWAP3 SWAP2 POP POP JUMP JUMPDEST PUSH1 0x0 PUSH1 0x20 DUP3 DUP5 SUB SLT ISZERO PUSH2 0x45C9 JUMPI PUSH2 0x45C8 PUSH2 0x436A JUMP JUMPDEST JUMPDEST PUSH1 0x0 PUSH2 0x45D7 DUP5 DUP3 DUP6 ADD PUSH2 0x459E JUMP JUMPDEST SWAP2 POP POP SWAP3 SWAP2 POP POP JUMP JUMPDEST PUSH1 0x0 PUSH1 0xFF DUP3 AND SWAP1 POP SWAP2 SWAP1 POP JUMP JUMPDEST PUSH2 0x45F6 DUP2 PUSH2 0x45E0 JUMP JUMPDEST DUP3 MSTORE POP POP JUMP JUMPDEST PUSH1 0x0 PUSH1 0xE0 DUP3 ADD SWAP1 POP PUSH2 0x4611 PUSH1 0x0 DUP4 ADD DUP11 PUSH2 0x45ED JUMP JUMPDEST PUSH2 0x461E PUSH1 0x20 DUP4 ADD DUP10 PUSH2 0x43FF JUMP JUMPDEST DUP2 DUP2 SUB PUSH1 0x40 DUP4 ADD MSTORE PUSH2 0x4630 DUP2 DUP9 PUSH2 0x4465 JUMP JUMPDEST SWAP1 POP DUP2 DUP2 SUB PUSH1 0x60 DUP4 ADD MSTORE PUSH2 0x4644 DUP2 DUP8 PUSH2 0x4465 JUMP JUMPDEST SWAP1 POP PUSH2 0x4653 PUSH1 0x80 DUP4 ADD DUP7 PUSH2 0x44A8 JUMP JUMPDEST PUSH2 0x4660 PUSH1 0xA0 DUP4 ADD DUP6 PUSH2 0x44C3 JUMP JUMPDEST PUSH2 0x466D PUSH1 0xC0 DUP4 ADD DUP5 PUSH2 0x43FF JUMP JUMPDEST SWAP9 SWAP8 POP POP POP POP POP POP POP POP JUMP JUMPDEST PUSH1 0x0 PUSH1 0x20 DUP3 ADD SWAP1 POP PUSH2 0x468E PUSH1 0x0 DUP4 ADD DUP5 PUSH2 0x45ED JUMP JUMPDEST SWAP3 SWAP2 POP POP JUMP JUMPDEST PUSH2 0x469D DUP2 PUSH2 0x4394 JUMP JUMPDEST DUP3 MSTORE POP POP JUMP JUMPDEST PUSH1 0x0 DUP3 DUP3 MSTORE PUSH1 0x20 DUP3 ADD SWAP1 POP SWAP3 SWAP2 POP POP JUMP JUMPDEST PUSH1 0x0 PUSH2 0x46BF DUP3 PUSH2 0x440E JUMP JUMPDEST PUSH2 0x46C9 DUP2 DUP6 PUSH2 0x46A3 JUMP JUMPDEST SWAP4 POP PUSH2 0x46D9 DUP2 DUP6 PUSH1 0x20 DUP7 ADD PUSH2 0x442A JUMP JUMPDEST PUSH2 0x46E2 DUP2 PUSH2 0x4454 JUMP JUMPDEST DUP5 ADD SWAP2 POP POP SWAP3 SWAP2 POP POP JUMP JUMPDEST PUSH2 0x46F6 DUP2 PUSH2 0x449E JUMP JUMPDEST DUP3 MSTORE POP POP JUMP JUMPDEST PUSH1 0x0 DUP2 MLOAD SWAP1 POP SWAP2 SWAP1 POP JUMP JUMPDEST PUSH1 0x0 DUP3 DUP3 MSTORE PUSH1 0x20 DUP3 ADD SWAP1 POP SWAP3 SWAP2 POP POP JUMP JUMPDEST PUSH1 0x0 DUP2 SWAP1 POP PUSH1 0x20 DUP3 ADD SWAP1 POP SWAP2 SWAP1 POP JUMP JUMPDEST PUSH1 0x0 PUSH2 0x4734 DUP4 DUP4 PUSH2 0x46B4 JUMP JUMPDEST SWAP1 POP SWAP3 SWAP2 POP POP JUMP JUMPDEST PUSH1 0x0 PUSH1 0x20 DUP3 ADD SWAP1 POP SWAP2 SWAP1 POP JUMP JUMPDEST PUSH1 0x0 PUSH2 0x4754 DUP3 PUSH2 0x46FC JUMP JUMPDEST PUSH2 0x475E DUP2 DUP6 PUSH2 0x4707 JUMP JUMPDEST SWAP4 POP DUP4 PUSH1 0x20 DUP3 MUL DUP6 ADD PUSH2 0x4770 DUP6 PUSH2 0x4718 JUMP JUMPDEST DUP1 PUSH1 0x0 JUMPDEST DUP6 DUP2 LT ISZERO PUSH2 0x47AC JUMPI DUP5 DUP5 SUB DUP10 MSTORE DUP2 MLOAD PUSH2 0x478D DUP6 DUP3 PUSH2 0x4728 JUMP JUMPDEST SWAP5 POP PUSH2 0x4798 DUP4 PUSH2 0x473C JUMP JUMPDEST SWAP3 POP PUSH1 0x20 DUP11 ADD SWAP10 POP POP PUSH1 0x1 DUP2 ADD SWAP1 POP PUSH2 0x4774 JUMP JUMPDEST POP DUP3 SWAP8 POP DUP8 SWAP6 POP POP POP POP POP POP SWAP3 SWAP2 POP POP JUMP JUMPDEST PUSH2 0x47C7 DUP2 PUSH2 0x44B7 JUMP JUMPDEST DUP3 MSTORE POP POP JUMP JUMPDEST PUSH1 0x0 PUSH2 0x180 DUP4 ADD PUSH1 0x0 DUP4 ADD MLOAD PUSH2 0x47E6 PUSH1 0x0 DUP7 ADD DUP3 PUSH2 0x4694 JUMP JUMPDEST POP PUSH1 0x20 DUP4 ADD MLOAD DUP5 DUP3 SUB PUSH1 0x20 DUP7 ADD MSTORE PUSH2 0x47FE DUP3 DUP3 PUSH2 0x46B4 JUMP JUMPDEST SWAP2 POP POP PUSH1 0x40 DUP4 ADD MLOAD DUP5 DUP3 SUB PUSH1 0x40 DUP7 ADD MSTORE PUSH2 0x4818 DUP3 DUP3 PUSH2 0x46B4 JUMP JUMPDEST SWAP2 POP POP PUSH1 0x60 DUP4 ADD MLOAD PUSH2 0x482D PUSH1 0x60 DUP7 ADD DUP3 PUSH2 0x46ED JUMP JUMPDEST POP PUSH1 0x80 DUP4 ADD MLOAD DUP5 DUP3 SUB PUSH1 0x80 DUP7 ADD MSTORE PUSH2 0x4845 DUP3 DUP3 PUSH2 0x46B4 JUMP JUMPDEST SWAP2 POP POP PUSH1 0xA0 DUP4 ADD MLOAD DUP5 DUP3 SUB PUSH1 0xA0 DUP7 ADD MSTORE PUSH2 0x485F DUP3 DUP3 PUSH2 0x46B4 JUMP JUMPDEST SWAP2 POP POP PUSH1 0xC0 DUP4 ADD MLOAD DUP5 DUP3 SUB PUSH1 0xC0 DUP7 ADD MSTORE PUSH2 0x4879 DUP3 DUP3 PUSH2 0x46B4 JUMP JUMPDEST SWAP2 POP POP PUSH1 0xE0 DUP4 ADD MLOAD DUP5 DUP3 SUB PUSH1 0xE0 DUP7 ADD MSTORE PUSH2 0x4893 DUP3 DUP3 PUSH2 0x4749 JUMP JUMPDEST SWAP2 POP POP PUSH2 0x100 DUP4 ADD MLOAD PUSH2 0x48AA PUSH2 0x100 DUP7 ADD DUP3 PUSH2 0x46ED JUMP JUMPDEST POP PUSH2 0x120 DUP4 ADD MLOAD PUSH2 0x48BF PUSH2 0x120 DUP7 ADD DUP3 PUSH2 0x47BE JUMP JUMPDEST POP PUSH2 0x140 DUP4 ADD MLOAD PUSH2 0x48D4 PUSH2 0x140 DUP7 ADD DUP3 PUSH2 0x46ED JUMP JUMPDEST POP PUSH2 0x160 DUP4 ADD MLOAD PUSH2 0x48E9 PUSH2 0x160 DUP7 ADD DUP3 PUSH2 0x46ED JUMP JUMPDEST POP DUP1 SWAP2 POP POP SWAP3 SWAP2 POP POP JUMP JUMPDEST PUSH1 0x0 PUSH1 0x20 DUP3 ADD SWAP1 POP DUP2 DUP2 SUB PUSH1 0x0 DUP4 ADD MSTORE PUSH2 0x490E DUP2 DUP5 PUSH2 0x47CD JUMP JUMPDEST SWAP1 POP SWAP3 SWAP2 POP POP JUMP JUMPDEST PUSH1 0x0 PUSH2 0x160 DUP3 ADD SWAP1 POP PUSH2 0x492C PUSH1 0x0 DUP4 ADD DUP15 PUSH2 0x43FF JUMP JUMPDEST DUP2 DUP2 SUB PUSH1 0x20 DUP4 ADD MSTORE PUSH2 0x493E DUP2 DUP14 PUSH2 0x4465 JUMP JUMPDEST SWAP1 POP DUP2 DUP2 SUB PUSH1 0x40 DUP4 ADD MSTORE PUSH2 0x4952 DUP2 DUP13 PUSH2 0x4465 JUMP JUMPDEST SWAP1 POP PUSH2 0x4961 PUSH1 0x60 DUP4 ADD DUP12 PUSH2 0x44A8 JUMP JUMPDEST DUP2 DUP2 SUB PUSH1 0x80 DUP4 ADD MSTORE PUSH2 0x4973 DUP2 DUP11 PUSH2 0x4465 JUMP JUMPDEST SWAP1 POP DUP2 DUP2 SUB PUSH1 0xA0 DUP4 ADD MSTORE PUSH2 0x4987 DUP2 DUP10 PUSH2 0x4465 JUMP JUMPDEST SWAP1 POP DUP2 DUP2 SUB PUSH1 0xC0 DUP4 ADD MSTORE PUSH2 0x499B DUP2 DUP9 PUSH2 0x4465 JUMP JUMPDEST SWAP1 POP PUSH2 0x49AA PUSH1 0xE0 DUP4 ADD DUP8 PUSH2 0x44A8 JUMP JUMPDEST PUSH2 0x49B8 PUSH2 0x100 DUP4 ADD DUP7 PUSH2 0x44C3 JUMP JUMPDEST PUSH2 0x49C6 PUSH2 0x120 DUP4 ADD DUP6 PUSH2 0x44A8 JUMP JUMPDEST PUSH2 0x49D4 PUSH2 0x140 DUP4 ADD DUP5 PUSH2 0x44A8 JUMP JUMPDEST SWAP13 SWAP12 POP POP POP POP POP POP POP POP POP POP POP POP JUMP JUMPDEST PUSH1 0x0 DUP1 REVERT JUMPDEST PUSH1 0x0 DUP1 REVERT JUMPDEST PUSH32 0x4E487B7100000000000000000000000000000000000000000000000000000000 PUSH1 0x0 MSTORE PUSH1 0x41 PUSH1 0x4 MSTORE PUSH1 0x24 PUSH1 0x0 REVERT JUMPDEST PUSH2 0x4A26 DUP3 PUSH2 0x4454 JUMP JUMPDEST DUP2 ADD DUP2 DUP2 LT PUSH8 0xFFFFFFFFFFFFFFFF DUP3 GT OR ISZERO PUSH2 0x4A45 JUMPI PUSH2 0x4A44 PUSH2 0x49EE JUMP JUMPDEST JUMPDEST DUP1 PUSH1 0x40 MSTORE POP POP POP JUMP JUMPDEST PUSH1 0x0 PUSH2 0x4A58 PUSH2 0x4360 JUMP JUMPDEST SWAP1 POP PUSH2 0x4A64 DUP3 DUP3 PUSH2 0x4A1D JUMP JUMPDEST SWAP2 SWAP1 POP JUMP JUMPDEST PUSH1 0x0 PUSH8 0xFFFFFFFFFFFFFFFF DUP3 GT ISZERO PUSH2 0x4A84 JUMPI PUSH2 0x4A83 PUSH2 0x49EE JUMP JUMPDEST JUMPDEST PUSH2 0x4A8D DUP3 PUSH2 0x4454 JUMP JUMPDEST SWAP1 POP PUSH1 0x20 DUP2 ADD SWAP1 POP SWAP2 SWAP1 POP JUMP JUMPDEST DUP3 DUP2 DUP4 CALLDATACOPY PUSH1 0x0 DUP4 DUP4 ADD MSTORE POP POP POP JUMP JUMPDEST PUSH1 0x0 PUSH2 0x4ABC PUSH2 0x4AB7 DUP5 PUSH2 0x4A69 JUMP JUMPDEST PUSH2 0x4A4E JUMP JUMPDEST SWAP1 POP DUP3 DUP2 MSTORE PUSH1 0x20 DUP2 ADD DUP5 DUP5 DUP5 ADD GT ISZERO PUSH2 0x4AD8 JUMPI PUSH2 0x4AD7 PUSH2 0x49E9 JUMP JUMPDEST JUMPDEST PUSH2 0x4AE3 DUP5 DUP3 DUP6 PUSH2 0x4A9A JUMP JUMPDEST POP SWAP4 SWAP3 POP POP POP JUMP JUMPDEST PUSH1 0x0 DUP3 PUSH1 0x1F DUP4 ADD SLT PUSH2 0x4B00 JUMPI PUSH2 0x4AFF PUSH2 0x49E4 JUMP JUMPDEST JUMPDEST DUP2 CALLDATALOAD PUSH2 0x4B10 DUP5 DUP3 PUSH1 0x20 DUP7 ADD PUSH2 0x4AA9 JUMP JUMPDEST SWAP2 POP POP SWAP3 SWAP2 POP POP JUMP JUMPDEST PUSH1 0x0 DUP1 PUSH1 0x0 DUP1 PUSH1 0x80 DUP6 DUP8 SUB SLT ISZERO PUSH2 0x4B33 JUMPI PUSH2 0x4B32 PUSH2 0x436A JUMP JUMPDEST JUMPDEST PUSH1 0x0 DUP6 ADD CALLDATALOAD PUSH8 0xFFFFFFFFFFFFFFFF DUP2 GT ISZERO PUSH2 0x4B51 JUMPI PUSH2 0x4B50 PUSH2 0x436F JUMP JUMPDEST JUMPDEST PUSH2 0x4B5D DUP8 DUP3 DUP9 ADD PUSH2 0x4AEB JUMP JUMPDEST SWAP5 POP POP PUSH1 0x20 DUP6 ADD CALLDATALOAD PUSH8 0xFFFFFFFFFFFFFFFF DUP2 GT ISZERO PUSH2 0x4B7E JUMPI PUSH2 0x4B7D PUSH2 0x436F JUMP JUMPDEST JUMPDEST PUSH2 0x4B8A DUP8 DUP3 DUP9 ADD PUSH2 0x4AEB JUMP JUMPDEST SWAP4 POP POP PUSH1 0x40 DUP6 ADD CALLDATALOAD PUSH8 0xFFFFFFFFFFFFFFFF DUP2 GT ISZERO PUSH2 0x4BAB JUMPI PUSH2 0x4BAA PUSH2 0x436F JUMP JUMPDEST JUMPDEST PUSH2 0x4BB7 DUP8 DUP3 DUP9 ADD PUSH2 0x4AEB JUMP JUMPDEST SWAP3 POP POP PUSH1 0x60 DUP6 ADD CALLDATALOAD PUSH8 0xFFFFFFFFFFFFFFFF DUP2 GT ISZERO PUSH2 0x4BD8 JUMPI PUSH2 0x4BD7 PUSH2 0x436F JUMP JUMPDEST JUMPDEST PUSH2 0x4BE4 DUP8 DUP3 DUP9 ADD PUSH2 0x4AEB JUMP JUMPDEST SWAP2 POP POP SWAP3 SWAP6 SWAP2 SWAP5 POP SWAP3 POP JUMP JUMPDEST PUSH2 0x4BF9 DUP2 PUSH2 0x45E0 JUMP JUMPDEST DUP3 MSTORE POP POP JUMP JUMPDEST PUSH1 0x0 DUP2 MLOAD SWAP1 POP SWAP2 SWAP1 POP JUMP JUMPDEST PUSH1 0x0 DUP3 DUP3 MSTORE PUSH1 0x20 DUP3 ADD SWAP1 POP SWAP3 SWAP2 POP POP JUMP JUMPDEST PUSH1 0x0 DUP2 SWAP1 POP PUSH1 0x20 DUP3 ADD SWAP1 POP SWAP2 SWAP1 POP JUMP JUMPDEST PUSH1 0x0 PUSH2 0x4C37 DUP4 DUP4 PUSH2 0x4694 JUMP JUMPDEST PUSH1 0x20 DUP4 ADD SWAP1 POP SWAP3 SWAP2 POP POP JUMP JUMPDEST PUSH1 0x0 PUSH1 0x20 DUP3 ADD SWAP1 POP SWAP2 SWAP1 POP JUMP JUMPDEST PUSH1 0x0 PUSH2 0x4C5B DUP3 PUSH2 0x4BFF JUMP JUMPDEST PUSH2 0x4C65 DUP2 DUP6 PUSH2 0x4C0A JUMP JUMPDEST SWAP4 POP PUSH2 0x4C70 DUP4 PUSH2 0x4C1B JUMP JUMPDEST DUP1 PUSH1 0x0 JUMPDEST DUP4 DUP2 LT ISZERO PUSH2 0x4CA1 JUMPI DUP2 MLOAD PUSH2 0x4C88 DUP9 DUP3 PUSH2 0x4C2B JUMP JUMPDEST SWAP8 POP PUSH2 0x4C93 DUP4 PUSH2 0x4C43 JUMP JUMPDEST SWAP3 POP POP PUSH1 0x1 DUP2 ADD SWAP1 POP PUSH2 0x4C74 JUMP JUMPDEST POP DUP6 SWAP4 POP POP POP POP SWAP3 SWAP2 POP POP JUMP JUMPDEST PUSH1 0x0 PUSH2 0x100 DUP4 ADD PUSH1 0x0 DUP4 ADD MLOAD PUSH2 0x4CC7 PUSH1 0x0 DUP7 ADD DUP3 PUSH2 0x4BF0 JUMP JUMPDEST POP PUSH1 0x20 DUP4 ADD MLOAD PUSH2 0x4CDA PUSH1 0x20 DUP7 ADD DUP3 PUSH2 0x4694 JUMP JUMPDEST POP PUSH1 0x40 DUP4 ADD MLOAD DUP5 DUP3 SUB PUSH1 0x40 DUP7 ADD MSTORE PUSH2 0x4CF2 DUP3 DUP3 PUSH2 0x46B4 JUMP JUMPDEST SWAP2 POP POP PUSH1 0x60 DUP4 ADD MLOAD DUP5 DUP3 SUB PUSH1 0x60 DUP7 ADD MSTORE PUSH2 0x4D0C DUP3 DUP3 PUSH2 0x46B4 JUMP JUMPDEST SWAP2 POP POP PUSH1 0x80 DUP4 ADD MLOAD PUSH2 0x4D21 PUSH1 0x80 DUP7 ADD DUP3 PUSH2 0x46ED JUMP JUMPDEST POP PUSH1 0xA0 DUP4 ADD MLOAD PUSH2 0x4D34 PUSH1 0xA0 DUP7 ADD DUP3 PUSH2 0x47BE JUMP JUMPDEST POP PUSH1 0xC0 DUP4 ADD MLOAD DUP5 DUP3 SUB PUSH1 0xC0 DUP7 ADD MSTORE PUSH2 0x4D4C DUP3 DUP3 PUSH2 0x4C50 JUMP JUMPDEST SWAP2 POP POP PUSH1 0xE0 DUP4 ADD MLOAD PUSH2 0x4D61 PUSH1 0xE0 DUP7 ADD DUP3 PUSH2 0x4694 JUMP JUMPDEST POP DUP1 SWAP2 POP POP SWAP3 SWAP2 POP POP JUMP JUMPDEST PUSH1 0x0 PUSH1 0x20 DUP3 ADD SWAP1 POP DUP2 DUP2 SUB PUSH1 0x0 DUP4 ADD MSTORE PUSH2 0x4D86 DUP2 DUP5 PUSH2 0x4CAE JUMP JUMPDEST SWAP1 POP SWAP3 SWAP2 POP POP JUMP JUMPDEST PUSH1 0x0 DUP1 PUSH1 0x40 DUP4 DUP6 SUB SLT ISZERO PUSH2 0x4DA5 JUMPI PUSH2 0x4DA4 PUSH2 0x436A JUMP JUMPDEST JUMPDEST PUSH1 0x0 PUSH2 0x4DB3 DUP6 DUP3 DUP7 ADD PUSH2 0x459E JUMP JUMPDEST SWAP3 POP POP PUSH1 0x20 PUSH2 0x4DC4 DUP6 DUP3 DUP7 ADD PUSH2 0x43BD JUMP JUMPDEST SWAP2 POP POP SWAP3 POP SWAP3 SWAP1 POP JUMP JUMPDEST PUSH1 0x0 DUP1 PUSH1 0x0 PUSH1 0x60 DUP5 DUP7 SUB SLT ISZERO PUSH2 0x4DE7 JUMPI PUSH2 0x4DE6 PUSH2 0x436A JUMP JUMPDEST JUMPDEST PUSH1 0x0 DUP5 ADD CALLDATALOAD PUSH8 0xFFFFFFFFFFFFFFFF DUP2 GT ISZERO PUSH2 0x4E05 JUMPI PUSH2 0x4E04 PUSH2 0x436F JUMP JUMPDEST JUMPDEST PUSH2 0x4E11 DUP7 DUP3 DUP8 ADD PUSH2 0x4AEB JUMP JUMPDEST SWAP4 POP POP PUSH1 0x20 DUP5 ADD CALLDATALOAD PUSH8 0xFFFFFFFFFFFFFFFF DUP2 GT ISZERO PUSH2 0x4E32 JUMPI PUSH2 0x4E31 PUSH2 0x436F JUMP JUMPDEST JUMPDEST PUSH2 0x4E3E DUP7 DUP3 DUP8 ADD PUSH2 0x4AEB JUMP JUMPDEST SWAP3 POP POP PUSH1 0x40 PUSH2 0x4E4F DUP7 DUP3 DUP8 ADD PUSH2 0x459E JUMP JUMPDEST SWAP2 POP POP SWAP3 POP SWAP3 POP SWAP3 JUMP JUMPDEST PUSH1 0x0 PUSH2 0x100 DUP4 ADD PUSH1 0x0 DUP4 ADD MLOAD PUSH2 0x4E72 PUSH1 0x0 DUP7 ADD DUP3 PUSH2 0x4694 JUMP JUMPDEST POP PUSH1 0x20 DUP4 ADD MLOAD DUP5 DUP3 SUB PUSH1 0x20 DUP7 ADD MSTORE PUSH2 0x4E8A DUP3 DUP3 PUSH2 0x46B4 JUMP JUMPDEST SWAP2 POP POP PUSH1 0x40 DUP4 ADD MLOAD DUP5 DUP3 SUB PUSH1 0x40 DUP7 ADD MSTORE PUSH2 0x4EA4 DUP3 DUP3 PUSH2 0x46B4 JUMP JUMPDEST SWAP2 POP POP PUSH1 0x60 DUP4 ADD MLOAD PUSH2 0x4EB9 PUSH1 0x60 DUP7 ADD DUP3 PUSH2 0x46ED JUMP JUMPDEST POP PUSH1 0x80 DUP4 ADD MLOAD DUP5 DUP3 SUB PUSH1 0x80 DUP7 ADD MSTORE PUSH2 0x4ED1 DUP3 DUP3 PUSH2 0x46B4 JUMP JUMPDEST SWAP2 POP POP PUSH1 0xA0 DUP4 ADD MLOAD DUP5 DUP3 SUB PUSH1 0xA0 DUP7 ADD MSTORE PUSH2 0x4EEB DUP3 DUP3 PUSH2 0x46B4 JUMP JUMPDEST SWAP2 POP POP PUSH1 0xC0 DUP4 ADD MLOAD PUSH2 0x4F00 PUSH1 0xC0 DUP7 ADD DUP3 PUSH2 0x47BE JUMP JUMPDEST POP PUSH1 0xE0 DUP4 ADD MLOAD PUSH2 0x4F13 PUSH1 0xE0 DUP7 ADD DUP3 PUSH2 0x46ED JUMP JUMPDEST POP DUP1 SWAP2 POP POP SWAP3 SWAP2 POP POP JUMP JUMPDEST PUSH1 0x0 PUSH1 0x20 DUP3 ADD SWAP1 POP DUP2 DUP2 SUB PUSH1 0x0 DUP4 ADD MSTORE PUSH2 0x4F38 DUP2 DUP5 PUSH2 0x4E59 JUMP JUMPDEST SWAP1 POP SWAP3 SWAP2 POP POP JUMP JUMPDEST PUSH1 0x0 PUSH1 0x20 DUP3 ADD SWAP1 POP PUSH2 0x4F55 PUSH1 0x0 DUP4 ADD DUP5 PUSH2 0x43FF JUMP JUMPDEST SWAP3 SWAP2 POP POP JUMP JUMPDEST PUSH1 0x0 PUSH8 0xFFFFFFFFFFFFFFFF DUP3 GT ISZERO PUSH2 0x4F76 JUMPI PUSH2 0x4F75 PUSH2 0x49EE JUMP JUMPDEST JUMPDEST PUSH1 0x20 DUP3 MUL SWAP1 POP PUSH1 0x20 DUP2 ADD SWAP1 POP SWAP2 SWAP1 POP JUMP JUMPDEST PUSH1 0x0 DUP1 REVERT JUMPDEST PUSH1 0x0 PUSH2 0x4F9F PUSH2 0x4F9A DUP5 PUSH2 0x4F5B JUMP JUMPDEST PUSH2 0x4A4E JUMP JUMPDEST SWAP1 POP DUP1 DUP4 DUP3 MSTORE PUSH1 0x20 DUP3 ADD SWAP1 POP PUSH1 0x20 DUP5 MUL DUP4 ADD DUP6 DUP2 GT ISZERO PUSH2 0x4FC2 JUMPI PUSH2 0x4FC1 PUSH2 0x4F87 JUMP JUMPDEST JUMPDEST DUP4 JUMPDEST DUP2 DUP2 LT ISZERO PUSH2 0x5009 JUMPI DUP1 CALLDATALOAD PUSH8 0xFFFFFFFFFFFFFFFF DUP2 GT ISZERO PUSH2 0x4FE7 JUMPI PUSH2 0x4FE6 PUSH2 0x49E4 JUMP JUMPDEST JUMPDEST DUP1 DUP7 ADD PUSH2 0x4FF4 DUP10 DUP3 PUSH2 0x4AEB JUMP JUMPDEST DUP6 MSTORE PUSH1 0x20 DUP6 ADD SWAP5 POP POP POP PUSH1 0x20 DUP2 ADD SWAP1 POP PUSH2 0x4FC4 JUMP JUMPDEST POP POP POP SWAP4 SWAP3 POP POP POP JUMP JUMPDEST PUSH1 0x0 DUP3 PUSH1 0x1F DUP4 ADD SLT PUSH2 0x5028 JUMPI PUSH2 0x5027 PUSH2 0x49E4 JUMP JUMPDEST JUMPDEST DUP2 CALLDATALOAD PUSH2 0x5038 DUP5 DUP3 PUSH1 0x20 DUP7 ADD PUSH2 0x4F8C JUMP JUMPDEST SWAP2 POP POP SWAP3 SWAP2 POP POP JUMP JUMPDEST PUSH1 0x0 DUP1 PUSH1 0x0 DUP1 PUSH1 0x0 DUP1 PUSH1 0x0 PUSH1 0xE0 DUP9 DUP11 SUB SLT ISZERO PUSH2 0x5060 JUMPI PUSH2 0x505F PUSH2 0x436A JUMP JUMPDEST JUMPDEST PUSH1 0x0 DUP9 ADD CALLDATALOAD PUSH8 0xFFFFFFFFFFFFFFFF DUP2 GT ISZERO PUSH2 0x507E JUMPI PUSH2 0x507D PUSH2 0x436F JUMP JUMPDEST JUMPDEST PUSH2 0x508A DUP11 DUP3 DUP12 ADD PUSH2 0x4AEB JUMP JUMPDEST SWAP8 POP POP PUSH1 0x20 DUP9 ADD CALLDATALOAD PUSH8 0xFFFFFFFFFFFFFFFF DUP2 GT ISZERO PUSH2 0x50AB JUMPI PUSH2 0x50AA PUSH2 0x436F JUMP JUMPDEST JUMPDEST PUSH2 0x50B7 DUP11 DUP3 DUP12 ADD PUSH2 0x4AEB JUMP JUMPDEST SWAP7 POP POP PUSH1 0x40 DUP9 ADD CALLDATALOAD PUSH8 0xFFFFFFFFFFFFFFFF DUP2 GT ISZERO PUSH2 0x50D8 JUMPI PUSH2 0x50D7 PUSH2 0x436F JUMP JUMPDEST JUMPDEST PUSH2 0x50E4 DUP11 DUP3 DUP12 ADD PUSH2 0x4AEB JUMP JUMPDEST SWAP6 POP POP PUSH1 0x60 DUP9 ADD CALLDATALOAD PUSH8 0xFFFFFFFFFFFFFFFF DUP2 GT ISZERO PUSH2 0x5105 JUMPI PUSH2 0x5104 PUSH2 0x436F JUMP JUMPDEST JUMPDEST PUSH2 0x5111 DUP11 DUP3 DUP12 ADD PUSH2 0x4AEB JUMP JUMPDEST SWAP5 POP POP PUSH1 0x80 DUP9 ADD CALLDATALOAD PUSH8 0xFFFFFFFFFFFFFFFF DUP2 GT ISZERO PUSH2 0x5132 JUMPI PUSH2 0x5131 PUSH2 0x436F JUMP JUMPDEST JUMPDEST PUSH2 0x513E DUP11 DUP3 DUP12 ADD PUSH2 0x4AEB JUMP JUMPDEST SWAP4 POP POP PUSH1 0xA0 DUP9 ADD CALLDATALOAD PUSH8 0xFFFFFFFFFFFFFFFF DUP2 GT ISZERO PUSH2 0x515F JUMPI PUSH2 0x515E PUSH2 0x436F JUMP JUMPDEST JUMPDEST PUSH2 0x516B DUP11 DUP3 DUP12 ADD PUSH2 0x5013 JUMP JUMPDEST SWAP3 POP POP PUSH1 0xC0 PUSH2 0x517C DUP11 DUP3 DUP12 ADD PUSH2 0x459E JUMP JUMPDEST SWAP2 POP POP SWAP3 SWAP6 SWAP9 SWAP2 SWAP5 SWAP8 POP SWAP3 SWAP6 POP JUMP JUMPDEST PUSH1 0x0 DUP1 PUSH1 0x0 DUP1 PUSH1 0x0 DUP1 PUSH1 0x0 DUP1 PUSH2 0x100 DUP10 DUP12 SUB SLT ISZERO PUSH2 0x51AC JUMPI PUSH2 0x51AB PUSH2 0x436A JUMP JUMPDEST JUMPDEST PUSH1 0x0 PUSH2 0x51BA DUP12 DUP3 DUP13 ADD PUSH2 0x43BD JUMP JUMPDEST SWAP9 POP POP PUSH1 0x20 DUP10 ADD CALLDATALOAD PUSH8 0xFFFFFFFFFFFFFFFF DUP2 GT ISZERO PUSH2 0x51DB JUMPI PUSH2 0x51DA PUSH2 0x436F JUMP JUMPDEST JUMPDEST PUSH2 0x51E7 DUP12 DUP3 DUP13 ADD PUSH2 0x4AEB JUMP JUMPDEST SWAP8 POP POP PUSH1 0x40 DUP10 ADD CALLDATALOAD PUSH8 0xFFFFFFFFFFFFFFFF DUP2 GT ISZERO PUSH2 0x5208 JUMPI PUSH2 0x5207 PUSH2 0x436F JUMP JUMPDEST JUMPDEST PUSH2 0x5214 DUP12 DUP3 DUP13 ADD PUSH2 0x4AEB JUMP JUMPDEST SWAP7 POP POP PUSH1 0x60 DUP10 ADD CALLDATALOAD PUSH8 0xFFFFFFFFFFFFFFFF DUP2 GT ISZERO PUSH2 0x5235 JUMPI PUSH2 0x5234 PUSH2 0x436F JUMP JUMPDEST JUMPDEST PUSH2 0x5241 DUP12 DUP3 DUP13 ADD PUSH2 0x4AEB JUMP JUMPDEST SWAP6 POP POP PUSH1 0x80 DUP10 ADD CALLDATALOAD PUSH8 0xFFFFFFFFFFFFFFFF DUP2 GT ISZERO PUSH2 0x5262 JUMPI PUSH2 0x5261 PUSH2 0x436F JUMP JUMPDEST JUMPDEST PUSH2 0x526E DUP12 DUP3 DUP13 ADD PUSH2 0x4AEB JUMP JUMPDEST SWAP5 POP POP PUSH1 0xA0 DUP10 ADD CALLDATALOAD PUSH8 0xFFFFFFFFFFFFFFFF DUP2 GT ISZERO PUSH2 0x528F JUMPI PUSH2 0x528E PUSH2 0x436F JUMP JUMPDEST JUMPDEST PUSH2 0x529B DUP12 DUP3 DUP13 ADD PUSH2 0x4AEB JUMP JUMPDEST SWAP4 POP POP PUSH1 0xC0 DUP10 ADD CALLDATALOAD PUSH8 0xFFFFFFFFFFFFFFFF DUP2 GT ISZERO PUSH2 0x52BC JUMPI PUSH2 0x52BB PUSH2 0x436F JUMP JUMPDEST JUMPDEST PUSH2 0x52C8 DUP12 DUP3 DUP13 ADD PUSH2 0x5013 JUMP JUMPDEST SWAP3 POP POP PUSH1 0xE0 PUSH2 0x52D9 DUP12 DUP3 DUP13 ADD PUSH2 0x459E JUMP JUMPDEST SWAP2 POP POP SWAP3 SWAP6 SWAP9 POP SWAP3 SWAP6 SWAP9 SWAP1 SWAP4 SWAP7 POP JUMP JUMPDEST PUSH1 0x0 DUP2 MLOAD SWAP1 POP SWAP2 SWAP1 POP JUMP JUMPDEST PUSH1 0x0 DUP3 DUP3 MSTORE PUSH1 0x20 DUP3 ADD SWAP1 POP SWAP3 SWAP2 POP POP JUMP JUMPDEST PUSH1 0x0 DUP2 SWAP1 POP PUSH1 0x20 DUP3 ADD SWAP1 POP SWAP2 SWAP1 POP JUMP JUMPDEST PUSH1 0x0 PUSH2 0x100 DUP4 ADD PUSH1 0x0 DUP4 ADD MLOAD PUSH2 0x532E PUSH1 0x0 DUP7 ADD DUP3 PUSH2 0x4BF0 JUMP JUMPDEST POP PUSH1 0x20 DUP4 ADD MLOAD PUSH2 0x5341 PUSH1 0x20 DUP7 ADD DUP3 PUSH2 0x4694 JUMP JUMPDEST POP PUSH1 0x40 DUP4 ADD MLOAD DUP5 DUP3 SUB PUSH1 0x40 DUP7 ADD MSTORE PUSH2 0x5359 DUP3 DUP3 PUSH2 0x46B4 JUMP JUMPDEST SWAP2 POP POP PUSH1 0x60 DUP4 ADD MLOAD DUP5 DUP3 SUB PUSH1 0x60 DUP7 ADD MSTORE PUSH2 0x5373 DUP3 DUP3 PUSH2 0x46B4 JUMP JUMPDEST SWAP2 POP POP PUSH1 0x80 DUP4 ADD MLOAD PUSH2 0x5388 PUSH1 0x80 DUP7 ADD DUP3 PUSH2 0x46ED JUMP JUMPDEST POP PUSH1 0xA0 DUP4 ADD MLOAD PUSH2 0x539B PUSH1 0xA0 DUP7 ADD DUP3 PUSH2 0x47BE JUMP JUMPDEST POP PUSH1 0xC0 DUP4 ADD MLOAD DUP5 DUP3 SUB PUSH1 0xC0 DUP7 ADD MSTORE PUSH2 0x53B3 DUP3 DUP3 PUSH2 0x4C50 JUMP JUMPDEST SWAP2 POP POP PUSH1 0xE0 DUP4 ADD MLOAD PUSH2 0x53C8 PUSH1 0xE0 DUP7 ADD DUP3 PUSH2 0x4694 JUMP JUMPDEST POP DUP1 SWAP2 POP POP SWAP3 SWAP2 POP POP JUMP JUMPDEST PUSH1 0x0 PUSH2 0x53DF DUP4 DUP4 PUSH2 0x5315 JUMP JUMPDEST SWAP1 POP SWAP3 SWAP2 POP POP JUMP JUMPDEST PUSH1 0x0 PUSH1 0x20 DUP3 ADD SWAP1 POP SWAP2 SWAP1 POP JUMP JUMPDEST PUSH1 0x0 PUSH2 0x53FF DUP3 PUSH2 0x52E9 JUMP JUMPDEST PUSH2 0x5409 DUP2 DUP6 PUSH2 0x52F4 JUMP JUMPDEST SWAP4 POP DUP4 PUSH1 0x20 DUP3 MUL DUP6 ADD PUSH2 0x541B DUP6 PUSH2 0x5305 JUMP JUMPDEST DUP1 PUSH1 0x0 JUMPDEST DUP6 DUP2 LT ISZERO PUSH2 0x5457 JUMPI DUP5 DUP5 SUB DUP10 MSTORE DUP2 MLOAD PUSH2 0x5438 DUP6 DUP3 PUSH2 0x53D3 JUMP JUMPDEST SWAP5 POP PUSH2 0x5443 DUP4 PUSH2 0x53E7 JUMP JUMPDEST SWAP3 POP PUSH1 0x20 DUP11 ADD SWAP10 POP POP PUSH1 0x1 DUP2 ADD SWAP1 POP PUSH2 0x541F JUMP JUMPDEST POP DUP3 SWAP8 POP DUP8 SWAP6 POP POP POP POP POP POP SWAP3 SWAP2 POP POP JUMP JUMPDEST PUSH1 0x0 PUSH1 0x20 DUP3 ADD SWAP1 POP DUP2 DUP2 SUB PUSH1 0x0 DUP4 ADD MSTORE PUSH2 0x5483 DUP2 DUP5 PUSH2 0x53F4 JUMP JUMPDEST SWAP1 POP SWAP3 SWAP2 POP POP JUMP JUMPDEST PUSH1 0x0 DUP1 PUSH1 0x40 DUP4 DUP6 SUB SLT ISZERO PUSH2 0x54A2 JUMPI PUSH2 0x54A1 PUSH2 0x436A JUMP JUMPDEST JUMPDEST PUSH1 0x0 PUSH2 0x54B0 DUP6 DUP3 DUP7 ADD PUSH2 0x43BD JUMP JUMPDEST SWAP3 POP POP PUSH1 0x20 PUSH2 0x54C1 DUP6 DUP3 DUP7 ADD PUSH2 0x459E JUMP JUMPDEST SWAP2 POP POP SWAP3 POP SWAP3 SWAP1 POP JUMP JUMPDEST PUSH1 0x0 DUP1 PUSH1 0x0 DUP1 PUSH1 0x0 PUSH1 0xA0 DUP7 DUP9 SUB SLT ISZERO PUSH2 0x54E7 JUMPI PUSH2 0x54E6 PUSH2 0x436A JUMP JUMPDEST JUMPDEST PUSH1 0x0 PUSH2 0x54F5 DUP9 DUP3 DUP10 ADD PUSH2 0x43BD JUMP JUMPDEST SWAP6 POP POP PUSH1 0x20 DUP7 ADD CALLDATALOAD PUSH8 0xFFFFFFFFFFFFFFFF DUP2 GT ISZERO PUSH2 0x5516 JUMPI PUSH2 0x5515 PUSH2 0x436F JUMP JUMPDEST JUMPDEST PUSH2 0x5522 DUP9 DUP3 DUP10 ADD PUSH2 0x4AEB JUMP JUMPDEST SWAP5 POP POP PUSH1 0x40 DUP7 ADD CALLDATALOAD PUSH8 0xFFFFFFFFFFFFFFFF DUP2 GT ISZERO PUSH2 0x5543 JUMPI PUSH2 0x5542 PUSH2 0x436F JUMP JUMPDEST JUMPDEST PUSH2 0x554F DUP9 DUP3 DUP10 ADD PUSH2 0x4AEB JUMP JUMPDEST SWAP4 POP POP PUSH1 0x60 DUP7 ADD CALLDATALOAD PUSH8 0xFFFFFFFFFFFFFFFF DUP2 GT ISZERO PUSH2 0x5570 JUMPI PUSH2 0x556F PUSH2 0x436F JUMP JUMPDEST JUMPDEST PUSH2 0x557C DUP9 DUP3 DUP10 ADD PUSH2 0x4AEB JUMP JUMPDEST SWAP3 POP POP PUSH1 0x80 DUP7 ADD CALLDATALOAD PUSH8 0xFFFFFFFFFFFFFFFF DUP2 GT ISZERO PUSH2 0x559D JUMPI PUSH2 0x559C PUSH2 0x436F JUMP JUMPDEST JUMPDEST PUSH2 0x55A9 DUP9 DUP3 DUP10 ADD PUSH2 0x4AEB JUMP JUMPDEST SWAP2 POP POP SWAP3 SWAP6 POP SWAP3 SWAP6 SWAP1 SWAP4 POP JUMP JUMPDEST PUSH32 0x4E487B7100000000000000000000000000000000000000000000000000000000 PUSH1 0x0 MSTORE PUSH1 0x22 PUSH1 0x4 MSTORE PUSH1 0x24 PUSH1 0x0 REVERT JUMPDEST PUSH1 0x0 PUSH1 0x2 DUP3 DIV SWAP1 POP PUSH1 0x1 DUP3 AND DUP1 PUSH2 0x55FD JUMPI PUSH1 0x7F DUP3 AND SWAP2 POP JUMPDEST PUSH1 0x20 DUP3 LT DUP2 SUB PUSH2 0x5610 JUMPI PUSH2 0x560F PUSH2 0x55B6 JUMP JUMPDEST JUMPDEST POP SWAP2 SWAP1 POP JUMP JUMPDEST PUSH1 0x0 DUP2 SWAP1 POP DUP2 PUSH1 0x0 MSTORE PUSH1 0x20 PUSH1 0x0 KECCAK256 SWAP1 POP SWAP2 SWAP1 POP JUMP JUMPDEST PUSH1 0x0 PUSH1 0x20 PUSH1 0x1F DUP4 ADD DIV SWAP1 POP SWAP2 SWAP1 POP JUMP JUMPDEST PUSH1 0x0 DUP3 DUP3 SHL SWAP1 POP SWAP3 SWAP2 POP POP JUMP JUMPDEST PUSH1 0x0 PUSH1 0x8 DUP4 MUL PUSH2 0x5678 PUSH32 0xFFFFFFFFFFFFFFFFFFFFFFFFFFFFFFFFFFFFFFFFFFFFFFFFFFFFFFFFFFFFFFFF DUP3 PUSH2 0x563B JUMP JUMPDEST PUSH2 0x5682 DUP7 DUP4 PUSH2 0x563B JUMP JUMPDEST SWAP6 POP DUP1 NOT DUP5 AND SWAP4 POP DUP1 DUP7 AND DUP5 OR SWAP3 POP POP POP SWAP4 SWAP3 POP POP POP JUMP JUMPDEST PUSH1 0x0 DUP2 SWAP1 POP SWAP2 SWAP1 POP JUMP JUMPDEST PUSH1 0x0 PUSH2 0x56BF PUSH2 0x56BA PUSH2 0x56B5 DUP5 PUSH2 0x449E JUMP JUMPDEST PUSH2 0x569A JUMP JUMPDEST PUSH2 0x449E JUMP JUMPDEST SWAP1 POP SWAP2 SWAP1 POP JUMP JUMPDEST PUSH1 0x0 DUP2 SWAP1 POP SWAP2 SWAP1 POP JUMP JUMPDEST PUSH2 0x56D9 DUP4 PUSH2 0x56A4 JUMP JUMPDEST PUSH2 0x56ED PUSH2 0x56E5 DUP3 PUSH2 0x56C6 JUMP JUMPDEST DUP5 DUP5 SLOAD PUSH2 0x5648 JUMP JUMPDEST DUP3 SSTORE POP POP POP POP JUMP JUMPDEST PUSH1 0x0 SWAP1 JUMP JUMPDEST PUSH2 0x5702 PUSH2 0x56F5 JUMP JUMPDEST PUSH2 0x570D DUP2 DUP5 DUP5 PUSH2 0x56D0 JUMP JUMPDEST POP POP POP JUMP JUMPDEST JUMPDEST DUP2 DUP2 LT ISZERO PUSH2 0x5731 JUMPI PUSH2 0x5726 PUSH1 0x0 DUP3 PUSH2 0x56FA JUMP JUMPDEST PUSH1 0x1 DUP2 ADD SWAP1 POP PUSH2 0x5713 JUMP JUMPDEST POP POP JUMP JUMPDEST PUSH1 0x1F DUP3 GT ISZERO PUSH2 0x5776 JUMPI PUSH2 0x5747 DUP2 PUSH2 0x5616 JUMP JUMPDEST PUSH2 0x5750 DUP5 PUSH2 0x562B JUMP JUMPDEST DUP2 ADD PUSH1 0x20 DUP6 LT ISZERO PUSH2 0x575F JUMPI DUP2 SWAP1 POP JUMPDEST PUSH2 0x5773 PUSH2 0x576B DUP6 PUSH2 0x562B JUMP JUMPDEST DUP4 ADD DUP3 PUSH2 0x5712 JUMP JUMPDEST POP POP JUMPDEST POP POP POP JUMP JUMPDEST PUSH1 0x0 DUP3 DUP3 SHR SWAP1 POP SWAP3 SWAP2 POP POP JUMP JUMPDEST PUSH1 0x0 PUSH2 0x5799 PUSH1 0x0 NOT DUP5 PUSH1 0x8 MUL PUSH2 0x577B JUMP JUMPDEST NOT DUP1 DUP4 AND SWAP2 POP POP SWAP3 SWAP2 POP POP JUMP JUMPDEST PUSH1 0x0 PUSH2 0x57B2 DUP4 DUP4 PUSH2 0x5788 JUMP JUMPDEST SWAP2 POP DUP3 PUSH1 0x2 MUL DUP3 OR SWAP1 POP SWAP3 SWAP2 POP POP JUMP JUMPDEST PUSH2 0x57CB DUP3 PUSH2 0x440E JUMP JUMPDEST PUSH8 0xFFFFFFFFFFFFFFFF DUP2 GT ISZERO PUSH2 0x57E4 JUMPI PUSH2 0x57E3 PUSH2 0x49EE JUMP JUMPDEST JUMPDEST PUSH2 0x57EE DUP3 SLOAD PUSH2 0x55E5 JUMP JUMPDEST PUSH2 0x57F9 DUP3 DUP3 DUP6 PUSH2 0x5735 JUMP JUMPDEST PUSH1 0x0 PUSH1 0x20 SWAP1 POP PUSH1 0x1F DUP4 GT PUSH1 0x1 DUP2 EQ PUSH2 0x582C JUMPI PUSH1 0x0 DUP5 ISZERO PUSH2 0x581A JUMPI DUP3 DUP8 ADD MLOAD SWAP1 POP JUMPDEST PUSH2 0x5824 DUP6 DUP3 PUSH2 0x57A6 JUMP JUMPDEST DUP7 SSTORE POP PUSH2 0x588C JUMP JUMPDEST PUSH1 0x1F NOT DUP5 AND PUSH2 0x583A DUP7 PUSH2 0x5616 JUMP JUMPDEST PUSH1 0x0 JUMPDEST DUP3 DUP2 LT ISZERO PUSH2 0x5862 JUMPI DUP5 DUP10 ADD MLOAD DUP3 SSTORE PUSH1 0x1 DUP3 ADD SWAP2 POP PUSH1 0x20 DUP6 ADD SWAP5 POP PUSH1 0x20 DUP2 ADD SWAP1 POP PUSH2 0x583D JUMP JUMPDEST DUP7 DUP4 LT ISZERO PUSH2 0x587F JUMPI DUP5 DUP10 ADD MLOAD PUSH2 0x587B PUSH1 0x1F DUP10 AND DUP3 PUSH2 0x5788 JUMP JUMPDEST DUP4 SSTORE POP JUMPDEST PUSH1 0x1 PUSH1 0x2 DUP9 MUL ADD DUP9 SSTORE POP POP POP JUMPDEST POP POP POP POP POP POP JUMP JUMPDEST PUSH32 0x4A44450000000000000000000000000000000000000000000000000000000000 PUSH1 0x0 DUP3 ADD MSTORE POP JUMP JUMPDEST PUSH1 0x0 PUSH2 0x58CA PUSH1 0x3 DUP4 PUSH2 0x4419 JUMP JUMPDEST SWAP2 POP PUSH2 0x58D5 DUP3 PUSH2 0x5894 JUMP JUMPDEST PUSH1 0x20 DUP3 ADD SWAP1 POP SWAP2 SWAP1 POP JUMP JUMPDEST PUSH1 0x0 PUSH1 0x20 DUP3 ADD SWAP1 POP DUP2 DUP2 SUB PUSH1 0x0 DUP4 ADD MSTORE PUSH2 0x58F9 DUP2 PUSH2 0x58BD JUMP JUMPDEST SWAP1 POP SWAP2 SWAP1 POP JUMP JUMPDEST PUSH32 0x4A44455F45000000000000000000000000000000000000000000000000000000 PUSH1 0x0 DUP3 ADD MSTORE POP JUMP JUMPDEST PUSH1 0x0 PUSH2 0x5936 PUSH1 0x5 DUP4 PUSH2 0x4419 JUMP JUMPDEST SWAP2 POP PUSH2 0x5941 DUP3 PUSH2 0x5900 JUMP JUMPDEST PUSH1 0x20 DUP3 ADD SWAP1 POP SWAP2 SWAP1 POP JUMP JUMPDEST PUSH1 0x0 PUSH1 0x20 DUP3 ADD SWAP1 POP DUP2 DUP2 SUB PUSH1 0x0 DUP4 ADD MSTORE PUSH2 0x5965 DUP2 PUSH2 0x5929 JUMP JUMPDEST SWAP1 POP SWAP2 SWAP1 POP JUMP JUMPDEST PUSH32 0x4A4E435F45000000000000000000000000000000000000000000000000000000 PUSH1 0x0 DUP3 ADD MSTORE POP JUMP JUMPDEST PUSH1 0x0 PUSH2 0x59A2 PUSH1 0x5 DUP4 PUSH2 0x4419 JUMP JUMPDEST SWAP2 POP PUSH2 0x59AD DUP3 PUSH2 0x596C JUMP JUMPDEST PUSH1 0x20 DUP3 ADD SWAP1 POP SWAP2 SWAP1 POP JUMP JUMPDEST PUSH1 0x0 PUSH1 0x20 DUP3 ADD SWAP1 POP DUP2 DUP2 SUB PUSH1 0x0 DUP4 ADD MSTORE PUSH2 0x59D1 DUP2 PUSH2 0x5995 JUMP JUMPDEST SWAP1 POP SWAP2 SWAP1 POP JUMP JUMPDEST PUSH32 0x4946000000000000000000000000000000000000000000000000000000000000 PUSH1 0x0 DUP3 ADD MSTORE POP JUMP JUMPDEST PUSH1 0x0 PUSH2 0x5A0E PUSH1 0x2 DUP4 PUSH2 0x4419 JUMP JUMPDEST SWAP2 POP PUSH2 0x5A19 DUP3 PUSH2 0x59D8 JUMP JUMPDEST PUSH1 0x20 DUP3 ADD SWAP1 POP SWAP2 SWAP1 POP JUMP JUMPDEST PUSH1 0x0 PUSH1 0x20 DUP3 ADD SWAP1 POP DUP2 DUP2 SUB PUSH1 0x0 DUP4 ADD MSTORE PUSH2 0x5A3D DUP2 PUSH2 0x5A01 JUMP JUMPDEST SWAP1 POP SWAP2 SWAP1 POP JUMP JUMPDEST PUSH32 0x4E487B7100000000000000000000000000000000000000000000000000000000 PUSH1 0x0 MSTORE PUSH1 0x11 PUSH1 0x4 MSTORE PUSH1 0x24 PUSH1 0x0 REVERT JUMPDEST PUSH1 0x0 PUSH2 0x5A7E DUP3 PUSH2 0x449E JUMP JUMPDEST SWAP2 POP PUSH2 0x5A89 DUP4 PUSH2 0x449E JUMP JUMPDEST SWAP3 POP DUP3 DUP3 ADD SWAP1 POP DUP1 DUP3 GT ISZERO PUSH2 0x5AA1 JUMPI PUSH2 0x5AA0 PUSH2 0x5A44 JUMP JUMPDEST JUMPDEST SWAP3 SWAP2 POP POP JUMP JUMPDEST PUSH1 0x0 PUSH1 0x60 DUP3 ADD SWAP1 POP PUSH2 0x5ABC PUSH1 0x0 DUP4 ADD DUP7 PUSH2 0x44A8 JUMP JUMPDEST PUSH2 0x5AC9 PUSH1 0x20 DUP4 ADD DUP6 PUSH2 0x43FF JUMP JUMPDEST PUSH2 0x5AD6 PUSH1 0x40 DUP4 ADD DUP5 PUSH2 0x44A8 JUMP JUMPDEST SWAP5 SWAP4 POP POP POP POP JUMP JUMPDEST PUSH32 0x464E480000000000000000000000000000000000000000000000000000000000 PUSH1 0x0 DUP3 ADD MSTORE POP JUMP JUMPDEST PUSH1 0x0 PUSH2 0x5B14 PUSH1 0x3 DUP4 PUSH2 0x4419 JUMP JUMPDEST SWAP2 POP PUSH2 0x5B1F DUP3 PUSH2 0x5ADE JUMP JUMPDEST PUSH1 0x20 DUP3 ADD SWAP1 POP SWAP2 SWAP1 POP JUMP JUMPDEST PUSH1 0x0 PUSH1 0x20 DUP3 ADD SWAP1 POP DUP2 DUP2 SUB PUSH1 0x0 DUP4 ADD MSTORE PUSH2 0x5B43 DUP2 PUSH2 0x5B07 JUMP JUMPDEST SWAP1 POP SWAP2 SWAP1 POP JUMP JUMPDEST PUSH1 0x0 PUSH2 0x5B55 DUP3 PUSH2 0x449E JUMP JUMPDEST SWAP2 POP PUSH32 0xFFFFFFFFFFFFFFFFFFFFFFFFFFFFFFFFFFFFFFFFFFFFFFFFFFFFFFFFFFFFFFFF DUP3 SUB PUSH2 0x5B87 JUMPI PUSH2 0x5B86 PUSH2 0x5A44 JUMP JUMPDEST JUMPDEST PUSH1 0x1 DUP3 ADD SWAP1 POP SWAP2 SWAP1 POP JUMP JUMPDEST PUSH1 0x0 PUSH2 0x5B9D DUP3 PUSH2 0x45E0 JUMP JUMPDEST SWAP2 POP PUSH1 0xFF DUP3 SUB PUSH2 0x5BB0 JUMPI PUSH2 0x5BAF PUSH2 0x5A44 JUMP JUMPDEST JUMPDEST PUSH1 0x1 DUP3 ADD SWAP1 POP SWAP2 SWAP1 POP JUMP JUMPDEST PUSH1 0x0 PUSH2 0x5BD6 PUSH2 0x5BD1 PUSH2 0x5BCC DUP5 PUSH2 0x45E0 JUMP JUMPDEST PUSH2 0x569A JUMP JUMPDEST PUSH2 0x449E JUMP JUMPDEST SWAP1 POP SWAP2 SWAP1 POP JUMP JUMPDEST PUSH2 0x5BE6 DUP2 PUSH2 0x5BBB JUMP JUMPDEST DUP3 MSTORE POP POP JUMP JUMPDEST PUSH1 0x0 PUSH1 0x40 DUP3 ADD SWAP1 POP PUSH2 0x5C01 PUSH1 0x0 DUP4 ADD DUP6 PUSH2 0x5BDD JUMP JUMPDEST DUP2 DUP2 SUB PUSH1 0x20 DUP4 ADD MSTORE PUSH2 0x5C13 DUP2 DUP5 PUSH2 0x4465 JUMP JUMPDEST SWAP1 POP SWAP4 SWAP3 POP POP POP JUMP JUMPDEST PUSH32 0x5752000000000000000000000000000000000000000000000000000000000000 PUSH1 0x0 DUP3 ADD MSTORE POP JUMP JUMPDEST PUSH1 0x0 PUSH2 0x5C52 PUSH1 0x2 DUP4 PUSH2 0x4419 JUMP JUMPDEST SWAP2 POP PUSH2 0x5C5D DUP3 PUSH2 0x5C1C JUMP JUMPDEST PUSH1 0x20 DUP3 ADD SWAP1 POP SWAP2 SWAP1 POP JUMP JUMPDEST PUSH1 0x0 PUSH1 0x20 DUP3 ADD SWAP1 POP DUP2 DUP2 SUB PUSH1 0x0 DUP4 ADD MSTORE PUSH2 0x5C81 DUP2 PUSH2 0x5C45 JUMP JUMPDEST SWAP1 POP SWAP2 SWAP1 POP JUMP JUMPDEST PUSH32 0x4641480000000000000000000000000000000000000000000000000000000000 PUSH1 0x0 DUP3 ADD MSTORE POP JUMP JUMPDEST PUSH1 0x0 PUSH2 0x5CBE PUSH1 0x3 DUP4 PUSH2 0x4419 JUMP JUMPDEST SWAP2 POP PUSH2 0x5CC9 DUP3 PUSH2 0x5C88 JUMP JUMPDEST PUSH1 0x20 DUP3 ADD SWAP1 POP SWAP2 SWAP1 POP JUMP JUMPDEST PUSH1 0x0 PUSH1 0x20 DUP3 ADD SWAP1 POP DUP2 DUP2 SUB PUSH1 0x0 DUP4 ADD MSTORE PUSH2 0x5CED DUP2 PUSH2 0x5CB1 JUMP JUMPDEST SWAP1 POP SWAP2 SWAP1 POP JUMP JUMPDEST PUSH1 0x0 DUP3 DUP3 MSTORE PUSH1 0x20 DUP3 ADD SWAP1 POP SWAP3 SWAP2 POP POP JUMP JUMPDEST PUSH1 0x0 PUSH2 0x5D10 DUP3 PUSH2 0x46FC JUMP JUMPDEST PUSH2 0x5D1A DUP2 DUP6 PUSH2 0x5CF4 JUMP JUMPDEST SWAP4 POP DUP4 PUSH1 0x20 DUP3 MUL DUP6 ADD PUSH2 0x5D2C DUP6 PUSH2 0x4718 JUMP JUMPDEST DUP1 PUSH1 0x0 JUMPDEST DUP6 DUP2 LT ISZERO PUSH2 0x5D68 JUMPI DUP5 DUP5 SUB DUP10 MSTORE DUP2 MLOAD PUSH2 0x5D49 DUP6 DUP3 PUSH2 0x4728 JUMP JUMPDEST SWAP5 POP PUSH2 0x5D54 DUP4 PUSH2 0x473C JUMP JUMPDEST SWAP3 POP PUSH1 0x20 DUP11 ADD SWAP10 POP POP PUSH1 0x1 DUP2 ADD SWAP1 POP PUSH2 0x5D30 JUMP JUMPDEST POP DUP3 SWAP8 POP DUP8 SWAP6 POP POP POP POP POP POP SWAP3 SWAP2 POP POP JUMP JUMPDEST PUSH1 0x0 PUSH1 0x60 DUP3 ADD SWAP1 POP PUSH2 0x5D8F PUSH1 0x0 DUP4 ADD DUP7 PUSH2 0x43FF JUMP JUMPDEST DUP2 DUP2 SUB PUSH1 0x20 DUP4 ADD MSTORE PUSH2 0x5DA1 DUP2 DUP6 PUSH2 0x5D05 JUMP JUMPDEST SWAP1 POP PUSH2 0x5DB0 PUSH1 0x40 DUP4 ADD DUP5 PUSH2 0x44A8 JUMP JUMPDEST SWAP5 SWAP4 POP POP POP POP JUMP JUMPDEST PUSH1 0x0 DUP2 SWAP1 POP SWAP2 SWAP1 POP JUMP JUMPDEST PUSH1 0x0 PUSH8 0xFFFFFFFFFFFFFFFF DUP3 AND SWAP1 POP SWAP2 SWAP1 POP JUMP JUMPDEST PUSH1 0x0 PUSH2 0x5DF1 PUSH2 0x5DEC PUSH2 0x5DE7 DUP5 PUSH2 0x5DB8 JUMP JUMPDEST PUSH2 0x569A JUMP JUMPDEST PUSH2 0x5DC2 JUMP JUMPDEST SWAP1 POP SWAP2 SWAP1 POP JUMP JUMPDEST PUSH2 0x5E01 DUP2 PUSH2 0x5DD6 JUMP JUMPDEST DUP3 MSTORE POP POP JUMP JUMPDEST PUSH1 0x0 PUSH1 0x20 DUP3 ADD SWAP1 POP PUSH2 0x5E1C PUSH1 0x0 DUP4 ADD DUP5 PUSH2 0x5DF8 JUMP JUMPDEST SWAP3 SWAP2 POP POP JUMP JUMPDEST PUSH32 0x4E46455F45000000000000000000000000000000000000000000000000000000 PUSH1 0x0 DUP3 ADD MSTORE POP JUMP JUMPDEST PUSH1 0x0 PUSH2 0x5E58 PUSH1 0x5 DUP4 PUSH2 0x4419 JUMP JUMPDEST SWAP2 POP PUSH2 0x5E63 DUP3 PUSH2 0x5E22 JUMP JUMPDEST PUSH1 0x20 DUP3 ADD SWAP1 POP SWAP2 SWAP1 POP JUMP JUMPDEST PUSH1 0x0 PUSH1 0x20 DUP3 ADD SWAP1 POP DUP2 DUP2 SUB PUSH1 0x0 DUP4 ADD MSTORE PUSH2 0x5E87 DUP2 PUSH2 0x5E4B JUMP JUMPDEST SWAP1 POP SWAP2 SWAP1 POP JUMP JUMPDEST PUSH1 0x0 PUSH2 0x5E99 DUP3 PUSH2 0x449E JUMP JUMPDEST SWAP2 POP PUSH2 0x5EA4 DUP4 PUSH2 0x449E JUMP JUMPDEST SWAP3 POP DUP3 DUP3 SUB SWAP1 POP DUP2 DUP2 GT ISZERO PUSH2 0x5EBC JUMPI PUSH2 0x5EBB PUSH2 0x5A44 JUMP JUMPDEST JUMPDEST SWAP3 SWAP2 POP POP JUMP JUMPDEST PUSH32 0x4E487B7100000000000000000000000000000000000000000000000000000000 PUSH1 0x0 MSTORE PUSH1 0x32 PUSH1 0x4 MSTORE PUSH1 0x24 PUSH1 0x0 REVERT JUMPDEST PUSH1 0x0 PUSH1 0x60 DUP3 ADD SWAP1 POP PUSH2 0x5F06 PUSH1 0x0 DUP4 ADD DUP7 PUSH2 0x44A8 JUMP JUMPDEST PUSH2 0x5F13 PUSH1 0x20 DUP4 ADD DUP6 PUSH2 0x43FF JUMP JUMPDEST PUSH2 0x5F20 PUSH1 0x40 DUP4 ADD DUP5 PUSH2 0x43FF JUMP JUMPDEST SWAP5 SWAP4 POP POP POP POP JUMP JUMPDEST PUSH1 0x0 PUSH1 0x40 DUP3 ADD SWAP1 POP PUSH2 0x5F3D PUSH1 0x0 DUP4 ADD DUP6 PUSH2 0x43FF JUMP JUMPDEST DUP2 DUP2 SUB PUSH1 0x20 DUP4 ADD MSTORE PUSH2 0x5F4F DUP2 DUP5 PUSH2 0x4465 JUMP JUMPDEST SWAP1 POP SWAP4 SWAP3 POP POP POP JUMP INVALID LOG2 PUSH5 0x6970667358 0x22 SLT KECCAK256 DUP9 GASLIMIT 0x2C DUP13 0xB1 0xC9 0xE3 0xE7 0xDD 0xB7 0xE8 0x2D CODECOPY 0xB1 0xD4 0xDD SSTORE 0xB4 PC CALLDATALOAD 0x25 SIGNEXTEND 0xC5 0xAC 0xE2 0xA7 0xDF MSTORE8 SWAP7 PUSH12 0x33B664736F6C634300081800 CALLER "},"gasEstimates":{"creation":{"codeDepositCost":"4892400","executionCost":"5784","totalCost":"4898184"},"external":{"allFreelancerAddresses(uint256)":"5045","allJobs()":"infinite","applyForJob(uint256)":"infinite","completeJob(uint256,address)":"infinite","createJob(string,string,uint256)":"infinite","depositFunds(uint256)":"infinite","editEmployerProfile(string,string,string,string)":"infinite","editFreelancerProfile(string,string,string,string,string,string[],uint256)":"infinite","employers(address)":"infinite","escrowFunds(address,uint256)":"infinite","freelancers(address)":"infinite","getEmployerByAddress(address)":"infinite","getEmployerEscrow(address,uint256)":"infinite","getFreelancerByAddress(address)":"infinite","getJobByID(uint256)":"infinite","hireFreelancer(uint256,address)":"33979","initialize(address)":"106345","jobs(uint256)":"infinite","owner()":"2557","registerEmployer(address,string,string,string,string)":"infinite","registerFreelancer(address,string,string,string,string,string,string[],uint256)":"infinite","releaseEscrow(uint256,address)":"infinite","roles(address)":"2935","totalCompletedJobs()":"2498","totalEmployers()":"2475","totalFreelancers()":"2474","totalJobs()":"2589","walletToUser(address)":"infinite"}},"methodIdentifiers":{"allFreelancerAddresses(uint256)":"c27a9dd4","allJobs()":"c8d1b6aa","applyForJob(uint256)":"e0c94ae5","completeJob(uint256,address)":"6a6b67d1","createJob(string,string,uint256)":"73a06f42","depositFunds(uint256)":"3b76594d","editEmployerProfile(string,string,string,string)":"2a02c56a","editFreelancerProfile(string,string,string,string,string,string[],uint256)":"91ca1687","employers(address)":"0be435bd","escrowFunds(address,uint256)":"fcafae11","freelancers(address)":"21bd6693","getEmployerByAddress(address)":"7a787125","getEmployerEscrow(address,uint256)":"dfac8ce5","getFreelancerByAddress(address)":"1c7af7a0","getJobByID(uint256)":"371ae9f4","hireFreelancer(uint256,address)":"b0f26f18","initialize(address)":"c4d66de8","jobs(uint256)":"180aedf3","owner()":"8da5cb5b","registerEmployer(address,string,string,string,string)":"eacc35c5","registerFreelancer(address,string,string,string,string,string,string[],uint256)":"c151f3c6","releaseEscrow(uint256,address)":"c6cb3bbe","roles(address)":"99374642","totalCompletedJobs()":"1033397b","totalEmployers()":"1906b4ce","totalFreelancers()":"5e586eb1","totalJobs()":"1ace87b3","walletToUser(address)":"ef8de2d8"}},"storageLayout":{"storage":[{"astId":1339,"contract":"contracts/Dfreelancer.sol:Dfreelancer","label":"owner","offset":0,"slot":"0","type":"t_address"},{"astId":1341,"contract":"contracts/Dfreelancer.sol:Dfreelancer","label":"totalJobs","offset":20,"slot":"0","type":"t_uint8"},{"astId":1343,"contract":"contracts/Dfreelancer.sol:Dfreelancer","label":"totalFreelancers","offset":0,"slot":"1","type":"t_uint256"},{"astId":1345,"contract":"contracts/Dfreelancer.sol:Dfreelancer","label":"totalEmployers","offset":0,"slot":"2","type":"t_uint256"},{"astId":1347,"contract":"contracts/Dfreelancer.sol:Dfreelancer","label":"totalCompletedJobs","offset":0,"slot":"3","type":"t_uint256"},{"astId":1413,"contract":"contracts/Dfreelancer.sol:Dfreelancer","label":"jobs","offset":0,"slot":"4","type":"t_mapping(t_uint256,t_struct(Job)1365_storage)"},{"astId":1418,"contract":"contracts/Dfreelancer.sol:Dfreelancer","label":"freelancers","offset":0,"slot":"5","type":"t_mapping(t_address,t_struct(Freelancer)1391_storage)"},{"astId":1423,"contract":"contracts/Dfreelancer.sol:Dfreelancer","label":"employers","offset":0,"slot":"6","type":"t_mapping(t_address,t_struct(Employer)1408_storage)"},{"astId":1429,"contract":"contracts/Dfreelancer.sol:Dfreelancer","label":"escrowFunds","offset":0,"slot":"7","type":"t_mapping(t_address,t_mapping(t_uint256,t_uint256))"},{"astId":1433,"contract":"contracts/Dfreelancer.sol:Dfreelancer","label":"roles","offset":0,"slot":"8","type":"t_mapping(t_address,t_uint8)"},{"astId":1436,"contract":"contracts/Dfreelancer.sol:Dfreelancer","label":"allFreelancerAddresses","offset":0,"slot":"9","type":"t_array(t_address)dyn_storage"},{"astId":1440,"contract":"contracts/Dfreelancer.sol:Dfreelancer","label":"walletToUser","offset":0,"slot":"10","type":"t_mapping(t_address,t_address)"}],"types":{"t_address":{"encoding":"inplace","label":"address","numberOfBytes":"20"},"t_array(t_address)dyn_storage":{"base":"t_address","encoding":"dynamic_array","label":"address[]","numberOfBytes":"32"},"t_array(t_string_storage)dyn_storage":{"base":"t_string_storage","encoding":"dynamic_array","label":"string[]","numberOfBytes":"32"},"t_bool":{"encoding":"inplace","label":"bool","numberOfBytes":"1"},"t_mapping(t_address,t_address)":{"encoding":"mapping","key":"t_address","label":"mapping(address => address)","numberOfBytes":"32","value":"t_address"},"t_mapping(t_address,t_mapping(t_uint256,t_uint256))":{"encoding":"mapping","key":"t_address","label":"mapping(address => mapping(uint256 => uint256))","numberOfBytes":"32","value":"t_mapping(t_uint256,t_uint256)"},"t_mapping(t_address,t_struct(Employer)1408_storage)":{"encoding":"mapping","key":"t_address","label":"mapping(address => struct Storage.Employer)","numberOfBytes":"32","value":"t_struct(Employer)1408_storage"},"t_mapping(t_address,t_struct(Freelancer)1391_storage)":{"encoding":"mapping","key":"t_address","label":"mapping(address => struct Storage.Freelancer)","numberOfBytes":"32","value":"t_struct(Freelancer)1391_storage"},"t_mapping(t_address,t_uint8)":{"encoding":"mapping","key":"t_address","label":"mapping(address => uint8)","numberOfBytes":"32","value":"t_uint8"},"t_mapping(t_uint256,t_struct(Job)1365_storage)":{"encoding":"mapping","key":"t_uint256","label":"mapping(uint256 => struct Storage.Job)","numberOfBytes":"32","value":"t_struct(Job)1365_storage"},"t_mapping(t_uint256,t_uint256)":{"encoding":"mapping","key":"t_uint256","label":"mapping(uint256 => uint256)","numberOfBytes":"32","value":"t_uint256"},"t_string_storage":{"encoding":"bytes","label":"string","numberOfBytes":"32"},"t_struct(Employer)1408_storage":{"encoding":"inplace","label":"struct Storage.Employer","members":[{"astId":1393,"contract":"contracts/Dfreelancer.sol:Dfreelancer","label":"employerAddress","offset":0,"slot":"0","type":"t_address"},{"astId":1395,"contract":"contracts/Dfreelancer.sol:Dfreelancer","label":"name","offset":0,"slot":"1","type":"t_string_storage"},{"astId":1397,"contract":"contracts/Dfreelancer.sol:Dfreelancer","label":"industry","offset":0,"slot":"2","type":"t_string_storage"},{"astId":1399,"contract":"contracts/Dfreelancer.sol:Dfreelancer","label":"balance","offset":0,"slot":"3","type":"t_uint256"},{"astId":1401,"contract":"contracts/Dfreelancer.sol:Dfreelancer","label":"country","offset":0,"slot":"4","type":"t_string_storage"},{"astId":1403,"contract":"contracts/Dfreelancer.sol:Dfreelancer","label":"image","offset":0,"slot":"5","type":"t_string_storage"},{"astId":1405,"contract":"contracts/Dfreelancer.sol:Dfreelancer","label":"registered","offset":0,"slot":"6","type":"t_bool"},{"astId":1407,"contract":"contracts/Dfreelancer.sol:Dfreelancer","label":"registration_date","offset":0,"slot":"7","type":"t_uint256"}],"numberOfBytes":"256"},"t_struct(Freelancer)1391_storage":{"encoding":"inplace","label":"struct Storage.Freelancer","members":[{"astId":1367,"contract":"contracts/Dfreelancer.sol:Dfreelancer","label":"freelancerAddress","offset":0,"slot":"0","type":"t_address"},{"astId":1369,"contract":"contracts/Dfreelancer.sol:Dfreelancer","label":"name","offset":0,"slot":"1","type":"t_string_storage"},{"astId":1371,"contract":"contracts/Dfreelancer.sol:Dfreelancer","label":"skills","offset":0,"slot":"2","type":"t_string_storage"},{"astId":1373,"contract":"contracts/Dfreelancer.sol:Dfreelancer","label":"balance","offset":0,"slot":"3","type":"t_uint256"},{"astId":1375,"contract":"contracts/Dfreelancer.sol:Dfreelancer","label":"country","offset":0,"slot":"4","type":"t_string_storage"},{"astId":1377,"contract":"contracts/Dfreelancer.sol:Dfreelancer","label":"gigTitle","offset":0,"slot":"5","type":"t_string_storage"},{"astId":1379,"contract":"contracts/Dfreelancer.sol:Dfreelancer","label":"gitDescription","offset":0,"slot":"6","type":"t_string_storage"},{"astId":1382,"contract":"contracts/Dfreelancer.sol:Dfreelancer","label":"images","offset":0,"slot":"7","type":"t_array(t_string_storage)dyn_storage"},{"astId":1384,"contract":"contracts/Dfreelancer.sol:Dfreelancer","label":"jobsCompleted","offset":0,"slot":"8","type":"t_uint256"},{"astId":1386,"contract":"contracts/Dfreelancer.sol:Dfreelancer","label":"registered","offset":0,"slot":"9","type":"t_bool"},{"astId":1388,"contract":"contracts/Dfreelancer.sol:Dfreelancer","label":"registration_date","offset":0,"slot":"10","type":"t_uint256"},{"astId":1390,"contract":"contracts/Dfreelancer.sol:Dfreelancer","label":"starting_price","offset":0,"slot":"11","type":"t_uint256"}],"numberOfBytes":"384"},"t_struct(Job)1365_storage":{"encoding":"inplace","label":"struct Storage.Job","members":[{"astId":1349,"contract":"contracts/Dfreelancer.sol:Dfreelancer","label":"id","offset":0,"slot":"0","type":"t_uint8"},{"astId":1351,"contract":"contracts/Dfreelancer.sol:Dfreelancer","label":"employer","offset":1,"slot":"0","type":"t_address"},{"astId":1353,"contract":"contracts/Dfreelancer.sol:Dfreelancer","label":"title","offset":0,"slot":"1","type":"t_string_storage"},{"astId":1355,"contract":"contracts/Dfreelancer.sol:Dfreelancer","label":"description","offset":0,"slot":"2","type":"t_string_storage"},{"astId":1357,"contract":"contracts/Dfreelancer.sol:Dfreelancer","label":"budget","offset":0,"slot":"3","type":"t_uint256"},{"astId":1359,"contract":"contracts/Dfreelancer.sol:Dfreelancer","label":"completed","offset":0,"slot":"4","type":"t_bool"},{"astId":1362,"contract":"contracts/Dfreelancer.sol:Dfreelancer","label":"applicants","offset":0,"slot":"5","type":"t_array(t_address)dyn_storage"},{"astId":1364,"contract":"contracts/Dfreelancer.sol:Dfreelancer","label":"hiredFreelancer","offset":0,"slot":"6","type":"t_address"}],"numberOfBytes":"224"},"t_uint256":{"encoding":"inplace","label":"uint256","numberOfBytes":"32"},"t_uint8":{"encoding":"inplace","label":"uint8","numberOfBytes":"1"}}},"userdoc":{"kind":"user","methods":{},"version":1}}}}