{"contracts/Storage.sol":{"Storage":{"abi":[{"inputs":[{"internalType":"uint256","name":"","type":"uint256"}],"name":"allFreelancerAddresses","outputs":[{"internalType":"address","name":"","type":"address"}],"stateMutability":"view","type":"function"},{"inputs":[{"internalType":"address","name":"","type":"address"}],"name":"employers","outputs":[{"internalType":"address","name":"employerAddress","type":"address"},{"internalType":"string","name":"name","type":"string"},{"internalType":"string","name":"industry","type":"string"},{"internalType":"uint256","name":"balance","type":"uint256"},{"internalType":"string","name":"country","type":"string"},{"internalType":"string","name":"image","type":"string"},{"internalType":"bool","name":"registered","type":"bool"},{"internalType":"uint256","name":"registration_date","type":"uint256"}],"stateMutability":"view","type":"function"},{"inputs":[{"internalType":"address","name":"","type":"address"},{"internalType":"uint256","name":"","type":"uint256"}],"name":"escrowFunds","outputs":[{"internalType":"uint256","name":"","type":"uint256"}],"stateMutability":"view","type":"function"},{"inputs":[{"internalType":"address","name":"","type":"address"}],"name":"freelancers","outputs":[{"internalType":"address","name":"freelancerAddress","type":"address"},{"internalType":"string","name":"name","type":"string"},{"internalType":"string","name":"skills","type":"string"},{"internalType":"uint256","name":"balance","type":"uint256"},{"internalType":"string","name":"country","type":"string"},{"internalType":"string","name":"gigTitle","type":"string"},{"internalType":"string","name":"gitDescription","type":"string"},{"internalType":"uint256","name":"jobsCompleted","type":"uint256"},{"internalType":"bool","name":"registered","type":"bool"},{"internalType":"uint256","name":"registration_date","type":"uint256"},{"internalType":"uint256","name":"starting_price","type":"uint256"}],"stateMutability":"view","type":"function"},{"inputs":[{"internalType":"uint256","name":"","type":"uint256"}],"name":"jobs","outputs":[{"internalType":"uint8","name":"id","type":"uint8"},{"internalType":"address","name":"employer","type":"address"},{"internalType":"string","name":"title","type":"string"},{"internalType":"string","name":"description","type":"string"},{"internalType":"uint256","name":"budget","type":"uint256"},{"internalType":"bool","name":"completed","type":"bool"},{"internalType":"address","name":"hiredFreelancer","type":"address"}],"stateMutability":"view","type":"function"},{"inputs":[],"name":"owner","outputs":[{"internalType":"address","name":"","type":"address"}],"stateMutability":"view","type":"function"},{"inputs":[{"internalType":"address","name":"","type":"address"}],"name":"roles","outputs":[{"internalType":"uint8","name":"","type":"uint8"}],"stateMutability":"view","type":"function"},{"inputs":[],"name":"totalCompletedJobs","outputs":[{"internalType":"uint256","name":"","type":"uint256"}],"stateMutability":"view","type":"function"},{"inputs":[],"name":"totalEmployers","outputs":[{"internalType":"uint256","name":"","type":"uint256"}],"stateMutability":"view","type":"function"},{"inputs":[],"name":"totalFreelancers","outputs":[{"internalType":"uint256","name":"","type":"uint256"}],"stateMutability":"view","type":"function"},{"inputs":[],"name":"totalJobs","outputs":[{"internalType":"uint8","name":"","type":"uint8"}],"stateMutability":"view","type":"function"},{"inputs":[{"internalType":"address","name":"","type":"address"}],"name":"walletToUser","outputs":[{"internalType":"address","name":"","type":"address"}],"stateMutability":"view","type":"function"}],"devdoc":{"kind":"dev","methods":{},"version":1},"evm":{"bytecode":{"linkReferences":{},"object":"608060405234801561001057600080fd5b5061100a806100206000396000f3fe608060405234801561001057600080fd5b50600436106100b45760003560e01c80635e586eb1116100715780635e586eb1146101ba5780638da5cb5b146101d857806399374642146101f6578063c27a9dd414610226578063ef8de2d814610256578063fcafae1114610286576100b4565b80630be435bd146100b95780631033397b146100f0578063180aedf31461010e5780631906b4ce146101445780631ace87b31461016257806321bd669314610180575b600080fd5b6100d360048036038101906100ce9190610b89565b6102b6565b6040516100e7989796959493929190610c89565b60405180910390f35b6100f861054b565b6040516101059190610d23565b60405180910390f35b61012860048036038101906101239190610d6a565b610551565b60405161013b9796959493929190610db3565b60405180910390f35b61014c6106fd565b6040516101599190610d23565b60405180910390f35b61016a610703565b6040516101779190610e30565b60405180910390f35b61019a60048036038101906101959190610b89565b610716565b6040516101b19b9a99989796959493929190610e4b565b60405180910390f35b6101c2610a45565b6040516101cf9190610d23565b60405180910390f35b6101e0610a4b565b6040516101ed9190610f19565b60405180910390f35b610210600480360381019061020b9190610b89565b610a6f565b60405161021d9190610e30565b60405180910390f35b610240600480360381019061023b9190610d6a565b610a8f565b60405161024d9190610f19565b60405180910390f35b610270600480360381019061026b9190610b89565b610ace565b60405161027d9190610f19565b60405180910390f35b6102a0600480360381019061029b9190610f34565b610b01565b6040516102ad9190610d23565b60405180910390f35b60066020528060005260406000206000915090508060000160009054906101000a900473ffffffffffffffffffffffffffffffffffffffff16908060010180546102ff90610fa3565b80601f016020809104026020016040519081016040528092919081815260200182805461032b90610fa3565b80156103785780601f1061034d57610100808354040283529160200191610378565b820191906000526020600020905b81548152906001019060200180831161035b57829003601f168201915b50505050509080600201805461038d90610fa3565b80601f01602080910402602001604051908101604052809291908181526020018280546103b990610fa3565b80156104065780601f106103db57610100808354040283529160200191610406565b820191906000526020600020905b8154815290600101906020018083116103e957829003601f168201915b50505050509080600301549080600401805461042190610fa3565b80601f016020809104026020016040519081016040528092919081815260200182805461044d90610fa3565b801561049a5780601f1061046f5761010080835404028352916020019161049a565b820191906000526020600020905b81548152906001019060200180831161047d57829003601f168201915b5050505050908060050180546104af90610fa3565b80601f01602080910402602001604051908101604052809291908181526020018280546104db90610fa3565b80156105285780601f106104fd57610100808354040283529160200191610528565b820191906000526020600020905b81548152906001019060200180831161050b57829003601f168201915b5050505050908060060160009054906101000a900460ff16908060070154905088565b60035481565b60046020528060005260406000206000915090508060000160009054906101000a900460ff16908060000160019054906101000a900473ffffffffffffffffffffffffffffffffffffffff16908060010180546105ad90610fa3565b80601f01602080910402602001604051908101604052809291908181526020018280546105d990610fa3565b80156106265780601f106105fb57610100808354040283529160200191610626565b820191906000526020600020905b81548152906001019060200180831161060957829003601f168201915b50505050509080600201805461063b90610fa3565b80601f016020809104026020016040519081016040528092919081815260200182805461066790610fa3565b80156106b45780601f10610689576101008083540402835291602001916106b4565b820191906000526020600020905b81548152906001019060200180831161069757829003601f168201915b5050505050908060030154908060040160009054906101000a900460ff16908060060160009054906101000a900473ffffffffffffffffffffffffffffffffffffffff16905087565b60025481565b600060149054906101000a900460ff1681565b60056020528060005260406000206000915090508060000160009054906101000a900473ffffffffffffffffffffffffffffffffffffffff169080600101805461075f90610fa3565b80601f016020809104026020016040519081016040528092919081815260200182805461078b90610fa3565b80156107d85780601f106107ad576101008083540402835291602001916107d8565b820191906000526020600020905b8154815290600101906020018083116107bb57829003601f168201915b5050505050908060020180546107ed90610fa3565b80601f016020809104026020016040519081016040528092919081815260200182805461081990610fa3565b80156108665780601f1061083b57610100808354040283529160200191610866565b820191906000526020600020905b81548152906001019060200180831161084957829003601f168201915b50505050509080600301549080600401805461088190610fa3565b80601f01602080910402602001604051908101604052809291908181526020018280546108ad90610fa3565b80156108fa5780601f106108cf576101008083540402835291602001916108fa565b820191906000526020600020905b8154815290600101906020018083116108dd57829003601f168201915b50505050509080600501805461090f90610fa3565b80601f016020809104026020016040519081016040528092919081815260200182805461093b90610fa3565b80156109885780601f1061095d57610100808354040283529160200191610988565b820191906000526020600020905b81548152906001019060200180831161096b57829003601f168201915b50505050509080600601805461099d90610fa3565b80601f01602080910402602001604051908101604052809291908181526020018280546109c990610fa3565b8015610a165780601f106109eb57610100808354040283529160200191610a16565b820191906000526020600020905b8154815290600101906020018083116109f957829003601f168201915b5050505050908060080154908060090160009054906101000a900460ff169080600a01549080600b015490508b565b60015481565b60008054906101000a900473ffffffffffffffffffffffffffffffffffffffff1681565b60086020528060005260406000206000915054906101000a900460ff1681565b60098181548110610a9f57600080fd5b906000526020600020016000915054906101000a900473ffffffffffffffffffffffffffffffffffffffff1681565b600a6020528060005260406000206000915054906101000a900473ffffffffffffffffffffffffffffffffffffffff1681565b6007602052816000526040600020602052806000526040600020600091509150505481565b600080fd5b600073ffffffffffffffffffffffffffffffffffffffff82169050919050565b6000610b5682610b2b565b9050919050565b610b6681610b4b565b8114610b7157600080fd5b50565b600081359050610b8381610b5d565b92915050565b600060208284031215610b9f57610b9e610b26565b5b6000610bad84828501610b74565b91505092915050565b610bbf81610b4b565b82525050565b600081519050919050565b600082825260208201905092915050565b60005b83811015610bff578082015181840152602081019050610be4565b60008484015250505050565b6000601f19601f8301169050919050565b6000610c2782610bc5565b610c318185610bd0565b9350610c41818560208601610be1565b610c4a81610c0b565b840191505092915050565b6000819050919050565b610c6881610c55565b82525050565b60008115159050919050565b610c8381610c6e565b82525050565b600061010082019050610c9f600083018b610bb6565b8181036020830152610cb1818a610c1c565b90508181036040830152610cc58189610c1c565b9050610cd46060830188610c5f565b8181036080830152610ce68187610c1c565b905081810360a0830152610cfa8186610c1c565b9050610d0960c0830185610c7a565b610d1660e0830184610c5f565b9998505050505050505050565b6000602082019050610d386000830184610c5f565b92915050565b610d4781610c55565b8114610d5257600080fd5b50565b600081359050610d6481610d3e565b92915050565b600060208284031215610d8057610d7f610b26565b5b6000610d8e84828501610d55565b91505092915050565b600060ff82169050919050565b610dad81610d97565b82525050565b600060e082019050610dc8600083018a610da4565b610dd56020830189610bb6565b8181036040830152610de78188610c1c565b90508181036060830152610dfb8187610c1c565b9050610e0a6080830186610c5f565b610e1760a0830185610c7a565b610e2460c0830184610bb6565b98975050505050505050565b6000602082019050610e456000830184610da4565b92915050565b600061016082019050610e61600083018e610bb6565b8181036020830152610e73818d610c1c565b90508181036040830152610e87818c610c1c565b9050610e96606083018b610c5f565b8181036080830152610ea8818a610c1c565b905081810360a0830152610ebc8189610c1c565b905081810360c0830152610ed08188610c1c565b9050610edf60e0830187610c5f565b610eed610100830186610c7a565b610efb610120830185610c5f565b610f09610140830184610c5f565b9c9b505050505050505050505050565b6000602082019050610f2e6000830184610bb6565b92915050565b60008060408385031215610f4b57610f4a610b26565b5b6000610f5985828601610b74565b9250506020610f6a85828601610d55565b9150509250929050565b7f4e487b7100000000000000000000000000000000000000000000000000000000600052602260045260246000fd5b60006002820490506001821680610fbb57607f821691505b602082108103610fce57610fcd610f74565b5b5091905056fea2646970667358221220d19b95a6cde2d28e7a3a631a9eb20291ae2ba1649acca39732a2889a5ef8f90b64736f6c63430008180033","opcodes":"PUSH1 0x80 PUSH1 0x40 MSTORE CALLVALUE DUP1 ISZERO PUSH2 0x10 JUMPI PUSH1 0x0 DUP1 REVERT JUMPDEST POP PUSH2 0x100A DUP1 PUSH2 0x20 PUSH1 0x0 CODECOPY PUSH1 0x0 RETURN INVALID PUSH1 0x80 PUSH1 0x40 MSTORE CALLVALUE DUP1 ISZERO PUSH2 0x10 JUMPI PUSH1 0x0 DUP1 REVERT JUMPDEST POP PUSH1 0x4 CALLDATASIZE LT PUSH2 0xB4 JUMPI PUSH1 0x0 CALLDATALOAD PUSH1 0xE0 SHR DUP1 PUSH4 0x5E586EB1 GT PUSH2 0x71 JUMPI DUP1 PUSH4 0x5E586EB1 EQ PUSH2 0x1BA JUMPI DUP1 PUSH4 0x8DA5CB5B EQ PUSH2 0x1D8 JUMPI DUP1 PUSH4 0x99374642 EQ PUSH2 0x1F6 JUMPI DUP1 PUSH4 0xC27A9DD4 EQ PUSH2 0x226 JUMPI DUP1 PUSH4 0xEF8DE2D8 EQ PUSH2 0x256 JUMPI DUP1 PUSH4 0xFCAFAE11 EQ PUSH2 0x286 JUMPI PUSH2 0xB4 JUMP JUMPDEST DUP1 PUSH4 0xBE435BD EQ PUSH2 0xB9 JUMPI DUP1 PUSH4 0x1033397B EQ PUSH2 0xF0 JUMPI DUP1 PUSH4 0x180AEDF3 EQ PUSH2 0x10E JUMPI DUP1 PUSH4 0x1906B4CE EQ PUSH2 0x144 JUMPI DUP1 PUSH4 0x1ACE87B3 EQ PUSH2 0x162 JUMPI DUP1 PUSH4 0x21BD6693 EQ PUSH2 0x180 JUMPI JUMPDEST PUSH1 0x0 DUP1 REVERT JUMPDEST PUSH2 0xD3 PUSH1 0x4 DUP1 CALLDATASIZE SUB DUP2 ADD SWAP1 PUSH2 0xCE SWAP2 SWAP1 PUSH2 0xB89 JUMP JUMPDEST PUSH2 0x2B6 JUMP JUMPDEST PUSH1 0x40 MLOAD PUSH2 0xE7 SWAP9 SWAP8 SWAP7 SWAP6 SWAP5 SWAP4 SWAP3 SWAP2 SWAP1 PUSH2 0xC89 JUMP JUMPDEST PUSH1 0x40 MLOAD DUP1 SWAP2 SUB SWAP1 RETURN JUMPDEST PUSH2 0xF8 PUSH2 0x54B JUMP JUMPDEST PUSH1 0x40 MLOAD PUSH2 0x105 SWAP2 SWAP1 PUSH2 0xD23 JUMP JUMPDEST PUSH1 0x40 MLOAD DUP1 SWAP2 SUB SWAP1 RETURN JUMPDEST PUSH2 0x128 PUSH1 0x4 DUP1 CALLDATASIZE SUB DUP2 ADD SWAP1 PUSH2 0x123 SWAP2 SWAP1 PUSH2 0xD6A JUMP JUMPDEST PUSH2 0x551 JUMP JUMPDEST PUSH1 0x40 MLOAD PUSH2 0x13B SWAP8 SWAP7 SWAP6 SWAP5 SWAP4 SWAP3 SWAP2 SWAP1 PUSH2 0xDB3 JUMP JUMPDEST PUSH1 0x40 MLOAD DUP1 SWAP2 SUB SWAP1 RETURN JUMPDEST PUSH2 0x14C PUSH2 0x6FD JUMP JUMPDEST PUSH1 0x40 MLOAD PUSH2 0x159 SWAP2 SWAP1 PUSH2 0xD23 JUMP JUMPDEST PUSH1 0x40 MLOAD DUP1 SWAP2 SUB SWAP1 RETURN JUMPDEST PUSH2 0x16A PUSH2 0x703 JUMP JUMPDEST PUSH1 0x40 MLOAD PUSH2 0x177 SWAP2 SWAP1 PUSH2 0xE30 JUMP JUMPDEST PUSH1 0x40 MLOAD DUP1 SWAP2 SUB SWAP1 RETURN JUMPDEST PUSH2 0x19A PUSH1 0x4 DUP1 CALLDATASIZE SUB DUP2 ADD SWAP1 PUSH2 0x195 SWAP2 SWAP1 PUSH2 0xB89 JUMP JUMPDEST PUSH2 0x716 JUMP JUMPDEST PUSH1 0x40 MLOAD PUSH2 0x1B1 SWAP12 SWAP11 SWAP10 SWAP9 SWAP8 SWAP7 SWAP6 SWAP5 SWAP4 SWAP3 SWAP2 SWAP1 PUSH2 0xE4B JUMP JUMPDEST PUSH1 0x40 MLOAD DUP1 SWAP2 SUB SWAP1 RETURN JUMPDEST PUSH2 0x1C2 PUSH2 0xA45 JUMP JUMPDEST PUSH1 0x40 MLOAD PUSH2 0x1CF SWAP2 SWAP1 PUSH2 0xD23 JUMP JUMPDEST PUSH1 0x40 MLOAD DUP1 SWAP2 SUB SWAP1 RETURN JUMPDEST PUSH2 0x1E0 PUSH2 0xA4B JUMP JUMPDEST PUSH1 0x40 MLOAD PUSH2 0x1ED SWAP2 SWAP1 PUSH2 0xF19 JUMP JUMPDEST PUSH1 0x40 MLOAD DUP1 SWAP2 SUB SWAP1 RETURN JUMPDEST PUSH2 0x210 PUSH1 0x4 DUP1 CALLDATASIZE SUB DUP2 ADD SWAP1 PUSH2 0x20B SWAP2 SWAP1 PUSH2 0xB89 JUMP JUMPDEST PUSH2 0xA6F JUMP JUMPDEST PUSH1 0x40 MLOAD PUSH2 0x21D SWAP2 SWAP1 PUSH2 0xE30 JUMP JUMPDEST PUSH1 0x40 MLOAD DUP1 SWAP2 SUB SWAP1 RETURN JUMPDEST PUSH2 0x240 PUSH1 0x4 DUP1 CALLDATASIZE SUB DUP2 ADD SWAP1 PUSH2 0x23B SWAP2 SWAP1 PUSH2 0xD6A JUMP JUMPDEST PUSH2 0xA8F JUMP JUMPDEST PUSH1 0x40 MLOAD PUSH2 0x24D SWAP2 SWAP1 PUSH2 0xF19 JUMP JUMPDEST PUSH1 0x40 MLOAD DUP1 SWAP2 SUB SWAP1 RETURN JUMPDEST PUSH2 0x270 PUSH1 0x4 DUP1 CALLDATASIZE SUB DUP2 ADD SWAP1 PUSH2 0x26B SWAP2 SWAP1 PUSH2 0xB89 JUMP JUMPDEST PUSH2 0xACE JUMP JUMPDEST PUSH1 0x40 MLOAD PUSH2 0x27D SWAP2 SWAP1 PUSH2 0xF19 JUMP JUMPDEST PUSH1 0x40 MLOAD DUP1 SWAP2 SUB SWAP1 RETURN JUMPDEST PUSH2 0x2A0 PUSH1 0x4 DUP1 CALLDATASIZE SUB DUP2 ADD SWAP1 PUSH2 0x29B SWAP2 SWAP1 PUSH2 0xF34 JUMP JUMPDEST PUSH2 0xB01 JUMP JUMPDEST PUSH1 0x40 MLOAD PUSH2 0x2AD SWAP2 SWAP1 PUSH2 0xD23 JUMP JUMPDEST PUSH1 0x40 MLOAD DUP1 SWAP2 SUB SWAP1 RETURN JUMPDEST PUSH1 0x6 PUSH1 0x20 MSTORE DUP1 PUSH1 0x0 MSTORE PUSH1 0x40 PUSH1 0x0 KECCAK256 PUSH1 0x0 SWAP2 POP SWAP1 POP DUP1 PUSH1 0x0 ADD PUSH1 0x0 SWAP1 SLOAD SWAP1 PUSH2 0x100 EXP SWAP1 DIV PUSH20 0xFFFFFFFFFFFFFFFFFFFFFFFFFFFFFFFFFFFFFFFF AND SWAP1 DUP1 PUSH1 0x1 ADD DUP1 SLOAD PUSH2 0x2FF SWAP1 PUSH2 0xFA3 JUMP JUMPDEST DUP1 PUSH1 0x1F ADD PUSH1 0x20 DUP1 SWAP2 DIV MUL PUSH1 0x20 ADD PUSH1 0x40 MLOAD SWAP1 DUP2 ADD PUSH1 0x40 MSTORE DUP1 SWAP3 SWAP2 SWAP1 DUP2 DUP2 MSTORE PUSH1 0x20 ADD DUP3 DUP1 SLOAD PUSH2 0x32B SWAP1 PUSH2 0xFA3 JUMP JUMPDEST DUP1 ISZERO PUSH2 0x378 JUMPI DUP1 PUSH1 0x1F LT PUSH2 0x34D JUMPI PUSH2 0x100 DUP1 DUP4 SLOAD DIV MUL DUP4 MSTORE SWAP2 PUSH1 0x20 ADD SWAP2 PUSH2 0x378 JUMP JUMPDEST DUP3 ADD SWAP2 SWAP1 PUSH1 0x0 MSTORE PUSH1 0x20 PUSH1 0x0 KECCAK256 SWAP1 JUMPDEST DUP2 SLOAD DUP2 MSTORE SWAP1 PUSH1 0x1 ADD SWAP1 PUSH1 0x20 ADD DUP1 DUP4 GT PUSH2 0x35B JUMPI DUP3 SWAP1 SUB PUSH1 0x1F AND DUP3 ADD SWAP2 JUMPDEST POP POP POP POP POP SWAP1 DUP1 PUSH1 0x2 ADD DUP1 SLOAD PUSH2 0x38D SWAP1 PUSH2 0xFA3 JUMP JUMPDEST DUP1 PUSH1 0x1F ADD PUSH1 0x20 DUP1 SWAP2 DIV MUL PUSH1 0x20 ADD PUSH1 0x40 MLOAD SWAP1 DUP2 ADD PUSH1 0x40 MSTORE DUP1 SWAP3 SWAP2 SWAP1 DUP2 DUP2 MSTORE PUSH1 0x20 ADD DUP3 DUP1 SLOAD PUSH2 0x3B9 SWAP1 PUSH2 0xFA3 JUMP JUMPDEST DUP1 ISZERO PUSH2 0x406 JUMPI DUP1 PUSH1 0x1F LT PUSH2 0x3DB JUMPI PUSH2 0x100 DUP1 DUP4 SLOAD DIV MUL DUP4 MSTORE SWAP2 PUSH1 0x20 ADD SWAP2 PUSH2 0x406 JUMP JUMPDEST DUP3 ADD SWAP2 SWAP1 PUSH1 0x0 MSTORE PUSH1 0x20 PUSH1 0x0 KECCAK256 SWAP1 JUMPDEST DUP2 SLOAD DUP2 MSTORE SWAP1 PUSH1 0x1 ADD SWAP1 PUSH1 0x20 ADD DUP1 DUP4 GT PUSH2 0x3E9 JUMPI DUP3 SWAP1 SUB PUSH1 0x1F AND DUP3 ADD SWAP2 JUMPDEST POP POP POP POP POP SWAP1 DUP1 PUSH1 0x3 ADD SLOAD SWAP1 DUP1 PUSH1 0x4 ADD DUP1 SLOAD PUSH2 0x421 SWAP1 PUSH2 0xFA3 JUMP JUMPDEST DUP1 PUSH1 0x1F ADD PUSH1 0x20 DUP1 SWAP2 DIV MUL PUSH1 0x20 ADD PUSH1 0x40 MLOAD SWAP1 DUP2 ADD PUSH1 0x40 MSTORE DUP1 SWAP3 SWAP2 SWAP1 DUP2 DUP2 MSTORE PUSH1 0x20 ADD DUP3 DUP1 SLOAD PUSH2 0x44D SWAP1 PUSH2 0xFA3 JUMP JUMPDEST DUP1 ISZERO PUSH2 0x49A JUMPI DUP1 PUSH1 0x1F LT PUSH2 0x46F JUMPI PUSH2 0x100 DUP1 DUP4 SLOAD DIV MUL DUP4 MSTORE SWAP2 PUSH1 0x20 ADD SWAP2 PUSH2 0x49A JUMP JUMPDEST DUP3 ADD SWAP2 SWAP1 PUSH1 0x0 MSTORE PUSH1 0x20 PUSH1 0x0 KECCAK256 SWAP1 JUMPDEST DUP2 SLOAD DUP2 MSTORE SWAP1 PUSH1 0x1 ADD SWAP1 PUSH1 0x20 ADD DUP1 DUP4 GT PUSH2 0x47D JUMPI DUP3 SWAP1 SUB PUSH1 0x1F AND DUP3 ADD SWAP2 JUMPDEST POP POP POP POP POP SWAP1 DUP1 PUSH1 0x5 ADD DUP1 SLOAD PUSH2 0x4AF SWAP1 PUSH2 0xFA3 JUMP JUMPDEST DUP1 PUSH1 0x1F ADD PUSH1 0x20 DUP1 SWAP2 DIV MUL PUSH1 0x20 ADD PUSH1 0x40 MLOAD SWAP1 DUP2 ADD PUSH1 0x40 MSTORE DUP1 SWAP3 SWAP2 SWAP1 DUP2 DUP2 MSTORE PUSH1 0x20 ADD DUP3 DUP1 SLOAD PUSH2 0x4DB SWAP1 PUSH2 0xFA3 JUMP JUMPDEST DUP1 ISZERO PUSH2 0x528 JUMPI DUP1 PUSH1 0x1F LT PUSH2 0x4FD JUMPI PUSH2 0x100 DUP1 DUP4 SLOAD DIV MUL DUP4 MSTORE SWAP2 PUSH1 0x20 ADD SWAP2 PUSH2 0x528 JUMP JUMPDEST DUP3 ADD SWAP2 SWAP1 PUSH1 0x0 MSTORE PUSH1 0x20 PUSH1 0x0 KECCAK256 SWAP1 JUMPDEST DUP2 SLOAD DUP2 MSTORE SWAP1 PUSH1 0x1 ADD SWAP1 PUSH1 0x20 ADD DUP1 DUP4 GT PUSH2 0x50B JUMPI DUP3 SWAP1 SUB PUSH1 0x1F AND DUP3 ADD SWAP2 JUMPDEST POP POP POP POP POP SWAP1 DUP1 PUSH1 0x6 ADD PUSH1 0x0 SWAP1 SLOAD SWAP1 PUSH2 0x100 EXP SWAP1 DIV PUSH1 0xFF AND SWAP1 DUP1 PUSH1 0x7 ADD SLOAD SWAP1 POP DUP9 JUMP JUMPDEST PUSH1 0x3 SLOAD DUP2 JUMP JUMPDEST PUSH1 0x4 PUSH1 0x20 MSTORE DUP1 PUSH1 0x0 MSTORE PUSH1 0x40 PUSH1 0x0 KECCAK256 PUSH1 0x0 SWAP2 POP SWAP1 POP DUP1 PUSH1 0x0 ADD PUSH1 0x0 SWAP1 SLOAD SWAP1 PUSH2 0x100 EXP SWAP1 DIV PUSH1 0xFF AND SWAP1 DUP1 PUSH1 0x0 ADD PUSH1 0x1 SWAP1 SLOAD SWAP1 PUSH2 0x100 EXP SWAP1 DIV PUSH20 0xFFFFFFFFFFFFFFFFFFFFFFFFFFFFFFFFFFFFFFFF AND SWAP1 DUP1 PUSH1 0x1 ADD DUP1 SLOAD PUSH2 0x5AD SWAP1 PUSH2 0xFA3 JUMP JUMPDEST DUP1 PUSH1 0x1F ADD PUSH1 0x20 DUP1 SWAP2 DIV MUL PUSH1 0x20 ADD PUSH1 0x40 MLOAD SWAP1 DUP2 ADD PUSH1 0x40 MSTORE DUP1 SWAP3 SWAP2 SWAP1 DUP2 DUP2 MSTORE PUSH1 0x20 ADD DUP3 DUP1 SLOAD PUSH2 0x5D9 SWAP1 PUSH2 0xFA3 JUMP JUMPDEST DUP1 ISZERO PUSH2 0x626 JUMPI DUP1 PUSH1 0x1F LT PUSH2 0x5FB JUMPI PUSH2 0x100 DUP1 DUP4 SLOAD DIV MUL DUP4 MSTORE SWAP2 PUSH1 0x20 ADD SWAP2 PUSH2 0x626 JUMP JUMPDEST DUP3 ADD SWAP2 SWAP1 PUSH1 0x0 MSTORE PUSH1 0x20 PUSH1 0x0 KECCAK256 SWAP1 JUMPDEST DUP2 SLOAD DUP2 MSTORE SWAP1 PUSH1 0x1 ADD SWAP1 PUSH1 0x20 ADD DUP1 DUP4 GT PUSH2 0x609 JUMPI DUP3 SWAP1 SUB PUSH1 0x1F AND DUP3 ADD SWAP2 JUMPDEST POP POP POP POP POP SWAP1 DUP1 PUSH1 0x2 ADD DUP1 SLOAD PUSH2 0x63B SWAP1 PUSH2 0xFA3 JUMP JUMPDEST DUP1 PUSH1 0x1F ADD PUSH1 0x20 DUP1 SWAP2 DIV MUL PUSH1 0x20 ADD PUSH1 0x40 MLOAD SWAP1 DUP2 ADD PUSH1 0x40 MSTORE DUP1 SWAP3 SWAP2 SWAP1 DUP2 DUP2 MSTORE PUSH1 0x20 ADD DUP3 DUP1 SLOAD PUSH2 0x667 SWAP1 PUSH2 0xFA3 JUMP JUMPDEST DUP1 ISZERO PUSH2 0x6B4 JUMPI DUP1 PUSH1 0x1F LT PUSH2 0x689 JUMPI PUSH2 0x100 DUP1 DUP4 SLOAD DIV MUL DUP4 MSTORE SWAP2 PUSH1 0x20 ADD SWAP2 PUSH2 0x6B4 JUMP JUMPDEST DUP3 ADD SWAP2 SWAP1 PUSH1 0x0 MSTORE PUSH1 0x20 PUSH1 0x0 KECCAK256 SWAP1 JUMPDEST DUP2 SLOAD DUP2 MSTORE SWAP1 PUSH1 0x1 ADD SWAP1 PUSH1 0x20 ADD DUP1 DUP4 GT PUSH2 0x697 JUMPI DUP3 SWAP1 SUB PUSH1 0x1F AND DUP3 ADD SWAP2 JUMPDEST POP POP POP POP POP SWAP1 DUP1 PUSH1 0x3 ADD SLOAD SWAP1 DUP1 PUSH1 0x4 ADD PUSH1 0x0 SWAP1 SLOAD SWAP1 PUSH2 0x100 EXP SWAP1 DIV PUSH1 0xFF AND SWAP1 DUP1 PUSH1 0x6 ADD PUSH1 0x0 SWAP1 SLOAD SWAP1 PUSH2 0x100 EXP SWAP1 DIV PUSH20 0xFFFFFFFFFFFFFFFFFFFFFFFFFFFFFFFFFFFFFFFF AND SWAP1 POP DUP8 JUMP JUMPDEST PUSH1 0x2 SLOAD DUP2 JUMP JUMPDEST PUSH1 0x0 PUSH1 0x14 SWAP1 SLOAD SWAP1 PUSH2 0x100 EXP SWAP1 DIV PUSH1 0xFF AND DUP2 JUMP JUMPDEST PUSH1 0x5 PUSH1 0x20 MSTORE DUP1 PUSH1 0x0 MSTORE PUSH1 0x40 PUSH1 0x0 KECCAK256 PUSH1 0x0 SWAP2 POP SWAP1 POP DUP1 PUSH1 0x0 ADD PUSH1 0x0 SWAP1 SLOAD SWAP1 PUSH2 0x100 EXP SWAP1 DIV PUSH20 0xFFFFFFFFFFFFFFFFFFFFFFFFFFFFFFFFFFFFFFFF AND SWAP1 DUP1 PUSH1 0x1 ADD DUP1 SLOAD PUSH2 0x75F SWAP1 PUSH2 0xFA3 JUMP JUMPDEST DUP1 PUSH1 0x1F ADD PUSH1 0x20 DUP1 SWAP2 DIV MUL PUSH1 0x20 ADD PUSH1 0x40 MLOAD SWAP1 DUP2 ADD PUSH1 0x40 MSTORE DUP1 SWAP3 SWAP2 SWAP1 DUP2 DUP2 MSTORE PUSH1 0x20 ADD DUP3 DUP1 SLOAD PUSH2 0x78B SWAP1 PUSH2 0xFA3 JUMP JUMPDEST DUP1 ISZERO PUSH2 0x7D8 JUMPI DUP1 PUSH1 0x1F LT PUSH2 0x7AD JUMPI PUSH2 0x100 DUP1 DUP4 SLOAD DIV MUL DUP4 MSTORE SWAP2 PUSH1 0x20 ADD SWAP2 PUSH2 0x7D8 JUMP JUMPDEST DUP3 ADD SWAP2 SWAP1 PUSH1 0x0 MSTORE PUSH1 0x20 PUSH1 0x0 KECCAK256 SWAP1 JUMPDEST DUP2 SLOAD DUP2 MSTORE SWAP1 PUSH1 0x1 ADD SWAP1 PUSH1 0x20 ADD DUP1 DUP4 GT PUSH2 0x7BB JUMPI DUP3 SWAP1 SUB PUSH1 0x1F AND DUP3 ADD SWAP2 JUMPDEST POP POP POP POP POP SWAP1 DUP1 PUSH1 0x2 ADD DUP1 SLOAD PUSH2 0x7ED SWAP1 PUSH2 0xFA3 JUMP JUMPDEST DUP1 PUSH1 0x1F ADD PUSH1 0x20 DUP1 SWAP2 DIV MUL PUSH1 0x20 ADD PUSH1 0x40 MLOAD SWAP1 DUP2 ADD PUSH1 0x40 MSTORE DUP1 SWAP3 SWAP2 SWAP1 DUP2 DUP2 MSTORE PUSH1 0x20 ADD DUP3 DUP1 SLOAD PUSH2 0x819 SWAP1 PUSH2 0xFA3 JUMP JUMPDEST DUP1 ISZERO PUSH2 0x866 JUMPI DUP1 PUSH1 0x1F LT PUSH2 0x83B JUMPI PUSH2 0x100 DUP1 DUP4 SLOAD DIV MUL DUP4 MSTORE SWAP2 PUSH1 0x20 ADD SWAP2 PUSH2 0x866 JUMP JUMPDEST DUP3 ADD SWAP2 SWAP1 PUSH1 0x0 MSTORE PUSH1 0x20 PUSH1 0x0 KECCAK256 SWAP1 JUMPDEST DUP2 SLOAD DUP2 MSTORE SWAP1 PUSH1 0x1 ADD SWAP1 PUSH1 0x20 ADD DUP1 DUP4 GT PUSH2 0x849 JUMPI DUP3 SWAP1 SUB PUSH1 0x1F AND DUP3 ADD SWAP2 JUMPDEST POP POP POP POP POP SWAP1 DUP1 PUSH1 0x3 ADD SLOAD SWAP1 DUP1 PUSH1 0x4 ADD DUP1 SLOAD PUSH2 0x881 SWAP1 PUSH2 0xFA3 JUMP JUMPDEST DUP1 PUSH1 0x1F ADD PUSH1 0x20 DUP1 SWAP2 DIV MUL PUSH1 0x20 ADD PUSH1 0x40 MLOAD SWAP1 DUP2 ADD PUSH1 0x40 MSTORE DUP1 SWAP3 SWAP2 SWAP1 DUP2 DUP2 MSTORE PUSH1 0x20 ADD DUP3 DUP1 SLOAD PUSH2 0x8AD SWAP1 PUSH2 0xFA3 JUMP JUMPDEST DUP1 ISZERO PUSH2 0x8FA JUMPI DUP1 PUSH1 0x1F LT PUSH2 0x8CF JUMPI PUSH2 0x100 DUP1 DUP4 SLOAD DIV MUL DUP4 MSTORE SWAP2 PUSH1 0x20 ADD SWAP2 PUSH2 0x8FA JUMP JUMPDEST DUP3 ADD SWAP2 SWAP1 PUSH1 0x0 MSTORE PUSH1 0x20 PUSH1 0x0 KECCAK256 SWAP1 JUMPDEST DUP2 SLOAD DUP2 MSTORE SWAP1 PUSH1 0x1 ADD SWAP1 PUSH1 0x20 ADD DUP1 DUP4 GT PUSH2 0x8DD JUMPI DUP3 SWAP1 SUB PUSH1 0x1F AND DUP3 ADD SWAP2 JUMPDEST POP POP POP POP POP SWAP1 DUP1 PUSH1 0x5 ADD DUP1 SLOAD PUSH2 0x90F SWAP1 PUSH2 0xFA3 JUMP JUMPDEST DUP1 PUSH1 0x1F ADD PUSH1 0x20 DUP1 SWAP2 DIV MUL PUSH1 0x20 ADD PUSH1 0x40 MLOAD SWAP1 DUP2 ADD PUSH1 0x40 MSTORE DUP1 SWAP3 SWAP2 SWAP1 DUP2 DUP2 MSTORE PUSH1 0x20 ADD DUP3 DUP1 SLOAD PUSH2 0x93B SWAP1 PUSH2 0xFA3 JUMP JUMPDEST DUP1 ISZERO PUSH2 0x988 JUMPI DUP1 PUSH1 0x1F LT PUSH2 0x95D JUMPI PUSH2 0x100 DUP1 DUP4 SLOAD DIV MUL DUP4 MSTORE SWAP2 PUSH1 0x20 ADD SWAP2 PUSH2 0x988 JUMP JUMPDEST DUP3 ADD SWAP2 SWAP1 PUSH1 0x0 MSTORE PUSH1 0x20 PUSH1 0x0 KECCAK256 SWAP1 JUMPDEST DUP2 SLOAD DUP2 MSTORE SWAP1 PUSH1 0x1 ADD SWAP1 PUSH1 0x20 ADD DUP1 DUP4 GT PUSH2 0x96B JUMPI DUP3 SWAP1 SUB PUSH1 0x1F AND DUP3 ADD SWAP2 JUMPDEST POP POP POP POP POP SWAP1 DUP1 PUSH1 0x6 ADD DUP1 SLOAD PUSH2 0x99D SWAP1 PUSH2 0xFA3 JUMP JUMPDEST DUP1 PUSH1 0x1F ADD PUSH1 0x20 DUP1 SWAP2 DIV MUL PUSH1 0x20 ADD PUSH1 0x40 MLOAD SWAP1 DUP2 ADD PUSH1 0x40 MSTORE DUP1 SWAP3 SWAP2 SWAP1 DUP2 DUP2 MSTORE PUSH1 0x20 ADD DUP3 DUP1 SLOAD PUSH2 0x9C9 SWAP1 PUSH2 0xFA3 JUMP JUMPDEST DUP1 ISZERO PUSH2 0xA16 JUMPI DUP1 PUSH1 0x1F LT PUSH2 0x9EB JUMPI PUSH2 0x100 DUP1 DUP4 SLOAD DIV MUL DUP4 MSTORE SWAP2 PUSH1 0x20 ADD SWAP2 PUSH2 0xA16 JUMP JUMPDEST DUP3 ADD SWAP2 SWAP1 PUSH1 0x0 MSTORE PUSH1 0x20 PUSH1 0x0 KECCAK256 SWAP1 JUMPDEST DUP2 SLOAD DUP2 MSTORE SWAP1 PUSH1 0x1 ADD SWAP1 PUSH1 0x20 ADD DUP1 DUP4 GT PUSH2 0x9F9 JUMPI DUP3 SWAP1 SUB PUSH1 0x1F AND DUP3 ADD SWAP2 JUMPDEST POP POP POP POP POP SWAP1 DUP1 PUSH1 0x8 ADD SLOAD SWAP1 DUP1 PUSH1 0x9 ADD PUSH1 0x0 SWAP1 SLOAD SWAP1 PUSH2 0x100 EXP SWAP1 DIV PUSH1 0xFF AND SWAP1 DUP1 PUSH1 0xA ADD SLOAD SWAP1 DUP1 PUSH1 0xB ADD SLOAD SWAP1 POP DUP12 JUMP JUMPDEST PUSH1 0x1 SLOAD DUP2 JUMP JUMPDEST PUSH1 0x0 DUP1 SLOAD SWAP1 PUSH2 0x100 EXP SWAP1 DIV PUSH20 0xFFFFFFFFFFFFFFFFFFFFFFFFFFFFFFFFFFFFFFFF AND DUP2 JUMP JUMPDEST PUSH1 0x8 PUSH1 0x20 MSTORE DUP1 PUSH1 0x0 MSTORE PUSH1 0x40 PUSH1 0x0 KECCAK256 PUSH1 0x0 SWAP2 POP SLOAD SWAP1 PUSH2 0x100 EXP SWAP1 DIV PUSH1 0xFF AND DUP2 JUMP JUMPDEST PUSH1 0x9 DUP2 DUP2 SLOAD DUP2 LT PUSH2 0xA9F JUMPI PUSH1 0x0 DUP1 REVERT JUMPDEST SWAP1 PUSH1 0x0 MSTORE PUSH1 0x20 PUSH1 0x0 KECCAK256 ADD PUSH1 0x0 SWAP2 POP SLOAD SWAP1 PUSH2 0x100 EXP SWAP1 DIV PUSH20 0xFFFFFFFFFFFFFFFFFFFFFFFFFFFFFFFFFFFFFFFF AND DUP2 JUMP JUMPDEST PUSH1 0xA PUSH1 0x20 MSTORE DUP1 PUSH1 0x0 MSTORE PUSH1 0x40 PUSH1 0x0 KECCAK256 PUSH1 0x0 SWAP2 POP SLOAD SWAP1 PUSH2 0x100 EXP SWAP1 DIV PUSH20 0xFFFFFFFFFFFFFFFFFFFFFFFFFFFFFFFFFFFFFFFF AND DUP2 JUMP JUMPDEST PUSH1 0x7 PUSH1 0x20 MSTORE DUP2 PUSH1 0x0 MSTORE PUSH1 0x40 PUSH1 0x0 KECCAK256 PUSH1 0x20 MSTORE DUP1 PUSH1 0x0 MSTORE PUSH1 0x40 PUSH1 0x0 KECCAK256 PUSH1 0x0 SWAP2 POP SWAP2 POP POP SLOAD DUP2 JUMP JUMPDEST PUSH1 0x0 DUP1 REVERT JUMPDEST PUSH1 0x0 PUSH20 0xFFFFFFFFFFFFFFFFFFFFFFFFFFFFFFFFFFFFFFFF DUP3 AND SWAP1 POP SWAP2 SWAP1 POP JUMP JUMPDEST PUSH1 0x0 PUSH2 0xB56 DUP3 PUSH2 0xB2B JUMP JUMPDEST SWAP1 POP SWAP2 SWAP1 POP JUMP JUMPDEST PUSH2 0xB66 DUP2 PUSH2 0xB4B JUMP JUMPDEST DUP2 EQ PUSH2 0xB71 JUMPI PUSH1 0x0 DUP1 REVERT JUMPDEST POP JUMP JUMPDEST PUSH1 0x0 DUP2 CALLDATALOAD SWAP1 POP PUSH2 0xB83 DUP2 PUSH2 0xB5D JUMP JUMPDEST SWAP3 SWAP2 POP POP JUMP JUMPDEST PUSH1 0x0 PUSH1 0x20 DUP3 DUP5 SUB SLT ISZERO PUSH2 0xB9F JUMPI PUSH2 0xB9E PUSH2 0xB26 JUMP JUMPDEST JUMPDEST PUSH1 0x0 PUSH2 0xBAD DUP5 DUP3 DUP6 ADD PUSH2 0xB74 JUMP JUMPDEST SWAP2 POP POP SWAP3 SWAP2 POP POP JUMP JUMPDEST PUSH2 0xBBF DUP2 PUSH2 0xB4B JUMP JUMPDEST DUP3 MSTORE POP POP JUMP JUMPDEST PUSH1 0x0 DUP2 MLOAD SWAP1 POP SWAP2 SWAP1 POP JUMP JUMPDEST PUSH1 0x0 DUP3 DUP3 MSTORE PUSH1 0x20 DUP3 ADD SWAP1 POP SWAP3 SWAP2 POP POP JUMP JUMPDEST PUSH1 0x0 JUMPDEST DUP4 DUP2 LT ISZERO PUSH2 0xBFF JUMPI DUP1 DUP3 ADD MLOAD DUP2 DUP5 ADD MSTORE PUSH1 0x20 DUP2 ADD SWAP1 POP PUSH2 0xBE4 JUMP JUMPDEST PUSH1 0x0 DUP5 DUP5 ADD MSTORE POP POP POP POP JUMP JUMPDEST PUSH1 0x0 PUSH1 0x1F NOT PUSH1 0x1F DUP4 ADD AND SWAP1 POP SWAP2 SWAP1 POP JUMP JUMPDEST PUSH1 0x0 PUSH2 0xC27 DUP3 PUSH2 0xBC5 JUMP JUMPDEST PUSH2 0xC31 DUP2 DUP6 PUSH2 0xBD0 JUMP JUMPDEST SWAP4 POP PUSH2 0xC41 DUP2 DUP6 PUSH1 0x20 DUP7 ADD PUSH2 0xBE1 JUMP JUMPDEST PUSH2 0xC4A DUP2 PUSH2 0xC0B JUMP JUMPDEST DUP5 ADD SWAP2 POP POP SWAP3 SWAP2 POP POP JUMP JUMPDEST PUSH1 0x0 DUP2 SWAP1 POP SWAP2 SWAP1 POP JUMP JUMPDEST PUSH2 0xC68 DUP2 PUSH2 0xC55 JUMP JUMPDEST DUP3 MSTORE POP POP JUMP JUMPDEST PUSH1 0x0 DUP2 ISZERO ISZERO SWAP1 POP SWAP2 SWAP1 POP JUMP JUMPDEST PUSH2 0xC83 DUP2 PUSH2 0xC6E JUMP JUMPDEST DUP3 MSTORE POP POP JUMP JUMPDEST PUSH1 0x0 PUSH2 0x100 DUP3 ADD SWAP1 POP PUSH2 0xC9F PUSH1 0x0 DUP4 ADD DUP12 PUSH2 0xBB6 JUMP JUMPDEST DUP2 DUP2 SUB PUSH1 0x20 DUP4 ADD MSTORE PUSH2 0xCB1 DUP2 DUP11 PUSH2 0xC1C JUMP JUMPDEST SWAP1 POP DUP2 DUP2 SUB PUSH1 0x40 DUP4 ADD MSTORE PUSH2 0xCC5 DUP2 DUP10 PUSH2 0xC1C JUMP JUMPDEST SWAP1 POP PUSH2 0xCD4 PUSH1 0x60 DUP4 ADD DUP9 PUSH2 0xC5F JUMP JUMPDEST DUP2 DUP2 SUB PUSH1 0x80 DUP4 ADD MSTORE PUSH2 0xCE6 DUP2 DUP8 PUSH2 0xC1C JUMP JUMPDEST SWAP1 POP DUP2 DUP2 SUB PUSH1 0xA0 DUP4 ADD MSTORE PUSH2 0xCFA DUP2 DUP7 PUSH2 0xC1C JUMP JUMPDEST SWAP1 POP PUSH2 0xD09 PUSH1 0xC0 DUP4 ADD DUP6 PUSH2 0xC7A JUMP JUMPDEST PUSH2 0xD16 PUSH1 0xE0 DUP4 ADD DUP5 PUSH2 0xC5F JUMP JUMPDEST SWAP10 SWAP9 POP POP POP POP POP POP POP POP POP JUMP JUMPDEST PUSH1 0x0 PUSH1 0x20 DUP3 ADD SWAP1 POP PUSH2 0xD38 PUSH1 0x0 DUP4 ADD DUP5 PUSH2 0xC5F JUMP JUMPDEST SWAP3 SWAP2 POP POP JUMP JUMPDEST PUSH2 0xD47 DUP2 PUSH2 0xC55 JUMP JUMPDEST DUP2 EQ PUSH2 0xD52 JUMPI PUSH1 0x0 DUP1 REVERT JUMPDEST POP JUMP JUMPDEST PUSH1 0x0 DUP2 CALLDATALOAD SWAP1 POP PUSH2 0xD64 DUP2 PUSH2 0xD3E JUMP JUMPDEST SWAP3 SWAP2 POP POP JUMP JUMPDEST PUSH1 0x0 PUSH1 0x20 DUP3 DUP5 SUB SLT ISZERO PUSH2 0xD80 JUMPI PUSH2 0xD7F PUSH2 0xB26 JUMP JUMPDEST JUMPDEST PUSH1 0x0 PUSH2 0xD8E DUP5 DUP3 DUP6 ADD PUSH2 0xD55 JUMP JUMPDEST SWAP2 POP POP SWAP3 SWAP2 POP POP JUMP JUMPDEST PUSH1 0x0 PUSH1 0xFF DUP3 AND SWAP1 POP SWAP2 SWAP1 POP JUMP JUMPDEST PUSH2 0xDAD DUP2 PUSH2 0xD97 JUMP JUMPDEST DUP3 MSTORE POP POP JUMP JUMPDEST PUSH1 0x0 PUSH1 0xE0 DUP3 ADD SWAP1 POP PUSH2 0xDC8 PUSH1 0x0 DUP4 ADD DUP11 PUSH2 0xDA4 JUMP JUMPDEST PUSH2 0xDD5 PUSH1 0x20 DUP4 ADD DUP10 PUSH2 0xBB6 JUMP JUMPDEST DUP2 DUP2 SUB PUSH1 0x40 DUP4 ADD MSTORE PUSH2 0xDE7 DUP2 DUP9 PUSH2 0xC1C JUMP JUMPDEST SWAP1 POP DUP2 DUP2 SUB PUSH1 0x60 DUP4 ADD MSTORE PUSH2 0xDFB DUP2 DUP8 PUSH2 0xC1C JUMP JUMPDEST SWAP1 POP PUSH2 0xE0A PUSH1 0x80 DUP4 ADD DUP7 PUSH2 0xC5F JUMP JUMPDEST PUSH2 0xE17 PUSH1 0xA0 DUP4 ADD DUP6 PUSH2 0xC7A JUMP JUMPDEST PUSH2 0xE24 PUSH1 0xC0 DUP4 ADD DUP5 PUSH2 0xBB6 JUMP JUMPDEST SWAP9 SWAP8 POP POP POP POP POP POP POP POP JUMP JUMPDEST PUSH1 0x0 PUSH1 0x20 DUP3 ADD SWAP1 POP PUSH2 0xE45 PUSH1 0x0 DUP4 ADD DUP5 PUSH2 0xDA4 JUMP JUMPDEST SWAP3 SWAP2 POP POP JUMP JUMPDEST PUSH1 0x0 PUSH2 0x160 DUP3 ADD SWAP1 POP PUSH2 0xE61 PUSH1 0x0 DUP4 ADD DUP15 PUSH2 0xBB6 JUMP JUMPDEST DUP2 DUP2 SUB PUSH1 0x20 DUP4 ADD MSTORE PUSH2 0xE73 DUP2 DUP14 PUSH2 0xC1C JUMP JUMPDEST SWAP1 POP DUP2 DUP2 SUB PUSH1 0x40 DUP4 ADD MSTORE PUSH2 0xE87 DUP2 DUP13 PUSH2 0xC1C JUMP JUMPDEST SWAP1 POP PUSH2 0xE96 PUSH1 0x60 DUP4 ADD DUP12 PUSH2 0xC5F JUMP JUMPDEST DUP2 DUP2 SUB PUSH1 0x80 DUP4 ADD MSTORE PUSH2 0xEA8 DUP2 DUP11 PUSH2 0xC1C JUMP JUMPDEST SWAP1 POP DUP2 DUP2 SUB PUSH1 0xA0 DUP4 ADD MSTORE PUSH2 0xEBC DUP2 DUP10 PUSH2 0xC1C JUMP JUMPDEST SWAP1 POP DUP2 DUP2 SUB PUSH1 0xC0 DUP4 ADD MSTORE PUSH2 0xED0 DUP2 DUP9 PUSH2 0xC1C JUMP JUMPDEST SWAP1 POP PUSH2 0xEDF PUSH1 0xE0 DUP4 ADD DUP8 PUSH2 0xC5F JUMP JUMPDEST PUSH2 0xEED PUSH2 0x100 DUP4 ADD DUP7 PUSH2 0xC7A JUMP JUMPDEST PUSH2 0xEFB PUSH2 0x120 DUP4 ADD DUP6 PUSH2 0xC5F JUMP JUMPDEST PUSH2 0xF09 PUSH2 0x140 DUP4 ADD DUP5 PUSH2 0xC5F JUMP JUMPDEST SWAP13 SWAP12 POP POP POP POP POP POP POP POP POP POP POP POP JUMP JUMPDEST PUSH1 0x0 PUSH1 0x20 DUP3 ADD SWAP1 POP PUSH2 0xF2E PUSH1 0x0 DUP4 ADD DUP5 PUSH2 0xBB6 JUMP JUMPDEST SWAP3 SWAP2 POP POP JUMP JUMPDEST PUSH1 0x0 DUP1 PUSH1 0x40 DUP4 DUP6 SUB SLT ISZERO PUSH2 0xF4B JUMPI PUSH2 0xF4A PUSH2 0xB26 JUMP JUMPDEST JUMPDEST PUSH1 0x0 PUSH2 0xF59 DUP6 DUP3 DUP7 ADD PUSH2 0xB74 JUMP JUMPDEST SWAP3 POP POP PUSH1 0x20 PUSH2 0xF6A DUP6 DUP3 DUP7 ADD PUSH2 0xD55 JUMP JUMPDEST SWAP2 POP POP SWAP3 POP SWAP3 SWAP1 POP JUMP JUMPDEST PUSH32 0x4E487B7100000000000000000000000000000000000000000000000000000000 PUSH1 0x0 MSTORE PUSH1 0x22 PUSH1 0x4 MSTORE PUSH1 0x24 PUSH1 0x0 REVERT JUMPDEST PUSH1 0x0 PUSH1 0x2 DUP3 DIV SWAP1 POP PUSH1 0x1 DUP3 AND DUP1 PUSH2 0xFBB JUMPI PUSH1 0x7F DUP3 AND SWAP2 POP JUMPDEST PUSH1 0x20 DUP3 LT DUP2 SUB PUSH2 0xFCE JUMPI PUSH2 0xFCD PUSH2 0xF74 JUMP JUMPDEST JUMPDEST POP SWAP2 SWAP1 POP JUMP INVALID LOG2 PUSH5 0x6970667358 0x22 SLT KECCAK256 0xD1 SWAP12 SWAP6 0xA6 0xCD 0xE2 0xD2 DUP15 PUSH27 0x3A631A9EB20291AE2BA1649ACCA39732A2889A5EF8F90B64736F6C PUSH4 0x43000818 STOP CALLER "},"gasEstimates":{"creation":{"codeDepositCost":"821200","executionCost":"857","totalCost":"822057"},"external":{"allFreelancerAddresses(uint256)":"5022","employers(address)":"infinite","escrowFunds(address,uint256)":"infinite","freelancers(address)":"infinite","jobs(uint256)":"infinite","owner()":"2533","roles(address)":"2889","totalCompletedJobs()":"2452","totalEmployers()":"2496","totalFreelancers()":"2429","totalJobs()":"2610","walletToUser(address)":"infinite"}},"methodIdentifiers":{"allFreelancerAddresses(uint256)":"c27a9dd4","employers(address)":"0be435bd","escrowFunds(address,uint256)":"fcafae11","freelancers(address)":"21bd6693","jobs(uint256)":"180aedf3","owner()":"8da5cb5b","roles(address)":"99374642","totalCompletedJobs()":"1033397b","totalEmployers()":"1906b4ce","totalFreelancers()":"5e586eb1","totalJobs()":"1ace87b3","walletToUser(address)":"ef8de2d8"}},"storageLayout":{"storage":[{"astId":1339,"contract":"contracts/Storage.sol:Storage","label":"owner","offset":0,"slot":"0","type":"t_address"},{"astId":1341,"contract":"contracts/Storage.sol:Storage","label":"totalJobs","offset":20,"slot":"0","type":"t_uint8"},{"astId":1343,"contract":"contracts/Storage.sol:Storage","label":"totalFreelancers","offset":0,"slot":"1","type":"t_uint256"},{"astId":1345,"contract":"contracts/Storage.sol:Storage","label":"totalEmployers","offset":0,"slot":"2","type":"t_uint256"},{"astId":1347,"contract":"contracts/Storage.sol:Storage","label":"totalCompletedJobs","offset":0,"slot":"3","type":"t_uint256"},{"astId":1413,"contract":"contracts/Storage.sol:Storage","label":"jobs","offset":0,"slot":"4","type":"t_mapping(t_uint256,t_struct(Job)1365_storage)"},{"astId":1418,"contract":"contracts/Storage.sol:Storage","label":"freelancers","offset":0,"slot":"5","type":"t_mapping(t_address,t_struct(Freelancer)1391_storage)"},{"astId":1423,"contract":"contracts/Storage.sol:Storage","label":"employers","offset":0,"slot":"6","type":"t_mapping(t_address,t_struct(Employer)1408_storage)"},{"astId":1429,"contract":"contracts/Storage.sol:Storage","label":"escrowFunds","offset":0,"slot":"7","type":"t_mapping(t_address,t_mapping(t_uint256,t_uint256))"},{"astId":1433,"contract":"contracts/Storage.sol:Storage","label":"roles","offset":0,"slot":"8","type":"t_mapping(t_address,t_uint8)"},{"astId":1436,"contract":"contracts/Storage.sol:Storage","label":"allFreelancerAddresses","offset":0,"slot":"9","type":"t_array(t_address)dyn_storage"},{"astId":1440,"contract":"contracts/Storage.sol:Storage","label":"walletToUser","offset":0,"slot":"10","type":"t_mapping(t_address,t_address)"}],"types":{"t_address":{"encoding":"inplace","label":"address","numberOfBytes":"20"},"t_array(t_address)dyn_storage":{"base":"t_address","encoding":"dynamic_array","label":"address[]","numberOfBytes":"32"},"t_array(t_string_storage)dyn_storage":{"base":"t_string_storage","encoding":"dynamic_array","label":"string[]","numberOfBytes":"32"},"t_bool":{"encoding":"inplace","label":"bool","numberOfBytes":"1"},"t_mapping(t_address,t_address)":{"encoding":"mapping","key":"t_address","label":"mapping(address => address)","numberOfBytes":"32","value":"t_address"},"t_mapping(t_address,t_mapping(t_uint256,t_uint256))":{"encoding":"mapping","key":"t_address","label":"mapping(address => mapping(uint256 => uint256))","numberOfBytes":"32","value":"t_mapping(t_uint256,t_uint256)"},"t_mapping(t_address,t_struct(Employer)1408_storage)":{"encoding":"mapping","key":"t_address","label":"mapping(address => struct Storage.Employer)","numberOfBytes":"32","value":"t_struct(Employer)1408_storage"},"t_mapping(t_address,t_struct(Freelancer)1391_storage)":{"encoding":"mapping","key":"t_address","label":"mapping(address => struct Storage.Freelancer)","numberOfBytes":"32","value":"t_struct(Freelancer)1391_storage"},"t_mapping(t_address,t_uint8)":{"encoding":"mapping","key":"t_address","label":"mapping(address => uint8)","numberOfBytes":"32","value":"t_uint8"},"t_mapping(t_uint256,t_struct(Job)1365_storage)":{"encoding":"mapping","key":"t_uint256","label":"mapping(uint256 => struct Storage.Job)","numberOfBytes":"32","value":"t_struct(Job)1365_storage"},"t_mapping(t_uint256,t_uint256)":{"encoding":"mapping","key":"t_uint256","label":"mapping(uint256 => uint256)","numberOfBytes":"32","value":"t_uint256"},"t_string_storage":{"encoding":"bytes","label":"string","numberOfBytes":"32"},"t_struct(Employer)1408_storage":{"encoding":"inplace","label":"struct Storage.Employer","members":[{"astId":1393,"contract":"contracts/Storage.sol:Storage","label":"employerAddress","offset":0,"slot":"0","type":"t_address"},{"astId":1395,"contract":"contracts/Storage.sol:Storage","label":"name","offset":0,"slot":"1","type":"t_string_storage"},{"astId":1397,"contract":"contracts/Storage.sol:Storage","label":"industry","offset":0,"slot":"2","type":"t_string_storage"},{"astId":1399,"contract":"contracts/Storage.sol:Storage","label":"balance","offset":0,"slot":"3","type":"t_uint256"},{"astId":1401,"contract":"contracts/Storage.sol:Storage","label":"country","offset":0,"slot":"4","type":"t_string_storage"},{"astId":1403,"contract":"contracts/Storage.sol:Storage","label":"image","offset":0,"slot":"5","type":"t_string_storage"},{"astId":1405,"contract":"contracts/Storage.sol:Storage","label":"registered","offset":0,"slot":"6","type":"t_bool"},{"astId":1407,"contract":"contracts/Storage.sol:Storage","label":"registration_date","offset":0,"slot":"7","type":"t_uint256"}],"numberOfBytes":"256"},"t_struct(Freelancer)1391_storage":{"encoding":"inplace","label":"struct Storage.Freelancer","members":[{"astId":1367,"contract":"contracts/Storage.sol:Storage","label":"freelancerAddress","offset":0,"slot":"0","type":"t_address"},{"astId":1369,"contract":"contracts/Storage.sol:Storage","label":"name","offset":0,"slot":"1","type":"t_string_storage"},{"astId":1371,"contract":"contracts/Storage.sol:Storage","label":"skills","offset":0,"slot":"2","type":"t_string_storage"},{"astId":1373,"contract":"contracts/Storage.sol:Storage","label":"balance","offset":0,"slot":"3","type":"t_uint256"},{"astId":1375,"contract":"contracts/Storage.sol:Storage","label":"country","offset":0,"slot":"4","type":"t_string_storage"},{"astId":1377,"contract":"contracts/Storage.sol:Storage","label":"gigTitle","offset":0,"slot":"5","type":"t_string_storage"},{"astId":1379,"contract":"contracts/Storage.sol:Storage","label":"gitDescription","offset":0,"slot":"6","type":"t_string_storage"},{"astId":1382,"contract":"contracts/Storage.sol:Storage","label":"images","offset":0,"slot":"7","type":"t_array(t_string_storage)dyn_storage"},{"astId":1384,"contract":"contracts/Storage.sol:Storage","label":"jobsCompleted","offset":0,"slot":"8","type":"t_uint256"},{"astId":1386,"contract":"contracts/Storage.sol:Storage","label":"registered","offset":0,"slot":"9","type":"t_bool"},{"astId":1388,"contract":"contracts/Storage.sol:Storage","label":"registration_date","offset":0,"slot":"10","type":"t_uint256"},{"astId":1390,"contract":"contracts/Storage.sol:Storage","label":"starting_price","offset":0,"slot":"11","type":"t_uint256"}],"numberOfBytes":"384"},"t_struct(Job)1365_storage":{"encoding":"inplace","label":"struct Storage.Job","members":[{"astId":1349,"contract":"contracts/Storage.sol:Storage","label":"id","offset":0,"slot":"0","type":"t_uint8"},{"astId":1351,"contract":"contracts/Storage.sol:Storage","label":"employer","offset":1,"slot":"0","type":"t_address"},{"astId":1353,"contract":"contracts/Storage.sol:Storage","label":"title","offset":0,"slot":"1","type":"t_string_storage"},{"astId":1355,"contract":"contracts/Storage.sol:Storage","label":"description","offset":0,"slot":"2","type":"t_string_storage"},{"astId":1357,"contract":"contracts/Storage.sol:Storage","label":"budget","offset":0,"slot":"3","type":"t_uint256"},{"astId":1359,"contract":"contracts/Storage.sol:Storage","label":"completed","offset":0,"slot":"4","type":"t_bool"},{"astId":1362,"contract":"contracts/Storage.sol:Storage","label":"applicants","offset":0,"slot":"5","type":"t_array(t_address)dyn_storage"},{"astId":1364,"contract":"contracts/Storage.sol:Storage","label":"hiredFreelancer","offset":0,"slot":"6","type":"t_address"}],"numberOfBytes":"224"},"t_uint256":{"encoding":"inplace","label":"uint256","numberOfBytes":"32"},"t_uint8":{"encoding":"inplace","label":"uint8","numberOfBytes":"1"}}},"userdoc":{"kind":"user","methods":{},"version":1}}}}