{"contracts/FreelancerLogic.sol":{"FreelancerLogic":{"abi":[{"inputs":[],"name":"AR_F","type":"error"},{"inputs":[],"name":"II_F","type":"error"},{"inputs":[],"name":"WR_F","type":"error"},{"anonymous":false,"inputs":[{"indexed":false,"internalType":"address","name":"freelancerAddress","type":"address"},{"indexed":false,"internalType":"string[]","name":"images","type":"string[]"},{"indexed":false,"internalType":"uint256","name":"amount","type":"uint256"}],"name":"FreelancerRegistered","type":"event"},{"anonymous":false,"inputs":[{"indexed":false,"internalType":"address","name":"freelancer","type":"address"},{"indexed":false,"internalType":"uint256","name":"amount","type":"uint256"}],"name":"WithdrawFund","type":"event"},{"inputs":[{"internalType":"uint256","name":"","type":"uint256"}],"name":"allFreelancerAddresses","outputs":[{"internalType":"address","name":"","type":"address"}],"stateMutability":"view","type":"function"},{"inputs":[{"internalType":"string","name":"_name","type":"string"},{"internalType":"string","name":"_skills","type":"string"},{"internalType":"string","name":"_country","type":"string"},{"internalType":"string","name":"_gigTitle","type":"string"},{"internalType":"string","name":"_gigDesc","type":"string"},{"internalType":"string[]","name":"_images","type":"string[]"},{"internalType":"uint256","name":"_starting_price","type":"uint256"}],"name":"editFreelancerProfile","outputs":[],"stateMutability":"nonpayable","type":"function"},{"inputs":[{"internalType":"address","name":"","type":"address"}],"name":"employers","outputs":[{"internalType":"address","name":"employerAddress","type":"address"},{"internalType":"string","name":"name","type":"string"},{"internalType":"string","name":"industry","type":"string"},{"internalType":"uint256","name":"balance","type":"uint256"},{"internalType":"string","name":"country","type":"string"},{"internalType":"string","name":"image","type":"string"},{"internalType":"bool","name":"registered","type":"bool"},{"internalType":"uint256","name":"registration_date","type":"uint256"}],"stateMutability":"view","type":"function"},{"inputs":[{"internalType":"address","name":"","type":"address"},{"internalType":"uint256","name":"","type":"uint256"}],"name":"escrowFunds","outputs":[{"internalType":"uint256","name":"","type":"uint256"}],"stateMutability":"view","type":"function"},{"inputs":[{"internalType":"address","name":"","type":"address"}],"name":"freelancers","outputs":[{"internalType":"address","name":"freelancerAddress","type":"address"},{"internalType":"string","name":"name","type":"string"},{"internalType":"string","name":"skills","type":"string"},{"internalType":"uint256","name":"balance","type":"uint256"},{"internalType":"string","name":"country","type":"string"},{"internalType":"string","name":"gigTitle","type":"string"},{"internalType":"string","name":"gitDescription","type":"string"},{"internalType":"uint256","name":"jobsCompleted","type":"uint256"},{"internalType":"bool","name":"registered","type":"bool"},{"internalType":"uint256","name":"registration_date","type":"uint256"},{"internalType":"uint256","name":"starting_price","type":"uint256"}],"stateMutability":"view","type":"function"},{"inputs":[{"internalType":"address","name":"_freelancer","type":"address"}],"name":"getFreelancerByAddress","outputs":[{"components":[{"internalType":"address","name":"freelancerAddress","type":"address"},{"internalType":"string","name":"name","type":"string"},{"internalType":"string","name":"skills","type":"string"},{"internalType":"uint256","name":"balance","type":"uint256"},{"internalType":"string","name":"country","type":"string"},{"internalType":"string","name":"gigTitle","type":"string"},{"internalType":"string","name":"gitDescription","type":"string"},{"internalType":"string[]","name":"images","type":"string[]"},{"internalType":"uint256","name":"jobsCompleted","type":"uint256"},{"internalType":"bool","name":"registered","type":"bool"},{"internalType":"uint256","name":"registration_date","type":"uint256"},{"internalType":"uint256","name":"starting_price","type":"uint256"}],"internalType":"struct Storage.Freelancer","name":"props","type":"tuple"}],"stateMutability":"view","type":"function"},{"inputs":[{"internalType":"uint256","name":"","type":"uint256"}],"name":"jobs","outputs":[{"internalType":"uint8","name":"id","type":"uint8"},{"internalType":"address","name":"employer","type":"address"},{"internalType":"string","name":"title","type":"string"},{"internalType":"string","name":"description","type":"string"},{"internalType":"uint256","name":"budget","type":"uint256"},{"internalType":"bool","name":"completed","type":"bool"},{"internalType":"address","name":"hiredFreelancer","type":"address"}],"stateMutability":"view","type":"function"},{"inputs":[],"name":"owner","outputs":[{"internalType":"address","name":"","type":"address"}],"stateMutability":"view","type":"function"},{"inputs":[{"internalType":"address","name":"creator","type":"address"},{"internalType":"string","name":"_name","type":"string"},{"internalType":"string","name":"_skills","type":"string"},{"internalType":"string","name":"_country","type":"string"},{"internalType":"string","name":"_gigTitle","type":"string"},{"internalType":"string","name":"_gigDesc","type":"string"},{"internalType":"string[]","name":"_images","type":"string[]"},{"internalType":"uint256","name":"_starting_price","type":"uint256"}],"name":"registerFreelancer","outputs":[],"stateMutability":"nonpayable","type":"function"},{"inputs":[{"internalType":"address","name":"","type":"address"}],"name":"roles","outputs":[{"internalType":"uint8","name":"","type":"uint8"}],"stateMutability":"view","type":"function"},{"inputs":[],"name":"totalCompletedJobs","outputs":[{"internalType":"uint256","name":"","type":"uint256"}],"stateMutability":"view","type":"function"},{"inputs":[],"name":"totalEmployers","outputs":[{"internalType":"uint256","name":"","type":"uint256"}],"stateMutability":"view","type":"function"},{"inputs":[],"name":"totalFreelancers","outputs":[{"internalType":"uint256","name":"","type":"uint256"}],"stateMutability":"view","type":"function"},{"inputs":[],"name":"totalJobs","outputs":[{"internalType":"uint8","name":"","type":"uint8"}],"stateMutability":"view","type":"function"},{"inputs":[{"internalType":"address","name":"","type":"address"}],"name":"walletToUser","outputs":[{"internalType":"address","name":"","type":"address"}],"stateMutability":"view","type":"function"},{"inputs":[],"name":"withdrawEarnings","outputs":[],"stateMutability":"nonpayable","type":"function"}],"devdoc":{"kind":"dev","methods":{},"version":1},"evm":{"bytecode":{"linkReferences":{},"object":"608060405234801561001057600080fd5b50612dd2806100206000396000f3fe608060405234801561001057600080fd5b50600436106101005760003560e01c80638da5cb5b11610097578063c151f3c611610066578063c151f3c6146102c8578063c27a9dd4146102e4578063ef8de2d814610314578063fcafae111461034457610100565b80638da5cb5b1461025457806391ca168714610272578063993746421461028e578063b73c6ce9146102be57610100565b80631ace87b3116100d35780631ace87b3146101ae5780631c7af7a0146101cc57806321bd6693146101fc5780635e586eb11461023657610100565b80630be435bd146101055780631033397b1461013c578063180aedf31461015a5780631906b4ce14610190575b600080fd5b61011f600480360381019061011a9190611c6a565b610374565b604051610133989796959493929190611d6a565b60405180910390f35b610144610609565b6040516101519190611e04565b60405180910390f35b610174600480360381019061016f9190611e4b565b61060f565b6040516101879796959493929190611e94565b60405180910390f35b6101986107bb565b6040516101a59190611e04565b60405180910390f35b6101b66107c1565b6040516101c39190611f11565b60405180910390f35b6101e660048036038101906101e19190611c6a565b6107d4565b6040516101f3919061218c565b60405180910390f35b61021660048036038101906102119190611c6a565b610c7a565b60405161022d9b9a999897969594939291906121ae565b60405180910390f35b61023e610fa9565b60405161024b9190611e04565b60405180910390f35b61025c610faf565b604051610269919061227c565b60405180910390f35b61028c600480360381019061028791906124b2565b610fd3565b005b6102a860048036038101906102a39190611c6a565b611295565b6040516102b59190611f11565b60405180910390f35b6102c66112b5565b005b6102e260048036038101906102dd91906125fc565b611605565b005b6102fe60048036038101906102f99190611e4b565b611a0e565b60405161030b919061227c565b60405180910390f35b61032e60048036038101906103299190611c6a565b611a4d565b60405161033b919061227c565b60405180910390f35b61035e6004803603810190610359919061275a565b611a80565b60405161036b9190611e04565b60405180910390f35b60066020528060005260406000206000915090508060000160009054906101000a900473ffffffffffffffffffffffffffffffffffffffff16908060010180546103bd906127c9565b80601f01602080910402602001604051908101604052809291908181526020018280546103e9906127c9565b80156104365780601f1061040b57610100808354040283529160200191610436565b820191906000526020600020905b81548152906001019060200180831161041957829003601f168201915b50505050509080600201805461044b906127c9565b80601f0160208091040260200160405190810160405280929190818152602001828054610477906127c9565b80156104c45780601f10610499576101008083540402835291602001916104c4565b820191906000526020600020905b8154815290600101906020018083116104a757829003601f168201915b5050505050908060030154908060040180546104df906127c9565b80601f016020809104026020016040519081016040528092919081815260200182805461050b906127c9565b80156105585780601f1061052d57610100808354040283529160200191610558565b820191906000526020600020905b81548152906001019060200180831161053b57829003601f168201915b50505050509080600501805461056d906127c9565b80601f0160208091040260200160405190810160405280929190818152602001828054610599906127c9565b80156105e65780601f106105bb576101008083540402835291602001916105e6565b820191906000526020600020905b8154815290600101906020018083116105c957829003601f168201915b5050505050908060060160009054906101000a900460ff16908060070154905088565b60035481565b60046020528060005260406000206000915090508060000160009054906101000a900460ff16908060000160019054906101000a900473ffffffffffffffffffffffffffffffffffffffff169080600101805461066b906127c9565b80601f0160208091040260200160405190810160405280929190818152602001828054610697906127c9565b80156106e45780601f106106b9576101008083540402835291602001916106e4565b820191906000526020600020905b8154815290600101906020018083116106c757829003601f168201915b5050505050908060020180546106f9906127c9565b80601f0160208091040260200160405190810160405280929190818152602001828054610725906127c9565b80156107725780601f1061074757610100808354040283529160200191610772565b820191906000526020600020905b81548152906001019060200180831161075557829003601f168201915b5050505050908060030154908060040160009054906101000a900460ff16908060060160009054906101000a900473ffffffffffffffffffffffffffffffffffffffff16905087565b60025481565b600060149054906101000a900460ff1681565b6107dc611aa5565b600560008373ffffffffffffffffffffffffffffffffffffffff1673ffffffffffffffffffffffffffffffffffffffff168152602001908152602001600020604051806101800160405290816000820160009054906101000a900473ffffffffffffffffffffffffffffffffffffffff1673ffffffffffffffffffffffffffffffffffffffff1673ffffffffffffffffffffffffffffffffffffffff16815260200160018201805461088d906127c9565b80601f01602080910402602001604051908101604052809291908181526020018280546108b9906127c9565b80156109065780601f106108db57610100808354040283529160200191610906565b820191906000526020600020905b8154815290600101906020018083116108e957829003601f168201915b5050505050815260200160028201805461091f906127c9565b80601f016020809104026020016040519081016040528092919081815260200182805461094b906127c9565b80156109985780601f1061096d57610100808354040283529160200191610998565b820191906000526020600020905b81548152906001019060200180831161097b57829003601f168201915b50505050508152602001600382015481526020016004820180546109bb906127c9565b80601f01602080910402602001604051908101604052809291908181526020018280546109e7906127c9565b8015610a345780601f10610a0957610100808354040283529160200191610a34565b820191906000526020600020905b815481529060010190602001808311610a1757829003601f168201915b50505050508152602001600582018054610a4d906127c9565b80601f0160208091040260200160405190810160405280929190818152602001828054610a79906127c9565b8015610ac65780601f10610a9b57610100808354040283529160200191610ac6565b820191906000526020600020905b815481529060010190602001808311610aa957829003601f168201915b50505050508152602001600682018054610adf906127c9565b80601f0160208091040260200160405190810160405280929190818152602001828054610b0b906127c9565b8015610b585780601f10610b2d57610100808354040283529160200191610b58565b820191906000526020600020905b815481529060010190602001808311610b3b57829003601f168201915b5050505050815260200160078201805480602002602001604051908101604052809291908181526020016000905b82821015610c32578382906000526020600020018054610ba5906127c9565b80601f0160208091040260200160405190810160405280929190818152602001828054610bd1906127c9565b8015610c1e5780601f10610bf357610100808354040283529160200191610c1e565b820191906000526020600020905b815481529060010190602001808311610c0157829003601f168201915b505050505081526020019060010190610b86565b505050508152602001600882015481526020016009820160009054906101000a900460ff16151515158152602001600a8201548152602001600b820154815250509050919050565b60056020528060005260406000206000915090508060000160009054906101000a900473ffffffffffffffffffffffffffffffffffffffff1690806001018054610cc3906127c9565b80601f0160208091040260200160405190810160405280929190818152602001828054610cef906127c9565b8015610d3c5780601f10610d1157610100808354040283529160200191610d3c565b820191906000526020600020905b815481529060010190602001808311610d1f57829003601f168201915b505050505090806002018054610d51906127c9565b80601f0160208091040260200160405190810160405280929190818152602001828054610d7d906127c9565b8015610dca5780601f10610d9f57610100808354040283529160200191610dca565b820191906000526020600020905b815481529060010190602001808311610dad57829003601f168201915b505050505090806003015490806004018054610de5906127c9565b80601f0160208091040260200160405190810160405280929190818152602001828054610e11906127c9565b8015610e5e5780601f10610e3357610100808354040283529160200191610e5e565b820191906000526020600020905b815481529060010190602001808311610e4157829003601f168201915b505050505090806005018054610e73906127c9565b80601f0160208091040260200160405190810160405280929190818152602001828054610e9f906127c9565b8015610eec5780601f10610ec157610100808354040283529160200191610eec565b820191906000526020600020905b815481529060010190602001808311610ecf57829003601f168201915b505050505090806006018054610f01906127c9565b80601f0160208091040260200160405190810160405280929190818152602001828054610f2d906127c9565b8015610f7a5780601f10610f4f57610100808354040283529160200191610f7a565b820191906000526020600020905b815481529060010190602001808311610f5d57829003601f168201915b5050505050908060080154908060090160009054906101000a900460ff169080600a01549080600b015490508b565b60015481565b60008054906101000a900473ffffffffffffffffffffffffffffffffffffffff1681565b6000600a60003373ffffffffffffffffffffffffffffffffffffffff1673ffffffffffffffffffffffffffffffffffffffff16815260200190815260200160002060009054906101000a900473ffffffffffffffffffffffffffffffffffffffff1690506002600860003373ffffffffffffffffffffffffffffffffffffffff1673ffffffffffffffffffffffffffffffffffffffff16815260200190815260200160002060009054906101000a900460ff1660ff16141580156110e757506002600860008373ffffffffffffffffffffffffffffffffffffffff1673ffffffffffffffffffffffffffffffffffffffff16815260200190815260200160002060009054906101000a900460ff1660ff1614155b1561111e576040517fc23cf1f400000000000000000000000000000000000000000000000000000000815260040160405180910390fd5b60008851148061112f575060008751145b15611166576040517fbd0febc100000000000000000000000000000000000000000000000000000000815260040160405180910390fd5b6000600a60003373ffffffffffffffffffffffffffffffffffffffff1673ffffffffffffffffffffffffffffffffffffffff16815260200190815260200160002060009054906101000a900473ffffffffffffffffffffffffffffffffffffffff1690506000600560008373ffffffffffffffffffffffffffffffffffffffff1673ffffffffffffffffffffffffffffffffffffffff16815260200190815260200160002090508981600101908161121e91906129a6565b508881600201908161123091906129a6565b508781600401908161124291906129a6565b508681600501908161125491906129a6565b508581600601908161126691906129a6565b508481600701908051906020019061127f929190611b1e565b508381600b018190555050505050505050505050565b60086020528060005260406000206000915054906101000a900460ff1681565b6000600a60003373ffffffffffffffffffffffffffffffffffffffff1673ffffffffffffffffffffffffffffffffffffffff16815260200190815260200160002060009054906101000a900473ffffffffffffffffffffffffffffffffffffffff1690506002600860003373ffffffffffffffffffffffffffffffffffffffff1673ffffffffffffffffffffffffffffffffffffffff16815260200190815260200160002060009054906101000a900460ff1660ff16141580156113c957506002600860008373ffffffffffffffffffffffffffffffffffffffff1673ffffffffffffffffffffffffffffffffffffffff16815260200190815260200160002060009054906101000a900460ff1660ff1614155b15611400576040517fc23cf1f400000000000000000000000000000000000000000000000000000000815260040160405180910390fd5b6000600a60003373ffffffffffffffffffffffffffffffffffffffff1673ffffffffffffffffffffffffffffffffffffffff16815260200190815260200160002060009054906101000a900473ffffffffffffffffffffffffffffffffffffffff1690506000600560008373ffffffffffffffffffffffffffffffffffffffff1673ffffffffffffffffffffffffffffffffffffffff168152602001908152602001600020905060008160030154116114ee576040517f08c379a00000000000000000000000000000000000000000000000000000000081526004016114e590612ac4565b60405180910390fd5b60006064605f83600301546115039190612b13565b61150d9190612b84565b90506000826003018190555060003373ffffffffffffffffffffffffffffffffffffffff168260405161153f90612be6565b60006040518083038185875af1925050503d806000811461157c576040519150601f19603f3d011682016040523d82523d6000602084013e611581565b606091505b50509050806115c5576040517f08c379a00000000000000000000000000000000000000000000000000000000081526004016115bc90612c47565b60405180910390fd5b7f09ad672d4e7c4892da934d1051932ebe9ec4b6ec8c3f40d569176db3e93e5abe33836040516115f6929190612c67565b60405180910390a15050505050565b6000600860003373ffffffffffffffffffffffffffffffffffffffff1673ffffffffffffffffffffffffffffffffffffffff16815260200190815260200160002060009054906101000a900460ff1660ff161461168e576040517f0af79ad300000000000000000000000000000000000000000000000000000000815260040160405180910390fd5b600087511161169c57600080fd5b60008651116116aa57600080fd5b600160008154809291906116bd90612c90565b91905055506002600860003373ffffffffffffffffffffffffffffffffffffffff1673ffffffffffffffffffffffffffffffffffffffff16815260200190815260200160002060006101000a81548160ff021916908360ff16021790555087600a60003373ffffffffffffffffffffffffffffffffffffffff1673ffffffffffffffffffffffffffffffffffffffff16815260200190815260200160002060006101000a81548173ffffffffffffffffffffffffffffffffffffffff021916908373ffffffffffffffffffffffffffffffffffffffff1602179055506040518061018001604052808973ffffffffffffffffffffffffffffffffffffffff168152602001888152602001878152602001600081526020018681526020018581526020018481526020018381526020016000815260200160011515815260200142815260200182815250600560008a73ffffffffffffffffffffffffffffffffffffffff1673ffffffffffffffffffffffffffffffffffffffff16815260200190815260200160002060008201518160000160006101000a81548173ffffffffffffffffffffffffffffffffffffffff021916908373ffffffffffffffffffffffffffffffffffffffff16021790555060208201518160010190816118a191906129a6565b5060408201518160020190816118b791906129a6565b506060820151816003015560808201518160040190816118d791906129a6565b5060a08201518160050190816118ed91906129a6565b5060c082015181600601908161190391906129a6565b5060e0820151816007019080519060200190611920929190611b1e565b5061010082015181600801556101208201518160090160006101000a81548160ff02191690831515021790555061014082015181600a015561016082015181600b01559050506009889080600181540180825580915050600190039060005260206000200160009091909190916101000a81548173ffffffffffffffffffffffffffffffffffffffff021916908373ffffffffffffffffffffffffffffffffffffffff1602179055507f21bef455eb0e77b12a579311ca8616d72216c8b628577eeda276ac16fe5b622e8883836040516119fc93929190612d5e565b60405180910390a15050505050505050565b60098181548110611a1e57600080fd5b906000526020600020016000915054906101000a900473ffffffffffffffffffffffffffffffffffffffff1681565b600a6020528060005260406000206000915054906101000a900473ffffffffffffffffffffffffffffffffffffffff1681565b6007602052816000526040600020602052806000526040600020600091509150505481565b604051806101800160405280600073ffffffffffffffffffffffffffffffffffffffff168152602001606081526020016060815260200160008152602001606081526020016060815260200160608152602001606081526020016000815260200160001515815260200160008152602001600081525090565b828054828255906000526020600020908101928215611b66579160200282015b82811115611b65578251829081611b5591906129a6565b5091602001919060010190611b3e565b5b509050611b739190611b77565b5090565b5b80821115611b975760008181611b8e9190611b9b565b50600101611b78565b5090565b508054611ba7906127c9565b6000825580601f10611bb95750611bd8565b601f016020900490600052602060002090810190611bd79190611bdb565b5b50565b5b80821115611bf4576000816000905550600101611bdc565b5090565b6000604051905090565b600080fd5b600080fd5b600073ffffffffffffffffffffffffffffffffffffffff82169050919050565b6000611c3782611c0c565b9050919050565b611c4781611c2c565b8114611c5257600080fd5b50565b600081359050611c6481611c3e565b92915050565b600060208284031215611c8057611c7f611c02565b5b6000611c8e84828501611c55565b91505092915050565b611ca081611c2c565b82525050565b600081519050919050565b600082825260208201905092915050565b60005b83811015611ce0578082015181840152602081019050611cc5565b60008484015250505050565b6000601f19601f8301169050919050565b6000611d0882611ca6565b611d128185611cb1565b9350611d22818560208601611cc2565b611d2b81611cec565b840191505092915050565b6000819050919050565b611d4981611d36565b82525050565b60008115159050919050565b611d6481611d4f565b82525050565b600061010082019050611d80600083018b611c97565b8181036020830152611d92818a611cfd565b90508181036040830152611da68189611cfd565b9050611db56060830188611d40565b8181036080830152611dc78187611cfd565b905081810360a0830152611ddb8186611cfd565b9050611dea60c0830185611d5b565b611df760e0830184611d40565b9998505050505050505050565b6000602082019050611e196000830184611d40565b92915050565b611e2881611d36565b8114611e3357600080fd5b50565b600081359050611e4581611e1f565b92915050565b600060208284031215611e6157611e60611c02565b5b6000611e6f84828501611e36565b91505092915050565b600060ff82169050919050565b611e8e81611e78565b82525050565b600060e082019050611ea9600083018a611e85565b611eb66020830189611c97565b8181036040830152611ec88188611cfd565b90508181036060830152611edc8187611cfd565b9050611eeb6080830186611d40565b611ef860a0830185611d5b565b611f0560c0830184611c97565b98975050505050505050565b6000602082019050611f266000830184611e85565b92915050565b611f3581611c2c565b82525050565b600082825260208201905092915050565b6000611f5782611ca6565b611f618185611f3b565b9350611f71818560208601611cc2565b611f7a81611cec565b840191505092915050565b611f8e81611d36565b82525050565b600081519050919050565b600082825260208201905092915050565b6000819050602082019050919050565b6000611fcc8383611f4c565b905092915050565b6000602082019050919050565b6000611fec82611f94565b611ff68185611f9f565b93508360208202850161200885611fb0565b8060005b8581101561204457848403895281516120258582611fc0565b945061203083611fd4565b925060208a0199505060018101905061200c565b50829750879550505050505092915050565b61205f81611d4f565b82525050565b60006101808301600083015161207e6000860182611f2c565b50602083015184820360208601526120968282611f4c565b915050604083015184820360408601526120b08282611f4c565b91505060608301516120c56060860182611f85565b50608083015184820360808601526120dd8282611f4c565b91505060a083015184820360a08601526120f78282611f4c565b91505060c083015184820360c08601526121118282611f4c565b91505060e083015184820360e086015261212b8282611fe1565b915050610100830151612142610100860182611f85565b50610120830151612157610120860182612056565b5061014083015161216c610140860182611f85565b50610160830151612181610160860182611f85565b508091505092915050565b600060208201905081810360008301526121a68184612065565b905092915050565b6000610160820190506121c4600083018e611c97565b81810360208301526121d6818d611cfd565b905081810360408301526121ea818c611cfd565b90506121f9606083018b611d40565b818103608083015261220b818a611cfd565b905081810360a083015261221f8189611cfd565b905081810360c08301526122338188611cfd565b905061224260e0830187611d40565b612250610100830186611d5b565b61225e610120830185611d40565b61226c610140830184611d40565b9c9b505050505050505050505050565b60006020820190506122916000830184611c97565b92915050565b600080fd5b600080fd5b7f4e487b7100000000000000000000000000000000000000000000000000000000600052604160045260246000fd5b6122d982611cec565b810181811067ffffffffffffffff821117156122f8576122f76122a1565b5b80604052505050565b600061230b611bf8565b905061231782826122d0565b919050565b600067ffffffffffffffff821115612337576123366122a1565b5b61234082611cec565b9050602081019050919050565b82818337600083830152505050565b600061236f61236a8461231c565b612301565b90508281526020810184848401111561238b5761238a61229c565b5b61239684828561234d565b509392505050565b600082601f8301126123b3576123b2612297565b5b81356123c384826020860161235c565b91505092915050565b600067ffffffffffffffff8211156123e7576123e66122a1565b5b602082029050602081019050919050565b600080fd5b600061241061240b846123cc565b612301565b90508083825260208201905060208402830185811115612433576124326123f8565b5b835b8181101561247a57803567ffffffffffffffff81111561245857612457612297565b5b808601612465898261239e565b85526020850194505050602081019050612435565b5050509392505050565b600082601f83011261249957612498612297565b5b81356124a98482602086016123fd565b91505092915050565b600080600080600080600060e0888a0312156124d1576124d0611c02565b5b600088013567ffffffffffffffff8111156124ef576124ee611c07565b5b6124fb8a828b0161239e565b975050602088013567ffffffffffffffff81111561251c5761251b611c07565b5b6125288a828b0161239e565b965050604088013567ffffffffffffffff81111561254957612548611c07565b5b6125558a828b0161239e565b955050606088013567ffffffffffffffff81111561257657612575611c07565b5b6125828a828b0161239e565b945050608088013567ffffffffffffffff8111156125a3576125a2611c07565b5b6125af8a828b0161239e565b93505060a088013567ffffffffffffffff8111156125d0576125cf611c07565b5b6125dc8a828b01612484565b92505060c06125ed8a828b01611e36565b91505092959891949750929550565b600080600080600080600080610100898b03121561261d5761261c611c02565b5b600061262b8b828c01611c55565b985050602089013567ffffffffffffffff81111561264c5761264b611c07565b5b6126588b828c0161239e565b975050604089013567ffffffffffffffff81111561267957612678611c07565b5b6126858b828c0161239e565b965050606089013567ffffffffffffffff8111156126a6576126a5611c07565b5b6126b28b828c0161239e565b955050608089013567ffffffffffffffff8111156126d3576126d2611c07565b5b6126df8b828c0161239e565b94505060a089013567ffffffffffffffff811115612700576126ff611c07565b5b61270c8b828c0161239e565b93505060c089013567ffffffffffffffff81111561272d5761272c611c07565b5b6127398b828c01612484565b92505060e061274a8b828c01611e36565b9150509295985092959890939650565b6000806040838503121561277157612770611c02565b5b600061277f85828601611c55565b925050602061279085828601611e36565b9150509250929050565b7f4e487b7100000000000000000000000000000000000000000000000000000000600052602260045260246000fd5b600060028204905060018216806127e157607f821691505b6020821081036127f4576127f361279a565b5b50919050565b60008190508160005260206000209050919050565b60006020601f8301049050919050565b600082821b905092915050565b60006008830261285c7fffffffffffffffffffffffffffffffffffffffffffffffffffffffffffffffff8261281f565b612866868361281f565b95508019841693508086168417925050509392505050565b6000819050919050565b60006128a361289e61289984611d36565b61287e565b611d36565b9050919050565b6000819050919050565b6128bd83612888565b6128d16128c9826128aa565b84845461282c565b825550505050565b600090565b6128e66128d9565b6128f18184846128b4565b505050565b5b818110156129155761290a6000826128de565b6001810190506128f7565b5050565b601f82111561295a5761292b816127fa565b6129348461280f565b81016020851015612943578190505b61295761294f8561280f565b8301826128f6565b50505b505050565b600082821c905092915050565b600061297d6000198460080261295f565b1980831691505092915050565b6000612996838361296c565b9150826002028217905092915050565b6129af82611ca6565b67ffffffffffffffff8111156129c8576129c76122a1565b5b6129d282546127c9565b6129dd828285612919565b600060209050601f831160018114612a1057600084156129fe578287015190505b612a08858261298a565b865550612a70565b601f198416612a1e866127fa565b60005b82811015612a4657848901518255600182019150602085019450602081019050612a21565b86831015612a635784890151612a5f601f89168261296c565b8355505b6001600288020188555050505b505050505050565b7f4e42570000000000000000000000000000000000000000000000000000000000600082015250565b6000612aae600383611cb1565b9150612ab982612a78565b602082019050919050565b60006020820190508181036000830152612add81612aa1565b9050919050565b7f4e487b7100000000000000000000000000000000000000000000000000000000600052601160045260246000fd5b6000612b1e82611d36565b9150612b2983611d36565b9250828202612b3781611d36565b91508282048414831517612b4e57612b4d612ae4565b5b5092915050565b7f4e487b7100000000000000000000000000000000000000000000000000000000600052601260045260246000fd5b6000612b8f82611d36565b9150612b9a83611d36565b925082612baa57612ba9612b55565b5b828204905092915050565b600081905092915050565b50565b6000612bd0600083612bb5565b9150612bdb82612bc0565b600082019050919050565b6000612bf182612bc3565b9150819050919050565b7f5446000000000000000000000000000000000000000000000000000000000000600082015250565b6000612c31600283611cb1565b9150612c3c82612bfb565b602082019050919050565b60006020820190508181036000830152612c6081612c24565b9050919050565b6000604082019050612c7c6000830185611c97565b612c896020830184611d40565b9392505050565b6000612c9b82611d36565b91507fffffffffffffffffffffffffffffffffffffffffffffffffffffffffffffffff8203612ccd57612ccc612ae4565b5b600182019050919050565b600082825260208201905092915050565b6000612cf482611f94565b612cfe8185612cd8565b935083602082028501612d1085611fb0565b8060005b85811015612d4c5784840389528151612d2d8582611fc0565b9450612d3883611fd4565b925060208a01995050600181019050612d14565b50829750879550505050505092915050565b6000606082019050612d736000830186611c97565b8181036020830152612d858185612ce9565b9050612d946040830184611d40565b94935050505056fea2646970667358221220cd115369c5499bada48c1ab4437405dac09a7b31cc5f83da2e682d81bbaafaad64736f6c63430008180033","opcodes":"PUSH1 0x80 PUSH1 0x40 MSTORE CALLVALUE DUP1 ISZERO PUSH2 0x10 JUMPI PUSH1 0x0 DUP1 REVERT JUMPDEST POP PUSH2 0x2DD2 DUP1 PUSH2 0x20 PUSH1 0x0 CODECOPY PUSH1 0x0 RETURN INVALID PUSH1 0x80 PUSH1 0x40 MSTORE CALLVALUE DUP1 ISZERO PUSH2 0x10 JUMPI PUSH1 0x0 DUP1 REVERT JUMPDEST POP PUSH1 0x4 CALLDATASIZE LT PUSH2 0x100 JUMPI PUSH1 0x0 CALLDATALOAD PUSH1 0xE0 SHR DUP1 PUSH4 0x8DA5CB5B GT PUSH2 0x97 JUMPI DUP1 PUSH4 0xC151F3C6 GT PUSH2 0x66 JUMPI DUP1 PUSH4 0xC151F3C6 EQ PUSH2 0x2C8 JUMPI DUP1 PUSH4 0xC27A9DD4 EQ PUSH2 0x2E4 JUMPI DUP1 PUSH4 0xEF8DE2D8 EQ PUSH2 0x314 JUMPI DUP1 PUSH4 0xFCAFAE11 EQ PUSH2 0x344 JUMPI PUSH2 0x100 JUMP JUMPDEST DUP1 PUSH4 0x8DA5CB5B EQ PUSH2 0x254 JUMPI DUP1 PUSH4 0x91CA1687 EQ PUSH2 0x272 JUMPI DUP1 PUSH4 0x99374642 EQ PUSH2 0x28E JUMPI DUP1 PUSH4 0xB73C6CE9 EQ PUSH2 0x2BE JUMPI PUSH2 0x100 JUMP JUMPDEST DUP1 PUSH4 0x1ACE87B3 GT PUSH2 0xD3 JUMPI DUP1 PUSH4 0x1ACE87B3 EQ PUSH2 0x1AE JUMPI DUP1 PUSH4 0x1C7AF7A0 EQ PUSH2 0x1CC JUMPI DUP1 PUSH4 0x21BD6693 EQ PUSH2 0x1FC JUMPI DUP1 PUSH4 0x5E586EB1 EQ PUSH2 0x236 JUMPI PUSH2 0x100 JUMP JUMPDEST DUP1 PUSH4 0xBE435BD EQ PUSH2 0x105 JUMPI DUP1 PUSH4 0x1033397B EQ PUSH2 0x13C JUMPI DUP1 PUSH4 0x180AEDF3 EQ PUSH2 0x15A JUMPI DUP1 PUSH4 0x1906B4CE EQ PUSH2 0x190 JUMPI JUMPDEST PUSH1 0x0 DUP1 REVERT JUMPDEST PUSH2 0x11F PUSH1 0x4 DUP1 CALLDATASIZE SUB DUP2 ADD SWAP1 PUSH2 0x11A SWAP2 SWAP1 PUSH2 0x1C6A JUMP JUMPDEST PUSH2 0x374 JUMP JUMPDEST PUSH1 0x40 MLOAD PUSH2 0x133 SWAP9 SWAP8 SWAP7 SWAP6 SWAP5 SWAP4 SWAP3 SWAP2 SWAP1 PUSH2 0x1D6A JUMP JUMPDEST PUSH1 0x40 MLOAD DUP1 SWAP2 SUB SWAP1 RETURN JUMPDEST PUSH2 0x144 PUSH2 0x609 JUMP JUMPDEST PUSH1 0x40 MLOAD PUSH2 0x151 SWAP2 SWAP1 PUSH2 0x1E04 JUMP JUMPDEST PUSH1 0x40 MLOAD DUP1 SWAP2 SUB SWAP1 RETURN JUMPDEST PUSH2 0x174 PUSH1 0x4 DUP1 CALLDATASIZE SUB DUP2 ADD SWAP1 PUSH2 0x16F SWAP2 SWAP1 PUSH2 0x1E4B JUMP JUMPDEST PUSH2 0x60F JUMP JUMPDEST PUSH1 0x40 MLOAD PUSH2 0x187 SWAP8 SWAP7 SWAP6 SWAP5 SWAP4 SWAP3 SWAP2 SWAP1 PUSH2 0x1E94 JUMP JUMPDEST PUSH1 0x40 MLOAD DUP1 SWAP2 SUB SWAP1 RETURN JUMPDEST PUSH2 0x198 PUSH2 0x7BB JUMP JUMPDEST PUSH1 0x40 MLOAD PUSH2 0x1A5 SWAP2 SWAP1 PUSH2 0x1E04 JUMP JUMPDEST PUSH1 0x40 MLOAD DUP1 SWAP2 SUB SWAP1 RETURN JUMPDEST PUSH2 0x1B6 PUSH2 0x7C1 JUMP JUMPDEST PUSH1 0x40 MLOAD PUSH2 0x1C3 SWAP2 SWAP1 PUSH2 0x1F11 JUMP JUMPDEST PUSH1 0x40 MLOAD DUP1 SWAP2 SUB SWAP1 RETURN JUMPDEST PUSH2 0x1E6 PUSH1 0x4 DUP1 CALLDATASIZE SUB DUP2 ADD SWAP1 PUSH2 0x1E1 SWAP2 SWAP1 PUSH2 0x1C6A JUMP JUMPDEST PUSH2 0x7D4 JUMP JUMPDEST PUSH1 0x40 MLOAD PUSH2 0x1F3 SWAP2 SWAP1 PUSH2 0x218C JUMP JUMPDEST PUSH1 0x40 MLOAD DUP1 SWAP2 SUB SWAP1 RETURN JUMPDEST PUSH2 0x216 PUSH1 0x4 DUP1 CALLDATASIZE SUB DUP2 ADD SWAP1 PUSH2 0x211 SWAP2 SWAP1 PUSH2 0x1C6A JUMP JUMPDEST PUSH2 0xC7A JUMP JUMPDEST PUSH1 0x40 MLOAD PUSH2 0x22D SWAP12 SWAP11 SWAP10 SWAP9 SWAP8 SWAP7 SWAP6 SWAP5 SWAP4 SWAP3 SWAP2 SWAP1 PUSH2 0x21AE JUMP JUMPDEST PUSH1 0x40 MLOAD DUP1 SWAP2 SUB SWAP1 RETURN JUMPDEST PUSH2 0x23E PUSH2 0xFA9 JUMP JUMPDEST PUSH1 0x40 MLOAD PUSH2 0x24B SWAP2 SWAP1 PUSH2 0x1E04 JUMP JUMPDEST PUSH1 0x40 MLOAD DUP1 SWAP2 SUB SWAP1 RETURN JUMPDEST PUSH2 0x25C PUSH2 0xFAF JUMP JUMPDEST PUSH1 0x40 MLOAD PUSH2 0x269 SWAP2 SWAP1 PUSH2 0x227C JUMP JUMPDEST PUSH1 0x40 MLOAD DUP1 SWAP2 SUB SWAP1 RETURN JUMPDEST PUSH2 0x28C PUSH1 0x4 DUP1 CALLDATASIZE SUB DUP2 ADD SWAP1 PUSH2 0x287 SWAP2 SWAP1 PUSH2 0x24B2 JUMP JUMPDEST PUSH2 0xFD3 JUMP JUMPDEST STOP JUMPDEST PUSH2 0x2A8 PUSH1 0x4 DUP1 CALLDATASIZE SUB DUP2 ADD SWAP1 PUSH2 0x2A3 SWAP2 SWAP1 PUSH2 0x1C6A JUMP JUMPDEST PUSH2 0x1295 JUMP JUMPDEST PUSH1 0x40 MLOAD PUSH2 0x2B5 SWAP2 SWAP1 PUSH2 0x1F11 JUMP JUMPDEST PUSH1 0x40 MLOAD DUP1 SWAP2 SUB SWAP1 RETURN JUMPDEST PUSH2 0x2C6 PUSH2 0x12B5 JUMP JUMPDEST STOP JUMPDEST PUSH2 0x2E2 PUSH1 0x4 DUP1 CALLDATASIZE SUB DUP2 ADD SWAP1 PUSH2 0x2DD SWAP2 SWAP1 PUSH2 0x25FC JUMP JUMPDEST PUSH2 0x1605 JUMP JUMPDEST STOP JUMPDEST PUSH2 0x2FE PUSH1 0x4 DUP1 CALLDATASIZE SUB DUP2 ADD SWAP1 PUSH2 0x2F9 SWAP2 SWAP1 PUSH2 0x1E4B JUMP JUMPDEST PUSH2 0x1A0E JUMP JUMPDEST PUSH1 0x40 MLOAD PUSH2 0x30B SWAP2 SWAP1 PUSH2 0x227C JUMP JUMPDEST PUSH1 0x40 MLOAD DUP1 SWAP2 SUB SWAP1 RETURN JUMPDEST PUSH2 0x32E PUSH1 0x4 DUP1 CALLDATASIZE SUB DUP2 ADD SWAP1 PUSH2 0x329 SWAP2 SWAP1 PUSH2 0x1C6A JUMP JUMPDEST PUSH2 0x1A4D JUMP JUMPDEST PUSH1 0x40 MLOAD PUSH2 0x33B SWAP2 SWAP1 PUSH2 0x227C JUMP JUMPDEST PUSH1 0x40 MLOAD DUP1 SWAP2 SUB SWAP1 RETURN JUMPDEST PUSH2 0x35E PUSH1 0x4 DUP1 CALLDATASIZE SUB DUP2 ADD SWAP1 PUSH2 0x359 SWAP2 SWAP1 PUSH2 0x275A JUMP JUMPDEST PUSH2 0x1A80 JUMP JUMPDEST PUSH1 0x40 MLOAD PUSH2 0x36B SWAP2 SWAP1 PUSH2 0x1E04 JUMP JUMPDEST PUSH1 0x40 MLOAD DUP1 SWAP2 SUB SWAP1 RETURN JUMPDEST PUSH1 0x6 PUSH1 0x20 MSTORE DUP1 PUSH1 0x0 MSTORE PUSH1 0x40 PUSH1 0x0 KECCAK256 PUSH1 0x0 SWAP2 POP SWAP1 POP DUP1 PUSH1 0x0 ADD PUSH1 0x0 SWAP1 SLOAD SWAP1 PUSH2 0x100 EXP SWAP1 DIV PUSH20 0xFFFFFFFFFFFFFFFFFFFFFFFFFFFFFFFFFFFFFFFF AND SWAP1 DUP1 PUSH1 0x1 ADD DUP1 SLOAD PUSH2 0x3BD SWAP1 PUSH2 0x27C9 JUMP JUMPDEST DUP1 PUSH1 0x1F ADD PUSH1 0x20 DUP1 SWAP2 DIV MUL PUSH1 0x20 ADD PUSH1 0x40 MLOAD SWAP1 DUP2 ADD PUSH1 0x40 MSTORE DUP1 SWAP3 SWAP2 SWAP1 DUP2 DUP2 MSTORE PUSH1 0x20 ADD DUP3 DUP1 SLOAD PUSH2 0x3E9 SWAP1 PUSH2 0x27C9 JUMP JUMPDEST DUP1 ISZERO PUSH2 0x436 JUMPI DUP1 PUSH1 0x1F LT PUSH2 0x40B JUMPI PUSH2 0x100 DUP1 DUP4 SLOAD DIV MUL DUP4 MSTORE SWAP2 PUSH1 0x20 ADD SWAP2 PUSH2 0x436 JUMP JUMPDEST DUP3 ADD SWAP2 SWAP1 PUSH1 0x0 MSTORE PUSH1 0x20 PUSH1 0x0 KECCAK256 SWAP1 JUMPDEST DUP2 SLOAD DUP2 MSTORE SWAP1 PUSH1 0x1 ADD SWAP1 PUSH1 0x20 ADD DUP1 DUP4 GT PUSH2 0x419 JUMPI DUP3 SWAP1 SUB PUSH1 0x1F AND DUP3 ADD SWAP2 JUMPDEST POP POP POP POP POP SWAP1 DUP1 PUSH1 0x2 ADD DUP1 SLOAD PUSH2 0x44B SWAP1 PUSH2 0x27C9 JUMP JUMPDEST DUP1 PUSH1 0x1F ADD PUSH1 0x20 DUP1 SWAP2 DIV MUL PUSH1 0x20 ADD PUSH1 0x40 MLOAD SWAP1 DUP2 ADD PUSH1 0x40 MSTORE DUP1 SWAP3 SWAP2 SWAP1 DUP2 DUP2 MSTORE PUSH1 0x20 ADD DUP3 DUP1 SLOAD PUSH2 0x477 SWAP1 PUSH2 0x27C9 JUMP JUMPDEST DUP1 ISZERO PUSH2 0x4C4 JUMPI DUP1 PUSH1 0x1F LT PUSH2 0x499 JUMPI PUSH2 0x100 DUP1 DUP4 SLOAD DIV MUL DUP4 MSTORE SWAP2 PUSH1 0x20 ADD SWAP2 PUSH2 0x4C4 JUMP JUMPDEST DUP3 ADD SWAP2 SWAP1 PUSH1 0x0 MSTORE PUSH1 0x20 PUSH1 0x0 KECCAK256 SWAP1 JUMPDEST DUP2 SLOAD DUP2 MSTORE SWAP1 PUSH1 0x1 ADD SWAP1 PUSH1 0x20 ADD DUP1 DUP4 GT PUSH2 0x4A7 JUMPI DUP3 SWAP1 SUB PUSH1 0x1F AND DUP3 ADD SWAP2 JUMPDEST POP POP POP POP POP SWAP1 DUP1 PUSH1 0x3 ADD SLOAD SWAP1 DUP1 PUSH1 0x4 ADD DUP1 SLOAD PUSH2 0x4DF SWAP1 PUSH2 0x27C9 JUMP JUMPDEST DUP1 PUSH1 0x1F ADD PUSH1 0x20 DUP1 SWAP2 DIV MUL PUSH1 0x20 ADD PUSH1 0x40 MLOAD SWAP1 DUP2 ADD PUSH1 0x40 MSTORE DUP1 SWAP3 SWAP2 SWAP1 DUP2 DUP2 MSTORE PUSH1 0x20 ADD DUP3 DUP1 SLOAD PUSH2 0x50B SWAP1 PUSH2 0x27C9 JUMP JUMPDEST DUP1 ISZERO PUSH2 0x558 JUMPI DUP1 PUSH1 0x1F LT PUSH2 0x52D JUMPI PUSH2 0x100 DUP1 DUP4 SLOAD DIV MUL DUP4 MSTORE SWAP2 PUSH1 0x20 ADD SWAP2 PUSH2 0x558 JUMP JUMPDEST DUP3 ADD SWAP2 SWAP1 PUSH1 0x0 MSTORE PUSH1 0x20 PUSH1 0x0 KECCAK256 SWAP1 JUMPDEST DUP2 SLOAD DUP2 MSTORE SWAP1 PUSH1 0x1 ADD SWAP1 PUSH1 0x20 ADD DUP1 DUP4 GT PUSH2 0x53B JUMPI DUP3 SWAP1 SUB PUSH1 0x1F AND DUP3 ADD SWAP2 JUMPDEST POP POP POP POP POP SWAP1 DUP1 PUSH1 0x5 ADD DUP1 SLOAD PUSH2 0x56D SWAP1 PUSH2 0x27C9 JUMP JUMPDEST DUP1 PUSH1 0x1F ADD PUSH1 0x20 DUP1 SWAP2 DIV MUL PUSH1 0x20 ADD PUSH1 0x40 MLOAD SWAP1 DUP2 ADD PUSH1 0x40 MSTORE DUP1 SWAP3 SWAP2 SWAP1 DUP2 DUP2 MSTORE PUSH1 0x20 ADD DUP3 DUP1 SLOAD PUSH2 0x599 SWAP1 PUSH2 0x27C9 JUMP JUMPDEST DUP1 ISZERO PUSH2 0x5E6 JUMPI DUP1 PUSH1 0x1F LT PUSH2 0x5BB JUMPI PUSH2 0x100 DUP1 DUP4 SLOAD DIV MUL DUP4 MSTORE SWAP2 PUSH1 0x20 ADD SWAP2 PUSH2 0x5E6 JUMP JUMPDEST DUP3 ADD SWAP2 SWAP1 PUSH1 0x0 MSTORE PUSH1 0x20 PUSH1 0x0 KECCAK256 SWAP1 JUMPDEST DUP2 SLOAD DUP2 MSTORE SWAP1 PUSH1 0x1 ADD SWAP1 PUSH1 0x20 ADD DUP1 DUP4 GT PUSH2 0x5C9 JUMPI DUP3 SWAP1 SUB PUSH1 0x1F AND DUP3 ADD SWAP2 JUMPDEST POP POP POP POP POP SWAP1 DUP1 PUSH1 0x6 ADD PUSH1 0x0 SWAP1 SLOAD SWAP1 PUSH2 0x100 EXP SWAP1 DIV PUSH1 0xFF AND SWAP1 DUP1 PUSH1 0x7 ADD SLOAD SWAP1 POP DUP9 JUMP JUMPDEST PUSH1 0x3 SLOAD DUP2 JUMP JUMPDEST PUSH1 0x4 PUSH1 0x20 MSTORE DUP1 PUSH1 0x0 MSTORE PUSH1 0x40 PUSH1 0x0 KECCAK256 PUSH1 0x0 SWAP2 POP SWAP1 POP DUP1 PUSH1 0x0 ADD PUSH1 0x0 SWAP1 SLOAD SWAP1 PUSH2 0x100 EXP SWAP1 DIV PUSH1 0xFF AND SWAP1 DUP1 PUSH1 0x0 ADD PUSH1 0x1 SWAP1 SLOAD SWAP1 PUSH2 0x100 EXP SWAP1 DIV PUSH20 0xFFFFFFFFFFFFFFFFFFFFFFFFFFFFFFFFFFFFFFFF AND SWAP1 DUP1 PUSH1 0x1 ADD DUP1 SLOAD PUSH2 0x66B SWAP1 PUSH2 0x27C9 JUMP JUMPDEST DUP1 PUSH1 0x1F ADD PUSH1 0x20 DUP1 SWAP2 DIV MUL PUSH1 0x20 ADD PUSH1 0x40 MLOAD SWAP1 DUP2 ADD PUSH1 0x40 MSTORE DUP1 SWAP3 SWAP2 SWAP1 DUP2 DUP2 MSTORE PUSH1 0x20 ADD DUP3 DUP1 SLOAD PUSH2 0x697 SWAP1 PUSH2 0x27C9 JUMP JUMPDEST DUP1 ISZERO PUSH2 0x6E4 JUMPI DUP1 PUSH1 0x1F LT PUSH2 0x6B9 JUMPI PUSH2 0x100 DUP1 DUP4 SLOAD DIV MUL DUP4 MSTORE SWAP2 PUSH1 0x20 ADD SWAP2 PUSH2 0x6E4 JUMP JUMPDEST DUP3 ADD SWAP2 SWAP1 PUSH1 0x0 MSTORE PUSH1 0x20 PUSH1 0x0 KECCAK256 SWAP1 JUMPDEST DUP2 SLOAD DUP2 MSTORE SWAP1 PUSH1 0x1 ADD SWAP1 PUSH1 0x20 ADD DUP1 DUP4 GT PUSH2 0x6C7 JUMPI DUP3 SWAP1 SUB PUSH1 0x1F AND DUP3 ADD SWAP2 JUMPDEST POP POP POP POP POP SWAP1 DUP1 PUSH1 0x2 ADD DUP1 SLOAD PUSH2 0x6F9 SWAP1 PUSH2 0x27C9 JUMP JUMPDEST DUP1 PUSH1 0x1F ADD PUSH1 0x20 DUP1 SWAP2 DIV MUL PUSH1 0x20 ADD PUSH1 0x40 MLOAD SWAP1 DUP2 ADD PUSH1 0x40 MSTORE DUP1 SWAP3 SWAP2 SWAP1 DUP2 DUP2 MSTORE PUSH1 0x20 ADD DUP3 DUP1 SLOAD PUSH2 0x725 SWAP1 PUSH2 0x27C9 JUMP JUMPDEST DUP1 ISZERO PUSH2 0x772 JUMPI DUP1 PUSH1 0x1F LT PUSH2 0x747 JUMPI PUSH2 0x100 DUP1 DUP4 SLOAD DIV MUL DUP4 MSTORE SWAP2 PUSH1 0x20 ADD SWAP2 PUSH2 0x772 JUMP JUMPDEST DUP3 ADD SWAP2 SWAP1 PUSH1 0x0 MSTORE PUSH1 0x20 PUSH1 0x0 KECCAK256 SWAP1 JUMPDEST DUP2 SLOAD DUP2 MSTORE SWAP1 PUSH1 0x1 ADD SWAP1 PUSH1 0x20 ADD DUP1 DUP4 GT PUSH2 0x755 JUMPI DUP3 SWAP1 SUB PUSH1 0x1F AND DUP3 ADD SWAP2 JUMPDEST POP POP POP POP POP SWAP1 DUP1 PUSH1 0x3 ADD SLOAD SWAP1 DUP1 PUSH1 0x4 ADD PUSH1 0x0 SWAP1 SLOAD SWAP1 PUSH2 0x100 EXP SWAP1 DIV PUSH1 0xFF AND SWAP1 DUP1 PUSH1 0x6 ADD PUSH1 0x0 SWAP1 SLOAD SWAP1 PUSH2 0x100 EXP SWAP1 DIV PUSH20 0xFFFFFFFFFFFFFFFFFFFFFFFFFFFFFFFFFFFFFFFF AND SWAP1 POP DUP8 JUMP JUMPDEST PUSH1 0x2 SLOAD DUP2 JUMP JUMPDEST PUSH1 0x0 PUSH1 0x14 SWAP1 SLOAD SWAP1 PUSH2 0x100 EXP SWAP1 DIV PUSH1 0xFF AND DUP2 JUMP JUMPDEST PUSH2 0x7DC PUSH2 0x1AA5 JUMP JUMPDEST PUSH1 0x5 PUSH1 0x0 DUP4 PUSH20 0xFFFFFFFFFFFFFFFFFFFFFFFFFFFFFFFFFFFFFFFF AND PUSH20 0xFFFFFFFFFFFFFFFFFFFFFFFFFFFFFFFFFFFFFFFF AND DUP2 MSTORE PUSH1 0x20 ADD SWAP1 DUP2 MSTORE PUSH1 0x20 ADD PUSH1 0x0 KECCAK256 PUSH1 0x40 MLOAD DUP1 PUSH2 0x180 ADD PUSH1 0x40 MSTORE SWAP1 DUP2 PUSH1 0x0 DUP3 ADD PUSH1 0x0 SWAP1 SLOAD SWAP1 PUSH2 0x100 EXP SWAP1 DIV PUSH20 0xFFFFFFFFFFFFFFFFFFFFFFFFFFFFFFFFFFFFFFFF AND PUSH20 0xFFFFFFFFFFFFFFFFFFFFFFFFFFFFFFFFFFFFFFFF AND PUSH20 0xFFFFFFFFFFFFFFFFFFFFFFFFFFFFFFFFFFFFFFFF AND DUP2 MSTORE PUSH1 0x20 ADD PUSH1 0x1 DUP3 ADD DUP1 SLOAD PUSH2 0x88D SWAP1 PUSH2 0x27C9 JUMP JUMPDEST DUP1 PUSH1 0x1F ADD PUSH1 0x20 DUP1 SWAP2 DIV MUL PUSH1 0x20 ADD PUSH1 0x40 MLOAD SWAP1 DUP2 ADD PUSH1 0x40 MSTORE DUP1 SWAP3 SWAP2 SWAP1 DUP2 DUP2 MSTORE PUSH1 0x20 ADD DUP3 DUP1 SLOAD PUSH2 0x8B9 SWAP1 PUSH2 0x27C9 JUMP JUMPDEST DUP1 ISZERO PUSH2 0x906 JUMPI DUP1 PUSH1 0x1F LT PUSH2 0x8DB JUMPI PUSH2 0x100 DUP1 DUP4 SLOAD DIV MUL DUP4 MSTORE SWAP2 PUSH1 0x20 ADD SWAP2 PUSH2 0x906 JUMP JUMPDEST DUP3 ADD SWAP2 SWAP1 PUSH1 0x0 MSTORE PUSH1 0x20 PUSH1 0x0 KECCAK256 SWAP1 JUMPDEST DUP2 SLOAD DUP2 MSTORE SWAP1 PUSH1 0x1 ADD SWAP1 PUSH1 0x20 ADD DUP1 DUP4 GT PUSH2 0x8E9 JUMPI DUP3 SWAP1 SUB PUSH1 0x1F AND DUP3 ADD SWAP2 JUMPDEST POP POP POP POP POP DUP2 MSTORE PUSH1 0x20 ADD PUSH1 0x2 DUP3 ADD DUP1 SLOAD PUSH2 0x91F SWAP1 PUSH2 0x27C9 JUMP JUMPDEST DUP1 PUSH1 0x1F ADD PUSH1 0x20 DUP1 SWAP2 DIV MUL PUSH1 0x20 ADD PUSH1 0x40 MLOAD SWAP1 DUP2 ADD PUSH1 0x40 MSTORE DUP1 SWAP3 SWAP2 SWAP1 DUP2 DUP2 MSTORE PUSH1 0x20 ADD DUP3 DUP1 SLOAD PUSH2 0x94B SWAP1 PUSH2 0x27C9 JUMP JUMPDEST DUP1 ISZERO PUSH2 0x998 JUMPI DUP1 PUSH1 0x1F LT PUSH2 0x96D JUMPI PUSH2 0x100 DUP1 DUP4 SLOAD DIV MUL DUP4 MSTORE SWAP2 PUSH1 0x20 ADD SWAP2 PUSH2 0x998 JUMP JUMPDEST DUP3 ADD SWAP2 SWAP1 PUSH1 0x0 MSTORE PUSH1 0x20 PUSH1 0x0 KECCAK256 SWAP1 JUMPDEST DUP2 SLOAD DUP2 MSTORE SWAP1 PUSH1 0x1 ADD SWAP1 PUSH1 0x20 ADD DUP1 DUP4 GT PUSH2 0x97B JUMPI DUP3 SWAP1 SUB PUSH1 0x1F AND DUP3 ADD SWAP2 JUMPDEST POP POP POP POP POP DUP2 MSTORE PUSH1 0x20 ADD PUSH1 0x3 DUP3 ADD SLOAD DUP2 MSTORE PUSH1 0x20 ADD PUSH1 0x4 DUP3 ADD DUP1 SLOAD PUSH2 0x9BB SWAP1 PUSH2 0x27C9 JUMP JUMPDEST DUP1 PUSH1 0x1F ADD PUSH1 0x20 DUP1 SWAP2 DIV MUL PUSH1 0x20 ADD PUSH1 0x40 MLOAD SWAP1 DUP2 ADD PUSH1 0x40 MSTORE DUP1 SWAP3 SWAP2 SWAP1 DUP2 DUP2 MSTORE PUSH1 0x20 ADD DUP3 DUP1 SLOAD PUSH2 0x9E7 SWAP1 PUSH2 0x27C9 JUMP JUMPDEST DUP1 ISZERO PUSH2 0xA34 JUMPI DUP1 PUSH1 0x1F LT PUSH2 0xA09 JUMPI PUSH2 0x100 DUP1 DUP4 SLOAD DIV MUL DUP4 MSTORE SWAP2 PUSH1 0x20 ADD SWAP2 PUSH2 0xA34 JUMP JUMPDEST DUP3 ADD SWAP2 SWAP1 PUSH1 0x0 MSTORE PUSH1 0x20 PUSH1 0x0 KECCAK256 SWAP1 JUMPDEST DUP2 SLOAD DUP2 MSTORE SWAP1 PUSH1 0x1 ADD SWAP1 PUSH1 0x20 ADD DUP1 DUP4 GT PUSH2 0xA17 JUMPI DUP3 SWAP1 SUB PUSH1 0x1F AND DUP3 ADD SWAP2 JUMPDEST POP POP POP POP POP DUP2 MSTORE PUSH1 0x20 ADD PUSH1 0x5 DUP3 ADD DUP1 SLOAD PUSH2 0xA4D SWAP1 PUSH2 0x27C9 JUMP JUMPDEST DUP1 PUSH1 0x1F ADD PUSH1 0x20 DUP1 SWAP2 DIV MUL PUSH1 0x20 ADD PUSH1 0x40 MLOAD SWAP1 DUP2 ADD PUSH1 0x40 MSTORE DUP1 SWAP3 SWAP2 SWAP1 DUP2 DUP2 MSTORE PUSH1 0x20 ADD DUP3 DUP1 SLOAD PUSH2 0xA79 SWAP1 PUSH2 0x27C9 JUMP JUMPDEST DUP1 ISZERO PUSH2 0xAC6 JUMPI DUP1 PUSH1 0x1F LT PUSH2 0xA9B JUMPI PUSH2 0x100 DUP1 DUP4 SLOAD DIV MUL DUP4 MSTORE SWAP2 PUSH1 0x20 ADD SWAP2 PUSH2 0xAC6 JUMP JUMPDEST DUP3 ADD SWAP2 SWAP1 PUSH1 0x0 MSTORE PUSH1 0x20 PUSH1 0x0 KECCAK256 SWAP1 JUMPDEST DUP2 SLOAD DUP2 MSTORE SWAP1 PUSH1 0x1 ADD SWAP1 PUSH1 0x20 ADD DUP1 DUP4 GT PUSH2 0xAA9 JUMPI DUP3 SWAP1 SUB PUSH1 0x1F AND DUP3 ADD SWAP2 JUMPDEST POP POP POP POP POP DUP2 MSTORE PUSH1 0x20 ADD PUSH1 0x6 DUP3 ADD DUP1 SLOAD PUSH2 0xADF SWAP1 PUSH2 0x27C9 JUMP JUMPDEST DUP1 PUSH1 0x1F ADD PUSH1 0x20 DUP1 SWAP2 DIV MUL PUSH1 0x20 ADD PUSH1 0x40 MLOAD SWAP1 DUP2 ADD PUSH1 0x40 MSTORE DUP1 SWAP3 SWAP2 SWAP1 DUP2 DUP2 MSTORE PUSH1 0x20 ADD DUP3 DUP1 SLOAD PUSH2 0xB0B SWAP1 PUSH2 0x27C9 JUMP JUMPDEST DUP1 ISZERO PUSH2 0xB58 JUMPI DUP1 PUSH1 0x1F LT PUSH2 0xB2D JUMPI PUSH2 0x100 DUP1 DUP4 SLOAD DIV MUL DUP4 MSTORE SWAP2 PUSH1 0x20 ADD SWAP2 PUSH2 0xB58 JUMP JUMPDEST DUP3 ADD SWAP2 SWAP1 PUSH1 0x0 MSTORE PUSH1 0x20 PUSH1 0x0 KECCAK256 SWAP1 JUMPDEST DUP2 SLOAD DUP2 MSTORE SWAP1 PUSH1 0x1 ADD SWAP1 PUSH1 0x20 ADD DUP1 DUP4 GT PUSH2 0xB3B JUMPI DUP3 SWAP1 SUB PUSH1 0x1F AND DUP3 ADD SWAP2 JUMPDEST POP POP POP POP POP DUP2 MSTORE PUSH1 0x20 ADD PUSH1 0x7 DUP3 ADD DUP1 SLOAD DUP1 PUSH1 0x20 MUL PUSH1 0x20 ADD PUSH1 0x40 MLOAD SWAP1 DUP2 ADD PUSH1 0x40 MSTORE DUP1 SWAP3 SWAP2 SWAP1 DUP2 DUP2 MSTORE PUSH1 0x20 ADD PUSH1 0x0 SWAP1 JUMPDEST DUP3 DUP3 LT ISZERO PUSH2 0xC32 JUMPI DUP4 DUP3 SWAP1 PUSH1 0x0 MSTORE PUSH1 0x20 PUSH1 0x0 KECCAK256 ADD DUP1 SLOAD PUSH2 0xBA5 SWAP1 PUSH2 0x27C9 JUMP JUMPDEST DUP1 PUSH1 0x1F ADD PUSH1 0x20 DUP1 SWAP2 DIV MUL PUSH1 0x20 ADD PUSH1 0x40 MLOAD SWAP1 DUP2 ADD PUSH1 0x40 MSTORE DUP1 SWAP3 SWAP2 SWAP1 DUP2 DUP2 MSTORE PUSH1 0x20 ADD DUP3 DUP1 SLOAD PUSH2 0xBD1 SWAP1 PUSH2 0x27C9 JUMP JUMPDEST DUP1 ISZERO PUSH2 0xC1E JUMPI DUP1 PUSH1 0x1F LT PUSH2 0xBF3 JUMPI PUSH2 0x100 DUP1 DUP4 SLOAD DIV MUL DUP4 MSTORE SWAP2 PUSH1 0x20 ADD SWAP2 PUSH2 0xC1E JUMP JUMPDEST DUP3 ADD SWAP2 SWAP1 PUSH1 0x0 MSTORE PUSH1 0x20 PUSH1 0x0 KECCAK256 SWAP1 JUMPDEST DUP2 SLOAD DUP2 MSTORE SWAP1 PUSH1 0x1 ADD SWAP1 PUSH1 0x20 ADD DUP1 DUP4 GT PUSH2 0xC01 JUMPI DUP3 SWAP1 SUB PUSH1 0x1F AND DUP3 ADD SWAP2 JUMPDEST POP POP POP POP POP DUP2 MSTORE PUSH1 0x20 ADD SWAP1 PUSH1 0x1 ADD SWAP1 PUSH2 0xB86 JUMP JUMPDEST POP POP POP POP DUP2 MSTORE PUSH1 0x20 ADD PUSH1 0x8 DUP3 ADD SLOAD DUP2 MSTORE PUSH1 0x20 ADD PUSH1 0x9 DUP3 ADD PUSH1 0x0 SWAP1 SLOAD SWAP1 PUSH2 0x100 EXP SWAP1 DIV PUSH1 0xFF AND ISZERO ISZERO ISZERO ISZERO DUP2 MSTORE PUSH1 0x20 ADD PUSH1 0xA DUP3 ADD SLOAD DUP2 MSTORE PUSH1 0x20 ADD PUSH1 0xB DUP3 ADD SLOAD DUP2 MSTORE POP POP SWAP1 POP SWAP2 SWAP1 POP JUMP JUMPDEST PUSH1 0x5 PUSH1 0x20 MSTORE DUP1 PUSH1 0x0 MSTORE PUSH1 0x40 PUSH1 0x0 KECCAK256 PUSH1 0x0 SWAP2 POP SWAP1 POP DUP1 PUSH1 0x0 ADD PUSH1 0x0 SWAP1 SLOAD SWAP1 PUSH2 0x100 EXP SWAP1 DIV PUSH20 0xFFFFFFFFFFFFFFFFFFFFFFFFFFFFFFFFFFFFFFFF AND SWAP1 DUP1 PUSH1 0x1 ADD DUP1 SLOAD PUSH2 0xCC3 SWAP1 PUSH2 0x27C9 JUMP JUMPDEST DUP1 PUSH1 0x1F ADD PUSH1 0x20 DUP1 SWAP2 DIV MUL PUSH1 0x20 ADD PUSH1 0x40 MLOAD SWAP1 DUP2 ADD PUSH1 0x40 MSTORE DUP1 SWAP3 SWAP2 SWAP1 DUP2 DUP2 MSTORE PUSH1 0x20 ADD DUP3 DUP1 SLOAD PUSH2 0xCEF SWAP1 PUSH2 0x27C9 JUMP JUMPDEST DUP1 ISZERO PUSH2 0xD3C JUMPI DUP1 PUSH1 0x1F LT PUSH2 0xD11 JUMPI PUSH2 0x100 DUP1 DUP4 SLOAD DIV MUL DUP4 MSTORE SWAP2 PUSH1 0x20 ADD SWAP2 PUSH2 0xD3C JUMP JUMPDEST DUP3 ADD SWAP2 SWAP1 PUSH1 0x0 MSTORE PUSH1 0x20 PUSH1 0x0 KECCAK256 SWAP1 JUMPDEST DUP2 SLOAD DUP2 MSTORE SWAP1 PUSH1 0x1 ADD SWAP1 PUSH1 0x20 ADD DUP1 DUP4 GT PUSH2 0xD1F JUMPI DUP3 SWAP1 SUB PUSH1 0x1F AND DUP3 ADD SWAP2 JUMPDEST POP POP POP POP POP SWAP1 DUP1 PUSH1 0x2 ADD DUP1 SLOAD PUSH2 0xD51 SWAP1 PUSH2 0x27C9 JUMP JUMPDEST DUP1 PUSH1 0x1F ADD PUSH1 0x20 DUP1 SWAP2 DIV MUL PUSH1 0x20 ADD PUSH1 0x40 MLOAD SWAP1 DUP2 ADD PUSH1 0x40 MSTORE DUP1 SWAP3 SWAP2 SWAP1 DUP2 DUP2 MSTORE PUSH1 0x20 ADD DUP3 DUP1 SLOAD PUSH2 0xD7D SWAP1 PUSH2 0x27C9 JUMP JUMPDEST DUP1 ISZERO PUSH2 0xDCA JUMPI DUP1 PUSH1 0x1F LT PUSH2 0xD9F JUMPI PUSH2 0x100 DUP1 DUP4 SLOAD DIV MUL DUP4 MSTORE SWAP2 PUSH1 0x20 ADD SWAP2 PUSH2 0xDCA JUMP JUMPDEST DUP3 ADD SWAP2 SWAP1 PUSH1 0x0 MSTORE PUSH1 0x20 PUSH1 0x0 KECCAK256 SWAP1 JUMPDEST DUP2 SLOAD DUP2 MSTORE SWAP1 PUSH1 0x1 ADD SWAP1 PUSH1 0x20 ADD DUP1 DUP4 GT PUSH2 0xDAD JUMPI DUP3 SWAP1 SUB PUSH1 0x1F AND DUP3 ADD SWAP2 JUMPDEST POP POP POP POP POP SWAP1 DUP1 PUSH1 0x3 ADD SLOAD SWAP1 DUP1 PUSH1 0x4 ADD DUP1 SLOAD PUSH2 0xDE5 SWAP1 PUSH2 0x27C9 JUMP JUMPDEST DUP1 PUSH1 0x1F ADD PUSH1 0x20 DUP1 SWAP2 DIV MUL PUSH1 0x20 ADD PUSH1 0x40 MLOAD SWAP1 DUP2 ADD PUSH1 0x40 MSTORE DUP1 SWAP3 SWAP2 SWAP1 DUP2 DUP2 MSTORE PUSH1 0x20 ADD DUP3 DUP1 SLOAD PUSH2 0xE11 SWAP1 PUSH2 0x27C9 JUMP JUMPDEST DUP1 ISZERO PUSH2 0xE5E JUMPI DUP1 PUSH1 0x1F LT PUSH2 0xE33 JUMPI PUSH2 0x100 DUP1 DUP4 SLOAD DIV MUL DUP4 MSTORE SWAP2 PUSH1 0x20 ADD SWAP2 PUSH2 0xE5E JUMP JUMPDEST DUP3 ADD SWAP2 SWAP1 PUSH1 0x0 MSTORE PUSH1 0x20 PUSH1 0x0 KECCAK256 SWAP1 JUMPDEST DUP2 SLOAD DUP2 MSTORE SWAP1 PUSH1 0x1 ADD SWAP1 PUSH1 0x20 ADD DUP1 DUP4 GT PUSH2 0xE41 JUMPI DUP3 SWAP1 SUB PUSH1 0x1F AND DUP3 ADD SWAP2 JUMPDEST POP POP POP POP POP SWAP1 DUP1 PUSH1 0x5 ADD DUP1 SLOAD PUSH2 0xE73 SWAP1 PUSH2 0x27C9 JUMP JUMPDEST DUP1 PUSH1 0x1F ADD PUSH1 0x20 DUP1 SWAP2 DIV MUL PUSH1 0x20 ADD PUSH1 0x40 MLOAD SWAP1 DUP2 ADD PUSH1 0x40 MSTORE DUP1 SWAP3 SWAP2 SWAP1 DUP2 DUP2 MSTORE PUSH1 0x20 ADD DUP3 DUP1 SLOAD PUSH2 0xE9F SWAP1 PUSH2 0x27C9 JUMP JUMPDEST DUP1 ISZERO PUSH2 0xEEC JUMPI DUP1 PUSH1 0x1F LT PUSH2 0xEC1 JUMPI PUSH2 0x100 DUP1 DUP4 SLOAD DIV MUL DUP4 MSTORE SWAP2 PUSH1 0x20 ADD SWAP2 PUSH2 0xEEC JUMP JUMPDEST DUP3 ADD SWAP2 SWAP1 PUSH1 0x0 MSTORE PUSH1 0x20 PUSH1 0x0 KECCAK256 SWAP1 JUMPDEST DUP2 SLOAD DUP2 MSTORE SWAP1 PUSH1 0x1 ADD SWAP1 PUSH1 0x20 ADD DUP1 DUP4 GT PUSH2 0xECF JUMPI DUP3 SWAP1 SUB PUSH1 0x1F AND DUP3 ADD SWAP2 JUMPDEST POP POP POP POP POP SWAP1 DUP1 PUSH1 0x6 ADD DUP1 SLOAD PUSH2 0xF01 SWAP1 PUSH2 0x27C9 JUMP JUMPDEST DUP1 PUSH1 0x1F ADD PUSH1 0x20 DUP1 SWAP2 DIV MUL PUSH1 0x20 ADD PUSH1 0x40 MLOAD SWAP1 DUP2 ADD PUSH1 0x40 MSTORE DUP1 SWAP3 SWAP2 SWAP1 DUP2 DUP2 MSTORE PUSH1 0x20 ADD DUP3 DUP1 SLOAD PUSH2 0xF2D SWAP1 PUSH2 0x27C9 JUMP JUMPDEST DUP1 ISZERO PUSH2 0xF7A JUMPI DUP1 PUSH1 0x1F LT PUSH2 0xF4F JUMPI PUSH2 0x100 DUP1 DUP4 SLOAD DIV MUL DUP4 MSTORE SWAP2 PUSH1 0x20 ADD SWAP2 PUSH2 0xF7A JUMP JUMPDEST DUP3 ADD SWAP2 SWAP1 PUSH1 0x0 MSTORE PUSH1 0x20 PUSH1 0x0 KECCAK256 SWAP1 JUMPDEST DUP2 SLOAD DUP2 MSTORE SWAP1 PUSH1 0x1 ADD SWAP1 PUSH1 0x20 ADD DUP1 DUP4 GT PUSH2 0xF5D JUMPI DUP3 SWAP1 SUB PUSH1 0x1F AND DUP3 ADD SWAP2 JUMPDEST POP POP POP POP POP SWAP1 DUP1 PUSH1 0x8 ADD SLOAD SWAP1 DUP1 PUSH1 0x9 ADD PUSH1 0x0 SWAP1 SLOAD SWAP1 PUSH2 0x100 EXP SWAP1 DIV PUSH1 0xFF AND SWAP1 DUP1 PUSH1 0xA ADD SLOAD SWAP1 DUP1 PUSH1 0xB ADD SLOAD SWAP1 POP DUP12 JUMP JUMPDEST PUSH1 0x1 SLOAD DUP2 JUMP JUMPDEST PUSH1 0x0 DUP1 SLOAD SWAP1 PUSH2 0x100 EXP SWAP1 DIV PUSH20 0xFFFFFFFFFFFFFFFFFFFFFFFFFFFFFFFFFFFFFFFF AND DUP2 JUMP JUMPDEST PUSH1 0x0 PUSH1 0xA PUSH1 0x0 CALLER PUSH20 0xFFFFFFFFFFFFFFFFFFFFFFFFFFFFFFFFFFFFFFFF AND PUSH20 0xFFFFFFFFFFFFFFFFFFFFFFFFFFFFFFFFFFFFFFFF AND DUP2 MSTORE PUSH1 0x20 ADD SWAP1 DUP2 MSTORE PUSH1 0x20 ADD PUSH1 0x0 KECCAK256 PUSH1 0x0 SWAP1 SLOAD SWAP1 PUSH2 0x100 EXP SWAP1 DIV PUSH20 0xFFFFFFFFFFFFFFFFFFFFFFFFFFFFFFFFFFFFFFFF AND SWAP1 POP PUSH1 0x2 PUSH1 0x8 PUSH1 0x0 CALLER PUSH20 0xFFFFFFFFFFFFFFFFFFFFFFFFFFFFFFFFFFFFFFFF AND PUSH20 0xFFFFFFFFFFFFFFFFFFFFFFFFFFFFFFFFFFFFFFFF AND DUP2 MSTORE PUSH1 0x20 ADD SWAP1 DUP2 MSTORE PUSH1 0x20 ADD PUSH1 0x0 KECCAK256 PUSH1 0x0 SWAP1 SLOAD SWAP1 PUSH2 0x100 EXP SWAP1 DIV PUSH1 0xFF AND PUSH1 0xFF AND EQ ISZERO DUP1 ISZERO PUSH2 0x10E7 JUMPI POP PUSH1 0x2 PUSH1 0x8 PUSH1 0x0 DUP4 PUSH20 0xFFFFFFFFFFFFFFFFFFFFFFFFFFFFFFFFFFFFFFFF AND PUSH20 0xFFFFFFFFFFFFFFFFFFFFFFFFFFFFFFFFFFFFFFFF AND DUP2 MSTORE PUSH1 0x20 ADD SWAP1 DUP2 MSTORE PUSH1 0x20 ADD PUSH1 0x0 KECCAK256 PUSH1 0x0 SWAP1 SLOAD SWAP1 PUSH2 0x100 EXP SWAP1 DIV PUSH1 0xFF AND PUSH1 0xFF AND EQ ISZERO JUMPDEST ISZERO PUSH2 0x111E JUMPI PUSH1 0x40 MLOAD PUSH32 0xC23CF1F400000000000000000000000000000000000000000000000000000000 DUP2 MSTORE PUSH1 0x4 ADD PUSH1 0x40 MLOAD DUP1 SWAP2 SUB SWAP1 REVERT JUMPDEST PUSH1 0x0 DUP9 MLOAD EQ DUP1 PUSH2 0x112F JUMPI POP PUSH1 0x0 DUP8 MLOAD EQ JUMPDEST ISZERO PUSH2 0x1166 JUMPI PUSH1 0x40 MLOAD PUSH32 0xBD0FEBC100000000000000000000000000000000000000000000000000000000 DUP2 MSTORE PUSH1 0x4 ADD PUSH1 0x40 MLOAD DUP1 SWAP2 SUB SWAP1 REVERT JUMPDEST PUSH1 0x0 PUSH1 0xA PUSH1 0x0 CALLER PUSH20 0xFFFFFFFFFFFFFFFFFFFFFFFFFFFFFFFFFFFFFFFF AND PUSH20 0xFFFFFFFFFFFFFFFFFFFFFFFFFFFFFFFFFFFFFFFF AND DUP2 MSTORE PUSH1 0x20 ADD SWAP1 DUP2 MSTORE PUSH1 0x20 ADD PUSH1 0x0 KECCAK256 PUSH1 0x0 SWAP1 SLOAD SWAP1 PUSH2 0x100 EXP SWAP1 DIV PUSH20 0xFFFFFFFFFFFFFFFFFFFFFFFFFFFFFFFFFFFFFFFF AND SWAP1 POP PUSH1 0x0 PUSH1 0x5 PUSH1 0x0 DUP4 PUSH20 0xFFFFFFFFFFFFFFFFFFFFFFFFFFFFFFFFFFFFFFFF AND PUSH20 0xFFFFFFFFFFFFFFFFFFFFFFFFFFFFFFFFFFFFFFFF AND DUP2 MSTORE PUSH1 0x20 ADD SWAP1 DUP2 MSTORE PUSH1 0x20 ADD PUSH1 0x0 KECCAK256 SWAP1 POP DUP10 DUP2 PUSH1 0x1 ADD SWAP1 DUP2 PUSH2 0x121E SWAP2 SWAP1 PUSH2 0x29A6 JUMP JUMPDEST POP DUP9 DUP2 PUSH1 0x2 ADD SWAP1 DUP2 PUSH2 0x1230 SWAP2 SWAP1 PUSH2 0x29A6 JUMP JUMPDEST POP DUP8 DUP2 PUSH1 0x4 ADD SWAP1 DUP2 PUSH2 0x1242 SWAP2 SWAP1 PUSH2 0x29A6 JUMP JUMPDEST POP DUP7 DUP2 PUSH1 0x5 ADD SWAP1 DUP2 PUSH2 0x1254 SWAP2 SWAP1 PUSH2 0x29A6 JUMP JUMPDEST POP DUP6 DUP2 PUSH1 0x6 ADD SWAP1 DUP2 PUSH2 0x1266 SWAP2 SWAP1 PUSH2 0x29A6 JUMP JUMPDEST POP DUP5 DUP2 PUSH1 0x7 ADD SWAP1 DUP1 MLOAD SWAP1 PUSH1 0x20 ADD SWAP1 PUSH2 0x127F SWAP3 SWAP2 SWAP1 PUSH2 0x1B1E JUMP JUMPDEST POP DUP4 DUP2 PUSH1 0xB ADD DUP2 SWAP1 SSTORE POP POP POP POP POP POP POP POP POP POP POP JUMP JUMPDEST PUSH1 0x8 PUSH1 0x20 MSTORE DUP1 PUSH1 0x0 MSTORE PUSH1 0x40 PUSH1 0x0 KECCAK256 PUSH1 0x0 SWAP2 POP SLOAD SWAP1 PUSH2 0x100 EXP SWAP1 DIV PUSH1 0xFF AND DUP2 JUMP JUMPDEST PUSH1 0x0 PUSH1 0xA PUSH1 0x0 CALLER PUSH20 0xFFFFFFFFFFFFFFFFFFFFFFFFFFFFFFFFFFFFFFFF AND PUSH20 0xFFFFFFFFFFFFFFFFFFFFFFFFFFFFFFFFFFFFFFFF AND DUP2 MSTORE PUSH1 0x20 ADD SWAP1 DUP2 MSTORE PUSH1 0x20 ADD PUSH1 0x0 KECCAK256 PUSH1 0x0 SWAP1 SLOAD SWAP1 PUSH2 0x100 EXP SWAP1 DIV PUSH20 0xFFFFFFFFFFFFFFFFFFFFFFFFFFFFFFFFFFFFFFFF AND SWAP1 POP PUSH1 0x2 PUSH1 0x8 PUSH1 0x0 CALLER PUSH20 0xFFFFFFFFFFFFFFFFFFFFFFFFFFFFFFFFFFFFFFFF AND PUSH20 0xFFFFFFFFFFFFFFFFFFFFFFFFFFFFFFFFFFFFFFFF AND DUP2 MSTORE PUSH1 0x20 ADD SWAP1 DUP2 MSTORE PUSH1 0x20 ADD PUSH1 0x0 KECCAK256 PUSH1 0x0 SWAP1 SLOAD SWAP1 PUSH2 0x100 EXP SWAP1 DIV PUSH1 0xFF AND PUSH1 0xFF AND EQ ISZERO DUP1 ISZERO PUSH2 0x13C9 JUMPI POP PUSH1 0x2 PUSH1 0x8 PUSH1 0x0 DUP4 PUSH20 0xFFFFFFFFFFFFFFFFFFFFFFFFFFFFFFFFFFFFFFFF AND PUSH20 0xFFFFFFFFFFFFFFFFFFFFFFFFFFFFFFFFFFFFFFFF AND DUP2 MSTORE PUSH1 0x20 ADD SWAP1 DUP2 MSTORE PUSH1 0x20 ADD PUSH1 0x0 KECCAK256 PUSH1 0x0 SWAP1 SLOAD SWAP1 PUSH2 0x100 EXP SWAP1 DIV PUSH1 0xFF AND PUSH1 0xFF AND EQ ISZERO JUMPDEST ISZERO PUSH2 0x1400 JUMPI PUSH1 0x40 MLOAD PUSH32 0xC23CF1F400000000000000000000000000000000000000000000000000000000 DUP2 MSTORE PUSH1 0x4 ADD PUSH1 0x40 MLOAD DUP1 SWAP2 SUB SWAP1 REVERT JUMPDEST PUSH1 0x0 PUSH1 0xA PUSH1 0x0 CALLER PUSH20 0xFFFFFFFFFFFFFFFFFFFFFFFFFFFFFFFFFFFFFFFF AND PUSH20 0xFFFFFFFFFFFFFFFFFFFFFFFFFFFFFFFFFFFFFFFF AND DUP2 MSTORE PUSH1 0x20 ADD SWAP1 DUP2 MSTORE PUSH1 0x20 ADD PUSH1 0x0 KECCAK256 PUSH1 0x0 SWAP1 SLOAD SWAP1 PUSH2 0x100 EXP SWAP1 DIV PUSH20 0xFFFFFFFFFFFFFFFFFFFFFFFFFFFFFFFFFFFFFFFF AND SWAP1 POP PUSH1 0x0 PUSH1 0x5 PUSH1 0x0 DUP4 PUSH20 0xFFFFFFFFFFFFFFFFFFFFFFFFFFFFFFFFFFFFFFFF AND PUSH20 0xFFFFFFFFFFFFFFFFFFFFFFFFFFFFFFFFFFFFFFFF AND DUP2 MSTORE PUSH1 0x20 ADD SWAP1 DUP2 MSTORE PUSH1 0x20 ADD PUSH1 0x0 KECCAK256 SWAP1 POP PUSH1 0x0 DUP2 PUSH1 0x3 ADD SLOAD GT PUSH2 0x14EE JUMPI PUSH1 0x40 MLOAD PUSH32 0x8C379A000000000000000000000000000000000000000000000000000000000 DUP2 MSTORE PUSH1 0x4 ADD PUSH2 0x14E5 SWAP1 PUSH2 0x2AC4 JUMP JUMPDEST PUSH1 0x40 MLOAD DUP1 SWAP2 SUB SWAP1 REVERT JUMPDEST PUSH1 0x0 PUSH1 0x64 PUSH1 0x5F DUP4 PUSH1 0x3 ADD SLOAD PUSH2 0x1503 SWAP2 SWAP1 PUSH2 0x2B13 JUMP JUMPDEST PUSH2 0x150D SWAP2 SWAP1 PUSH2 0x2B84 JUMP JUMPDEST SWAP1 POP PUSH1 0x0 DUP3 PUSH1 0x3 ADD DUP2 SWAP1 SSTORE POP PUSH1 0x0 CALLER PUSH20 0xFFFFFFFFFFFFFFFFFFFFFFFFFFFFFFFFFFFFFFFF AND DUP3 PUSH1 0x40 MLOAD PUSH2 0x153F SWAP1 PUSH2 0x2BE6 JUMP JUMPDEST PUSH1 0x0 PUSH1 0x40 MLOAD DUP1 DUP4 SUB DUP2 DUP6 DUP8 GAS CALL SWAP3 POP POP POP RETURNDATASIZE DUP1 PUSH1 0x0 DUP2 EQ PUSH2 0x157C JUMPI PUSH1 0x40 MLOAD SWAP2 POP PUSH1 0x1F NOT PUSH1 0x3F RETURNDATASIZE ADD AND DUP3 ADD PUSH1 0x40 MSTORE RETURNDATASIZE DUP3 MSTORE RETURNDATASIZE PUSH1 0x0 PUSH1 0x20 DUP5 ADD RETURNDATACOPY PUSH2 0x1581 JUMP JUMPDEST PUSH1 0x60 SWAP2 POP JUMPDEST POP POP SWAP1 POP DUP1 PUSH2 0x15C5 JUMPI PUSH1 0x40 MLOAD PUSH32 0x8C379A000000000000000000000000000000000000000000000000000000000 DUP2 MSTORE PUSH1 0x4 ADD PUSH2 0x15BC SWAP1 PUSH2 0x2C47 JUMP JUMPDEST PUSH1 0x40 MLOAD DUP1 SWAP2 SUB SWAP1 REVERT JUMPDEST PUSH32 0x9AD672D4E7C4892DA934D1051932EBE9EC4B6EC8C3F40D569176DB3E93E5ABE CALLER DUP4 PUSH1 0x40 MLOAD PUSH2 0x15F6 SWAP3 SWAP2 SWAP1 PUSH2 0x2C67 JUMP JUMPDEST PUSH1 0x40 MLOAD DUP1 SWAP2 SUB SWAP1 LOG1 POP POP POP POP POP JUMP JUMPDEST PUSH1 0x0 PUSH1 0x8 PUSH1 0x0 CALLER PUSH20 0xFFFFFFFFFFFFFFFFFFFFFFFFFFFFFFFFFFFFFFFF AND PUSH20 0xFFFFFFFFFFFFFFFFFFFFFFFFFFFFFFFFFFFFFFFF AND DUP2 MSTORE PUSH1 0x20 ADD SWAP1 DUP2 MSTORE PUSH1 0x20 ADD PUSH1 0x0 KECCAK256 PUSH1 0x0 SWAP1 SLOAD SWAP1 PUSH2 0x100 EXP SWAP1 DIV PUSH1 0xFF AND PUSH1 0xFF AND EQ PUSH2 0x168E JUMPI PUSH1 0x40 MLOAD PUSH32 0xAF79AD300000000000000000000000000000000000000000000000000000000 DUP2 MSTORE PUSH1 0x4 ADD PUSH1 0x40 MLOAD DUP1 SWAP2 SUB SWAP1 REVERT JUMPDEST PUSH1 0x0 DUP8 MLOAD GT PUSH2 0x169C JUMPI PUSH1 0x0 DUP1 REVERT JUMPDEST PUSH1 0x0 DUP7 MLOAD GT PUSH2 0x16AA JUMPI PUSH1 0x0 DUP1 REVERT JUMPDEST PUSH1 0x1 PUSH1 0x0 DUP2 SLOAD DUP1 SWAP3 SWAP2 SWAP1 PUSH2 0x16BD SWAP1 PUSH2 0x2C90 JUMP JUMPDEST SWAP2 SWAP1 POP SSTORE POP PUSH1 0x2 PUSH1 0x8 PUSH1 0x0 CALLER PUSH20 0xFFFFFFFFFFFFFFFFFFFFFFFFFFFFFFFFFFFFFFFF AND PUSH20 0xFFFFFFFFFFFFFFFFFFFFFFFFFFFFFFFFFFFFFFFF AND DUP2 MSTORE PUSH1 0x20 ADD SWAP1 DUP2 MSTORE PUSH1 0x20 ADD PUSH1 0x0 KECCAK256 PUSH1 0x0 PUSH2 0x100 EXP DUP2 SLOAD DUP2 PUSH1 0xFF MUL NOT AND SWAP1 DUP4 PUSH1 0xFF AND MUL OR SWAP1 SSTORE POP DUP8 PUSH1 0xA PUSH1 0x0 CALLER PUSH20 0xFFFFFFFFFFFFFFFFFFFFFFFFFFFFFFFFFFFFFFFF AND PUSH20 0xFFFFFFFFFFFFFFFFFFFFFFFFFFFFFFFFFFFFFFFF AND DUP2 MSTORE PUSH1 0x20 ADD SWAP1 DUP2 MSTORE PUSH1 0x20 ADD PUSH1 0x0 KECCAK256 PUSH1 0x0 PUSH2 0x100 EXP DUP2 SLOAD DUP2 PUSH20 0xFFFFFFFFFFFFFFFFFFFFFFFFFFFFFFFFFFFFFFFF MUL NOT AND SWAP1 DUP4 PUSH20 0xFFFFFFFFFFFFFFFFFFFFFFFFFFFFFFFFFFFFFFFF AND MUL OR SWAP1 SSTORE POP PUSH1 0x40 MLOAD DUP1 PUSH2 0x180 ADD PUSH1 0x40 MSTORE DUP1 DUP10 PUSH20 0xFFFFFFFFFFFFFFFFFFFFFFFFFFFFFFFFFFFFFFFF AND DUP2 MSTORE PUSH1 0x20 ADD DUP9 DUP2 MSTORE PUSH1 0x20 ADD DUP8 DUP2 MSTORE PUSH1 0x20 ADD PUSH1 0x0 DUP2 MSTORE PUSH1 0x20 ADD DUP7 DUP2 MSTORE PUSH1 0x20 ADD DUP6 DUP2 MSTORE PUSH1 0x20 ADD DUP5 DUP2 MSTORE PUSH1 0x20 ADD DUP4 DUP2 MSTORE PUSH1 0x20 ADD PUSH1 0x0 DUP2 MSTORE PUSH1 0x20 ADD PUSH1 0x1 ISZERO ISZERO DUP2 MSTORE PUSH1 0x20 ADD TIMESTAMP DUP2 MSTORE PUSH1 0x20 ADD DUP3 DUP2 MSTORE POP PUSH1 0x5 PUSH1 0x0 DUP11 PUSH20 0xFFFFFFFFFFFFFFFFFFFFFFFFFFFFFFFFFFFFFFFF AND PUSH20 0xFFFFFFFFFFFFFFFFFFFFFFFFFFFFFFFFFFFFFFFF AND DUP2 MSTORE PUSH1 0x20 ADD SWAP1 DUP2 MSTORE PUSH1 0x20 ADD PUSH1 0x0 KECCAK256 PUSH1 0x0 DUP3 ADD MLOAD DUP2 PUSH1 0x0 ADD PUSH1 0x0 PUSH2 0x100 EXP DUP2 SLOAD DUP2 PUSH20 0xFFFFFFFFFFFFFFFFFFFFFFFFFFFFFFFFFFFFFFFF MUL NOT AND SWAP1 DUP4 PUSH20 0xFFFFFFFFFFFFFFFFFFFFFFFFFFFFFFFFFFFFFFFF AND MUL OR SWAP1 SSTORE POP PUSH1 0x20 DUP3 ADD MLOAD DUP2 PUSH1 0x1 ADD SWAP1 DUP2 PUSH2 0x18A1 SWAP2 SWAP1 PUSH2 0x29A6 JUMP JUMPDEST POP PUSH1 0x40 DUP3 ADD MLOAD DUP2 PUSH1 0x2 ADD SWAP1 DUP2 PUSH2 0x18B7 SWAP2 SWAP1 PUSH2 0x29A6 JUMP JUMPDEST POP PUSH1 0x60 DUP3 ADD MLOAD DUP2 PUSH1 0x3 ADD SSTORE PUSH1 0x80 DUP3 ADD MLOAD DUP2 PUSH1 0x4 ADD SWAP1 DUP2 PUSH2 0x18D7 SWAP2 SWAP1 PUSH2 0x29A6 JUMP JUMPDEST POP PUSH1 0xA0 DUP3 ADD MLOAD DUP2 PUSH1 0x5 ADD SWAP1 DUP2 PUSH2 0x18ED SWAP2 SWAP1 PUSH2 0x29A6 JUMP JUMPDEST POP PUSH1 0xC0 DUP3 ADD MLOAD DUP2 PUSH1 0x6 ADD SWAP1 DUP2 PUSH2 0x1903 SWAP2 SWAP1 PUSH2 0x29A6 JUMP JUMPDEST POP PUSH1 0xE0 DUP3 ADD MLOAD DUP2 PUSH1 0x7 ADD SWAP1 DUP1 MLOAD SWAP1 PUSH1 0x20 ADD SWAP1 PUSH2 0x1920 SWAP3 SWAP2 SWAP1 PUSH2 0x1B1E JUMP JUMPDEST POP PUSH2 0x100 DUP3 ADD MLOAD DUP2 PUSH1 0x8 ADD SSTORE PUSH2 0x120 DUP3 ADD MLOAD DUP2 PUSH1 0x9 ADD PUSH1 0x0 PUSH2 0x100 EXP DUP2 SLOAD DUP2 PUSH1 0xFF MUL NOT AND SWAP1 DUP4 ISZERO ISZERO MUL OR SWAP1 SSTORE POP PUSH2 0x140 DUP3 ADD MLOAD DUP2 PUSH1 0xA ADD SSTORE PUSH2 0x160 DUP3 ADD MLOAD DUP2 PUSH1 0xB ADD SSTORE SWAP1 POP POP PUSH1 0x9 DUP9 SWAP1 DUP1 PUSH1 0x1 DUP2 SLOAD ADD DUP1 DUP3 SSTORE DUP1 SWAP2 POP POP PUSH1 0x1 SWAP1 SUB SWAP1 PUSH1 0x0 MSTORE PUSH1 0x20 PUSH1 0x0 KECCAK256 ADD PUSH1 0x0 SWAP1 SWAP2 SWAP1 SWAP2 SWAP1 SWAP2 PUSH2 0x100 EXP DUP2 SLOAD DUP2 PUSH20 0xFFFFFFFFFFFFFFFFFFFFFFFFFFFFFFFFFFFFFFFF MUL NOT AND SWAP1 DUP4 PUSH20 0xFFFFFFFFFFFFFFFFFFFFFFFFFFFFFFFFFFFFFFFF AND MUL OR SWAP1 SSTORE POP PUSH32 0x21BEF455EB0E77B12A579311CA8616D72216C8B628577EEDA276AC16FE5B622E DUP9 DUP4 DUP4 PUSH1 0x40 MLOAD PUSH2 0x19FC SWAP4 SWAP3 SWAP2 SWAP1 PUSH2 0x2D5E JUMP JUMPDEST PUSH1 0x40 MLOAD DUP1 SWAP2 SUB SWAP1 LOG1 POP POP POP POP POP POP POP POP JUMP JUMPDEST PUSH1 0x9 DUP2 DUP2 SLOAD DUP2 LT PUSH2 0x1A1E JUMPI PUSH1 0x0 DUP1 REVERT JUMPDEST SWAP1 PUSH1 0x0 MSTORE PUSH1 0x20 PUSH1 0x0 KECCAK256 ADD PUSH1 0x0 SWAP2 POP SLOAD SWAP1 PUSH2 0x100 EXP SWAP1 DIV PUSH20 0xFFFFFFFFFFFFFFFFFFFFFFFFFFFFFFFFFFFFFFFF AND DUP2 JUMP JUMPDEST PUSH1 0xA PUSH1 0x20 MSTORE DUP1 PUSH1 0x0 MSTORE PUSH1 0x40 PUSH1 0x0 KECCAK256 PUSH1 0x0 SWAP2 POP SLOAD SWAP1 PUSH2 0x100 EXP SWAP1 DIV PUSH20 0xFFFFFFFFFFFFFFFFFFFFFFFFFFFFFFFFFFFFFFFF AND DUP2 JUMP JUMPDEST PUSH1 0x7 PUSH1 0x20 MSTORE DUP2 PUSH1 0x0 MSTORE PUSH1 0x40 PUSH1 0x0 KECCAK256 PUSH1 0x20 MSTORE DUP1 PUSH1 0x0 MSTORE PUSH1 0x40 PUSH1 0x0 KECCAK256 PUSH1 0x0 SWAP2 POP SWAP2 POP POP SLOAD DUP2 JUMP JUMPDEST PUSH1 0x40 MLOAD DUP1 PUSH2 0x180 ADD PUSH1 0x40 MSTORE DUP1 PUSH1 0x0 PUSH20 0xFFFFFFFFFFFFFFFFFFFFFFFFFFFFFFFFFFFFFFFF AND DUP2 MSTORE PUSH1 0x20 ADD PUSH1 0x60 DUP2 MSTORE PUSH1 0x20 ADD PUSH1 0x60 DUP2 MSTORE PUSH1 0x20 ADD PUSH1 0x0 DUP2 MSTORE PUSH1 0x20 ADD PUSH1 0x60 DUP2 MSTORE PUSH1 0x20 ADD PUSH1 0x60 DUP2 MSTORE PUSH1 0x20 ADD PUSH1 0x60 DUP2 MSTORE PUSH1 0x20 ADD PUSH1 0x60 DUP2 MSTORE PUSH1 0x20 ADD PUSH1 0x0 DUP2 MSTORE PUSH1 0x20 ADD PUSH1 0x0 ISZERO ISZERO DUP2 MSTORE PUSH1 0x20 ADD PUSH1 0x0 DUP2 MSTORE PUSH1 0x20 ADD PUSH1 0x0 DUP2 MSTORE POP SWAP1 JUMP JUMPDEST DUP3 DUP1 SLOAD DUP3 DUP3 SSTORE SWAP1 PUSH1 0x0 MSTORE PUSH1 0x20 PUSH1 0x0 KECCAK256 SWAP1 DUP2 ADD SWAP3 DUP3 ISZERO PUSH2 0x1B66 JUMPI SWAP2 PUSH1 0x20 MUL DUP3 ADD JUMPDEST DUP3 DUP2 GT ISZERO PUSH2 0x1B65 JUMPI DUP3 MLOAD DUP3 SWAP1 DUP2 PUSH2 0x1B55 SWAP2 SWAP1 PUSH2 0x29A6 JUMP JUMPDEST POP SWAP2 PUSH1 0x20 ADD SWAP2 SWAP1 PUSH1 0x1 ADD SWAP1 PUSH2 0x1B3E JUMP JUMPDEST JUMPDEST POP SWAP1 POP PUSH2 0x1B73 SWAP2 SWAP1 PUSH2 0x1B77 JUMP JUMPDEST POP SWAP1 JUMP JUMPDEST JUMPDEST DUP1 DUP3 GT ISZERO PUSH2 0x1B97 JUMPI PUSH1 0x0 DUP2 DUP2 PUSH2 0x1B8E SWAP2 SWAP1 PUSH2 0x1B9B JUMP JUMPDEST POP PUSH1 0x1 ADD PUSH2 0x1B78 JUMP JUMPDEST POP SWAP1 JUMP JUMPDEST POP DUP1 SLOAD PUSH2 0x1BA7 SWAP1 PUSH2 0x27C9 JUMP JUMPDEST PUSH1 0x0 DUP3 SSTORE DUP1 PUSH1 0x1F LT PUSH2 0x1BB9 JUMPI POP PUSH2 0x1BD8 JUMP JUMPDEST PUSH1 0x1F ADD PUSH1 0x20 SWAP1 DIV SWAP1 PUSH1 0x0 MSTORE PUSH1 0x20 PUSH1 0x0 KECCAK256 SWAP1 DUP2 ADD SWAP1 PUSH2 0x1BD7 SWAP2 SWAP1 PUSH2 0x1BDB JUMP JUMPDEST JUMPDEST POP JUMP JUMPDEST JUMPDEST DUP1 DUP3 GT ISZERO PUSH2 0x1BF4 JUMPI PUSH1 0x0 DUP2 PUSH1 0x0 SWAP1 SSTORE POP PUSH1 0x1 ADD PUSH2 0x1BDC JUMP JUMPDEST POP SWAP1 JUMP JUMPDEST PUSH1 0x0 PUSH1 0x40 MLOAD SWAP1 POP SWAP1 JUMP JUMPDEST PUSH1 0x0 DUP1 REVERT JUMPDEST PUSH1 0x0 DUP1 REVERT JUMPDEST PUSH1 0x0 PUSH20 0xFFFFFFFFFFFFFFFFFFFFFFFFFFFFFFFFFFFFFFFF DUP3 AND SWAP1 POP SWAP2 SWAP1 POP JUMP JUMPDEST PUSH1 0x0 PUSH2 0x1C37 DUP3 PUSH2 0x1C0C JUMP JUMPDEST SWAP1 POP SWAP2 SWAP1 POP JUMP JUMPDEST PUSH2 0x1C47 DUP2 PUSH2 0x1C2C JUMP JUMPDEST DUP2 EQ PUSH2 0x1C52 JUMPI PUSH1 0x0 DUP1 REVERT JUMPDEST POP JUMP JUMPDEST PUSH1 0x0 DUP2 CALLDATALOAD SWAP1 POP PUSH2 0x1C64 DUP2 PUSH2 0x1C3E JUMP JUMPDEST SWAP3 SWAP2 POP POP JUMP JUMPDEST PUSH1 0x0 PUSH1 0x20 DUP3 DUP5 SUB SLT ISZERO PUSH2 0x1C80 JUMPI PUSH2 0x1C7F PUSH2 0x1C02 JUMP JUMPDEST JUMPDEST PUSH1 0x0 PUSH2 0x1C8E DUP5 DUP3 DUP6 ADD PUSH2 0x1C55 JUMP JUMPDEST SWAP2 POP POP SWAP3 SWAP2 POP POP JUMP JUMPDEST PUSH2 0x1CA0 DUP2 PUSH2 0x1C2C JUMP JUMPDEST DUP3 MSTORE POP POP JUMP JUMPDEST PUSH1 0x0 DUP2 MLOAD SWAP1 POP SWAP2 SWAP1 POP JUMP JUMPDEST PUSH1 0x0 DUP3 DUP3 MSTORE PUSH1 0x20 DUP3 ADD SWAP1 POP SWAP3 SWAP2 POP POP JUMP JUMPDEST PUSH1 0x0 JUMPDEST DUP4 DUP2 LT ISZERO PUSH2 0x1CE0 JUMPI DUP1 DUP3 ADD MLOAD DUP2 DUP5 ADD MSTORE PUSH1 0x20 DUP2 ADD SWAP1 POP PUSH2 0x1CC5 JUMP JUMPDEST PUSH1 0x0 DUP5 DUP5 ADD MSTORE POP POP POP POP JUMP JUMPDEST PUSH1 0x0 PUSH1 0x1F NOT PUSH1 0x1F DUP4 ADD AND SWAP1 POP SWAP2 SWAP1 POP JUMP JUMPDEST PUSH1 0x0 PUSH2 0x1D08 DUP3 PUSH2 0x1CA6 JUMP JUMPDEST PUSH2 0x1D12 DUP2 DUP6 PUSH2 0x1CB1 JUMP JUMPDEST SWAP4 POP PUSH2 0x1D22 DUP2 DUP6 PUSH1 0x20 DUP7 ADD PUSH2 0x1CC2 JUMP JUMPDEST PUSH2 0x1D2B DUP2 PUSH2 0x1CEC JUMP JUMPDEST DUP5 ADD SWAP2 POP POP SWAP3 SWAP2 POP POP JUMP JUMPDEST PUSH1 0x0 DUP2 SWAP1 POP SWAP2 SWAP1 POP JUMP JUMPDEST PUSH2 0x1D49 DUP2 PUSH2 0x1D36 JUMP JUMPDEST DUP3 MSTORE POP POP JUMP JUMPDEST PUSH1 0x0 DUP2 ISZERO ISZERO SWAP1 POP SWAP2 SWAP1 POP JUMP JUMPDEST PUSH2 0x1D64 DUP2 PUSH2 0x1D4F JUMP JUMPDEST DUP3 MSTORE POP POP JUMP JUMPDEST PUSH1 0x0 PUSH2 0x100 DUP3 ADD SWAP1 POP PUSH2 0x1D80 PUSH1 0x0 DUP4 ADD DUP12 PUSH2 0x1C97 JUMP JUMPDEST DUP2 DUP2 SUB PUSH1 0x20 DUP4 ADD MSTORE PUSH2 0x1D92 DUP2 DUP11 PUSH2 0x1CFD JUMP JUMPDEST SWAP1 POP DUP2 DUP2 SUB PUSH1 0x40 DUP4 ADD MSTORE PUSH2 0x1DA6 DUP2 DUP10 PUSH2 0x1CFD JUMP JUMPDEST SWAP1 POP PUSH2 0x1DB5 PUSH1 0x60 DUP4 ADD DUP9 PUSH2 0x1D40 JUMP JUMPDEST DUP2 DUP2 SUB PUSH1 0x80 DUP4 ADD MSTORE PUSH2 0x1DC7 DUP2 DUP8 PUSH2 0x1CFD JUMP JUMPDEST SWAP1 POP DUP2 DUP2 SUB PUSH1 0xA0 DUP4 ADD MSTORE PUSH2 0x1DDB DUP2 DUP7 PUSH2 0x1CFD JUMP JUMPDEST SWAP1 POP PUSH2 0x1DEA PUSH1 0xC0 DUP4 ADD DUP6 PUSH2 0x1D5B JUMP JUMPDEST PUSH2 0x1DF7 PUSH1 0xE0 DUP4 ADD DUP5 PUSH2 0x1D40 JUMP JUMPDEST SWAP10 SWAP9 POP POP POP POP POP POP POP POP POP JUMP JUMPDEST PUSH1 0x0 PUSH1 0x20 DUP3 ADD SWAP1 POP PUSH2 0x1E19 PUSH1 0x0 DUP4 ADD DUP5 PUSH2 0x1D40 JUMP JUMPDEST SWAP3 SWAP2 POP POP JUMP JUMPDEST PUSH2 0x1E28 DUP2 PUSH2 0x1D36 JUMP JUMPDEST DUP2 EQ PUSH2 0x1E33 JUMPI PUSH1 0x0 DUP1 REVERT JUMPDEST POP JUMP JUMPDEST PUSH1 0x0 DUP2 CALLDATALOAD SWAP1 POP PUSH2 0x1E45 DUP2 PUSH2 0x1E1F JUMP JUMPDEST SWAP3 SWAP2 POP POP JUMP JUMPDEST PUSH1 0x0 PUSH1 0x20 DUP3 DUP5 SUB SLT ISZERO PUSH2 0x1E61 JUMPI PUSH2 0x1E60 PUSH2 0x1C02 JUMP JUMPDEST JUMPDEST PUSH1 0x0 PUSH2 0x1E6F DUP5 DUP3 DUP6 ADD PUSH2 0x1E36 JUMP JUMPDEST SWAP2 POP POP SWAP3 SWAP2 POP POP JUMP JUMPDEST PUSH1 0x0 PUSH1 0xFF DUP3 AND SWAP1 POP SWAP2 SWAP1 POP JUMP JUMPDEST PUSH2 0x1E8E DUP2 PUSH2 0x1E78 JUMP JUMPDEST DUP3 MSTORE POP POP JUMP JUMPDEST PUSH1 0x0 PUSH1 0xE0 DUP3 ADD SWAP1 POP PUSH2 0x1EA9 PUSH1 0x0 DUP4 ADD DUP11 PUSH2 0x1E85 JUMP JUMPDEST PUSH2 0x1EB6 PUSH1 0x20 DUP4 ADD DUP10 PUSH2 0x1C97 JUMP JUMPDEST DUP2 DUP2 SUB PUSH1 0x40 DUP4 ADD MSTORE PUSH2 0x1EC8 DUP2 DUP9 PUSH2 0x1CFD JUMP JUMPDEST SWAP1 POP DUP2 DUP2 SUB PUSH1 0x60 DUP4 ADD MSTORE PUSH2 0x1EDC DUP2 DUP8 PUSH2 0x1CFD JUMP JUMPDEST SWAP1 POP PUSH2 0x1EEB PUSH1 0x80 DUP4 ADD DUP7 PUSH2 0x1D40 JUMP JUMPDEST PUSH2 0x1EF8 PUSH1 0xA0 DUP4 ADD DUP6 PUSH2 0x1D5B JUMP JUMPDEST PUSH2 0x1F05 PUSH1 0xC0 DUP4 ADD DUP5 PUSH2 0x1C97 JUMP JUMPDEST SWAP9 SWAP8 POP POP POP POP POP POP POP POP JUMP JUMPDEST PUSH1 0x0 PUSH1 0x20 DUP3 ADD SWAP1 POP PUSH2 0x1F26 PUSH1 0x0 DUP4 ADD DUP5 PUSH2 0x1E85 JUMP JUMPDEST SWAP3 SWAP2 POP POP JUMP JUMPDEST PUSH2 0x1F35 DUP2 PUSH2 0x1C2C JUMP JUMPDEST DUP3 MSTORE POP POP JUMP JUMPDEST PUSH1 0x0 DUP3 DUP3 MSTORE PUSH1 0x20 DUP3 ADD SWAP1 POP SWAP3 SWAP2 POP POP JUMP JUMPDEST PUSH1 0x0 PUSH2 0x1F57 DUP3 PUSH2 0x1CA6 JUMP JUMPDEST PUSH2 0x1F61 DUP2 DUP6 PUSH2 0x1F3B JUMP JUMPDEST SWAP4 POP PUSH2 0x1F71 DUP2 DUP6 PUSH1 0x20 DUP7 ADD PUSH2 0x1CC2 JUMP JUMPDEST PUSH2 0x1F7A DUP2 PUSH2 0x1CEC JUMP JUMPDEST DUP5 ADD SWAP2 POP POP SWAP3 SWAP2 POP POP JUMP JUMPDEST PUSH2 0x1F8E DUP2 PUSH2 0x1D36 JUMP JUMPDEST DUP3 MSTORE POP POP JUMP JUMPDEST PUSH1 0x0 DUP2 MLOAD SWAP1 POP SWAP2 SWAP1 POP JUMP JUMPDEST PUSH1 0x0 DUP3 DUP3 MSTORE PUSH1 0x20 DUP3 ADD SWAP1 POP SWAP3 SWAP2 POP POP JUMP JUMPDEST PUSH1 0x0 DUP2 SWAP1 POP PUSH1 0x20 DUP3 ADD SWAP1 POP SWAP2 SWAP1 POP JUMP JUMPDEST PUSH1 0x0 PUSH2 0x1FCC DUP4 DUP4 PUSH2 0x1F4C JUMP JUMPDEST SWAP1 POP SWAP3 SWAP2 POP POP JUMP JUMPDEST PUSH1 0x0 PUSH1 0x20 DUP3 ADD SWAP1 POP SWAP2 SWAP1 POP JUMP JUMPDEST PUSH1 0x0 PUSH2 0x1FEC DUP3 PUSH2 0x1F94 JUMP JUMPDEST PUSH2 0x1FF6 DUP2 DUP6 PUSH2 0x1F9F JUMP JUMPDEST SWAP4 POP DUP4 PUSH1 0x20 DUP3 MUL DUP6 ADD PUSH2 0x2008 DUP6 PUSH2 0x1FB0 JUMP JUMPDEST DUP1 PUSH1 0x0 JUMPDEST DUP6 DUP2 LT ISZERO PUSH2 0x2044 JUMPI DUP5 DUP5 SUB DUP10 MSTORE DUP2 MLOAD PUSH2 0x2025 DUP6 DUP3 PUSH2 0x1FC0 JUMP JUMPDEST SWAP5 POP PUSH2 0x2030 DUP4 PUSH2 0x1FD4 JUMP JUMPDEST SWAP3 POP PUSH1 0x20 DUP11 ADD SWAP10 POP POP PUSH1 0x1 DUP2 ADD SWAP1 POP PUSH2 0x200C JUMP JUMPDEST POP DUP3 SWAP8 POP DUP8 SWAP6 POP POP POP POP POP POP SWAP3 SWAP2 POP POP JUMP JUMPDEST PUSH2 0x205F DUP2 PUSH2 0x1D4F JUMP JUMPDEST DUP3 MSTORE POP POP JUMP JUMPDEST PUSH1 0x0 PUSH2 0x180 DUP4 ADD PUSH1 0x0 DUP4 ADD MLOAD PUSH2 0x207E PUSH1 0x0 DUP7 ADD DUP3 PUSH2 0x1F2C JUMP JUMPDEST POP PUSH1 0x20 DUP4 ADD MLOAD DUP5 DUP3 SUB PUSH1 0x20 DUP7 ADD MSTORE PUSH2 0x2096 DUP3 DUP3 PUSH2 0x1F4C JUMP JUMPDEST SWAP2 POP POP PUSH1 0x40 DUP4 ADD MLOAD DUP5 DUP3 SUB PUSH1 0x40 DUP7 ADD MSTORE PUSH2 0x20B0 DUP3 DUP3 PUSH2 0x1F4C JUMP JUMPDEST SWAP2 POP POP PUSH1 0x60 DUP4 ADD MLOAD PUSH2 0x20C5 PUSH1 0x60 DUP7 ADD DUP3 PUSH2 0x1F85 JUMP JUMPDEST POP PUSH1 0x80 DUP4 ADD MLOAD DUP5 DUP3 SUB PUSH1 0x80 DUP7 ADD MSTORE PUSH2 0x20DD DUP3 DUP3 PUSH2 0x1F4C JUMP JUMPDEST SWAP2 POP POP PUSH1 0xA0 DUP4 ADD MLOAD DUP5 DUP3 SUB PUSH1 0xA0 DUP7 ADD MSTORE PUSH2 0x20F7 DUP3 DUP3 PUSH2 0x1F4C JUMP JUMPDEST SWAP2 POP POP PUSH1 0xC0 DUP4 ADD MLOAD DUP5 DUP3 SUB PUSH1 0xC0 DUP7 ADD MSTORE PUSH2 0x2111 DUP3 DUP3 PUSH2 0x1F4C JUMP JUMPDEST SWAP2 POP POP PUSH1 0xE0 DUP4 ADD MLOAD DUP5 DUP3 SUB PUSH1 0xE0 DUP7 ADD MSTORE PUSH2 0x212B DUP3 DUP3 PUSH2 0x1FE1 JUMP JUMPDEST SWAP2 POP POP PUSH2 0x100 DUP4 ADD MLOAD PUSH2 0x2142 PUSH2 0x100 DUP7 ADD DUP3 PUSH2 0x1F85 JUMP JUMPDEST POP PUSH2 0x120 DUP4 ADD MLOAD PUSH2 0x2157 PUSH2 0x120 DUP7 ADD DUP3 PUSH2 0x2056 JUMP JUMPDEST POP PUSH2 0x140 DUP4 ADD MLOAD PUSH2 0x216C PUSH2 0x140 DUP7 ADD DUP3 PUSH2 0x1F85 JUMP JUMPDEST POP PUSH2 0x160 DUP4 ADD MLOAD PUSH2 0x2181 PUSH2 0x160 DUP7 ADD DUP3 PUSH2 0x1F85 JUMP JUMPDEST POP DUP1 SWAP2 POP POP SWAP3 SWAP2 POP POP JUMP JUMPDEST PUSH1 0x0 PUSH1 0x20 DUP3 ADD SWAP1 POP DUP2 DUP2 SUB PUSH1 0x0 DUP4 ADD MSTORE PUSH2 0x21A6 DUP2 DUP5 PUSH2 0x2065 JUMP JUMPDEST SWAP1 POP SWAP3 SWAP2 POP POP JUMP JUMPDEST PUSH1 0x0 PUSH2 0x160 DUP3 ADD SWAP1 POP PUSH2 0x21C4 PUSH1 0x0 DUP4 ADD DUP15 PUSH2 0x1C97 JUMP JUMPDEST DUP2 DUP2 SUB PUSH1 0x20 DUP4 ADD MSTORE PUSH2 0x21D6 DUP2 DUP14 PUSH2 0x1CFD JUMP JUMPDEST SWAP1 POP DUP2 DUP2 SUB PUSH1 0x40 DUP4 ADD MSTORE PUSH2 0x21EA DUP2 DUP13 PUSH2 0x1CFD JUMP JUMPDEST SWAP1 POP PUSH2 0x21F9 PUSH1 0x60 DUP4 ADD DUP12 PUSH2 0x1D40 JUMP JUMPDEST DUP2 DUP2 SUB PUSH1 0x80 DUP4 ADD MSTORE PUSH2 0x220B DUP2 DUP11 PUSH2 0x1CFD JUMP JUMPDEST SWAP1 POP DUP2 DUP2 SUB PUSH1 0xA0 DUP4 ADD MSTORE PUSH2 0x221F DUP2 DUP10 PUSH2 0x1CFD JUMP JUMPDEST SWAP1 POP DUP2 DUP2 SUB PUSH1 0xC0 DUP4 ADD MSTORE PUSH2 0x2233 DUP2 DUP9 PUSH2 0x1CFD JUMP JUMPDEST SWAP1 POP PUSH2 0x2242 PUSH1 0xE0 DUP4 ADD DUP8 PUSH2 0x1D40 JUMP JUMPDEST PUSH2 0x2250 PUSH2 0x100 DUP4 ADD DUP7 PUSH2 0x1D5B JUMP JUMPDEST PUSH2 0x225E PUSH2 0x120 DUP4 ADD DUP6 PUSH2 0x1D40 JUMP JUMPDEST PUSH2 0x226C PUSH2 0x140 DUP4 ADD DUP5 PUSH2 0x1D40 JUMP JUMPDEST SWAP13 SWAP12 POP POP POP POP POP POP POP POP POP POP POP POP JUMP JUMPDEST PUSH1 0x0 PUSH1 0x20 DUP3 ADD SWAP1 POP PUSH2 0x2291 PUSH1 0x0 DUP4 ADD DUP5 PUSH2 0x1C97 JUMP JUMPDEST SWAP3 SWAP2 POP POP JUMP JUMPDEST PUSH1 0x0 DUP1 REVERT JUMPDEST PUSH1 0x0 DUP1 REVERT JUMPDEST PUSH32 0x4E487B7100000000000000000000000000000000000000000000000000000000 PUSH1 0x0 MSTORE PUSH1 0x41 PUSH1 0x4 MSTORE PUSH1 0x24 PUSH1 0x0 REVERT JUMPDEST PUSH2 0x22D9 DUP3 PUSH2 0x1CEC JUMP JUMPDEST DUP2 ADD DUP2 DUP2 LT PUSH8 0xFFFFFFFFFFFFFFFF DUP3 GT OR ISZERO PUSH2 0x22F8 JUMPI PUSH2 0x22F7 PUSH2 0x22A1 JUMP JUMPDEST JUMPDEST DUP1 PUSH1 0x40 MSTORE POP POP POP JUMP JUMPDEST PUSH1 0x0 PUSH2 0x230B PUSH2 0x1BF8 JUMP JUMPDEST SWAP1 POP PUSH2 0x2317 DUP3 DUP3 PUSH2 0x22D0 JUMP JUMPDEST SWAP2 SWAP1 POP JUMP JUMPDEST PUSH1 0x0 PUSH8 0xFFFFFFFFFFFFFFFF DUP3 GT ISZERO PUSH2 0x2337 JUMPI PUSH2 0x2336 PUSH2 0x22A1 JUMP JUMPDEST JUMPDEST PUSH2 0x2340 DUP3 PUSH2 0x1CEC JUMP JUMPDEST SWAP1 POP PUSH1 0x20 DUP2 ADD SWAP1 POP SWAP2 SWAP1 POP JUMP JUMPDEST DUP3 DUP2 DUP4 CALLDATACOPY PUSH1 0x0 DUP4 DUP4 ADD MSTORE POP POP POP JUMP JUMPDEST PUSH1 0x0 PUSH2 0x236F PUSH2 0x236A DUP5 PUSH2 0x231C JUMP JUMPDEST PUSH2 0x2301 JUMP JUMPDEST SWAP1 POP DUP3 DUP2 MSTORE PUSH1 0x20 DUP2 ADD DUP5 DUP5 DUP5 ADD GT ISZERO PUSH2 0x238B JUMPI PUSH2 0x238A PUSH2 0x229C JUMP JUMPDEST JUMPDEST PUSH2 0x2396 DUP5 DUP3 DUP6 PUSH2 0x234D JUMP JUMPDEST POP SWAP4 SWAP3 POP POP POP JUMP JUMPDEST PUSH1 0x0 DUP3 PUSH1 0x1F DUP4 ADD SLT PUSH2 0x23B3 JUMPI PUSH2 0x23B2 PUSH2 0x2297 JUMP JUMPDEST JUMPDEST DUP2 CALLDATALOAD PUSH2 0x23C3 DUP5 DUP3 PUSH1 0x20 DUP7 ADD PUSH2 0x235C JUMP JUMPDEST SWAP2 POP POP SWAP3 SWAP2 POP POP JUMP JUMPDEST PUSH1 0x0 PUSH8 0xFFFFFFFFFFFFFFFF DUP3 GT ISZERO PUSH2 0x23E7 JUMPI PUSH2 0x23E6 PUSH2 0x22A1 JUMP JUMPDEST JUMPDEST PUSH1 0x20 DUP3 MUL SWAP1 POP PUSH1 0x20 DUP2 ADD SWAP1 POP SWAP2 SWAP1 POP JUMP JUMPDEST PUSH1 0x0 DUP1 REVERT JUMPDEST PUSH1 0x0 PUSH2 0x2410 PUSH2 0x240B DUP5 PUSH2 0x23CC JUMP JUMPDEST PUSH2 0x2301 JUMP JUMPDEST SWAP1 POP DUP1 DUP4 DUP3 MSTORE PUSH1 0x20 DUP3 ADD SWAP1 POP PUSH1 0x20 DUP5 MUL DUP4 ADD DUP6 DUP2 GT ISZERO PUSH2 0x2433 JUMPI PUSH2 0x2432 PUSH2 0x23F8 JUMP JUMPDEST JUMPDEST DUP4 JUMPDEST DUP2 DUP2 LT ISZERO PUSH2 0x247A JUMPI DUP1 CALLDATALOAD PUSH8 0xFFFFFFFFFFFFFFFF DUP2 GT ISZERO PUSH2 0x2458 JUMPI PUSH2 0x2457 PUSH2 0x2297 JUMP JUMPDEST JUMPDEST DUP1 DUP7 ADD PUSH2 0x2465 DUP10 DUP3 PUSH2 0x239E JUMP JUMPDEST DUP6 MSTORE PUSH1 0x20 DUP6 ADD SWAP5 POP POP POP PUSH1 0x20 DUP2 ADD SWAP1 POP PUSH2 0x2435 JUMP JUMPDEST POP POP POP SWAP4 SWAP3 POP POP POP JUMP JUMPDEST PUSH1 0x0 DUP3 PUSH1 0x1F DUP4 ADD SLT PUSH2 0x2499 JUMPI PUSH2 0x2498 PUSH2 0x2297 JUMP JUMPDEST JUMPDEST DUP2 CALLDATALOAD PUSH2 0x24A9 DUP5 DUP3 PUSH1 0x20 DUP7 ADD PUSH2 0x23FD JUMP JUMPDEST SWAP2 POP POP SWAP3 SWAP2 POP POP JUMP JUMPDEST PUSH1 0x0 DUP1 PUSH1 0x0 DUP1 PUSH1 0x0 DUP1 PUSH1 0x0 PUSH1 0xE0 DUP9 DUP11 SUB SLT ISZERO PUSH2 0x24D1 JUMPI PUSH2 0x24D0 PUSH2 0x1C02 JUMP JUMPDEST JUMPDEST PUSH1 0x0 DUP9 ADD CALLDATALOAD PUSH8 0xFFFFFFFFFFFFFFFF DUP2 GT ISZERO PUSH2 0x24EF JUMPI PUSH2 0x24EE PUSH2 0x1C07 JUMP JUMPDEST JUMPDEST PUSH2 0x24FB DUP11 DUP3 DUP12 ADD PUSH2 0x239E JUMP JUMPDEST SWAP8 POP POP PUSH1 0x20 DUP9 ADD CALLDATALOAD PUSH8 0xFFFFFFFFFFFFFFFF DUP2 GT ISZERO PUSH2 0x251C JUMPI PUSH2 0x251B PUSH2 0x1C07 JUMP JUMPDEST JUMPDEST PUSH2 0x2528 DUP11 DUP3 DUP12 ADD PUSH2 0x239E JUMP JUMPDEST SWAP7 POP POP PUSH1 0x40 DUP9 ADD CALLDATALOAD PUSH8 0xFFFFFFFFFFFFFFFF DUP2 GT ISZERO PUSH2 0x2549 JUMPI PUSH2 0x2548 PUSH2 0x1C07 JUMP JUMPDEST JUMPDEST PUSH2 0x2555 DUP11 DUP3 DUP12 ADD PUSH2 0x239E JUMP JUMPDEST SWAP6 POP POP PUSH1 0x60 DUP9 ADD CALLDATALOAD PUSH8 0xFFFFFFFFFFFFFFFF DUP2 GT ISZERO PUSH2 0x2576 JUMPI PUSH2 0x2575 PUSH2 0x1C07 JUMP JUMPDEST JUMPDEST PUSH2 0x2582 DUP11 DUP3 DUP12 ADD PUSH2 0x239E JUMP JUMPDEST SWAP5 POP POP PUSH1 0x80 DUP9 ADD CALLDATALOAD PUSH8 0xFFFFFFFFFFFFFFFF DUP2 GT ISZERO PUSH2 0x25A3 JUMPI PUSH2 0x25A2 PUSH2 0x1C07 JUMP JUMPDEST JUMPDEST PUSH2 0x25AF DUP11 DUP3 DUP12 ADD PUSH2 0x239E JUMP JUMPDEST SWAP4 POP POP PUSH1 0xA0 DUP9 ADD CALLDATALOAD PUSH8 0xFFFFFFFFFFFFFFFF DUP2 GT ISZERO PUSH2 0x25D0 JUMPI PUSH2 0x25CF PUSH2 0x1C07 JUMP JUMPDEST JUMPDEST PUSH2 0x25DC DUP11 DUP3 DUP12 ADD PUSH2 0x2484 JUMP JUMPDEST SWAP3 POP POP PUSH1 0xC0 PUSH2 0x25ED DUP11 DUP3 DUP12 ADD PUSH2 0x1E36 JUMP JUMPDEST SWAP2 POP POP SWAP3 SWAP6 SWAP9 SWAP2 SWAP5 SWAP8 POP SWAP3 SWAP6 POP JUMP JUMPDEST PUSH1 0x0 DUP1 PUSH1 0x0 DUP1 PUSH1 0x0 DUP1 PUSH1 0x0 DUP1 PUSH2 0x100 DUP10 DUP12 SUB SLT ISZERO PUSH2 0x261D JUMPI PUSH2 0x261C PUSH2 0x1C02 JUMP JUMPDEST JUMPDEST PUSH1 0x0 PUSH2 0x262B DUP12 DUP3 DUP13 ADD PUSH2 0x1C55 JUMP JUMPDEST SWAP9 POP POP PUSH1 0x20 DUP10 ADD CALLDATALOAD PUSH8 0xFFFFFFFFFFFFFFFF DUP2 GT ISZERO PUSH2 0x264C JUMPI PUSH2 0x264B PUSH2 0x1C07 JUMP JUMPDEST JUMPDEST PUSH2 0x2658 DUP12 DUP3 DUP13 ADD PUSH2 0x239E JUMP JUMPDEST SWAP8 POP POP PUSH1 0x40 DUP10 ADD CALLDATALOAD PUSH8 0xFFFFFFFFFFFFFFFF DUP2 GT ISZERO PUSH2 0x2679 JUMPI PUSH2 0x2678 PUSH2 0x1C07 JUMP JUMPDEST JUMPDEST PUSH2 0x2685 DUP12 DUP3 DUP13 ADD PUSH2 0x239E JUMP JUMPDEST SWAP7 POP POP PUSH1 0x60 DUP10 ADD CALLDATALOAD PUSH8 0xFFFFFFFFFFFFFFFF DUP2 GT ISZERO PUSH2 0x26A6 JUMPI PUSH2 0x26A5 PUSH2 0x1C07 JUMP JUMPDEST JUMPDEST PUSH2 0x26B2 DUP12 DUP3 DUP13 ADD PUSH2 0x239E JUMP JUMPDEST SWAP6 POP POP PUSH1 0x80 DUP10 ADD CALLDATALOAD PUSH8 0xFFFFFFFFFFFFFFFF DUP2 GT ISZERO PUSH2 0x26D3 JUMPI PUSH2 0x26D2 PUSH2 0x1C07 JUMP JUMPDEST JUMPDEST PUSH2 0x26DF DUP12 DUP3 DUP13 ADD PUSH2 0x239E JUMP JUMPDEST SWAP5 POP POP PUSH1 0xA0 DUP10 ADD CALLDATALOAD PUSH8 0xFFFFFFFFFFFFFFFF DUP2 GT ISZERO PUSH2 0x2700 JUMPI PUSH2 0x26FF PUSH2 0x1C07 JUMP JUMPDEST JUMPDEST PUSH2 0x270C DUP12 DUP3 DUP13 ADD PUSH2 0x239E JUMP JUMPDEST SWAP4 POP POP PUSH1 0xC0 DUP10 ADD CALLDATALOAD PUSH8 0xFFFFFFFFFFFFFFFF DUP2 GT ISZERO PUSH2 0x272D JUMPI PUSH2 0x272C PUSH2 0x1C07 JUMP JUMPDEST JUMPDEST PUSH2 0x2739 DUP12 DUP3 DUP13 ADD PUSH2 0x2484 JUMP JUMPDEST SWAP3 POP POP PUSH1 0xE0 PUSH2 0x274A DUP12 DUP3 DUP13 ADD PUSH2 0x1E36 JUMP JUMPDEST SWAP2 POP POP SWAP3 SWAP6 SWAP9 POP SWAP3 SWAP6 SWAP9 SWAP1 SWAP4 SWAP7 POP JUMP JUMPDEST PUSH1 0x0 DUP1 PUSH1 0x40 DUP4 DUP6 SUB SLT ISZERO PUSH2 0x2771 JUMPI PUSH2 0x2770 PUSH2 0x1C02 JUMP JUMPDEST JUMPDEST PUSH1 0x0 PUSH2 0x277F DUP6 DUP3 DUP7 ADD PUSH2 0x1C55 JUMP JUMPDEST SWAP3 POP POP PUSH1 0x20 PUSH2 0x2790 DUP6 DUP3 DUP7 ADD PUSH2 0x1E36 JUMP JUMPDEST SWAP2 POP POP SWAP3 POP SWAP3 SWAP1 POP JUMP JUMPDEST PUSH32 0x4E487B7100000000000000000000000000000000000000000000000000000000 PUSH1 0x0 MSTORE PUSH1 0x22 PUSH1 0x4 MSTORE PUSH1 0x24 PUSH1 0x0 REVERT JUMPDEST PUSH1 0x0 PUSH1 0x2 DUP3 DIV SWAP1 POP PUSH1 0x1 DUP3 AND DUP1 PUSH2 0x27E1 JUMPI PUSH1 0x7F DUP3 AND SWAP2 POP JUMPDEST PUSH1 0x20 DUP3 LT DUP2 SUB PUSH2 0x27F4 JUMPI PUSH2 0x27F3 PUSH2 0x279A JUMP JUMPDEST JUMPDEST POP SWAP2 SWAP1 POP JUMP JUMPDEST PUSH1 0x0 DUP2 SWAP1 POP DUP2 PUSH1 0x0 MSTORE PUSH1 0x20 PUSH1 0x0 KECCAK256 SWAP1 POP SWAP2 SWAP1 POP JUMP JUMPDEST PUSH1 0x0 PUSH1 0x20 PUSH1 0x1F DUP4 ADD DIV SWAP1 POP SWAP2 SWAP1 POP JUMP JUMPDEST PUSH1 0x0 DUP3 DUP3 SHL SWAP1 POP SWAP3 SWAP2 POP POP JUMP JUMPDEST PUSH1 0x0 PUSH1 0x8 DUP4 MUL PUSH2 0x285C PUSH32 0xFFFFFFFFFFFFFFFFFFFFFFFFFFFFFFFFFFFFFFFFFFFFFFFFFFFFFFFFFFFFFFFF DUP3 PUSH2 0x281F JUMP JUMPDEST PUSH2 0x2866 DUP7 DUP4 PUSH2 0x281F JUMP JUMPDEST SWAP6 POP DUP1 NOT DUP5 AND SWAP4 POP DUP1 DUP7 AND DUP5 OR SWAP3 POP POP POP SWAP4 SWAP3 POP POP POP JUMP JUMPDEST PUSH1 0x0 DUP2 SWAP1 POP SWAP2 SWAP1 POP JUMP JUMPDEST PUSH1 0x0 PUSH2 0x28A3 PUSH2 0x289E PUSH2 0x2899 DUP5 PUSH2 0x1D36 JUMP JUMPDEST PUSH2 0x287E JUMP JUMPDEST PUSH2 0x1D36 JUMP JUMPDEST SWAP1 POP SWAP2 SWAP1 POP JUMP JUMPDEST PUSH1 0x0 DUP2 SWAP1 POP SWAP2 SWAP1 POP JUMP JUMPDEST PUSH2 0x28BD DUP4 PUSH2 0x2888 JUMP JUMPDEST PUSH2 0x28D1 PUSH2 0x28C9 DUP3 PUSH2 0x28AA JUMP JUMPDEST DUP5 DUP5 SLOAD PUSH2 0x282C JUMP JUMPDEST DUP3 SSTORE POP POP POP POP JUMP JUMPDEST PUSH1 0x0 SWAP1 JUMP JUMPDEST PUSH2 0x28E6 PUSH2 0x28D9 JUMP JUMPDEST PUSH2 0x28F1 DUP2 DUP5 DUP5 PUSH2 0x28B4 JUMP JUMPDEST POP POP POP JUMP JUMPDEST JUMPDEST DUP2 DUP2 LT ISZERO PUSH2 0x2915 JUMPI PUSH2 0x290A PUSH1 0x0 DUP3 PUSH2 0x28DE JUMP JUMPDEST PUSH1 0x1 DUP2 ADD SWAP1 POP PUSH2 0x28F7 JUMP JUMPDEST POP POP JUMP JUMPDEST PUSH1 0x1F DUP3 GT ISZERO PUSH2 0x295A JUMPI PUSH2 0x292B DUP2 PUSH2 0x27FA JUMP JUMPDEST PUSH2 0x2934 DUP5 PUSH2 0x280F JUMP JUMPDEST DUP2 ADD PUSH1 0x20 DUP6 LT ISZERO PUSH2 0x2943 JUMPI DUP2 SWAP1 POP JUMPDEST PUSH2 0x2957 PUSH2 0x294F DUP6 PUSH2 0x280F JUMP JUMPDEST DUP4 ADD DUP3 PUSH2 0x28F6 JUMP JUMPDEST POP POP JUMPDEST POP POP POP JUMP JUMPDEST PUSH1 0x0 DUP3 DUP3 SHR SWAP1 POP SWAP3 SWAP2 POP POP JUMP JUMPDEST PUSH1 0x0 PUSH2 0x297D PUSH1 0x0 NOT DUP5 PUSH1 0x8 MUL PUSH2 0x295F JUMP JUMPDEST NOT DUP1 DUP4 AND SWAP2 POP POP SWAP3 SWAP2 POP POP JUMP JUMPDEST PUSH1 0x0 PUSH2 0x2996 DUP4 DUP4 PUSH2 0x296C JUMP JUMPDEST SWAP2 POP DUP3 PUSH1 0x2 MUL DUP3 OR SWAP1 POP SWAP3 SWAP2 POP POP JUMP JUMPDEST PUSH2 0x29AF DUP3 PUSH2 0x1CA6 JUMP JUMPDEST PUSH8 0xFFFFFFFFFFFFFFFF DUP2 GT ISZERO PUSH2 0x29C8 JUMPI PUSH2 0x29C7 PUSH2 0x22A1 JUMP JUMPDEST JUMPDEST PUSH2 0x29D2 DUP3 SLOAD PUSH2 0x27C9 JUMP JUMPDEST PUSH2 0x29DD DUP3 DUP3 DUP6 PUSH2 0x2919 JUMP JUMPDEST PUSH1 0x0 PUSH1 0x20 SWAP1 POP PUSH1 0x1F DUP4 GT PUSH1 0x1 DUP2 EQ PUSH2 0x2A10 JUMPI PUSH1 0x0 DUP5 ISZERO PUSH2 0x29FE JUMPI DUP3 DUP8 ADD MLOAD SWAP1 POP JUMPDEST PUSH2 0x2A08 DUP6 DUP3 PUSH2 0x298A JUMP JUMPDEST DUP7 SSTORE POP PUSH2 0x2A70 JUMP JUMPDEST PUSH1 0x1F NOT DUP5 AND PUSH2 0x2A1E DUP7 PUSH2 0x27FA JUMP JUMPDEST PUSH1 0x0 JUMPDEST DUP3 DUP2 LT ISZERO PUSH2 0x2A46 JUMPI DUP5 DUP10 ADD MLOAD DUP3 SSTORE PUSH1 0x1 DUP3 ADD SWAP2 POP PUSH1 0x20 DUP6 ADD SWAP5 POP PUSH1 0x20 DUP2 ADD SWAP1 POP PUSH2 0x2A21 JUMP JUMPDEST DUP7 DUP4 LT ISZERO PUSH2 0x2A63 JUMPI DUP5 DUP10 ADD MLOAD PUSH2 0x2A5F PUSH1 0x1F DUP10 AND DUP3 PUSH2 0x296C JUMP JUMPDEST DUP4 SSTORE POP JUMPDEST PUSH1 0x1 PUSH1 0x2 DUP9 MUL ADD DUP9 SSTORE POP POP POP JUMPDEST POP POP POP POP POP POP JUMP JUMPDEST PUSH32 0x4E42570000000000000000000000000000000000000000000000000000000000 PUSH1 0x0 DUP3 ADD MSTORE POP JUMP JUMPDEST PUSH1 0x0 PUSH2 0x2AAE PUSH1 0x3 DUP4 PUSH2 0x1CB1 JUMP JUMPDEST SWAP2 POP PUSH2 0x2AB9 DUP3 PUSH2 0x2A78 JUMP JUMPDEST PUSH1 0x20 DUP3 ADD SWAP1 POP SWAP2 SWAP1 POP JUMP JUMPDEST PUSH1 0x0 PUSH1 0x20 DUP3 ADD SWAP1 POP DUP2 DUP2 SUB PUSH1 0x0 DUP4 ADD MSTORE PUSH2 0x2ADD DUP2 PUSH2 0x2AA1 JUMP JUMPDEST SWAP1 POP SWAP2 SWAP1 POP JUMP JUMPDEST PUSH32 0x4E487B7100000000000000000000000000000000000000000000000000000000 PUSH1 0x0 MSTORE PUSH1 0x11 PUSH1 0x4 MSTORE PUSH1 0x24 PUSH1 0x0 REVERT JUMPDEST PUSH1 0x0 PUSH2 0x2B1E DUP3 PUSH2 0x1D36 JUMP JUMPDEST SWAP2 POP PUSH2 0x2B29 DUP4 PUSH2 0x1D36 JUMP JUMPDEST SWAP3 POP DUP3 DUP3 MUL PUSH2 0x2B37 DUP2 PUSH2 0x1D36 JUMP JUMPDEST SWAP2 POP DUP3 DUP3 DIV DUP5 EQ DUP4 ISZERO OR PUSH2 0x2B4E JUMPI PUSH2 0x2B4D PUSH2 0x2AE4 JUMP JUMPDEST JUMPDEST POP SWAP3 SWAP2 POP POP JUMP JUMPDEST PUSH32 0x4E487B7100000000000000000000000000000000000000000000000000000000 PUSH1 0x0 MSTORE PUSH1 0x12 PUSH1 0x4 MSTORE PUSH1 0x24 PUSH1 0x0 REVERT JUMPDEST PUSH1 0x0 PUSH2 0x2B8F DUP3 PUSH2 0x1D36 JUMP JUMPDEST SWAP2 POP PUSH2 0x2B9A DUP4 PUSH2 0x1D36 JUMP JUMPDEST SWAP3 POP DUP3 PUSH2 0x2BAA JUMPI PUSH2 0x2BA9 PUSH2 0x2B55 JUMP JUMPDEST JUMPDEST DUP3 DUP3 DIV SWAP1 POP SWAP3 SWAP2 POP POP JUMP JUMPDEST PUSH1 0x0 DUP2 SWAP1 POP SWAP3 SWAP2 POP POP JUMP JUMPDEST POP JUMP JUMPDEST PUSH1 0x0 PUSH2 0x2BD0 PUSH1 0x0 DUP4 PUSH2 0x2BB5 JUMP JUMPDEST SWAP2 POP PUSH2 0x2BDB DUP3 PUSH2 0x2BC0 JUMP JUMPDEST PUSH1 0x0 DUP3 ADD SWAP1 POP SWAP2 SWAP1 POP JUMP JUMPDEST PUSH1 0x0 PUSH2 0x2BF1 DUP3 PUSH2 0x2BC3 JUMP JUMPDEST SWAP2 POP DUP2 SWAP1 POP SWAP2 SWAP1 POP JUMP JUMPDEST PUSH32 0x5446000000000000000000000000000000000000000000000000000000000000 PUSH1 0x0 DUP3 ADD MSTORE POP JUMP JUMPDEST PUSH1 0x0 PUSH2 0x2C31 PUSH1 0x2 DUP4 PUSH2 0x1CB1 JUMP JUMPDEST SWAP2 POP PUSH2 0x2C3C DUP3 PUSH2 0x2BFB JUMP JUMPDEST PUSH1 0x20 DUP3 ADD SWAP1 POP SWAP2 SWAP1 POP JUMP JUMPDEST PUSH1 0x0 PUSH1 0x20 DUP3 ADD SWAP1 POP DUP2 DUP2 SUB PUSH1 0x0 DUP4 ADD MSTORE PUSH2 0x2C60 DUP2 PUSH2 0x2C24 JUMP JUMPDEST SWAP1 POP SWAP2 SWAP1 POP JUMP JUMPDEST PUSH1 0x0 PUSH1 0x40 DUP3 ADD SWAP1 POP PUSH2 0x2C7C PUSH1 0x0 DUP4 ADD DUP6 PUSH2 0x1C97 JUMP JUMPDEST PUSH2 0x2C89 PUSH1 0x20 DUP4 ADD DUP5 PUSH2 0x1D40 JUMP JUMPDEST SWAP4 SWAP3 POP POP POP JUMP JUMPDEST PUSH1 0x0 PUSH2 0x2C9B DUP3 PUSH2 0x1D36 JUMP JUMPDEST SWAP2 POP PUSH32 0xFFFFFFFFFFFFFFFFFFFFFFFFFFFFFFFFFFFFFFFFFFFFFFFFFFFFFFFFFFFFFFFF DUP3 SUB PUSH2 0x2CCD JUMPI PUSH2 0x2CCC PUSH2 0x2AE4 JUMP JUMPDEST JUMPDEST PUSH1 0x1 DUP3 ADD SWAP1 POP SWAP2 SWAP1 POP JUMP JUMPDEST PUSH1 0x0 DUP3 DUP3 MSTORE PUSH1 0x20 DUP3 ADD SWAP1 POP SWAP3 SWAP2 POP POP JUMP JUMPDEST PUSH1 0x0 PUSH2 0x2CF4 DUP3 PUSH2 0x1F94 JUMP JUMPDEST PUSH2 0x2CFE DUP2 DUP6 PUSH2 0x2CD8 JUMP JUMPDEST SWAP4 POP DUP4 PUSH1 0x20 DUP3 MUL DUP6 ADD PUSH2 0x2D10 DUP6 PUSH2 0x1FB0 JUMP JUMPDEST DUP1 PUSH1 0x0 JUMPDEST DUP6 DUP2 LT ISZERO PUSH2 0x2D4C JUMPI DUP5 DUP5 SUB DUP10 MSTORE DUP2 MLOAD PUSH2 0x2D2D DUP6 DUP3 PUSH2 0x1FC0 JUMP JUMPDEST SWAP5 POP PUSH2 0x2D38 DUP4 PUSH2 0x1FD4 JUMP JUMPDEST SWAP3 POP PUSH1 0x20 DUP11 ADD SWAP10 POP POP PUSH1 0x1 DUP2 ADD SWAP1 POP PUSH2 0x2D14 JUMP JUMPDEST POP DUP3 SWAP8 POP DUP8 SWAP6 POP POP POP POP POP POP SWAP3 SWAP2 POP POP JUMP JUMPDEST PUSH1 0x0 PUSH1 0x60 DUP3 ADD SWAP1 POP PUSH2 0x2D73 PUSH1 0x0 DUP4 ADD DUP7 PUSH2 0x1C97 JUMP JUMPDEST DUP2 DUP2 SUB PUSH1 0x20 DUP4 ADD MSTORE PUSH2 0x2D85 DUP2 DUP6 PUSH2 0x2CE9 JUMP JUMPDEST SWAP1 POP PUSH2 0x2D94 PUSH1 0x40 DUP4 ADD DUP5 PUSH2 0x1D40 JUMP JUMPDEST SWAP5 SWAP4 POP POP POP POP JUMP INVALID LOG2 PUSH5 0x6970667358 0x22 SLT KECCAK256 0xCD GT MSTORE8 PUSH10 0xC5499BADA48C1AB44374 SDIV 0xDA 0xC0 SWAP11 PUSH28 0x31CC5F83DA2E682D81BBAAFAAD64736F6C6343000818003300000000 "},"gasEstimates":{"creation":{"codeDepositCost":"2346000","executionCost":"2516","totalCost":"2348516"},"external":{"allFreelancerAddresses(uint256)":"5000","editFreelancerProfile(string,string,string,string,string,string[],uint256)":"infinite","employers(address)":"infinite","escrowFunds(address,uint256)":"infinite","freelancers(address)":"infinite","getFreelancerByAddress(address)":"infinite","jobs(uint256)":"infinite","owner()":"2534","registerFreelancer(address,string,string,string,string,string,string[],uint256)":"infinite","roles(address)":"2912","totalCompletedJobs()":"2475","totalEmployers()":"2519","totalFreelancers()":"2518","totalJobs()":"2544","walletToUser(address)":"infinite","withdrawEarnings()":"infinite"}},"methodIdentifiers":{"allFreelancerAddresses(uint256)":"c27a9dd4","editFreelancerProfile(string,string,string,string,string,string[],uint256)":"91ca1687","employers(address)":"0be435bd","escrowFunds(address,uint256)":"fcafae11","freelancers(address)":"21bd6693","getFreelancerByAddress(address)":"1c7af7a0","jobs(uint256)":"180aedf3","owner()":"8da5cb5b","registerFreelancer(address,string,string,string,string,string,string[],uint256)":"c151f3c6","roles(address)":"99374642","totalCompletedJobs()":"1033397b","totalEmployers()":"1906b4ce","totalFreelancers()":"5e586eb1","totalJobs()":"1ace87b3","walletToUser(address)":"ef8de2d8","withdrawEarnings()":"b73c6ce9"}},"storageLayout":{"storage":[{"astId":1460,"contract":"contracts/FreelancerLogic.sol:FreelancerLogic","label":"owner","offset":0,"slot":"0","type":"t_address"},{"astId":1462,"contract":"contracts/FreelancerLogic.sol:FreelancerLogic","label":"totalJobs","offset":20,"slot":"0","type":"t_uint8"},{"astId":1464,"contract":"contracts/FreelancerLogic.sol:FreelancerLogic","label":"totalFreelancers","offset":0,"slot":"1","type":"t_uint256"},{"astId":1466,"contract":"contracts/FreelancerLogic.sol:FreelancerLogic","label":"totalEmployers","offset":0,"slot":"2","type":"t_uint256"},{"astId":1468,"contract":"contracts/FreelancerLogic.sol:FreelancerLogic","label":"totalCompletedJobs","offset":0,"slot":"3","type":"t_uint256"},{"astId":1534,"contract":"contracts/FreelancerLogic.sol:FreelancerLogic","label":"jobs","offset":0,"slot":"4","type":"t_mapping(t_uint256,t_struct(Job)1486_storage)"},{"astId":1539,"contract":"contracts/FreelancerLogic.sol:FreelancerLogic","label":"freelancers","offset":0,"slot":"5","type":"t_mapping(t_address,t_struct(Freelancer)1512_storage)"},{"astId":1544,"contract":"contracts/FreelancerLogic.sol:FreelancerLogic","label":"employers","offset":0,"slot":"6","type":"t_mapping(t_address,t_struct(Employer)1529_storage)"},{"astId":1550,"contract":"contracts/FreelancerLogic.sol:FreelancerLogic","label":"escrowFunds","offset":0,"slot":"7","type":"t_mapping(t_address,t_mapping(t_uint256,t_uint256))"},{"astId":1554,"contract":"contracts/FreelancerLogic.sol:FreelancerLogic","label":"roles","offset":0,"slot":"8","type":"t_mapping(t_address,t_uint8)"},{"astId":1557,"contract":"contracts/FreelancerLogic.sol:FreelancerLogic","label":"allFreelancerAddresses","offset":0,"slot":"9","type":"t_array(t_address)dyn_storage"},{"astId":1561,"contract":"contracts/FreelancerLogic.sol:FreelancerLogic","label":"walletToUser","offset":0,"slot":"10","type":"t_mapping(t_address,t_address)"}],"types":{"t_address":{"encoding":"inplace","label":"address","numberOfBytes":"20"},"t_array(t_address)dyn_storage":{"base":"t_address","encoding":"dynamic_array","label":"address[]","numberOfBytes":"32"},"t_array(t_string_storage)dyn_storage":{"base":"t_string_storage","encoding":"dynamic_array","label":"string[]","numberOfBytes":"32"},"t_bool":{"encoding":"inplace","label":"bool","numberOfBytes":"1"},"t_mapping(t_address,t_address)":{"encoding":"mapping","key":"t_address","label":"mapping(address => address)","numberOfBytes":"32","value":"t_address"},"t_mapping(t_address,t_mapping(t_uint256,t_uint256))":{"encoding":"mapping","key":"t_address","label":"mapping(address => mapping(uint256 => uint256))","numberOfBytes":"32","value":"t_mapping(t_uint256,t_uint256)"},"t_mapping(t_address,t_struct(Employer)1529_storage)":{"encoding":"mapping","key":"t_address","label":"mapping(address => struct Storage.Employer)","numberOfBytes":"32","value":"t_struct(Employer)1529_storage"},"t_mapping(t_address,t_struct(Freelancer)1512_storage)":{"encoding":"mapping","key":"t_address","label":"mapping(address => struct Storage.Freelancer)","numberOfBytes":"32","value":"t_struct(Freelancer)1512_storage"},"t_mapping(t_address,t_uint8)":{"encoding":"mapping","key":"t_address","label":"mapping(address => uint8)","numberOfBytes":"32","value":"t_uint8"},"t_mapping(t_uint256,t_struct(Job)1486_storage)":{"encoding":"mapping","key":"t_uint256","label":"mapping(uint256 => struct Storage.Job)","numberOfBytes":"32","value":"t_struct(Job)1486_storage"},"t_mapping(t_uint256,t_uint256)":{"encoding":"mapping","key":"t_uint256","label":"mapping(uint256 => uint256)","numberOfBytes":"32","value":"t_uint256"},"t_string_storage":{"encoding":"bytes","label":"string","numberOfBytes":"32"},"t_struct(Employer)1529_storage":{"encoding":"inplace","label":"struct Storage.Employer","members":[{"astId":1514,"contract":"contracts/FreelancerLogic.sol:FreelancerLogic","label":"employerAddress","offset":0,"slot":"0","type":"t_address"},{"astId":1516,"contract":"contracts/FreelancerLogic.sol:FreelancerLogic","label":"name","offset":0,"slot":"1","type":"t_string_storage"},{"astId":1518,"contract":"contracts/FreelancerLogic.sol:FreelancerLogic","label":"industry","offset":0,"slot":"2","type":"t_string_storage"},{"astId":1520,"contract":"contracts/FreelancerLogic.sol:FreelancerLogic","label":"balance","offset":0,"slot":"3","type":"t_uint256"},{"astId":1522,"contract":"contracts/FreelancerLogic.sol:FreelancerLogic","label":"country","offset":0,"slot":"4","type":"t_string_storage"},{"astId":1524,"contract":"contracts/FreelancerLogic.sol:FreelancerLogic","label":"image","offset":0,"slot":"5","type":"t_string_storage"},{"astId":1526,"contract":"contracts/FreelancerLogic.sol:FreelancerLogic","label":"registered","offset":0,"slot":"6","type":"t_bool"},{"astId":1528,"contract":"contracts/FreelancerLogic.sol:FreelancerLogic","label":"registration_date","offset":0,"slot":"7","type":"t_uint256"}],"numberOfBytes":"256"},"t_struct(Freelancer)1512_storage":{"encoding":"inplace","label":"struct Storage.Freelancer","members":[{"astId":1488,"contract":"contracts/FreelancerLogic.sol:FreelancerLogic","label":"freelancerAddress","offset":0,"slot":"0","type":"t_address"},{"astId":1490,"contract":"contracts/FreelancerLogic.sol:FreelancerLogic","label":"name","offset":0,"slot":"1","type":"t_string_storage"},{"astId":1492,"contract":"contracts/FreelancerLogic.sol:FreelancerLogic","label":"skills","offset":0,"slot":"2","type":"t_string_storage"},{"astId":1494,"contract":"contracts/FreelancerLogic.sol:FreelancerLogic","label":"balance","offset":0,"slot":"3","type":"t_uint256"},{"astId":1496,"contract":"contracts/FreelancerLogic.sol:FreelancerLogic","label":"country","offset":0,"slot":"4","type":"t_string_storage"},{"astId":1498,"contract":"contracts/FreelancerLogic.sol:FreelancerLogic","label":"gigTitle","offset":0,"slot":"5","type":"t_string_storage"},{"astId":1500,"contract":"contracts/FreelancerLogic.sol:FreelancerLogic","label":"gitDescription","offset":0,"slot":"6","type":"t_string_storage"},{"astId":1503,"contract":"contracts/FreelancerLogic.sol:FreelancerLogic","label":"images","offset":0,"slot":"7","type":"t_array(t_string_storage)dyn_storage"},{"astId":1505,"contract":"contracts/FreelancerLogic.sol:FreelancerLogic","label":"jobsCompleted","offset":0,"slot":"8","type":"t_uint256"},{"astId":1507,"contract":"contracts/FreelancerLogic.sol:FreelancerLogic","label":"registered","offset":0,"slot":"9","type":"t_bool"},{"astId":1509,"contract":"contracts/FreelancerLogic.sol:FreelancerLogic","label":"registration_date","offset":0,"slot":"10","type":"t_uint256"},{"astId":1511,"contract":"contracts/FreelancerLogic.sol:FreelancerLogic","label":"starting_price","offset":0,"slot":"11","type":"t_uint256"}],"numberOfBytes":"384"},"t_struct(Job)1486_storage":{"encoding":"inplace","label":"struct Storage.Job","members":[{"astId":1470,"contract":"contracts/FreelancerLogic.sol:FreelancerLogic","label":"id","offset":0,"slot":"0","type":"t_uint8"},{"astId":1472,"contract":"contracts/FreelancerLogic.sol:FreelancerLogic","label":"employer","offset":1,"slot":"0","type":"t_address"},{"astId":1474,"contract":"contracts/FreelancerLogic.sol:FreelancerLogic","label":"title","offset":0,"slot":"1","type":"t_string_storage"},{"astId":1476,"contract":"contracts/FreelancerLogic.sol:FreelancerLogic","label":"description","offset":0,"slot":"2","type":"t_string_storage"},{"astId":1478,"contract":"contracts/FreelancerLogic.sol:FreelancerLogic","label":"budget","offset":0,"slot":"3","type":"t_uint256"},{"astId":1480,"contract":"contracts/FreelancerLogic.sol:FreelancerLogic","label":"completed","offset":0,"slot":"4","type":"t_bool"},{"astId":1483,"contract":"contracts/FreelancerLogic.sol:FreelancerLogic","label":"applicants","offset":0,"slot":"5","type":"t_array(t_address)dyn_storage"},{"astId":1485,"contract":"contracts/FreelancerLogic.sol:FreelancerLogic","label":"hiredFreelancer","offset":0,"slot":"6","type":"t_address"}],"numberOfBytes":"224"},"t_uint256":{"encoding":"inplace","label":"uint256","numberOfBytes":"32"},"t_uint8":{"encoding":"inplace","label":"uint8","numberOfBytes":"1"}}},"userdoc":{"kind":"user","methods":{},"version":1}}}}