{"contracts/Freelancer.sol":{"Dfreelancer":{"abi":[{"inputs":[],"name":"AlreadyRegistered","type":"error"},{"inputs":[],"name":"WrongRole","type":"error"},{"anonymous":false,"inputs":[{"indexed":false,"internalType":"uint256","name":"jobId","type":"uint256"},{"indexed":false,"internalType":"address","name":"employerAddress","type":"address"},{"indexed":false,"internalType":"address","name":"freelancerAddress","type":"address"}],"name":"AppliedForJob","type":"event"},{"anonymous":false,"inputs":[{"indexed":false,"internalType":"address","name":"EmployerAddress","type":"address"},{"indexed":false,"internalType":"string","name":"name","type":"string"}],"name":"EmployerRegistered","type":"event"},{"anonymous":false,"inputs":[{"indexed":false,"internalType":"address","name":"freelancerAddress","type":"address"},{"indexed":false,"internalType":"string[]","name":"name","type":"string[]"},{"indexed":false,"internalType":"uint256","name":"amount","type":"uint256"}],"name":"FreelancerRegistered","type":"event"},{"anonymous":false,"inputs":[{"indexed":false,"internalType":"uint256","name":"jobId","type":"uint256"},{"indexed":false,"internalType":"address","name":"sender","type":"address"},{"indexed":false,"internalType":"uint256","name":"amount","type":"uint256"}],"name":"FundsDeposited","type":"event"},{"anonymous":false,"inputs":[{"indexed":false,"internalType":"uint256","name":"jobId","type":"uint256"},{"indexed":false,"internalType":"address","name":"freelancerAddress","type":"address"},{"indexed":false,"internalType":"uint256","name":"amount","type":"uint256"}],"name":"FundsReleased","type":"event"},{"anonymous":false,"inputs":[{"indexed":false,"internalType":"uint256","name":"jobId","type":"uint256"},{"indexed":false,"internalType":"address","name":"freelancerAddress","type":"address"},{"indexed":false,"internalType":"uint256","name":"payment","type":"uint256"}],"name":"JobCompleted","type":"event"},{"anonymous":false,"inputs":[{"indexed":false,"internalType":"uint256","name":"jobId","type":"uint256"},{"indexed":false,"internalType":"string","name":"title","type":"string"}],"name":"JobCreated","type":"event"},{"anonymous":false,"inputs":[{"indexed":false,"internalType":"address","name":"freelancer","type":"address"},{"indexed":false,"internalType":"uint256","name":"amount","type":"uint256"}],"name":"WithdrawFund","type":"event"},{"inputs":[{"internalType":"uint256","name":"","type":"uint256"}],"name":"allFreelancerAddresses","outputs":[{"internalType":"address","name":"","type":"address"}],"stateMutability":"view","type":"function"},{"inputs":[],"name":"allJobs","outputs":[{"components":[{"internalType":"uint8","name":"id","type":"uint8"},{"internalType":"address","name":"employer","type":"address"},{"internalType":"string","name":"title","type":"string"},{"internalType":"string","name":"description","type":"string"},{"internalType":"uint256","name":"budget","type":"uint256"},{"internalType":"bool","name":"completed","type":"bool"},{"internalType":"address[]","name":"applicants","type":"address[]"},{"internalType":"address","name":"hiredFreelancer","type":"address"}],"internalType":"struct Djob.Job[]","name":"props","type":"tuple[]"}],"stateMutability":"view","type":"function"},{"inputs":[{"internalType":"uint256","name":"jobId","type":"uint256"}],"name":"applyForJob","outputs":[],"stateMutability":"nonpayable","type":"function"},{"inputs":[{"internalType":"uint256","name":"jobId","type":"uint256"},{"internalType":"address","name":"freelancerAddress","type":"address"}],"name":"completeJob","outputs":[],"stateMutability":"nonpayable","type":"function"},{"inputs":[{"internalType":"string","name":"_title","type":"string"},{"internalType":"string","name":"_description","type":"string"},{"internalType":"uint256","name":"_budget","type":"uint256"}],"name":"createJob","outputs":[],"stateMutability":"nonpayable","type":"function"},{"inputs":[{"internalType":"uint256","name":"jobId","type":"uint256"}],"name":"depositFunds","outputs":[],"stateMutability":"payable","type":"function"},{"inputs":[{"internalType":"address","name":"","type":"address"}],"name":"employers","outputs":[{"internalType":"address","name":"employerAddress","type":"address"},{"internalType":"string","name":"name","type":"string"},{"internalType":"string","name":"industry","type":"string"},{"internalType":"uint256","name":"balance","type":"uint256"},{"internalType":"string","name":"country","type":"string"},{"internalType":"string","name":"image","type":"string"},{"internalType":"bool","name":"registered","type":"bool"},{"internalType":"uint256","name":"registration_date","type":"uint256"}],"stateMutability":"view","type":"function"},{"inputs":[{"internalType":"address","name":"","type":"address"}],"name":"freelancers","outputs":[{"internalType":"address","name":"freelancerAddress","type":"address"},{"internalType":"string","name":"name","type":"string"},{"internalType":"string","name":"skills","type":"string"},{"internalType":"uint256","name":"balance","type":"uint256"},{"internalType":"string","name":"country","type":"string"},{"internalType":"string","name":"gigTitle","type":"string"},{"internalType":"string","name":"gitDescription","type":"string"},{"internalType":"uint256","name":"jobsCompleted","type":"uint256"},{"internalType":"bool","name":"registered","type":"bool"},{"internalType":"uint256","name":"registration_date","type":"uint256"},{"internalType":"uint256","name":"starting_price","type":"uint256"}],"stateMutability":"view","type":"function"},{"inputs":[],"name":"getAllFreelancers","outputs":[{"components":[{"internalType":"address","name":"freelancerAddress","type":"address"},{"internalType":"string","name":"name","type":"string"},{"internalType":"string","name":"skills","type":"string"},{"internalType":"uint256","name":"balance","type":"uint256"},{"internalType":"string","name":"country","type":"string"},{"internalType":"string","name":"gigTitle","type":"string"},{"internalType":"string","name":"gitDescription","type":"string"},{"internalType":"string[]","name":"images","type":"string[]"},{"internalType":"uint256","name":"jobsCompleted","type":"uint256"},{"internalType":"bool","name":"registered","type":"bool"},{"internalType":"uint256","name":"registration_date","type":"uint256"},{"internalType":"uint256","name":"starting_price","type":"uint256"}],"internalType":"struct Djob.Freelancer[]","name":"","type":"tuple[]"}],"stateMutability":"view","type":"function"},{"inputs":[{"internalType":"address","name":"_employer","type":"address"}],"name":"getEmployerByAddress","outputs":[{"components":[{"internalType":"address","name":"employerAddress","type":"address"},{"internalType":"string","name":"name","type":"string"},{"internalType":"string","name":"industry","type":"string"},{"internalType":"uint256","name":"balance","type":"uint256"},{"internalType":"string","name":"country","type":"string"},{"internalType":"string","name":"image","type":"string"},{"internalType":"bool","name":"registered","type":"bool"},{"internalType":"uint256","name":"registration_date","type":"uint256"}],"internalType":"struct Djob.Employer","name":"props","type":"tuple"}],"stateMutability":"view","type":"function"},{"inputs":[{"internalType":"address","name":"_employer","type":"address"},{"internalType":"uint256","name":"_job_id","type":"uint256"}],"name":"getEmployerEscrow","outputs":[{"internalType":"uint256","name":"","type":"uint256"}],"stateMutability":"view","type":"function"},{"inputs":[{"internalType":"address","name":"_freelancer","type":"address"}],"name":"getFreelancerByAddress","outputs":[{"components":[{"internalType":"address","name":"freelancerAddress","type":"address"},{"internalType":"string","name":"name","type":"string"},{"internalType":"string","name":"skills","type":"string"},{"internalType":"uint256","name":"balance","type":"uint256"},{"internalType":"string","name":"country","type":"string"},{"internalType":"string","name":"gigTitle","type":"string"},{"internalType":"string","name":"gitDescription","type":"string"},{"internalType":"string[]","name":"images","type":"string[]"},{"internalType":"uint256","name":"jobsCompleted","type":"uint256"},{"internalType":"bool","name":"registered","type":"bool"},{"internalType":"uint256","name":"registration_date","type":"uint256"},{"internalType":"uint256","name":"starting_price","type":"uint256"}],"internalType":"struct Djob.Freelancer","name":"props","type":"tuple"}],"stateMutability":"view","type":"function"},{"inputs":[{"internalType":"uint256","name":"jobId","type":"uint256"}],"name":"getJobByID","outputs":[{"components":[{"internalType":"uint8","name":"id","type":"uint8"},{"internalType":"address","name":"employer","type":"address"},{"internalType":"string","name":"title","type":"string"},{"internalType":"string","name":"description","type":"string"},{"internalType":"uint256","name":"budget","type":"uint256"},{"internalType":"bool","name":"completed","type":"bool"},{"internalType":"address[]","name":"applicants","type":"address[]"},{"internalType":"address","name":"hiredFreelancer","type":"address"}],"internalType":"struct Djob.Job","name":"props","type":"tuple"}],"stateMutability":"view","type":"function"},{"inputs":[{"internalType":"uint256","name":"jobId","type":"uint256"},{"internalType":"address","name":"freelancerAddress","type":"address"}],"name":"hireFreelancer","outputs":[],"stateMutability":"nonpayable","type":"function"},{"inputs":[],"name":"owner","outputs":[{"internalType":"address","name":"","type":"address"}],"stateMutability":"view","type":"function"},{"inputs":[{"internalType":"string","name":"_name","type":"string"},{"internalType":"string","name":"_industry","type":"string"},{"internalType":"string","name":"_country","type":"string"},{"internalType":"string","name":"_imageURI","type":"string"}],"name":"registerEmployer","outputs":[],"stateMutability":"nonpayable","type":"function"},{"inputs":[{"internalType":"string","name":"_name","type":"string"},{"internalType":"string","name":"_skills","type":"string"},{"internalType":"string","name":"_country","type":"string"},{"internalType":"string","name":"_gigTitle","type":"string"},{"internalType":"string","name":"_gigDesc","type":"string"},{"internalType":"string[]","name":"_images","type":"string[]"},{"internalType":"uint256","name":"_starting_price","type":"uint256"}],"name":"registerFreelancer","outputs":[],"stateMutability":"nonpayable","type":"function"},{"inputs":[{"internalType":"uint256","name":"jobId","type":"uint256"},{"internalType":"address","name":"freelancerAddress","type":"address"}],"name":"releaseEscrow","outputs":[],"stateMutability":"nonpayable","type":"function"},{"inputs":[{"internalType":"address","name":"","type":"address"}],"name":"roles","outputs":[{"internalType":"uint8","name":"","type":"uint8"}],"stateMutability":"view","type":"function"},{"inputs":[],"name":"totalCompletedJobs","outputs":[{"internalType":"uint256","name":"","type":"uint256"}],"stateMutability":"view","type":"function"},{"inputs":[],"name":"totalEmployers","outputs":[{"internalType":"uint256","name":"","type":"uint256"}],"stateMutability":"view","type":"function"},{"inputs":[],"name":"totalFreelancers","outputs":[{"internalType":"uint256","name":"","type":"uint256"}],"stateMutability":"view","type":"function"},{"inputs":[],"name":"totalJobs","outputs":[{"internalType":"uint8","name":"","type":"uint8"}],"stateMutability":"view","type":"function"},{"inputs":[],"name":"withdrawEarnings","outputs":[],"stateMutability":"nonpayable","type":"function"}],"devdoc":{"kind":"dev","methods":{"allJobs()":{"returns":{"props":"props"}},"applyForJob(uint256)":{"params":{"jobId":", job id"}},"completeJob(uint256,address)":{"params":{"jobId":", @param freelancerAddress"}},"createJob(string,string,uint256)":{"params":{"_title":", @param _description, @param _budget"}},"depositFunds(uint256)":{"params":{"jobId":", job id"}},"getEmployerByAddress(address)":{"params":{"_employer":", address"},"returns":{"props":"props"}},"getEmployerEscrow(address,uint256)":{"params":{"_employer":", @param _job_id"},"returns":{"_0":"uint"}},"getFreelancerByAddress(address)":{"params":{"_freelancer":", address"},"returns":{"props":"props"}},"getJobByID(uint256)":{"params":{"jobId":", jobId"},"returns":{"props":"props"}},"hireFreelancer(uint256,address)":{"params":{"jobId":", @param freelancerAddress"}},"registerEmployer(string,string,string,string)":{"params":{"_name":", @param _industry"}},"registerFreelancer(string,string,string,string,string,string[],uint256)":{"params":{"_name":", @param _skills"}},"releaseEscrow(uint256,address)":{"params":{"jobId":", @param freelancerAddress"}}},"version":1},"evm":{"bytecode":{"linkReferences":{},"object":"608060405234801561001057600080fd5b50336000806101000a81548173ffffffffffffffffffffffffffffffffffffffff021916908373ffffffffffffffffffffffffffffffffffffffff160217905550615dfc80620000616000396000f3fe60806040526004361061014b5760003560e01c80636a6b67d1116100b6578063b73c6ce91161006f578063b73c6ce9146104ba578063c27a9dd4146104d1578063c6cb3bbe1461050e578063c8d1b6aa14610537578063dfac8ce514610562578063e0c94ae51461059f5761014b565b80636a6b67d11461039a57806373a06f42146103c35780637a787125146103ec5780638da5cb5b146104295780639937464214610454578063b0f26f18146104915761014b565b806321bd66931161010857806321bd66931461027b578063359b248c146102c2578063371ae9f4146102ed5780633b76594d1461032a57806358d7f895146103465780635e586eb11461036f5761014b565b80630be435bd146101505780630e553442146101945780631033397b146101bd5780631906b4ce146101e85780631ace87b3146102135780631c7af7a01461023e575b600080fd5b34801561015c57600080fd5b5061017760048036038101906101729190613ef4565b6105c8565b60405161018b989796959493929190613ff4565b60405180910390f35b3480156101a057600080fd5b506101bb60048036038101906101b691906141c3565b61085d565b005b3480156101c957600080fd5b506101d2610bb1565b6040516101df919061429a565b60405180910390f35b3480156101f457600080fd5b506101fd610bb7565b60405161020a919061429a565b60405180910390f35b34801561021f57600080fd5b50610228610bbd565b60405161023591906142d1565b60405180910390f35b34801561024a57600080fd5b5061026560048036038101906102609190613ef4565b610bd0565b604051610272919061454c565b60405180910390f35b34801561028757600080fd5b506102a2600480360381019061029d9190613ef4565b611076565b6040516102b99b9a9998979695949392919061456e565b60405180910390f35b3480156102ce57600080fd5b506102d76113a5565b6040516102e49190614825565b60405180910390f35b3480156102f957600080fd5b50610314600480360381019061030f9190614873565b611916565b6040516103219190614a1c565b60405180910390f35b610344600480360381019061033f9190614873565b611c45565b005b34801561035257600080fd5b5061036d60048036038101906103689190614b24565b611eb7565b005b34801561037b57600080fd5b506103846122d7565b604051610391919061429a565b60405180910390f35b3480156103a657600080fd5b506103c160048036038101906103bc9190614c6e565b6122dd565b005b3480156103cf57600080fd5b506103ea60048036038101906103e59190614cae565b612591565b005b3480156103f857600080fd5b50610413600480360381019061040e9190613ef4565b612895565b6040516104209190614dfe565b60405180910390f35b34801561043557600080fd5b5061043e612bbc565b60405161044b9190614e20565b60405180910390f35b34801561046057600080fd5b5061047b60048036038101906104769190613ef4565b612be0565b60405161048891906142d1565b60405180910390f35b34801561049d57600080fd5b506104b860048036038101906104b39190614c6e565b612c00565b005b3480156104c657600080fd5b506104cf612e26565b005b3480156104dd57600080fd5b506104f860048036038101906104f39190614873565b61304e565b6040516105059190614e20565b60405180910390f35b34801561051a57600080fd5b5061053560048036038101906105309190614c6e565b61308d565b005b34801561054357600080fd5b5061054c613479565b6040516105599190614fbb565b60405180910390f35b34801561056e57600080fd5b5061058960048036038101906105849190614fdd565b6137fa565b604051610596919061429a565b60405180910390f35b3480156105ab57600080fd5b506105c660048036038101906105c19190614873565b613855565b005b60076020528060005260406000206000915090508060000160009054906101000a900473ffffffffffffffffffffffffffffffffffffffff16908060010180546106119061504c565b80601f016020809104026020016040519081016040528092919081815260200182805461063d9061504c565b801561068a5780601f1061065f5761010080835404028352916020019161068a565b820191906000526020600020905b81548152906001019060200180831161066d57829003601f168201915b50505050509080600201805461069f9061504c565b80601f01602080910402602001604051908101604052809291908181526020018280546106cb9061504c565b80156107185780601f106106ed57610100808354040283529160200191610718565b820191906000526020600020905b8154815290600101906020018083116106fb57829003601f168201915b5050505050908060030154908060040180546107339061504c565b80601f016020809104026020016040519081016040528092919081815260200182805461075f9061504c565b80156107ac5780601f10610781576101008083540402835291602001916107ac565b820191906000526020600020905b81548152906001019060200180831161078f57829003601f168201915b5050505050908060050180546107c19061504c565b80601f01602080910402602001604051908101604052809291908181526020018280546107ed9061504c565b801561083a5780601f1061080f5761010080835404028352916020019161083a565b820191906000526020600020905b81548152906001019060200180831161081d57829003601f168201915b5050505050908060060160009054906101000a900460ff16908060070154905088565b6000600960003373ffffffffffffffffffffffffffffffffffffffff1673ffffffffffffffffffffffffffffffffffffffff16815260200190815260200160002060009054906101000a900460ff1660ff16146108e6576040517f3a81d6fc00000000000000000000000000000000000000000000000000000000815260040160405180910390fd5b60001515600760003373ffffffffffffffffffffffffffffffffffffffff1673ffffffffffffffffffffffffffffffffffffffff16815260200190815260200160002060060160009054906101000a900460ff1615151461097c576040517f08c379a0000000000000000000000000000000000000000000000000000000008152600401610973906150c9565b60405180910390fd5b600084511161098a57600080fd5b600083511161099857600080fd5b600260008154809291906109ab90615118565b91905055506001600960003373ffffffffffffffffffffffffffffffffffffffff1673ffffffffffffffffffffffffffffffffffffffff16815260200190815260200160002060006101000a81548160ff021916908360ff1602179055506040518061010001604052803373ffffffffffffffffffffffffffffffffffffffff1681526020018581526020018481526020016000815260200183815260200182815260200160011515815260200142815250600760003373ffffffffffffffffffffffffffffffffffffffff1673ffffffffffffffffffffffffffffffffffffffff16815260200190815260200160002060008201518160000160006101000a81548173ffffffffffffffffffffffffffffffffffffffff021916908373ffffffffffffffffffffffffffffffffffffffff1602179055506020820151816001019081610af8919061530c565b506040820151816002019081610b0e919061530c565b50606082015181600301556080820151816004019081610b2e919061530c565b5060a0820151816005019081610b44919061530c565b5060c08201518160060160006101000a81548160ff02191690831515021790555060e082015181600701559050507f6c0e8aabac6898602e5264c9a24b2394d9895a70bd2f4c44c8ca0fcfcec6477f3385604051610ba39291906153de565b60405180910390a150505050565b60035481565b60025481565b600060149054906101000a900460ff1681565b610bd8613bd2565b600660008373ffffffffffffffffffffffffffffffffffffffff1673ffffffffffffffffffffffffffffffffffffffff168152602001908152602001600020604051806101800160405290816000820160009054906101000a900473ffffffffffffffffffffffffffffffffffffffff1673ffffffffffffffffffffffffffffffffffffffff1673ffffffffffffffffffffffffffffffffffffffff168152602001600182018054610c899061504c565b80601f0160208091040260200160405190810160405280929190818152602001828054610cb59061504c565b8015610d025780601f10610cd757610100808354040283529160200191610d02565b820191906000526020600020905b815481529060010190602001808311610ce557829003601f168201915b50505050508152602001600282018054610d1b9061504c565b80601f0160208091040260200160405190810160405280929190818152602001828054610d479061504c565b8015610d945780601f10610d6957610100808354040283529160200191610d94565b820191906000526020600020905b815481529060010190602001808311610d7757829003601f168201915b5050505050815260200160038201548152602001600482018054610db79061504c565b80601f0160208091040260200160405190810160405280929190818152602001828054610de39061504c565b8015610e305780601f10610e0557610100808354040283529160200191610e30565b820191906000526020600020905b815481529060010190602001808311610e1357829003601f168201915b50505050508152602001600582018054610e499061504c565b80601f0160208091040260200160405190810160405280929190818152602001828054610e759061504c565b8015610ec25780601f10610e9757610100808354040283529160200191610ec2565b820191906000526020600020905b815481529060010190602001808311610ea557829003601f168201915b50505050508152602001600682018054610edb9061504c565b80601f0160208091040260200160405190810160405280929190818152602001828054610f079061504c565b8015610f545780601f10610f2957610100808354040283529160200191610f54565b820191906000526020600020905b815481529060010190602001808311610f3757829003601f168201915b5050505050815260200160078201805480602002602001604051908101604052809291908181526020016000905b8282101561102e578382906000526020600020018054610fa19061504c565b80601f0160208091040260200160405190810160405280929190818152602001828054610fcd9061504c565b801561101a5780601f10610fef5761010080835404028352916020019161101a565b820191906000526020600020905b815481529060010190602001808311610ffd57829003601f168201915b505050505081526020019060010190610f82565b505050508152602001600882015481526020016009820160009054906101000a900460ff16151515158152602001600a8201548152602001600b820154815250509050919050565b60066020528060005260406000206000915090508060000160009054906101000a900473ffffffffffffffffffffffffffffffffffffffff16908060010180546110bf9061504c565b80601f01602080910402602001604051908101604052809291908181526020018280546110eb9061504c565b80156111385780601f1061110d57610100808354040283529160200191611138565b820191906000526020600020905b81548152906001019060200180831161111b57829003601f168201915b50505050509080600201805461114d9061504c565b80601f01602080910402602001604051908101604052809291908181526020018280546111799061504c565b80156111c65780601f1061119b576101008083540402835291602001916111c6565b820191906000526020600020905b8154815290600101906020018083116111a957829003601f168201915b5050505050908060030154908060040180546111e19061504c565b80601f016020809104026020016040519081016040528092919081815260200182805461120d9061504c565b801561125a5780601f1061122f5761010080835404028352916020019161125a565b820191906000526020600020905b81548152906001019060200180831161123d57829003601f168201915b50505050509080600501805461126f9061504c565b80601f016020809104026020016040519081016040528092919081815260200182805461129b9061504c565b80156112e85780601f106112bd576101008083540402835291602001916112e8565b820191906000526020600020905b8154815290600101906020018083116112cb57829003601f168201915b5050505050908060060180546112fd9061504c565b80601f01602080910402602001604051908101604052809291908181526020018280546113299061504c565b80156113765780601f1061134b57610100808354040283529160200191611376565b820191906000526020600020905b81548152906001019060200180831161135957829003601f168201915b5050505050908060080154908060090160009054906101000a900460ff169080600a01549080600b015490508b565b6060600060015467ffffffffffffffff8111156113c5576113c4614098565b5b6040519080825280602002602001820160405280156113fe57816020015b6113eb613bd2565b8152602001906001900390816113e35790505b50905060005b60015481101561190e5760066000600483815481106114265761142561540e565b5b9060005260206000200160009054906101000a900473ffffffffffffffffffffffffffffffffffffffff1673ffffffffffffffffffffffffffffffffffffffff1673ffffffffffffffffffffffffffffffffffffffff168152602001908152602001600020604051806101800160405290816000820160009054906101000a900473ffffffffffffffffffffffffffffffffffffffff1673ffffffffffffffffffffffffffffffffffffffff1673ffffffffffffffffffffffffffffffffffffffff1681526020016001820180546114fd9061504c565b80601f01602080910402602001604051908101604052809291908181526020018280546115299061504c565b80156115765780601f1061154b57610100808354040283529160200191611576565b820191906000526020600020905b81548152906001019060200180831161155957829003601f168201915b5050505050815260200160028201805461158f9061504c565b80601f01602080910402602001604051908101604052809291908181526020018280546115bb9061504c565b80156116085780601f106115dd57610100808354040283529160200191611608565b820191906000526020600020905b8154815290600101906020018083116115eb57829003601f168201915b505050505081526020016003820154815260200160048201805461162b9061504c565b80601f01602080910402602001604051908101604052809291908181526020018280546116579061504c565b80156116a45780601f10611679576101008083540402835291602001916116a4565b820191906000526020600020905b81548152906001019060200180831161168757829003601f168201915b505050505081526020016005820180546116bd9061504c565b80601f01602080910402602001604051908101604052809291908181526020018280546116e99061504c565b80156117365780601f1061170b57610100808354040283529160200191611736565b820191906000526020600020905b81548152906001019060200180831161171957829003601f168201915b5050505050815260200160068201805461174f9061504c565b80601f016020809104026020016040519081016040528092919081815260200182805461177b9061504c565b80156117c85780601f1061179d576101008083540402835291602001916117c8565b820191906000526020600020905b8154815290600101906020018083116117ab57829003601f168201915b5050505050815260200160078201805480602002602001604051908101604052809291908181526020016000905b828210156118a25783829060005260206000200180546118159061504c565b80601f01602080910402602001604051908101604052809291908181526020018280546118419061504c565b801561188e5780601f106118635761010080835404028352916020019161188e565b820191906000526020600020905b81548152906001019060200180831161187157829003601f168201915b5050505050815260200190600101906117f6565b505050508152602001600882015481526020016009820160009054906101000a900460ff16151515158152602001600a8201548152602001600b820154815250508282815181106118f6576118f561540e565b5b60200260200101819052508080600101915050611404565b508091505090565b61191e613c4b565b6000821180156119405750600060149054906101000a900460ff1660ff168211155b61197f576040517f08c379a000000000000000000000000000000000000000000000000000000000815260040161197690615489565b60405180910390fd5b60056000838152602001908152602001600020604051806101000160405290816000820160009054906101000a900460ff1660ff1660ff1681526020016000820160019054906101000a900473ffffffffffffffffffffffffffffffffffffffff1673ffffffffffffffffffffffffffffffffffffffff1673ffffffffffffffffffffffffffffffffffffffff168152602001600182018054611a219061504c565b80601f0160208091040260200160405190810160405280929190818152602001828054611a4d9061504c565b8015611a9a5780601f10611a6f57610100808354040283529160200191611a9a565b820191906000526020600020905b815481529060010190602001808311611a7d57829003601f168201915b50505050508152602001600282018054611ab39061504c565b80601f0160208091040260200160405190810160405280929190818152602001828054611adf9061504c565b8015611b2c5780601f10611b0157610100808354040283529160200191611b2c565b820191906000526020600020905b815481529060010190602001808311611b0f57829003601f168201915b50505050508152602001600382015481526020016004820160009054906101000a900460ff1615151515815260200160058201805480602002602001604051908101604052809291908181526020018280548015611bdf57602002820191906000526020600020905b8160009054906101000a900473ffffffffffffffffffffffffffffffffffffffff1673ffffffffffffffffffffffffffffffffffffffff1681526020019060010190808311611b95575b505050505081526020016006820160009054906101000a900473ffffffffffffffffffffffffffffffffffffffff1673ffffffffffffffffffffffffffffffffffffffff1673ffffffffffffffffffffffffffffffffffffffff16815250509050919050565b600060149054906101000a900460ff1660ff168111158015611c675750600081115b611ca6576040517f08c379a0000000000000000000000000000000000000000000000000000000008152600401611c9d906154f5565b60405180910390fd5b60006005600083815260200190815260200160002090506000600760003373ffffffffffffffffffffffffffffffffffffffff1673ffffffffffffffffffffffffffffffffffffffff16815260200190815260200160002090503373ffffffffffffffffffffffffffffffffffffffff168260000160019054906101000a900473ffffffffffffffffffffffffffffffffffffffff1673ffffffffffffffffffffffffffffffffffffffff1614611d5c57600080fd5b8160040160009054906101000a900460ff1615611dae576040517f08c379a0000000000000000000000000000000000000000000000000000000008152600401611da590615561565b60405180910390fd5b8160030154341015611df5576040517f08c379a0000000000000000000000000000000000000000000000000000000008152600401611dec906155cd565b60405180910390fd5b34816003016000828254611e0991906155ed565b9250508190555034600860003373ffffffffffffffffffffffffffffffffffffffff1673ffffffffffffffffffffffffffffffffffffffff16815260200190815260200160002060008581526020019081526020016000206000828254611e7091906155ed565b925050819055507fe030e47e27825a2ad1b19e4cf2e70bfbfb3124af275c7727a82b114ba7b29a85833334604051611eaa93929190615621565b60405180910390a1505050565b6000600960003373ffffffffffffffffffffffffffffffffffffffff1673ffffffffffffffffffffffffffffffffffffffff16815260200190815260200160002060009054906101000a900460ff1660ff1614611f40576040517f3a81d6fc00000000000000000000000000000000000000000000000000000000815260040160405180910390fd5b60001515600660003373ffffffffffffffffffffffffffffffffffffffff1673ffffffffffffffffffffffffffffffffffffffff16815260200190815260200160002060090160009054906101000a900460ff16151514611fd6576040517f08c379a0000000000000000000000000000000000000000000000000000000008152600401611fcd906150c9565b60405180910390fd5b6000875111611fe457600080fd5b6000865111611ff257600080fd5b6001600081548092919061200590615118565b91905055506002600960003373ffffffffffffffffffffffffffffffffffffffff1673ffffffffffffffffffffffffffffffffffffffff16815260200190815260200160002060006101000a81548160ff021916908360ff1602179055506040518061018001604052803373ffffffffffffffffffffffffffffffffffffffff168152602001888152602001878152602001600081526020018681526020018581526020018481526020018381526020016000815260200160011515815260200142815260200182815250600660003373ffffffffffffffffffffffffffffffffffffffff1673ffffffffffffffffffffffffffffffffffffffff16815260200190815260200160002060008201518160000160006101000a81548173ffffffffffffffffffffffffffffffffffffffff021916908373ffffffffffffffffffffffffffffffffffffffff160217905550602082015181600101908161216b919061530c565b506040820151816002019081612181919061530c565b506060820151816003015560808201518160040190816121a1919061530c565b5060a08201518160050190816121b7919061530c565b5060c08201518160060190816121cd919061530c565b5060e08201518160070190805190602001906121ea929190613cc1565b5061010082015181600801556101208201518160090160006101000a81548160ff02191690831515021790555061014082015181600a015561016082015181600b01559050506004339080600181540180825580915050600190039060005260206000200160009091909190916101000a81548173ffffffffffffffffffffffffffffffffffffffff021916908373ffffffffffffffffffffffffffffffffffffffff1602179055507f21bef455eb0e77b12a579311ca8616d72216c8b628577eeda276ac16fe5b622e3383836040516122c6939291906156de565b60405180910390a150505050505050565b60015481565b6001600960003373ffffffffffffffffffffffffffffffffffffffff1673ffffffffffffffffffffffffffffffffffffffff16815260200190815260200160002060009054906101000a900460ff1660ff1614612366576040517f7669999000000000000000000000000000000000000000000000000000000000815260040160405180910390fd5b600060149054906101000a900460ff1660ff1682111580156123885750600082115b6123c7576040517f08c379a00000000000000000000000000000000000000000000000000000000081526004016123be90615768565b60405180910390fd5b6000600560008481526020019081526020016000209050600073ffffffffffffffffffffffffffffffffffffffff168160000160019054906101000a900473ffffffffffffffffffffffffffffffffffffffff1673ffffffffffffffffffffffffffffffffffffffff1603612471576040517f08c379a0000000000000000000000000000000000000000000000000000000008152600401612468906157d4565b60405180910390fd5b61247b8183613b65565b6124ba576040517f08c379a00000000000000000000000000000000000000000000000000000000081526004016124b190615840565b60405180910390fd5b60008160030154905060018260040160006101000a81548160ff021916908315150217905550600360008154809291906124f390615118565b9190505550600660008473ffffffffffffffffffffffffffffffffffffffff1673ffffffffffffffffffffffffffffffffffffffff168152602001908152602001600020600801600081548092919061254b90615118565b91905055507f4dbba472101e9f148a3a5ecbe793f0ee16a7efe4bf3f8cbfab5330e1642ef95584848360405161258393929190615621565b60405180910390a150505050565b6001600960003373ffffffffffffffffffffffffffffffffffffffff1673ffffffffffffffffffffffffffffffffffffffff16815260200190815260200160002060009054906101000a900460ff1660ff161461261a576040517f7669999000000000000000000000000000000000000000000000000000000000815260040160405180910390fd5b6000601481819054906101000a900460ff168092919061263990615860565b91906101000a81548160ff021916908360ff1602179055505060008060149054906101000a900460ff1690506040518061010001604052808260ff1681526020013373ffffffffffffffffffffffffffffffffffffffff168152602001858152602001848152602001838152602001600015158152602001600067ffffffffffffffff8111156126cc576126cb614098565b5b6040519080825280602002602001820160405280156126fa5781602001602082028036833780820191505090505b508152602001600073ffffffffffffffffffffffffffffffffffffffff16815250600560008360ff16815260200190815260200160002060008201518160000160006101000a81548160ff021916908360ff16021790555060208201518160000160016101000a81548173ffffffffffffffffffffffffffffffffffffffff021916908373ffffffffffffffffffffffffffffffffffffffff16021790555060408201518160010190816127ae919061530c565b5060608201518160020190816127c4919061530c565b506080820151816003015560a08201518160040160006101000a81548160ff02191690831515021790555060c082015181600501908051906020019061280b929190613d1a565b5060e08201518160060160006101000a81548173ffffffffffffffffffffffffffffffffffffffff021916908373ffffffffffffffffffffffffffffffffffffffff1602179055509050507fb63f0fdfb200b05c8b95fb4dcf8f8abd30f0b6884d532792e705afab4f37380a81856040516128879291906158ba565b60405180910390a150505050565b61289d613da4565b600760008373ffffffffffffffffffffffffffffffffffffffff1673ffffffffffffffffffffffffffffffffffffffff168152602001908152602001600020604051806101000160405290816000820160009054906101000a900473ffffffffffffffffffffffffffffffffffffffff1673ffffffffffffffffffffffffffffffffffffffff1673ffffffffffffffffffffffffffffffffffffffff16815260200160018201805461294e9061504c565b80601f016020809104026020016040519081016040528092919081815260200182805461297a9061504c565b80156129c75780601f1061299c576101008083540402835291602001916129c7565b820191906000526020600020905b8154815290600101906020018083116129aa57829003601f168201915b505050505081526020016002820180546129e09061504c565b80601f0160208091040260200160405190810160405280929190818152602001828054612a0c9061504c565b8015612a595780601f10612a2e57610100808354040283529160200191612a59565b820191906000526020600020905b815481529060010190602001808311612a3c57829003601f168201915b5050505050815260200160038201548152602001600482018054612a7c9061504c565b80601f0160208091040260200160405190810160405280929190818152602001828054612aa89061504c565b8015612af55780601f10612aca57610100808354040283529160200191612af5565b820191906000526020600020905b815481529060010190602001808311612ad857829003601f168201915b50505050508152602001600582018054612b0e9061504c565b80601f0160208091040260200160405190810160405280929190818152602001828054612b3a9061504c565b8015612b875780601f10612b5c57610100808354040283529160200191612b87565b820191906000526020600020905b815481529060010190602001808311612b6a57829003601f168201915b505050505081526020016006820160009054906101000a900460ff161515151581526020016007820154815250509050919050565b60008054906101000a900473ffffffffffffffffffffffffffffffffffffffff1681565b60096020528060005260406000206000915054906101000a900460ff1681565b6001600960003373ffffffffffffffffffffffffffffffffffffffff1673ffffffffffffffffffffffffffffffffffffffff16815260200190815260200160002060009054906101000a900460ff1660ff1614612c89576040517f7669999000000000000000000000000000000000000000000000000000000000815260040160405180910390fd5b600060149054906101000a900460ff1660ff168211158015612cab5750600082115b612cea576040517f08c379a0000000000000000000000000000000000000000000000000000000008152600401612ce1906154f5565b60405180910390fd5b6000600560008481526020019081526020016000209050600073ffffffffffffffffffffffffffffffffffffffff168160000160019054906101000a900473ffffffffffffffffffffffffffffffffffffffff1673ffffffffffffffffffffffffffffffffffffffff1603612d94576040517f08c379a0000000000000000000000000000000000000000000000000000000008152600401612d8b906157d4565b60405180910390fd5b612d9e8183613b65565b15612dde576040517f08c379a0000000000000000000000000000000000000000000000000000000008152600401612dd590615936565b60405180910390fd5b818160060160006101000a81548173ffffffffffffffffffffffffffffffffffffffff021916908373ffffffffffffffffffffffffffffffffffffffff160217905550505050565b6002600960003373ffffffffffffffffffffffffffffffffffffffff1673ffffffffffffffffffffffffffffffffffffffff16815260200190815260200160002060009054906101000a900460ff1660ff1614612eaf576040517f7669999000000000000000000000000000000000000000000000000000000000815260040160405180910390fd5b6000600660003373ffffffffffffffffffffffffffffffffffffffff1673ffffffffffffffffffffffffffffffffffffffff16815260200190815260200160002090506000816003015411612f39576040517f08c379a0000000000000000000000000000000000000000000000000000000008152600401612f30906159a2565b60405180910390fd5b60006064605f8360030154612f4e91906159c2565b612f589190615a33565b90506000826003018190555060003373ffffffffffffffffffffffffffffffffffffffff1682604051612f8a90615a95565b60006040518083038185875af1925050503d8060008114612fc7576040519150601f19603f3d011682016040523d82523d6000602084013e612fcc565b606091505b5050905080613010576040517f08c379a000000000000000000000000000000000000000000000000000000000815260040161300790615af6565b60405180910390fd5b7f09ad672d4e7c4892da934d1051932ebe9ec4b6ec8c3f40d569176db3e93e5abe3383604051613041929190615b16565b60405180910390a1505050565b6004818154811061305e57600080fd5b906000526020600020016000915054906101000a900473ffffffffffffffffffffffffffffffffffffffff1681565b6001600960003373ffffffffffffffffffffffffffffffffffffffff1673ffffffffffffffffffffffffffffffffffffffff16815260200190815260200160002060009054906101000a900460ff1660ff1614613116576040517f7669999000000000000000000000000000000000000000000000000000000000815260040160405180910390fd5b600060149054906101000a900460ff1660ff1682111580156131385750600082115b613177576040517f08c379a000000000000000000000000000000000000000000000000000000000815260040161316e906154f5565b60405180910390fd5b60006005600084815260200190815260200160002090508060000160019054906101000a900473ffffffffffffffffffffffffffffffffffffffff1673ffffffffffffffffffffffffffffffffffffffff163373ffffffffffffffffffffffffffffffffffffffff16146131ea57600080fd5b60018160040160006101000a81548160ff0219169083151502179055613245576040517f08c379a000000000000000000000000000000000000000000000000000000000815260040161323c90615b8b565b60405180910390fd5b6000600860003373ffffffffffffffffffffffffffffffffffffffff1673ffffffffffffffffffffffffffffffffffffffff1681526020019081526020016000206000858152602001908152602001600020549050600081116132dd576040517f08c379a00000000000000000000000000000000000000000000000000000000081526004016132d490615bf7565b60405180910390fd5b8160030154811015613324576040517f08c379a000000000000000000000000000000000000000000000000000000000815260040161331b90615c63565b60405180910390fd5b6000600860003373ffffffffffffffffffffffffffffffffffffffff1673ffffffffffffffffffffffffffffffffffffffff1681526020019081526020016000206000868152602001908152602001600020819055506000600660008573ffffffffffffffffffffffffffffffffffffffff1673ffffffffffffffffffffffffffffffffffffffff1681526020019081526020016000209050818160030160008282546133d191906155ed565b925050819055506000600760003373ffffffffffffffffffffffffffffffffffffffff1673ffffffffffffffffffffffffffffffffffffffff16815260200190815260200160002090508281600301600082825461342f9190615c83565b925050819055507f6e3c6096795c8298a218b2cfb8bde42726ff7c9a3d27b4d3ba41ab7f74feb5fb86868560405161346993929190615621565b60405180910390a1505050505050565b6060600060149054906101000a900460ff1660ff1667ffffffffffffffff8111156134a7576134a6614098565b5b6040519080825280602002602001820160405280156134e057816020015b6134cd613c4b565b8152602001906001900390816134c55790505b50905060005b600060149054906101000a900460ff1660ff168110156137f6576005600060018361351191906155ed565b8152602001908152602001600020604051806101000160405290816000820160009054906101000a900460ff1660ff1660ff1681526020016000820160019054906101000a900473ffffffffffffffffffffffffffffffffffffffff1673ffffffffffffffffffffffffffffffffffffffff1673ffffffffffffffffffffffffffffffffffffffff1681526020016001820180546135ae9061504c565b80601f01602080910402602001604051908101604052809291908181526020018280546135da9061504c565b80156136275780601f106135fc57610100808354040283529160200191613627565b820191906000526020600020905b81548152906001019060200180831161360a57829003601f168201915b505050505081526020016002820180546136409061504c565b80601f016020809104026020016040519081016040528092919081815260200182805461366c9061504c565b80156136b95780601f1061368e576101008083540402835291602001916136b9565b820191906000526020600020905b81548152906001019060200180831161369c57829003601f168201915b50505050508152602001600382015481526020016004820160009054906101000a900460ff161515151581526020016005820180548060200260200160405190810160405280929190818152602001828054801561376c57602002820191906000526020600020905b8160009054906101000a900473ffffffffffffffffffffffffffffffffffffffff1673ffffffffffffffffffffffffffffffffffffffff1681526020019060010190808311613722575b505050505081526020016006820160009054906101000a900473ffffffffffffffffffffffffffffffffffffffff1673ffffffffffffffffffffffffffffffffffffffff1673ffffffffffffffffffffffffffffffffffffffff16815250508282815181106137de576137dd61540e565b5b602002602001018190525080806001019150506134e6565b5090565b6000600860008473ffffffffffffffffffffffffffffffffffffffff1673ffffffffffffffffffffffffffffffffffffffff168152602001908152602001600020600083815260200190815260200160002054905092915050565b600060149054906101000a900460ff1660ff1681111580156138775750600081115b6138b6576040517f08c379a00000000000000000000000000000000000000000000000000000000081526004016138ad90615768565b60405180910390fd5b6000600560008381526020019081526020016000209050600073ffffffffffffffffffffffffffffffffffffffff168160000160019054906101000a900473ffffffffffffffffffffffffffffffffffffffff1673ffffffffffffffffffffffffffffffffffffffff1603613960576040517f08c379a0000000000000000000000000000000000000000000000000000000008152600401613957906157d4565b60405180910390fd5b600073ffffffffffffffffffffffffffffffffffffffff163373ffffffffffffffffffffffffffffffffffffffff16036139cf576040517f08c379a00000000000000000000000000000000000000000000000000000000081526004016139c690615d03565b60405180910390fd5b60005b8160050180549050811015613a9c573373ffffffffffffffffffffffffffffffffffffffff16826005018281548110613a0e57613a0d61540e565b5b9060005260206000200160009054906101000a900473ffffffffffffffffffffffffffffffffffffffff1673ffffffffffffffffffffffffffffffffffffffff1603613a8f576040517f08c379a0000000000000000000000000000000000000000000000000000000008152600401613a8690615d6f565b60405180910390fd5b80806001019150506139d2565b5080600501339080600181540180825580915050600190039060005260206000200160009091909190916101000a81548173ffffffffffffffffffffffffffffffffffffffff021916908373ffffffffffffffffffffffffffffffffffffffff1602179055507f2b443803772f6da2db17c7357119f932841870fdf0a3a5d8ca9d2e112bb13326828260000160019054906101000a900473ffffffffffffffffffffffffffffffffffffffff1633604051613b5993929190615d8f565b60405180910390a15050565b60008173ffffffffffffffffffffffffffffffffffffffff168360060160009054906101000a900473ffffffffffffffffffffffffffffffffffffffff1673ffffffffffffffffffffffffffffffffffffffff1603613bc75760019050613bcc565b600090505b92915050565b604051806101800160405280600073ffffffffffffffffffffffffffffffffffffffff168152602001606081526020016060815260200160008152602001606081526020016060815260200160608152602001606081526020016000815260200160001515815260200160008152602001600081525090565b604051806101000160405280600060ff168152602001600073ffffffffffffffffffffffffffffffffffffffff16815260200160608152602001606081526020016000815260200160001515815260200160608152602001600073ffffffffffffffffffffffffffffffffffffffff1681525090565b828054828255906000526020600020908101928215613d09579160200282015b82811115613d08578251829081613cf8919061530c565b5091602001919060010190613ce1565b5b509050613d169190613e01565b5090565b828054828255906000526020600020908101928215613d93579160200282015b82811115613d925782518260006101000a81548173ffffffffffffffffffffffffffffffffffffffff021916908373ffffffffffffffffffffffffffffffffffffffff16021790555091602001919060010190613d3a565b5b509050613da09190613e25565b5090565b604051806101000160405280600073ffffffffffffffffffffffffffffffffffffffff1681526020016060815260200160608152602001600081526020016060815260200160608152602001600015158152602001600081525090565b5b80821115613e215760008181613e189190613e42565b50600101613e02565b5090565b5b80821115613e3e576000816000905550600101613e26565b5090565b508054613e4e9061504c565b6000825580601f10613e605750613e7f565b601f016020900490600052602060002090810190613e7e9190613e25565b5b50565b6000604051905090565b600080fd5b600080fd5b600073ffffffffffffffffffffffffffffffffffffffff82169050919050565b6000613ec182613e96565b9050919050565b613ed181613eb6565b8114613edc57600080fd5b50565b600081359050613eee81613ec8565b92915050565b600060208284031215613f0a57613f09613e8c565b5b6000613f1884828501613edf565b91505092915050565b613f2a81613eb6565b82525050565b600081519050919050565b600082825260208201905092915050565b60005b83811015613f6a578082015181840152602081019050613f4f565b60008484015250505050565b6000601f19601f8301169050919050565b6000613f9282613f30565b613f9c8185613f3b565b9350613fac818560208601613f4c565b613fb581613f76565b840191505092915050565b6000819050919050565b613fd381613fc0565b82525050565b60008115159050919050565b613fee81613fd9565b82525050565b60006101008201905061400a600083018b613f21565b818103602083015261401c818a613f87565b905081810360408301526140308189613f87565b905061403f6060830188613fca565b81810360808301526140518187613f87565b905081810360a08301526140658186613f87565b905061407460c0830185613fe5565b61408160e0830184613fca565b9998505050505050505050565b600080fd5b600080fd5b7f4e487b7100000000000000000000000000000000000000000000000000000000600052604160045260246000fd5b6140d082613f76565b810181811067ffffffffffffffff821117156140ef576140ee614098565b5b80604052505050565b6000614102613e82565b905061410e82826140c7565b919050565b600067ffffffffffffffff82111561412e5761412d614098565b5b61413782613f76565b9050602081019050919050565b82818337600083830152505050565b600061416661416184614113565b6140f8565b90508281526020810184848401111561418257614181614093565b5b61418d848285614144565b509392505050565b600082601f8301126141aa576141a961408e565b5b81356141ba848260208601614153565b91505092915050565b600080600080608085870312156141dd576141dc613e8c565b5b600085013567ffffffffffffffff8111156141fb576141fa613e91565b5b61420787828801614195565b945050602085013567ffffffffffffffff81111561422857614227613e91565b5b61423487828801614195565b935050604085013567ffffffffffffffff81111561425557614254613e91565b5b61426187828801614195565b925050606085013567ffffffffffffffff81111561428257614281613e91565b5b61428e87828801614195565b91505092959194509250565b60006020820190506142af6000830184613fca565b92915050565b600060ff82169050919050565b6142cb816142b5565b82525050565b60006020820190506142e660008301846142c2565b92915050565b6142f581613eb6565b82525050565b600082825260208201905092915050565b600061431782613f30565b61432181856142fb565b9350614331818560208601613f4c565b61433a81613f76565b840191505092915050565b61434e81613fc0565b82525050565b600081519050919050565b600082825260208201905092915050565b6000819050602082019050919050565b600061438c838361430c565b905092915050565b6000602082019050919050565b60006143ac82614354565b6143b6818561435f565b9350836020820285016143c885614370565b8060005b8581101561440457848403895281516143e58582614380565b94506143f083614394565b925060208a019950506001810190506143cc565b50829750879550505050505092915050565b61441f81613fd9565b82525050565b60006101808301600083015161443e60008601826142ec565b5060208301518482036020860152614456828261430c565b91505060408301518482036040860152614470828261430c565b91505060608301516144856060860182614345565b506080830151848203608086015261449d828261430c565b91505060a083015184820360a08601526144b7828261430c565b91505060c083015184820360c08601526144d1828261430c565b91505060e083015184820360e08601526144eb82826143a1565b915050610100830151614502610100860182614345565b50610120830151614517610120860182614416565b5061014083015161452c610140860182614345565b50610160830151614541610160860182614345565b508091505092915050565b600060208201905081810360008301526145668184614425565b905092915050565b600061016082019050614584600083018e613f21565b8181036020830152614596818d613f87565b905081810360408301526145aa818c613f87565b90506145b9606083018b613fca565b81810360808301526145cb818a613f87565b905081810360a08301526145df8189613f87565b905081810360c08301526145f38188613f87565b905061460260e0830187613fca565b614610610100830186613fe5565b61461e610120830185613fca565b61462c610140830184613fca565b9c9b505050505050505050505050565b600081519050919050565b600082825260208201905092915050565b6000819050602082019050919050565b60006101808301600083015161468160008601826142ec565b5060208301518482036020860152614699828261430c565b915050604083015184820360408601526146b3828261430c565b91505060608301516146c86060860182614345565b50608083015184820360808601526146e0828261430c565b91505060a083015184820360a08601526146fa828261430c565b91505060c083015184820360c0860152614714828261430c565b91505060e083015184820360e086015261472e82826143a1565b915050610100830151614745610100860182614345565b5061012083015161475a610120860182614416565b5061014083015161476f610140860182614345565b50610160830151614784610160860182614345565b508091505092915050565b600061479b8383614668565b905092915050565b6000602082019050919050565b60006147bb8261463c565b6147c58185614647565b9350836020820285016147d785614658565b8060005b8581101561481357848403895281516147f4858261478f565b94506147ff836147a3565b925060208a019950506001810190506147db565b50829750879550505050505092915050565b6000602082019050818103600083015261483f81846147b0565b905092915050565b61485081613fc0565b811461485b57600080fd5b50565b60008135905061486d81614847565b92915050565b60006020828403121561488957614888613e8c565b5b60006148978482850161485e565b91505092915050565b6148a9816142b5565b82525050565b600081519050919050565b600082825260208201905092915050565b6000819050602082019050919050565b60006148e783836142ec565b60208301905092915050565b6000602082019050919050565b600061490b826148af565b61491581856148ba565b9350614920836148cb565b8060005b8381101561495157815161493888826148db565b9750614943836148f3565b925050600181019050614924565b5085935050505092915050565b60006101008301600083015161497760008601826148a0565b50602083015161498a60208601826142ec565b50604083015184820360408601526149a2828261430c565b915050606083015184820360608601526149bc828261430c565b91505060808301516149d16080860182614345565b5060a08301516149e460a0860182614416565b5060c083015184820360c08601526149fc8282614900565b91505060e0830151614a1160e08601826142ec565b508091505092915050565b60006020820190508181036000830152614a36818461495e565b905092915050565b600067ffffffffffffffff821115614a5957614a58614098565b5b602082029050602081019050919050565b600080fd5b6000614a82614a7d84614a3e565b6140f8565b90508083825260208201905060208402830185811115614aa557614aa4614a6a565b5b835b81811015614aec57803567ffffffffffffffff811115614aca57614ac961408e565b5b808601614ad78982614195565b85526020850194505050602081019050614aa7565b5050509392505050565b600082601f830112614b0b57614b0a61408e565b5b8135614b1b848260208601614a6f565b91505092915050565b600080600080600080600060e0888a031215614b4357614b42613e8c565b5b600088013567ffffffffffffffff811115614b6157614b60613e91565b5b614b6d8a828b01614195565b975050602088013567ffffffffffffffff811115614b8e57614b8d613e91565b5b614b9a8a828b01614195565b965050604088013567ffffffffffffffff811115614bbb57614bba613e91565b5b614bc78a828b01614195565b955050606088013567ffffffffffffffff811115614be857614be7613e91565b5b614bf48a828b01614195565b945050608088013567ffffffffffffffff811115614c1557614c14613e91565b5b614c218a828b01614195565b93505060a088013567ffffffffffffffff811115614c4257614c41613e91565b5b614c4e8a828b01614af6565b92505060c0614c5f8a828b0161485e565b91505092959891949750929550565b60008060408385031215614c8557614c84613e8c565b5b6000614c938582860161485e565b9250506020614ca485828601613edf565b9150509250929050565b600080600060608486031215614cc757614cc6613e8c565b5b600084013567ffffffffffffffff811115614ce557614ce4613e91565b5b614cf186828701614195565b935050602084013567ffffffffffffffff811115614d1257614d11613e91565b5b614d1e86828701614195565b9250506040614d2f8682870161485e565b9150509250925092565b600061010083016000830151614d5260008601826142ec565b5060208301518482036020860152614d6a828261430c565b91505060408301518482036040860152614d84828261430c565b9150506060830151614d996060860182614345565b5060808301518482036080860152614db1828261430c565b91505060a083015184820360a0860152614dcb828261430c565b91505060c0830151614de060c0860182614416565b5060e0830151614df360e0860182614345565b508091505092915050565b60006020820190508181036000830152614e188184614d39565b905092915050565b6000602082019050614e356000830184613f21565b92915050565b600081519050919050565b600082825260208201905092915050565b6000819050602082019050919050565b600061010083016000830151614e8060008601826148a0565b506020830151614e9360208601826142ec565b5060408301518482036040860152614eab828261430c565b91505060608301518482036060860152614ec5828261430c565b9150506080830151614eda6080860182614345565b5060a0830151614eed60a0860182614416565b5060c083015184820360c0860152614f058282614900565b91505060e0830151614f1a60e08601826142ec565b508091505092915050565b6000614f318383614e67565b905092915050565b6000602082019050919050565b6000614f5182614e3b565b614f5b8185614e46565b935083602082028501614f6d85614e57565b8060005b85811015614fa95784840389528151614f8a8582614f25565b9450614f9583614f39565b925060208a01995050600181019050614f71565b50829750879550505050505092915050565b60006020820190508181036000830152614fd58184614f46565b905092915050565b60008060408385031215614ff457614ff3613e8c565b5b600061500285828601613edf565b92505060206150138582860161485e565b9150509250929050565b7f4e487b7100000000000000000000000000000000000000000000000000000000600052602260045260246000fd5b6000600282049050600182168061506457607f821691505b6020821081036150775761507661501d565b5b50919050565b7f4152000000000000000000000000000000000000000000000000000000000000600082015250565b60006150b3600283613f3b565b91506150be8261507d565b602082019050919050565b600060208201905081810360008301526150e2816150a6565b9050919050565b7f4e487b7100000000000000000000000000000000000000000000000000000000600052601160045260246000fd5b600061512382613fc0565b91507fffffffffffffffffffffffffffffffffffffffffffffffffffffffffffffffff8203615155576151546150e9565b5b600182019050919050565b60008190508160005260206000209050919050565b60006020601f8301049050919050565b600082821b905092915050565b6000600883026151c27fffffffffffffffffffffffffffffffffffffffffffffffffffffffffffffffff82615185565b6151cc8683615185565b95508019841693508086168417925050509392505050565b6000819050919050565b60006152096152046151ff84613fc0565b6151e4565b613fc0565b9050919050565b6000819050919050565b615223836151ee565b61523761522f82615210565b848454615192565b825550505050565b600090565b61524c61523f565b61525781848461521a565b505050565b5b8181101561527b57615270600082615244565b60018101905061525d565b5050565b601f8211156152c05761529181615160565b61529a84615175565b810160208510156152a9578190505b6152bd6152b585615175565b83018261525c565b50505b505050565b600082821c905092915050565b60006152e3600019846008026152c5565b1980831691505092915050565b60006152fc83836152d2565b9150826002028217905092915050565b61531582613f30565b67ffffffffffffffff81111561532e5761532d614098565b5b615338825461504c565b61534382828561527f565b600060209050601f8311600181146153765760008415615364578287015190505b61536e85826152f0565b8655506153d6565b601f19841661538486615160565b60005b828110156153ac57848901518255600182019150602085019450602081019050615387565b868310156153c957848901516153c5601f8916826152d2565b8355505b6001600288020188555050505b505050505050565b60006040820190506153f36000830185613f21565b81810360208301526154058184613f87565b90509392505050565b7f4e487b7100000000000000000000000000000000000000000000000000000000600052603260045260246000fd5b7f494a000000000000000000000000000000000000000000000000000000000000600082015250565b6000615473600283613f3b565b915061547e8261543d565b602082019050919050565b600060208201905081810360008301526154a281615466565b9050919050565b7f4a44452e00000000000000000000000000000000000000000000000000000000600082015250565b60006154df600483613f3b565b91506154ea826154a9565b602082019050919050565b6000602082019050818103600083015261550e816154d2565b9050919050565b7f4a41430000000000000000000000000000000000000000000000000000000000600082015250565b600061554b600383613f3b565b915061555682615515565b602082019050919050565b6000602082019050818103600083015261557a8161553e565b9050919050565b7f4941000000000000000000000000000000000000000000000000000000000000600082015250565b60006155b7600283613f3b565b91506155c282615581565b602082019050919050565b600060208201905081810360008301526155e6816155aa565b9050919050565b60006155f882613fc0565b915061560383613fc0565b925082820190508082111561561b5761561a6150e9565b5b92915050565b60006060820190506156366000830186613fca565b6156436020830185613f21565b6156506040830184613fca565b949350505050565b600082825260208201905092915050565b600061567482614354565b61567e8185615658565b93508360208202850161569085614370565b8060005b858110156156cc57848403895281516156ad8582614380565b94506156b883614394565b925060208a01995050600181019050615694565b50829750879550505050505092915050565b60006060820190506156f36000830186613f21565b81810360208301526157058185615669565b90506157146040830184613fca565b949350505050565b7f4a44450000000000000000000000000000000000000000000000000000000000600082015250565b6000615752600383613f3b565b915061575d8261571c565b602082019050919050565b6000602082019050818103600083015261578181615745565b9050919050565b7f4a4e460000000000000000000000000000000000000000000000000000000000600082015250565b60006157be600383613f3b565b91506157c982615788565b602082019050919050565b600060208201905081810360008301526157ed816157b1565b9050919050565b7f464e480000000000000000000000000000000000000000000000000000000000600082015250565b600061582a600383613f3b565b9150615835826157f4565b602082019050919050565b600060208201905081810360008301526158598161581d565b9050919050565b600061586b826142b5565b915060ff820361587e5761587d6150e9565b5b600182019050919050565b60006158a461589f61589a846142b5565b6151e4565b613fc0565b9050919050565b6158b481615889565b82525050565b60006040820190506158cf60008301856158ab565b81810360208301526158e18184613f87565b90509392505050565b7f4641480000000000000000000000000000000000000000000000000000000000600082015250565b6000615920600383613f3b565b915061592b826158ea565b602082019050919050565b6000602082019050818103600083015261594f81615913565b9050919050565b7f4e42570000000000000000000000000000000000000000000000000000000000600082015250565b600061598c600383613f3b565b915061599782615956565b602082019050919050565b600060208201905081810360008301526159bb8161597f565b9050919050565b60006159cd82613fc0565b91506159d883613fc0565b92508282026159e681613fc0565b915082820484148315176159fd576159fc6150e9565b5b5092915050565b7f4e487b7100000000000000000000000000000000000000000000000000000000600052601260045260246000fd5b6000615a3e82613fc0565b9150615a4983613fc0565b925082615a5957615a58615a04565b5b828204905092915050565b600081905092915050565b50565b6000615a7f600083615a64565b9150615a8a82615a6f565b600082019050919050565b6000615aa082615a72565b9150819050919050565b7f5446000000000000000000000000000000000000000000000000000000000000600082015250565b6000615ae0600283613f3b565b9150615aeb82615aaa565b602082019050919050565b60006020820190508181036000830152615b0f81615ad3565b9050919050565b6000604082019050615b2b6000830185613f21565b615b386020830184613fca565b9392505050565b7f4a4e430000000000000000000000000000000000000000000000000000000000600082015250565b6000615b75600383613f3b565b9150615b8082615b3f565b602082019050919050565b60006020820190508181036000830152615ba481615b68565b9050919050565b7f4e46450000000000000000000000000000000000000000000000000000000000600082015250565b6000615be1600383613f3b565b9150615bec82615bab565b602082019050919050565b60006020820190508181036000830152615c1081615bd4565b9050919050565b7f4946000000000000000000000000000000000000000000000000000000000000600082015250565b6000615c4d600283613f3b565b9150615c5882615c17565b602082019050919050565b60006020820190508181036000830152615c7c81615c40565b9050919050565b6000615c8e82613fc0565b9150615c9983613fc0565b9250828203905081811115615cb157615cb06150e9565b5b92915050565b7f49412e0000000000000000000000000000000000000000000000000000000000600082015250565b6000615ced600383613f3b565b9150615cf882615cb7565b602082019050919050565b60006020820190508181036000830152615d1c81615ce0565b9050919050565b7f5948410000000000000000000000000000000000000000000000000000000000600082015250565b6000615d59600383613f3b565b9150615d6482615d23565b602082019050919050565b60006020820190508181036000830152615d8881615d4c565b9050919050565b6000606082019050615da46000830186613fca565b615db16020830185613f21565b615dbe6040830184613f21565b94935050505056fea26469706673582212209fa55360d0138eb684defd0bffdd9725b7e208b6e608de585ecaa74b3ad51f5764736f6c63430008180033","opcodes":"PUSH1 0x80 PUSH1 0x40 MSTORE CALLVALUE DUP1 ISZERO PUSH2 0x10 JUMPI PUSH1 0x0 DUP1 REVERT JUMPDEST POP CALLER PUSH1 0x0 DUP1 PUSH2 0x100 EXP DUP2 SLOAD DUP2 PUSH20 0xFFFFFFFFFFFFFFFFFFFFFFFFFFFFFFFFFFFFFFFF MUL NOT AND SWAP1 DUP4 PUSH20 0xFFFFFFFFFFFFFFFFFFFFFFFFFFFFFFFFFFFFFFFF AND MUL OR SWAP1 SSTORE POP PUSH2 0x5DFC DUP1 PUSH3 0x61 PUSH1 0x0 CODECOPY PUSH1 0x0 RETURN INVALID PUSH1 0x80 PUSH1 0x40 MSTORE PUSH1 0x4 CALLDATASIZE LT PUSH2 0x14B JUMPI PUSH1 0x0 CALLDATALOAD PUSH1 0xE0 SHR DUP1 PUSH4 0x6A6B67D1 GT PUSH2 0xB6 JUMPI DUP1 PUSH4 0xB73C6CE9 GT PUSH2 0x6F JUMPI DUP1 PUSH4 0xB73C6CE9 EQ PUSH2 0x4BA JUMPI DUP1 PUSH4 0xC27A9DD4 EQ PUSH2 0x4D1 JUMPI DUP1 PUSH4 0xC6CB3BBE EQ PUSH2 0x50E JUMPI DUP1 PUSH4 0xC8D1B6AA EQ PUSH2 0x537 JUMPI DUP1 PUSH4 0xDFAC8CE5 EQ PUSH2 0x562 JUMPI DUP1 PUSH4 0xE0C94AE5 EQ PUSH2 0x59F JUMPI PUSH2 0x14B JUMP JUMPDEST DUP1 PUSH4 0x6A6B67D1 EQ PUSH2 0x39A JUMPI DUP1 PUSH4 0x73A06F42 EQ PUSH2 0x3C3 JUMPI DUP1 PUSH4 0x7A787125 EQ PUSH2 0x3EC JUMPI DUP1 PUSH4 0x8DA5CB5B EQ PUSH2 0x429 JUMPI DUP1 PUSH4 0x99374642 EQ PUSH2 0x454 JUMPI DUP1 PUSH4 0xB0F26F18 EQ PUSH2 0x491 JUMPI PUSH2 0x14B JUMP JUMPDEST DUP1 PUSH4 0x21BD6693 GT PUSH2 0x108 JUMPI DUP1 PUSH4 0x21BD6693 EQ PUSH2 0x27B JUMPI DUP1 PUSH4 0x359B248C EQ PUSH2 0x2C2 JUMPI DUP1 PUSH4 0x371AE9F4 EQ PUSH2 0x2ED JUMPI DUP1 PUSH4 0x3B76594D EQ PUSH2 0x32A JUMPI DUP1 PUSH4 0x58D7F895 EQ PUSH2 0x346 JUMPI DUP1 PUSH4 0x5E586EB1 EQ PUSH2 0x36F JUMPI PUSH2 0x14B JUMP JUMPDEST DUP1 PUSH4 0xBE435BD EQ PUSH2 0x150 JUMPI DUP1 PUSH4 0xE553442 EQ PUSH2 0x194 JUMPI DUP1 PUSH4 0x1033397B EQ PUSH2 0x1BD JUMPI DUP1 PUSH4 0x1906B4CE EQ PUSH2 0x1E8 JUMPI DUP1 PUSH4 0x1ACE87B3 EQ PUSH2 0x213 JUMPI DUP1 PUSH4 0x1C7AF7A0 EQ PUSH2 0x23E JUMPI JUMPDEST PUSH1 0x0 DUP1 REVERT JUMPDEST CALLVALUE DUP1 ISZERO PUSH2 0x15C JUMPI PUSH1 0x0 DUP1 REVERT JUMPDEST POP PUSH2 0x177 PUSH1 0x4 DUP1 CALLDATASIZE SUB DUP2 ADD SWAP1 PUSH2 0x172 SWAP2 SWAP1 PUSH2 0x3EF4 JUMP JUMPDEST PUSH2 0x5C8 JUMP JUMPDEST PUSH1 0x40 MLOAD PUSH2 0x18B SWAP9 SWAP8 SWAP7 SWAP6 SWAP5 SWAP4 SWAP3 SWAP2 SWAP1 PUSH2 0x3FF4 JUMP JUMPDEST PUSH1 0x40 MLOAD DUP1 SWAP2 SUB SWAP1 RETURN JUMPDEST CALLVALUE DUP1 ISZERO PUSH2 0x1A0 JUMPI PUSH1 0x0 DUP1 REVERT JUMPDEST POP PUSH2 0x1BB PUSH1 0x4 DUP1 CALLDATASIZE SUB DUP2 ADD SWAP1 PUSH2 0x1B6 SWAP2 SWAP1 PUSH2 0x41C3 JUMP JUMPDEST PUSH2 0x85D JUMP JUMPDEST STOP JUMPDEST CALLVALUE DUP1 ISZERO PUSH2 0x1C9 JUMPI PUSH1 0x0 DUP1 REVERT JUMPDEST POP PUSH2 0x1D2 PUSH2 0xBB1 JUMP JUMPDEST PUSH1 0x40 MLOAD PUSH2 0x1DF SWAP2 SWAP1 PUSH2 0x429A JUMP JUMPDEST PUSH1 0x40 MLOAD DUP1 SWAP2 SUB SWAP1 RETURN JUMPDEST CALLVALUE DUP1 ISZERO PUSH2 0x1F4 JUMPI PUSH1 0x0 DUP1 REVERT JUMPDEST POP PUSH2 0x1FD PUSH2 0xBB7 JUMP JUMPDEST PUSH1 0x40 MLOAD PUSH2 0x20A SWAP2 SWAP1 PUSH2 0x429A JUMP JUMPDEST PUSH1 0x40 MLOAD DUP1 SWAP2 SUB SWAP1 RETURN JUMPDEST CALLVALUE DUP1 ISZERO PUSH2 0x21F JUMPI PUSH1 0x0 DUP1 REVERT JUMPDEST POP PUSH2 0x228 PUSH2 0xBBD JUMP JUMPDEST PUSH1 0x40 MLOAD PUSH2 0x235 SWAP2 SWAP1 PUSH2 0x42D1 JUMP JUMPDEST PUSH1 0x40 MLOAD DUP1 SWAP2 SUB SWAP1 RETURN JUMPDEST CALLVALUE DUP1 ISZERO PUSH2 0x24A JUMPI PUSH1 0x0 DUP1 REVERT JUMPDEST POP PUSH2 0x265 PUSH1 0x4 DUP1 CALLDATASIZE SUB DUP2 ADD SWAP1 PUSH2 0x260 SWAP2 SWAP1 PUSH2 0x3EF4 JUMP JUMPDEST PUSH2 0xBD0 JUMP JUMPDEST PUSH1 0x40 MLOAD PUSH2 0x272 SWAP2 SWAP1 PUSH2 0x454C JUMP JUMPDEST PUSH1 0x40 MLOAD DUP1 SWAP2 SUB SWAP1 RETURN JUMPDEST CALLVALUE DUP1 ISZERO PUSH2 0x287 JUMPI PUSH1 0x0 DUP1 REVERT JUMPDEST POP PUSH2 0x2A2 PUSH1 0x4 DUP1 CALLDATASIZE SUB DUP2 ADD SWAP1 PUSH2 0x29D SWAP2 SWAP1 PUSH2 0x3EF4 JUMP JUMPDEST PUSH2 0x1076 JUMP JUMPDEST PUSH1 0x40 MLOAD PUSH2 0x2B9 SWAP12 SWAP11 SWAP10 SWAP9 SWAP8 SWAP7 SWAP6 SWAP5 SWAP4 SWAP3 SWAP2 SWAP1 PUSH2 0x456E JUMP JUMPDEST PUSH1 0x40 MLOAD DUP1 SWAP2 SUB SWAP1 RETURN JUMPDEST CALLVALUE DUP1 ISZERO PUSH2 0x2CE JUMPI PUSH1 0x0 DUP1 REVERT JUMPDEST POP PUSH2 0x2D7 PUSH2 0x13A5 JUMP JUMPDEST PUSH1 0x40 MLOAD PUSH2 0x2E4 SWAP2 SWAP1 PUSH2 0x4825 JUMP JUMPDEST PUSH1 0x40 MLOAD DUP1 SWAP2 SUB SWAP1 RETURN JUMPDEST CALLVALUE DUP1 ISZERO PUSH2 0x2F9 JUMPI PUSH1 0x0 DUP1 REVERT JUMPDEST POP PUSH2 0x314 PUSH1 0x4 DUP1 CALLDATASIZE SUB DUP2 ADD SWAP1 PUSH2 0x30F SWAP2 SWAP1 PUSH2 0x4873 JUMP JUMPDEST PUSH2 0x1916 JUMP JUMPDEST PUSH1 0x40 MLOAD PUSH2 0x321 SWAP2 SWAP1 PUSH2 0x4A1C JUMP JUMPDEST PUSH1 0x40 MLOAD DUP1 SWAP2 SUB SWAP1 RETURN JUMPDEST PUSH2 0x344 PUSH1 0x4 DUP1 CALLDATASIZE SUB DUP2 ADD SWAP1 PUSH2 0x33F SWAP2 SWAP1 PUSH2 0x4873 JUMP JUMPDEST PUSH2 0x1C45 JUMP JUMPDEST STOP JUMPDEST CALLVALUE DUP1 ISZERO PUSH2 0x352 JUMPI PUSH1 0x0 DUP1 REVERT JUMPDEST POP PUSH2 0x36D PUSH1 0x4 DUP1 CALLDATASIZE SUB DUP2 ADD SWAP1 PUSH2 0x368 SWAP2 SWAP1 PUSH2 0x4B24 JUMP JUMPDEST PUSH2 0x1EB7 JUMP JUMPDEST STOP JUMPDEST CALLVALUE DUP1 ISZERO PUSH2 0x37B JUMPI PUSH1 0x0 DUP1 REVERT JUMPDEST POP PUSH2 0x384 PUSH2 0x22D7 JUMP JUMPDEST PUSH1 0x40 MLOAD PUSH2 0x391 SWAP2 SWAP1 PUSH2 0x429A JUMP JUMPDEST PUSH1 0x40 MLOAD DUP1 SWAP2 SUB SWAP1 RETURN JUMPDEST CALLVALUE DUP1 ISZERO PUSH2 0x3A6 JUMPI PUSH1 0x0 DUP1 REVERT JUMPDEST POP PUSH2 0x3C1 PUSH1 0x4 DUP1 CALLDATASIZE SUB DUP2 ADD SWAP1 PUSH2 0x3BC SWAP2 SWAP1 PUSH2 0x4C6E JUMP JUMPDEST PUSH2 0x22DD JUMP JUMPDEST STOP JUMPDEST CALLVALUE DUP1 ISZERO PUSH2 0x3CF JUMPI PUSH1 0x0 DUP1 REVERT JUMPDEST POP PUSH2 0x3EA PUSH1 0x4 DUP1 CALLDATASIZE SUB DUP2 ADD SWAP1 PUSH2 0x3E5 SWAP2 SWAP1 PUSH2 0x4CAE JUMP JUMPDEST PUSH2 0x2591 JUMP JUMPDEST STOP JUMPDEST CALLVALUE DUP1 ISZERO PUSH2 0x3F8 JUMPI PUSH1 0x0 DUP1 REVERT JUMPDEST POP PUSH2 0x413 PUSH1 0x4 DUP1 CALLDATASIZE SUB DUP2 ADD SWAP1 PUSH2 0x40E SWAP2 SWAP1 PUSH2 0x3EF4 JUMP JUMPDEST PUSH2 0x2895 JUMP JUMPDEST PUSH1 0x40 MLOAD PUSH2 0x420 SWAP2 SWAP1 PUSH2 0x4DFE JUMP JUMPDEST PUSH1 0x40 MLOAD DUP1 SWAP2 SUB SWAP1 RETURN JUMPDEST CALLVALUE DUP1 ISZERO PUSH2 0x435 JUMPI PUSH1 0x0 DUP1 REVERT JUMPDEST POP PUSH2 0x43E PUSH2 0x2BBC JUMP JUMPDEST PUSH1 0x40 MLOAD PUSH2 0x44B SWAP2 SWAP1 PUSH2 0x4E20 JUMP JUMPDEST PUSH1 0x40 MLOAD DUP1 SWAP2 SUB SWAP1 RETURN JUMPDEST CALLVALUE DUP1 ISZERO PUSH2 0x460 JUMPI PUSH1 0x0 DUP1 REVERT JUMPDEST POP PUSH2 0x47B PUSH1 0x4 DUP1 CALLDATASIZE SUB DUP2 ADD SWAP1 PUSH2 0x476 SWAP2 SWAP1 PUSH2 0x3EF4 JUMP JUMPDEST PUSH2 0x2BE0 JUMP JUMPDEST PUSH1 0x40 MLOAD PUSH2 0x488 SWAP2 SWAP1 PUSH2 0x42D1 JUMP JUMPDEST PUSH1 0x40 MLOAD DUP1 SWAP2 SUB SWAP1 RETURN JUMPDEST CALLVALUE DUP1 ISZERO PUSH2 0x49D JUMPI PUSH1 0x0 DUP1 REVERT JUMPDEST POP PUSH2 0x4B8 PUSH1 0x4 DUP1 CALLDATASIZE SUB DUP2 ADD SWAP1 PUSH2 0x4B3 SWAP2 SWAP1 PUSH2 0x4C6E JUMP JUMPDEST PUSH2 0x2C00 JUMP JUMPDEST STOP JUMPDEST CALLVALUE DUP1 ISZERO PUSH2 0x4C6 JUMPI PUSH1 0x0 DUP1 REVERT JUMPDEST POP PUSH2 0x4CF PUSH2 0x2E26 JUMP JUMPDEST STOP JUMPDEST CALLVALUE DUP1 ISZERO PUSH2 0x4DD JUMPI PUSH1 0x0 DUP1 REVERT JUMPDEST POP PUSH2 0x4F8 PUSH1 0x4 DUP1 CALLDATASIZE SUB DUP2 ADD SWAP1 PUSH2 0x4F3 SWAP2 SWAP1 PUSH2 0x4873 JUMP JUMPDEST PUSH2 0x304E JUMP JUMPDEST PUSH1 0x40 MLOAD PUSH2 0x505 SWAP2 SWAP1 PUSH2 0x4E20 JUMP JUMPDEST PUSH1 0x40 MLOAD DUP1 SWAP2 SUB SWAP1 RETURN JUMPDEST CALLVALUE DUP1 ISZERO PUSH2 0x51A JUMPI PUSH1 0x0 DUP1 REVERT JUMPDEST POP PUSH2 0x535 PUSH1 0x4 DUP1 CALLDATASIZE SUB DUP2 ADD SWAP1 PUSH2 0x530 SWAP2 SWAP1 PUSH2 0x4C6E JUMP JUMPDEST PUSH2 0x308D JUMP JUMPDEST STOP JUMPDEST CALLVALUE DUP1 ISZERO PUSH2 0x543 JUMPI PUSH1 0x0 DUP1 REVERT JUMPDEST POP PUSH2 0x54C PUSH2 0x3479 JUMP JUMPDEST PUSH1 0x40 MLOAD PUSH2 0x559 SWAP2 SWAP1 PUSH2 0x4FBB JUMP JUMPDEST PUSH1 0x40 MLOAD DUP1 SWAP2 SUB SWAP1 RETURN JUMPDEST CALLVALUE DUP1 ISZERO PUSH2 0x56E JUMPI PUSH1 0x0 DUP1 REVERT JUMPDEST POP PUSH2 0x589 PUSH1 0x4 DUP1 CALLDATASIZE SUB DUP2 ADD SWAP1 PUSH2 0x584 SWAP2 SWAP1 PUSH2 0x4FDD JUMP JUMPDEST PUSH2 0x37FA JUMP JUMPDEST PUSH1 0x40 MLOAD PUSH2 0x596 SWAP2 SWAP1 PUSH2 0x429A JUMP JUMPDEST PUSH1 0x40 MLOAD DUP1 SWAP2 SUB SWAP1 RETURN JUMPDEST CALLVALUE DUP1 ISZERO PUSH2 0x5AB JUMPI PUSH1 0x0 DUP1 REVERT JUMPDEST POP PUSH2 0x5C6 PUSH1 0x4 DUP1 CALLDATASIZE SUB DUP2 ADD SWAP1 PUSH2 0x5C1 SWAP2 SWAP1 PUSH2 0x4873 JUMP JUMPDEST PUSH2 0x3855 JUMP JUMPDEST STOP JUMPDEST PUSH1 0x7 PUSH1 0x20 MSTORE DUP1 PUSH1 0x0 MSTORE PUSH1 0x40 PUSH1 0x0 KECCAK256 PUSH1 0x0 SWAP2 POP SWAP1 POP DUP1 PUSH1 0x0 ADD PUSH1 0x0 SWAP1 SLOAD SWAP1 PUSH2 0x100 EXP SWAP1 DIV PUSH20 0xFFFFFFFFFFFFFFFFFFFFFFFFFFFFFFFFFFFFFFFF AND SWAP1 DUP1 PUSH1 0x1 ADD DUP1 SLOAD PUSH2 0x611 SWAP1 PUSH2 0x504C JUMP JUMPDEST DUP1 PUSH1 0x1F ADD PUSH1 0x20 DUP1 SWAP2 DIV MUL PUSH1 0x20 ADD PUSH1 0x40 MLOAD SWAP1 DUP2 ADD PUSH1 0x40 MSTORE DUP1 SWAP3 SWAP2 SWAP1 DUP2 DUP2 MSTORE PUSH1 0x20 ADD DUP3 DUP1 SLOAD PUSH2 0x63D SWAP1 PUSH2 0x504C JUMP JUMPDEST DUP1 ISZERO PUSH2 0x68A JUMPI DUP1 PUSH1 0x1F LT PUSH2 0x65F JUMPI PUSH2 0x100 DUP1 DUP4 SLOAD DIV MUL DUP4 MSTORE SWAP2 PUSH1 0x20 ADD SWAP2 PUSH2 0x68A JUMP JUMPDEST DUP3 ADD SWAP2 SWAP1 PUSH1 0x0 MSTORE PUSH1 0x20 PUSH1 0x0 KECCAK256 SWAP1 JUMPDEST DUP2 SLOAD DUP2 MSTORE SWAP1 PUSH1 0x1 ADD SWAP1 PUSH1 0x20 ADD DUP1 DUP4 GT PUSH2 0x66D JUMPI DUP3 SWAP1 SUB PUSH1 0x1F AND DUP3 ADD SWAP2 JUMPDEST POP POP POP POP POP SWAP1 DUP1 PUSH1 0x2 ADD DUP1 SLOAD PUSH2 0x69F SWAP1 PUSH2 0x504C JUMP JUMPDEST DUP1 PUSH1 0x1F ADD PUSH1 0x20 DUP1 SWAP2 DIV MUL PUSH1 0x20 ADD PUSH1 0x40 MLOAD SWAP1 DUP2 ADD PUSH1 0x40 MSTORE DUP1 SWAP3 SWAP2 SWAP1 DUP2 DUP2 MSTORE PUSH1 0x20 ADD DUP3 DUP1 SLOAD PUSH2 0x6CB SWAP1 PUSH2 0x504C JUMP JUMPDEST DUP1 ISZERO PUSH2 0x718 JUMPI DUP1 PUSH1 0x1F LT PUSH2 0x6ED JUMPI PUSH2 0x100 DUP1 DUP4 SLOAD DIV MUL DUP4 MSTORE SWAP2 PUSH1 0x20 ADD SWAP2 PUSH2 0x718 JUMP JUMPDEST DUP3 ADD SWAP2 SWAP1 PUSH1 0x0 MSTORE PUSH1 0x20 PUSH1 0x0 KECCAK256 SWAP1 JUMPDEST DUP2 SLOAD DUP2 MSTORE SWAP1 PUSH1 0x1 ADD SWAP1 PUSH1 0x20 ADD DUP1 DUP4 GT PUSH2 0x6FB JUMPI DUP3 SWAP1 SUB PUSH1 0x1F AND DUP3 ADD SWAP2 JUMPDEST POP POP POP POP POP SWAP1 DUP1 PUSH1 0x3 ADD SLOAD SWAP1 DUP1 PUSH1 0x4 ADD DUP1 SLOAD PUSH2 0x733 SWAP1 PUSH2 0x504C JUMP JUMPDEST DUP1 PUSH1 0x1F ADD PUSH1 0x20 DUP1 SWAP2 DIV MUL PUSH1 0x20 ADD PUSH1 0x40 MLOAD SWAP1 DUP2 ADD PUSH1 0x40 MSTORE DUP1 SWAP3 SWAP2 SWAP1 DUP2 DUP2 MSTORE PUSH1 0x20 ADD DUP3 DUP1 SLOAD PUSH2 0x75F SWAP1 PUSH2 0x504C JUMP JUMPDEST DUP1 ISZERO PUSH2 0x7AC JUMPI DUP1 PUSH1 0x1F LT PUSH2 0x781 JUMPI PUSH2 0x100 DUP1 DUP4 SLOAD DIV MUL DUP4 MSTORE SWAP2 PUSH1 0x20 ADD SWAP2 PUSH2 0x7AC JUMP JUMPDEST DUP3 ADD SWAP2 SWAP1 PUSH1 0x0 MSTORE PUSH1 0x20 PUSH1 0x0 KECCAK256 SWAP1 JUMPDEST DUP2 SLOAD DUP2 MSTORE SWAP1 PUSH1 0x1 ADD SWAP1 PUSH1 0x20 ADD DUP1 DUP4 GT PUSH2 0x78F JUMPI DUP3 SWAP1 SUB PUSH1 0x1F AND DUP3 ADD SWAP2 JUMPDEST POP POP POP POP POP SWAP1 DUP1 PUSH1 0x5 ADD DUP1 SLOAD PUSH2 0x7C1 SWAP1 PUSH2 0x504C JUMP JUMPDEST DUP1 PUSH1 0x1F ADD PUSH1 0x20 DUP1 SWAP2 DIV MUL PUSH1 0x20 ADD PUSH1 0x40 MLOAD SWAP1 DUP2 ADD PUSH1 0x40 MSTORE DUP1 SWAP3 SWAP2 SWAP1 DUP2 DUP2 MSTORE PUSH1 0x20 ADD DUP3 DUP1 SLOAD PUSH2 0x7ED SWAP1 PUSH2 0x504C JUMP JUMPDEST DUP1 ISZERO PUSH2 0x83A JUMPI DUP1 PUSH1 0x1F LT PUSH2 0x80F JUMPI PUSH2 0x100 DUP1 DUP4 SLOAD DIV MUL DUP4 MSTORE SWAP2 PUSH1 0x20 ADD SWAP2 PUSH2 0x83A JUMP JUMPDEST DUP3 ADD SWAP2 SWAP1 PUSH1 0x0 MSTORE PUSH1 0x20 PUSH1 0x0 KECCAK256 SWAP1 JUMPDEST DUP2 SLOAD DUP2 MSTORE SWAP1 PUSH1 0x1 ADD SWAP1 PUSH1 0x20 ADD DUP1 DUP4 GT PUSH2 0x81D JUMPI DUP3 SWAP1 SUB PUSH1 0x1F AND DUP3 ADD SWAP2 JUMPDEST POP POP POP POP POP SWAP1 DUP1 PUSH1 0x6 ADD PUSH1 0x0 SWAP1 SLOAD SWAP1 PUSH2 0x100 EXP SWAP1 DIV PUSH1 0xFF AND SWAP1 DUP1 PUSH1 0x7 ADD SLOAD SWAP1 POP DUP9 JUMP JUMPDEST PUSH1 0x0 PUSH1 0x9 PUSH1 0x0 CALLER PUSH20 0xFFFFFFFFFFFFFFFFFFFFFFFFFFFFFFFFFFFFFFFF AND PUSH20 0xFFFFFFFFFFFFFFFFFFFFFFFFFFFFFFFFFFFFFFFF AND DUP2 MSTORE PUSH1 0x20 ADD SWAP1 DUP2 MSTORE PUSH1 0x20 ADD PUSH1 0x0 KECCAK256 PUSH1 0x0 SWAP1 SLOAD SWAP1 PUSH2 0x100 EXP SWAP1 DIV PUSH1 0xFF AND PUSH1 0xFF AND EQ PUSH2 0x8E6 JUMPI PUSH1 0x40 MLOAD PUSH32 0x3A81D6FC00000000000000000000000000000000000000000000000000000000 DUP2 MSTORE PUSH1 0x4 ADD PUSH1 0x40 MLOAD DUP1 SWAP2 SUB SWAP1 REVERT JUMPDEST PUSH1 0x0 ISZERO ISZERO PUSH1 0x7 PUSH1 0x0 CALLER PUSH20 0xFFFFFFFFFFFFFFFFFFFFFFFFFFFFFFFFFFFFFFFF AND PUSH20 0xFFFFFFFFFFFFFFFFFFFFFFFFFFFFFFFFFFFFFFFF AND DUP2 MSTORE PUSH1 0x20 ADD SWAP1 DUP2 MSTORE PUSH1 0x20 ADD PUSH1 0x0 KECCAK256 PUSH1 0x6 ADD PUSH1 0x0 SWAP1 SLOAD SWAP1 PUSH2 0x100 EXP SWAP1 DIV PUSH1 0xFF AND ISZERO ISZERO EQ PUSH2 0x97C JUMPI PUSH1 0x40 MLOAD PUSH32 0x8C379A000000000000000000000000000000000000000000000000000000000 DUP2 MSTORE PUSH1 0x4 ADD PUSH2 0x973 SWAP1 PUSH2 0x50C9 JUMP JUMPDEST PUSH1 0x40 MLOAD DUP1 SWAP2 SUB SWAP1 REVERT JUMPDEST PUSH1 0x0 DUP5 MLOAD GT PUSH2 0x98A JUMPI PUSH1 0x0 DUP1 REVERT JUMPDEST PUSH1 0x0 DUP4 MLOAD GT PUSH2 0x998 JUMPI PUSH1 0x0 DUP1 REVERT JUMPDEST PUSH1 0x2 PUSH1 0x0 DUP2 SLOAD DUP1 SWAP3 SWAP2 SWAP1 PUSH2 0x9AB SWAP1 PUSH2 0x5118 JUMP JUMPDEST SWAP2 SWAP1 POP SSTORE POP PUSH1 0x1 PUSH1 0x9 PUSH1 0x0 CALLER PUSH20 0xFFFFFFFFFFFFFFFFFFFFFFFFFFFFFFFFFFFFFFFF AND PUSH20 0xFFFFFFFFFFFFFFFFFFFFFFFFFFFFFFFFFFFFFFFF AND DUP2 MSTORE PUSH1 0x20 ADD SWAP1 DUP2 MSTORE PUSH1 0x20 ADD PUSH1 0x0 KECCAK256 PUSH1 0x0 PUSH2 0x100 EXP DUP2 SLOAD DUP2 PUSH1 0xFF MUL NOT AND SWAP1 DUP4 PUSH1 0xFF AND MUL OR SWAP1 SSTORE POP PUSH1 0x40 MLOAD DUP1 PUSH2 0x100 ADD PUSH1 0x40 MSTORE DUP1 CALLER PUSH20 0xFFFFFFFFFFFFFFFFFFFFFFFFFFFFFFFFFFFFFFFF AND DUP2 MSTORE PUSH1 0x20 ADD DUP6 DUP2 MSTORE PUSH1 0x20 ADD DUP5 DUP2 MSTORE PUSH1 0x20 ADD PUSH1 0x0 DUP2 MSTORE PUSH1 0x20 ADD DUP4 DUP2 MSTORE PUSH1 0x20 ADD DUP3 DUP2 MSTORE PUSH1 0x20 ADD PUSH1 0x1 ISZERO ISZERO DUP2 MSTORE PUSH1 0x20 ADD TIMESTAMP DUP2 MSTORE POP PUSH1 0x7 PUSH1 0x0 CALLER PUSH20 0xFFFFFFFFFFFFFFFFFFFFFFFFFFFFFFFFFFFFFFFF AND PUSH20 0xFFFFFFFFFFFFFFFFFFFFFFFFFFFFFFFFFFFFFFFF AND DUP2 MSTORE PUSH1 0x20 ADD SWAP1 DUP2 MSTORE PUSH1 0x20 ADD PUSH1 0x0 KECCAK256 PUSH1 0x0 DUP3 ADD MLOAD DUP2 PUSH1 0x0 ADD PUSH1 0x0 PUSH2 0x100 EXP DUP2 SLOAD DUP2 PUSH20 0xFFFFFFFFFFFFFFFFFFFFFFFFFFFFFFFFFFFFFFFF MUL NOT AND SWAP1 DUP4 PUSH20 0xFFFFFFFFFFFFFFFFFFFFFFFFFFFFFFFFFFFFFFFF AND MUL OR SWAP1 SSTORE POP PUSH1 0x20 DUP3 ADD MLOAD DUP2 PUSH1 0x1 ADD SWAP1 DUP2 PUSH2 0xAF8 SWAP2 SWAP1 PUSH2 0x530C JUMP JUMPDEST POP PUSH1 0x40 DUP3 ADD MLOAD DUP2 PUSH1 0x2 ADD SWAP1 DUP2 PUSH2 0xB0E SWAP2 SWAP1 PUSH2 0x530C JUMP JUMPDEST POP PUSH1 0x60 DUP3 ADD MLOAD DUP2 PUSH1 0x3 ADD SSTORE PUSH1 0x80 DUP3 ADD MLOAD DUP2 PUSH1 0x4 ADD SWAP1 DUP2 PUSH2 0xB2E SWAP2 SWAP1 PUSH2 0x530C JUMP JUMPDEST POP PUSH1 0xA0 DUP3 ADD MLOAD DUP2 PUSH1 0x5 ADD SWAP1 DUP2 PUSH2 0xB44 SWAP2 SWAP1 PUSH2 0x530C JUMP JUMPDEST POP PUSH1 0xC0 DUP3 ADD MLOAD DUP2 PUSH1 0x6 ADD PUSH1 0x0 PUSH2 0x100 EXP DUP2 SLOAD DUP2 PUSH1 0xFF MUL NOT AND SWAP1 DUP4 ISZERO ISZERO MUL OR SWAP1 SSTORE POP PUSH1 0xE0 DUP3 ADD MLOAD DUP2 PUSH1 0x7 ADD SSTORE SWAP1 POP POP PUSH32 0x6C0E8AABAC6898602E5264C9A24B2394D9895A70BD2F4C44C8CA0FCFCEC6477F CALLER DUP6 PUSH1 0x40 MLOAD PUSH2 0xBA3 SWAP3 SWAP2 SWAP1 PUSH2 0x53DE JUMP JUMPDEST PUSH1 0x40 MLOAD DUP1 SWAP2 SUB SWAP1 LOG1 POP POP POP POP JUMP JUMPDEST PUSH1 0x3 SLOAD DUP2 JUMP JUMPDEST PUSH1 0x2 SLOAD DUP2 JUMP JUMPDEST PUSH1 0x0 PUSH1 0x14 SWAP1 SLOAD SWAP1 PUSH2 0x100 EXP SWAP1 DIV PUSH1 0xFF AND DUP2 JUMP JUMPDEST PUSH2 0xBD8 PUSH2 0x3BD2 JUMP JUMPDEST PUSH1 0x6 PUSH1 0x0 DUP4 PUSH20 0xFFFFFFFFFFFFFFFFFFFFFFFFFFFFFFFFFFFFFFFF AND PUSH20 0xFFFFFFFFFFFFFFFFFFFFFFFFFFFFFFFFFFFFFFFF AND DUP2 MSTORE PUSH1 0x20 ADD SWAP1 DUP2 MSTORE PUSH1 0x20 ADD PUSH1 0x0 KECCAK256 PUSH1 0x40 MLOAD DUP1 PUSH2 0x180 ADD PUSH1 0x40 MSTORE SWAP1 DUP2 PUSH1 0x0 DUP3 ADD PUSH1 0x0 SWAP1 SLOAD SWAP1 PUSH2 0x100 EXP SWAP1 DIV PUSH20 0xFFFFFFFFFFFFFFFFFFFFFFFFFFFFFFFFFFFFFFFF AND PUSH20 0xFFFFFFFFFFFFFFFFFFFFFFFFFFFFFFFFFFFFFFFF AND PUSH20 0xFFFFFFFFFFFFFFFFFFFFFFFFFFFFFFFFFFFFFFFF AND DUP2 MSTORE PUSH1 0x20 ADD PUSH1 0x1 DUP3 ADD DUP1 SLOAD PUSH2 0xC89 SWAP1 PUSH2 0x504C JUMP JUMPDEST DUP1 PUSH1 0x1F ADD PUSH1 0x20 DUP1 SWAP2 DIV MUL PUSH1 0x20 ADD PUSH1 0x40 MLOAD SWAP1 DUP2 ADD PUSH1 0x40 MSTORE DUP1 SWAP3 SWAP2 SWAP1 DUP2 DUP2 MSTORE PUSH1 0x20 ADD DUP3 DUP1 SLOAD PUSH2 0xCB5 SWAP1 PUSH2 0x504C JUMP JUMPDEST DUP1 ISZERO PUSH2 0xD02 JUMPI DUP1 PUSH1 0x1F LT PUSH2 0xCD7 JUMPI PUSH2 0x100 DUP1 DUP4 SLOAD DIV MUL DUP4 MSTORE SWAP2 PUSH1 0x20 ADD SWAP2 PUSH2 0xD02 JUMP JUMPDEST DUP3 ADD SWAP2 SWAP1 PUSH1 0x0 MSTORE PUSH1 0x20 PUSH1 0x0 KECCAK256 SWAP1 JUMPDEST DUP2 SLOAD DUP2 MSTORE SWAP1 PUSH1 0x1 ADD SWAP1 PUSH1 0x20 ADD DUP1 DUP4 GT PUSH2 0xCE5 JUMPI DUP3 SWAP1 SUB PUSH1 0x1F AND DUP3 ADD SWAP2 JUMPDEST POP POP POP POP POP DUP2 MSTORE PUSH1 0x20 ADD PUSH1 0x2 DUP3 ADD DUP1 SLOAD PUSH2 0xD1B SWAP1 PUSH2 0x504C JUMP JUMPDEST DUP1 PUSH1 0x1F ADD PUSH1 0x20 DUP1 SWAP2 DIV MUL PUSH1 0x20 ADD PUSH1 0x40 MLOAD SWAP1 DUP2 ADD PUSH1 0x40 MSTORE DUP1 SWAP3 SWAP2 SWAP1 DUP2 DUP2 MSTORE PUSH1 0x20 ADD DUP3 DUP1 SLOAD PUSH2 0xD47 SWAP1 PUSH2 0x504C JUMP JUMPDEST DUP1 ISZERO PUSH2 0xD94 JUMPI DUP1 PUSH1 0x1F LT PUSH2 0xD69 JUMPI PUSH2 0x100 DUP1 DUP4 SLOAD DIV MUL DUP4 MSTORE SWAP2 PUSH1 0x20 ADD SWAP2 PUSH2 0xD94 JUMP JUMPDEST DUP3 ADD SWAP2 SWAP1 PUSH1 0x0 MSTORE PUSH1 0x20 PUSH1 0x0 KECCAK256 SWAP1 JUMPDEST DUP2 SLOAD DUP2 MSTORE SWAP1 PUSH1 0x1 ADD SWAP1 PUSH1 0x20 ADD DUP1 DUP4 GT PUSH2 0xD77 JUMPI DUP3 SWAP1 SUB PUSH1 0x1F AND DUP3 ADD SWAP2 JUMPDEST POP POP POP POP POP DUP2 MSTORE PUSH1 0x20 ADD PUSH1 0x3 DUP3 ADD SLOAD DUP2 MSTORE PUSH1 0x20 ADD PUSH1 0x4 DUP3 ADD DUP1 SLOAD PUSH2 0xDB7 SWAP1 PUSH2 0x504C JUMP JUMPDEST DUP1 PUSH1 0x1F ADD PUSH1 0x20 DUP1 SWAP2 DIV MUL PUSH1 0x20 ADD PUSH1 0x40 MLOAD SWAP1 DUP2 ADD PUSH1 0x40 MSTORE DUP1 SWAP3 SWAP2 SWAP1 DUP2 DUP2 MSTORE PUSH1 0x20 ADD DUP3 DUP1 SLOAD PUSH2 0xDE3 SWAP1 PUSH2 0x504C JUMP JUMPDEST DUP1 ISZERO PUSH2 0xE30 JUMPI DUP1 PUSH1 0x1F LT PUSH2 0xE05 JUMPI PUSH2 0x100 DUP1 DUP4 SLOAD DIV MUL DUP4 MSTORE SWAP2 PUSH1 0x20 ADD SWAP2 PUSH2 0xE30 JUMP JUMPDEST DUP3 ADD SWAP2 SWAP1 PUSH1 0x0 MSTORE PUSH1 0x20 PUSH1 0x0 KECCAK256 SWAP1 JUMPDEST DUP2 SLOAD DUP2 MSTORE SWAP1 PUSH1 0x1 ADD SWAP1 PUSH1 0x20 ADD DUP1 DUP4 GT PUSH2 0xE13 JUMPI DUP3 SWAP1 SUB PUSH1 0x1F AND DUP3 ADD SWAP2 JUMPDEST POP POP POP POP POP DUP2 MSTORE PUSH1 0x20 ADD PUSH1 0x5 DUP3 ADD DUP1 SLOAD PUSH2 0xE49 SWAP1 PUSH2 0x504C JUMP JUMPDEST DUP1 PUSH1 0x1F ADD PUSH1 0x20 DUP1 SWAP2 DIV MUL PUSH1 0x20 ADD PUSH1 0x40 MLOAD SWAP1 DUP2 ADD PUSH1 0x40 MSTORE DUP1 SWAP3 SWAP2 SWAP1 DUP2 DUP2 MSTORE PUSH1 0x20 ADD DUP3 DUP1 SLOAD PUSH2 0xE75 SWAP1 PUSH2 0x504C JUMP JUMPDEST DUP1 ISZERO PUSH2 0xEC2 JUMPI DUP1 PUSH1 0x1F LT PUSH2 0xE97 JUMPI PUSH2 0x100 DUP1 DUP4 SLOAD DIV MUL DUP4 MSTORE SWAP2 PUSH1 0x20 ADD SWAP2 PUSH2 0xEC2 JUMP JUMPDEST DUP3 ADD SWAP2 SWAP1 PUSH1 0x0 MSTORE PUSH1 0x20 PUSH1 0x0 KECCAK256 SWAP1 JUMPDEST DUP2 SLOAD DUP2 MSTORE SWAP1 PUSH1 0x1 ADD SWAP1 PUSH1 0x20 ADD DUP1 DUP4 GT PUSH2 0xEA5 JUMPI DUP3 SWAP1 SUB PUSH1 0x1F AND DUP3 ADD SWAP2 JUMPDEST POP POP POP POP POP DUP2 MSTORE PUSH1 0x20 ADD PUSH1 0x6 DUP3 ADD DUP1 SLOAD PUSH2 0xEDB SWAP1 PUSH2 0x504C JUMP JUMPDEST DUP1 PUSH1 0x1F ADD PUSH1 0x20 DUP1 SWAP2 DIV MUL PUSH1 0x20 ADD PUSH1 0x40 MLOAD SWAP1 DUP2 ADD PUSH1 0x40 MSTORE DUP1 SWAP3 SWAP2 SWAP1 DUP2 DUP2 MSTORE PUSH1 0x20 ADD DUP3 DUP1 SLOAD PUSH2 0xF07 SWAP1 PUSH2 0x504C JUMP JUMPDEST DUP1 ISZERO PUSH2 0xF54 JUMPI DUP1 PUSH1 0x1F LT PUSH2 0xF29 JUMPI PUSH2 0x100 DUP1 DUP4 SLOAD DIV MUL DUP4 MSTORE SWAP2 PUSH1 0x20 ADD SWAP2 PUSH2 0xF54 JUMP JUMPDEST DUP3 ADD SWAP2 SWAP1 PUSH1 0x0 MSTORE PUSH1 0x20 PUSH1 0x0 KECCAK256 SWAP1 JUMPDEST DUP2 SLOAD DUP2 MSTORE SWAP1 PUSH1 0x1 ADD SWAP1 PUSH1 0x20 ADD DUP1 DUP4 GT PUSH2 0xF37 JUMPI DUP3 SWAP1 SUB PUSH1 0x1F AND DUP3 ADD SWAP2 JUMPDEST POP POP POP POP POP DUP2 MSTORE PUSH1 0x20 ADD PUSH1 0x7 DUP3 ADD DUP1 SLOAD DUP1 PUSH1 0x20 MUL PUSH1 0x20 ADD PUSH1 0x40 MLOAD SWAP1 DUP2 ADD PUSH1 0x40 MSTORE DUP1 SWAP3 SWAP2 SWAP1 DUP2 DUP2 MSTORE PUSH1 0x20 ADD PUSH1 0x0 SWAP1 JUMPDEST DUP3 DUP3 LT ISZERO PUSH2 0x102E JUMPI DUP4 DUP3 SWAP1 PUSH1 0x0 MSTORE PUSH1 0x20 PUSH1 0x0 KECCAK256 ADD DUP1 SLOAD PUSH2 0xFA1 SWAP1 PUSH2 0x504C JUMP JUMPDEST DUP1 PUSH1 0x1F ADD PUSH1 0x20 DUP1 SWAP2 DIV MUL PUSH1 0x20 ADD PUSH1 0x40 MLOAD SWAP1 DUP2 ADD PUSH1 0x40 MSTORE DUP1 SWAP3 SWAP2 SWAP1 DUP2 DUP2 MSTORE PUSH1 0x20 ADD DUP3 DUP1 SLOAD PUSH2 0xFCD SWAP1 PUSH2 0x504C JUMP JUMPDEST DUP1 ISZERO PUSH2 0x101A JUMPI DUP1 PUSH1 0x1F LT PUSH2 0xFEF JUMPI PUSH2 0x100 DUP1 DUP4 SLOAD DIV MUL DUP4 MSTORE SWAP2 PUSH1 0x20 ADD SWAP2 PUSH2 0x101A JUMP JUMPDEST DUP3 ADD SWAP2 SWAP1 PUSH1 0x0 MSTORE PUSH1 0x20 PUSH1 0x0 KECCAK256 SWAP1 JUMPDEST DUP2 SLOAD DUP2 MSTORE SWAP1 PUSH1 0x1 ADD SWAP1 PUSH1 0x20 ADD DUP1 DUP4 GT PUSH2 0xFFD JUMPI DUP3 SWAP1 SUB PUSH1 0x1F AND DUP3 ADD SWAP2 JUMPDEST POP POP POP POP POP DUP2 MSTORE PUSH1 0x20 ADD SWAP1 PUSH1 0x1 ADD SWAP1 PUSH2 0xF82 JUMP JUMPDEST POP POP POP POP DUP2 MSTORE PUSH1 0x20 ADD PUSH1 0x8 DUP3 ADD SLOAD DUP2 MSTORE PUSH1 0x20 ADD PUSH1 0x9 DUP3 ADD PUSH1 0x0 SWAP1 SLOAD SWAP1 PUSH2 0x100 EXP SWAP1 DIV PUSH1 0xFF AND ISZERO ISZERO ISZERO ISZERO DUP2 MSTORE PUSH1 0x20 ADD PUSH1 0xA DUP3 ADD SLOAD DUP2 MSTORE PUSH1 0x20 ADD PUSH1 0xB DUP3 ADD SLOAD DUP2 MSTORE POP POP SWAP1 POP SWAP2 SWAP1 POP JUMP JUMPDEST PUSH1 0x6 PUSH1 0x20 MSTORE DUP1 PUSH1 0x0 MSTORE PUSH1 0x40 PUSH1 0x0 KECCAK256 PUSH1 0x0 SWAP2 POP SWAP1 POP DUP1 PUSH1 0x0 ADD PUSH1 0x0 SWAP1 SLOAD SWAP1 PUSH2 0x100 EXP SWAP1 DIV PUSH20 0xFFFFFFFFFFFFFFFFFFFFFFFFFFFFFFFFFFFFFFFF AND SWAP1 DUP1 PUSH1 0x1 ADD DUP1 SLOAD PUSH2 0x10BF SWAP1 PUSH2 0x504C JUMP JUMPDEST DUP1 PUSH1 0x1F ADD PUSH1 0x20 DUP1 SWAP2 DIV MUL PUSH1 0x20 ADD PUSH1 0x40 MLOAD SWAP1 DUP2 ADD PUSH1 0x40 MSTORE DUP1 SWAP3 SWAP2 SWAP1 DUP2 DUP2 MSTORE PUSH1 0x20 ADD DUP3 DUP1 SLOAD PUSH2 0x10EB SWAP1 PUSH2 0x504C JUMP JUMPDEST DUP1 ISZERO PUSH2 0x1138 JUMPI DUP1 PUSH1 0x1F LT PUSH2 0x110D JUMPI PUSH2 0x100 DUP1 DUP4 SLOAD DIV MUL DUP4 MSTORE SWAP2 PUSH1 0x20 ADD SWAP2 PUSH2 0x1138 JUMP JUMPDEST DUP3 ADD SWAP2 SWAP1 PUSH1 0x0 MSTORE PUSH1 0x20 PUSH1 0x0 KECCAK256 SWAP1 JUMPDEST DUP2 SLOAD DUP2 MSTORE SWAP1 PUSH1 0x1 ADD SWAP1 PUSH1 0x20 ADD DUP1 DUP4 GT PUSH2 0x111B JUMPI DUP3 SWAP1 SUB PUSH1 0x1F AND DUP3 ADD SWAP2 JUMPDEST POP POP POP POP POP SWAP1 DUP1 PUSH1 0x2 ADD DUP1 SLOAD PUSH2 0x114D SWAP1 PUSH2 0x504C JUMP JUMPDEST DUP1 PUSH1 0x1F ADD PUSH1 0x20 DUP1 SWAP2 DIV MUL PUSH1 0x20 ADD PUSH1 0x40 MLOAD SWAP1 DUP2 ADD PUSH1 0x40 MSTORE DUP1 SWAP3 SWAP2 SWAP1 DUP2 DUP2 MSTORE PUSH1 0x20 ADD DUP3 DUP1 SLOAD PUSH2 0x1179 SWAP1 PUSH2 0x504C JUMP JUMPDEST DUP1 ISZERO PUSH2 0x11C6 JUMPI DUP1 PUSH1 0x1F LT PUSH2 0x119B JUMPI PUSH2 0x100 DUP1 DUP4 SLOAD DIV MUL DUP4 MSTORE SWAP2 PUSH1 0x20 ADD SWAP2 PUSH2 0x11C6 JUMP JUMPDEST DUP3 ADD SWAP2 SWAP1 PUSH1 0x0 MSTORE PUSH1 0x20 PUSH1 0x0 KECCAK256 SWAP1 JUMPDEST DUP2 SLOAD DUP2 MSTORE SWAP1 PUSH1 0x1 ADD SWAP1 PUSH1 0x20 ADD DUP1 DUP4 GT PUSH2 0x11A9 JUMPI DUP3 SWAP1 SUB PUSH1 0x1F AND DUP3 ADD SWAP2 JUMPDEST POP POP POP POP POP SWAP1 DUP1 PUSH1 0x3 ADD SLOAD SWAP1 DUP1 PUSH1 0x4 ADD DUP1 SLOAD PUSH2 0x11E1 SWAP1 PUSH2 0x504C JUMP JUMPDEST DUP1 PUSH1 0x1F ADD PUSH1 0x20 DUP1 SWAP2 DIV MUL PUSH1 0x20 ADD PUSH1 0x40 MLOAD SWAP1 DUP2 ADD PUSH1 0x40 MSTORE DUP1 SWAP3 SWAP2 SWAP1 DUP2 DUP2 MSTORE PUSH1 0x20 ADD DUP3 DUP1 SLOAD PUSH2 0x120D SWAP1 PUSH2 0x504C JUMP JUMPDEST DUP1 ISZERO PUSH2 0x125A JUMPI DUP1 PUSH1 0x1F LT PUSH2 0x122F JUMPI PUSH2 0x100 DUP1 DUP4 SLOAD DIV MUL DUP4 MSTORE SWAP2 PUSH1 0x20 ADD SWAP2 PUSH2 0x125A JUMP JUMPDEST DUP3 ADD SWAP2 SWAP1 PUSH1 0x0 MSTORE PUSH1 0x20 PUSH1 0x0 KECCAK256 SWAP1 JUMPDEST DUP2 SLOAD DUP2 MSTORE SWAP1 PUSH1 0x1 ADD SWAP1 PUSH1 0x20 ADD DUP1 DUP4 GT PUSH2 0x123D JUMPI DUP3 SWAP1 SUB PUSH1 0x1F AND DUP3 ADD SWAP2 JUMPDEST POP POP POP POP POP SWAP1 DUP1 PUSH1 0x5 ADD DUP1 SLOAD PUSH2 0x126F SWAP1 PUSH2 0x504C JUMP JUMPDEST DUP1 PUSH1 0x1F ADD PUSH1 0x20 DUP1 SWAP2 DIV MUL PUSH1 0x20 ADD PUSH1 0x40 MLOAD SWAP1 DUP2 ADD PUSH1 0x40 MSTORE DUP1 SWAP3 SWAP2 SWAP1 DUP2 DUP2 MSTORE PUSH1 0x20 ADD DUP3 DUP1 SLOAD PUSH2 0x129B SWAP1 PUSH2 0x504C JUMP JUMPDEST DUP1 ISZERO PUSH2 0x12E8 JUMPI DUP1 PUSH1 0x1F LT PUSH2 0x12BD JUMPI PUSH2 0x100 DUP1 DUP4 SLOAD DIV MUL DUP4 MSTORE SWAP2 PUSH1 0x20 ADD SWAP2 PUSH2 0x12E8 JUMP JUMPDEST DUP3 ADD SWAP2 SWAP1 PUSH1 0x0 MSTORE PUSH1 0x20 PUSH1 0x0 KECCAK256 SWAP1 JUMPDEST DUP2 SLOAD DUP2 MSTORE SWAP1 PUSH1 0x1 ADD SWAP1 PUSH1 0x20 ADD DUP1 DUP4 GT PUSH2 0x12CB JUMPI DUP3 SWAP1 SUB PUSH1 0x1F AND DUP3 ADD SWAP2 JUMPDEST POP POP POP POP POP SWAP1 DUP1 PUSH1 0x6 ADD DUP1 SLOAD PUSH2 0x12FD SWAP1 PUSH2 0x504C JUMP JUMPDEST DUP1 PUSH1 0x1F ADD PUSH1 0x20 DUP1 SWAP2 DIV MUL PUSH1 0x20 ADD PUSH1 0x40 MLOAD SWAP1 DUP2 ADD PUSH1 0x40 MSTORE DUP1 SWAP3 SWAP2 SWAP1 DUP2 DUP2 MSTORE PUSH1 0x20 ADD DUP3 DUP1 SLOAD PUSH2 0x1329 SWAP1 PUSH2 0x504C JUMP JUMPDEST DUP1 ISZERO PUSH2 0x1376 JUMPI DUP1 PUSH1 0x1F LT PUSH2 0x134B JUMPI PUSH2 0x100 DUP1 DUP4 SLOAD DIV MUL DUP4 MSTORE SWAP2 PUSH1 0x20 ADD SWAP2 PUSH2 0x1376 JUMP JUMPDEST DUP3 ADD SWAP2 SWAP1 PUSH1 0x0 MSTORE PUSH1 0x20 PUSH1 0x0 KECCAK256 SWAP1 JUMPDEST DUP2 SLOAD DUP2 MSTORE SWAP1 PUSH1 0x1 ADD SWAP1 PUSH1 0x20 ADD DUP1 DUP4 GT PUSH2 0x1359 JUMPI DUP3 SWAP1 SUB PUSH1 0x1F AND DUP3 ADD SWAP2 JUMPDEST POP POP POP POP POP SWAP1 DUP1 PUSH1 0x8 ADD SLOAD SWAP1 DUP1 PUSH1 0x9 ADD PUSH1 0x0 SWAP1 SLOAD SWAP1 PUSH2 0x100 EXP SWAP1 DIV PUSH1 0xFF AND SWAP1 DUP1 PUSH1 0xA ADD SLOAD SWAP1 DUP1 PUSH1 0xB ADD SLOAD SWAP1 POP DUP12 JUMP JUMPDEST PUSH1 0x60 PUSH1 0x0 PUSH1 0x1 SLOAD PUSH8 0xFFFFFFFFFFFFFFFF DUP2 GT ISZERO PUSH2 0x13C5 JUMPI PUSH2 0x13C4 PUSH2 0x4098 JUMP JUMPDEST JUMPDEST PUSH1 0x40 MLOAD SWAP1 DUP1 DUP3 MSTORE DUP1 PUSH1 0x20 MUL PUSH1 0x20 ADD DUP3 ADD PUSH1 0x40 MSTORE DUP1 ISZERO PUSH2 0x13FE JUMPI DUP2 PUSH1 0x20 ADD JUMPDEST PUSH2 0x13EB PUSH2 0x3BD2 JUMP JUMPDEST DUP2 MSTORE PUSH1 0x20 ADD SWAP1 PUSH1 0x1 SWAP1 SUB SWAP1 DUP2 PUSH2 0x13E3 JUMPI SWAP1 POP JUMPDEST POP SWAP1 POP PUSH1 0x0 JUMPDEST PUSH1 0x1 SLOAD DUP2 LT ISZERO PUSH2 0x190E JUMPI PUSH1 0x6 PUSH1 0x0 PUSH1 0x4 DUP4 DUP2 SLOAD DUP2 LT PUSH2 0x1426 JUMPI PUSH2 0x1425 PUSH2 0x540E JUMP JUMPDEST JUMPDEST SWAP1 PUSH1 0x0 MSTORE PUSH1 0x20 PUSH1 0x0 KECCAK256 ADD PUSH1 0x0 SWAP1 SLOAD SWAP1 PUSH2 0x100 EXP SWAP1 DIV PUSH20 0xFFFFFFFFFFFFFFFFFFFFFFFFFFFFFFFFFFFFFFFF AND PUSH20 0xFFFFFFFFFFFFFFFFFFFFFFFFFFFFFFFFFFFFFFFF AND PUSH20 0xFFFFFFFFFFFFFFFFFFFFFFFFFFFFFFFFFFFFFFFF AND DUP2 MSTORE PUSH1 0x20 ADD SWAP1 DUP2 MSTORE PUSH1 0x20 ADD PUSH1 0x0 KECCAK256 PUSH1 0x40 MLOAD DUP1 PUSH2 0x180 ADD PUSH1 0x40 MSTORE SWAP1 DUP2 PUSH1 0x0 DUP3 ADD PUSH1 0x0 SWAP1 SLOAD SWAP1 PUSH2 0x100 EXP SWAP1 DIV PUSH20 0xFFFFFFFFFFFFFFFFFFFFFFFFFFFFFFFFFFFFFFFF AND PUSH20 0xFFFFFFFFFFFFFFFFFFFFFFFFFFFFFFFFFFFFFFFF AND PUSH20 0xFFFFFFFFFFFFFFFFFFFFFFFFFFFFFFFFFFFFFFFF AND DUP2 MSTORE PUSH1 0x20 ADD PUSH1 0x1 DUP3 ADD DUP1 SLOAD PUSH2 0x14FD SWAP1 PUSH2 0x504C JUMP JUMPDEST DUP1 PUSH1 0x1F ADD PUSH1 0x20 DUP1 SWAP2 DIV MUL PUSH1 0x20 ADD PUSH1 0x40 MLOAD SWAP1 DUP2 ADD PUSH1 0x40 MSTORE DUP1 SWAP3 SWAP2 SWAP1 DUP2 DUP2 MSTORE PUSH1 0x20 ADD DUP3 DUP1 SLOAD PUSH2 0x1529 SWAP1 PUSH2 0x504C JUMP JUMPDEST DUP1 ISZERO PUSH2 0x1576 JUMPI DUP1 PUSH1 0x1F LT PUSH2 0x154B JUMPI PUSH2 0x100 DUP1 DUP4 SLOAD DIV MUL DUP4 MSTORE SWAP2 PUSH1 0x20 ADD SWAP2 PUSH2 0x1576 JUMP JUMPDEST DUP3 ADD SWAP2 SWAP1 PUSH1 0x0 MSTORE PUSH1 0x20 PUSH1 0x0 KECCAK256 SWAP1 JUMPDEST DUP2 SLOAD DUP2 MSTORE SWAP1 PUSH1 0x1 ADD SWAP1 PUSH1 0x20 ADD DUP1 DUP4 GT PUSH2 0x1559 JUMPI DUP3 SWAP1 SUB PUSH1 0x1F AND DUP3 ADD SWAP2 JUMPDEST POP POP POP POP POP DUP2 MSTORE PUSH1 0x20 ADD PUSH1 0x2 DUP3 ADD DUP1 SLOAD PUSH2 0x158F SWAP1 PUSH2 0x504C JUMP JUMPDEST DUP1 PUSH1 0x1F ADD PUSH1 0x20 DUP1 SWAP2 DIV MUL PUSH1 0x20 ADD PUSH1 0x40 MLOAD SWAP1 DUP2 ADD PUSH1 0x40 MSTORE DUP1 SWAP3 SWAP2 SWAP1 DUP2 DUP2 MSTORE PUSH1 0x20 ADD DUP3 DUP1 SLOAD PUSH2 0x15BB SWAP1 PUSH2 0x504C JUMP JUMPDEST DUP1 ISZERO PUSH2 0x1608 JUMPI DUP1 PUSH1 0x1F LT PUSH2 0x15DD JUMPI PUSH2 0x100 DUP1 DUP4 SLOAD DIV MUL DUP4 MSTORE SWAP2 PUSH1 0x20 ADD SWAP2 PUSH2 0x1608 JUMP JUMPDEST DUP3 ADD SWAP2 SWAP1 PUSH1 0x0 MSTORE PUSH1 0x20 PUSH1 0x0 KECCAK256 SWAP1 JUMPDEST DUP2 SLOAD DUP2 MSTORE SWAP1 PUSH1 0x1 ADD SWAP1 PUSH1 0x20 ADD DUP1 DUP4 GT PUSH2 0x15EB JUMPI DUP3 SWAP1 SUB PUSH1 0x1F AND DUP3 ADD SWAP2 JUMPDEST POP POP POP POP POP DUP2 MSTORE PUSH1 0x20 ADD PUSH1 0x3 DUP3 ADD SLOAD DUP2 MSTORE PUSH1 0x20 ADD PUSH1 0x4 DUP3 ADD DUP1 SLOAD PUSH2 0x162B SWAP1 PUSH2 0x504C JUMP JUMPDEST DUP1 PUSH1 0x1F ADD PUSH1 0x20 DUP1 SWAP2 DIV MUL PUSH1 0x20 ADD PUSH1 0x40 MLOAD SWAP1 DUP2 ADD PUSH1 0x40 MSTORE DUP1 SWAP3 SWAP2 SWAP1 DUP2 DUP2 MSTORE PUSH1 0x20 ADD DUP3 DUP1 SLOAD PUSH2 0x1657 SWAP1 PUSH2 0x504C JUMP JUMPDEST DUP1 ISZERO PUSH2 0x16A4 JUMPI DUP1 PUSH1 0x1F LT PUSH2 0x1679 JUMPI PUSH2 0x100 DUP1 DUP4 SLOAD DIV MUL DUP4 MSTORE SWAP2 PUSH1 0x20 ADD SWAP2 PUSH2 0x16A4 JUMP JUMPDEST DUP3 ADD SWAP2 SWAP1 PUSH1 0x0 MSTORE PUSH1 0x20 PUSH1 0x0 KECCAK256 SWAP1 JUMPDEST DUP2 SLOAD DUP2 MSTORE SWAP1 PUSH1 0x1 ADD SWAP1 PUSH1 0x20 ADD DUP1 DUP4 GT PUSH2 0x1687 JUMPI DUP3 SWAP1 SUB PUSH1 0x1F AND DUP3 ADD SWAP2 JUMPDEST POP POP POP POP POP DUP2 MSTORE PUSH1 0x20 ADD PUSH1 0x5 DUP3 ADD DUP1 SLOAD PUSH2 0x16BD SWAP1 PUSH2 0x504C JUMP JUMPDEST DUP1 PUSH1 0x1F ADD PUSH1 0x20 DUP1 SWAP2 DIV MUL PUSH1 0x20 ADD PUSH1 0x40 MLOAD SWAP1 DUP2 ADD PUSH1 0x40 MSTORE DUP1 SWAP3 SWAP2 SWAP1 DUP2 DUP2 MSTORE PUSH1 0x20 ADD DUP3 DUP1 SLOAD PUSH2 0x16E9 SWAP1 PUSH2 0x504C JUMP JUMPDEST DUP1 ISZERO PUSH2 0x1736 JUMPI DUP1 PUSH1 0x1F LT PUSH2 0x170B JUMPI PUSH2 0x100 DUP1 DUP4 SLOAD DIV MUL DUP4 MSTORE SWAP2 PUSH1 0x20 ADD SWAP2 PUSH2 0x1736 JUMP JUMPDEST DUP3 ADD SWAP2 SWAP1 PUSH1 0x0 MSTORE PUSH1 0x20 PUSH1 0x0 KECCAK256 SWAP1 JUMPDEST DUP2 SLOAD DUP2 MSTORE SWAP1 PUSH1 0x1 ADD SWAP1 PUSH1 0x20 ADD DUP1 DUP4 GT PUSH2 0x1719 JUMPI DUP3 SWAP1 SUB PUSH1 0x1F AND DUP3 ADD SWAP2 JUMPDEST POP POP POP POP POP DUP2 MSTORE PUSH1 0x20 ADD PUSH1 0x6 DUP3 ADD DUP1 SLOAD PUSH2 0x174F SWAP1 PUSH2 0x504C JUMP JUMPDEST DUP1 PUSH1 0x1F ADD PUSH1 0x20 DUP1 SWAP2 DIV MUL PUSH1 0x20 ADD PUSH1 0x40 MLOAD SWAP1 DUP2 ADD PUSH1 0x40 MSTORE DUP1 SWAP3 SWAP2 SWAP1 DUP2 DUP2 MSTORE PUSH1 0x20 ADD DUP3 DUP1 SLOAD PUSH2 0x177B SWAP1 PUSH2 0x504C JUMP JUMPDEST DUP1 ISZERO PUSH2 0x17C8 JUMPI DUP1 PUSH1 0x1F LT PUSH2 0x179D JUMPI PUSH2 0x100 DUP1 DUP4 SLOAD DIV MUL DUP4 MSTORE SWAP2 PUSH1 0x20 ADD SWAP2 PUSH2 0x17C8 JUMP JUMPDEST DUP3 ADD SWAP2 SWAP1 PUSH1 0x0 MSTORE PUSH1 0x20 PUSH1 0x0 KECCAK256 SWAP1 JUMPDEST DUP2 SLOAD DUP2 MSTORE SWAP1 PUSH1 0x1 ADD SWAP1 PUSH1 0x20 ADD DUP1 DUP4 GT PUSH2 0x17AB JUMPI DUP3 SWAP1 SUB PUSH1 0x1F AND DUP3 ADD SWAP2 JUMPDEST POP POP POP POP POP DUP2 MSTORE PUSH1 0x20 ADD PUSH1 0x7 DUP3 ADD DUP1 SLOAD DUP1 PUSH1 0x20 MUL PUSH1 0x20 ADD PUSH1 0x40 MLOAD SWAP1 DUP2 ADD PUSH1 0x40 MSTORE DUP1 SWAP3 SWAP2 SWAP1 DUP2 DUP2 MSTORE PUSH1 0x20 ADD PUSH1 0x0 SWAP1 JUMPDEST DUP3 DUP3 LT ISZERO PUSH2 0x18A2 JUMPI DUP4 DUP3 SWAP1 PUSH1 0x0 MSTORE PUSH1 0x20 PUSH1 0x0 KECCAK256 ADD DUP1 SLOAD PUSH2 0x1815 SWAP1 PUSH2 0x504C JUMP JUMPDEST DUP1 PUSH1 0x1F ADD PUSH1 0x20 DUP1 SWAP2 DIV MUL PUSH1 0x20 ADD PUSH1 0x40 MLOAD SWAP1 DUP2 ADD PUSH1 0x40 MSTORE DUP1 SWAP3 SWAP2 SWAP1 DUP2 DUP2 MSTORE PUSH1 0x20 ADD DUP3 DUP1 SLOAD PUSH2 0x1841 SWAP1 PUSH2 0x504C JUMP JUMPDEST DUP1 ISZERO PUSH2 0x188E JUMPI DUP1 PUSH1 0x1F LT PUSH2 0x1863 JUMPI PUSH2 0x100 DUP1 DUP4 SLOAD DIV MUL DUP4 MSTORE SWAP2 PUSH1 0x20 ADD SWAP2 PUSH2 0x188E JUMP JUMPDEST DUP3 ADD SWAP2 SWAP1 PUSH1 0x0 MSTORE PUSH1 0x20 PUSH1 0x0 KECCAK256 SWAP1 JUMPDEST DUP2 SLOAD DUP2 MSTORE SWAP1 PUSH1 0x1 ADD SWAP1 PUSH1 0x20 ADD DUP1 DUP4 GT PUSH2 0x1871 JUMPI DUP3 SWAP1 SUB PUSH1 0x1F AND DUP3 ADD SWAP2 JUMPDEST POP POP POP POP POP DUP2 MSTORE PUSH1 0x20 ADD SWAP1 PUSH1 0x1 ADD SWAP1 PUSH2 0x17F6 JUMP JUMPDEST POP POP POP POP DUP2 MSTORE PUSH1 0x20 ADD PUSH1 0x8 DUP3 ADD SLOAD DUP2 MSTORE PUSH1 0x20 ADD PUSH1 0x9 DUP3 ADD PUSH1 0x0 SWAP1 SLOAD SWAP1 PUSH2 0x100 EXP SWAP1 DIV PUSH1 0xFF AND ISZERO ISZERO ISZERO ISZERO DUP2 MSTORE PUSH1 0x20 ADD PUSH1 0xA DUP3 ADD SLOAD DUP2 MSTORE PUSH1 0x20 ADD PUSH1 0xB DUP3 ADD SLOAD DUP2 MSTORE POP POP DUP3 DUP3 DUP2 MLOAD DUP2 LT PUSH2 0x18F6 JUMPI PUSH2 0x18F5 PUSH2 0x540E JUMP JUMPDEST JUMPDEST PUSH1 0x20 MUL PUSH1 0x20 ADD ADD DUP2 SWAP1 MSTORE POP DUP1 DUP1 PUSH1 0x1 ADD SWAP2 POP POP PUSH2 0x1404 JUMP JUMPDEST POP DUP1 SWAP2 POP POP SWAP1 JUMP JUMPDEST PUSH2 0x191E PUSH2 0x3C4B JUMP JUMPDEST PUSH1 0x0 DUP3 GT DUP1 ISZERO PUSH2 0x1940 JUMPI POP PUSH1 0x0 PUSH1 0x14 SWAP1 SLOAD SWAP1 PUSH2 0x100 EXP SWAP1 DIV PUSH1 0xFF AND PUSH1 0xFF AND DUP3 GT ISZERO JUMPDEST PUSH2 0x197F JUMPI PUSH1 0x40 MLOAD PUSH32 0x8C379A000000000000000000000000000000000000000000000000000000000 DUP2 MSTORE PUSH1 0x4 ADD PUSH2 0x1976 SWAP1 PUSH2 0x5489 JUMP JUMPDEST PUSH1 0x40 MLOAD DUP1 SWAP2 SUB SWAP1 REVERT JUMPDEST PUSH1 0x5 PUSH1 0x0 DUP4 DUP2 MSTORE PUSH1 0x20 ADD SWAP1 DUP2 MSTORE PUSH1 0x20 ADD PUSH1 0x0 KECCAK256 PUSH1 0x40 MLOAD DUP1 PUSH2 0x100 ADD PUSH1 0x40 MSTORE SWAP1 DUP2 PUSH1 0x0 DUP3 ADD PUSH1 0x0 SWAP1 SLOAD SWAP1 PUSH2 0x100 EXP SWAP1 DIV PUSH1 0xFF AND PUSH1 0xFF AND PUSH1 0xFF AND DUP2 MSTORE PUSH1 0x20 ADD PUSH1 0x0 DUP3 ADD PUSH1 0x1 SWAP1 SLOAD SWAP1 PUSH2 0x100 EXP SWAP1 DIV PUSH20 0xFFFFFFFFFFFFFFFFFFFFFFFFFFFFFFFFFFFFFFFF AND PUSH20 0xFFFFFFFFFFFFFFFFFFFFFFFFFFFFFFFFFFFFFFFF AND PUSH20 0xFFFFFFFFFFFFFFFFFFFFFFFFFFFFFFFFFFFFFFFF AND DUP2 MSTORE PUSH1 0x20 ADD PUSH1 0x1 DUP3 ADD DUP1 SLOAD PUSH2 0x1A21 SWAP1 PUSH2 0x504C JUMP JUMPDEST DUP1 PUSH1 0x1F ADD PUSH1 0x20 DUP1 SWAP2 DIV MUL PUSH1 0x20 ADD PUSH1 0x40 MLOAD SWAP1 DUP2 ADD PUSH1 0x40 MSTORE DUP1 SWAP3 SWAP2 SWAP1 DUP2 DUP2 MSTORE PUSH1 0x20 ADD DUP3 DUP1 SLOAD PUSH2 0x1A4D SWAP1 PUSH2 0x504C JUMP JUMPDEST DUP1 ISZERO PUSH2 0x1A9A JUMPI DUP1 PUSH1 0x1F LT PUSH2 0x1A6F JUMPI PUSH2 0x100 DUP1 DUP4 SLOAD DIV MUL DUP4 MSTORE SWAP2 PUSH1 0x20 ADD SWAP2 PUSH2 0x1A9A JUMP JUMPDEST DUP3 ADD SWAP2 SWAP1 PUSH1 0x0 MSTORE PUSH1 0x20 PUSH1 0x0 KECCAK256 SWAP1 JUMPDEST DUP2 SLOAD DUP2 MSTORE SWAP1 PUSH1 0x1 ADD SWAP1 PUSH1 0x20 ADD DUP1 DUP4 GT PUSH2 0x1A7D JUMPI DUP3 SWAP1 SUB PUSH1 0x1F AND DUP3 ADD SWAP2 JUMPDEST POP POP POP POP POP DUP2 MSTORE PUSH1 0x20 ADD PUSH1 0x2 DUP3 ADD DUP1 SLOAD PUSH2 0x1AB3 SWAP1 PUSH2 0x504C JUMP JUMPDEST DUP1 PUSH1 0x1F ADD PUSH1 0x20 DUP1 SWAP2 DIV MUL PUSH1 0x20 ADD PUSH1 0x40 MLOAD SWAP1 DUP2 ADD PUSH1 0x40 MSTORE DUP1 SWAP3 SWAP2 SWAP1 DUP2 DUP2 MSTORE PUSH1 0x20 ADD DUP3 DUP1 SLOAD PUSH2 0x1ADF SWAP1 PUSH2 0x504C JUMP JUMPDEST DUP1 ISZERO PUSH2 0x1B2C JUMPI DUP1 PUSH1 0x1F LT PUSH2 0x1B01 JUMPI PUSH2 0x100 DUP1 DUP4 SLOAD DIV MUL DUP4 MSTORE SWAP2 PUSH1 0x20 ADD SWAP2 PUSH2 0x1B2C JUMP JUMPDEST DUP3 ADD SWAP2 SWAP1 PUSH1 0x0 MSTORE PUSH1 0x20 PUSH1 0x0 KECCAK256 SWAP1 JUMPDEST DUP2 SLOAD DUP2 MSTORE SWAP1 PUSH1 0x1 ADD SWAP1 PUSH1 0x20 ADD DUP1 DUP4 GT PUSH2 0x1B0F JUMPI DUP3 SWAP1 SUB PUSH1 0x1F AND DUP3 ADD SWAP2 JUMPDEST POP POP POP POP POP DUP2 MSTORE PUSH1 0x20 ADD PUSH1 0x3 DUP3 ADD SLOAD DUP2 MSTORE PUSH1 0x20 ADD PUSH1 0x4 DUP3 ADD PUSH1 0x0 SWAP1 SLOAD SWAP1 PUSH2 0x100 EXP SWAP1 DIV PUSH1 0xFF AND ISZERO ISZERO ISZERO ISZERO DUP2 MSTORE PUSH1 0x20 ADD PUSH1 0x5 DUP3 ADD DUP1 SLOAD DUP1 PUSH1 0x20 MUL PUSH1 0x20 ADD PUSH1 0x40 MLOAD SWAP1 DUP2 ADD PUSH1 0x40 MSTORE DUP1 SWAP3 SWAP2 SWAP1 DUP2 DUP2 MSTORE PUSH1 0x20 ADD DUP3 DUP1 SLOAD DUP1 ISZERO PUSH2 0x1BDF JUMPI PUSH1 0x20 MUL DUP3 ADD SWAP2 SWAP1 PUSH1 0x0 MSTORE PUSH1 0x20 PUSH1 0x0 KECCAK256 SWAP1 JUMPDEST DUP2 PUSH1 0x0 SWAP1 SLOAD SWAP1 PUSH2 0x100 EXP SWAP1 DIV PUSH20 0xFFFFFFFFFFFFFFFFFFFFFFFFFFFFFFFFFFFFFFFF AND PUSH20 0xFFFFFFFFFFFFFFFFFFFFFFFFFFFFFFFFFFFFFFFF AND DUP2 MSTORE PUSH1 0x20 ADD SWAP1 PUSH1 0x1 ADD SWAP1 DUP1 DUP4 GT PUSH2 0x1B95 JUMPI JUMPDEST POP POP POP POP POP DUP2 MSTORE PUSH1 0x20 ADD PUSH1 0x6 DUP3 ADD PUSH1 0x0 SWAP1 SLOAD SWAP1 PUSH2 0x100 EXP SWAP1 DIV PUSH20 0xFFFFFFFFFFFFFFFFFFFFFFFFFFFFFFFFFFFFFFFF AND PUSH20 0xFFFFFFFFFFFFFFFFFFFFFFFFFFFFFFFFFFFFFFFF AND PUSH20 0xFFFFFFFFFFFFFFFFFFFFFFFFFFFFFFFFFFFFFFFF AND DUP2 MSTORE POP POP SWAP1 POP SWAP2 SWAP1 POP JUMP JUMPDEST PUSH1 0x0 PUSH1 0x14 SWAP1 SLOAD SWAP1 PUSH2 0x100 EXP SWAP1 DIV PUSH1 0xFF AND PUSH1 0xFF AND DUP2 GT ISZERO DUP1 ISZERO PUSH2 0x1C67 JUMPI POP PUSH1 0x0 DUP2 GT JUMPDEST PUSH2 0x1CA6 JUMPI PUSH1 0x40 MLOAD PUSH32 0x8C379A000000000000000000000000000000000000000000000000000000000 DUP2 MSTORE PUSH1 0x4 ADD PUSH2 0x1C9D SWAP1 PUSH2 0x54F5 JUMP JUMPDEST PUSH1 0x40 MLOAD DUP1 SWAP2 SUB SWAP1 REVERT JUMPDEST PUSH1 0x0 PUSH1 0x5 PUSH1 0x0 DUP4 DUP2 MSTORE PUSH1 0x20 ADD SWAP1 DUP2 MSTORE PUSH1 0x20 ADD PUSH1 0x0 KECCAK256 SWAP1 POP PUSH1 0x0 PUSH1 0x7 PUSH1 0x0 CALLER PUSH20 0xFFFFFFFFFFFFFFFFFFFFFFFFFFFFFFFFFFFFFFFF AND PUSH20 0xFFFFFFFFFFFFFFFFFFFFFFFFFFFFFFFFFFFFFFFF AND DUP2 MSTORE PUSH1 0x20 ADD SWAP1 DUP2 MSTORE PUSH1 0x20 ADD PUSH1 0x0 KECCAK256 SWAP1 POP CALLER PUSH20 0xFFFFFFFFFFFFFFFFFFFFFFFFFFFFFFFFFFFFFFFF AND DUP3 PUSH1 0x0 ADD PUSH1 0x1 SWAP1 SLOAD SWAP1 PUSH2 0x100 EXP SWAP1 DIV PUSH20 0xFFFFFFFFFFFFFFFFFFFFFFFFFFFFFFFFFFFFFFFF AND PUSH20 0xFFFFFFFFFFFFFFFFFFFFFFFFFFFFFFFFFFFFFFFF AND EQ PUSH2 0x1D5C JUMPI PUSH1 0x0 DUP1 REVERT JUMPDEST DUP2 PUSH1 0x4 ADD PUSH1 0x0 SWAP1 SLOAD SWAP1 PUSH2 0x100 EXP SWAP1 DIV PUSH1 0xFF AND ISZERO PUSH2 0x1DAE JUMPI PUSH1 0x40 MLOAD PUSH32 0x8C379A000000000000000000000000000000000000000000000000000000000 DUP2 MSTORE PUSH1 0x4 ADD PUSH2 0x1DA5 SWAP1 PUSH2 0x5561 JUMP JUMPDEST PUSH1 0x40 MLOAD DUP1 SWAP2 SUB SWAP1 REVERT JUMPDEST DUP2 PUSH1 0x3 ADD SLOAD CALLVALUE LT ISZERO PUSH2 0x1DF5 JUMPI PUSH1 0x40 MLOAD PUSH32 0x8C379A000000000000000000000000000000000000000000000000000000000 DUP2 MSTORE PUSH1 0x4 ADD PUSH2 0x1DEC SWAP1 PUSH2 0x55CD JUMP JUMPDEST PUSH1 0x40 MLOAD DUP1 SWAP2 SUB SWAP1 REVERT JUMPDEST CALLVALUE DUP2 PUSH1 0x3 ADD PUSH1 0x0 DUP3 DUP3 SLOAD PUSH2 0x1E09 SWAP2 SWAP1 PUSH2 0x55ED JUMP JUMPDEST SWAP3 POP POP DUP2 SWAP1 SSTORE POP CALLVALUE PUSH1 0x8 PUSH1 0x0 CALLER PUSH20 0xFFFFFFFFFFFFFFFFFFFFFFFFFFFFFFFFFFFFFFFF AND PUSH20 0xFFFFFFFFFFFFFFFFFFFFFFFFFFFFFFFFFFFFFFFF AND DUP2 MSTORE PUSH1 0x20 ADD SWAP1 DUP2 MSTORE PUSH1 0x20 ADD PUSH1 0x0 KECCAK256 PUSH1 0x0 DUP6 DUP2 MSTORE PUSH1 0x20 ADD SWAP1 DUP2 MSTORE PUSH1 0x20 ADD PUSH1 0x0 KECCAK256 PUSH1 0x0 DUP3 DUP3 SLOAD PUSH2 0x1E70 SWAP2 SWAP1 PUSH2 0x55ED JUMP JUMPDEST SWAP3 POP POP DUP2 SWAP1 SSTORE POP PUSH32 0xE030E47E27825A2AD1B19E4CF2E70BFBFB3124AF275C7727A82B114BA7B29A85 DUP4 CALLER CALLVALUE PUSH1 0x40 MLOAD PUSH2 0x1EAA SWAP4 SWAP3 SWAP2 SWAP1 PUSH2 0x5621 JUMP JUMPDEST PUSH1 0x40 MLOAD DUP1 SWAP2 SUB SWAP1 LOG1 POP POP POP JUMP JUMPDEST PUSH1 0x0 PUSH1 0x9 PUSH1 0x0 CALLER PUSH20 0xFFFFFFFFFFFFFFFFFFFFFFFFFFFFFFFFFFFFFFFF AND PUSH20 0xFFFFFFFFFFFFFFFFFFFFFFFFFFFFFFFFFFFFFFFF AND DUP2 MSTORE PUSH1 0x20 ADD SWAP1 DUP2 MSTORE PUSH1 0x20 ADD PUSH1 0x0 KECCAK256 PUSH1 0x0 SWAP1 SLOAD SWAP1 PUSH2 0x100 EXP SWAP1 DIV PUSH1 0xFF AND PUSH1 0xFF AND EQ PUSH2 0x1F40 JUMPI PUSH1 0x40 MLOAD PUSH32 0x3A81D6FC00000000000000000000000000000000000000000000000000000000 DUP2 MSTORE PUSH1 0x4 ADD PUSH1 0x40 MLOAD DUP1 SWAP2 SUB SWAP1 REVERT JUMPDEST PUSH1 0x0 ISZERO ISZERO PUSH1 0x6 PUSH1 0x0 CALLER PUSH20 0xFFFFFFFFFFFFFFFFFFFFFFFFFFFFFFFFFFFFFFFF AND PUSH20 0xFFFFFFFFFFFFFFFFFFFFFFFFFFFFFFFFFFFFFFFF AND DUP2 MSTORE PUSH1 0x20 ADD SWAP1 DUP2 MSTORE PUSH1 0x20 ADD PUSH1 0x0 KECCAK256 PUSH1 0x9 ADD PUSH1 0x0 SWAP1 SLOAD SWAP1 PUSH2 0x100 EXP SWAP1 DIV PUSH1 0xFF AND ISZERO ISZERO EQ PUSH2 0x1FD6 JUMPI PUSH1 0x40 MLOAD PUSH32 0x8C379A000000000000000000000000000000000000000000000000000000000 DUP2 MSTORE PUSH1 0x4 ADD PUSH2 0x1FCD SWAP1 PUSH2 0x50C9 JUMP JUMPDEST PUSH1 0x40 MLOAD DUP1 SWAP2 SUB SWAP1 REVERT JUMPDEST PUSH1 0x0 DUP8 MLOAD GT PUSH2 0x1FE4 JUMPI PUSH1 0x0 DUP1 REVERT JUMPDEST PUSH1 0x0 DUP7 MLOAD GT PUSH2 0x1FF2 JUMPI PUSH1 0x0 DUP1 REVERT JUMPDEST PUSH1 0x1 PUSH1 0x0 DUP2 SLOAD DUP1 SWAP3 SWAP2 SWAP1 PUSH2 0x2005 SWAP1 PUSH2 0x5118 JUMP JUMPDEST SWAP2 SWAP1 POP SSTORE POP PUSH1 0x2 PUSH1 0x9 PUSH1 0x0 CALLER PUSH20 0xFFFFFFFFFFFFFFFFFFFFFFFFFFFFFFFFFFFFFFFF AND PUSH20 0xFFFFFFFFFFFFFFFFFFFFFFFFFFFFFFFFFFFFFFFF AND DUP2 MSTORE PUSH1 0x20 ADD SWAP1 DUP2 MSTORE PUSH1 0x20 ADD PUSH1 0x0 KECCAK256 PUSH1 0x0 PUSH2 0x100 EXP DUP2 SLOAD DUP2 PUSH1 0xFF MUL NOT AND SWAP1 DUP4 PUSH1 0xFF AND MUL OR SWAP1 SSTORE POP PUSH1 0x40 MLOAD DUP1 PUSH2 0x180 ADD PUSH1 0x40 MSTORE DUP1 CALLER PUSH20 0xFFFFFFFFFFFFFFFFFFFFFFFFFFFFFFFFFFFFFFFF AND DUP2 MSTORE PUSH1 0x20 ADD DUP9 DUP2 MSTORE PUSH1 0x20 ADD DUP8 DUP2 MSTORE PUSH1 0x20 ADD PUSH1 0x0 DUP2 MSTORE PUSH1 0x20 ADD DUP7 DUP2 MSTORE PUSH1 0x20 ADD DUP6 DUP2 MSTORE PUSH1 0x20 ADD DUP5 DUP2 MSTORE PUSH1 0x20 ADD DUP4 DUP2 MSTORE PUSH1 0x20 ADD PUSH1 0x0 DUP2 MSTORE PUSH1 0x20 ADD PUSH1 0x1 ISZERO ISZERO DUP2 MSTORE PUSH1 0x20 ADD TIMESTAMP DUP2 MSTORE PUSH1 0x20 ADD DUP3 DUP2 MSTORE POP PUSH1 0x6 PUSH1 0x0 CALLER PUSH20 0xFFFFFFFFFFFFFFFFFFFFFFFFFFFFFFFFFFFFFFFF AND PUSH20 0xFFFFFFFFFFFFFFFFFFFFFFFFFFFFFFFFFFFFFFFF AND DUP2 MSTORE PUSH1 0x20 ADD SWAP1 DUP2 MSTORE PUSH1 0x20 ADD PUSH1 0x0 KECCAK256 PUSH1 0x0 DUP3 ADD MLOAD DUP2 PUSH1 0x0 ADD PUSH1 0x0 PUSH2 0x100 EXP DUP2 SLOAD DUP2 PUSH20 0xFFFFFFFFFFFFFFFFFFFFFFFFFFFFFFFFFFFFFFFF MUL NOT AND SWAP1 DUP4 PUSH20 0xFFFFFFFFFFFFFFFFFFFFFFFFFFFFFFFFFFFFFFFF AND MUL OR SWAP1 SSTORE POP PUSH1 0x20 DUP3 ADD MLOAD DUP2 PUSH1 0x1 ADD SWAP1 DUP2 PUSH2 0x216B SWAP2 SWAP1 PUSH2 0x530C JUMP JUMPDEST POP PUSH1 0x40 DUP3 ADD MLOAD DUP2 PUSH1 0x2 ADD SWAP1 DUP2 PUSH2 0x2181 SWAP2 SWAP1 PUSH2 0x530C JUMP JUMPDEST POP PUSH1 0x60 DUP3 ADD MLOAD DUP2 PUSH1 0x3 ADD SSTORE PUSH1 0x80 DUP3 ADD MLOAD DUP2 PUSH1 0x4 ADD SWAP1 DUP2 PUSH2 0x21A1 SWAP2 SWAP1 PUSH2 0x530C JUMP JUMPDEST POP PUSH1 0xA0 DUP3 ADD MLOAD DUP2 PUSH1 0x5 ADD SWAP1 DUP2 PUSH2 0x21B7 SWAP2 SWAP1 PUSH2 0x530C JUMP JUMPDEST POP PUSH1 0xC0 DUP3 ADD MLOAD DUP2 PUSH1 0x6 ADD SWAP1 DUP2 PUSH2 0x21CD SWAP2 SWAP1 PUSH2 0x530C JUMP JUMPDEST POP PUSH1 0xE0 DUP3 ADD MLOAD DUP2 PUSH1 0x7 ADD SWAP1 DUP1 MLOAD SWAP1 PUSH1 0x20 ADD SWAP1 PUSH2 0x21EA SWAP3 SWAP2 SWAP1 PUSH2 0x3CC1 JUMP JUMPDEST POP PUSH2 0x100 DUP3 ADD MLOAD DUP2 PUSH1 0x8 ADD SSTORE PUSH2 0x120 DUP3 ADD MLOAD DUP2 PUSH1 0x9 ADD PUSH1 0x0 PUSH2 0x100 EXP DUP2 SLOAD DUP2 PUSH1 0xFF MUL NOT AND SWAP1 DUP4 ISZERO ISZERO MUL OR SWAP1 SSTORE POP PUSH2 0x140 DUP3 ADD MLOAD DUP2 PUSH1 0xA ADD SSTORE PUSH2 0x160 DUP3 ADD MLOAD DUP2 PUSH1 0xB ADD SSTORE SWAP1 POP POP PUSH1 0x4 CALLER SWAP1 DUP1 PUSH1 0x1 DUP2 SLOAD ADD DUP1 DUP3 SSTORE DUP1 SWAP2 POP POP PUSH1 0x1 SWAP1 SUB SWAP1 PUSH1 0x0 MSTORE PUSH1 0x20 PUSH1 0x0 KECCAK256 ADD PUSH1 0x0 SWAP1 SWAP2 SWAP1 SWAP2 SWAP1 SWAP2 PUSH2 0x100 EXP DUP2 SLOAD DUP2 PUSH20 0xFFFFFFFFFFFFFFFFFFFFFFFFFFFFFFFFFFFFFFFF MUL NOT AND SWAP1 DUP4 PUSH20 0xFFFFFFFFFFFFFFFFFFFFFFFFFFFFFFFFFFFFFFFF AND MUL OR SWAP1 SSTORE POP PUSH32 0x21BEF455EB0E77B12A579311CA8616D72216C8B628577EEDA276AC16FE5B622E CALLER DUP4 DUP4 PUSH1 0x40 MLOAD PUSH2 0x22C6 SWAP4 SWAP3 SWAP2 SWAP1 PUSH2 0x56DE JUMP JUMPDEST PUSH1 0x40 MLOAD DUP1 SWAP2 SUB SWAP1 LOG1 POP POP POP POP POP POP POP JUMP JUMPDEST PUSH1 0x1 SLOAD DUP2 JUMP JUMPDEST PUSH1 0x1 PUSH1 0x9 PUSH1 0x0 CALLER PUSH20 0xFFFFFFFFFFFFFFFFFFFFFFFFFFFFFFFFFFFFFFFF AND PUSH20 0xFFFFFFFFFFFFFFFFFFFFFFFFFFFFFFFFFFFFFFFF AND DUP2 MSTORE PUSH1 0x20 ADD SWAP1 DUP2 MSTORE PUSH1 0x20 ADD PUSH1 0x0 KECCAK256 PUSH1 0x0 SWAP1 SLOAD SWAP1 PUSH2 0x100 EXP SWAP1 DIV PUSH1 0xFF AND PUSH1 0xFF AND EQ PUSH2 0x2366 JUMPI PUSH1 0x40 MLOAD PUSH32 0x7669999000000000000000000000000000000000000000000000000000000000 DUP2 MSTORE PUSH1 0x4 ADD PUSH1 0x40 MLOAD DUP1 SWAP2 SUB SWAP1 REVERT JUMPDEST PUSH1 0x0 PUSH1 0x14 SWAP1 SLOAD SWAP1 PUSH2 0x100 EXP SWAP1 DIV PUSH1 0xFF AND PUSH1 0xFF AND DUP3 GT ISZERO DUP1 ISZERO PUSH2 0x2388 JUMPI POP PUSH1 0x0 DUP3 GT JUMPDEST PUSH2 0x23C7 JUMPI PUSH1 0x40 MLOAD PUSH32 0x8C379A000000000000000000000000000000000000000000000000000000000 DUP2 MSTORE PUSH1 0x4 ADD PUSH2 0x23BE SWAP1 PUSH2 0x5768 JUMP JUMPDEST PUSH1 0x40 MLOAD DUP1 SWAP2 SUB SWAP1 REVERT JUMPDEST PUSH1 0x0 PUSH1 0x5 PUSH1 0x0 DUP5 DUP2 MSTORE PUSH1 0x20 ADD SWAP1 DUP2 MSTORE PUSH1 0x20 ADD PUSH1 0x0 KECCAK256 SWAP1 POP PUSH1 0x0 PUSH20 0xFFFFFFFFFFFFFFFFFFFFFFFFFFFFFFFFFFFFFFFF AND DUP2 PUSH1 0x0 ADD PUSH1 0x1 SWAP1 SLOAD SWAP1 PUSH2 0x100 EXP SWAP1 DIV PUSH20 0xFFFFFFFFFFFFFFFFFFFFFFFFFFFFFFFFFFFFFFFF AND PUSH20 0xFFFFFFFFFFFFFFFFFFFFFFFFFFFFFFFFFFFFFFFF AND SUB PUSH2 0x2471 JUMPI PUSH1 0x40 MLOAD PUSH32 0x8C379A000000000000000000000000000000000000000000000000000000000 DUP2 MSTORE PUSH1 0x4 ADD PUSH2 0x2468 SWAP1 PUSH2 0x57D4 JUMP JUMPDEST PUSH1 0x40 MLOAD DUP1 SWAP2 SUB SWAP1 REVERT JUMPDEST PUSH2 0x247B DUP2 DUP4 PUSH2 0x3B65 JUMP JUMPDEST PUSH2 0x24BA JUMPI PUSH1 0x40 MLOAD PUSH32 0x8C379A000000000000000000000000000000000000000000000000000000000 DUP2 MSTORE PUSH1 0x4 ADD PUSH2 0x24B1 SWAP1 PUSH2 0x5840 JUMP JUMPDEST PUSH1 0x40 MLOAD DUP1 SWAP2 SUB SWAP1 REVERT JUMPDEST PUSH1 0x0 DUP2 PUSH1 0x3 ADD SLOAD SWAP1 POP PUSH1 0x1 DUP3 PUSH1 0x4 ADD PUSH1 0x0 PUSH2 0x100 EXP DUP2 SLOAD DUP2 PUSH1 0xFF MUL NOT AND SWAP1 DUP4 ISZERO ISZERO MUL OR SWAP1 SSTORE POP PUSH1 0x3 PUSH1 0x0 DUP2 SLOAD DUP1 SWAP3 SWAP2 SWAP1 PUSH2 0x24F3 SWAP1 PUSH2 0x5118 JUMP JUMPDEST SWAP2 SWAP1 POP SSTORE POP PUSH1 0x6 PUSH1 0x0 DUP5 PUSH20 0xFFFFFFFFFFFFFFFFFFFFFFFFFFFFFFFFFFFFFFFF AND PUSH20 0xFFFFFFFFFFFFFFFFFFFFFFFFFFFFFFFFFFFFFFFF AND DUP2 MSTORE PUSH1 0x20 ADD SWAP1 DUP2 MSTORE PUSH1 0x20 ADD PUSH1 0x0 KECCAK256 PUSH1 0x8 ADD PUSH1 0x0 DUP2 SLOAD DUP1 SWAP3 SWAP2 SWAP1 PUSH2 0x254B SWAP1 PUSH2 0x5118 JUMP JUMPDEST SWAP2 SWAP1 POP SSTORE POP PUSH32 0x4DBBA472101E9F148A3A5ECBE793F0EE16A7EFE4BF3F8CBFAB5330E1642EF955 DUP5 DUP5 DUP4 PUSH1 0x40 MLOAD PUSH2 0x2583 SWAP4 SWAP3 SWAP2 SWAP1 PUSH2 0x5621 JUMP JUMPDEST PUSH1 0x40 MLOAD DUP1 SWAP2 SUB SWAP1 LOG1 POP POP POP POP JUMP JUMPDEST PUSH1 0x1 PUSH1 0x9 PUSH1 0x0 CALLER PUSH20 0xFFFFFFFFFFFFFFFFFFFFFFFFFFFFFFFFFFFFFFFF AND PUSH20 0xFFFFFFFFFFFFFFFFFFFFFFFFFFFFFFFFFFFFFFFF AND DUP2 MSTORE PUSH1 0x20 ADD SWAP1 DUP2 MSTORE PUSH1 0x20 ADD PUSH1 0x0 KECCAK256 PUSH1 0x0 SWAP1 SLOAD SWAP1 PUSH2 0x100 EXP SWAP1 DIV PUSH1 0xFF AND PUSH1 0xFF AND EQ PUSH2 0x261A JUMPI PUSH1 0x40 MLOAD PUSH32 0x7669999000000000000000000000000000000000000000000000000000000000 DUP2 MSTORE PUSH1 0x4 ADD PUSH1 0x40 MLOAD DUP1 SWAP2 SUB SWAP1 REVERT JUMPDEST PUSH1 0x0 PUSH1 0x14 DUP2 DUP2 SWAP1 SLOAD SWAP1 PUSH2 0x100 EXP SWAP1 DIV PUSH1 0xFF AND DUP1 SWAP3 SWAP2 SWAP1 PUSH2 0x2639 SWAP1 PUSH2 0x5860 JUMP JUMPDEST SWAP2 SWAP1 PUSH2 0x100 EXP DUP2 SLOAD DUP2 PUSH1 0xFF MUL NOT AND SWAP1 DUP4 PUSH1 0xFF AND MUL OR SWAP1 SSTORE POP POP PUSH1 0x0 DUP1 PUSH1 0x14 SWAP1 SLOAD SWAP1 PUSH2 0x100 EXP SWAP1 DIV PUSH1 0xFF AND SWAP1 POP PUSH1 0x40 MLOAD DUP1 PUSH2 0x100 ADD PUSH1 0x40 MSTORE DUP1 DUP3 PUSH1 0xFF AND DUP2 MSTORE PUSH1 0x20 ADD CALLER PUSH20 0xFFFFFFFFFFFFFFFFFFFFFFFFFFFFFFFFFFFFFFFF AND DUP2 MSTORE PUSH1 0x20 ADD DUP6 DUP2 MSTORE PUSH1 0x20 ADD DUP5 DUP2 MSTORE PUSH1 0x20 ADD DUP4 DUP2 MSTORE PUSH1 0x20 ADD PUSH1 0x0 ISZERO ISZERO DUP2 MSTORE PUSH1 0x20 ADD PUSH1 0x0 PUSH8 0xFFFFFFFFFFFFFFFF DUP2 GT ISZERO PUSH2 0x26CC JUMPI PUSH2 0x26CB PUSH2 0x4098 JUMP JUMPDEST JUMPDEST PUSH1 0x40 MLOAD SWAP1 DUP1 DUP3 MSTORE DUP1 PUSH1 0x20 MUL PUSH1 0x20 ADD DUP3 ADD PUSH1 0x40 MSTORE DUP1 ISZERO PUSH2 0x26FA JUMPI DUP2 PUSH1 0x20 ADD PUSH1 0x20 DUP3 MUL DUP1 CALLDATASIZE DUP4 CALLDATACOPY DUP1 DUP3 ADD SWAP2 POP POP SWAP1 POP JUMPDEST POP DUP2 MSTORE PUSH1 0x20 ADD PUSH1 0x0 PUSH20 0xFFFFFFFFFFFFFFFFFFFFFFFFFFFFFFFFFFFFFFFF AND DUP2 MSTORE POP PUSH1 0x5 PUSH1 0x0 DUP4 PUSH1 0xFF AND DUP2 MSTORE PUSH1 0x20 ADD SWAP1 DUP2 MSTORE PUSH1 0x20 ADD PUSH1 0x0 KECCAK256 PUSH1 0x0 DUP3 ADD MLOAD DUP2 PUSH1 0x0 ADD PUSH1 0x0 PUSH2 0x100 EXP DUP2 SLOAD DUP2 PUSH1 0xFF MUL NOT AND SWAP1 DUP4 PUSH1 0xFF AND MUL OR SWAP1 SSTORE POP PUSH1 0x20 DUP3 ADD MLOAD DUP2 PUSH1 0x0 ADD PUSH1 0x1 PUSH2 0x100 EXP DUP2 SLOAD DUP2 PUSH20 0xFFFFFFFFFFFFFFFFFFFFFFFFFFFFFFFFFFFFFFFF MUL NOT AND SWAP1 DUP4 PUSH20 0xFFFFFFFFFFFFFFFFFFFFFFFFFFFFFFFFFFFFFFFF AND MUL OR SWAP1 SSTORE POP PUSH1 0x40 DUP3 ADD MLOAD DUP2 PUSH1 0x1 ADD SWAP1 DUP2 PUSH2 0x27AE SWAP2 SWAP1 PUSH2 0x530C JUMP JUMPDEST POP PUSH1 0x60 DUP3 ADD MLOAD DUP2 PUSH1 0x2 ADD SWAP1 DUP2 PUSH2 0x27C4 SWAP2 SWAP1 PUSH2 0x530C JUMP JUMPDEST POP PUSH1 0x80 DUP3 ADD MLOAD DUP2 PUSH1 0x3 ADD SSTORE PUSH1 0xA0 DUP3 ADD MLOAD DUP2 PUSH1 0x4 ADD PUSH1 0x0 PUSH2 0x100 EXP DUP2 SLOAD DUP2 PUSH1 0xFF MUL NOT AND SWAP1 DUP4 ISZERO ISZERO MUL OR SWAP1 SSTORE POP PUSH1 0xC0 DUP3 ADD MLOAD DUP2 PUSH1 0x5 ADD SWAP1 DUP1 MLOAD SWAP1 PUSH1 0x20 ADD SWAP1 PUSH2 0x280B SWAP3 SWAP2 SWAP1 PUSH2 0x3D1A JUMP JUMPDEST POP PUSH1 0xE0 DUP3 ADD MLOAD DUP2 PUSH1 0x6 ADD PUSH1 0x0 PUSH2 0x100 EXP DUP2 SLOAD DUP2 PUSH20 0xFFFFFFFFFFFFFFFFFFFFFFFFFFFFFFFFFFFFFFFF MUL NOT AND SWAP1 DUP4 PUSH20 0xFFFFFFFFFFFFFFFFFFFFFFFFFFFFFFFFFFFFFFFF AND MUL OR SWAP1 SSTORE POP SWAP1 POP POP PUSH32 0xB63F0FDFB200B05C8B95FB4DCF8F8ABD30F0B6884D532792E705AFAB4F37380A DUP2 DUP6 PUSH1 0x40 MLOAD PUSH2 0x2887 SWAP3 SWAP2 SWAP1 PUSH2 0x58BA JUMP JUMPDEST PUSH1 0x40 MLOAD DUP1 SWAP2 SUB SWAP1 LOG1 POP POP POP POP JUMP JUMPDEST PUSH2 0x289D PUSH2 0x3DA4 JUMP JUMPDEST PUSH1 0x7 PUSH1 0x0 DUP4 PUSH20 0xFFFFFFFFFFFFFFFFFFFFFFFFFFFFFFFFFFFFFFFF AND PUSH20 0xFFFFFFFFFFFFFFFFFFFFFFFFFFFFFFFFFFFFFFFF AND DUP2 MSTORE PUSH1 0x20 ADD SWAP1 DUP2 MSTORE PUSH1 0x20 ADD PUSH1 0x0 KECCAK256 PUSH1 0x40 MLOAD DUP1 PUSH2 0x100 ADD PUSH1 0x40 MSTORE SWAP1 DUP2 PUSH1 0x0 DUP3 ADD PUSH1 0x0 SWAP1 SLOAD SWAP1 PUSH2 0x100 EXP SWAP1 DIV PUSH20 0xFFFFFFFFFFFFFFFFFFFFFFFFFFFFFFFFFFFFFFFF AND PUSH20 0xFFFFFFFFFFFFFFFFFFFFFFFFFFFFFFFFFFFFFFFF AND PUSH20 0xFFFFFFFFFFFFFFFFFFFFFFFFFFFFFFFFFFFFFFFF AND DUP2 MSTORE PUSH1 0x20 ADD PUSH1 0x1 DUP3 ADD DUP1 SLOAD PUSH2 0x294E SWAP1 PUSH2 0x504C JUMP JUMPDEST DUP1 PUSH1 0x1F ADD PUSH1 0x20 DUP1 SWAP2 DIV MUL PUSH1 0x20 ADD PUSH1 0x40 MLOAD SWAP1 DUP2 ADD PUSH1 0x40 MSTORE DUP1 SWAP3 SWAP2 SWAP1 DUP2 DUP2 MSTORE PUSH1 0x20 ADD DUP3 DUP1 SLOAD PUSH2 0x297A SWAP1 PUSH2 0x504C JUMP JUMPDEST DUP1 ISZERO PUSH2 0x29C7 JUMPI DUP1 PUSH1 0x1F LT PUSH2 0x299C JUMPI PUSH2 0x100 DUP1 DUP4 SLOAD DIV MUL DUP4 MSTORE SWAP2 PUSH1 0x20 ADD SWAP2 PUSH2 0x29C7 JUMP JUMPDEST DUP3 ADD SWAP2 SWAP1 PUSH1 0x0 MSTORE PUSH1 0x20 PUSH1 0x0 KECCAK256 SWAP1 JUMPDEST DUP2 SLOAD DUP2 MSTORE SWAP1 PUSH1 0x1 ADD SWAP1 PUSH1 0x20 ADD DUP1 DUP4 GT PUSH2 0x29AA JUMPI DUP3 SWAP1 SUB PUSH1 0x1F AND DUP3 ADD SWAP2 JUMPDEST POP POP POP POP POP DUP2 MSTORE PUSH1 0x20 ADD PUSH1 0x2 DUP3 ADD DUP1 SLOAD PUSH2 0x29E0 SWAP1 PUSH2 0x504C JUMP JUMPDEST DUP1 PUSH1 0x1F ADD PUSH1 0x20 DUP1 SWAP2 DIV MUL PUSH1 0x20 ADD PUSH1 0x40 MLOAD SWAP1 DUP2 ADD PUSH1 0x40 MSTORE DUP1 SWAP3 SWAP2 SWAP1 DUP2 DUP2 MSTORE PUSH1 0x20 ADD DUP3 DUP1 SLOAD PUSH2 0x2A0C SWAP1 PUSH2 0x504C JUMP JUMPDEST DUP1 ISZERO PUSH2 0x2A59 JUMPI DUP1 PUSH1 0x1F LT PUSH2 0x2A2E JUMPI PUSH2 0x100 DUP1 DUP4 SLOAD DIV MUL DUP4 MSTORE SWAP2 PUSH1 0x20 ADD SWAP2 PUSH2 0x2A59 JUMP JUMPDEST DUP3 ADD SWAP2 SWAP1 PUSH1 0x0 MSTORE PUSH1 0x20 PUSH1 0x0 KECCAK256 SWAP1 JUMPDEST DUP2 SLOAD DUP2 MSTORE SWAP1 PUSH1 0x1 ADD SWAP1 PUSH1 0x20 ADD DUP1 DUP4 GT PUSH2 0x2A3C JUMPI DUP3 SWAP1 SUB PUSH1 0x1F AND DUP3 ADD SWAP2 JUMPDEST POP POP POP POP POP DUP2 MSTORE PUSH1 0x20 ADD PUSH1 0x3 DUP3 ADD SLOAD DUP2 MSTORE PUSH1 0x20 ADD PUSH1 0x4 DUP3 ADD DUP1 SLOAD PUSH2 0x2A7C SWAP1 PUSH2 0x504C JUMP JUMPDEST DUP1 PUSH1 0x1F ADD PUSH1 0x20 DUP1 SWAP2 DIV MUL PUSH1 0x20 ADD PUSH1 0x40 MLOAD SWAP1 DUP2 ADD PUSH1 0x40 MSTORE DUP1 SWAP3 SWAP2 SWAP1 DUP2 DUP2 MSTORE PUSH1 0x20 ADD DUP3 DUP1 SLOAD PUSH2 0x2AA8 SWAP1 PUSH2 0x504C JUMP JUMPDEST DUP1 ISZERO PUSH2 0x2AF5 JUMPI DUP1 PUSH1 0x1F LT PUSH2 0x2ACA JUMPI PUSH2 0x100 DUP1 DUP4 SLOAD DIV MUL DUP4 MSTORE SWAP2 PUSH1 0x20 ADD SWAP2 PUSH2 0x2AF5 JUMP JUMPDEST DUP3 ADD SWAP2 SWAP1 PUSH1 0x0 MSTORE PUSH1 0x20 PUSH1 0x0 KECCAK256 SWAP1 JUMPDEST DUP2 SLOAD DUP2 MSTORE SWAP1 PUSH1 0x1 ADD SWAP1 PUSH1 0x20 ADD DUP1 DUP4 GT PUSH2 0x2AD8 JUMPI DUP3 SWAP1 SUB PUSH1 0x1F AND DUP3 ADD SWAP2 JUMPDEST POP POP POP POP POP DUP2 MSTORE PUSH1 0x20 ADD PUSH1 0x5 DUP3 ADD DUP1 SLOAD PUSH2 0x2B0E SWAP1 PUSH2 0x504C JUMP JUMPDEST DUP1 PUSH1 0x1F ADD PUSH1 0x20 DUP1 SWAP2 DIV MUL PUSH1 0x20 ADD PUSH1 0x40 MLOAD SWAP1 DUP2 ADD PUSH1 0x40 MSTORE DUP1 SWAP3 SWAP2 SWAP1 DUP2 DUP2 MSTORE PUSH1 0x20 ADD DUP3 DUP1 SLOAD PUSH2 0x2B3A SWAP1 PUSH2 0x504C JUMP JUMPDEST DUP1 ISZERO PUSH2 0x2B87 JUMPI DUP1 PUSH1 0x1F LT PUSH2 0x2B5C JUMPI PUSH2 0x100 DUP1 DUP4 SLOAD DIV MUL DUP4 MSTORE SWAP2 PUSH1 0x20 ADD SWAP2 PUSH2 0x2B87 JUMP JUMPDEST DUP3 ADD SWAP2 SWAP1 PUSH1 0x0 MSTORE PUSH1 0x20 PUSH1 0x0 KECCAK256 SWAP1 JUMPDEST DUP2 SLOAD DUP2 MSTORE SWAP1 PUSH1 0x1 ADD SWAP1 PUSH1 0x20 ADD DUP1 DUP4 GT PUSH2 0x2B6A JUMPI DUP3 SWAP1 SUB PUSH1 0x1F AND DUP3 ADD SWAP2 JUMPDEST POP POP POP POP POP DUP2 MSTORE PUSH1 0x20 ADD PUSH1 0x6 DUP3 ADD PUSH1 0x0 SWAP1 SLOAD SWAP1 PUSH2 0x100 EXP SWAP1 DIV PUSH1 0xFF AND ISZERO ISZERO ISZERO ISZERO DUP2 MSTORE PUSH1 0x20 ADD PUSH1 0x7 DUP3 ADD SLOAD DUP2 MSTORE POP POP SWAP1 POP SWAP2 SWAP1 POP JUMP JUMPDEST PUSH1 0x0 DUP1 SLOAD SWAP1 PUSH2 0x100 EXP SWAP1 DIV PUSH20 0xFFFFFFFFFFFFFFFFFFFFFFFFFFFFFFFFFFFFFFFF AND DUP2 JUMP JUMPDEST PUSH1 0x9 PUSH1 0x20 MSTORE DUP1 PUSH1 0x0 MSTORE PUSH1 0x40 PUSH1 0x0 KECCAK256 PUSH1 0x0 SWAP2 POP SLOAD SWAP1 PUSH2 0x100 EXP SWAP1 DIV PUSH1 0xFF AND DUP2 JUMP JUMPDEST PUSH1 0x1 PUSH1 0x9 PUSH1 0x0 CALLER PUSH20 0xFFFFFFFFFFFFFFFFFFFFFFFFFFFFFFFFFFFFFFFF AND PUSH20 0xFFFFFFFFFFFFFFFFFFFFFFFFFFFFFFFFFFFFFFFF AND DUP2 MSTORE PUSH1 0x20 ADD SWAP1 DUP2 MSTORE PUSH1 0x20 ADD PUSH1 0x0 KECCAK256 PUSH1 0x0 SWAP1 SLOAD SWAP1 PUSH2 0x100 EXP SWAP1 DIV PUSH1 0xFF AND PUSH1 0xFF AND EQ PUSH2 0x2C89 JUMPI PUSH1 0x40 MLOAD PUSH32 0x7669999000000000000000000000000000000000000000000000000000000000 DUP2 MSTORE PUSH1 0x4 ADD PUSH1 0x40 MLOAD DUP1 SWAP2 SUB SWAP1 REVERT JUMPDEST PUSH1 0x0 PUSH1 0x14 SWAP1 SLOAD SWAP1 PUSH2 0x100 EXP SWAP1 DIV PUSH1 0xFF AND PUSH1 0xFF AND DUP3 GT ISZERO DUP1 ISZERO PUSH2 0x2CAB JUMPI POP PUSH1 0x0 DUP3 GT JUMPDEST PUSH2 0x2CEA JUMPI PUSH1 0x40 MLOAD PUSH32 0x8C379A000000000000000000000000000000000000000000000000000000000 DUP2 MSTORE PUSH1 0x4 ADD PUSH2 0x2CE1 SWAP1 PUSH2 0x54F5 JUMP JUMPDEST PUSH1 0x40 MLOAD DUP1 SWAP2 SUB SWAP1 REVERT JUMPDEST PUSH1 0x0 PUSH1 0x5 PUSH1 0x0 DUP5 DUP2 MSTORE PUSH1 0x20 ADD SWAP1 DUP2 MSTORE PUSH1 0x20 ADD PUSH1 0x0 KECCAK256 SWAP1 POP PUSH1 0x0 PUSH20 0xFFFFFFFFFFFFFFFFFFFFFFFFFFFFFFFFFFFFFFFF AND DUP2 PUSH1 0x0 ADD PUSH1 0x1 SWAP1 SLOAD SWAP1 PUSH2 0x100 EXP SWAP1 DIV PUSH20 0xFFFFFFFFFFFFFFFFFFFFFFFFFFFFFFFFFFFFFFFF AND PUSH20 0xFFFFFFFFFFFFFFFFFFFFFFFFFFFFFFFFFFFFFFFF AND SUB PUSH2 0x2D94 JUMPI PUSH1 0x40 MLOAD PUSH32 0x8C379A000000000000000000000000000000000000000000000000000000000 DUP2 MSTORE PUSH1 0x4 ADD PUSH2 0x2D8B SWAP1 PUSH2 0x57D4 JUMP JUMPDEST PUSH1 0x40 MLOAD DUP1 SWAP2 SUB SWAP1 REVERT JUMPDEST PUSH2 0x2D9E DUP2 DUP4 PUSH2 0x3B65 JUMP JUMPDEST ISZERO PUSH2 0x2DDE JUMPI PUSH1 0x40 MLOAD PUSH32 0x8C379A000000000000000000000000000000000000000000000000000000000 DUP2 MSTORE PUSH1 0x4 ADD PUSH2 0x2DD5 SWAP1 PUSH2 0x5936 JUMP JUMPDEST PUSH1 0x40 MLOAD DUP1 SWAP2 SUB SWAP1 REVERT JUMPDEST DUP2 DUP2 PUSH1 0x6 ADD PUSH1 0x0 PUSH2 0x100 EXP DUP2 SLOAD DUP2 PUSH20 0xFFFFFFFFFFFFFFFFFFFFFFFFFFFFFFFFFFFFFFFF MUL NOT AND SWAP1 DUP4 PUSH20 0xFFFFFFFFFFFFFFFFFFFFFFFFFFFFFFFFFFFFFFFF AND MUL OR SWAP1 SSTORE POP POP POP POP JUMP JUMPDEST PUSH1 0x2 PUSH1 0x9 PUSH1 0x0 CALLER PUSH20 0xFFFFFFFFFFFFFFFFFFFFFFFFFFFFFFFFFFFFFFFF AND PUSH20 0xFFFFFFFFFFFFFFFFFFFFFFFFFFFFFFFFFFFFFFFF AND DUP2 MSTORE PUSH1 0x20 ADD SWAP1 DUP2 MSTORE PUSH1 0x20 ADD PUSH1 0x0 KECCAK256 PUSH1 0x0 SWAP1 SLOAD SWAP1 PUSH2 0x100 EXP SWAP1 DIV PUSH1 0xFF AND PUSH1 0xFF AND EQ PUSH2 0x2EAF JUMPI PUSH1 0x40 MLOAD PUSH32 0x7669999000000000000000000000000000000000000000000000000000000000 DUP2 MSTORE PUSH1 0x4 ADD PUSH1 0x40 MLOAD DUP1 SWAP2 SUB SWAP1 REVERT JUMPDEST PUSH1 0x0 PUSH1 0x6 PUSH1 0x0 CALLER PUSH20 0xFFFFFFFFFFFFFFFFFFFFFFFFFFFFFFFFFFFFFFFF AND PUSH20 0xFFFFFFFFFFFFFFFFFFFFFFFFFFFFFFFFFFFFFFFF AND DUP2 MSTORE PUSH1 0x20 ADD SWAP1 DUP2 MSTORE PUSH1 0x20 ADD PUSH1 0x0 KECCAK256 SWAP1 POP PUSH1 0x0 DUP2 PUSH1 0x3 ADD SLOAD GT PUSH2 0x2F39 JUMPI PUSH1 0x40 MLOAD PUSH32 0x8C379A000000000000000000000000000000000000000000000000000000000 DUP2 MSTORE PUSH1 0x4 ADD PUSH2 0x2F30 SWAP1 PUSH2 0x59A2 JUMP JUMPDEST PUSH1 0x40 MLOAD DUP1 SWAP2 SUB SWAP1 REVERT JUMPDEST PUSH1 0x0 PUSH1 0x64 PUSH1 0x5F DUP4 PUSH1 0x3 ADD SLOAD PUSH2 0x2F4E SWAP2 SWAP1 PUSH2 0x59C2 JUMP JUMPDEST PUSH2 0x2F58 SWAP2 SWAP1 PUSH2 0x5A33 JUMP JUMPDEST SWAP1 POP PUSH1 0x0 DUP3 PUSH1 0x3 ADD DUP2 SWAP1 SSTORE POP PUSH1 0x0 CALLER PUSH20 0xFFFFFFFFFFFFFFFFFFFFFFFFFFFFFFFFFFFFFFFF AND DUP3 PUSH1 0x40 MLOAD PUSH2 0x2F8A SWAP1 PUSH2 0x5A95 JUMP JUMPDEST PUSH1 0x0 PUSH1 0x40 MLOAD DUP1 DUP4 SUB DUP2 DUP6 DUP8 GAS CALL SWAP3 POP POP POP RETURNDATASIZE DUP1 PUSH1 0x0 DUP2 EQ PUSH2 0x2FC7 JUMPI PUSH1 0x40 MLOAD SWAP2 POP PUSH1 0x1F NOT PUSH1 0x3F RETURNDATASIZE ADD AND DUP3 ADD PUSH1 0x40 MSTORE RETURNDATASIZE DUP3 MSTORE RETURNDATASIZE PUSH1 0x0 PUSH1 0x20 DUP5 ADD RETURNDATACOPY PUSH2 0x2FCC JUMP JUMPDEST PUSH1 0x60 SWAP2 POP JUMPDEST POP POP SWAP1 POP DUP1 PUSH2 0x3010 JUMPI PUSH1 0x40 MLOAD PUSH32 0x8C379A000000000000000000000000000000000000000000000000000000000 DUP2 MSTORE PUSH1 0x4 ADD PUSH2 0x3007 SWAP1 PUSH2 0x5AF6 JUMP JUMPDEST PUSH1 0x40 MLOAD DUP1 SWAP2 SUB SWAP1 REVERT JUMPDEST PUSH32 0x9AD672D4E7C4892DA934D1051932EBE9EC4B6EC8C3F40D569176DB3E93E5ABE CALLER DUP4 PUSH1 0x40 MLOAD PUSH2 0x3041 SWAP3 SWAP2 SWAP1 PUSH2 0x5B16 JUMP JUMPDEST PUSH1 0x40 MLOAD DUP1 SWAP2 SUB SWAP1 LOG1 POP POP POP JUMP JUMPDEST PUSH1 0x4 DUP2 DUP2 SLOAD DUP2 LT PUSH2 0x305E JUMPI PUSH1 0x0 DUP1 REVERT JUMPDEST SWAP1 PUSH1 0x0 MSTORE PUSH1 0x20 PUSH1 0x0 KECCAK256 ADD PUSH1 0x0 SWAP2 POP SLOAD SWAP1 PUSH2 0x100 EXP SWAP1 DIV PUSH20 0xFFFFFFFFFFFFFFFFFFFFFFFFFFFFFFFFFFFFFFFF AND DUP2 JUMP JUMPDEST PUSH1 0x1 PUSH1 0x9 PUSH1 0x0 CALLER PUSH20 0xFFFFFFFFFFFFFFFFFFFFFFFFFFFFFFFFFFFFFFFF AND PUSH20 0xFFFFFFFFFFFFFFFFFFFFFFFFFFFFFFFFFFFFFFFF AND DUP2 MSTORE PUSH1 0x20 ADD SWAP1 DUP2 MSTORE PUSH1 0x20 ADD PUSH1 0x0 KECCAK256 PUSH1 0x0 SWAP1 SLOAD SWAP1 PUSH2 0x100 EXP SWAP1 DIV PUSH1 0xFF AND PUSH1 0xFF AND EQ PUSH2 0x3116 JUMPI PUSH1 0x40 MLOAD PUSH32 0x7669999000000000000000000000000000000000000000000000000000000000 DUP2 MSTORE PUSH1 0x4 ADD PUSH1 0x40 MLOAD DUP1 SWAP2 SUB SWAP1 REVERT JUMPDEST PUSH1 0x0 PUSH1 0x14 SWAP1 SLOAD SWAP1 PUSH2 0x100 EXP SWAP1 DIV PUSH1 0xFF AND PUSH1 0xFF AND DUP3 GT ISZERO DUP1 ISZERO PUSH2 0x3138 JUMPI POP PUSH1 0x0 DUP3 GT JUMPDEST PUSH2 0x3177 JUMPI PUSH1 0x40 MLOAD PUSH32 0x8C379A000000000000000000000000000000000000000000000000000000000 DUP2 MSTORE PUSH1 0x4 ADD PUSH2 0x316E SWAP1 PUSH2 0x54F5 JUMP JUMPDEST PUSH1 0x40 MLOAD DUP1 SWAP2 SUB SWAP1 REVERT JUMPDEST PUSH1 0x0 PUSH1 0x5 PUSH1 0x0 DUP5 DUP2 MSTORE PUSH1 0x20 ADD SWAP1 DUP2 MSTORE PUSH1 0x20 ADD PUSH1 0x0 KECCAK256 SWAP1 POP DUP1 PUSH1 0x0 ADD PUSH1 0x1 SWAP1 SLOAD SWAP1 PUSH2 0x100 EXP SWAP1 DIV PUSH20 0xFFFFFFFFFFFFFFFFFFFFFFFFFFFFFFFFFFFFFFFF AND PUSH20 0xFFFFFFFFFFFFFFFFFFFFFFFFFFFFFFFFFFFFFFFF AND CALLER PUSH20 0xFFFFFFFFFFFFFFFFFFFFFFFFFFFFFFFFFFFFFFFF AND EQ PUSH2 0x31EA JUMPI PUSH1 0x0 DUP1 REVERT JUMPDEST PUSH1 0x1 DUP2 PUSH1 0x4 ADD PUSH1 0x0 PUSH2 0x100 EXP DUP2 SLOAD DUP2 PUSH1 0xFF MUL NOT AND SWAP1 DUP4 ISZERO ISZERO MUL OR SWAP1 SSTORE PUSH2 0x3245 JUMPI PUSH1 0x40 MLOAD PUSH32 0x8C379A000000000000000000000000000000000000000000000000000000000 DUP2 MSTORE PUSH1 0x4 ADD PUSH2 0x323C SWAP1 PUSH2 0x5B8B JUMP JUMPDEST PUSH1 0x40 MLOAD DUP1 SWAP2 SUB SWAP1 REVERT JUMPDEST PUSH1 0x0 PUSH1 0x8 PUSH1 0x0 CALLER PUSH20 0xFFFFFFFFFFFFFFFFFFFFFFFFFFFFFFFFFFFFFFFF AND PUSH20 0xFFFFFFFFFFFFFFFFFFFFFFFFFFFFFFFFFFFFFFFF AND DUP2 MSTORE PUSH1 0x20 ADD SWAP1 DUP2 MSTORE PUSH1 0x20 ADD PUSH1 0x0 KECCAK256 PUSH1 0x0 DUP6 DUP2 MSTORE PUSH1 0x20 ADD SWAP1 DUP2 MSTORE PUSH1 0x20 ADD PUSH1 0x0 KECCAK256 SLOAD SWAP1 POP PUSH1 0x0 DUP2 GT PUSH2 0x32DD JUMPI PUSH1 0x40 MLOAD PUSH32 0x8C379A000000000000000000000000000000000000000000000000000000000 DUP2 MSTORE PUSH1 0x4 ADD PUSH2 0x32D4 SWAP1 PUSH2 0x5BF7 JUMP JUMPDEST PUSH1 0x40 MLOAD DUP1 SWAP2 SUB SWAP1 REVERT JUMPDEST DUP2 PUSH1 0x3 ADD SLOAD DUP2 LT ISZERO PUSH2 0x3324 JUMPI PUSH1 0x40 MLOAD PUSH32 0x8C379A000000000000000000000000000000000000000000000000000000000 DUP2 MSTORE PUSH1 0x4 ADD PUSH2 0x331B SWAP1 PUSH2 0x5C63 JUMP JUMPDEST PUSH1 0x40 MLOAD DUP1 SWAP2 SUB SWAP1 REVERT JUMPDEST PUSH1 0x0 PUSH1 0x8 PUSH1 0x0 CALLER PUSH20 0xFFFFFFFFFFFFFFFFFFFFFFFFFFFFFFFFFFFFFFFF AND PUSH20 0xFFFFFFFFFFFFFFFFFFFFFFFFFFFFFFFFFFFFFFFF AND DUP2 MSTORE PUSH1 0x20 ADD SWAP1 DUP2 MSTORE PUSH1 0x20 ADD PUSH1 0x0 KECCAK256 PUSH1 0x0 DUP7 DUP2 MSTORE PUSH1 0x20 ADD SWAP1 DUP2 MSTORE PUSH1 0x20 ADD PUSH1 0x0 KECCAK256 DUP2 SWAP1 SSTORE POP PUSH1 0x0 PUSH1 0x6 PUSH1 0x0 DUP6 PUSH20 0xFFFFFFFFFFFFFFFFFFFFFFFFFFFFFFFFFFFFFFFF AND PUSH20 0xFFFFFFFFFFFFFFFFFFFFFFFFFFFFFFFFFFFFFFFF AND DUP2 MSTORE PUSH1 0x20 ADD SWAP1 DUP2 MSTORE PUSH1 0x20 ADD PUSH1 0x0 KECCAK256 SWAP1 POP DUP2 DUP2 PUSH1 0x3 ADD PUSH1 0x0 DUP3 DUP3 SLOAD PUSH2 0x33D1 SWAP2 SWAP1 PUSH2 0x55ED JUMP JUMPDEST SWAP3 POP POP DUP2 SWAP1 SSTORE POP PUSH1 0x0 PUSH1 0x7 PUSH1 0x0 CALLER PUSH20 0xFFFFFFFFFFFFFFFFFFFFFFFFFFFFFFFFFFFFFFFF AND PUSH20 0xFFFFFFFFFFFFFFFFFFFFFFFFFFFFFFFFFFFFFFFF AND DUP2 MSTORE PUSH1 0x20 ADD SWAP1 DUP2 MSTORE PUSH1 0x20 ADD PUSH1 0x0 KECCAK256 SWAP1 POP DUP3 DUP2 PUSH1 0x3 ADD PUSH1 0x0 DUP3 DUP3 SLOAD PUSH2 0x342F SWAP2 SWAP1 PUSH2 0x5C83 JUMP JUMPDEST SWAP3 POP POP DUP2 SWAP1 SSTORE POP PUSH32 0x6E3C6096795C8298A218B2CFB8BDE42726FF7C9A3D27B4D3BA41AB7F74FEB5FB DUP7 DUP7 DUP6 PUSH1 0x40 MLOAD PUSH2 0x3469 SWAP4 SWAP3 SWAP2 SWAP1 PUSH2 0x5621 JUMP JUMPDEST PUSH1 0x40 MLOAD DUP1 SWAP2 SUB SWAP1 LOG1 POP POP POP POP POP POP JUMP JUMPDEST PUSH1 0x60 PUSH1 0x0 PUSH1 0x14 SWAP1 SLOAD SWAP1 PUSH2 0x100 EXP SWAP1 DIV PUSH1 0xFF AND PUSH1 0xFF AND PUSH8 0xFFFFFFFFFFFFFFFF DUP2 GT ISZERO PUSH2 0x34A7 JUMPI PUSH2 0x34A6 PUSH2 0x4098 JUMP JUMPDEST JUMPDEST PUSH1 0x40 MLOAD SWAP1 DUP1 DUP3 MSTORE DUP1 PUSH1 0x20 MUL PUSH1 0x20 ADD DUP3 ADD PUSH1 0x40 MSTORE DUP1 ISZERO PUSH2 0x34E0 JUMPI DUP2 PUSH1 0x20 ADD JUMPDEST PUSH2 0x34CD PUSH2 0x3C4B JUMP JUMPDEST DUP2 MSTORE PUSH1 0x20 ADD SWAP1 PUSH1 0x1 SWAP1 SUB SWAP1 DUP2 PUSH2 0x34C5 JUMPI SWAP1 POP JUMPDEST POP SWAP1 POP PUSH1 0x0 JUMPDEST PUSH1 0x0 PUSH1 0x14 SWAP1 SLOAD SWAP1 PUSH2 0x100 EXP SWAP1 DIV PUSH1 0xFF AND PUSH1 0xFF AND DUP2 LT ISZERO PUSH2 0x37F6 JUMPI PUSH1 0x5 PUSH1 0x0 PUSH1 0x1 DUP4 PUSH2 0x3511 SWAP2 SWAP1 PUSH2 0x55ED JUMP JUMPDEST DUP2 MSTORE PUSH1 0x20 ADD SWAP1 DUP2 MSTORE PUSH1 0x20 ADD PUSH1 0x0 KECCAK256 PUSH1 0x40 MLOAD DUP1 PUSH2 0x100 ADD PUSH1 0x40 MSTORE SWAP1 DUP2 PUSH1 0x0 DUP3 ADD PUSH1 0x0 SWAP1 SLOAD SWAP1 PUSH2 0x100 EXP SWAP1 DIV PUSH1 0xFF AND PUSH1 0xFF AND PUSH1 0xFF AND DUP2 MSTORE PUSH1 0x20 ADD PUSH1 0x0 DUP3 ADD PUSH1 0x1 SWAP1 SLOAD SWAP1 PUSH2 0x100 EXP SWAP1 DIV PUSH20 0xFFFFFFFFFFFFFFFFFFFFFFFFFFFFFFFFFFFFFFFF AND PUSH20 0xFFFFFFFFFFFFFFFFFFFFFFFFFFFFFFFFFFFFFFFF AND PUSH20 0xFFFFFFFFFFFFFFFFFFFFFFFFFFFFFFFFFFFFFFFF AND DUP2 MSTORE PUSH1 0x20 ADD PUSH1 0x1 DUP3 ADD DUP1 SLOAD PUSH2 0x35AE SWAP1 PUSH2 0x504C JUMP JUMPDEST DUP1 PUSH1 0x1F ADD PUSH1 0x20 DUP1 SWAP2 DIV MUL PUSH1 0x20 ADD PUSH1 0x40 MLOAD SWAP1 DUP2 ADD PUSH1 0x40 MSTORE DUP1 SWAP3 SWAP2 SWAP1 DUP2 DUP2 MSTORE PUSH1 0x20 ADD DUP3 DUP1 SLOAD PUSH2 0x35DA SWAP1 PUSH2 0x504C JUMP JUMPDEST DUP1 ISZERO PUSH2 0x3627 JUMPI DUP1 PUSH1 0x1F LT PUSH2 0x35FC JUMPI PUSH2 0x100 DUP1 DUP4 SLOAD DIV MUL DUP4 MSTORE SWAP2 PUSH1 0x20 ADD SWAP2 PUSH2 0x3627 JUMP JUMPDEST DUP3 ADD SWAP2 SWAP1 PUSH1 0x0 MSTORE PUSH1 0x20 PUSH1 0x0 KECCAK256 SWAP1 JUMPDEST DUP2 SLOAD DUP2 MSTORE SWAP1 PUSH1 0x1 ADD SWAP1 PUSH1 0x20 ADD DUP1 DUP4 GT PUSH2 0x360A JUMPI DUP3 SWAP1 SUB PUSH1 0x1F AND DUP3 ADD SWAP2 JUMPDEST POP POP POP POP POP DUP2 MSTORE PUSH1 0x20 ADD PUSH1 0x2 DUP3 ADD DUP1 SLOAD PUSH2 0x3640 SWAP1 PUSH2 0x504C JUMP JUMPDEST DUP1 PUSH1 0x1F ADD PUSH1 0x20 DUP1 SWAP2 DIV MUL PUSH1 0x20 ADD PUSH1 0x40 MLOAD SWAP1 DUP2 ADD PUSH1 0x40 MSTORE DUP1 SWAP3 SWAP2 SWAP1 DUP2 DUP2 MSTORE PUSH1 0x20 ADD DUP3 DUP1 SLOAD PUSH2 0x366C SWAP1 PUSH2 0x504C JUMP JUMPDEST DUP1 ISZERO PUSH2 0x36B9 JUMPI DUP1 PUSH1 0x1F LT PUSH2 0x368E JUMPI PUSH2 0x100 DUP1 DUP4 SLOAD DIV MUL DUP4 MSTORE SWAP2 PUSH1 0x20 ADD SWAP2 PUSH2 0x36B9 JUMP JUMPDEST DUP3 ADD SWAP2 SWAP1 PUSH1 0x0 MSTORE PUSH1 0x20 PUSH1 0x0 KECCAK256 SWAP1 JUMPDEST DUP2 SLOAD DUP2 MSTORE SWAP1 PUSH1 0x1 ADD SWAP1 PUSH1 0x20 ADD DUP1 DUP4 GT PUSH2 0x369C JUMPI DUP3 SWAP1 SUB PUSH1 0x1F AND DUP3 ADD SWAP2 JUMPDEST POP POP POP POP POP DUP2 MSTORE PUSH1 0x20 ADD PUSH1 0x3 DUP3 ADD SLOAD DUP2 MSTORE PUSH1 0x20 ADD PUSH1 0x4 DUP3 ADD PUSH1 0x0 SWAP1 SLOAD SWAP1 PUSH2 0x100 EXP SWAP1 DIV PUSH1 0xFF AND ISZERO ISZERO ISZERO ISZERO DUP2 MSTORE PUSH1 0x20 ADD PUSH1 0x5 DUP3 ADD DUP1 SLOAD DUP1 PUSH1 0x20 MUL PUSH1 0x20 ADD PUSH1 0x40 MLOAD SWAP1 DUP2 ADD PUSH1 0x40 MSTORE DUP1 SWAP3 SWAP2 SWAP1 DUP2 DUP2 MSTORE PUSH1 0x20 ADD DUP3 DUP1 SLOAD DUP1 ISZERO PUSH2 0x376C JUMPI PUSH1 0x20 MUL DUP3 ADD SWAP2 SWAP1 PUSH1 0x0 MSTORE PUSH1 0x20 PUSH1 0x0 KECCAK256 SWAP1 JUMPDEST DUP2 PUSH1 0x0 SWAP1 SLOAD SWAP1 PUSH2 0x100 EXP SWAP1 DIV PUSH20 0xFFFFFFFFFFFFFFFFFFFFFFFFFFFFFFFFFFFFFFFF AND PUSH20 0xFFFFFFFFFFFFFFFFFFFFFFFFFFFFFFFFFFFFFFFF AND DUP2 MSTORE PUSH1 0x20 ADD SWAP1 PUSH1 0x1 ADD SWAP1 DUP1 DUP4 GT PUSH2 0x3722 JUMPI JUMPDEST POP POP POP POP POP DUP2 MSTORE PUSH1 0x20 ADD PUSH1 0x6 DUP3 ADD PUSH1 0x0 SWAP1 SLOAD SWAP1 PUSH2 0x100 EXP SWAP1 DIV PUSH20 0xFFFFFFFFFFFFFFFFFFFFFFFFFFFFFFFFFFFFFFFF AND PUSH20 0xFFFFFFFFFFFFFFFFFFFFFFFFFFFFFFFFFFFFFFFF AND PUSH20 0xFFFFFFFFFFFFFFFFFFFFFFFFFFFFFFFFFFFFFFFF AND DUP2 MSTORE POP POP DUP3 DUP3 DUP2 MLOAD DUP2 LT PUSH2 0x37DE JUMPI PUSH2 0x37DD PUSH2 0x540E JUMP JUMPDEST JUMPDEST PUSH1 0x20 MUL PUSH1 0x20 ADD ADD DUP2 SWAP1 MSTORE POP DUP1 DUP1 PUSH1 0x1 ADD SWAP2 POP POP PUSH2 0x34E6 JUMP JUMPDEST POP SWAP1 JUMP JUMPDEST PUSH1 0x0 PUSH1 0x8 PUSH1 0x0 DUP5 PUSH20 0xFFFFFFFFFFFFFFFFFFFFFFFFFFFFFFFFFFFFFFFF AND PUSH20 0xFFFFFFFFFFFFFFFFFFFFFFFFFFFFFFFFFFFFFFFF AND DUP2 MSTORE PUSH1 0x20 ADD SWAP1 DUP2 MSTORE PUSH1 0x20 ADD PUSH1 0x0 KECCAK256 PUSH1 0x0 DUP4 DUP2 MSTORE PUSH1 0x20 ADD SWAP1 DUP2 MSTORE PUSH1 0x20 ADD PUSH1 0x0 KECCAK256 SLOAD SWAP1 POP SWAP3 SWAP2 POP POP JUMP JUMPDEST PUSH1 0x0 PUSH1 0x14 SWAP1 SLOAD SWAP1 PUSH2 0x100 EXP SWAP1 DIV PUSH1 0xFF AND PUSH1 0xFF AND DUP2 GT ISZERO DUP1 ISZERO PUSH2 0x3877 JUMPI POP PUSH1 0x0 DUP2 GT JUMPDEST PUSH2 0x38B6 JUMPI PUSH1 0x40 MLOAD PUSH32 0x8C379A000000000000000000000000000000000000000000000000000000000 DUP2 MSTORE PUSH1 0x4 ADD PUSH2 0x38AD SWAP1 PUSH2 0x5768 JUMP JUMPDEST PUSH1 0x40 MLOAD DUP1 SWAP2 SUB SWAP1 REVERT JUMPDEST PUSH1 0x0 PUSH1 0x5 PUSH1 0x0 DUP4 DUP2 MSTORE PUSH1 0x20 ADD SWAP1 DUP2 MSTORE PUSH1 0x20 ADD PUSH1 0x0 KECCAK256 SWAP1 POP PUSH1 0x0 PUSH20 0xFFFFFFFFFFFFFFFFFFFFFFFFFFFFFFFFFFFFFFFF AND DUP2 PUSH1 0x0 ADD PUSH1 0x1 SWAP1 SLOAD SWAP1 PUSH2 0x100 EXP SWAP1 DIV PUSH20 0xFFFFFFFFFFFFFFFFFFFFFFFFFFFFFFFFFFFFFFFF AND PUSH20 0xFFFFFFFFFFFFFFFFFFFFFFFFFFFFFFFFFFFFFFFF AND SUB PUSH2 0x3960 JUMPI PUSH1 0x40 MLOAD PUSH32 0x8C379A000000000000000000000000000000000000000000000000000000000 DUP2 MSTORE PUSH1 0x4 ADD PUSH2 0x3957 SWAP1 PUSH2 0x57D4 JUMP JUMPDEST PUSH1 0x40 MLOAD DUP1 SWAP2 SUB SWAP1 REVERT JUMPDEST PUSH1 0x0 PUSH20 0xFFFFFFFFFFFFFFFFFFFFFFFFFFFFFFFFFFFFFFFF AND CALLER PUSH20 0xFFFFFFFFFFFFFFFFFFFFFFFFFFFFFFFFFFFFFFFF AND SUB PUSH2 0x39CF JUMPI PUSH1 0x40 MLOAD PUSH32 0x8C379A000000000000000000000000000000000000000000000000000000000 DUP2 MSTORE PUSH1 0x4 ADD PUSH2 0x39C6 SWAP1 PUSH2 0x5D03 JUMP JUMPDEST PUSH1 0x40 MLOAD DUP1 SWAP2 SUB SWAP1 REVERT JUMPDEST PUSH1 0x0 JUMPDEST DUP2 PUSH1 0x5 ADD DUP1 SLOAD SWAP1 POP DUP2 LT ISZERO PUSH2 0x3A9C JUMPI CALLER PUSH20 0xFFFFFFFFFFFFFFFFFFFFFFFFFFFFFFFFFFFFFFFF AND DUP3 PUSH1 0x5 ADD DUP3 DUP2 SLOAD DUP2 LT PUSH2 0x3A0E JUMPI PUSH2 0x3A0D PUSH2 0x540E JUMP JUMPDEST JUMPDEST SWAP1 PUSH1 0x0 MSTORE PUSH1 0x20 PUSH1 0x0 KECCAK256 ADD PUSH1 0x0 SWAP1 SLOAD SWAP1 PUSH2 0x100 EXP SWAP1 DIV PUSH20 0xFFFFFFFFFFFFFFFFFFFFFFFFFFFFFFFFFFFFFFFF AND PUSH20 0xFFFFFFFFFFFFFFFFFFFFFFFFFFFFFFFFFFFFFFFF AND SUB PUSH2 0x3A8F JUMPI PUSH1 0x40 MLOAD PUSH32 0x8C379A000000000000000000000000000000000000000000000000000000000 DUP2 MSTORE PUSH1 0x4 ADD PUSH2 0x3A86 SWAP1 PUSH2 0x5D6F JUMP JUMPDEST PUSH1 0x40 MLOAD DUP1 SWAP2 SUB SWAP1 REVERT JUMPDEST DUP1 DUP1 PUSH1 0x1 ADD SWAP2 POP POP PUSH2 0x39D2 JUMP JUMPDEST POP DUP1 PUSH1 0x5 ADD CALLER SWAP1 DUP1 PUSH1 0x1 DUP2 SLOAD ADD DUP1 DUP3 SSTORE DUP1 SWAP2 POP POP PUSH1 0x1 SWAP1 SUB SWAP1 PUSH1 0x0 MSTORE PUSH1 0x20 PUSH1 0x0 KECCAK256 ADD PUSH1 0x0 SWAP1 SWAP2 SWAP1 SWAP2 SWAP1 SWAP2 PUSH2 0x100 EXP DUP2 SLOAD DUP2 PUSH20 0xFFFFFFFFFFFFFFFFFFFFFFFFFFFFFFFFFFFFFFFF MUL NOT AND SWAP1 DUP4 PUSH20 0xFFFFFFFFFFFFFFFFFFFFFFFFFFFFFFFFFFFFFFFF AND MUL OR SWAP1 SSTORE POP PUSH32 0x2B443803772F6DA2DB17C7357119F932841870FDF0A3A5D8CA9D2E112BB13326 DUP3 DUP3 PUSH1 0x0 ADD PUSH1 0x1 SWAP1 SLOAD SWAP1 PUSH2 0x100 EXP SWAP1 DIV PUSH20 0xFFFFFFFFFFFFFFFFFFFFFFFFFFFFFFFFFFFFFFFF AND CALLER PUSH1 0x40 MLOAD PUSH2 0x3B59 SWAP4 SWAP3 SWAP2 SWAP1 PUSH2 0x5D8F JUMP JUMPDEST PUSH1 0x40 MLOAD DUP1 SWAP2 SUB SWAP1 LOG1 POP POP JUMP JUMPDEST PUSH1 0x0 DUP2 PUSH20 0xFFFFFFFFFFFFFFFFFFFFFFFFFFFFFFFFFFFFFFFF AND DUP4 PUSH1 0x6 ADD PUSH1 0x0 SWAP1 SLOAD SWAP1 PUSH2 0x100 EXP SWAP1 DIV PUSH20 0xFFFFFFFFFFFFFFFFFFFFFFFFFFFFFFFFFFFFFFFF AND PUSH20 0xFFFFFFFFFFFFFFFFFFFFFFFFFFFFFFFFFFFFFFFF AND SUB PUSH2 0x3BC7 JUMPI PUSH1 0x1 SWAP1 POP PUSH2 0x3BCC JUMP JUMPDEST PUSH1 0x0 SWAP1 POP JUMPDEST SWAP3 SWAP2 POP POP JUMP JUMPDEST PUSH1 0x40 MLOAD DUP1 PUSH2 0x180 ADD PUSH1 0x40 MSTORE DUP1 PUSH1 0x0 PUSH20 0xFFFFFFFFFFFFFFFFFFFFFFFFFFFFFFFFFFFFFFFF AND DUP2 MSTORE PUSH1 0x20 ADD PUSH1 0x60 DUP2 MSTORE PUSH1 0x20 ADD PUSH1 0x60 DUP2 MSTORE PUSH1 0x20 ADD PUSH1 0x0 DUP2 MSTORE PUSH1 0x20 ADD PUSH1 0x60 DUP2 MSTORE PUSH1 0x20 ADD PUSH1 0x60 DUP2 MSTORE PUSH1 0x20 ADD PUSH1 0x60 DUP2 MSTORE PUSH1 0x20 ADD PUSH1 0x60 DUP2 MSTORE PUSH1 0x20 ADD PUSH1 0x0 DUP2 MSTORE PUSH1 0x20 ADD PUSH1 0x0 ISZERO ISZERO DUP2 MSTORE PUSH1 0x20 ADD PUSH1 0x0 DUP2 MSTORE PUSH1 0x20 ADD PUSH1 0x0 DUP2 MSTORE POP SWAP1 JUMP JUMPDEST PUSH1 0x40 MLOAD DUP1 PUSH2 0x100 ADD PUSH1 0x40 MSTORE DUP1 PUSH1 0x0 PUSH1 0xFF AND DUP2 MSTORE PUSH1 0x20 ADD PUSH1 0x0 PUSH20 0xFFFFFFFFFFFFFFFFFFFFFFFFFFFFFFFFFFFFFFFF AND DUP2 MSTORE PUSH1 0x20 ADD PUSH1 0x60 DUP2 MSTORE PUSH1 0x20 ADD PUSH1 0x60 DUP2 MSTORE PUSH1 0x20 ADD PUSH1 0x0 DUP2 MSTORE PUSH1 0x20 ADD PUSH1 0x0 ISZERO ISZERO DUP2 MSTORE PUSH1 0x20 ADD PUSH1 0x60 DUP2 MSTORE PUSH1 0x20 ADD PUSH1 0x0 PUSH20 0xFFFFFFFFFFFFFFFFFFFFFFFFFFFFFFFFFFFFFFFF AND DUP2 MSTORE POP SWAP1 JUMP JUMPDEST DUP3 DUP1 SLOAD DUP3 DUP3 SSTORE SWAP1 PUSH1 0x0 MSTORE PUSH1 0x20 PUSH1 0x0 KECCAK256 SWAP1 DUP2 ADD SWAP3 DUP3 ISZERO PUSH2 0x3D09 JUMPI SWAP2 PUSH1 0x20 MUL DUP3 ADD JUMPDEST DUP3 DUP2 GT ISZERO PUSH2 0x3D08 JUMPI DUP3 MLOAD DUP3 SWAP1 DUP2 PUSH2 0x3CF8 SWAP2 SWAP1 PUSH2 0x530C JUMP JUMPDEST POP SWAP2 PUSH1 0x20 ADD SWAP2 SWAP1 PUSH1 0x1 ADD SWAP1 PUSH2 0x3CE1 JUMP JUMPDEST JUMPDEST POP SWAP1 POP PUSH2 0x3D16 SWAP2 SWAP1 PUSH2 0x3E01 JUMP JUMPDEST POP SWAP1 JUMP JUMPDEST DUP3 DUP1 SLOAD DUP3 DUP3 SSTORE SWAP1 PUSH1 0x0 MSTORE PUSH1 0x20 PUSH1 0x0 KECCAK256 SWAP1 DUP2 ADD SWAP3 DUP3 ISZERO PUSH2 0x3D93 JUMPI SWAP2 PUSH1 0x20 MUL DUP3 ADD JUMPDEST DUP3 DUP2 GT ISZERO PUSH2 0x3D92 JUMPI DUP3 MLOAD DUP3 PUSH1 0x0 PUSH2 0x100 EXP DUP2 SLOAD DUP2 PUSH20 0xFFFFFFFFFFFFFFFFFFFFFFFFFFFFFFFFFFFFFFFF MUL NOT AND SWAP1 DUP4 PUSH20 0xFFFFFFFFFFFFFFFFFFFFFFFFFFFFFFFFFFFFFFFF AND MUL OR SWAP1 SSTORE POP SWAP2 PUSH1 0x20 ADD SWAP2 SWAP1 PUSH1 0x1 ADD SWAP1 PUSH2 0x3D3A JUMP JUMPDEST JUMPDEST POP SWAP1 POP PUSH2 0x3DA0 SWAP2 SWAP1 PUSH2 0x3E25 JUMP JUMPDEST POP SWAP1 JUMP JUMPDEST PUSH1 0x40 MLOAD DUP1 PUSH2 0x100 ADD PUSH1 0x40 MSTORE DUP1 PUSH1 0x0 PUSH20 0xFFFFFFFFFFFFFFFFFFFFFFFFFFFFFFFFFFFFFFFF AND DUP2 MSTORE PUSH1 0x20 ADD PUSH1 0x60 DUP2 MSTORE PUSH1 0x20 ADD PUSH1 0x60 DUP2 MSTORE PUSH1 0x20 ADD PUSH1 0x0 DUP2 MSTORE PUSH1 0x20 ADD PUSH1 0x60 DUP2 MSTORE PUSH1 0x20 ADD PUSH1 0x60 DUP2 MSTORE PUSH1 0x20 ADD PUSH1 0x0 ISZERO ISZERO DUP2 MSTORE PUSH1 0x20 ADD PUSH1 0x0 DUP2 MSTORE POP SWAP1 JUMP JUMPDEST JUMPDEST DUP1 DUP3 GT ISZERO PUSH2 0x3E21 JUMPI PUSH1 0x0 DUP2 DUP2 PUSH2 0x3E18 SWAP2 SWAP1 PUSH2 0x3E42 JUMP JUMPDEST POP PUSH1 0x1 ADD PUSH2 0x3E02 JUMP JUMPDEST POP SWAP1 JUMP JUMPDEST JUMPDEST DUP1 DUP3 GT ISZERO PUSH2 0x3E3E JUMPI PUSH1 0x0 DUP2 PUSH1 0x0 SWAP1 SSTORE POP PUSH1 0x1 ADD PUSH2 0x3E26 JUMP JUMPDEST POP SWAP1 JUMP JUMPDEST POP DUP1 SLOAD PUSH2 0x3E4E SWAP1 PUSH2 0x504C JUMP JUMPDEST PUSH1 0x0 DUP3 SSTORE DUP1 PUSH1 0x1F LT PUSH2 0x3E60 JUMPI POP PUSH2 0x3E7F JUMP JUMPDEST PUSH1 0x1F ADD PUSH1 0x20 SWAP1 DIV SWAP1 PUSH1 0x0 MSTORE PUSH1 0x20 PUSH1 0x0 KECCAK256 SWAP1 DUP2 ADD SWAP1 PUSH2 0x3E7E SWAP2 SWAP1 PUSH2 0x3E25 JUMP JUMPDEST JUMPDEST POP JUMP JUMPDEST PUSH1 0x0 PUSH1 0x40 MLOAD SWAP1 POP SWAP1 JUMP JUMPDEST PUSH1 0x0 DUP1 REVERT JUMPDEST PUSH1 0x0 DUP1 REVERT JUMPDEST PUSH1 0x0 PUSH20 0xFFFFFFFFFFFFFFFFFFFFFFFFFFFFFFFFFFFFFFFF DUP3 AND SWAP1 POP SWAP2 SWAP1 POP JUMP JUMPDEST PUSH1 0x0 PUSH2 0x3EC1 DUP3 PUSH2 0x3E96 JUMP JUMPDEST SWAP1 POP SWAP2 SWAP1 POP JUMP JUMPDEST PUSH2 0x3ED1 DUP2 PUSH2 0x3EB6 JUMP JUMPDEST DUP2 EQ PUSH2 0x3EDC JUMPI PUSH1 0x0 DUP1 REVERT JUMPDEST POP JUMP JUMPDEST PUSH1 0x0 DUP2 CALLDATALOAD SWAP1 POP PUSH2 0x3EEE DUP2 PUSH2 0x3EC8 JUMP JUMPDEST SWAP3 SWAP2 POP POP JUMP JUMPDEST PUSH1 0x0 PUSH1 0x20 DUP3 DUP5 SUB SLT ISZERO PUSH2 0x3F0A JUMPI PUSH2 0x3F09 PUSH2 0x3E8C JUMP JUMPDEST JUMPDEST PUSH1 0x0 PUSH2 0x3F18 DUP5 DUP3 DUP6 ADD PUSH2 0x3EDF JUMP JUMPDEST SWAP2 POP POP SWAP3 SWAP2 POP POP JUMP JUMPDEST PUSH2 0x3F2A DUP2 PUSH2 0x3EB6 JUMP JUMPDEST DUP3 MSTORE POP POP JUMP JUMPDEST PUSH1 0x0 DUP2 MLOAD SWAP1 POP SWAP2 SWAP1 POP JUMP JUMPDEST PUSH1 0x0 DUP3 DUP3 MSTORE PUSH1 0x20 DUP3 ADD SWAP1 POP SWAP3 SWAP2 POP POP JUMP JUMPDEST PUSH1 0x0 JUMPDEST DUP4 DUP2 LT ISZERO PUSH2 0x3F6A JUMPI DUP1 DUP3 ADD MLOAD DUP2 DUP5 ADD MSTORE PUSH1 0x20 DUP2 ADD SWAP1 POP PUSH2 0x3F4F JUMP JUMPDEST PUSH1 0x0 DUP5 DUP5 ADD MSTORE POP POP POP POP JUMP JUMPDEST PUSH1 0x0 PUSH1 0x1F NOT PUSH1 0x1F DUP4 ADD AND SWAP1 POP SWAP2 SWAP1 POP JUMP JUMPDEST PUSH1 0x0 PUSH2 0x3F92 DUP3 PUSH2 0x3F30 JUMP JUMPDEST PUSH2 0x3F9C DUP2 DUP6 PUSH2 0x3F3B JUMP JUMPDEST SWAP4 POP PUSH2 0x3FAC DUP2 DUP6 PUSH1 0x20 DUP7 ADD PUSH2 0x3F4C JUMP JUMPDEST PUSH2 0x3FB5 DUP2 PUSH2 0x3F76 JUMP JUMPDEST DUP5 ADD SWAP2 POP POP SWAP3 SWAP2 POP POP JUMP JUMPDEST PUSH1 0x0 DUP2 SWAP1 POP SWAP2 SWAP1 POP JUMP JUMPDEST PUSH2 0x3FD3 DUP2 PUSH2 0x3FC0 JUMP JUMPDEST DUP3 MSTORE POP POP JUMP JUMPDEST PUSH1 0x0 DUP2 ISZERO ISZERO SWAP1 POP SWAP2 SWAP1 POP JUMP JUMPDEST PUSH2 0x3FEE DUP2 PUSH2 0x3FD9 JUMP JUMPDEST DUP3 MSTORE POP POP JUMP JUMPDEST PUSH1 0x0 PUSH2 0x100 DUP3 ADD SWAP1 POP PUSH2 0x400A PUSH1 0x0 DUP4 ADD DUP12 PUSH2 0x3F21 JUMP JUMPDEST DUP2 DUP2 SUB PUSH1 0x20 DUP4 ADD MSTORE PUSH2 0x401C DUP2 DUP11 PUSH2 0x3F87 JUMP JUMPDEST SWAP1 POP DUP2 DUP2 SUB PUSH1 0x40 DUP4 ADD MSTORE PUSH2 0x4030 DUP2 DUP10 PUSH2 0x3F87 JUMP JUMPDEST SWAP1 POP PUSH2 0x403F PUSH1 0x60 DUP4 ADD DUP9 PUSH2 0x3FCA JUMP JUMPDEST DUP2 DUP2 SUB PUSH1 0x80 DUP4 ADD MSTORE PUSH2 0x4051 DUP2 DUP8 PUSH2 0x3F87 JUMP JUMPDEST SWAP1 POP DUP2 DUP2 SUB PUSH1 0xA0 DUP4 ADD MSTORE PUSH2 0x4065 DUP2 DUP7 PUSH2 0x3F87 JUMP JUMPDEST SWAP1 POP PUSH2 0x4074 PUSH1 0xC0 DUP4 ADD DUP6 PUSH2 0x3FE5 JUMP JUMPDEST PUSH2 0x4081 PUSH1 0xE0 DUP4 ADD DUP5 PUSH2 0x3FCA JUMP JUMPDEST SWAP10 SWAP9 POP POP POP POP POP POP POP POP POP JUMP JUMPDEST PUSH1 0x0 DUP1 REVERT JUMPDEST PUSH1 0x0 DUP1 REVERT JUMPDEST PUSH32 0x4E487B7100000000000000000000000000000000000000000000000000000000 PUSH1 0x0 MSTORE PUSH1 0x41 PUSH1 0x4 MSTORE PUSH1 0x24 PUSH1 0x0 REVERT JUMPDEST PUSH2 0x40D0 DUP3 PUSH2 0x3F76 JUMP JUMPDEST DUP2 ADD DUP2 DUP2 LT PUSH8 0xFFFFFFFFFFFFFFFF DUP3 GT OR ISZERO PUSH2 0x40EF JUMPI PUSH2 0x40EE PUSH2 0x4098 JUMP JUMPDEST JUMPDEST DUP1 PUSH1 0x40 MSTORE POP POP POP JUMP JUMPDEST PUSH1 0x0 PUSH2 0x4102 PUSH2 0x3E82 JUMP JUMPDEST SWAP1 POP PUSH2 0x410E DUP3 DUP3 PUSH2 0x40C7 JUMP JUMPDEST SWAP2 SWAP1 POP JUMP JUMPDEST PUSH1 0x0 PUSH8 0xFFFFFFFFFFFFFFFF DUP3 GT ISZERO PUSH2 0x412E JUMPI PUSH2 0x412D PUSH2 0x4098 JUMP JUMPDEST JUMPDEST PUSH2 0x4137 DUP3 PUSH2 0x3F76 JUMP JUMPDEST SWAP1 POP PUSH1 0x20 DUP2 ADD SWAP1 POP SWAP2 SWAP1 POP JUMP JUMPDEST DUP3 DUP2 DUP4 CALLDATACOPY PUSH1 0x0 DUP4 DUP4 ADD MSTORE POP POP POP JUMP JUMPDEST PUSH1 0x0 PUSH2 0x4166 PUSH2 0x4161 DUP5 PUSH2 0x4113 JUMP JUMPDEST PUSH2 0x40F8 JUMP JUMPDEST SWAP1 POP DUP3 DUP2 MSTORE PUSH1 0x20 DUP2 ADD DUP5 DUP5 DUP5 ADD GT ISZERO PUSH2 0x4182 JUMPI PUSH2 0x4181 PUSH2 0x4093 JUMP JUMPDEST JUMPDEST PUSH2 0x418D DUP5 DUP3 DUP6 PUSH2 0x4144 JUMP JUMPDEST POP SWAP4 SWAP3 POP POP POP JUMP JUMPDEST PUSH1 0x0 DUP3 PUSH1 0x1F DUP4 ADD SLT PUSH2 0x41AA JUMPI PUSH2 0x41A9 PUSH2 0x408E JUMP JUMPDEST JUMPDEST DUP2 CALLDATALOAD PUSH2 0x41BA DUP5 DUP3 PUSH1 0x20 DUP7 ADD PUSH2 0x4153 JUMP JUMPDEST SWAP2 POP POP SWAP3 SWAP2 POP POP JUMP JUMPDEST PUSH1 0x0 DUP1 PUSH1 0x0 DUP1 PUSH1 0x80 DUP6 DUP8 SUB SLT ISZERO PUSH2 0x41DD JUMPI PUSH2 0x41DC PUSH2 0x3E8C JUMP JUMPDEST JUMPDEST PUSH1 0x0 DUP6 ADD CALLDATALOAD PUSH8 0xFFFFFFFFFFFFFFFF DUP2 GT ISZERO PUSH2 0x41FB JUMPI PUSH2 0x41FA PUSH2 0x3E91 JUMP JUMPDEST JUMPDEST PUSH2 0x4207 DUP8 DUP3 DUP9 ADD PUSH2 0x4195 JUMP JUMPDEST SWAP5 POP POP PUSH1 0x20 DUP6 ADD CALLDATALOAD PUSH8 0xFFFFFFFFFFFFFFFF DUP2 GT ISZERO PUSH2 0x4228 JUMPI PUSH2 0x4227 PUSH2 0x3E91 JUMP JUMPDEST JUMPDEST PUSH2 0x4234 DUP8 DUP3 DUP9 ADD PUSH2 0x4195 JUMP JUMPDEST SWAP4 POP POP PUSH1 0x40 DUP6 ADD CALLDATALOAD PUSH8 0xFFFFFFFFFFFFFFFF DUP2 GT ISZERO PUSH2 0x4255 JUMPI PUSH2 0x4254 PUSH2 0x3E91 JUMP JUMPDEST JUMPDEST PUSH2 0x4261 DUP8 DUP3 DUP9 ADD PUSH2 0x4195 JUMP JUMPDEST SWAP3 POP POP PUSH1 0x60 DUP6 ADD CALLDATALOAD PUSH8 0xFFFFFFFFFFFFFFFF DUP2 GT ISZERO PUSH2 0x4282 JUMPI PUSH2 0x4281 PUSH2 0x3E91 JUMP JUMPDEST JUMPDEST PUSH2 0x428E DUP8 DUP3 DUP9 ADD PUSH2 0x4195 JUMP JUMPDEST SWAP2 POP POP SWAP3 SWAP6 SWAP2 SWAP5 POP SWAP3 POP JUMP JUMPDEST PUSH1 0x0 PUSH1 0x20 DUP3 ADD SWAP1 POP PUSH2 0x42AF PUSH1 0x0 DUP4 ADD DUP5 PUSH2 0x3FCA JUMP JUMPDEST SWAP3 SWAP2 POP POP JUMP JUMPDEST PUSH1 0x0 PUSH1 0xFF DUP3 AND SWAP1 POP SWAP2 SWAP1 POP JUMP JUMPDEST PUSH2 0x42CB DUP2 PUSH2 0x42B5 JUMP JUMPDEST DUP3 MSTORE POP POP JUMP JUMPDEST PUSH1 0x0 PUSH1 0x20 DUP3 ADD SWAP1 POP PUSH2 0x42E6 PUSH1 0x0 DUP4 ADD DUP5 PUSH2 0x42C2 JUMP JUMPDEST SWAP3 SWAP2 POP POP JUMP JUMPDEST PUSH2 0x42F5 DUP2 PUSH2 0x3EB6 JUMP JUMPDEST DUP3 MSTORE POP POP JUMP JUMPDEST PUSH1 0x0 DUP3 DUP3 MSTORE PUSH1 0x20 DUP3 ADD SWAP1 POP SWAP3 SWAP2 POP POP JUMP JUMPDEST PUSH1 0x0 PUSH2 0x4317 DUP3 PUSH2 0x3F30 JUMP JUMPDEST PUSH2 0x4321 DUP2 DUP6 PUSH2 0x42FB JUMP JUMPDEST SWAP4 POP PUSH2 0x4331 DUP2 DUP6 PUSH1 0x20 DUP7 ADD PUSH2 0x3F4C JUMP JUMPDEST PUSH2 0x433A DUP2 PUSH2 0x3F76 JUMP JUMPDEST DUP5 ADD SWAP2 POP POP SWAP3 SWAP2 POP POP JUMP JUMPDEST PUSH2 0x434E DUP2 PUSH2 0x3FC0 JUMP JUMPDEST DUP3 MSTORE POP POP JUMP JUMPDEST PUSH1 0x0 DUP2 MLOAD SWAP1 POP SWAP2 SWAP1 POP JUMP JUMPDEST PUSH1 0x0 DUP3 DUP3 MSTORE PUSH1 0x20 DUP3 ADD SWAP1 POP SWAP3 SWAP2 POP POP JUMP JUMPDEST PUSH1 0x0 DUP2 SWAP1 POP PUSH1 0x20 DUP3 ADD SWAP1 POP SWAP2 SWAP1 POP JUMP JUMPDEST PUSH1 0x0 PUSH2 0x438C DUP4 DUP4 PUSH2 0x430C JUMP JUMPDEST SWAP1 POP SWAP3 SWAP2 POP POP JUMP JUMPDEST PUSH1 0x0 PUSH1 0x20 DUP3 ADD SWAP1 POP SWAP2 SWAP1 POP JUMP JUMPDEST PUSH1 0x0 PUSH2 0x43AC DUP3 PUSH2 0x4354 JUMP JUMPDEST PUSH2 0x43B6 DUP2 DUP6 PUSH2 0x435F JUMP JUMPDEST SWAP4 POP DUP4 PUSH1 0x20 DUP3 MUL DUP6 ADD PUSH2 0x43C8 DUP6 PUSH2 0x4370 JUMP JUMPDEST DUP1 PUSH1 0x0 JUMPDEST DUP6 DUP2 LT ISZERO PUSH2 0x4404 JUMPI DUP5 DUP5 SUB DUP10 MSTORE DUP2 MLOAD PUSH2 0x43E5 DUP6 DUP3 PUSH2 0x4380 JUMP JUMPDEST SWAP5 POP PUSH2 0x43F0 DUP4 PUSH2 0x4394 JUMP JUMPDEST SWAP3 POP PUSH1 0x20 DUP11 ADD SWAP10 POP POP PUSH1 0x1 DUP2 ADD SWAP1 POP PUSH2 0x43CC JUMP JUMPDEST POP DUP3 SWAP8 POP DUP8 SWAP6 POP POP POP POP POP POP SWAP3 SWAP2 POP POP JUMP JUMPDEST PUSH2 0x441F DUP2 PUSH2 0x3FD9 JUMP JUMPDEST DUP3 MSTORE POP POP JUMP JUMPDEST PUSH1 0x0 PUSH2 0x180 DUP4 ADD PUSH1 0x0 DUP4 ADD MLOAD PUSH2 0x443E PUSH1 0x0 DUP7 ADD DUP3 PUSH2 0x42EC JUMP JUMPDEST POP PUSH1 0x20 DUP4 ADD MLOAD DUP5 DUP3 SUB PUSH1 0x20 DUP7 ADD MSTORE PUSH2 0x4456 DUP3 DUP3 PUSH2 0x430C JUMP JUMPDEST SWAP2 POP POP PUSH1 0x40 DUP4 ADD MLOAD DUP5 DUP3 SUB PUSH1 0x40 DUP7 ADD MSTORE PUSH2 0x4470 DUP3 DUP3 PUSH2 0x430C JUMP JUMPDEST SWAP2 POP POP PUSH1 0x60 DUP4 ADD MLOAD PUSH2 0x4485 PUSH1 0x60 DUP7 ADD DUP3 PUSH2 0x4345 JUMP JUMPDEST POP PUSH1 0x80 DUP4 ADD MLOAD DUP5 DUP3 SUB PUSH1 0x80 DUP7 ADD MSTORE PUSH2 0x449D DUP3 DUP3 PUSH2 0x430C JUMP JUMPDEST SWAP2 POP POP PUSH1 0xA0 DUP4 ADD MLOAD DUP5 DUP3 SUB PUSH1 0xA0 DUP7 ADD MSTORE PUSH2 0x44B7 DUP3 DUP3 PUSH2 0x430C JUMP JUMPDEST SWAP2 POP POP PUSH1 0xC0 DUP4 ADD MLOAD DUP5 DUP3 SUB PUSH1 0xC0 DUP7 ADD MSTORE PUSH2 0x44D1 DUP3 DUP3 PUSH2 0x430C JUMP JUMPDEST SWAP2 POP POP PUSH1 0xE0 DUP4 ADD MLOAD DUP5 DUP3 SUB PUSH1 0xE0 DUP7 ADD MSTORE PUSH2 0x44EB DUP3 DUP3 PUSH2 0x43A1 JUMP JUMPDEST SWAP2 POP POP PUSH2 0x100 DUP4 ADD MLOAD PUSH2 0x4502 PUSH2 0x100 DUP7 ADD DUP3 PUSH2 0x4345 JUMP JUMPDEST POP PUSH2 0x120 DUP4 ADD MLOAD PUSH2 0x4517 PUSH2 0x120 DUP7 ADD DUP3 PUSH2 0x4416 JUMP JUMPDEST POP PUSH2 0x140 DUP4 ADD MLOAD PUSH2 0x452C PUSH2 0x140 DUP7 ADD DUP3 PUSH2 0x4345 JUMP JUMPDEST POP PUSH2 0x160 DUP4 ADD MLOAD PUSH2 0x4541 PUSH2 0x160 DUP7 ADD DUP3 PUSH2 0x4345 JUMP JUMPDEST POP DUP1 SWAP2 POP POP SWAP3 SWAP2 POP POP JUMP JUMPDEST PUSH1 0x0 PUSH1 0x20 DUP3 ADD SWAP1 POP DUP2 DUP2 SUB PUSH1 0x0 DUP4 ADD MSTORE PUSH2 0x4566 DUP2 DUP5 PUSH2 0x4425 JUMP JUMPDEST SWAP1 POP SWAP3 SWAP2 POP POP JUMP JUMPDEST PUSH1 0x0 PUSH2 0x160 DUP3 ADD SWAP1 POP PUSH2 0x4584 PUSH1 0x0 DUP4 ADD DUP15 PUSH2 0x3F21 JUMP JUMPDEST DUP2 DUP2 SUB PUSH1 0x20 DUP4 ADD MSTORE PUSH2 0x4596 DUP2 DUP14 PUSH2 0x3F87 JUMP JUMPDEST SWAP1 POP DUP2 DUP2 SUB PUSH1 0x40 DUP4 ADD MSTORE PUSH2 0x45AA DUP2 DUP13 PUSH2 0x3F87 JUMP JUMPDEST SWAP1 POP PUSH2 0x45B9 PUSH1 0x60 DUP4 ADD DUP12 PUSH2 0x3FCA JUMP JUMPDEST DUP2 DUP2 SUB PUSH1 0x80 DUP4 ADD MSTORE PUSH2 0x45CB DUP2 DUP11 PUSH2 0x3F87 JUMP JUMPDEST SWAP1 POP DUP2 DUP2 SUB PUSH1 0xA0 DUP4 ADD MSTORE PUSH2 0x45DF DUP2 DUP10 PUSH2 0x3F87 JUMP JUMPDEST SWAP1 POP DUP2 DUP2 SUB PUSH1 0xC0 DUP4 ADD MSTORE PUSH2 0x45F3 DUP2 DUP9 PUSH2 0x3F87 JUMP JUMPDEST SWAP1 POP PUSH2 0x4602 PUSH1 0xE0 DUP4 ADD DUP8 PUSH2 0x3FCA JUMP JUMPDEST PUSH2 0x4610 PUSH2 0x100 DUP4 ADD DUP7 PUSH2 0x3FE5 JUMP JUMPDEST PUSH2 0x461E PUSH2 0x120 DUP4 ADD DUP6 PUSH2 0x3FCA JUMP JUMPDEST PUSH2 0x462C PUSH2 0x140 DUP4 ADD DUP5 PUSH2 0x3FCA JUMP JUMPDEST SWAP13 SWAP12 POP POP POP POP POP POP POP POP POP POP POP POP JUMP JUMPDEST PUSH1 0x0 DUP2 MLOAD SWAP1 POP SWAP2 SWAP1 POP JUMP JUMPDEST PUSH1 0x0 DUP3 DUP3 MSTORE PUSH1 0x20 DUP3 ADD SWAP1 POP SWAP3 SWAP2 POP POP JUMP JUMPDEST PUSH1 0x0 DUP2 SWAP1 POP PUSH1 0x20 DUP3 ADD SWAP1 POP SWAP2 SWAP1 POP JUMP JUMPDEST PUSH1 0x0 PUSH2 0x180 DUP4 ADD PUSH1 0x0 DUP4 ADD MLOAD PUSH2 0x4681 PUSH1 0x0 DUP7 ADD DUP3 PUSH2 0x42EC JUMP JUMPDEST POP PUSH1 0x20 DUP4 ADD MLOAD DUP5 DUP3 SUB PUSH1 0x20 DUP7 ADD MSTORE PUSH2 0x4699 DUP3 DUP3 PUSH2 0x430C JUMP JUMPDEST SWAP2 POP POP PUSH1 0x40 DUP4 ADD MLOAD DUP5 DUP3 SUB PUSH1 0x40 DUP7 ADD MSTORE PUSH2 0x46B3 DUP3 DUP3 PUSH2 0x430C JUMP JUMPDEST SWAP2 POP POP PUSH1 0x60 DUP4 ADD MLOAD PUSH2 0x46C8 PUSH1 0x60 DUP7 ADD DUP3 PUSH2 0x4345 JUMP JUMPDEST POP PUSH1 0x80 DUP4 ADD MLOAD DUP5 DUP3 SUB PUSH1 0x80 DUP7 ADD MSTORE PUSH2 0x46E0 DUP3 DUP3 PUSH2 0x430C JUMP JUMPDEST SWAP2 POP POP PUSH1 0xA0 DUP4 ADD MLOAD DUP5 DUP3 SUB PUSH1 0xA0 DUP7 ADD MSTORE PUSH2 0x46FA DUP3 DUP3 PUSH2 0x430C JUMP JUMPDEST SWAP2 POP POP PUSH1 0xC0 DUP4 ADD MLOAD DUP5 DUP3 SUB PUSH1 0xC0 DUP7 ADD MSTORE PUSH2 0x4714 DUP3 DUP3 PUSH2 0x430C JUMP JUMPDEST SWAP2 POP POP PUSH1 0xE0 DUP4 ADD MLOAD DUP5 DUP3 SUB PUSH1 0xE0 DUP7 ADD MSTORE PUSH2 0x472E DUP3 DUP3 PUSH2 0x43A1 JUMP JUMPDEST SWAP2 POP POP PUSH2 0x100 DUP4 ADD MLOAD PUSH2 0x4745 PUSH2 0x100 DUP7 ADD DUP3 PUSH2 0x4345 JUMP JUMPDEST POP PUSH2 0x120 DUP4 ADD MLOAD PUSH2 0x475A PUSH2 0x120 DUP7 ADD DUP3 PUSH2 0x4416 JUMP JUMPDEST POP PUSH2 0x140 DUP4 ADD MLOAD PUSH2 0x476F PUSH2 0x140 DUP7 ADD DUP3 PUSH2 0x4345 JUMP JUMPDEST POP PUSH2 0x160 DUP4 ADD MLOAD PUSH2 0x4784 PUSH2 0x160 DUP7 ADD DUP3 PUSH2 0x4345 JUMP JUMPDEST POP DUP1 SWAP2 POP POP SWAP3 SWAP2 POP POP JUMP JUMPDEST PUSH1 0x0 PUSH2 0x479B DUP4 DUP4 PUSH2 0x4668 JUMP JUMPDEST SWAP1 POP SWAP3 SWAP2 POP POP JUMP JUMPDEST PUSH1 0x0 PUSH1 0x20 DUP3 ADD SWAP1 POP SWAP2 SWAP1 POP JUMP JUMPDEST PUSH1 0x0 PUSH2 0x47BB DUP3 PUSH2 0x463C JUMP JUMPDEST PUSH2 0x47C5 DUP2 DUP6 PUSH2 0x4647 JUMP JUMPDEST SWAP4 POP DUP4 PUSH1 0x20 DUP3 MUL DUP6 ADD PUSH2 0x47D7 DUP6 PUSH2 0x4658 JUMP JUMPDEST DUP1 PUSH1 0x0 JUMPDEST DUP6 DUP2 LT ISZERO PUSH2 0x4813 JUMPI DUP5 DUP5 SUB DUP10 MSTORE DUP2 MLOAD PUSH2 0x47F4 DUP6 DUP3 PUSH2 0x478F JUMP JUMPDEST SWAP5 POP PUSH2 0x47FF DUP4 PUSH2 0x47A3 JUMP JUMPDEST SWAP3 POP PUSH1 0x20 DUP11 ADD SWAP10 POP POP PUSH1 0x1 DUP2 ADD SWAP1 POP PUSH2 0x47DB JUMP JUMPDEST POP DUP3 SWAP8 POP DUP8 SWAP6 POP POP POP POP POP POP SWAP3 SWAP2 POP POP JUMP JUMPDEST PUSH1 0x0 PUSH1 0x20 DUP3 ADD SWAP1 POP DUP2 DUP2 SUB PUSH1 0x0 DUP4 ADD MSTORE PUSH2 0x483F DUP2 DUP5 PUSH2 0x47B0 JUMP JUMPDEST SWAP1 POP SWAP3 SWAP2 POP POP JUMP JUMPDEST PUSH2 0x4850 DUP2 PUSH2 0x3FC0 JUMP JUMPDEST DUP2 EQ PUSH2 0x485B JUMPI PUSH1 0x0 DUP1 REVERT JUMPDEST POP JUMP JUMPDEST PUSH1 0x0 DUP2 CALLDATALOAD SWAP1 POP PUSH2 0x486D DUP2 PUSH2 0x4847 JUMP JUMPDEST SWAP3 SWAP2 POP POP JUMP JUMPDEST PUSH1 0x0 PUSH1 0x20 DUP3 DUP5 SUB SLT ISZERO PUSH2 0x4889 JUMPI PUSH2 0x4888 PUSH2 0x3E8C JUMP JUMPDEST JUMPDEST PUSH1 0x0 PUSH2 0x4897 DUP5 DUP3 DUP6 ADD PUSH2 0x485E JUMP JUMPDEST SWAP2 POP POP SWAP3 SWAP2 POP POP JUMP JUMPDEST PUSH2 0x48A9 DUP2 PUSH2 0x42B5 JUMP JUMPDEST DUP3 MSTORE POP POP JUMP JUMPDEST PUSH1 0x0 DUP2 MLOAD SWAP1 POP SWAP2 SWAP1 POP JUMP JUMPDEST PUSH1 0x0 DUP3 DUP3 MSTORE PUSH1 0x20 DUP3 ADD SWAP1 POP SWAP3 SWAP2 POP POP JUMP JUMPDEST PUSH1 0x0 DUP2 SWAP1 POP PUSH1 0x20 DUP3 ADD SWAP1 POP SWAP2 SWAP1 POP JUMP JUMPDEST PUSH1 0x0 PUSH2 0x48E7 DUP4 DUP4 PUSH2 0x42EC JUMP JUMPDEST PUSH1 0x20 DUP4 ADD SWAP1 POP SWAP3 SWAP2 POP POP JUMP JUMPDEST PUSH1 0x0 PUSH1 0x20 DUP3 ADD SWAP1 POP SWAP2 SWAP1 POP JUMP JUMPDEST PUSH1 0x0 PUSH2 0x490B DUP3 PUSH2 0x48AF JUMP JUMPDEST PUSH2 0x4915 DUP2 DUP6 PUSH2 0x48BA JUMP JUMPDEST SWAP4 POP PUSH2 0x4920 DUP4 PUSH2 0x48CB JUMP JUMPDEST DUP1 PUSH1 0x0 JUMPDEST DUP4 DUP2 LT ISZERO PUSH2 0x4951 JUMPI DUP2 MLOAD PUSH2 0x4938 DUP9 DUP3 PUSH2 0x48DB JUMP JUMPDEST SWAP8 POP PUSH2 0x4943 DUP4 PUSH2 0x48F3 JUMP JUMPDEST SWAP3 POP POP PUSH1 0x1 DUP2 ADD SWAP1 POP PUSH2 0x4924 JUMP JUMPDEST POP DUP6 SWAP4 POP POP POP POP SWAP3 SWAP2 POP POP JUMP JUMPDEST PUSH1 0x0 PUSH2 0x100 DUP4 ADD PUSH1 0x0 DUP4 ADD MLOAD PUSH2 0x4977 PUSH1 0x0 DUP7 ADD DUP3 PUSH2 0x48A0 JUMP JUMPDEST POP PUSH1 0x20 DUP4 ADD MLOAD PUSH2 0x498A PUSH1 0x20 DUP7 ADD DUP3 PUSH2 0x42EC JUMP JUMPDEST POP PUSH1 0x40 DUP4 ADD MLOAD DUP5 DUP3 SUB PUSH1 0x40 DUP7 ADD MSTORE PUSH2 0x49A2 DUP3 DUP3 PUSH2 0x430C JUMP JUMPDEST SWAP2 POP POP PUSH1 0x60 DUP4 ADD MLOAD DUP5 DUP3 SUB PUSH1 0x60 DUP7 ADD MSTORE PUSH2 0x49BC DUP3 DUP3 PUSH2 0x430C JUMP JUMPDEST SWAP2 POP POP PUSH1 0x80 DUP4 ADD MLOAD PUSH2 0x49D1 PUSH1 0x80 DUP7 ADD DUP3 PUSH2 0x4345 JUMP JUMPDEST POP PUSH1 0xA0 DUP4 ADD MLOAD PUSH2 0x49E4 PUSH1 0xA0 DUP7 ADD DUP3 PUSH2 0x4416 JUMP JUMPDEST POP PUSH1 0xC0 DUP4 ADD MLOAD DUP5 DUP3 SUB PUSH1 0xC0 DUP7 ADD MSTORE PUSH2 0x49FC DUP3 DUP3 PUSH2 0x4900 JUMP JUMPDEST SWAP2 POP POP PUSH1 0xE0 DUP4 ADD MLOAD PUSH2 0x4A11 PUSH1 0xE0 DUP7 ADD DUP3 PUSH2 0x42EC JUMP JUMPDEST POP DUP1 SWAP2 POP POP SWAP3 SWAP2 POP POP JUMP JUMPDEST PUSH1 0x0 PUSH1 0x20 DUP3 ADD SWAP1 POP DUP2 DUP2 SUB PUSH1 0x0 DUP4 ADD MSTORE PUSH2 0x4A36 DUP2 DUP5 PUSH2 0x495E JUMP JUMPDEST SWAP1 POP SWAP3 SWAP2 POP POP JUMP JUMPDEST PUSH1 0x0 PUSH8 0xFFFFFFFFFFFFFFFF DUP3 GT ISZERO PUSH2 0x4A59 JUMPI PUSH2 0x4A58 PUSH2 0x4098 JUMP JUMPDEST JUMPDEST PUSH1 0x20 DUP3 MUL SWAP1 POP PUSH1 0x20 DUP2 ADD SWAP1 POP SWAP2 SWAP1 POP JUMP JUMPDEST PUSH1 0x0 DUP1 REVERT JUMPDEST PUSH1 0x0 PUSH2 0x4A82 PUSH2 0x4A7D DUP5 PUSH2 0x4A3E JUMP JUMPDEST PUSH2 0x40F8 JUMP JUMPDEST SWAP1 POP DUP1 DUP4 DUP3 MSTORE PUSH1 0x20 DUP3 ADD SWAP1 POP PUSH1 0x20 DUP5 MUL DUP4 ADD DUP6 DUP2 GT ISZERO PUSH2 0x4AA5 JUMPI PUSH2 0x4AA4 PUSH2 0x4A6A JUMP JUMPDEST JUMPDEST DUP4 JUMPDEST DUP2 DUP2 LT ISZERO PUSH2 0x4AEC JUMPI DUP1 CALLDATALOAD PUSH8 0xFFFFFFFFFFFFFFFF DUP2 GT ISZERO PUSH2 0x4ACA JUMPI PUSH2 0x4AC9 PUSH2 0x408E JUMP JUMPDEST JUMPDEST DUP1 DUP7 ADD PUSH2 0x4AD7 DUP10 DUP3 PUSH2 0x4195 JUMP JUMPDEST DUP6 MSTORE PUSH1 0x20 DUP6 ADD SWAP5 POP POP POP PUSH1 0x20 DUP2 ADD SWAP1 POP PUSH2 0x4AA7 JUMP JUMPDEST POP POP POP SWAP4 SWAP3 POP POP POP JUMP JUMPDEST PUSH1 0x0 DUP3 PUSH1 0x1F DUP4 ADD SLT PUSH2 0x4B0B JUMPI PUSH2 0x4B0A PUSH2 0x408E JUMP JUMPDEST JUMPDEST DUP2 CALLDATALOAD PUSH2 0x4B1B DUP5 DUP3 PUSH1 0x20 DUP7 ADD PUSH2 0x4A6F JUMP JUMPDEST SWAP2 POP POP SWAP3 SWAP2 POP POP JUMP JUMPDEST PUSH1 0x0 DUP1 PUSH1 0x0 DUP1 PUSH1 0x0 DUP1 PUSH1 0x0 PUSH1 0xE0 DUP9 DUP11 SUB SLT ISZERO PUSH2 0x4B43 JUMPI PUSH2 0x4B42 PUSH2 0x3E8C JUMP JUMPDEST JUMPDEST PUSH1 0x0 DUP9 ADD CALLDATALOAD PUSH8 0xFFFFFFFFFFFFFFFF DUP2 GT ISZERO PUSH2 0x4B61 JUMPI PUSH2 0x4B60 PUSH2 0x3E91 JUMP JUMPDEST JUMPDEST PUSH2 0x4B6D DUP11 DUP3 DUP12 ADD PUSH2 0x4195 JUMP JUMPDEST SWAP8 POP POP PUSH1 0x20 DUP9 ADD CALLDATALOAD PUSH8 0xFFFFFFFFFFFFFFFF DUP2 GT ISZERO PUSH2 0x4B8E JUMPI PUSH2 0x4B8D PUSH2 0x3E91 JUMP JUMPDEST JUMPDEST PUSH2 0x4B9A DUP11 DUP3 DUP12 ADD PUSH2 0x4195 JUMP JUMPDEST SWAP7 POP POP PUSH1 0x40 DUP9 ADD CALLDATALOAD PUSH8 0xFFFFFFFFFFFFFFFF DUP2 GT ISZERO PUSH2 0x4BBB JUMPI PUSH2 0x4BBA PUSH2 0x3E91 JUMP JUMPDEST JUMPDEST PUSH2 0x4BC7 DUP11 DUP3 DUP12 ADD PUSH2 0x4195 JUMP JUMPDEST SWAP6 POP POP PUSH1 0x60 DUP9 ADD CALLDATALOAD PUSH8 0xFFFFFFFFFFFFFFFF DUP2 GT ISZERO PUSH2 0x4BE8 JUMPI PUSH2 0x4BE7 PUSH2 0x3E91 JUMP JUMPDEST JUMPDEST PUSH2 0x4BF4 DUP11 DUP3 DUP12 ADD PUSH2 0x4195 JUMP JUMPDEST SWAP5 POP POP PUSH1 0x80 DUP9 ADD CALLDATALOAD PUSH8 0xFFFFFFFFFFFFFFFF DUP2 GT ISZERO PUSH2 0x4C15 JUMPI PUSH2 0x4C14 PUSH2 0x3E91 JUMP JUMPDEST JUMPDEST PUSH2 0x4C21 DUP11 DUP3 DUP12 ADD PUSH2 0x4195 JUMP JUMPDEST SWAP4 POP POP PUSH1 0xA0 DUP9 ADD CALLDATALOAD PUSH8 0xFFFFFFFFFFFFFFFF DUP2 GT ISZERO PUSH2 0x4C42 JUMPI PUSH2 0x4C41 PUSH2 0x3E91 JUMP JUMPDEST JUMPDEST PUSH2 0x4C4E DUP11 DUP3 DUP12 ADD PUSH2 0x4AF6 JUMP JUMPDEST SWAP3 POP POP PUSH1 0xC0 PUSH2 0x4C5F DUP11 DUP3 DUP12 ADD PUSH2 0x485E JUMP JUMPDEST SWAP2 POP POP SWAP3 SWAP6 SWAP9 SWAP2 SWAP5 SWAP8 POP SWAP3 SWAP6 POP JUMP JUMPDEST PUSH1 0x0 DUP1 PUSH1 0x40 DUP4 DUP6 SUB SLT ISZERO PUSH2 0x4C85 JUMPI PUSH2 0x4C84 PUSH2 0x3E8C JUMP JUMPDEST JUMPDEST PUSH1 0x0 PUSH2 0x4C93 DUP6 DUP3 DUP7 ADD PUSH2 0x485E JUMP JUMPDEST SWAP3 POP POP PUSH1 0x20 PUSH2 0x4CA4 DUP6 DUP3 DUP7 ADD PUSH2 0x3EDF JUMP JUMPDEST SWAP2 POP POP SWAP3 POP SWAP3 SWAP1 POP JUMP JUMPDEST PUSH1 0x0 DUP1 PUSH1 0x0 PUSH1 0x60 DUP5 DUP7 SUB SLT ISZERO PUSH2 0x4CC7 JUMPI PUSH2 0x4CC6 PUSH2 0x3E8C JUMP JUMPDEST JUMPDEST PUSH1 0x0 DUP5 ADD CALLDATALOAD PUSH8 0xFFFFFFFFFFFFFFFF DUP2 GT ISZERO PUSH2 0x4CE5 JUMPI PUSH2 0x4CE4 PUSH2 0x3E91 JUMP JUMPDEST JUMPDEST PUSH2 0x4CF1 DUP7 DUP3 DUP8 ADD PUSH2 0x4195 JUMP JUMPDEST SWAP4 POP POP PUSH1 0x20 DUP5 ADD CALLDATALOAD PUSH8 0xFFFFFFFFFFFFFFFF DUP2 GT ISZERO PUSH2 0x4D12 JUMPI PUSH2 0x4D11 PUSH2 0x3E91 JUMP JUMPDEST JUMPDEST PUSH2 0x4D1E DUP7 DUP3 DUP8 ADD PUSH2 0x4195 JUMP JUMPDEST SWAP3 POP POP PUSH1 0x40 PUSH2 0x4D2F DUP7 DUP3 DUP8 ADD PUSH2 0x485E JUMP JUMPDEST SWAP2 POP POP SWAP3 POP SWAP3 POP SWAP3 JUMP JUMPDEST PUSH1 0x0 PUSH2 0x100 DUP4 ADD PUSH1 0x0 DUP4 ADD MLOAD PUSH2 0x4D52 PUSH1 0x0 DUP7 ADD DUP3 PUSH2 0x42EC JUMP JUMPDEST POP PUSH1 0x20 DUP4 ADD MLOAD DUP5 DUP3 SUB PUSH1 0x20 DUP7 ADD MSTORE PUSH2 0x4D6A DUP3 DUP3 PUSH2 0x430C JUMP JUMPDEST SWAP2 POP POP PUSH1 0x40 DUP4 ADD MLOAD DUP5 DUP3 SUB PUSH1 0x40 DUP7 ADD MSTORE PUSH2 0x4D84 DUP3 DUP3 PUSH2 0x430C JUMP JUMPDEST SWAP2 POP POP PUSH1 0x60 DUP4 ADD MLOAD PUSH2 0x4D99 PUSH1 0x60 DUP7 ADD DUP3 PUSH2 0x4345 JUMP JUMPDEST POP PUSH1 0x80 DUP4 ADD MLOAD DUP5 DUP3 SUB PUSH1 0x80 DUP7 ADD MSTORE PUSH2 0x4DB1 DUP3 DUP3 PUSH2 0x430C JUMP JUMPDEST SWAP2 POP POP PUSH1 0xA0 DUP4 ADD MLOAD DUP5 DUP3 SUB PUSH1 0xA0 DUP7 ADD MSTORE PUSH2 0x4DCB DUP3 DUP3 PUSH2 0x430C JUMP JUMPDEST SWAP2 POP POP PUSH1 0xC0 DUP4 ADD MLOAD PUSH2 0x4DE0 PUSH1 0xC0 DUP7 ADD DUP3 PUSH2 0x4416 JUMP JUMPDEST POP PUSH1 0xE0 DUP4 ADD MLOAD PUSH2 0x4DF3 PUSH1 0xE0 DUP7 ADD DUP3 PUSH2 0x4345 JUMP JUMPDEST POP DUP1 SWAP2 POP POP SWAP3 SWAP2 POP POP JUMP JUMPDEST PUSH1 0x0 PUSH1 0x20 DUP3 ADD SWAP1 POP DUP2 DUP2 SUB PUSH1 0x0 DUP4 ADD MSTORE PUSH2 0x4E18 DUP2 DUP5 PUSH2 0x4D39 JUMP JUMPDEST SWAP1 POP SWAP3 SWAP2 POP POP JUMP JUMPDEST PUSH1 0x0 PUSH1 0x20 DUP3 ADD SWAP1 POP PUSH2 0x4E35 PUSH1 0x0 DUP4 ADD DUP5 PUSH2 0x3F21 JUMP JUMPDEST SWAP3 SWAP2 POP POP JUMP JUMPDEST PUSH1 0x0 DUP2 MLOAD SWAP1 POP SWAP2 SWAP1 POP JUMP JUMPDEST PUSH1 0x0 DUP3 DUP3 MSTORE PUSH1 0x20 DUP3 ADD SWAP1 POP SWAP3 SWAP2 POP POP JUMP JUMPDEST PUSH1 0x0 DUP2 SWAP1 POP PUSH1 0x20 DUP3 ADD SWAP1 POP SWAP2 SWAP1 POP JUMP JUMPDEST PUSH1 0x0 PUSH2 0x100 DUP4 ADD PUSH1 0x0 DUP4 ADD MLOAD PUSH2 0x4E80 PUSH1 0x0 DUP7 ADD DUP3 PUSH2 0x48A0 JUMP JUMPDEST POP PUSH1 0x20 DUP4 ADD MLOAD PUSH2 0x4E93 PUSH1 0x20 DUP7 ADD DUP3 PUSH2 0x42EC JUMP JUMPDEST POP PUSH1 0x40 DUP4 ADD MLOAD DUP5 DUP3 SUB PUSH1 0x40 DUP7 ADD MSTORE PUSH2 0x4EAB DUP3 DUP3 PUSH2 0x430C JUMP JUMPDEST SWAP2 POP POP PUSH1 0x60 DUP4 ADD MLOAD DUP5 DUP3 SUB PUSH1 0x60 DUP7 ADD MSTORE PUSH2 0x4EC5 DUP3 DUP3 PUSH2 0x430C JUMP JUMPDEST SWAP2 POP POP PUSH1 0x80 DUP4 ADD MLOAD PUSH2 0x4EDA PUSH1 0x80 DUP7 ADD DUP3 PUSH2 0x4345 JUMP JUMPDEST POP PUSH1 0xA0 DUP4 ADD MLOAD PUSH2 0x4EED PUSH1 0xA0 DUP7 ADD DUP3 PUSH2 0x4416 JUMP JUMPDEST POP PUSH1 0xC0 DUP4 ADD MLOAD DUP5 DUP3 SUB PUSH1 0xC0 DUP7 ADD MSTORE PUSH2 0x4F05 DUP3 DUP3 PUSH2 0x4900 JUMP JUMPDEST SWAP2 POP POP PUSH1 0xE0 DUP4 ADD MLOAD PUSH2 0x4F1A PUSH1 0xE0 DUP7 ADD DUP3 PUSH2 0x42EC JUMP JUMPDEST POP DUP1 SWAP2 POP POP SWAP3 SWAP2 POP POP JUMP JUMPDEST PUSH1 0x0 PUSH2 0x4F31 DUP4 DUP4 PUSH2 0x4E67 JUMP JUMPDEST SWAP1 POP SWAP3 SWAP2 POP POP JUMP JUMPDEST PUSH1 0x0 PUSH1 0x20 DUP3 ADD SWAP1 POP SWAP2 SWAP1 POP JUMP JUMPDEST PUSH1 0x0 PUSH2 0x4F51 DUP3 PUSH2 0x4E3B JUMP JUMPDEST PUSH2 0x4F5B DUP2 DUP6 PUSH2 0x4E46 JUMP JUMPDEST SWAP4 POP DUP4 PUSH1 0x20 DUP3 MUL DUP6 ADD PUSH2 0x4F6D DUP6 PUSH2 0x4E57 JUMP JUMPDEST DUP1 PUSH1 0x0 JUMPDEST DUP6 DUP2 LT ISZERO PUSH2 0x4FA9 JUMPI DUP5 DUP5 SUB DUP10 MSTORE DUP2 MLOAD PUSH2 0x4F8A DUP6 DUP3 PUSH2 0x4F25 JUMP JUMPDEST SWAP5 POP PUSH2 0x4F95 DUP4 PUSH2 0x4F39 JUMP JUMPDEST SWAP3 POP PUSH1 0x20 DUP11 ADD SWAP10 POP POP PUSH1 0x1 DUP2 ADD SWAP1 POP PUSH2 0x4F71 JUMP JUMPDEST POP DUP3 SWAP8 POP DUP8 SWAP6 POP POP POP POP POP POP SWAP3 SWAP2 POP POP JUMP JUMPDEST PUSH1 0x0 PUSH1 0x20 DUP3 ADD SWAP1 POP DUP2 DUP2 SUB PUSH1 0x0 DUP4 ADD MSTORE PUSH2 0x4FD5 DUP2 DUP5 PUSH2 0x4F46 JUMP JUMPDEST SWAP1 POP SWAP3 SWAP2 POP POP JUMP JUMPDEST PUSH1 0x0 DUP1 PUSH1 0x40 DUP4 DUP6 SUB SLT ISZERO PUSH2 0x4FF4 JUMPI PUSH2 0x4FF3 PUSH2 0x3E8C JUMP JUMPDEST JUMPDEST PUSH1 0x0 PUSH2 0x5002 DUP6 DUP3 DUP7 ADD PUSH2 0x3EDF JUMP JUMPDEST SWAP3 POP POP PUSH1 0x20 PUSH2 0x5013 DUP6 DUP3 DUP7 ADD PUSH2 0x485E JUMP JUMPDEST SWAP2 POP POP SWAP3 POP SWAP3 SWAP1 POP JUMP JUMPDEST PUSH32 0x4E487B7100000000000000000000000000000000000000000000000000000000 PUSH1 0x0 MSTORE PUSH1 0x22 PUSH1 0x4 MSTORE PUSH1 0x24 PUSH1 0x0 REVERT JUMPDEST PUSH1 0x0 PUSH1 0x2 DUP3 DIV SWAP1 POP PUSH1 0x1 DUP3 AND DUP1 PUSH2 0x5064 JUMPI PUSH1 0x7F DUP3 AND SWAP2 POP JUMPDEST PUSH1 0x20 DUP3 LT DUP2 SUB PUSH2 0x5077 JUMPI PUSH2 0x5076 PUSH2 0x501D JUMP JUMPDEST JUMPDEST POP SWAP2 SWAP1 POP JUMP JUMPDEST PUSH32 0x4152000000000000000000000000000000000000000000000000000000000000 PUSH1 0x0 DUP3 ADD MSTORE POP JUMP JUMPDEST PUSH1 0x0 PUSH2 0x50B3 PUSH1 0x2 DUP4 PUSH2 0x3F3B JUMP JUMPDEST SWAP2 POP PUSH2 0x50BE DUP3 PUSH2 0x507D JUMP JUMPDEST PUSH1 0x20 DUP3 ADD SWAP1 POP SWAP2 SWAP1 POP JUMP JUMPDEST PUSH1 0x0 PUSH1 0x20 DUP3 ADD SWAP1 POP DUP2 DUP2 SUB PUSH1 0x0 DUP4 ADD MSTORE PUSH2 0x50E2 DUP2 PUSH2 0x50A6 JUMP JUMPDEST SWAP1 POP SWAP2 SWAP1 POP JUMP JUMPDEST PUSH32 0x4E487B7100000000000000000000000000000000000000000000000000000000 PUSH1 0x0 MSTORE PUSH1 0x11 PUSH1 0x4 MSTORE PUSH1 0x24 PUSH1 0x0 REVERT JUMPDEST PUSH1 0x0 PUSH2 0x5123 DUP3 PUSH2 0x3FC0 JUMP JUMPDEST SWAP2 POP PUSH32 0xFFFFFFFFFFFFFFFFFFFFFFFFFFFFFFFFFFFFFFFFFFFFFFFFFFFFFFFFFFFFFFFF DUP3 SUB PUSH2 0x5155 JUMPI PUSH2 0x5154 PUSH2 0x50E9 JUMP JUMPDEST JUMPDEST PUSH1 0x1 DUP3 ADD SWAP1 POP SWAP2 SWAP1 POP JUMP JUMPDEST PUSH1 0x0 DUP2 SWAP1 POP DUP2 PUSH1 0x0 MSTORE PUSH1 0x20 PUSH1 0x0 KECCAK256 SWAP1 POP SWAP2 SWAP1 POP JUMP JUMPDEST PUSH1 0x0 PUSH1 0x20 PUSH1 0x1F DUP4 ADD DIV SWAP1 POP SWAP2 SWAP1 POP JUMP JUMPDEST PUSH1 0x0 DUP3 DUP3 SHL SWAP1 POP SWAP3 SWAP2 POP POP JUMP JUMPDEST PUSH1 0x0 PUSH1 0x8 DUP4 MUL PUSH2 0x51C2 PUSH32 0xFFFFFFFFFFFFFFFFFFFFFFFFFFFFFFFFFFFFFFFFFFFFFFFFFFFFFFFFFFFFFFFF DUP3 PUSH2 0x5185 JUMP JUMPDEST PUSH2 0x51CC DUP7 DUP4 PUSH2 0x5185 JUMP JUMPDEST SWAP6 POP DUP1 NOT DUP5 AND SWAP4 POP DUP1 DUP7 AND DUP5 OR SWAP3 POP POP POP SWAP4 SWAP3 POP POP POP JUMP JUMPDEST PUSH1 0x0 DUP2 SWAP1 POP SWAP2 SWAP1 POP JUMP JUMPDEST PUSH1 0x0 PUSH2 0x5209 PUSH2 0x5204 PUSH2 0x51FF DUP5 PUSH2 0x3FC0 JUMP JUMPDEST PUSH2 0x51E4 JUMP JUMPDEST PUSH2 0x3FC0 JUMP JUMPDEST SWAP1 POP SWAP2 SWAP1 POP JUMP JUMPDEST PUSH1 0x0 DUP2 SWAP1 POP SWAP2 SWAP1 POP JUMP JUMPDEST PUSH2 0x5223 DUP4 PUSH2 0x51EE JUMP JUMPDEST PUSH2 0x5237 PUSH2 0x522F DUP3 PUSH2 0x5210 JUMP JUMPDEST DUP5 DUP5 SLOAD PUSH2 0x5192 JUMP JUMPDEST DUP3 SSTORE POP POP POP POP JUMP JUMPDEST PUSH1 0x0 SWAP1 JUMP JUMPDEST PUSH2 0x524C PUSH2 0x523F JUMP JUMPDEST PUSH2 0x5257 DUP2 DUP5 DUP5 PUSH2 0x521A JUMP JUMPDEST POP POP POP JUMP JUMPDEST JUMPDEST DUP2 DUP2 LT ISZERO PUSH2 0x527B JUMPI PUSH2 0x5270 PUSH1 0x0 DUP3 PUSH2 0x5244 JUMP JUMPDEST PUSH1 0x1 DUP2 ADD SWAP1 POP PUSH2 0x525D JUMP JUMPDEST POP POP JUMP JUMPDEST PUSH1 0x1F DUP3 GT ISZERO PUSH2 0x52C0 JUMPI PUSH2 0x5291 DUP2 PUSH2 0x5160 JUMP JUMPDEST PUSH2 0x529A DUP5 PUSH2 0x5175 JUMP JUMPDEST DUP2 ADD PUSH1 0x20 DUP6 LT ISZERO PUSH2 0x52A9 JUMPI DUP2 SWAP1 POP JUMPDEST PUSH2 0x52BD PUSH2 0x52B5 DUP6 PUSH2 0x5175 JUMP JUMPDEST DUP4 ADD DUP3 PUSH2 0x525C JUMP JUMPDEST POP POP JUMPDEST POP POP POP JUMP JUMPDEST PUSH1 0x0 DUP3 DUP3 SHR SWAP1 POP SWAP3 SWAP2 POP POP JUMP JUMPDEST PUSH1 0x0 PUSH2 0x52E3 PUSH1 0x0 NOT DUP5 PUSH1 0x8 MUL PUSH2 0x52C5 JUMP JUMPDEST NOT DUP1 DUP4 AND SWAP2 POP POP SWAP3 SWAP2 POP POP JUMP JUMPDEST PUSH1 0x0 PUSH2 0x52FC DUP4 DUP4 PUSH2 0x52D2 JUMP JUMPDEST SWAP2 POP DUP3 PUSH1 0x2 MUL DUP3 OR SWAP1 POP SWAP3 SWAP2 POP POP JUMP JUMPDEST PUSH2 0x5315 DUP3 PUSH2 0x3F30 JUMP JUMPDEST PUSH8 0xFFFFFFFFFFFFFFFF DUP2 GT ISZERO PUSH2 0x532E JUMPI PUSH2 0x532D PUSH2 0x4098 JUMP JUMPDEST JUMPDEST PUSH2 0x5338 DUP3 SLOAD PUSH2 0x504C JUMP JUMPDEST PUSH2 0x5343 DUP3 DUP3 DUP6 PUSH2 0x527F JUMP JUMPDEST PUSH1 0x0 PUSH1 0x20 SWAP1 POP PUSH1 0x1F DUP4 GT PUSH1 0x1 DUP2 EQ PUSH2 0x5376 JUMPI PUSH1 0x0 DUP5 ISZERO PUSH2 0x5364 JUMPI DUP3 DUP8 ADD MLOAD SWAP1 POP JUMPDEST PUSH2 0x536E DUP6 DUP3 PUSH2 0x52F0 JUMP JUMPDEST DUP7 SSTORE POP PUSH2 0x53D6 JUMP JUMPDEST PUSH1 0x1F NOT DUP5 AND PUSH2 0x5384 DUP7 PUSH2 0x5160 JUMP JUMPDEST PUSH1 0x0 JUMPDEST DUP3 DUP2 LT ISZERO PUSH2 0x53AC JUMPI DUP5 DUP10 ADD MLOAD DUP3 SSTORE PUSH1 0x1 DUP3 ADD SWAP2 POP PUSH1 0x20 DUP6 ADD SWAP5 POP PUSH1 0x20 DUP2 ADD SWAP1 POP PUSH2 0x5387 JUMP JUMPDEST DUP7 DUP4 LT ISZERO PUSH2 0x53C9 JUMPI DUP5 DUP10 ADD MLOAD PUSH2 0x53C5 PUSH1 0x1F DUP10 AND DUP3 PUSH2 0x52D2 JUMP JUMPDEST DUP4 SSTORE POP JUMPDEST PUSH1 0x1 PUSH1 0x2 DUP9 MUL ADD DUP9 SSTORE POP POP POP JUMPDEST POP POP POP POP POP POP JUMP JUMPDEST PUSH1 0x0 PUSH1 0x40 DUP3 ADD SWAP1 POP PUSH2 0x53F3 PUSH1 0x0 DUP4 ADD DUP6 PUSH2 0x3F21 JUMP JUMPDEST DUP2 DUP2 SUB PUSH1 0x20 DUP4 ADD MSTORE PUSH2 0x5405 DUP2 DUP5 PUSH2 0x3F87 JUMP JUMPDEST SWAP1 POP SWAP4 SWAP3 POP POP POP JUMP JUMPDEST PUSH32 0x4E487B7100000000000000000000000000000000000000000000000000000000 PUSH1 0x0 MSTORE PUSH1 0x32 PUSH1 0x4 MSTORE PUSH1 0x24 PUSH1 0x0 REVERT JUMPDEST PUSH32 0x494A000000000000000000000000000000000000000000000000000000000000 PUSH1 0x0 DUP3 ADD MSTORE POP JUMP JUMPDEST PUSH1 0x0 PUSH2 0x5473 PUSH1 0x2 DUP4 PUSH2 0x3F3B JUMP JUMPDEST SWAP2 POP PUSH2 0x547E DUP3 PUSH2 0x543D JUMP JUMPDEST PUSH1 0x20 DUP3 ADD SWAP1 POP SWAP2 SWAP1 POP JUMP JUMPDEST PUSH1 0x0 PUSH1 0x20 DUP3 ADD SWAP1 POP DUP2 DUP2 SUB PUSH1 0x0 DUP4 ADD MSTORE PUSH2 0x54A2 DUP2 PUSH2 0x5466 JUMP JUMPDEST SWAP1 POP SWAP2 SWAP1 POP JUMP JUMPDEST PUSH32 0x4A44452E00000000000000000000000000000000000000000000000000000000 PUSH1 0x0 DUP3 ADD MSTORE POP JUMP JUMPDEST PUSH1 0x0 PUSH2 0x54DF PUSH1 0x4 DUP4 PUSH2 0x3F3B JUMP JUMPDEST SWAP2 POP PUSH2 0x54EA DUP3 PUSH2 0x54A9 JUMP JUMPDEST PUSH1 0x20 DUP3 ADD SWAP1 POP SWAP2 SWAP1 POP JUMP JUMPDEST PUSH1 0x0 PUSH1 0x20 DUP3 ADD SWAP1 POP DUP2 DUP2 SUB PUSH1 0x0 DUP4 ADD MSTORE PUSH2 0x550E DUP2 PUSH2 0x54D2 JUMP JUMPDEST SWAP1 POP SWAP2 SWAP1 POP JUMP JUMPDEST PUSH32 0x4A41430000000000000000000000000000000000000000000000000000000000 PUSH1 0x0 DUP3 ADD MSTORE POP JUMP JUMPDEST PUSH1 0x0 PUSH2 0x554B PUSH1 0x3 DUP4 PUSH2 0x3F3B JUMP JUMPDEST SWAP2 POP PUSH2 0x5556 DUP3 PUSH2 0x5515 JUMP JUMPDEST PUSH1 0x20 DUP3 ADD SWAP1 POP SWAP2 SWAP1 POP JUMP JUMPDEST PUSH1 0x0 PUSH1 0x20 DUP3 ADD SWAP1 POP DUP2 DUP2 SUB PUSH1 0x0 DUP4 ADD MSTORE PUSH2 0x557A DUP2 PUSH2 0x553E JUMP JUMPDEST SWAP1 POP SWAP2 SWAP1 POP JUMP JUMPDEST PUSH32 0x4941000000000000000000000000000000000000000000000000000000000000 PUSH1 0x0 DUP3 ADD MSTORE POP JUMP JUMPDEST PUSH1 0x0 PUSH2 0x55B7 PUSH1 0x2 DUP4 PUSH2 0x3F3B JUMP JUMPDEST SWAP2 POP PUSH2 0x55C2 DUP3 PUSH2 0x5581 JUMP JUMPDEST PUSH1 0x20 DUP3 ADD SWAP1 POP SWAP2 SWAP1 POP JUMP JUMPDEST PUSH1 0x0 PUSH1 0x20 DUP3 ADD SWAP1 POP DUP2 DUP2 SUB PUSH1 0x0 DUP4 ADD MSTORE PUSH2 0x55E6 DUP2 PUSH2 0x55AA JUMP JUMPDEST SWAP1 POP SWAP2 SWAP1 POP JUMP JUMPDEST PUSH1 0x0 PUSH2 0x55F8 DUP3 PUSH2 0x3FC0 JUMP JUMPDEST SWAP2 POP PUSH2 0x5603 DUP4 PUSH2 0x3FC0 JUMP JUMPDEST SWAP3 POP DUP3 DUP3 ADD SWAP1 POP DUP1 DUP3 GT ISZERO PUSH2 0x561B JUMPI PUSH2 0x561A PUSH2 0x50E9 JUMP JUMPDEST JUMPDEST SWAP3 SWAP2 POP POP JUMP JUMPDEST PUSH1 0x0 PUSH1 0x60 DUP3 ADD SWAP1 POP PUSH2 0x5636 PUSH1 0x0 DUP4 ADD DUP7 PUSH2 0x3FCA JUMP JUMPDEST PUSH2 0x5643 PUSH1 0x20 DUP4 ADD DUP6 PUSH2 0x3F21 JUMP JUMPDEST PUSH2 0x5650 PUSH1 0x40 DUP4 ADD DUP5 PUSH2 0x3FCA JUMP JUMPDEST SWAP5 SWAP4 POP POP POP POP JUMP JUMPDEST PUSH1 0x0 DUP3 DUP3 MSTORE PUSH1 0x20 DUP3 ADD SWAP1 POP SWAP3 SWAP2 POP POP JUMP JUMPDEST PUSH1 0x0 PUSH2 0x5674 DUP3 PUSH2 0x4354 JUMP JUMPDEST PUSH2 0x567E DUP2 DUP6 PUSH2 0x5658 JUMP JUMPDEST SWAP4 POP DUP4 PUSH1 0x20 DUP3 MUL DUP6 ADD PUSH2 0x5690 DUP6 PUSH2 0x4370 JUMP JUMPDEST DUP1 PUSH1 0x0 JUMPDEST DUP6 DUP2 LT ISZERO PUSH2 0x56CC JUMPI DUP5 DUP5 SUB DUP10 MSTORE DUP2 MLOAD PUSH2 0x56AD DUP6 DUP3 PUSH2 0x4380 JUMP JUMPDEST SWAP5 POP PUSH2 0x56B8 DUP4 PUSH2 0x4394 JUMP JUMPDEST SWAP3 POP PUSH1 0x20 DUP11 ADD SWAP10 POP POP PUSH1 0x1 DUP2 ADD SWAP1 POP PUSH2 0x5694 JUMP JUMPDEST POP DUP3 SWAP8 POP DUP8 SWAP6 POP POP POP POP POP POP SWAP3 SWAP2 POP POP JUMP JUMPDEST PUSH1 0x0 PUSH1 0x60 DUP3 ADD SWAP1 POP PUSH2 0x56F3 PUSH1 0x0 DUP4 ADD DUP7 PUSH2 0x3F21 JUMP JUMPDEST DUP2 DUP2 SUB PUSH1 0x20 DUP4 ADD MSTORE PUSH2 0x5705 DUP2 DUP6 PUSH2 0x5669 JUMP JUMPDEST SWAP1 POP PUSH2 0x5714 PUSH1 0x40 DUP4 ADD DUP5 PUSH2 0x3FCA JUMP JUMPDEST SWAP5 SWAP4 POP POP POP POP JUMP JUMPDEST PUSH32 0x4A44450000000000000000000000000000000000000000000000000000000000 PUSH1 0x0 DUP3 ADD MSTORE POP JUMP JUMPDEST PUSH1 0x0 PUSH2 0x5752 PUSH1 0x3 DUP4 PUSH2 0x3F3B JUMP JUMPDEST SWAP2 POP PUSH2 0x575D DUP3 PUSH2 0x571C JUMP JUMPDEST PUSH1 0x20 DUP3 ADD SWAP1 POP SWAP2 SWAP1 POP JUMP JUMPDEST PUSH1 0x0 PUSH1 0x20 DUP3 ADD SWAP1 POP DUP2 DUP2 SUB PUSH1 0x0 DUP4 ADD MSTORE PUSH2 0x5781 DUP2 PUSH2 0x5745 JUMP JUMPDEST SWAP1 POP SWAP2 SWAP1 POP JUMP JUMPDEST PUSH32 0x4A4E460000000000000000000000000000000000000000000000000000000000 PUSH1 0x0 DUP3 ADD MSTORE POP JUMP JUMPDEST PUSH1 0x0 PUSH2 0x57BE PUSH1 0x3 DUP4 PUSH2 0x3F3B JUMP JUMPDEST SWAP2 POP PUSH2 0x57C9 DUP3 PUSH2 0x5788 JUMP JUMPDEST PUSH1 0x20 DUP3 ADD SWAP1 POP SWAP2 SWAP1 POP JUMP JUMPDEST PUSH1 0x0 PUSH1 0x20 DUP3 ADD SWAP1 POP DUP2 DUP2 SUB PUSH1 0x0 DUP4 ADD MSTORE PUSH2 0x57ED DUP2 PUSH2 0x57B1 JUMP JUMPDEST SWAP1 POP SWAP2 SWAP1 POP JUMP JUMPDEST PUSH32 0x464E480000000000000000000000000000000000000000000000000000000000 PUSH1 0x0 DUP3 ADD MSTORE POP JUMP JUMPDEST PUSH1 0x0 PUSH2 0x582A PUSH1 0x3 DUP4 PUSH2 0x3F3B JUMP JUMPDEST SWAP2 POP PUSH2 0x5835 DUP3 PUSH2 0x57F4 JUMP JUMPDEST PUSH1 0x20 DUP3 ADD SWAP1 POP SWAP2 SWAP1 POP JUMP JUMPDEST PUSH1 0x0 PUSH1 0x20 DUP3 ADD SWAP1 POP DUP2 DUP2 SUB PUSH1 0x0 DUP4 ADD MSTORE PUSH2 0x5859 DUP2 PUSH2 0x581D JUMP JUMPDEST SWAP1 POP SWAP2 SWAP1 POP JUMP JUMPDEST PUSH1 0x0 PUSH2 0x586B DUP3 PUSH2 0x42B5 JUMP JUMPDEST SWAP2 POP PUSH1 0xFF DUP3 SUB PUSH2 0x587E JUMPI PUSH2 0x587D PUSH2 0x50E9 JUMP JUMPDEST JUMPDEST PUSH1 0x1 DUP3 ADD SWAP1 POP SWAP2 SWAP1 POP JUMP JUMPDEST PUSH1 0x0 PUSH2 0x58A4 PUSH2 0x589F PUSH2 0x589A DUP5 PUSH2 0x42B5 JUMP JUMPDEST PUSH2 0x51E4 JUMP JUMPDEST PUSH2 0x3FC0 JUMP JUMPDEST SWAP1 POP SWAP2 SWAP1 POP JUMP JUMPDEST PUSH2 0x58B4 DUP2 PUSH2 0x5889 JUMP JUMPDEST DUP3 MSTORE POP POP JUMP JUMPDEST PUSH1 0x0 PUSH1 0x40 DUP3 ADD SWAP1 POP PUSH2 0x58CF PUSH1 0x0 DUP4 ADD DUP6 PUSH2 0x58AB JUMP JUMPDEST DUP2 DUP2 SUB PUSH1 0x20 DUP4 ADD MSTORE PUSH2 0x58E1 DUP2 DUP5 PUSH2 0x3F87 JUMP JUMPDEST SWAP1 POP SWAP4 SWAP3 POP POP POP JUMP JUMPDEST PUSH32 0x4641480000000000000000000000000000000000000000000000000000000000 PUSH1 0x0 DUP3 ADD MSTORE POP JUMP JUMPDEST PUSH1 0x0 PUSH2 0x5920 PUSH1 0x3 DUP4 PUSH2 0x3F3B JUMP JUMPDEST SWAP2 POP PUSH2 0x592B DUP3 PUSH2 0x58EA JUMP JUMPDEST PUSH1 0x20 DUP3 ADD SWAP1 POP SWAP2 SWAP1 POP JUMP JUMPDEST PUSH1 0x0 PUSH1 0x20 DUP3 ADD SWAP1 POP DUP2 DUP2 SUB PUSH1 0x0 DUP4 ADD MSTORE PUSH2 0x594F DUP2 PUSH2 0x5913 JUMP JUMPDEST SWAP1 POP SWAP2 SWAP1 POP JUMP JUMPDEST PUSH32 0x4E42570000000000000000000000000000000000000000000000000000000000 PUSH1 0x0 DUP3 ADD MSTORE POP JUMP JUMPDEST PUSH1 0x0 PUSH2 0x598C PUSH1 0x3 DUP4 PUSH2 0x3F3B JUMP JUMPDEST SWAP2 POP PUSH2 0x5997 DUP3 PUSH2 0x5956 JUMP JUMPDEST PUSH1 0x20 DUP3 ADD SWAP1 POP SWAP2 SWAP1 POP JUMP JUMPDEST PUSH1 0x0 PUSH1 0x20 DUP3 ADD SWAP1 POP DUP2 DUP2 SUB PUSH1 0x0 DUP4 ADD MSTORE PUSH2 0x59BB DUP2 PUSH2 0x597F JUMP JUMPDEST SWAP1 POP SWAP2 SWAP1 POP JUMP JUMPDEST PUSH1 0x0 PUSH2 0x59CD DUP3 PUSH2 0x3FC0 JUMP JUMPDEST SWAP2 POP PUSH2 0x59D8 DUP4 PUSH2 0x3FC0 JUMP JUMPDEST SWAP3 POP DUP3 DUP3 MUL PUSH2 0x59E6 DUP2 PUSH2 0x3FC0 JUMP JUMPDEST SWAP2 POP DUP3 DUP3 DIV DUP5 EQ DUP4 ISZERO OR PUSH2 0x59FD JUMPI PUSH2 0x59FC PUSH2 0x50E9 JUMP JUMPDEST JUMPDEST POP SWAP3 SWAP2 POP POP JUMP JUMPDEST PUSH32 0x4E487B7100000000000000000000000000000000000000000000000000000000 PUSH1 0x0 MSTORE PUSH1 0x12 PUSH1 0x4 MSTORE PUSH1 0x24 PUSH1 0x0 REVERT JUMPDEST PUSH1 0x0 PUSH2 0x5A3E DUP3 PUSH2 0x3FC0 JUMP JUMPDEST SWAP2 POP PUSH2 0x5A49 DUP4 PUSH2 0x3FC0 JUMP JUMPDEST SWAP3 POP DUP3 PUSH2 0x5A59 JUMPI PUSH2 0x5A58 PUSH2 0x5A04 JUMP JUMPDEST JUMPDEST DUP3 DUP3 DIV SWAP1 POP SWAP3 SWAP2 POP POP JUMP JUMPDEST PUSH1 0x0 DUP2 SWAP1 POP SWAP3 SWAP2 POP POP JUMP JUMPDEST POP JUMP JUMPDEST PUSH1 0x0 PUSH2 0x5A7F PUSH1 0x0 DUP4 PUSH2 0x5A64 JUMP JUMPDEST SWAP2 POP PUSH2 0x5A8A DUP3 PUSH2 0x5A6F JUMP JUMPDEST PUSH1 0x0 DUP3 ADD SWAP1 POP SWAP2 SWAP1 POP JUMP JUMPDEST PUSH1 0x0 PUSH2 0x5AA0 DUP3 PUSH2 0x5A72 JUMP JUMPDEST SWAP2 POP DUP2 SWAP1 POP SWAP2 SWAP1 POP JUMP JUMPDEST PUSH32 0x5446000000000000000000000000000000000000000000000000000000000000 PUSH1 0x0 DUP3 ADD MSTORE POP JUMP JUMPDEST PUSH1 0x0 PUSH2 0x5AE0 PUSH1 0x2 DUP4 PUSH2 0x3F3B JUMP JUMPDEST SWAP2 POP PUSH2 0x5AEB DUP3 PUSH2 0x5AAA JUMP JUMPDEST PUSH1 0x20 DUP3 ADD SWAP1 POP SWAP2 SWAP1 POP JUMP JUMPDEST PUSH1 0x0 PUSH1 0x20 DUP3 ADD SWAP1 POP DUP2 DUP2 SUB PUSH1 0x0 DUP4 ADD MSTORE PUSH2 0x5B0F DUP2 PUSH2 0x5AD3 JUMP JUMPDEST SWAP1 POP SWAP2 SWAP1 POP JUMP JUMPDEST PUSH1 0x0 PUSH1 0x40 DUP3 ADD SWAP1 POP PUSH2 0x5B2B PUSH1 0x0 DUP4 ADD DUP6 PUSH2 0x3F21 JUMP JUMPDEST PUSH2 0x5B38 PUSH1 0x20 DUP4 ADD DUP5 PUSH2 0x3FCA JUMP JUMPDEST SWAP4 SWAP3 POP POP POP JUMP JUMPDEST PUSH32 0x4A4E430000000000000000000000000000000000000000000000000000000000 PUSH1 0x0 DUP3 ADD MSTORE POP JUMP JUMPDEST PUSH1 0x0 PUSH2 0x5B75 PUSH1 0x3 DUP4 PUSH2 0x3F3B JUMP JUMPDEST SWAP2 POP PUSH2 0x5B80 DUP3 PUSH2 0x5B3F JUMP JUMPDEST PUSH1 0x20 DUP3 ADD SWAP1 POP SWAP2 SWAP1 POP JUMP JUMPDEST PUSH1 0x0 PUSH1 0x20 DUP3 ADD SWAP1 POP DUP2 DUP2 SUB PUSH1 0x0 DUP4 ADD MSTORE PUSH2 0x5BA4 DUP2 PUSH2 0x5B68 JUMP JUMPDEST SWAP1 POP SWAP2 SWAP1 POP JUMP JUMPDEST PUSH32 0x4E46450000000000000000000000000000000000000000000000000000000000 PUSH1 0x0 DUP3 ADD MSTORE POP JUMP JUMPDEST PUSH1 0x0 PUSH2 0x5BE1 PUSH1 0x3 DUP4 PUSH2 0x3F3B JUMP JUMPDEST SWAP2 POP PUSH2 0x5BEC DUP3 PUSH2 0x5BAB JUMP JUMPDEST PUSH1 0x20 DUP3 ADD SWAP1 POP SWAP2 SWAP1 POP JUMP JUMPDEST PUSH1 0x0 PUSH1 0x20 DUP3 ADD SWAP1 POP DUP2 DUP2 SUB PUSH1 0x0 DUP4 ADD MSTORE PUSH2 0x5C10 DUP2 PUSH2 0x5BD4 JUMP JUMPDEST SWAP1 POP SWAP2 SWAP1 POP JUMP JUMPDEST PUSH32 0x4946000000000000000000000000000000000000000000000000000000000000 PUSH1 0x0 DUP3 ADD MSTORE POP JUMP JUMPDEST PUSH1 0x0 PUSH2 0x5C4D PUSH1 0x2 DUP4 PUSH2 0x3F3B JUMP JUMPDEST SWAP2 POP PUSH2 0x5C58 DUP3 PUSH2 0x5C17 JUMP JUMPDEST PUSH1 0x20 DUP3 ADD SWAP1 POP SWAP2 SWAP1 POP JUMP JUMPDEST PUSH1 0x0 PUSH1 0x20 DUP3 ADD SWAP1 POP DUP2 DUP2 SUB PUSH1 0x0 DUP4 ADD MSTORE PUSH2 0x5C7C DUP2 PUSH2 0x5C40 JUMP JUMPDEST SWAP1 POP SWAP2 SWAP1 POP JUMP JUMPDEST PUSH1 0x0 PUSH2 0x5C8E DUP3 PUSH2 0x3FC0 JUMP JUMPDEST SWAP2 POP PUSH2 0x5C99 DUP4 PUSH2 0x3FC0 JUMP JUMPDEST SWAP3 POP DUP3 DUP3 SUB SWAP1 POP DUP2 DUP2 GT ISZERO PUSH2 0x5CB1 JUMPI PUSH2 0x5CB0 PUSH2 0x50E9 JUMP JUMPDEST JUMPDEST SWAP3 SWAP2 POP POP JUMP JUMPDEST PUSH32 0x49412E0000000000000000000000000000000000000000000000000000000000 PUSH1 0x0 DUP3 ADD MSTORE POP JUMP JUMPDEST PUSH1 0x0 PUSH2 0x5CED PUSH1 0x3 DUP4 PUSH2 0x3F3B JUMP JUMPDEST SWAP2 POP PUSH2 0x5CF8 DUP3 PUSH2 0x5CB7 JUMP JUMPDEST PUSH1 0x20 DUP3 ADD SWAP1 POP SWAP2 SWAP1 POP JUMP JUMPDEST PUSH1 0x0 PUSH1 0x20 DUP3 ADD SWAP1 POP DUP2 DUP2 SUB PUSH1 0x0 DUP4 ADD MSTORE PUSH2 0x5D1C DUP2 PUSH2 0x5CE0 JUMP JUMPDEST SWAP1 POP SWAP2 SWAP1 POP JUMP JUMPDEST PUSH32 0x5948410000000000000000000000000000000000000000000000000000000000 PUSH1 0x0 DUP3 ADD MSTORE POP JUMP JUMPDEST PUSH1 0x0 PUSH2 0x5D59 PUSH1 0x3 DUP4 PUSH2 0x3F3B JUMP JUMPDEST SWAP2 POP PUSH2 0x5D64 DUP3 PUSH2 0x5D23 JUMP JUMPDEST PUSH1 0x20 DUP3 ADD SWAP1 POP SWAP2 SWAP1 POP JUMP JUMPDEST PUSH1 0x0 PUSH1 0x20 DUP3 ADD SWAP1 POP DUP2 DUP2 SUB PUSH1 0x0 DUP4 ADD MSTORE PUSH2 0x5D88 DUP2 PUSH2 0x5D4C JUMP JUMPDEST SWAP1 POP SWAP2 SWAP1 POP JUMP JUMPDEST PUSH1 0x0 PUSH1 0x60 DUP3 ADD SWAP1 POP PUSH2 0x5DA4 PUSH1 0x0 DUP4 ADD DUP7 PUSH2 0x3FCA JUMP JUMPDEST PUSH2 0x5DB1 PUSH1 0x20 DUP4 ADD DUP6 PUSH2 0x3F21 JUMP JUMPDEST PUSH2 0x5DBE PUSH1 0x40 DUP4 ADD DUP5 PUSH2 0x3F21 JUMP JUMPDEST SWAP5 SWAP4 POP POP POP POP JUMP INVALID LOG2 PUSH5 0x6970667358 0x22 SLT KECCAK256 SWAP16 0xA5 MSTORE8 PUSH1 0xD0 SGT DUP15 0xB6 DUP5 0xDE REVERT SIGNEXTEND SELFDESTRUCT 0xDD SWAP8 0x25 0xB7 0xE2 ADDMOD 0xB6 0xE6 ADDMOD 0xDE PC MCOPY 0xCA 0xA7 0x4B GASPRICE 0xD5 0x1F JUMPI PUSH5 0x736F6C6343 STOP ADDMOD XOR STOP CALLER "},"gasEstimates":{"creation":{"codeDepositCost":"4812000","executionCost":"29933","totalCost":"4841933"},"external":{"allFreelancerAddresses(uint256)":"5000","allJobs()":"infinite","applyForJob(uint256)":"infinite","completeJob(uint256,address)":"infinite","createJob(string,string,uint256)":"infinite","depositFunds(uint256)":"infinite","employers(address)":"infinite","freelancers(address)":"infinite","getAllFreelancers()":"infinite","getEmployerByAddress(address)":"infinite","getEmployerEscrow(address,uint256)":"infinite","getFreelancerByAddress(address)":"infinite","getJobByID(uint256)":"infinite","hireFreelancer(uint256,address)":"10121","owner()":"2600","registerEmployer(string,string,string,string)":"infinite","registerFreelancer(string,string,string,string,string,string[],uint256)":"infinite","releaseEscrow(uint256,address)":"infinite","roles(address)":"2956","totalCompletedJobs()":"2497","totalEmployers()":"2519","totalFreelancers()":"2562","totalJobs()":"2633","withdrawEarnings()":"infinite"}},"methodIdentifiers":{"allFreelancerAddresses(uint256)":"c27a9dd4","allJobs()":"c8d1b6aa","applyForJob(uint256)":"e0c94ae5","completeJob(uint256,address)":"6a6b67d1","createJob(string,string,uint256)":"73a06f42","depositFunds(uint256)":"3b76594d","employers(address)":"0be435bd","freelancers(address)":"21bd6693","getAllFreelancers()":"359b248c","getEmployerByAddress(address)":"7a787125","getEmployerEscrow(address,uint256)":"dfac8ce5","getFreelancerByAddress(address)":"1c7af7a0","getJobByID(uint256)":"371ae9f4","hireFreelancer(uint256,address)":"b0f26f18","owner()":"8da5cb5b","registerEmployer(string,string,string,string)":"0e553442","registerFreelancer(string,string,string,string,string,string[],uint256)":"58d7f895","releaseEscrow(uint256,address)":"c6cb3bbe","roles(address)":"99374642","totalCompletedJobs()":"1033397b","totalEmployers()":"1906b4ce","totalFreelancers()":"5e586eb1","totalJobs()":"1ace87b3","withdrawEarnings()":"b73c6ce9"}},"storageLayout":{"storage":[{"astId":612,"contract":"contracts/Freelancer.sol:Dfreelancer","label":"owner","offset":0,"slot":"0","type":"t_address"},{"astId":614,"contract":"contracts/Freelancer.sol:Dfreelancer","label":"totalJobs","offset":20,"slot":"0","type":"t_uint8"},{"astId":616,"contract":"contracts/Freelancer.sol:Dfreelancer","label":"totalFreelancers","offset":0,"slot":"1","type":"t_uint256"},{"astId":618,"contract":"contracts/Freelancer.sol:Dfreelancer","label":"totalEmployers","offset":0,"slot":"2","type":"t_uint256"},{"astId":620,"contract":"contracts/Freelancer.sol:Dfreelancer","label":"totalCompletedJobs","offset":0,"slot":"3","type":"t_uint256"},{"astId":623,"contract":"contracts/Freelancer.sol:Dfreelancer","label":"allFreelancerAddresses","offset":0,"slot":"4","type":"t_array(t_address)dyn_storage"},{"astId":689,"contract":"contracts/Freelancer.sol:Dfreelancer","label":"jobs","offset":0,"slot":"5","type":"t_mapping(t_uint256,t_struct(Job)641_storage)"},{"astId":694,"contract":"contracts/Freelancer.sol:Dfreelancer","label":"freelancers","offset":0,"slot":"6","type":"t_mapping(t_address,t_struct(Freelancer)667_storage)"},{"astId":699,"contract":"contracts/Freelancer.sol:Dfreelancer","label":"employers","offset":0,"slot":"7","type":"t_mapping(t_address,t_struct(Employer)684_storage)"},{"astId":705,"contract":"contracts/Freelancer.sol:Dfreelancer","label":"escrowFunds","offset":0,"slot":"8","type":"t_mapping(t_address,t_mapping(t_uint256,t_uint256))"},{"astId":709,"contract":"contracts/Freelancer.sol:Dfreelancer","label":"roles","offset":0,"slot":"9","type":"t_mapping(t_address,t_uint8)"}],"types":{"t_address":{"encoding":"inplace","label":"address","numberOfBytes":"20"},"t_array(t_address)dyn_storage":{"base":"t_address","encoding":"dynamic_array","label":"address[]","numberOfBytes":"32"},"t_array(t_string_storage)dyn_storage":{"base":"t_string_storage","encoding":"dynamic_array","label":"string[]","numberOfBytes":"32"},"t_bool":{"encoding":"inplace","label":"bool","numberOfBytes":"1"},"t_mapping(t_address,t_mapping(t_uint256,t_uint256))":{"encoding":"mapping","key":"t_address","label":"mapping(address => mapping(uint256 => uint256))","numberOfBytes":"32","value":"t_mapping(t_uint256,t_uint256)"},"t_mapping(t_address,t_struct(Employer)684_storage)":{"encoding":"mapping","key":"t_address","label":"mapping(address => struct Djob.Employer)","numberOfBytes":"32","value":"t_struct(Employer)684_storage"},"t_mapping(t_address,t_struct(Freelancer)667_storage)":{"encoding":"mapping","key":"t_address","label":"mapping(address => struct Djob.Freelancer)","numberOfBytes":"32","value":"t_struct(Freelancer)667_storage"},"t_mapping(t_address,t_uint8)":{"encoding":"mapping","key":"t_address","label":"mapping(address => uint8)","numberOfBytes":"32","value":"t_uint8"},"t_mapping(t_uint256,t_struct(Job)641_storage)":{"encoding":"mapping","key":"t_uint256","label":"mapping(uint256 => struct Djob.Job)","numberOfBytes":"32","value":"t_struct(Job)641_storage"},"t_mapping(t_uint256,t_uint256)":{"encoding":"mapping","key":"t_uint256","label":"mapping(uint256 => uint256)","numberOfBytes":"32","value":"t_uint256"},"t_string_storage":{"encoding":"bytes","label":"string","numberOfBytes":"32"},"t_struct(Employer)684_storage":{"encoding":"inplace","label":"struct Djob.Employer","members":[{"astId":669,"contract":"contracts/Freelancer.sol:Dfreelancer","label":"employerAddress","offset":0,"slot":"0","type":"t_address"},{"astId":671,"contract":"contracts/Freelancer.sol:Dfreelancer","label":"name","offset":0,"slot":"1","type":"t_string_storage"},{"astId":673,"contract":"contracts/Freelancer.sol:Dfreelancer","label":"industry","offset":0,"slot":"2","type":"t_string_storage"},{"astId":675,"contract":"contracts/Freelancer.sol:Dfreelancer","label":"balance","offset":0,"slot":"3","type":"t_uint256"},{"astId":677,"contract":"contracts/Freelancer.sol:Dfreelancer","label":"country","offset":0,"slot":"4","type":"t_string_storage"},{"astId":679,"contract":"contracts/Freelancer.sol:Dfreelancer","label":"image","offset":0,"slot":"5","type":"t_string_storage"},{"astId":681,"contract":"contracts/Freelancer.sol:Dfreelancer","label":"registered","offset":0,"slot":"6","type":"t_bool"},{"astId":683,"contract":"contracts/Freelancer.sol:Dfreelancer","label":"registration_date","offset":0,"slot":"7","type":"t_uint256"}],"numberOfBytes":"256"},"t_struct(Freelancer)667_storage":{"encoding":"inplace","label":"struct Djob.Freelancer","members":[{"astId":643,"contract":"contracts/Freelancer.sol:Dfreelancer","label":"freelancerAddress","offset":0,"slot":"0","type":"t_address"},{"astId":645,"contract":"contracts/Freelancer.sol:Dfreelancer","label":"name","offset":0,"slot":"1","type":"t_string_storage"},{"astId":647,"contract":"contracts/Freelancer.sol:Dfreelancer","label":"skills","offset":0,"slot":"2","type":"t_string_storage"},{"astId":649,"contract":"contracts/Freelancer.sol:Dfreelancer","label":"balance","offset":0,"slot":"3","type":"t_uint256"},{"astId":651,"contract":"contracts/Freelancer.sol:Dfreelancer","label":"country","offset":0,"slot":"4","type":"t_string_storage"},{"astId":653,"contract":"contracts/Freelancer.sol:Dfreelancer","label":"gigTitle","offset":0,"slot":"5","type":"t_string_storage"},{"astId":655,"contract":"contracts/Freelancer.sol:Dfreelancer","label":"gitDescription","offset":0,"slot":"6","type":"t_string_storage"},{"astId":658,"contract":"contracts/Freelancer.sol:Dfreelancer","label":"images","offset":0,"slot":"7","type":"t_array(t_string_storage)dyn_storage"},{"astId":660,"contract":"contracts/Freelancer.sol:Dfreelancer","label":"jobsCompleted","offset":0,"slot":"8","type":"t_uint256"},{"astId":662,"contract":"contracts/Freelancer.sol:Dfreelancer","label":"registered","offset":0,"slot":"9","type":"t_bool"},{"astId":664,"contract":"contracts/Freelancer.sol:Dfreelancer","label":"registration_date","offset":0,"slot":"10","type":"t_uint256"},{"astId":666,"contract":"contracts/Freelancer.sol:Dfreelancer","label":"starting_price","offset":0,"slot":"11","type":"t_uint256"}],"numberOfBytes":"384"},"t_struct(Job)641_storage":{"encoding":"inplace","label":"struct Djob.Job","members":[{"astId":625,"contract":"contracts/Freelancer.sol:Dfreelancer","label":"id","offset":0,"slot":"0","type":"t_uint8"},{"astId":627,"contract":"contracts/Freelancer.sol:Dfreelancer","label":"employer","offset":1,"slot":"0","type":"t_address"},{"astId":629,"contract":"contracts/Freelancer.sol:Dfreelancer","label":"title","offset":0,"slot":"1","type":"t_string_storage"},{"astId":631,"contract":"contracts/Freelancer.sol:Dfreelancer","label":"description","offset":0,"slot":"2","type":"t_string_storage"},{"astId":633,"contract":"contracts/Freelancer.sol:Dfreelancer","label":"budget","offset":0,"slot":"3","type":"t_uint256"},{"astId":635,"contract":"contracts/Freelancer.sol:Dfreelancer","label":"completed","offset":0,"slot":"4","type":"t_bool"},{"astId":638,"contract":"contracts/Freelancer.sol:Dfreelancer","label":"applicants","offset":0,"slot":"5","type":"t_array(t_address)dyn_storage"},{"astId":640,"contract":"contracts/Freelancer.sol:Dfreelancer","label":"hiredFreelancer","offset":0,"slot":"6","type":"t_address"}],"numberOfBytes":"224"},"t_uint256":{"encoding":"inplace","label":"uint256","numberOfBytes":"32"},"t_uint8":{"encoding":"inplace","label":"uint8","numberOfBytes":"1"}}},"userdoc":{"kind":"user","methods":{"allJobs()":{"notice":"retrieves all jobs"},"applyForJob(uint256)":{"notice":"job application"},"completeJob(uint256,address)":{"notice":"process job completion"},"createJob(string,string,uint256)":{"notice":"job creation and increment job count,"},"depositFunds(uint256)":{"notice":"process employer funds deposit for a specific job"},"getAllFreelancers()":{"notice":"return all freelancers"},"getEmployerByAddress(address)":{"notice":"retrieves employer by address"},"getEmployerEscrow(address,uint256)":{"notice":"retrieves employer escrow balance"},"getFreelancerByAddress(address)":{"notice":"retrieves freelancer by address"},"getJobByID(uint256)":{"notice":"retrieves job by ID"},"hireFreelancer(uint256,address)":{"notice":"hiring freelancer and check if freelancer is not already hired for the job"},"registerEmployer(string,string,string,string)":{"notice":"process employer registration"},"registerFreelancer(string,string,string,string,string,string[],uint256)":{"notice":"process freelancer registration"},"releaseEscrow(uint256,address)":{"notice":"release escrow fund after successful completion of the job"},"withdrawEarnings()":{"notice":"process funds withdrawal to the freelancer after successful completion of a job"}},"version":1}}}}