{"contracts/FreelancerLogic.sol":{"FreelancerLogic":{"abi":[{"inputs":[],"name":"AR_F","type":"error"},{"inputs":[],"name":"II_F","type":"error"},{"inputs":[],"name":"WR_F","type":"error"},{"anonymous":false,"inputs":[{"indexed":false,"internalType":"address","name":"freelancerAddress","type":"address"},{"indexed":false,"internalType":"string[]","name":"images","type":"string[]"},{"indexed":false,"internalType":"uint256","name":"amount","type":"uint256"}],"name":"FreelancerRegistered","type":"event"},{"anonymous":false,"inputs":[{"indexed":false,"internalType":"address","name":"freelancer","type":"address"},{"indexed":false,"internalType":"uint256","name":"amount","type":"uint256"}],"name":"WithdrawFund","type":"event"},{"inputs":[{"internalType":"uint256","name":"","type":"uint256"}],"name":"allFreelancerAddresses","outputs":[{"internalType":"address","name":"","type":"address"}],"stateMutability":"view","type":"function"},{"inputs":[{"internalType":"string","name":"_name","type":"string"},{"internalType":"string","name":"_skills","type":"string"},{"internalType":"string","name":"_country","type":"string"},{"internalType":"string","name":"_gigTitle","type":"string"},{"internalType":"string","name":"_gigDesc","type":"string"},{"internalType":"string[]","name":"_images","type":"string[]"},{"internalType":"uint256","name":"_starting_price","type":"uint256"}],"name":"editFreelancerProfile","outputs":[],"stateMutability":"nonpayable","type":"function"},{"inputs":[{"internalType":"address","name":"","type":"address"}],"name":"employers","outputs":[{"internalType":"address","name":"employerAddress","type":"address"},{"internalType":"string","name":"name","type":"string"},{"internalType":"string","name":"industry","type":"string"},{"internalType":"uint256","name":"balance","type":"uint256"},{"internalType":"string","name":"country","type":"string"},{"internalType":"string","name":"image","type":"string"},{"internalType":"bool","name":"registered","type":"bool"},{"internalType":"uint256","name":"registration_date","type":"uint256"}],"stateMutability":"view","type":"function"},{"inputs":[{"internalType":"address","name":"","type":"address"},{"internalType":"uint256","name":"","type":"uint256"}],"name":"escrowFunds","outputs":[{"internalType":"uint256","name":"","type":"uint256"}],"stateMutability":"view","type":"function"},{"inputs":[{"internalType":"address","name":"","type":"address"}],"name":"freelancers","outputs":[{"internalType":"address","name":"freelancerAddress","type":"address"},{"internalType":"string","name":"name","type":"string"},{"internalType":"string","name":"skills","type":"string"},{"internalType":"uint256","name":"balance","type":"uint256"},{"internalType":"string","name":"country","type":"string"},{"internalType":"string","name":"gigTitle","type":"string"},{"internalType":"string","name":"gitDescription","type":"string"},{"internalType":"uint256","name":"jobsCompleted","type":"uint256"},{"internalType":"bool","name":"registered","type":"bool"},{"internalType":"uint256","name":"registration_date","type":"uint256"},{"internalType":"uint256","name":"starting_price","type":"uint256"}],"stateMutability":"view","type":"function"},{"inputs":[{"internalType":"address","name":"_freelancer","type":"address"}],"name":"getFreelancerByAddress","outputs":[{"components":[{"internalType":"address","name":"freelancerAddress","type":"address"},{"internalType":"string","name":"name","type":"string"},{"internalType":"string","name":"skills","type":"string"},{"internalType":"uint256","name":"balance","type":"uint256"},{"internalType":"string","name":"country","type":"string"},{"internalType":"string","name":"gigTitle","type":"string"},{"internalType":"string","name":"gitDescription","type":"string"},{"internalType":"string[]","name":"images","type":"string[]"},{"internalType":"uint256","name":"jobsCompleted","type":"uint256"},{"internalType":"bool","name":"registered","type":"bool"},{"internalType":"uint256","name":"registration_date","type":"uint256"},{"internalType":"uint256","name":"starting_price","type":"uint256"}],"internalType":"struct Storage.Freelancer","name":"props","type":"tuple"}],"stateMutability":"view","type":"function"},{"inputs":[{"internalType":"uint256","name":"","type":"uint256"}],"name":"jobs","outputs":[{"internalType":"uint8","name":"id","type":"uint8"},{"internalType":"address","name":"employer","type":"address"},{"internalType":"string","name":"title","type":"string"},{"internalType":"string","name":"description","type":"string"},{"internalType":"uint256","name":"budget","type":"uint256"},{"internalType":"bool","name":"completed","type":"bool"},{"internalType":"address","name":"hiredFreelancer","type":"address"}],"stateMutability":"view","type":"function"},{"inputs":[],"name":"owner","outputs":[{"internalType":"address","name":"","type":"address"}],"stateMutability":"view","type":"function"},{"inputs":[{"internalType":"string","name":"_name","type":"string"},{"internalType":"string","name":"_skills","type":"string"},{"internalType":"string","name":"_country","type":"string"},{"internalType":"string","name":"_gigTitle","type":"string"},{"internalType":"string","name":"_gigDesc","type":"string"},{"internalType":"string[]","name":"_images","type":"string[]"},{"internalType":"uint256","name":"_starting_price","type":"uint256"}],"name":"registerFreelancer","outputs":[],"stateMutability":"nonpayable","type":"function"},{"inputs":[{"internalType":"address","name":"","type":"address"}],"name":"roles","outputs":[{"internalType":"uint8","name":"","type":"uint8"}],"stateMutability":"view","type":"function"},{"inputs":[],"name":"totalCompletedJobs","outputs":[{"internalType":"uint256","name":"","type":"uint256"}],"stateMutability":"view","type":"function"},{"inputs":[],"name":"totalEmployers","outputs":[{"internalType":"uint256","name":"","type":"uint256"}],"stateMutability":"view","type":"function"},{"inputs":[],"name":"totalFreelancers","outputs":[{"internalType":"uint256","name":"","type":"uint256"}],"stateMutability":"view","type":"function"},{"inputs":[],"name":"totalJobs","outputs":[{"internalType":"uint8","name":"","type":"uint8"}],"stateMutability":"view","type":"function"},{"inputs":[],"name":"withdrawEarnings","outputs":[],"stateMutability":"nonpayable","type":"function"}],"devdoc":{"kind":"dev","methods":{},"version":1},"evm":{"bytecode":{"linkReferences":{},"object":"608060405234801561001057600080fd5b50612937806100206000396000f3fe608060405234801561001057600080fd5b50600436106100f55760003560e01c806358d7f895116100975780639937464211610066578063993746421461029f578063b73c6ce9146102cf578063c27a9dd4146102d9578063fcafae1114610309576100f5565b806358d7f8951461022b5780635e586eb1146102475780638da5cb5b1461026557806391ca168714610283576100f5565b80631906b4ce116100d35780631906b4ce146101855780631ace87b3146101a35780631c7af7a0146101c157806321bd6693146101f1576100f5565b80630be435bd146100fa5780631033397b14610131578063180aedf31461014f575b600080fd5b610114600480360381019061010f919061192d565b610339565b604051610128989796959493929190611a2d565b60405180910390f35b6101396105ce565b6040516101469190611ac7565b60405180910390f35b61016960048036038101906101649190611b0e565b6105d4565b60405161017c9796959493929190611b57565b60405180910390f35b61018d610780565b60405161019a9190611ac7565b60405180910390f35b6101ab610786565b6040516101b89190611bd4565b60405180910390f35b6101db60048036038101906101d6919061192d565b610799565b6040516101e89190611e4f565b60405180910390f35b61020b6004803603810190610206919061192d565b610c3f565b6040516102229b9a99989796959493929190611e71565b60405180910390f35b6102456004803603810190610240919061215a565b610f6e565b005b61024f6112f8565b60405161025c9190611ac7565b60405180910390f35b61026d6112fe565b60405161027a91906122a4565b60405180910390f35b61029d6004803603810190610298919061215a565b611322565b005b6102b960048036038101906102b4919061192d565b6114bc565b6040516102c69190611bd4565b60405180910390f35b6102d76114dc565b005b6102f360048036038101906102ee9190611b0e565b611704565b60405161030091906122a4565b60405180910390f35b610323600480360381019061031e91906122bf565b611743565b6040516103309190611ac7565b60405180910390f35b60066020528060005260406000206000915090508060000160009054906101000a900473ffffffffffffffffffffffffffffffffffffffff16908060010180546103829061232e565b80601f01602080910402602001604051908101604052809291908181526020018280546103ae9061232e565b80156103fb5780601f106103d0576101008083540402835291602001916103fb565b820191906000526020600020905b8154815290600101906020018083116103de57829003601f168201915b5050505050908060020180546104109061232e565b80601f016020809104026020016040519081016040528092919081815260200182805461043c9061232e565b80156104895780601f1061045e57610100808354040283529160200191610489565b820191906000526020600020905b81548152906001019060200180831161046c57829003601f168201915b5050505050908060030154908060040180546104a49061232e565b80601f01602080910402602001604051908101604052809291908181526020018280546104d09061232e565b801561051d5780601f106104f25761010080835404028352916020019161051d565b820191906000526020600020905b81548152906001019060200180831161050057829003601f168201915b5050505050908060050180546105329061232e565b80601f016020809104026020016040519081016040528092919081815260200182805461055e9061232e565b80156105ab5780601f10610580576101008083540402835291602001916105ab565b820191906000526020600020905b81548152906001019060200180831161058e57829003601f168201915b5050505050908060060160009054906101000a900460ff16908060070154905088565b60035481565b60046020528060005260406000206000915090508060000160009054906101000a900460ff16908060000160019054906101000a900473ffffffffffffffffffffffffffffffffffffffff16908060010180546106309061232e565b80601f016020809104026020016040519081016040528092919081815260200182805461065c9061232e565b80156106a95780601f1061067e576101008083540402835291602001916106a9565b820191906000526020600020905b81548152906001019060200180831161068c57829003601f168201915b5050505050908060020180546106be9061232e565b80601f01602080910402602001604051908101604052809291908181526020018280546106ea9061232e565b80156107375780601f1061070c57610100808354040283529160200191610737565b820191906000526020600020905b81548152906001019060200180831161071a57829003601f168201915b5050505050908060030154908060040160009054906101000a900460ff16908060060160009054906101000a900473ffffffffffffffffffffffffffffffffffffffff16905087565b60025481565b600060149054906101000a900460ff1681565b6107a1611768565b600560008373ffffffffffffffffffffffffffffffffffffffff1673ffffffffffffffffffffffffffffffffffffffff168152602001908152602001600020604051806101800160405290816000820160009054906101000a900473ffffffffffffffffffffffffffffffffffffffff1673ffffffffffffffffffffffffffffffffffffffff1673ffffffffffffffffffffffffffffffffffffffff1681526020016001820180546108529061232e565b80601f016020809104026020016040519081016040528092919081815260200182805461087e9061232e565b80156108cb5780601f106108a0576101008083540402835291602001916108cb565b820191906000526020600020905b8154815290600101906020018083116108ae57829003601f168201915b505050505081526020016002820180546108e49061232e565b80601f01602080910402602001604051908101604052809291908181526020018280546109109061232e565b801561095d5780601f106109325761010080835404028352916020019161095d565b820191906000526020600020905b81548152906001019060200180831161094057829003601f168201915b50505050508152602001600382015481526020016004820180546109809061232e565b80601f01602080910402602001604051908101604052809291908181526020018280546109ac9061232e565b80156109f95780601f106109ce576101008083540402835291602001916109f9565b820191906000526020600020905b8154815290600101906020018083116109dc57829003601f168201915b50505050508152602001600582018054610a129061232e565b80601f0160208091040260200160405190810160405280929190818152602001828054610a3e9061232e565b8015610a8b5780601f10610a6057610100808354040283529160200191610a8b565b820191906000526020600020905b815481529060010190602001808311610a6e57829003601f168201915b50505050508152602001600682018054610aa49061232e565b80601f0160208091040260200160405190810160405280929190818152602001828054610ad09061232e565b8015610b1d5780601f10610af257610100808354040283529160200191610b1d565b820191906000526020600020905b815481529060010190602001808311610b0057829003601f168201915b5050505050815260200160078201805480602002602001604051908101604052809291908181526020016000905b82821015610bf7578382906000526020600020018054610b6a9061232e565b80601f0160208091040260200160405190810160405280929190818152602001828054610b969061232e565b8015610be35780601f10610bb857610100808354040283529160200191610be3565b820191906000526020600020905b815481529060010190602001808311610bc657829003601f168201915b505050505081526020019060010190610b4b565b505050508152602001600882015481526020016009820160009054906101000a900460ff16151515158152602001600a8201548152602001600b820154815250509050919050565b60056020528060005260406000206000915090508060000160009054906101000a900473ffffffffffffffffffffffffffffffffffffffff1690806001018054610c889061232e565b80601f0160208091040260200160405190810160405280929190818152602001828054610cb49061232e565b8015610d015780601f10610cd657610100808354040283529160200191610d01565b820191906000526020600020905b815481529060010190602001808311610ce457829003601f168201915b505050505090806002018054610d169061232e565b80601f0160208091040260200160405190810160405280929190818152602001828054610d429061232e565b8015610d8f5780601f10610d6457610100808354040283529160200191610d8f565b820191906000526020600020905b815481529060010190602001808311610d7257829003601f168201915b505050505090806003015490806004018054610daa9061232e565b80601f0160208091040260200160405190810160405280929190818152602001828054610dd69061232e565b8015610e235780601f10610df857610100808354040283529160200191610e23565b820191906000526020600020905b815481529060010190602001808311610e0657829003601f168201915b505050505090806005018054610e389061232e565b80601f0160208091040260200160405190810160405280929190818152602001828054610e649061232e565b8015610eb15780601f10610e8657610100808354040283529160200191610eb1565b820191906000526020600020905b815481529060010190602001808311610e9457829003601f168201915b505050505090806006018054610ec69061232e565b80601f0160208091040260200160405190810160405280929190818152602001828054610ef29061232e565b8015610f3f5780601f10610f1457610100808354040283529160200191610f3f565b820191906000526020600020905b815481529060010190602001808311610f2257829003601f168201915b5050505050908060080154908060090160009054906101000a900460ff169080600a01549080600b015490508b565b6000600860003373ffffffffffffffffffffffffffffffffffffffff1673ffffffffffffffffffffffffffffffffffffffff16815260200190815260200160002060009054906101000a900460ff1660ff1614610ff7576040517f0af79ad300000000000000000000000000000000000000000000000000000000815260040160405180910390fd5b600087511161100557600080fd5b600086511161101357600080fd5b600160008154809291906110269061238e565b91905055506002600860003373ffffffffffffffffffffffffffffffffffffffff1673ffffffffffffffffffffffffffffffffffffffff16815260200190815260200160002060006101000a81548160ff021916908360ff1602179055506040518061018001604052803373ffffffffffffffffffffffffffffffffffffffff168152602001888152602001878152602001600081526020018681526020018581526020018481526020018381526020016000815260200160011515815260200142815260200182815250600560003373ffffffffffffffffffffffffffffffffffffffff1673ffffffffffffffffffffffffffffffffffffffff16815260200190815260200160002060008201518160000160006101000a81548173ffffffffffffffffffffffffffffffffffffffff021916908373ffffffffffffffffffffffffffffffffffffffff160217905550602082015181600101908161118c9190612582565b5060408201518160020190816111a29190612582565b506060820151816003015560808201518160040190816111c29190612582565b5060a08201518160050190816111d89190612582565b5060c08201518160060190816111ee9190612582565b5060e082015181600701908051906020019061120b9291906117e1565b5061010082015181600801556101208201518160090160006101000a81548160ff02191690831515021790555061014082015181600a015561016082015181600b01559050506009339080600181540180825580915050600190039060005260206000200160009091909190916101000a81548173ffffffffffffffffffffffffffffffffffffffff021916908373ffffffffffffffffffffffffffffffffffffffff1602179055507f21bef455eb0e77b12a579311ca8616d72216c8b628577eeda276ac16fe5b622e3383836040516112e7939291906126da565b60405180910390a150505050505050565b60015481565b60008054906101000a900473ffffffffffffffffffffffffffffffffffffffff1681565b6002600860003373ffffffffffffffffffffffffffffffffffffffff1673ffffffffffffffffffffffffffffffffffffffff16815260200190815260200160002060009054906101000a900460ff1660ff16146113ab576040517fc23cf1f400000000000000000000000000000000000000000000000000000000815260040160405180910390fd5b6000875114806113bc575060008651145b156113f3576040517fbd0febc100000000000000000000000000000000000000000000000000000000815260040160405180910390fd5b6000600560003373ffffffffffffffffffffffffffffffffffffffff1673ffffffffffffffffffffffffffffffffffffffff1681526020019081526020016000209050878160010190816114479190612582565b50868160020190816114599190612582565b508581600401908161146b9190612582565b508481600501908161147d9190612582565b508381600601908161148f9190612582565b50828160070190805190602001906114a89291906117e1565b508181600b01819055505050505050505050565b60086020528060005260406000206000915054906101000a900460ff1681565b6002600860003373ffffffffffffffffffffffffffffffffffffffff1673ffffffffffffffffffffffffffffffffffffffff16815260200190815260200160002060009054906101000a900460ff1660ff1614611565576040517fc23cf1f400000000000000000000000000000000000000000000000000000000815260040160405180910390fd5b6000600560003373ffffffffffffffffffffffffffffffffffffffff1673ffffffffffffffffffffffffffffffffffffffff168152602001908152602001600020905060008160030154116115ef576040517f08c379a00000000000000000000000000000000000000000000000000000000081526004016115e690612764565b60405180910390fd5b60006064605f83600301546116049190612784565b61160e91906127f5565b90506000826003018190555060003373ffffffffffffffffffffffffffffffffffffffff168260405161164090612857565b60006040518083038185875af1925050503d806000811461167d576040519150601f19603f3d011682016040523d82523d6000602084013e611682565b606091505b50509050806116c6576040517f08c379a00000000000000000000000000000000000000000000000000000000081526004016116bd906128b8565b60405180910390fd5b7f09ad672d4e7c4892da934d1051932ebe9ec4b6ec8c3f40d569176db3e93e5abe33836040516116f79291906128d8565b60405180910390a1505050565b6009818154811061171457600080fd5b906000526020600020016000915054906101000a900473ffffffffffffffffffffffffffffffffffffffff1681565b6007602052816000526040600020602052806000526040600020600091509150505481565b604051806101800160405280600073ffffffffffffffffffffffffffffffffffffffff168152602001606081526020016060815260200160008152602001606081526020016060815260200160608152602001606081526020016000815260200160001515815260200160008152602001600081525090565b828054828255906000526020600020908101928215611829579160200282015b828111156118285782518290816118189190612582565b5091602001919060010190611801565b5b509050611836919061183a565b5090565b5b8082111561185a5760008181611851919061185e565b5060010161183b565b5090565b50805461186a9061232e565b6000825580601f1061187c575061189b565b601f01602090049060005260206000209081019061189a919061189e565b5b50565b5b808211156118b757600081600090555060010161189f565b5090565b6000604051905090565b600080fd5b600080fd5b600073ffffffffffffffffffffffffffffffffffffffff82169050919050565b60006118fa826118cf565b9050919050565b61190a816118ef565b811461191557600080fd5b50565b60008135905061192781611901565b92915050565b600060208284031215611943576119426118c5565b5b600061195184828501611918565b91505092915050565b611963816118ef565b82525050565b600081519050919050565b600082825260208201905092915050565b60005b838110156119a3578082015181840152602081019050611988565b60008484015250505050565b6000601f19601f8301169050919050565b60006119cb82611969565b6119d58185611974565b93506119e5818560208601611985565b6119ee816119af565b840191505092915050565b6000819050919050565b611a0c816119f9565b82525050565b60008115159050919050565b611a2781611a12565b82525050565b600061010082019050611a43600083018b61195a565b8181036020830152611a55818a6119c0565b90508181036040830152611a6981896119c0565b9050611a786060830188611a03565b8181036080830152611a8a81876119c0565b905081810360a0830152611a9e81866119c0565b9050611aad60c0830185611a1e565b611aba60e0830184611a03565b9998505050505050505050565b6000602082019050611adc6000830184611a03565b92915050565b611aeb816119f9565b8114611af657600080fd5b50565b600081359050611b0881611ae2565b92915050565b600060208284031215611b2457611b236118c5565b5b6000611b3284828501611af9565b91505092915050565b600060ff82169050919050565b611b5181611b3b565b82525050565b600060e082019050611b6c600083018a611b48565b611b79602083018961195a565b8181036040830152611b8b81886119c0565b90508181036060830152611b9f81876119c0565b9050611bae6080830186611a03565b611bbb60a0830185611a1e565b611bc860c083018461195a565b98975050505050505050565b6000602082019050611be96000830184611b48565b92915050565b611bf8816118ef565b82525050565b600082825260208201905092915050565b6000611c1a82611969565b611c248185611bfe565b9350611c34818560208601611985565b611c3d816119af565b840191505092915050565b611c51816119f9565b82525050565b600081519050919050565b600082825260208201905092915050565b6000819050602082019050919050565b6000611c8f8383611c0f565b905092915050565b6000602082019050919050565b6000611caf82611c57565b611cb98185611c62565b935083602082028501611ccb85611c73565b8060005b85811015611d075784840389528151611ce88582611c83565b9450611cf383611c97565b925060208a01995050600181019050611ccf565b50829750879550505050505092915050565b611d2281611a12565b82525050565b600061018083016000830151611d416000860182611bef565b5060208301518482036020860152611d598282611c0f565b91505060408301518482036040860152611d738282611c0f565b9150506060830151611d886060860182611c48565b5060808301518482036080860152611da08282611c0f565b91505060a083015184820360a0860152611dba8282611c0f565b91505060c083015184820360c0860152611dd48282611c0f565b91505060e083015184820360e0860152611dee8282611ca4565b915050610100830151611e05610100860182611c48565b50610120830151611e1a610120860182611d19565b50610140830151611e2f610140860182611c48565b50610160830151611e44610160860182611c48565b508091505092915050565b60006020820190508181036000830152611e698184611d28565b905092915050565b600061016082019050611e87600083018e61195a565b8181036020830152611e99818d6119c0565b90508181036040830152611ead818c6119c0565b9050611ebc606083018b611a03565b8181036080830152611ece818a6119c0565b905081810360a0830152611ee281896119c0565b905081810360c0830152611ef681886119c0565b9050611f0560e0830187611a03565b611f13610100830186611a1e565b611f21610120830185611a03565b611f2f610140830184611a03565b9c9b505050505050505050505050565b600080fd5b600080fd5b7f4e487b7100000000000000000000000000000000000000000000000000000000600052604160045260246000fd5b611f81826119af565b810181811067ffffffffffffffff82111715611fa057611f9f611f49565b5b80604052505050565b6000611fb36118bb565b9050611fbf8282611f78565b919050565b600067ffffffffffffffff821115611fdf57611fde611f49565b5b611fe8826119af565b9050602081019050919050565b82818337600083830152505050565b600061201761201284611fc4565b611fa9565b90508281526020810184848401111561203357612032611f44565b5b61203e848285611ff5565b509392505050565b600082601f83011261205b5761205a611f3f565b5b813561206b848260208601612004565b91505092915050565b600067ffffffffffffffff82111561208f5761208e611f49565b5b602082029050602081019050919050565b600080fd5b60006120b86120b384612074565b611fa9565b905080838252602082019050602084028301858111156120db576120da6120a0565b5b835b8181101561212257803567ffffffffffffffff811115612100576120ff611f3f565b5b80860161210d8982612046565b855260208501945050506020810190506120dd565b5050509392505050565b600082601f83011261214157612140611f3f565b5b81356121518482602086016120a5565b91505092915050565b600080600080600080600060e0888a031215612179576121786118c5565b5b600088013567ffffffffffffffff811115612197576121966118ca565b5b6121a38a828b01612046565b975050602088013567ffffffffffffffff8111156121c4576121c36118ca565b5b6121d08a828b01612046565b965050604088013567ffffffffffffffff8111156121f1576121f06118ca565b5b6121fd8a828b01612046565b955050606088013567ffffffffffffffff81111561221e5761221d6118ca565b5b61222a8a828b01612046565b945050608088013567ffffffffffffffff81111561224b5761224a6118ca565b5b6122578a828b01612046565b93505060a088013567ffffffffffffffff811115612278576122776118ca565b5b6122848a828b0161212c565b92505060c06122958a828b01611af9565b91505092959891949750929550565b60006020820190506122b9600083018461195a565b92915050565b600080604083850312156122d6576122d56118c5565b5b60006122e485828601611918565b92505060206122f585828601611af9565b9150509250929050565b7f4e487b7100000000000000000000000000000000000000000000000000000000600052602260045260246000fd5b6000600282049050600182168061234657607f821691505b602082108103612359576123586122ff565b5b50919050565b7f4e487b7100000000000000000000000000000000000000000000000000000000600052601160045260246000fd5b6000612399826119f9565b91507fffffffffffffffffffffffffffffffffffffffffffffffffffffffffffffffff82036123cb576123ca61235f565b5b600182019050919050565b60008190508160005260206000209050919050565b60006020601f8301049050919050565b600082821b905092915050565b6000600883026124387fffffffffffffffffffffffffffffffffffffffffffffffffffffffffffffffff826123fb565b61244286836123fb565b95508019841693508086168417925050509392505050565b6000819050919050565b600061247f61247a612475846119f9565b61245a565b6119f9565b9050919050565b6000819050919050565b61249983612464565b6124ad6124a582612486565b848454612408565b825550505050565b600090565b6124c26124b5565b6124cd818484612490565b505050565b5b818110156124f1576124e66000826124ba565b6001810190506124d3565b5050565b601f82111561253657612507816123d6565b612510846123eb565b8101602085101561251f578190505b61253361252b856123eb565b8301826124d2565b50505b505050565b600082821c905092915050565b60006125596000198460080261253b565b1980831691505092915050565b60006125728383612548565b9150826002028217905092915050565b61258b82611969565b67ffffffffffffffff8111156125a4576125a3611f49565b5b6125ae825461232e565b6125b98282856124f5565b600060209050601f8311600181146125ec57600084156125da578287015190505b6125e48582612566565b86555061264c565b601f1984166125fa866123d6565b60005b82811015612622578489015182556001820191506020850194506020810190506125fd565b8683101561263f578489015161263b601f891682612548565b8355505b6001600288020188555050505b505050505050565b600082825260208201905092915050565b600061267082611c57565b61267a8185612654565b93508360208202850161268c85611c73565b8060005b858110156126c857848403895281516126a98582611c83565b94506126b483611c97565b925060208a01995050600181019050612690565b50829750879550505050505092915050565b60006060820190506126ef600083018661195a565b81810360208301526127018185612665565b90506127106040830184611a03565b949350505050565b7f4e42570000000000000000000000000000000000000000000000000000000000600082015250565b600061274e600383611974565b915061275982612718565b602082019050919050565b6000602082019050818103600083015261277d81612741565b9050919050565b600061278f826119f9565b915061279a836119f9565b92508282026127a8816119f9565b915082820484148315176127bf576127be61235f565b5b5092915050565b7f4e487b7100000000000000000000000000000000000000000000000000000000600052601260045260246000fd5b6000612800826119f9565b915061280b836119f9565b92508261281b5761281a6127c6565b5b828204905092915050565b600081905092915050565b50565b6000612841600083612826565b915061284c82612831565b600082019050919050565b600061286282612834565b9150819050919050565b7f5446000000000000000000000000000000000000000000000000000000000000600082015250565b60006128a2600283611974565b91506128ad8261286c565b602082019050919050565b600060208201905081810360008301526128d181612895565b9050919050565b60006040820190506128ed600083018561195a565b6128fa6020830184611a03565b939250505056fea26469706673582212209caad536a062669c17bc099c9432021144a6c3d2fdb430fd3b4e000757c8ff6d64736f6c63430008180033","opcodes":"PUSH1 0x80 PUSH1 0x40 MSTORE CALLVALUE DUP1 ISZERO PUSH2 0x10 JUMPI PUSH1 0x0 DUP1 REVERT JUMPDEST POP PUSH2 0x2937 DUP1 PUSH2 0x20 PUSH1 0x0 CODECOPY PUSH1 0x0 RETURN INVALID PUSH1 0x80 PUSH1 0x40 MSTORE CALLVALUE DUP1 ISZERO PUSH2 0x10 JUMPI PUSH1 0x0 DUP1 REVERT JUMPDEST POP PUSH1 0x4 CALLDATASIZE LT PUSH2 0xF5 JUMPI PUSH1 0x0 CALLDATALOAD PUSH1 0xE0 SHR DUP1 PUSH4 0x58D7F895 GT PUSH2 0x97 JUMPI DUP1 PUSH4 0x99374642 GT PUSH2 0x66 JUMPI DUP1 PUSH4 0x99374642 EQ PUSH2 0x29F JUMPI DUP1 PUSH4 0xB73C6CE9 EQ PUSH2 0x2CF JUMPI DUP1 PUSH4 0xC27A9DD4 EQ PUSH2 0x2D9 JUMPI DUP1 PUSH4 0xFCAFAE11 EQ PUSH2 0x309 JUMPI PUSH2 0xF5 JUMP JUMPDEST DUP1 PUSH4 0x58D7F895 EQ PUSH2 0x22B JUMPI DUP1 PUSH4 0x5E586EB1 EQ PUSH2 0x247 JUMPI DUP1 PUSH4 0x8DA5CB5B EQ PUSH2 0x265 JUMPI DUP1 PUSH4 0x91CA1687 EQ PUSH2 0x283 JUMPI PUSH2 0xF5 JUMP JUMPDEST DUP1 PUSH4 0x1906B4CE GT PUSH2 0xD3 JUMPI DUP1 PUSH4 0x1906B4CE EQ PUSH2 0x185 JUMPI DUP1 PUSH4 0x1ACE87B3 EQ PUSH2 0x1A3 JUMPI DUP1 PUSH4 0x1C7AF7A0 EQ PUSH2 0x1C1 JUMPI DUP1 PUSH4 0x21BD6693 EQ PUSH2 0x1F1 JUMPI PUSH2 0xF5 JUMP JUMPDEST DUP1 PUSH4 0xBE435BD EQ PUSH2 0xFA JUMPI DUP1 PUSH4 0x1033397B EQ PUSH2 0x131 JUMPI DUP1 PUSH4 0x180AEDF3 EQ PUSH2 0x14F JUMPI JUMPDEST PUSH1 0x0 DUP1 REVERT JUMPDEST PUSH2 0x114 PUSH1 0x4 DUP1 CALLDATASIZE SUB DUP2 ADD SWAP1 PUSH2 0x10F SWAP2 SWAP1 PUSH2 0x192D JUMP JUMPDEST PUSH2 0x339 JUMP JUMPDEST PUSH1 0x40 MLOAD PUSH2 0x128 SWAP9 SWAP8 SWAP7 SWAP6 SWAP5 SWAP4 SWAP3 SWAP2 SWAP1 PUSH2 0x1A2D JUMP JUMPDEST PUSH1 0x40 MLOAD DUP1 SWAP2 SUB SWAP1 RETURN JUMPDEST PUSH2 0x139 PUSH2 0x5CE JUMP JUMPDEST PUSH1 0x40 MLOAD PUSH2 0x146 SWAP2 SWAP1 PUSH2 0x1AC7 JUMP JUMPDEST PUSH1 0x40 MLOAD DUP1 SWAP2 SUB SWAP1 RETURN JUMPDEST PUSH2 0x169 PUSH1 0x4 DUP1 CALLDATASIZE SUB DUP2 ADD SWAP1 PUSH2 0x164 SWAP2 SWAP1 PUSH2 0x1B0E JUMP JUMPDEST PUSH2 0x5D4 JUMP JUMPDEST PUSH1 0x40 MLOAD PUSH2 0x17C SWAP8 SWAP7 SWAP6 SWAP5 SWAP4 SWAP3 SWAP2 SWAP1 PUSH2 0x1B57 JUMP JUMPDEST PUSH1 0x40 MLOAD DUP1 SWAP2 SUB SWAP1 RETURN JUMPDEST PUSH2 0x18D PUSH2 0x780 JUMP JUMPDEST PUSH1 0x40 MLOAD PUSH2 0x19A SWAP2 SWAP1 PUSH2 0x1AC7 JUMP JUMPDEST PUSH1 0x40 MLOAD DUP1 SWAP2 SUB SWAP1 RETURN JUMPDEST PUSH2 0x1AB PUSH2 0x786 JUMP JUMPDEST PUSH1 0x40 MLOAD PUSH2 0x1B8 SWAP2 SWAP1 PUSH2 0x1BD4 JUMP JUMPDEST PUSH1 0x40 MLOAD DUP1 SWAP2 SUB SWAP1 RETURN JUMPDEST PUSH2 0x1DB PUSH1 0x4 DUP1 CALLDATASIZE SUB DUP2 ADD SWAP1 PUSH2 0x1D6 SWAP2 SWAP1 PUSH2 0x192D JUMP JUMPDEST PUSH2 0x799 JUMP JUMPDEST PUSH1 0x40 MLOAD PUSH2 0x1E8 SWAP2 SWAP1 PUSH2 0x1E4F JUMP JUMPDEST PUSH1 0x40 MLOAD DUP1 SWAP2 SUB SWAP1 RETURN JUMPDEST PUSH2 0x20B PUSH1 0x4 DUP1 CALLDATASIZE SUB DUP2 ADD SWAP1 PUSH2 0x206 SWAP2 SWAP1 PUSH2 0x192D JUMP JUMPDEST PUSH2 0xC3F JUMP JUMPDEST PUSH1 0x40 MLOAD PUSH2 0x222 SWAP12 SWAP11 SWAP10 SWAP9 SWAP8 SWAP7 SWAP6 SWAP5 SWAP4 SWAP3 SWAP2 SWAP1 PUSH2 0x1E71 JUMP JUMPDEST PUSH1 0x40 MLOAD DUP1 SWAP2 SUB SWAP1 RETURN JUMPDEST PUSH2 0x245 PUSH1 0x4 DUP1 CALLDATASIZE SUB DUP2 ADD SWAP1 PUSH2 0x240 SWAP2 SWAP1 PUSH2 0x215A JUMP JUMPDEST PUSH2 0xF6E JUMP JUMPDEST STOP JUMPDEST PUSH2 0x24F PUSH2 0x12F8 JUMP JUMPDEST PUSH1 0x40 MLOAD PUSH2 0x25C SWAP2 SWAP1 PUSH2 0x1AC7 JUMP JUMPDEST PUSH1 0x40 MLOAD DUP1 SWAP2 SUB SWAP1 RETURN JUMPDEST PUSH2 0x26D PUSH2 0x12FE JUMP JUMPDEST PUSH1 0x40 MLOAD PUSH2 0x27A SWAP2 SWAP1 PUSH2 0x22A4 JUMP JUMPDEST PUSH1 0x40 MLOAD DUP1 SWAP2 SUB SWAP1 RETURN JUMPDEST PUSH2 0x29D PUSH1 0x4 DUP1 CALLDATASIZE SUB DUP2 ADD SWAP1 PUSH2 0x298 SWAP2 SWAP1 PUSH2 0x215A JUMP JUMPDEST PUSH2 0x1322 JUMP JUMPDEST STOP JUMPDEST PUSH2 0x2B9 PUSH1 0x4 DUP1 CALLDATASIZE SUB DUP2 ADD SWAP1 PUSH2 0x2B4 SWAP2 SWAP1 PUSH2 0x192D JUMP JUMPDEST PUSH2 0x14BC JUMP JUMPDEST PUSH1 0x40 MLOAD PUSH2 0x2C6 SWAP2 SWAP1 PUSH2 0x1BD4 JUMP JUMPDEST PUSH1 0x40 MLOAD DUP1 SWAP2 SUB SWAP1 RETURN JUMPDEST PUSH2 0x2D7 PUSH2 0x14DC JUMP JUMPDEST STOP JUMPDEST PUSH2 0x2F3 PUSH1 0x4 DUP1 CALLDATASIZE SUB DUP2 ADD SWAP1 PUSH2 0x2EE SWAP2 SWAP1 PUSH2 0x1B0E JUMP JUMPDEST PUSH2 0x1704 JUMP JUMPDEST PUSH1 0x40 MLOAD PUSH2 0x300 SWAP2 SWAP1 PUSH2 0x22A4 JUMP JUMPDEST PUSH1 0x40 MLOAD DUP1 SWAP2 SUB SWAP1 RETURN JUMPDEST PUSH2 0x323 PUSH1 0x4 DUP1 CALLDATASIZE SUB DUP2 ADD SWAP1 PUSH2 0x31E SWAP2 SWAP1 PUSH2 0x22BF JUMP JUMPDEST PUSH2 0x1743 JUMP JUMPDEST PUSH1 0x40 MLOAD PUSH2 0x330 SWAP2 SWAP1 PUSH2 0x1AC7 JUMP JUMPDEST PUSH1 0x40 MLOAD DUP1 SWAP2 SUB SWAP1 RETURN JUMPDEST PUSH1 0x6 PUSH1 0x20 MSTORE DUP1 PUSH1 0x0 MSTORE PUSH1 0x40 PUSH1 0x0 KECCAK256 PUSH1 0x0 SWAP2 POP SWAP1 POP DUP1 PUSH1 0x0 ADD PUSH1 0x0 SWAP1 SLOAD SWAP1 PUSH2 0x100 EXP SWAP1 DIV PUSH20 0xFFFFFFFFFFFFFFFFFFFFFFFFFFFFFFFFFFFFFFFF AND SWAP1 DUP1 PUSH1 0x1 ADD DUP1 SLOAD PUSH2 0x382 SWAP1 PUSH2 0x232E JUMP JUMPDEST DUP1 PUSH1 0x1F ADD PUSH1 0x20 DUP1 SWAP2 DIV MUL PUSH1 0x20 ADD PUSH1 0x40 MLOAD SWAP1 DUP2 ADD PUSH1 0x40 MSTORE DUP1 SWAP3 SWAP2 SWAP1 DUP2 DUP2 MSTORE PUSH1 0x20 ADD DUP3 DUP1 SLOAD PUSH2 0x3AE SWAP1 PUSH2 0x232E JUMP JUMPDEST DUP1 ISZERO PUSH2 0x3FB JUMPI DUP1 PUSH1 0x1F LT PUSH2 0x3D0 JUMPI PUSH2 0x100 DUP1 DUP4 SLOAD DIV MUL DUP4 MSTORE SWAP2 PUSH1 0x20 ADD SWAP2 PUSH2 0x3FB JUMP JUMPDEST DUP3 ADD SWAP2 SWAP1 PUSH1 0x0 MSTORE PUSH1 0x20 PUSH1 0x0 KECCAK256 SWAP1 JUMPDEST DUP2 SLOAD DUP2 MSTORE SWAP1 PUSH1 0x1 ADD SWAP1 PUSH1 0x20 ADD DUP1 DUP4 GT PUSH2 0x3DE JUMPI DUP3 SWAP1 SUB PUSH1 0x1F AND DUP3 ADD SWAP2 JUMPDEST POP POP POP POP POP SWAP1 DUP1 PUSH1 0x2 ADD DUP1 SLOAD PUSH2 0x410 SWAP1 PUSH2 0x232E JUMP JUMPDEST DUP1 PUSH1 0x1F ADD PUSH1 0x20 DUP1 SWAP2 DIV MUL PUSH1 0x20 ADD PUSH1 0x40 MLOAD SWAP1 DUP2 ADD PUSH1 0x40 MSTORE DUP1 SWAP3 SWAP2 SWAP1 DUP2 DUP2 MSTORE PUSH1 0x20 ADD DUP3 DUP1 SLOAD PUSH2 0x43C SWAP1 PUSH2 0x232E JUMP JUMPDEST DUP1 ISZERO PUSH2 0x489 JUMPI DUP1 PUSH1 0x1F LT PUSH2 0x45E JUMPI PUSH2 0x100 DUP1 DUP4 SLOAD DIV MUL DUP4 MSTORE SWAP2 PUSH1 0x20 ADD SWAP2 PUSH2 0x489 JUMP JUMPDEST DUP3 ADD SWAP2 SWAP1 PUSH1 0x0 MSTORE PUSH1 0x20 PUSH1 0x0 KECCAK256 SWAP1 JUMPDEST DUP2 SLOAD DUP2 MSTORE SWAP1 PUSH1 0x1 ADD SWAP1 PUSH1 0x20 ADD DUP1 DUP4 GT PUSH2 0x46C JUMPI DUP3 SWAP1 SUB PUSH1 0x1F AND DUP3 ADD SWAP2 JUMPDEST POP POP POP POP POP SWAP1 DUP1 PUSH1 0x3 ADD SLOAD SWAP1 DUP1 PUSH1 0x4 ADD DUP1 SLOAD PUSH2 0x4A4 SWAP1 PUSH2 0x232E JUMP JUMPDEST DUP1 PUSH1 0x1F ADD PUSH1 0x20 DUP1 SWAP2 DIV MUL PUSH1 0x20 ADD PUSH1 0x40 MLOAD SWAP1 DUP2 ADD PUSH1 0x40 MSTORE DUP1 SWAP3 SWAP2 SWAP1 DUP2 DUP2 MSTORE PUSH1 0x20 ADD DUP3 DUP1 SLOAD PUSH2 0x4D0 SWAP1 PUSH2 0x232E JUMP JUMPDEST DUP1 ISZERO PUSH2 0x51D JUMPI DUP1 PUSH1 0x1F LT PUSH2 0x4F2 JUMPI PUSH2 0x100 DUP1 DUP4 SLOAD DIV MUL DUP4 MSTORE SWAP2 PUSH1 0x20 ADD SWAP2 PUSH2 0x51D JUMP JUMPDEST DUP3 ADD SWAP2 SWAP1 PUSH1 0x0 MSTORE PUSH1 0x20 PUSH1 0x0 KECCAK256 SWAP1 JUMPDEST DUP2 SLOAD DUP2 MSTORE SWAP1 PUSH1 0x1 ADD SWAP1 PUSH1 0x20 ADD DUP1 DUP4 GT PUSH2 0x500 JUMPI DUP3 SWAP1 SUB PUSH1 0x1F AND DUP3 ADD SWAP2 JUMPDEST POP POP POP POP POP SWAP1 DUP1 PUSH1 0x5 ADD DUP1 SLOAD PUSH2 0x532 SWAP1 PUSH2 0x232E JUMP JUMPDEST DUP1 PUSH1 0x1F ADD PUSH1 0x20 DUP1 SWAP2 DIV MUL PUSH1 0x20 ADD PUSH1 0x40 MLOAD SWAP1 DUP2 ADD PUSH1 0x40 MSTORE DUP1 SWAP3 SWAP2 SWAP1 DUP2 DUP2 MSTORE PUSH1 0x20 ADD DUP3 DUP1 SLOAD PUSH2 0x55E SWAP1 PUSH2 0x232E JUMP JUMPDEST DUP1 ISZERO PUSH2 0x5AB JUMPI DUP1 PUSH1 0x1F LT PUSH2 0x580 JUMPI PUSH2 0x100 DUP1 DUP4 SLOAD DIV MUL DUP4 MSTORE SWAP2 PUSH1 0x20 ADD SWAP2 PUSH2 0x5AB JUMP JUMPDEST DUP3 ADD SWAP2 SWAP1 PUSH1 0x0 MSTORE PUSH1 0x20 PUSH1 0x0 KECCAK256 SWAP1 JUMPDEST DUP2 SLOAD DUP2 MSTORE SWAP1 PUSH1 0x1 ADD SWAP1 PUSH1 0x20 ADD DUP1 DUP4 GT PUSH2 0x58E JUMPI DUP3 SWAP1 SUB PUSH1 0x1F AND DUP3 ADD SWAP2 JUMPDEST POP POP POP POP POP SWAP1 DUP1 PUSH1 0x6 ADD PUSH1 0x0 SWAP1 SLOAD SWAP1 PUSH2 0x100 EXP SWAP1 DIV PUSH1 0xFF AND SWAP1 DUP1 PUSH1 0x7 ADD SLOAD SWAP1 POP DUP9 JUMP JUMPDEST PUSH1 0x3 SLOAD DUP2 JUMP JUMPDEST PUSH1 0x4 PUSH1 0x20 MSTORE DUP1 PUSH1 0x0 MSTORE PUSH1 0x40 PUSH1 0x0 KECCAK256 PUSH1 0x0 SWAP2 POP SWAP1 POP DUP1 PUSH1 0x0 ADD PUSH1 0x0 SWAP1 SLOAD SWAP1 PUSH2 0x100 EXP SWAP1 DIV PUSH1 0xFF AND SWAP1 DUP1 PUSH1 0x0 ADD PUSH1 0x1 SWAP1 SLOAD SWAP1 PUSH2 0x100 EXP SWAP1 DIV PUSH20 0xFFFFFFFFFFFFFFFFFFFFFFFFFFFFFFFFFFFFFFFF AND SWAP1 DUP1 PUSH1 0x1 ADD DUP1 SLOAD PUSH2 0x630 SWAP1 PUSH2 0x232E JUMP JUMPDEST DUP1 PUSH1 0x1F ADD PUSH1 0x20 DUP1 SWAP2 DIV MUL PUSH1 0x20 ADD PUSH1 0x40 MLOAD SWAP1 DUP2 ADD PUSH1 0x40 MSTORE DUP1 SWAP3 SWAP2 SWAP1 DUP2 DUP2 MSTORE PUSH1 0x20 ADD DUP3 DUP1 SLOAD PUSH2 0x65C SWAP1 PUSH2 0x232E JUMP JUMPDEST DUP1 ISZERO PUSH2 0x6A9 JUMPI DUP1 PUSH1 0x1F LT PUSH2 0x67E JUMPI PUSH2 0x100 DUP1 DUP4 SLOAD DIV MUL DUP4 MSTORE SWAP2 PUSH1 0x20 ADD SWAP2 PUSH2 0x6A9 JUMP JUMPDEST DUP3 ADD SWAP2 SWAP1 PUSH1 0x0 MSTORE PUSH1 0x20 PUSH1 0x0 KECCAK256 SWAP1 JUMPDEST DUP2 SLOAD DUP2 MSTORE SWAP1 PUSH1 0x1 ADD SWAP1 PUSH1 0x20 ADD DUP1 DUP4 GT PUSH2 0x68C JUMPI DUP3 SWAP1 SUB PUSH1 0x1F AND DUP3 ADD SWAP2 JUMPDEST POP POP POP POP POP SWAP1 DUP1 PUSH1 0x2 ADD DUP1 SLOAD PUSH2 0x6BE SWAP1 PUSH2 0x232E JUMP JUMPDEST DUP1 PUSH1 0x1F ADD PUSH1 0x20 DUP1 SWAP2 DIV MUL PUSH1 0x20 ADD PUSH1 0x40 MLOAD SWAP1 DUP2 ADD PUSH1 0x40 MSTORE DUP1 SWAP3 SWAP2 SWAP1 DUP2 DUP2 MSTORE PUSH1 0x20 ADD DUP3 DUP1 SLOAD PUSH2 0x6EA SWAP1 PUSH2 0x232E JUMP JUMPDEST DUP1 ISZERO PUSH2 0x737 JUMPI DUP1 PUSH1 0x1F LT PUSH2 0x70C JUMPI PUSH2 0x100 DUP1 DUP4 SLOAD DIV MUL DUP4 MSTORE SWAP2 PUSH1 0x20 ADD SWAP2 PUSH2 0x737 JUMP JUMPDEST DUP3 ADD SWAP2 SWAP1 PUSH1 0x0 MSTORE PUSH1 0x20 PUSH1 0x0 KECCAK256 SWAP1 JUMPDEST DUP2 SLOAD DUP2 MSTORE SWAP1 PUSH1 0x1 ADD SWAP1 PUSH1 0x20 ADD DUP1 DUP4 GT PUSH2 0x71A JUMPI DUP3 SWAP1 SUB PUSH1 0x1F AND DUP3 ADD SWAP2 JUMPDEST POP POP POP POP POP SWAP1 DUP1 PUSH1 0x3 ADD SLOAD SWAP1 DUP1 PUSH1 0x4 ADD PUSH1 0x0 SWAP1 SLOAD SWAP1 PUSH2 0x100 EXP SWAP1 DIV PUSH1 0xFF AND SWAP1 DUP1 PUSH1 0x6 ADD PUSH1 0x0 SWAP1 SLOAD SWAP1 PUSH2 0x100 EXP SWAP1 DIV PUSH20 0xFFFFFFFFFFFFFFFFFFFFFFFFFFFFFFFFFFFFFFFF AND SWAP1 POP DUP8 JUMP JUMPDEST PUSH1 0x2 SLOAD DUP2 JUMP JUMPDEST PUSH1 0x0 PUSH1 0x14 SWAP1 SLOAD SWAP1 PUSH2 0x100 EXP SWAP1 DIV PUSH1 0xFF AND DUP2 JUMP JUMPDEST PUSH2 0x7A1 PUSH2 0x1768 JUMP JUMPDEST PUSH1 0x5 PUSH1 0x0 DUP4 PUSH20 0xFFFFFFFFFFFFFFFFFFFFFFFFFFFFFFFFFFFFFFFF AND PUSH20 0xFFFFFFFFFFFFFFFFFFFFFFFFFFFFFFFFFFFFFFFF AND DUP2 MSTORE PUSH1 0x20 ADD SWAP1 DUP2 MSTORE PUSH1 0x20 ADD PUSH1 0x0 KECCAK256 PUSH1 0x40 MLOAD DUP1 PUSH2 0x180 ADD PUSH1 0x40 MSTORE SWAP1 DUP2 PUSH1 0x0 DUP3 ADD PUSH1 0x0 SWAP1 SLOAD SWAP1 PUSH2 0x100 EXP SWAP1 DIV PUSH20 0xFFFFFFFFFFFFFFFFFFFFFFFFFFFFFFFFFFFFFFFF AND PUSH20 0xFFFFFFFFFFFFFFFFFFFFFFFFFFFFFFFFFFFFFFFF AND PUSH20 0xFFFFFFFFFFFFFFFFFFFFFFFFFFFFFFFFFFFFFFFF AND DUP2 MSTORE PUSH1 0x20 ADD PUSH1 0x1 DUP3 ADD DUP1 SLOAD PUSH2 0x852 SWAP1 PUSH2 0x232E JUMP JUMPDEST DUP1 PUSH1 0x1F ADD PUSH1 0x20 DUP1 SWAP2 DIV MUL PUSH1 0x20 ADD PUSH1 0x40 MLOAD SWAP1 DUP2 ADD PUSH1 0x40 MSTORE DUP1 SWAP3 SWAP2 SWAP1 DUP2 DUP2 MSTORE PUSH1 0x20 ADD DUP3 DUP1 SLOAD PUSH2 0x87E SWAP1 PUSH2 0x232E JUMP JUMPDEST DUP1 ISZERO PUSH2 0x8CB JUMPI DUP1 PUSH1 0x1F LT PUSH2 0x8A0 JUMPI PUSH2 0x100 DUP1 DUP4 SLOAD DIV MUL DUP4 MSTORE SWAP2 PUSH1 0x20 ADD SWAP2 PUSH2 0x8CB JUMP JUMPDEST DUP3 ADD SWAP2 SWAP1 PUSH1 0x0 MSTORE PUSH1 0x20 PUSH1 0x0 KECCAK256 SWAP1 JUMPDEST DUP2 SLOAD DUP2 MSTORE SWAP1 PUSH1 0x1 ADD SWAP1 PUSH1 0x20 ADD DUP1 DUP4 GT PUSH2 0x8AE JUMPI DUP3 SWAP1 SUB PUSH1 0x1F AND DUP3 ADD SWAP2 JUMPDEST POP POP POP POP POP DUP2 MSTORE PUSH1 0x20 ADD PUSH1 0x2 DUP3 ADD DUP1 SLOAD PUSH2 0x8E4 SWAP1 PUSH2 0x232E JUMP JUMPDEST DUP1 PUSH1 0x1F ADD PUSH1 0x20 DUP1 SWAP2 DIV MUL PUSH1 0x20 ADD PUSH1 0x40 MLOAD SWAP1 DUP2 ADD PUSH1 0x40 MSTORE DUP1 SWAP3 SWAP2 SWAP1 DUP2 DUP2 MSTORE PUSH1 0x20 ADD DUP3 DUP1 SLOAD PUSH2 0x910 SWAP1 PUSH2 0x232E JUMP JUMPDEST DUP1 ISZERO PUSH2 0x95D JUMPI DUP1 PUSH1 0x1F LT PUSH2 0x932 JUMPI PUSH2 0x100 DUP1 DUP4 SLOAD DIV MUL DUP4 MSTORE SWAP2 PUSH1 0x20 ADD SWAP2 PUSH2 0x95D JUMP JUMPDEST DUP3 ADD SWAP2 SWAP1 PUSH1 0x0 MSTORE PUSH1 0x20 PUSH1 0x0 KECCAK256 SWAP1 JUMPDEST DUP2 SLOAD DUP2 MSTORE SWAP1 PUSH1 0x1 ADD SWAP1 PUSH1 0x20 ADD DUP1 DUP4 GT PUSH2 0x940 JUMPI DUP3 SWAP1 SUB PUSH1 0x1F AND DUP3 ADD SWAP2 JUMPDEST POP POP POP POP POP DUP2 MSTORE PUSH1 0x20 ADD PUSH1 0x3 DUP3 ADD SLOAD DUP2 MSTORE PUSH1 0x20 ADD PUSH1 0x4 DUP3 ADD DUP1 SLOAD PUSH2 0x980 SWAP1 PUSH2 0x232E JUMP JUMPDEST DUP1 PUSH1 0x1F ADD PUSH1 0x20 DUP1 SWAP2 DIV MUL PUSH1 0x20 ADD PUSH1 0x40 MLOAD SWAP1 DUP2 ADD PUSH1 0x40 MSTORE DUP1 SWAP3 SWAP2 SWAP1 DUP2 DUP2 MSTORE PUSH1 0x20 ADD DUP3 DUP1 SLOAD PUSH2 0x9AC SWAP1 PUSH2 0x232E JUMP JUMPDEST DUP1 ISZERO PUSH2 0x9F9 JUMPI DUP1 PUSH1 0x1F LT PUSH2 0x9CE JUMPI PUSH2 0x100 DUP1 DUP4 SLOAD DIV MUL DUP4 MSTORE SWAP2 PUSH1 0x20 ADD SWAP2 PUSH2 0x9F9 JUMP JUMPDEST DUP3 ADD SWAP2 SWAP1 PUSH1 0x0 MSTORE PUSH1 0x20 PUSH1 0x0 KECCAK256 SWAP1 JUMPDEST DUP2 SLOAD DUP2 MSTORE SWAP1 PUSH1 0x1 ADD SWAP1 PUSH1 0x20 ADD DUP1 DUP4 GT PUSH2 0x9DC JUMPI DUP3 SWAP1 SUB PUSH1 0x1F AND DUP3 ADD SWAP2 JUMPDEST POP POP POP POP POP DUP2 MSTORE PUSH1 0x20 ADD PUSH1 0x5 DUP3 ADD DUP1 SLOAD PUSH2 0xA12 SWAP1 PUSH2 0x232E JUMP JUMPDEST DUP1 PUSH1 0x1F ADD PUSH1 0x20 DUP1 SWAP2 DIV MUL PUSH1 0x20 ADD PUSH1 0x40 MLOAD SWAP1 DUP2 ADD PUSH1 0x40 MSTORE DUP1 SWAP3 SWAP2 SWAP1 DUP2 DUP2 MSTORE PUSH1 0x20 ADD DUP3 DUP1 SLOAD PUSH2 0xA3E SWAP1 PUSH2 0x232E JUMP JUMPDEST DUP1 ISZERO PUSH2 0xA8B JUMPI DUP1 PUSH1 0x1F LT PUSH2 0xA60 JUMPI PUSH2 0x100 DUP1 DUP4 SLOAD DIV MUL DUP4 MSTORE SWAP2 PUSH1 0x20 ADD SWAP2 PUSH2 0xA8B JUMP JUMPDEST DUP3 ADD SWAP2 SWAP1 PUSH1 0x0 MSTORE PUSH1 0x20 PUSH1 0x0 KECCAK256 SWAP1 JUMPDEST DUP2 SLOAD DUP2 MSTORE SWAP1 PUSH1 0x1 ADD SWAP1 PUSH1 0x20 ADD DUP1 DUP4 GT PUSH2 0xA6E JUMPI DUP3 SWAP1 SUB PUSH1 0x1F AND DUP3 ADD SWAP2 JUMPDEST POP POP POP POP POP DUP2 MSTORE PUSH1 0x20 ADD PUSH1 0x6 DUP3 ADD DUP1 SLOAD PUSH2 0xAA4 SWAP1 PUSH2 0x232E JUMP JUMPDEST DUP1 PUSH1 0x1F ADD PUSH1 0x20 DUP1 SWAP2 DIV MUL PUSH1 0x20 ADD PUSH1 0x40 MLOAD SWAP1 DUP2 ADD PUSH1 0x40 MSTORE DUP1 SWAP3 SWAP2 SWAP1 DUP2 DUP2 MSTORE PUSH1 0x20 ADD DUP3 DUP1 SLOAD PUSH2 0xAD0 SWAP1 PUSH2 0x232E JUMP JUMPDEST DUP1 ISZERO PUSH2 0xB1D JUMPI DUP1 PUSH1 0x1F LT PUSH2 0xAF2 JUMPI PUSH2 0x100 DUP1 DUP4 SLOAD DIV MUL DUP4 MSTORE SWAP2 PUSH1 0x20 ADD SWAP2 PUSH2 0xB1D JUMP JUMPDEST DUP3 ADD SWAP2 SWAP1 PUSH1 0x0 MSTORE PUSH1 0x20 PUSH1 0x0 KECCAK256 SWAP1 JUMPDEST DUP2 SLOAD DUP2 MSTORE SWAP1 PUSH1 0x1 ADD SWAP1 PUSH1 0x20 ADD DUP1 DUP4 GT PUSH2 0xB00 JUMPI DUP3 SWAP1 SUB PUSH1 0x1F AND DUP3 ADD SWAP2 JUMPDEST POP POP POP POP POP DUP2 MSTORE PUSH1 0x20 ADD PUSH1 0x7 DUP3 ADD DUP1 SLOAD DUP1 PUSH1 0x20 MUL PUSH1 0x20 ADD PUSH1 0x40 MLOAD SWAP1 DUP2 ADD PUSH1 0x40 MSTORE DUP1 SWAP3 SWAP2 SWAP1 DUP2 DUP2 MSTORE PUSH1 0x20 ADD PUSH1 0x0 SWAP1 JUMPDEST DUP3 DUP3 LT ISZERO PUSH2 0xBF7 JUMPI DUP4 DUP3 SWAP1 PUSH1 0x0 MSTORE PUSH1 0x20 PUSH1 0x0 KECCAK256 ADD DUP1 SLOAD PUSH2 0xB6A SWAP1 PUSH2 0x232E JUMP JUMPDEST DUP1 PUSH1 0x1F ADD PUSH1 0x20 DUP1 SWAP2 DIV MUL PUSH1 0x20 ADD PUSH1 0x40 MLOAD SWAP1 DUP2 ADD PUSH1 0x40 MSTORE DUP1 SWAP3 SWAP2 SWAP1 DUP2 DUP2 MSTORE PUSH1 0x20 ADD DUP3 DUP1 SLOAD PUSH2 0xB96 SWAP1 PUSH2 0x232E JUMP JUMPDEST DUP1 ISZERO PUSH2 0xBE3 JUMPI DUP1 PUSH1 0x1F LT PUSH2 0xBB8 JUMPI PUSH2 0x100 DUP1 DUP4 SLOAD DIV MUL DUP4 MSTORE SWAP2 PUSH1 0x20 ADD SWAP2 PUSH2 0xBE3 JUMP JUMPDEST DUP3 ADD SWAP2 SWAP1 PUSH1 0x0 MSTORE PUSH1 0x20 PUSH1 0x0 KECCAK256 SWAP1 JUMPDEST DUP2 SLOAD DUP2 MSTORE SWAP1 PUSH1 0x1 ADD SWAP1 PUSH1 0x20 ADD DUP1 DUP4 GT PUSH2 0xBC6 JUMPI DUP3 SWAP1 SUB PUSH1 0x1F AND DUP3 ADD SWAP2 JUMPDEST POP POP POP POP POP DUP2 MSTORE PUSH1 0x20 ADD SWAP1 PUSH1 0x1 ADD SWAP1 PUSH2 0xB4B JUMP JUMPDEST POP POP POP POP DUP2 MSTORE PUSH1 0x20 ADD PUSH1 0x8 DUP3 ADD SLOAD DUP2 MSTORE PUSH1 0x20 ADD PUSH1 0x9 DUP3 ADD PUSH1 0x0 SWAP1 SLOAD SWAP1 PUSH2 0x100 EXP SWAP1 DIV PUSH1 0xFF AND ISZERO ISZERO ISZERO ISZERO DUP2 MSTORE PUSH1 0x20 ADD PUSH1 0xA DUP3 ADD SLOAD DUP2 MSTORE PUSH1 0x20 ADD PUSH1 0xB DUP3 ADD SLOAD DUP2 MSTORE POP POP SWAP1 POP SWAP2 SWAP1 POP JUMP JUMPDEST PUSH1 0x5 PUSH1 0x20 MSTORE DUP1 PUSH1 0x0 MSTORE PUSH1 0x40 PUSH1 0x0 KECCAK256 PUSH1 0x0 SWAP2 POP SWAP1 POP DUP1 PUSH1 0x0 ADD PUSH1 0x0 SWAP1 SLOAD SWAP1 PUSH2 0x100 EXP SWAP1 DIV PUSH20 0xFFFFFFFFFFFFFFFFFFFFFFFFFFFFFFFFFFFFFFFF AND SWAP1 DUP1 PUSH1 0x1 ADD DUP1 SLOAD PUSH2 0xC88 SWAP1 PUSH2 0x232E JUMP JUMPDEST DUP1 PUSH1 0x1F ADD PUSH1 0x20 DUP1 SWAP2 DIV MUL PUSH1 0x20 ADD PUSH1 0x40 MLOAD SWAP1 DUP2 ADD PUSH1 0x40 MSTORE DUP1 SWAP3 SWAP2 SWAP1 DUP2 DUP2 MSTORE PUSH1 0x20 ADD DUP3 DUP1 SLOAD PUSH2 0xCB4 SWAP1 PUSH2 0x232E JUMP JUMPDEST DUP1 ISZERO PUSH2 0xD01 JUMPI DUP1 PUSH1 0x1F LT PUSH2 0xCD6 JUMPI PUSH2 0x100 DUP1 DUP4 SLOAD DIV MUL DUP4 MSTORE SWAP2 PUSH1 0x20 ADD SWAP2 PUSH2 0xD01 JUMP JUMPDEST DUP3 ADD SWAP2 SWAP1 PUSH1 0x0 MSTORE PUSH1 0x20 PUSH1 0x0 KECCAK256 SWAP1 JUMPDEST DUP2 SLOAD DUP2 MSTORE SWAP1 PUSH1 0x1 ADD SWAP1 PUSH1 0x20 ADD DUP1 DUP4 GT PUSH2 0xCE4 JUMPI DUP3 SWAP1 SUB PUSH1 0x1F AND DUP3 ADD SWAP2 JUMPDEST POP POP POP POP POP SWAP1 DUP1 PUSH1 0x2 ADD DUP1 SLOAD PUSH2 0xD16 SWAP1 PUSH2 0x232E JUMP JUMPDEST DUP1 PUSH1 0x1F ADD PUSH1 0x20 DUP1 SWAP2 DIV MUL PUSH1 0x20 ADD PUSH1 0x40 MLOAD SWAP1 DUP2 ADD PUSH1 0x40 MSTORE DUP1 SWAP3 SWAP2 SWAP1 DUP2 DUP2 MSTORE PUSH1 0x20 ADD DUP3 DUP1 SLOAD PUSH2 0xD42 SWAP1 PUSH2 0x232E JUMP JUMPDEST DUP1 ISZERO PUSH2 0xD8F JUMPI DUP1 PUSH1 0x1F LT PUSH2 0xD64 JUMPI PUSH2 0x100 DUP1 DUP4 SLOAD DIV MUL DUP4 MSTORE SWAP2 PUSH1 0x20 ADD SWAP2 PUSH2 0xD8F JUMP JUMPDEST DUP3 ADD SWAP2 SWAP1 PUSH1 0x0 MSTORE PUSH1 0x20 PUSH1 0x0 KECCAK256 SWAP1 JUMPDEST DUP2 SLOAD DUP2 MSTORE SWAP1 PUSH1 0x1 ADD SWAP1 PUSH1 0x20 ADD DUP1 DUP4 GT PUSH2 0xD72 JUMPI DUP3 SWAP1 SUB PUSH1 0x1F AND DUP3 ADD SWAP2 JUMPDEST POP POP POP POP POP SWAP1 DUP1 PUSH1 0x3 ADD SLOAD SWAP1 DUP1 PUSH1 0x4 ADD DUP1 SLOAD PUSH2 0xDAA SWAP1 PUSH2 0x232E JUMP JUMPDEST DUP1 PUSH1 0x1F ADD PUSH1 0x20 DUP1 SWAP2 DIV MUL PUSH1 0x20 ADD PUSH1 0x40 MLOAD SWAP1 DUP2 ADD PUSH1 0x40 MSTORE DUP1 SWAP3 SWAP2 SWAP1 DUP2 DUP2 MSTORE PUSH1 0x20 ADD DUP3 DUP1 SLOAD PUSH2 0xDD6 SWAP1 PUSH2 0x232E JUMP JUMPDEST DUP1 ISZERO PUSH2 0xE23 JUMPI DUP1 PUSH1 0x1F LT PUSH2 0xDF8 JUMPI PUSH2 0x100 DUP1 DUP4 SLOAD DIV MUL DUP4 MSTORE SWAP2 PUSH1 0x20 ADD SWAP2 PUSH2 0xE23 JUMP JUMPDEST DUP3 ADD SWAP2 SWAP1 PUSH1 0x0 MSTORE PUSH1 0x20 PUSH1 0x0 KECCAK256 SWAP1 JUMPDEST DUP2 SLOAD DUP2 MSTORE SWAP1 PUSH1 0x1 ADD SWAP1 PUSH1 0x20 ADD DUP1 DUP4 GT PUSH2 0xE06 JUMPI DUP3 SWAP1 SUB PUSH1 0x1F AND DUP3 ADD SWAP2 JUMPDEST POP POP POP POP POP SWAP1 DUP1 PUSH1 0x5 ADD DUP1 SLOAD PUSH2 0xE38 SWAP1 PUSH2 0x232E JUMP JUMPDEST DUP1 PUSH1 0x1F ADD PUSH1 0x20 DUP1 SWAP2 DIV MUL PUSH1 0x20 ADD PUSH1 0x40 MLOAD SWAP1 DUP2 ADD PUSH1 0x40 MSTORE DUP1 SWAP3 SWAP2 SWAP1 DUP2 DUP2 MSTORE PUSH1 0x20 ADD DUP3 DUP1 SLOAD PUSH2 0xE64 SWAP1 PUSH2 0x232E JUMP JUMPDEST DUP1 ISZERO PUSH2 0xEB1 JUMPI DUP1 PUSH1 0x1F LT PUSH2 0xE86 JUMPI PUSH2 0x100 DUP1 DUP4 SLOAD DIV MUL DUP4 MSTORE SWAP2 PUSH1 0x20 ADD SWAP2 PUSH2 0xEB1 JUMP JUMPDEST DUP3 ADD SWAP2 SWAP1 PUSH1 0x0 MSTORE PUSH1 0x20 PUSH1 0x0 KECCAK256 SWAP1 JUMPDEST DUP2 SLOAD DUP2 MSTORE SWAP1 PUSH1 0x1 ADD SWAP1 PUSH1 0x20 ADD DUP1 DUP4 GT PUSH2 0xE94 JUMPI DUP3 SWAP1 SUB PUSH1 0x1F AND DUP3 ADD SWAP2 JUMPDEST POP POP POP POP POP SWAP1 DUP1 PUSH1 0x6 ADD DUP1 SLOAD PUSH2 0xEC6 SWAP1 PUSH2 0x232E JUMP JUMPDEST DUP1 PUSH1 0x1F ADD PUSH1 0x20 DUP1 SWAP2 DIV MUL PUSH1 0x20 ADD PUSH1 0x40 MLOAD SWAP1 DUP2 ADD PUSH1 0x40 MSTORE DUP1 SWAP3 SWAP2 SWAP1 DUP2 DUP2 MSTORE PUSH1 0x20 ADD DUP3 DUP1 SLOAD PUSH2 0xEF2 SWAP1 PUSH2 0x232E JUMP JUMPDEST DUP1 ISZERO PUSH2 0xF3F JUMPI DUP1 PUSH1 0x1F LT PUSH2 0xF14 JUMPI PUSH2 0x100 DUP1 DUP4 SLOAD DIV MUL DUP4 MSTORE SWAP2 PUSH1 0x20 ADD SWAP2 PUSH2 0xF3F JUMP JUMPDEST DUP3 ADD SWAP2 SWAP1 PUSH1 0x0 MSTORE PUSH1 0x20 PUSH1 0x0 KECCAK256 SWAP1 JUMPDEST DUP2 SLOAD DUP2 MSTORE SWAP1 PUSH1 0x1 ADD SWAP1 PUSH1 0x20 ADD DUP1 DUP4 GT PUSH2 0xF22 JUMPI DUP3 SWAP1 SUB PUSH1 0x1F AND DUP3 ADD SWAP2 JUMPDEST POP POP POP POP POP SWAP1 DUP1 PUSH1 0x8 ADD SLOAD SWAP1 DUP1 PUSH1 0x9 ADD PUSH1 0x0 SWAP1 SLOAD SWAP1 PUSH2 0x100 EXP SWAP1 DIV PUSH1 0xFF AND SWAP1 DUP1 PUSH1 0xA ADD SLOAD SWAP1 DUP1 PUSH1 0xB ADD SLOAD SWAP1 POP DUP12 JUMP JUMPDEST PUSH1 0x0 PUSH1 0x8 PUSH1 0x0 CALLER PUSH20 0xFFFFFFFFFFFFFFFFFFFFFFFFFFFFFFFFFFFFFFFF AND PUSH20 0xFFFFFFFFFFFFFFFFFFFFFFFFFFFFFFFFFFFFFFFF AND DUP2 MSTORE PUSH1 0x20 ADD SWAP1 DUP2 MSTORE PUSH1 0x20 ADD PUSH1 0x0 KECCAK256 PUSH1 0x0 SWAP1 SLOAD SWAP1 PUSH2 0x100 EXP SWAP1 DIV PUSH1 0xFF AND PUSH1 0xFF AND EQ PUSH2 0xFF7 JUMPI PUSH1 0x40 MLOAD PUSH32 0xAF79AD300000000000000000000000000000000000000000000000000000000 DUP2 MSTORE PUSH1 0x4 ADD PUSH1 0x40 MLOAD DUP1 SWAP2 SUB SWAP1 REVERT JUMPDEST PUSH1 0x0 DUP8 MLOAD GT PUSH2 0x1005 JUMPI PUSH1 0x0 DUP1 REVERT JUMPDEST PUSH1 0x0 DUP7 MLOAD GT PUSH2 0x1013 JUMPI PUSH1 0x0 DUP1 REVERT JUMPDEST PUSH1 0x1 PUSH1 0x0 DUP2 SLOAD DUP1 SWAP3 SWAP2 SWAP1 PUSH2 0x1026 SWAP1 PUSH2 0x238E JUMP JUMPDEST SWAP2 SWAP1 POP SSTORE POP PUSH1 0x2 PUSH1 0x8 PUSH1 0x0 CALLER PUSH20 0xFFFFFFFFFFFFFFFFFFFFFFFFFFFFFFFFFFFFFFFF AND PUSH20 0xFFFFFFFFFFFFFFFFFFFFFFFFFFFFFFFFFFFFFFFF AND DUP2 MSTORE PUSH1 0x20 ADD SWAP1 DUP2 MSTORE PUSH1 0x20 ADD PUSH1 0x0 KECCAK256 PUSH1 0x0 PUSH2 0x100 EXP DUP2 SLOAD DUP2 PUSH1 0xFF MUL NOT AND SWAP1 DUP4 PUSH1 0xFF AND MUL OR SWAP1 SSTORE POP PUSH1 0x40 MLOAD DUP1 PUSH2 0x180 ADD PUSH1 0x40 MSTORE DUP1 CALLER PUSH20 0xFFFFFFFFFFFFFFFFFFFFFFFFFFFFFFFFFFFFFFFF AND DUP2 MSTORE PUSH1 0x20 ADD DUP9 DUP2 MSTORE PUSH1 0x20 ADD DUP8 DUP2 MSTORE PUSH1 0x20 ADD PUSH1 0x0 DUP2 MSTORE PUSH1 0x20 ADD DUP7 DUP2 MSTORE PUSH1 0x20 ADD DUP6 DUP2 MSTORE PUSH1 0x20 ADD DUP5 DUP2 MSTORE PUSH1 0x20 ADD DUP4 DUP2 MSTORE PUSH1 0x20 ADD PUSH1 0x0 DUP2 MSTORE PUSH1 0x20 ADD PUSH1 0x1 ISZERO ISZERO DUP2 MSTORE PUSH1 0x20 ADD TIMESTAMP DUP2 MSTORE PUSH1 0x20 ADD DUP3 DUP2 MSTORE POP PUSH1 0x5 PUSH1 0x0 CALLER PUSH20 0xFFFFFFFFFFFFFFFFFFFFFFFFFFFFFFFFFFFFFFFF AND PUSH20 0xFFFFFFFFFFFFFFFFFFFFFFFFFFFFFFFFFFFFFFFF AND DUP2 MSTORE PUSH1 0x20 ADD SWAP1 DUP2 MSTORE PUSH1 0x20 ADD PUSH1 0x0 KECCAK256 PUSH1 0x0 DUP3 ADD MLOAD DUP2 PUSH1 0x0 ADD PUSH1 0x0 PUSH2 0x100 EXP DUP2 SLOAD DUP2 PUSH20 0xFFFFFFFFFFFFFFFFFFFFFFFFFFFFFFFFFFFFFFFF MUL NOT AND SWAP1 DUP4 PUSH20 0xFFFFFFFFFFFFFFFFFFFFFFFFFFFFFFFFFFFFFFFF AND MUL OR SWAP1 SSTORE POP PUSH1 0x20 DUP3 ADD MLOAD DUP2 PUSH1 0x1 ADD SWAP1 DUP2 PUSH2 0x118C SWAP2 SWAP1 PUSH2 0x2582 JUMP JUMPDEST POP PUSH1 0x40 DUP3 ADD MLOAD DUP2 PUSH1 0x2 ADD SWAP1 DUP2 PUSH2 0x11A2 SWAP2 SWAP1 PUSH2 0x2582 JUMP JUMPDEST POP PUSH1 0x60 DUP3 ADD MLOAD DUP2 PUSH1 0x3 ADD SSTORE PUSH1 0x80 DUP3 ADD MLOAD DUP2 PUSH1 0x4 ADD SWAP1 DUP2 PUSH2 0x11C2 SWAP2 SWAP1 PUSH2 0x2582 JUMP JUMPDEST POP PUSH1 0xA0 DUP3 ADD MLOAD DUP2 PUSH1 0x5 ADD SWAP1 DUP2 PUSH2 0x11D8 SWAP2 SWAP1 PUSH2 0x2582 JUMP JUMPDEST POP PUSH1 0xC0 DUP3 ADD MLOAD DUP2 PUSH1 0x6 ADD SWAP1 DUP2 PUSH2 0x11EE SWAP2 SWAP1 PUSH2 0x2582 JUMP JUMPDEST POP PUSH1 0xE0 DUP3 ADD MLOAD DUP2 PUSH1 0x7 ADD SWAP1 DUP1 MLOAD SWAP1 PUSH1 0x20 ADD SWAP1 PUSH2 0x120B SWAP3 SWAP2 SWAP1 PUSH2 0x17E1 JUMP JUMPDEST POP PUSH2 0x100 DUP3 ADD MLOAD DUP2 PUSH1 0x8 ADD SSTORE PUSH2 0x120 DUP3 ADD MLOAD DUP2 PUSH1 0x9 ADD PUSH1 0x0 PUSH2 0x100 EXP DUP2 SLOAD DUP2 PUSH1 0xFF MUL NOT AND SWAP1 DUP4 ISZERO ISZERO MUL OR SWAP1 SSTORE POP PUSH2 0x140 DUP3 ADD MLOAD DUP2 PUSH1 0xA ADD SSTORE PUSH2 0x160 DUP3 ADD MLOAD DUP2 PUSH1 0xB ADD SSTORE SWAP1 POP POP PUSH1 0x9 CALLER SWAP1 DUP1 PUSH1 0x1 DUP2 SLOAD ADD DUP1 DUP3 SSTORE DUP1 SWAP2 POP POP PUSH1 0x1 SWAP1 SUB SWAP1 PUSH1 0x0 MSTORE PUSH1 0x20 PUSH1 0x0 KECCAK256 ADD PUSH1 0x0 SWAP1 SWAP2 SWAP1 SWAP2 SWAP1 SWAP2 PUSH2 0x100 EXP DUP2 SLOAD DUP2 PUSH20 0xFFFFFFFFFFFFFFFFFFFFFFFFFFFFFFFFFFFFFFFF MUL NOT AND SWAP1 DUP4 PUSH20 0xFFFFFFFFFFFFFFFFFFFFFFFFFFFFFFFFFFFFFFFF AND MUL OR SWAP1 SSTORE POP PUSH32 0x21BEF455EB0E77B12A579311CA8616D72216C8B628577EEDA276AC16FE5B622E CALLER DUP4 DUP4 PUSH1 0x40 MLOAD PUSH2 0x12E7 SWAP4 SWAP3 SWAP2 SWAP1 PUSH2 0x26DA JUMP JUMPDEST PUSH1 0x40 MLOAD DUP1 SWAP2 SUB SWAP1 LOG1 POP POP POP POP POP POP POP JUMP JUMPDEST PUSH1 0x1 SLOAD DUP2 JUMP JUMPDEST PUSH1 0x0 DUP1 SLOAD SWAP1 PUSH2 0x100 EXP SWAP1 DIV PUSH20 0xFFFFFFFFFFFFFFFFFFFFFFFFFFFFFFFFFFFFFFFF AND DUP2 JUMP JUMPDEST PUSH1 0x2 PUSH1 0x8 PUSH1 0x0 CALLER PUSH20 0xFFFFFFFFFFFFFFFFFFFFFFFFFFFFFFFFFFFFFFFF AND PUSH20 0xFFFFFFFFFFFFFFFFFFFFFFFFFFFFFFFFFFFFFFFF AND DUP2 MSTORE PUSH1 0x20 ADD SWAP1 DUP2 MSTORE PUSH1 0x20 ADD PUSH1 0x0 KECCAK256 PUSH1 0x0 SWAP1 SLOAD SWAP1 PUSH2 0x100 EXP SWAP1 DIV PUSH1 0xFF AND PUSH1 0xFF AND EQ PUSH2 0x13AB JUMPI PUSH1 0x40 MLOAD PUSH32 0xC23CF1F400000000000000000000000000000000000000000000000000000000 DUP2 MSTORE PUSH1 0x4 ADD PUSH1 0x40 MLOAD DUP1 SWAP2 SUB SWAP1 REVERT JUMPDEST PUSH1 0x0 DUP8 MLOAD EQ DUP1 PUSH2 0x13BC JUMPI POP PUSH1 0x0 DUP7 MLOAD EQ JUMPDEST ISZERO PUSH2 0x13F3 JUMPI PUSH1 0x40 MLOAD PUSH32 0xBD0FEBC100000000000000000000000000000000000000000000000000000000 DUP2 MSTORE PUSH1 0x4 ADD PUSH1 0x40 MLOAD DUP1 SWAP2 SUB SWAP1 REVERT JUMPDEST PUSH1 0x0 PUSH1 0x5 PUSH1 0x0 CALLER PUSH20 0xFFFFFFFFFFFFFFFFFFFFFFFFFFFFFFFFFFFFFFFF AND PUSH20 0xFFFFFFFFFFFFFFFFFFFFFFFFFFFFFFFFFFFFFFFF AND DUP2 MSTORE PUSH1 0x20 ADD SWAP1 DUP2 MSTORE PUSH1 0x20 ADD PUSH1 0x0 KECCAK256 SWAP1 POP DUP8 DUP2 PUSH1 0x1 ADD SWAP1 DUP2 PUSH2 0x1447 SWAP2 SWAP1 PUSH2 0x2582 JUMP JUMPDEST POP DUP7 DUP2 PUSH1 0x2 ADD SWAP1 DUP2 PUSH2 0x1459 SWAP2 SWAP1 PUSH2 0x2582 JUMP JUMPDEST POP DUP6 DUP2 PUSH1 0x4 ADD SWAP1 DUP2 PUSH2 0x146B SWAP2 SWAP1 PUSH2 0x2582 JUMP JUMPDEST POP DUP5 DUP2 PUSH1 0x5 ADD SWAP1 DUP2 PUSH2 0x147D SWAP2 SWAP1 PUSH2 0x2582 JUMP JUMPDEST POP DUP4 DUP2 PUSH1 0x6 ADD SWAP1 DUP2 PUSH2 0x148F SWAP2 SWAP1 PUSH2 0x2582 JUMP JUMPDEST POP DUP3 DUP2 PUSH1 0x7 ADD SWAP1 DUP1 MLOAD SWAP1 PUSH1 0x20 ADD SWAP1 PUSH2 0x14A8 SWAP3 SWAP2 SWAP1 PUSH2 0x17E1 JUMP JUMPDEST POP DUP2 DUP2 PUSH1 0xB ADD DUP2 SWAP1 SSTORE POP POP POP POP POP POP POP POP POP JUMP JUMPDEST PUSH1 0x8 PUSH1 0x20 MSTORE DUP1 PUSH1 0x0 MSTORE PUSH1 0x40 PUSH1 0x0 KECCAK256 PUSH1 0x0 SWAP2 POP SLOAD SWAP1 PUSH2 0x100 EXP SWAP1 DIV PUSH1 0xFF AND DUP2 JUMP JUMPDEST PUSH1 0x2 PUSH1 0x8 PUSH1 0x0 CALLER PUSH20 0xFFFFFFFFFFFFFFFFFFFFFFFFFFFFFFFFFFFFFFFF AND PUSH20 0xFFFFFFFFFFFFFFFFFFFFFFFFFFFFFFFFFFFFFFFF AND DUP2 MSTORE PUSH1 0x20 ADD SWAP1 DUP2 MSTORE PUSH1 0x20 ADD PUSH1 0x0 KECCAK256 PUSH1 0x0 SWAP1 SLOAD SWAP1 PUSH2 0x100 EXP SWAP1 DIV PUSH1 0xFF AND PUSH1 0xFF AND EQ PUSH2 0x1565 JUMPI PUSH1 0x40 MLOAD PUSH32 0xC23CF1F400000000000000000000000000000000000000000000000000000000 DUP2 MSTORE PUSH1 0x4 ADD PUSH1 0x40 MLOAD DUP1 SWAP2 SUB SWAP1 REVERT JUMPDEST PUSH1 0x0 PUSH1 0x5 PUSH1 0x0 CALLER PUSH20 0xFFFFFFFFFFFFFFFFFFFFFFFFFFFFFFFFFFFFFFFF AND PUSH20 0xFFFFFFFFFFFFFFFFFFFFFFFFFFFFFFFFFFFFFFFF AND DUP2 MSTORE PUSH1 0x20 ADD SWAP1 DUP2 MSTORE PUSH1 0x20 ADD PUSH1 0x0 KECCAK256 SWAP1 POP PUSH1 0x0 DUP2 PUSH1 0x3 ADD SLOAD GT PUSH2 0x15EF JUMPI PUSH1 0x40 MLOAD PUSH32 0x8C379A000000000000000000000000000000000000000000000000000000000 DUP2 MSTORE PUSH1 0x4 ADD PUSH2 0x15E6 SWAP1 PUSH2 0x2764 JUMP JUMPDEST PUSH1 0x40 MLOAD DUP1 SWAP2 SUB SWAP1 REVERT JUMPDEST PUSH1 0x0 PUSH1 0x64 PUSH1 0x5F DUP4 PUSH1 0x3 ADD SLOAD PUSH2 0x1604 SWAP2 SWAP1 PUSH2 0x2784 JUMP JUMPDEST PUSH2 0x160E SWAP2 SWAP1 PUSH2 0x27F5 JUMP JUMPDEST SWAP1 POP PUSH1 0x0 DUP3 PUSH1 0x3 ADD DUP2 SWAP1 SSTORE POP PUSH1 0x0 CALLER PUSH20 0xFFFFFFFFFFFFFFFFFFFFFFFFFFFFFFFFFFFFFFFF AND DUP3 PUSH1 0x40 MLOAD PUSH2 0x1640 SWAP1 PUSH2 0x2857 JUMP JUMPDEST PUSH1 0x0 PUSH1 0x40 MLOAD DUP1 DUP4 SUB DUP2 DUP6 DUP8 GAS CALL SWAP3 POP POP POP RETURNDATASIZE DUP1 PUSH1 0x0 DUP2 EQ PUSH2 0x167D JUMPI PUSH1 0x40 MLOAD SWAP2 POP PUSH1 0x1F NOT PUSH1 0x3F RETURNDATASIZE ADD AND DUP3 ADD PUSH1 0x40 MSTORE RETURNDATASIZE DUP3 MSTORE RETURNDATASIZE PUSH1 0x0 PUSH1 0x20 DUP5 ADD RETURNDATACOPY PUSH2 0x1682 JUMP JUMPDEST PUSH1 0x60 SWAP2 POP JUMPDEST POP POP SWAP1 POP DUP1 PUSH2 0x16C6 JUMPI PUSH1 0x40 MLOAD PUSH32 0x8C379A000000000000000000000000000000000000000000000000000000000 DUP2 MSTORE PUSH1 0x4 ADD PUSH2 0x16BD SWAP1 PUSH2 0x28B8 JUMP JUMPDEST PUSH1 0x40 MLOAD DUP1 SWAP2 SUB SWAP1 REVERT JUMPDEST PUSH32 0x9AD672D4E7C4892DA934D1051932EBE9EC4B6EC8C3F40D569176DB3E93E5ABE CALLER DUP4 PUSH1 0x40 MLOAD PUSH2 0x16F7 SWAP3 SWAP2 SWAP1 PUSH2 0x28D8 JUMP JUMPDEST PUSH1 0x40 MLOAD DUP1 SWAP2 SUB SWAP1 LOG1 POP POP POP JUMP JUMPDEST PUSH1 0x9 DUP2 DUP2 SLOAD DUP2 LT PUSH2 0x1714 JUMPI PUSH1 0x0 DUP1 REVERT JUMPDEST SWAP1 PUSH1 0x0 MSTORE PUSH1 0x20 PUSH1 0x0 KECCAK256 ADD PUSH1 0x0 SWAP2 POP SLOAD SWAP1 PUSH2 0x100 EXP SWAP1 DIV PUSH20 0xFFFFFFFFFFFFFFFFFFFFFFFFFFFFFFFFFFFFFFFF AND DUP2 JUMP JUMPDEST PUSH1 0x7 PUSH1 0x20 MSTORE DUP2 PUSH1 0x0 MSTORE PUSH1 0x40 PUSH1 0x0 KECCAK256 PUSH1 0x20 MSTORE DUP1 PUSH1 0x0 MSTORE PUSH1 0x40 PUSH1 0x0 KECCAK256 PUSH1 0x0 SWAP2 POP SWAP2 POP POP SLOAD DUP2 JUMP JUMPDEST PUSH1 0x40 MLOAD DUP1 PUSH2 0x180 ADD PUSH1 0x40 MSTORE DUP1 PUSH1 0x0 PUSH20 0xFFFFFFFFFFFFFFFFFFFFFFFFFFFFFFFFFFFFFFFF AND DUP2 MSTORE PUSH1 0x20 ADD PUSH1 0x60 DUP2 MSTORE PUSH1 0x20 ADD PUSH1 0x60 DUP2 MSTORE PUSH1 0x20 ADD PUSH1 0x0 DUP2 MSTORE PUSH1 0x20 ADD PUSH1 0x60 DUP2 MSTORE PUSH1 0x20 ADD PUSH1 0x60 DUP2 MSTORE PUSH1 0x20 ADD PUSH1 0x60 DUP2 MSTORE PUSH1 0x20 ADD PUSH1 0x60 DUP2 MSTORE PUSH1 0x20 ADD PUSH1 0x0 DUP2 MSTORE PUSH1 0x20 ADD PUSH1 0x0 ISZERO ISZERO DUP2 MSTORE PUSH1 0x20 ADD PUSH1 0x0 DUP2 MSTORE PUSH1 0x20 ADD PUSH1 0x0 DUP2 MSTORE POP SWAP1 JUMP JUMPDEST DUP3 DUP1 SLOAD DUP3 DUP3 SSTORE SWAP1 PUSH1 0x0 MSTORE PUSH1 0x20 PUSH1 0x0 KECCAK256 SWAP1 DUP2 ADD SWAP3 DUP3 ISZERO PUSH2 0x1829 JUMPI SWAP2 PUSH1 0x20 MUL DUP3 ADD JUMPDEST DUP3 DUP2 GT ISZERO PUSH2 0x1828 JUMPI DUP3 MLOAD DUP3 SWAP1 DUP2 PUSH2 0x1818 SWAP2 SWAP1 PUSH2 0x2582 JUMP JUMPDEST POP SWAP2 PUSH1 0x20 ADD SWAP2 SWAP1 PUSH1 0x1 ADD SWAP1 PUSH2 0x1801 JUMP JUMPDEST JUMPDEST POP SWAP1 POP PUSH2 0x1836 SWAP2 SWAP1 PUSH2 0x183A JUMP JUMPDEST POP SWAP1 JUMP JUMPDEST JUMPDEST DUP1 DUP3 GT ISZERO PUSH2 0x185A JUMPI PUSH1 0x0 DUP2 DUP2 PUSH2 0x1851 SWAP2 SWAP1 PUSH2 0x185E JUMP JUMPDEST POP PUSH1 0x1 ADD PUSH2 0x183B JUMP JUMPDEST POP SWAP1 JUMP JUMPDEST POP DUP1 SLOAD PUSH2 0x186A SWAP1 PUSH2 0x232E JUMP JUMPDEST PUSH1 0x0 DUP3 SSTORE DUP1 PUSH1 0x1F LT PUSH2 0x187C JUMPI POP PUSH2 0x189B JUMP JUMPDEST PUSH1 0x1F ADD PUSH1 0x20 SWAP1 DIV SWAP1 PUSH1 0x0 MSTORE PUSH1 0x20 PUSH1 0x0 KECCAK256 SWAP1 DUP2 ADD SWAP1 PUSH2 0x189A SWAP2 SWAP1 PUSH2 0x189E JUMP JUMPDEST JUMPDEST POP JUMP JUMPDEST JUMPDEST DUP1 DUP3 GT ISZERO PUSH2 0x18B7 JUMPI PUSH1 0x0 DUP2 PUSH1 0x0 SWAP1 SSTORE POP PUSH1 0x1 ADD PUSH2 0x189F JUMP JUMPDEST POP SWAP1 JUMP JUMPDEST PUSH1 0x0 PUSH1 0x40 MLOAD SWAP1 POP SWAP1 JUMP JUMPDEST PUSH1 0x0 DUP1 REVERT JUMPDEST PUSH1 0x0 DUP1 REVERT JUMPDEST PUSH1 0x0 PUSH20 0xFFFFFFFFFFFFFFFFFFFFFFFFFFFFFFFFFFFFFFFF DUP3 AND SWAP1 POP SWAP2 SWAP1 POP JUMP JUMPDEST PUSH1 0x0 PUSH2 0x18FA DUP3 PUSH2 0x18CF JUMP JUMPDEST SWAP1 POP SWAP2 SWAP1 POP JUMP JUMPDEST PUSH2 0x190A DUP2 PUSH2 0x18EF JUMP JUMPDEST DUP2 EQ PUSH2 0x1915 JUMPI PUSH1 0x0 DUP1 REVERT JUMPDEST POP JUMP JUMPDEST PUSH1 0x0 DUP2 CALLDATALOAD SWAP1 POP PUSH2 0x1927 DUP2 PUSH2 0x1901 JUMP JUMPDEST SWAP3 SWAP2 POP POP JUMP JUMPDEST PUSH1 0x0 PUSH1 0x20 DUP3 DUP5 SUB SLT ISZERO PUSH2 0x1943 JUMPI PUSH2 0x1942 PUSH2 0x18C5 JUMP JUMPDEST JUMPDEST PUSH1 0x0 PUSH2 0x1951 DUP5 DUP3 DUP6 ADD PUSH2 0x1918 JUMP JUMPDEST SWAP2 POP POP SWAP3 SWAP2 POP POP JUMP JUMPDEST PUSH2 0x1963 DUP2 PUSH2 0x18EF JUMP JUMPDEST DUP3 MSTORE POP POP JUMP JUMPDEST PUSH1 0x0 DUP2 MLOAD SWAP1 POP SWAP2 SWAP1 POP JUMP JUMPDEST PUSH1 0x0 DUP3 DUP3 MSTORE PUSH1 0x20 DUP3 ADD SWAP1 POP SWAP3 SWAP2 POP POP JUMP JUMPDEST PUSH1 0x0 JUMPDEST DUP4 DUP2 LT ISZERO PUSH2 0x19A3 JUMPI DUP1 DUP3 ADD MLOAD DUP2 DUP5 ADD MSTORE PUSH1 0x20 DUP2 ADD SWAP1 POP PUSH2 0x1988 JUMP JUMPDEST PUSH1 0x0 DUP5 DUP5 ADD MSTORE POP POP POP POP JUMP JUMPDEST PUSH1 0x0 PUSH1 0x1F NOT PUSH1 0x1F DUP4 ADD AND SWAP1 POP SWAP2 SWAP1 POP JUMP JUMPDEST PUSH1 0x0 PUSH2 0x19CB DUP3 PUSH2 0x1969 JUMP JUMPDEST PUSH2 0x19D5 DUP2 DUP6 PUSH2 0x1974 JUMP JUMPDEST SWAP4 POP PUSH2 0x19E5 DUP2 DUP6 PUSH1 0x20 DUP7 ADD PUSH2 0x1985 JUMP JUMPDEST PUSH2 0x19EE DUP2 PUSH2 0x19AF JUMP JUMPDEST DUP5 ADD SWAP2 POP POP SWAP3 SWAP2 POP POP JUMP JUMPDEST PUSH1 0x0 DUP2 SWAP1 POP SWAP2 SWAP1 POP JUMP JUMPDEST PUSH2 0x1A0C DUP2 PUSH2 0x19F9 JUMP JUMPDEST DUP3 MSTORE POP POP JUMP JUMPDEST PUSH1 0x0 DUP2 ISZERO ISZERO SWAP1 POP SWAP2 SWAP1 POP JUMP JUMPDEST PUSH2 0x1A27 DUP2 PUSH2 0x1A12 JUMP JUMPDEST DUP3 MSTORE POP POP JUMP JUMPDEST PUSH1 0x0 PUSH2 0x100 DUP3 ADD SWAP1 POP PUSH2 0x1A43 PUSH1 0x0 DUP4 ADD DUP12 PUSH2 0x195A JUMP JUMPDEST DUP2 DUP2 SUB PUSH1 0x20 DUP4 ADD MSTORE PUSH2 0x1A55 DUP2 DUP11 PUSH2 0x19C0 JUMP JUMPDEST SWAP1 POP DUP2 DUP2 SUB PUSH1 0x40 DUP4 ADD MSTORE PUSH2 0x1A69 DUP2 DUP10 PUSH2 0x19C0 JUMP JUMPDEST SWAP1 POP PUSH2 0x1A78 PUSH1 0x60 DUP4 ADD DUP9 PUSH2 0x1A03 JUMP JUMPDEST DUP2 DUP2 SUB PUSH1 0x80 DUP4 ADD MSTORE PUSH2 0x1A8A DUP2 DUP8 PUSH2 0x19C0 JUMP JUMPDEST SWAP1 POP DUP2 DUP2 SUB PUSH1 0xA0 DUP4 ADD MSTORE PUSH2 0x1A9E DUP2 DUP7 PUSH2 0x19C0 JUMP JUMPDEST SWAP1 POP PUSH2 0x1AAD PUSH1 0xC0 DUP4 ADD DUP6 PUSH2 0x1A1E JUMP JUMPDEST PUSH2 0x1ABA PUSH1 0xE0 DUP4 ADD DUP5 PUSH2 0x1A03 JUMP JUMPDEST SWAP10 SWAP9 POP POP POP POP POP POP POP POP POP JUMP JUMPDEST PUSH1 0x0 PUSH1 0x20 DUP3 ADD SWAP1 POP PUSH2 0x1ADC PUSH1 0x0 DUP4 ADD DUP5 PUSH2 0x1A03 JUMP JUMPDEST SWAP3 SWAP2 POP POP JUMP JUMPDEST PUSH2 0x1AEB DUP2 PUSH2 0x19F9 JUMP JUMPDEST DUP2 EQ PUSH2 0x1AF6 JUMPI PUSH1 0x0 DUP1 REVERT JUMPDEST POP JUMP JUMPDEST PUSH1 0x0 DUP2 CALLDATALOAD SWAP1 POP PUSH2 0x1B08 DUP2 PUSH2 0x1AE2 JUMP JUMPDEST SWAP3 SWAP2 POP POP JUMP JUMPDEST PUSH1 0x0 PUSH1 0x20 DUP3 DUP5 SUB SLT ISZERO PUSH2 0x1B24 JUMPI PUSH2 0x1B23 PUSH2 0x18C5 JUMP JUMPDEST JUMPDEST PUSH1 0x0 PUSH2 0x1B32 DUP5 DUP3 DUP6 ADD PUSH2 0x1AF9 JUMP JUMPDEST SWAP2 POP POP SWAP3 SWAP2 POP POP JUMP JUMPDEST PUSH1 0x0 PUSH1 0xFF DUP3 AND SWAP1 POP SWAP2 SWAP1 POP JUMP JUMPDEST PUSH2 0x1B51 DUP2 PUSH2 0x1B3B JUMP JUMPDEST DUP3 MSTORE POP POP JUMP JUMPDEST PUSH1 0x0 PUSH1 0xE0 DUP3 ADD SWAP1 POP PUSH2 0x1B6C PUSH1 0x0 DUP4 ADD DUP11 PUSH2 0x1B48 JUMP JUMPDEST PUSH2 0x1B79 PUSH1 0x20 DUP4 ADD DUP10 PUSH2 0x195A JUMP JUMPDEST DUP2 DUP2 SUB PUSH1 0x40 DUP4 ADD MSTORE PUSH2 0x1B8B DUP2 DUP9 PUSH2 0x19C0 JUMP JUMPDEST SWAP1 POP DUP2 DUP2 SUB PUSH1 0x60 DUP4 ADD MSTORE PUSH2 0x1B9F DUP2 DUP8 PUSH2 0x19C0 JUMP JUMPDEST SWAP1 POP PUSH2 0x1BAE PUSH1 0x80 DUP4 ADD DUP7 PUSH2 0x1A03 JUMP JUMPDEST PUSH2 0x1BBB PUSH1 0xA0 DUP4 ADD DUP6 PUSH2 0x1A1E JUMP JUMPDEST PUSH2 0x1BC8 PUSH1 0xC0 DUP4 ADD DUP5 PUSH2 0x195A JUMP JUMPDEST SWAP9 SWAP8 POP POP POP POP POP POP POP POP JUMP JUMPDEST PUSH1 0x0 PUSH1 0x20 DUP3 ADD SWAP1 POP PUSH2 0x1BE9 PUSH1 0x0 DUP4 ADD DUP5 PUSH2 0x1B48 JUMP JUMPDEST SWAP3 SWAP2 POP POP JUMP JUMPDEST PUSH2 0x1BF8 DUP2 PUSH2 0x18EF JUMP JUMPDEST DUP3 MSTORE POP POP JUMP JUMPDEST PUSH1 0x0 DUP3 DUP3 MSTORE PUSH1 0x20 DUP3 ADD SWAP1 POP SWAP3 SWAP2 POP POP JUMP JUMPDEST PUSH1 0x0 PUSH2 0x1C1A DUP3 PUSH2 0x1969 JUMP JUMPDEST PUSH2 0x1C24 DUP2 DUP6 PUSH2 0x1BFE JUMP JUMPDEST SWAP4 POP PUSH2 0x1C34 DUP2 DUP6 PUSH1 0x20 DUP7 ADD PUSH2 0x1985 JUMP JUMPDEST PUSH2 0x1C3D DUP2 PUSH2 0x19AF JUMP JUMPDEST DUP5 ADD SWAP2 POP POP SWAP3 SWAP2 POP POP JUMP JUMPDEST PUSH2 0x1C51 DUP2 PUSH2 0x19F9 JUMP JUMPDEST DUP3 MSTORE POP POP JUMP JUMPDEST PUSH1 0x0 DUP2 MLOAD SWAP1 POP SWAP2 SWAP1 POP JUMP JUMPDEST PUSH1 0x0 DUP3 DUP3 MSTORE PUSH1 0x20 DUP3 ADD SWAP1 POP SWAP3 SWAP2 POP POP JUMP JUMPDEST PUSH1 0x0 DUP2 SWAP1 POP PUSH1 0x20 DUP3 ADD SWAP1 POP SWAP2 SWAP1 POP JUMP JUMPDEST PUSH1 0x0 PUSH2 0x1C8F DUP4 DUP4 PUSH2 0x1C0F JUMP JUMPDEST SWAP1 POP SWAP3 SWAP2 POP POP JUMP JUMPDEST PUSH1 0x0 PUSH1 0x20 DUP3 ADD SWAP1 POP SWAP2 SWAP1 POP JUMP JUMPDEST PUSH1 0x0 PUSH2 0x1CAF DUP3 PUSH2 0x1C57 JUMP JUMPDEST PUSH2 0x1CB9 DUP2 DUP6 PUSH2 0x1C62 JUMP JUMPDEST SWAP4 POP DUP4 PUSH1 0x20 DUP3 MUL DUP6 ADD PUSH2 0x1CCB DUP6 PUSH2 0x1C73 JUMP JUMPDEST DUP1 PUSH1 0x0 JUMPDEST DUP6 DUP2 LT ISZERO PUSH2 0x1D07 JUMPI DUP5 DUP5 SUB DUP10 MSTORE DUP2 MLOAD PUSH2 0x1CE8 DUP6 DUP3 PUSH2 0x1C83 JUMP JUMPDEST SWAP5 POP PUSH2 0x1CF3 DUP4 PUSH2 0x1C97 JUMP JUMPDEST SWAP3 POP PUSH1 0x20 DUP11 ADD SWAP10 POP POP PUSH1 0x1 DUP2 ADD SWAP1 POP PUSH2 0x1CCF JUMP JUMPDEST POP DUP3 SWAP8 POP DUP8 SWAP6 POP POP POP POP POP POP SWAP3 SWAP2 POP POP JUMP JUMPDEST PUSH2 0x1D22 DUP2 PUSH2 0x1A12 JUMP JUMPDEST DUP3 MSTORE POP POP JUMP JUMPDEST PUSH1 0x0 PUSH2 0x180 DUP4 ADD PUSH1 0x0 DUP4 ADD MLOAD PUSH2 0x1D41 PUSH1 0x0 DUP7 ADD DUP3 PUSH2 0x1BEF JUMP JUMPDEST POP PUSH1 0x20 DUP4 ADD MLOAD DUP5 DUP3 SUB PUSH1 0x20 DUP7 ADD MSTORE PUSH2 0x1D59 DUP3 DUP3 PUSH2 0x1C0F JUMP JUMPDEST SWAP2 POP POP PUSH1 0x40 DUP4 ADD MLOAD DUP5 DUP3 SUB PUSH1 0x40 DUP7 ADD MSTORE PUSH2 0x1D73 DUP3 DUP3 PUSH2 0x1C0F JUMP JUMPDEST SWAP2 POP POP PUSH1 0x60 DUP4 ADD MLOAD PUSH2 0x1D88 PUSH1 0x60 DUP7 ADD DUP3 PUSH2 0x1C48 JUMP JUMPDEST POP PUSH1 0x80 DUP4 ADD MLOAD DUP5 DUP3 SUB PUSH1 0x80 DUP7 ADD MSTORE PUSH2 0x1DA0 DUP3 DUP3 PUSH2 0x1C0F JUMP JUMPDEST SWAP2 POP POP PUSH1 0xA0 DUP4 ADD MLOAD DUP5 DUP3 SUB PUSH1 0xA0 DUP7 ADD MSTORE PUSH2 0x1DBA DUP3 DUP3 PUSH2 0x1C0F JUMP JUMPDEST SWAP2 POP POP PUSH1 0xC0 DUP4 ADD MLOAD DUP5 DUP3 SUB PUSH1 0xC0 DUP7 ADD MSTORE PUSH2 0x1DD4 DUP3 DUP3 PUSH2 0x1C0F JUMP JUMPDEST SWAP2 POP POP PUSH1 0xE0 DUP4 ADD MLOAD DUP5 DUP3 SUB PUSH1 0xE0 DUP7 ADD MSTORE PUSH2 0x1DEE DUP3 DUP3 PUSH2 0x1CA4 JUMP JUMPDEST SWAP2 POP POP PUSH2 0x100 DUP4 ADD MLOAD PUSH2 0x1E05 PUSH2 0x100 DUP7 ADD DUP3 PUSH2 0x1C48 JUMP JUMPDEST POP PUSH2 0x120 DUP4 ADD MLOAD PUSH2 0x1E1A PUSH2 0x120 DUP7 ADD DUP3 PUSH2 0x1D19 JUMP JUMPDEST POP PUSH2 0x140 DUP4 ADD MLOAD PUSH2 0x1E2F PUSH2 0x140 DUP7 ADD DUP3 PUSH2 0x1C48 JUMP JUMPDEST POP PUSH2 0x160 DUP4 ADD MLOAD PUSH2 0x1E44 PUSH2 0x160 DUP7 ADD DUP3 PUSH2 0x1C48 JUMP JUMPDEST POP DUP1 SWAP2 POP POP SWAP3 SWAP2 POP POP JUMP JUMPDEST PUSH1 0x0 PUSH1 0x20 DUP3 ADD SWAP1 POP DUP2 DUP2 SUB PUSH1 0x0 DUP4 ADD MSTORE PUSH2 0x1E69 DUP2 DUP5 PUSH2 0x1D28 JUMP JUMPDEST SWAP1 POP SWAP3 SWAP2 POP POP JUMP JUMPDEST PUSH1 0x0 PUSH2 0x160 DUP3 ADD SWAP1 POP PUSH2 0x1E87 PUSH1 0x0 DUP4 ADD DUP15 PUSH2 0x195A JUMP JUMPDEST DUP2 DUP2 SUB PUSH1 0x20 DUP4 ADD MSTORE PUSH2 0x1E99 DUP2 DUP14 PUSH2 0x19C0 JUMP JUMPDEST SWAP1 POP DUP2 DUP2 SUB PUSH1 0x40 DUP4 ADD MSTORE PUSH2 0x1EAD DUP2 DUP13 PUSH2 0x19C0 JUMP JUMPDEST SWAP1 POP PUSH2 0x1EBC PUSH1 0x60 DUP4 ADD DUP12 PUSH2 0x1A03 JUMP JUMPDEST DUP2 DUP2 SUB PUSH1 0x80 DUP4 ADD MSTORE PUSH2 0x1ECE DUP2 DUP11 PUSH2 0x19C0 JUMP JUMPDEST SWAP1 POP DUP2 DUP2 SUB PUSH1 0xA0 DUP4 ADD MSTORE PUSH2 0x1EE2 DUP2 DUP10 PUSH2 0x19C0 JUMP JUMPDEST SWAP1 POP DUP2 DUP2 SUB PUSH1 0xC0 DUP4 ADD MSTORE PUSH2 0x1EF6 DUP2 DUP9 PUSH2 0x19C0 JUMP JUMPDEST SWAP1 POP PUSH2 0x1F05 PUSH1 0xE0 DUP4 ADD DUP8 PUSH2 0x1A03 JUMP JUMPDEST PUSH2 0x1F13 PUSH2 0x100 DUP4 ADD DUP7 PUSH2 0x1A1E JUMP JUMPDEST PUSH2 0x1F21 PUSH2 0x120 DUP4 ADD DUP6 PUSH2 0x1A03 JUMP JUMPDEST PUSH2 0x1F2F PUSH2 0x140 DUP4 ADD DUP5 PUSH2 0x1A03 JUMP JUMPDEST SWAP13 SWAP12 POP POP POP POP POP POP POP POP POP POP POP POP JUMP JUMPDEST PUSH1 0x0 DUP1 REVERT JUMPDEST PUSH1 0x0 DUP1 REVERT JUMPDEST PUSH32 0x4E487B7100000000000000000000000000000000000000000000000000000000 PUSH1 0x0 MSTORE PUSH1 0x41 PUSH1 0x4 MSTORE PUSH1 0x24 PUSH1 0x0 REVERT JUMPDEST PUSH2 0x1F81 DUP3 PUSH2 0x19AF JUMP JUMPDEST DUP2 ADD DUP2 DUP2 LT PUSH8 0xFFFFFFFFFFFFFFFF DUP3 GT OR ISZERO PUSH2 0x1FA0 JUMPI PUSH2 0x1F9F PUSH2 0x1F49 JUMP JUMPDEST JUMPDEST DUP1 PUSH1 0x40 MSTORE POP POP POP JUMP JUMPDEST PUSH1 0x0 PUSH2 0x1FB3 PUSH2 0x18BB JUMP JUMPDEST SWAP1 POP PUSH2 0x1FBF DUP3 DUP3 PUSH2 0x1F78 JUMP JUMPDEST SWAP2 SWAP1 POP JUMP JUMPDEST PUSH1 0x0 PUSH8 0xFFFFFFFFFFFFFFFF DUP3 GT ISZERO PUSH2 0x1FDF JUMPI PUSH2 0x1FDE PUSH2 0x1F49 JUMP JUMPDEST JUMPDEST PUSH2 0x1FE8 DUP3 PUSH2 0x19AF JUMP JUMPDEST SWAP1 POP PUSH1 0x20 DUP2 ADD SWAP1 POP SWAP2 SWAP1 POP JUMP JUMPDEST DUP3 DUP2 DUP4 CALLDATACOPY PUSH1 0x0 DUP4 DUP4 ADD MSTORE POP POP POP JUMP JUMPDEST PUSH1 0x0 PUSH2 0x2017 PUSH2 0x2012 DUP5 PUSH2 0x1FC4 JUMP JUMPDEST PUSH2 0x1FA9 JUMP JUMPDEST SWAP1 POP DUP3 DUP2 MSTORE PUSH1 0x20 DUP2 ADD DUP5 DUP5 DUP5 ADD GT ISZERO PUSH2 0x2033 JUMPI PUSH2 0x2032 PUSH2 0x1F44 JUMP JUMPDEST JUMPDEST PUSH2 0x203E DUP5 DUP3 DUP6 PUSH2 0x1FF5 JUMP JUMPDEST POP SWAP4 SWAP3 POP POP POP JUMP JUMPDEST PUSH1 0x0 DUP3 PUSH1 0x1F DUP4 ADD SLT PUSH2 0x205B JUMPI PUSH2 0x205A PUSH2 0x1F3F JUMP JUMPDEST JUMPDEST DUP2 CALLDATALOAD PUSH2 0x206B DUP5 DUP3 PUSH1 0x20 DUP7 ADD PUSH2 0x2004 JUMP JUMPDEST SWAP2 POP POP SWAP3 SWAP2 POP POP JUMP JUMPDEST PUSH1 0x0 PUSH8 0xFFFFFFFFFFFFFFFF DUP3 GT ISZERO PUSH2 0x208F JUMPI PUSH2 0x208E PUSH2 0x1F49 JUMP JUMPDEST JUMPDEST PUSH1 0x20 DUP3 MUL SWAP1 POP PUSH1 0x20 DUP2 ADD SWAP1 POP SWAP2 SWAP1 POP JUMP JUMPDEST PUSH1 0x0 DUP1 REVERT JUMPDEST PUSH1 0x0 PUSH2 0x20B8 PUSH2 0x20B3 DUP5 PUSH2 0x2074 JUMP JUMPDEST PUSH2 0x1FA9 JUMP JUMPDEST SWAP1 POP DUP1 DUP4 DUP3 MSTORE PUSH1 0x20 DUP3 ADD SWAP1 POP PUSH1 0x20 DUP5 MUL DUP4 ADD DUP6 DUP2 GT ISZERO PUSH2 0x20DB JUMPI PUSH2 0x20DA PUSH2 0x20A0 JUMP JUMPDEST JUMPDEST DUP4 JUMPDEST DUP2 DUP2 LT ISZERO PUSH2 0x2122 JUMPI DUP1 CALLDATALOAD PUSH8 0xFFFFFFFFFFFFFFFF DUP2 GT ISZERO PUSH2 0x2100 JUMPI PUSH2 0x20FF PUSH2 0x1F3F JUMP JUMPDEST JUMPDEST DUP1 DUP7 ADD PUSH2 0x210D DUP10 DUP3 PUSH2 0x2046 JUMP JUMPDEST DUP6 MSTORE PUSH1 0x20 DUP6 ADD SWAP5 POP POP POP PUSH1 0x20 DUP2 ADD SWAP1 POP PUSH2 0x20DD JUMP JUMPDEST POP POP POP SWAP4 SWAP3 POP POP POP JUMP JUMPDEST PUSH1 0x0 DUP3 PUSH1 0x1F DUP4 ADD SLT PUSH2 0x2141 JUMPI PUSH2 0x2140 PUSH2 0x1F3F JUMP JUMPDEST JUMPDEST DUP2 CALLDATALOAD PUSH2 0x2151 DUP5 DUP3 PUSH1 0x20 DUP7 ADD PUSH2 0x20A5 JUMP JUMPDEST SWAP2 POP POP SWAP3 SWAP2 POP POP JUMP JUMPDEST PUSH1 0x0 DUP1 PUSH1 0x0 DUP1 PUSH1 0x0 DUP1 PUSH1 0x0 PUSH1 0xE0 DUP9 DUP11 SUB SLT ISZERO PUSH2 0x2179 JUMPI PUSH2 0x2178 PUSH2 0x18C5 JUMP JUMPDEST JUMPDEST PUSH1 0x0 DUP9 ADD CALLDATALOAD PUSH8 0xFFFFFFFFFFFFFFFF DUP2 GT ISZERO PUSH2 0x2197 JUMPI PUSH2 0x2196 PUSH2 0x18CA JUMP JUMPDEST JUMPDEST PUSH2 0x21A3 DUP11 DUP3 DUP12 ADD PUSH2 0x2046 JUMP JUMPDEST SWAP8 POP POP PUSH1 0x20 DUP9 ADD CALLDATALOAD PUSH8 0xFFFFFFFFFFFFFFFF DUP2 GT ISZERO PUSH2 0x21C4 JUMPI PUSH2 0x21C3 PUSH2 0x18CA JUMP JUMPDEST JUMPDEST PUSH2 0x21D0 DUP11 DUP3 DUP12 ADD PUSH2 0x2046 JUMP JUMPDEST SWAP7 POP POP PUSH1 0x40 DUP9 ADD CALLDATALOAD PUSH8 0xFFFFFFFFFFFFFFFF DUP2 GT ISZERO PUSH2 0x21F1 JUMPI PUSH2 0x21F0 PUSH2 0x18CA JUMP JUMPDEST JUMPDEST PUSH2 0x21FD DUP11 DUP3 DUP12 ADD PUSH2 0x2046 JUMP JUMPDEST SWAP6 POP POP PUSH1 0x60 DUP9 ADD CALLDATALOAD PUSH8 0xFFFFFFFFFFFFFFFF DUP2 GT ISZERO PUSH2 0x221E JUMPI PUSH2 0x221D PUSH2 0x18CA JUMP JUMPDEST JUMPDEST PUSH2 0x222A DUP11 DUP3 DUP12 ADD PUSH2 0x2046 JUMP JUMPDEST SWAP5 POP POP PUSH1 0x80 DUP9 ADD CALLDATALOAD PUSH8 0xFFFFFFFFFFFFFFFF DUP2 GT ISZERO PUSH2 0x224B JUMPI PUSH2 0x224A PUSH2 0x18CA JUMP JUMPDEST JUMPDEST PUSH2 0x2257 DUP11 DUP3 DUP12 ADD PUSH2 0x2046 JUMP JUMPDEST SWAP4 POP POP PUSH1 0xA0 DUP9 ADD CALLDATALOAD PUSH8 0xFFFFFFFFFFFFFFFF DUP2 GT ISZERO PUSH2 0x2278 JUMPI PUSH2 0x2277 PUSH2 0x18CA JUMP JUMPDEST JUMPDEST PUSH2 0x2284 DUP11 DUP3 DUP12 ADD PUSH2 0x212C JUMP JUMPDEST SWAP3 POP POP PUSH1 0xC0 PUSH2 0x2295 DUP11 DUP3 DUP12 ADD PUSH2 0x1AF9 JUMP JUMPDEST SWAP2 POP POP SWAP3 SWAP6 SWAP9 SWAP2 SWAP5 SWAP8 POP SWAP3 SWAP6 POP JUMP JUMPDEST PUSH1 0x0 PUSH1 0x20 DUP3 ADD SWAP1 POP PUSH2 0x22B9 PUSH1 0x0 DUP4 ADD DUP5 PUSH2 0x195A JUMP JUMPDEST SWAP3 SWAP2 POP POP JUMP JUMPDEST PUSH1 0x0 DUP1 PUSH1 0x40 DUP4 DUP6 SUB SLT ISZERO PUSH2 0x22D6 JUMPI PUSH2 0x22D5 PUSH2 0x18C5 JUMP JUMPDEST JUMPDEST PUSH1 0x0 PUSH2 0x22E4 DUP6 DUP3 DUP7 ADD PUSH2 0x1918 JUMP JUMPDEST SWAP3 POP POP PUSH1 0x20 PUSH2 0x22F5 DUP6 DUP3 DUP7 ADD PUSH2 0x1AF9 JUMP JUMPDEST SWAP2 POP POP SWAP3 POP SWAP3 SWAP1 POP JUMP JUMPDEST PUSH32 0x4E487B7100000000000000000000000000000000000000000000000000000000 PUSH1 0x0 MSTORE PUSH1 0x22 PUSH1 0x4 MSTORE PUSH1 0x24 PUSH1 0x0 REVERT JUMPDEST PUSH1 0x0 PUSH1 0x2 DUP3 DIV SWAP1 POP PUSH1 0x1 DUP3 AND DUP1 PUSH2 0x2346 JUMPI PUSH1 0x7F DUP3 AND SWAP2 POP JUMPDEST PUSH1 0x20 DUP3 LT DUP2 SUB PUSH2 0x2359 JUMPI PUSH2 0x2358 PUSH2 0x22FF JUMP JUMPDEST JUMPDEST POP SWAP2 SWAP1 POP JUMP JUMPDEST PUSH32 0x4E487B7100000000000000000000000000000000000000000000000000000000 PUSH1 0x0 MSTORE PUSH1 0x11 PUSH1 0x4 MSTORE PUSH1 0x24 PUSH1 0x0 REVERT JUMPDEST PUSH1 0x0 PUSH2 0x2399 DUP3 PUSH2 0x19F9 JUMP JUMPDEST SWAP2 POP PUSH32 0xFFFFFFFFFFFFFFFFFFFFFFFFFFFFFFFFFFFFFFFFFFFFFFFFFFFFFFFFFFFFFFFF DUP3 SUB PUSH2 0x23CB JUMPI PUSH2 0x23CA PUSH2 0x235F JUMP JUMPDEST JUMPDEST PUSH1 0x1 DUP3 ADD SWAP1 POP SWAP2 SWAP1 POP JUMP JUMPDEST PUSH1 0x0 DUP2 SWAP1 POP DUP2 PUSH1 0x0 MSTORE PUSH1 0x20 PUSH1 0x0 KECCAK256 SWAP1 POP SWAP2 SWAP1 POP JUMP JUMPDEST PUSH1 0x0 PUSH1 0x20 PUSH1 0x1F DUP4 ADD DIV SWAP1 POP SWAP2 SWAP1 POP JUMP JUMPDEST PUSH1 0x0 DUP3 DUP3 SHL SWAP1 POP SWAP3 SWAP2 POP POP JUMP JUMPDEST PUSH1 0x0 PUSH1 0x8 DUP4 MUL PUSH2 0x2438 PUSH32 0xFFFFFFFFFFFFFFFFFFFFFFFFFFFFFFFFFFFFFFFFFFFFFFFFFFFFFFFFFFFFFFFF DUP3 PUSH2 0x23FB JUMP JUMPDEST PUSH2 0x2442 DUP7 DUP4 PUSH2 0x23FB JUMP JUMPDEST SWAP6 POP DUP1 NOT DUP5 AND SWAP4 POP DUP1 DUP7 AND DUP5 OR SWAP3 POP POP POP SWAP4 SWAP3 POP POP POP JUMP JUMPDEST PUSH1 0x0 DUP2 SWAP1 POP SWAP2 SWAP1 POP JUMP JUMPDEST PUSH1 0x0 PUSH2 0x247F PUSH2 0x247A PUSH2 0x2475 DUP5 PUSH2 0x19F9 JUMP JUMPDEST PUSH2 0x245A JUMP JUMPDEST PUSH2 0x19F9 JUMP JUMPDEST SWAP1 POP SWAP2 SWAP1 POP JUMP JUMPDEST PUSH1 0x0 DUP2 SWAP1 POP SWAP2 SWAP1 POP JUMP JUMPDEST PUSH2 0x2499 DUP4 PUSH2 0x2464 JUMP JUMPDEST PUSH2 0x24AD PUSH2 0x24A5 DUP3 PUSH2 0x2486 JUMP JUMPDEST DUP5 DUP5 SLOAD PUSH2 0x2408 JUMP JUMPDEST DUP3 SSTORE POP POP POP POP JUMP JUMPDEST PUSH1 0x0 SWAP1 JUMP JUMPDEST PUSH2 0x24C2 PUSH2 0x24B5 JUMP JUMPDEST PUSH2 0x24CD DUP2 DUP5 DUP5 PUSH2 0x2490 JUMP JUMPDEST POP POP POP JUMP JUMPDEST JUMPDEST DUP2 DUP2 LT ISZERO PUSH2 0x24F1 JUMPI PUSH2 0x24E6 PUSH1 0x0 DUP3 PUSH2 0x24BA JUMP JUMPDEST PUSH1 0x1 DUP2 ADD SWAP1 POP PUSH2 0x24D3 JUMP JUMPDEST POP POP JUMP JUMPDEST PUSH1 0x1F DUP3 GT ISZERO PUSH2 0x2536 JUMPI PUSH2 0x2507 DUP2 PUSH2 0x23D6 JUMP JUMPDEST PUSH2 0x2510 DUP5 PUSH2 0x23EB JUMP JUMPDEST DUP2 ADD PUSH1 0x20 DUP6 LT ISZERO PUSH2 0x251F JUMPI DUP2 SWAP1 POP JUMPDEST PUSH2 0x2533 PUSH2 0x252B DUP6 PUSH2 0x23EB JUMP JUMPDEST DUP4 ADD DUP3 PUSH2 0x24D2 JUMP JUMPDEST POP POP JUMPDEST POP POP POP JUMP JUMPDEST PUSH1 0x0 DUP3 DUP3 SHR SWAP1 POP SWAP3 SWAP2 POP POP JUMP JUMPDEST PUSH1 0x0 PUSH2 0x2559 PUSH1 0x0 NOT DUP5 PUSH1 0x8 MUL PUSH2 0x253B JUMP JUMPDEST NOT DUP1 DUP4 AND SWAP2 POP POP SWAP3 SWAP2 POP POP JUMP JUMPDEST PUSH1 0x0 PUSH2 0x2572 DUP4 DUP4 PUSH2 0x2548 JUMP JUMPDEST SWAP2 POP DUP3 PUSH1 0x2 MUL DUP3 OR SWAP1 POP SWAP3 SWAP2 POP POP JUMP JUMPDEST PUSH2 0x258B DUP3 PUSH2 0x1969 JUMP JUMPDEST PUSH8 0xFFFFFFFFFFFFFFFF DUP2 GT ISZERO PUSH2 0x25A4 JUMPI PUSH2 0x25A3 PUSH2 0x1F49 JUMP JUMPDEST JUMPDEST PUSH2 0x25AE DUP3 SLOAD PUSH2 0x232E JUMP JUMPDEST PUSH2 0x25B9 DUP3 DUP3 DUP6 PUSH2 0x24F5 JUMP JUMPDEST PUSH1 0x0 PUSH1 0x20 SWAP1 POP PUSH1 0x1F DUP4 GT PUSH1 0x1 DUP2 EQ PUSH2 0x25EC JUMPI PUSH1 0x0 DUP5 ISZERO PUSH2 0x25DA JUMPI DUP3 DUP8 ADD MLOAD SWAP1 POP JUMPDEST PUSH2 0x25E4 DUP6 DUP3 PUSH2 0x2566 JUMP JUMPDEST DUP7 SSTORE POP PUSH2 0x264C JUMP JUMPDEST PUSH1 0x1F NOT DUP5 AND PUSH2 0x25FA DUP7 PUSH2 0x23D6 JUMP JUMPDEST PUSH1 0x0 JUMPDEST DUP3 DUP2 LT ISZERO PUSH2 0x2622 JUMPI DUP5 DUP10 ADD MLOAD DUP3 SSTORE PUSH1 0x1 DUP3 ADD SWAP2 POP PUSH1 0x20 DUP6 ADD SWAP5 POP PUSH1 0x20 DUP2 ADD SWAP1 POP PUSH2 0x25FD JUMP JUMPDEST DUP7 DUP4 LT ISZERO PUSH2 0x263F JUMPI DUP5 DUP10 ADD MLOAD PUSH2 0x263B PUSH1 0x1F DUP10 AND DUP3 PUSH2 0x2548 JUMP JUMPDEST DUP4 SSTORE POP JUMPDEST PUSH1 0x1 PUSH1 0x2 DUP9 MUL ADD DUP9 SSTORE POP POP POP JUMPDEST POP POP POP POP POP POP JUMP JUMPDEST PUSH1 0x0 DUP3 DUP3 MSTORE PUSH1 0x20 DUP3 ADD SWAP1 POP SWAP3 SWAP2 POP POP JUMP JUMPDEST PUSH1 0x0 PUSH2 0x2670 DUP3 PUSH2 0x1C57 JUMP JUMPDEST PUSH2 0x267A DUP2 DUP6 PUSH2 0x2654 JUMP JUMPDEST SWAP4 POP DUP4 PUSH1 0x20 DUP3 MUL DUP6 ADD PUSH2 0x268C DUP6 PUSH2 0x1C73 JUMP JUMPDEST DUP1 PUSH1 0x0 JUMPDEST DUP6 DUP2 LT ISZERO PUSH2 0x26C8 JUMPI DUP5 DUP5 SUB DUP10 MSTORE DUP2 MLOAD PUSH2 0x26A9 DUP6 DUP3 PUSH2 0x1C83 JUMP JUMPDEST SWAP5 POP PUSH2 0x26B4 DUP4 PUSH2 0x1C97 JUMP JUMPDEST SWAP3 POP PUSH1 0x20 DUP11 ADD SWAP10 POP POP PUSH1 0x1 DUP2 ADD SWAP1 POP PUSH2 0x2690 JUMP JUMPDEST POP DUP3 SWAP8 POP DUP8 SWAP6 POP POP POP POP POP POP SWAP3 SWAP2 POP POP JUMP JUMPDEST PUSH1 0x0 PUSH1 0x60 DUP3 ADD SWAP1 POP PUSH2 0x26EF PUSH1 0x0 DUP4 ADD DUP7 PUSH2 0x195A JUMP JUMPDEST DUP2 DUP2 SUB PUSH1 0x20 DUP4 ADD MSTORE PUSH2 0x2701 DUP2 DUP6 PUSH2 0x2665 JUMP JUMPDEST SWAP1 POP PUSH2 0x2710 PUSH1 0x40 DUP4 ADD DUP5 PUSH2 0x1A03 JUMP JUMPDEST SWAP5 SWAP4 POP POP POP POP JUMP JUMPDEST PUSH32 0x4E42570000000000000000000000000000000000000000000000000000000000 PUSH1 0x0 DUP3 ADD MSTORE POP JUMP JUMPDEST PUSH1 0x0 PUSH2 0x274E PUSH1 0x3 DUP4 PUSH2 0x1974 JUMP JUMPDEST SWAP2 POP PUSH2 0x2759 DUP3 PUSH2 0x2718 JUMP JUMPDEST PUSH1 0x20 DUP3 ADD SWAP1 POP SWAP2 SWAP1 POP JUMP JUMPDEST PUSH1 0x0 PUSH1 0x20 DUP3 ADD SWAP1 POP DUP2 DUP2 SUB PUSH1 0x0 DUP4 ADD MSTORE PUSH2 0x277D DUP2 PUSH2 0x2741 JUMP JUMPDEST SWAP1 POP SWAP2 SWAP1 POP JUMP JUMPDEST PUSH1 0x0 PUSH2 0x278F DUP3 PUSH2 0x19F9 JUMP JUMPDEST SWAP2 POP PUSH2 0x279A DUP4 PUSH2 0x19F9 JUMP JUMPDEST SWAP3 POP DUP3 DUP3 MUL PUSH2 0x27A8 DUP2 PUSH2 0x19F9 JUMP JUMPDEST SWAP2 POP DUP3 DUP3 DIV DUP5 EQ DUP4 ISZERO OR PUSH2 0x27BF JUMPI PUSH2 0x27BE PUSH2 0x235F JUMP JUMPDEST JUMPDEST POP SWAP3 SWAP2 POP POP JUMP JUMPDEST PUSH32 0x4E487B7100000000000000000000000000000000000000000000000000000000 PUSH1 0x0 MSTORE PUSH1 0x12 PUSH1 0x4 MSTORE PUSH1 0x24 PUSH1 0x0 REVERT JUMPDEST PUSH1 0x0 PUSH2 0x2800 DUP3 PUSH2 0x19F9 JUMP JUMPDEST SWAP2 POP PUSH2 0x280B DUP4 PUSH2 0x19F9 JUMP JUMPDEST SWAP3 POP DUP3 PUSH2 0x281B JUMPI PUSH2 0x281A PUSH2 0x27C6 JUMP JUMPDEST JUMPDEST DUP3 DUP3 DIV SWAP1 POP SWAP3 SWAP2 POP POP JUMP JUMPDEST PUSH1 0x0 DUP2 SWAP1 POP SWAP3 SWAP2 POP POP JUMP JUMPDEST POP JUMP JUMPDEST PUSH1 0x0 PUSH2 0x2841 PUSH1 0x0 DUP4 PUSH2 0x2826 JUMP JUMPDEST SWAP2 POP PUSH2 0x284C DUP3 PUSH2 0x2831 JUMP JUMPDEST PUSH1 0x0 DUP3 ADD SWAP1 POP SWAP2 SWAP1 POP JUMP JUMPDEST PUSH1 0x0 PUSH2 0x2862 DUP3 PUSH2 0x2834 JUMP JUMPDEST SWAP2 POP DUP2 SWAP1 POP SWAP2 SWAP1 POP JUMP JUMPDEST PUSH32 0x5446000000000000000000000000000000000000000000000000000000000000 PUSH1 0x0 DUP3 ADD MSTORE POP JUMP JUMPDEST PUSH1 0x0 PUSH2 0x28A2 PUSH1 0x2 DUP4 PUSH2 0x1974 JUMP JUMPDEST SWAP2 POP PUSH2 0x28AD DUP3 PUSH2 0x286C JUMP JUMPDEST PUSH1 0x20 DUP3 ADD SWAP1 POP SWAP2 SWAP1 POP JUMP JUMPDEST PUSH1 0x0 PUSH1 0x20 DUP3 ADD SWAP1 POP DUP2 DUP2 SUB PUSH1 0x0 DUP4 ADD MSTORE PUSH2 0x28D1 DUP2 PUSH2 0x2895 JUMP JUMPDEST SWAP1 POP SWAP2 SWAP1 POP JUMP JUMPDEST PUSH1 0x0 PUSH1 0x40 DUP3 ADD SWAP1 POP PUSH2 0x28ED PUSH1 0x0 DUP4 ADD DUP6 PUSH2 0x195A JUMP JUMPDEST PUSH2 0x28FA PUSH1 0x20 DUP4 ADD DUP5 PUSH2 0x1A03 JUMP JUMPDEST SWAP4 SWAP3 POP POP POP JUMP INVALID LOG2 PUSH5 0x6970667358 0x22 SLT KECCAK256 SWAP13 0xAA 0xD5 CALLDATASIZE LOG0 PUSH3 0x669C17 0xBC MULMOD SWAP13 SWAP5 ORIGIN MUL GT PREVRANDAO 0xA6 0xC3 0xD2 REVERT 0xB4 ADDRESS REVERT EXTCODESIZE 0x4E STOP SMOD JUMPI 0xC8 SELFDESTRUCT PUSH14 0x64736F6C63430008180033000000 "},"gasEstimates":{"creation":{"codeDepositCost":"2110200","executionCost":"2243","totalCost":"2112443"},"external":{"allFreelancerAddresses(uint256)":"5022","editFreelancerProfile(string,string,string,string,string,string[],uint256)":"infinite","employers(address)":"infinite","escrowFunds(address,uint256)":"infinite","freelancers(address)":"infinite","getFreelancerByAddress(address)":"infinite","jobs(uint256)":"infinite","owner()":"2578","registerFreelancer(string,string,string,string,string,string[],uint256)":"infinite","roles(address)":"2867","totalCompletedJobs()":"2475","totalEmployers()":"2452","totalFreelancers()":"2474","totalJobs()":"2566","withdrawEarnings()":"infinite"}},"methodIdentifiers":{"allFreelancerAddresses(uint256)":"c27a9dd4","editFreelancerProfile(string,string,string,string,string,string[],uint256)":"91ca1687","employers(address)":"0be435bd","escrowFunds(address,uint256)":"fcafae11","freelancers(address)":"21bd6693","getFreelancerByAddress(address)":"1c7af7a0","jobs(uint256)":"180aedf3","owner()":"8da5cb5b","registerFreelancer(string,string,string,string,string,string[],uint256)":"58d7f895","roles(address)":"99374642","totalCompletedJobs()":"1033397b","totalEmployers()":"1906b4ce","totalFreelancers()":"5e586eb1","totalJobs()":"1ace87b3","withdrawEarnings()":"b73c6ce9"}},"storageLayout":{"storage":[{"astId":1337,"contract":"contracts/FreelancerLogic.sol:FreelancerLogic","label":"owner","offset":0,"slot":"0","type":"t_address"},{"astId":1339,"contract":"contracts/FreelancerLogic.sol:FreelancerLogic","label":"totalJobs","offset":20,"slot":"0","type":"t_uint8"},{"astId":1341,"contract":"contracts/FreelancerLogic.sol:FreelancerLogic","label":"totalFreelancers","offset":0,"slot":"1","type":"t_uint256"},{"astId":1343,"contract":"contracts/FreelancerLogic.sol:FreelancerLogic","label":"totalEmployers","offset":0,"slot":"2","type":"t_uint256"},{"astId":1345,"contract":"contracts/FreelancerLogic.sol:FreelancerLogic","label":"totalCompletedJobs","offset":0,"slot":"3","type":"t_uint256"},{"astId":1411,"contract":"contracts/FreelancerLogic.sol:FreelancerLogic","label":"jobs","offset":0,"slot":"4","type":"t_mapping(t_uint256,t_struct(Job)1363_storage)"},{"astId":1416,"contract":"contracts/FreelancerLogic.sol:FreelancerLogic","label":"freelancers","offset":0,"slot":"5","type":"t_mapping(t_address,t_struct(Freelancer)1389_storage)"},{"astId":1421,"contract":"contracts/FreelancerLogic.sol:FreelancerLogic","label":"employers","offset":0,"slot":"6","type":"t_mapping(t_address,t_struct(Employer)1406_storage)"},{"astId":1427,"contract":"contracts/FreelancerLogic.sol:FreelancerLogic","label":"escrowFunds","offset":0,"slot":"7","type":"t_mapping(t_address,t_mapping(t_uint256,t_uint256))"},{"astId":1431,"contract":"contracts/FreelancerLogic.sol:FreelancerLogic","label":"roles","offset":0,"slot":"8","type":"t_mapping(t_address,t_uint8)"},{"astId":1434,"contract":"contracts/FreelancerLogic.sol:FreelancerLogic","label":"allFreelancerAddresses","offset":0,"slot":"9","type":"t_array(t_address)dyn_storage"}],"types":{"t_address":{"encoding":"inplace","label":"address","numberOfBytes":"20"},"t_array(t_address)dyn_storage":{"base":"t_address","encoding":"dynamic_array","label":"address[]","numberOfBytes":"32"},"t_array(t_string_storage)dyn_storage":{"base":"t_string_storage","encoding":"dynamic_array","label":"string[]","numberOfBytes":"32"},"t_bool":{"encoding":"inplace","label":"bool","numberOfBytes":"1"},"t_mapping(t_address,t_mapping(t_uint256,t_uint256))":{"encoding":"mapping","key":"t_address","label":"mapping(address => mapping(uint256 => uint256))","numberOfBytes":"32","value":"t_mapping(t_uint256,t_uint256)"},"t_mapping(t_address,t_struct(Employer)1406_storage)":{"encoding":"mapping","key":"t_address","label":"mapping(address => struct Storage.Employer)","numberOfBytes":"32","value":"t_struct(Employer)1406_storage"},"t_mapping(t_address,t_struct(Freelancer)1389_storage)":{"encoding":"mapping","key":"t_address","label":"mapping(address => struct Storage.Freelancer)","numberOfBytes":"32","value":"t_struct(Freelancer)1389_storage"},"t_mapping(t_address,t_uint8)":{"encoding":"mapping","key":"t_address","label":"mapping(address => uint8)","numberOfBytes":"32","value":"t_uint8"},"t_mapping(t_uint256,t_struct(Job)1363_storage)":{"encoding":"mapping","key":"t_uint256","label":"mapping(uint256 => struct Storage.Job)","numberOfBytes":"32","value":"t_struct(Job)1363_storage"},"t_mapping(t_uint256,t_uint256)":{"encoding":"mapping","key":"t_uint256","label":"mapping(uint256 => uint256)","numberOfBytes":"32","value":"t_uint256"},"t_string_storage":{"encoding":"bytes","label":"string","numberOfBytes":"32"},"t_struct(Employer)1406_storage":{"encoding":"inplace","label":"struct Storage.Employer","members":[{"astId":1391,"contract":"contracts/FreelancerLogic.sol:FreelancerLogic","label":"employerAddress","offset":0,"slot":"0","type":"t_address"},{"astId":1393,"contract":"contracts/FreelancerLogic.sol:FreelancerLogic","label":"name","offset":0,"slot":"1","type":"t_string_storage"},{"astId":1395,"contract":"contracts/FreelancerLogic.sol:FreelancerLogic","label":"industry","offset":0,"slot":"2","type":"t_string_storage"},{"astId":1397,"contract":"contracts/FreelancerLogic.sol:FreelancerLogic","label":"balance","offset":0,"slot":"3","type":"t_uint256"},{"astId":1399,"contract":"contracts/FreelancerLogic.sol:FreelancerLogic","label":"country","offset":0,"slot":"4","type":"t_string_storage"},{"astId":1401,"contract":"contracts/FreelancerLogic.sol:FreelancerLogic","label":"image","offset":0,"slot":"5","type":"t_string_storage"},{"astId":1403,"contract":"contracts/FreelancerLogic.sol:FreelancerLogic","label":"registered","offset":0,"slot":"6","type":"t_bool"},{"astId":1405,"contract":"contracts/FreelancerLogic.sol:FreelancerLogic","label":"registration_date","offset":0,"slot":"7","type":"t_uint256"}],"numberOfBytes":"256"},"t_struct(Freelancer)1389_storage":{"encoding":"inplace","label":"struct Storage.Freelancer","members":[{"astId":1365,"contract":"contracts/FreelancerLogic.sol:FreelancerLogic","label":"freelancerAddress","offset":0,"slot":"0","type":"t_address"},{"astId":1367,"contract":"contracts/FreelancerLogic.sol:FreelancerLogic","label":"name","offset":0,"slot":"1","type":"t_string_storage"},{"astId":1369,"contract":"contracts/FreelancerLogic.sol:FreelancerLogic","label":"skills","offset":0,"slot":"2","type":"t_string_storage"},{"astId":1371,"contract":"contracts/FreelancerLogic.sol:FreelancerLogic","label":"balance","offset":0,"slot":"3","type":"t_uint256"},{"astId":1373,"contract":"contracts/FreelancerLogic.sol:FreelancerLogic","label":"country","offset":0,"slot":"4","type":"t_string_storage"},{"astId":1375,"contract":"contracts/FreelancerLogic.sol:FreelancerLogic","label":"gigTitle","offset":0,"slot":"5","type":"t_string_storage"},{"astId":1377,"contract":"contracts/FreelancerLogic.sol:FreelancerLogic","label":"gitDescription","offset":0,"slot":"6","type":"t_string_storage"},{"astId":1380,"contract":"contracts/FreelancerLogic.sol:FreelancerLogic","label":"images","offset":0,"slot":"7","type":"t_array(t_string_storage)dyn_storage"},{"astId":1382,"contract":"contracts/FreelancerLogic.sol:FreelancerLogic","label":"jobsCompleted","offset":0,"slot":"8","type":"t_uint256"},{"astId":1384,"contract":"contracts/FreelancerLogic.sol:FreelancerLogic","label":"registered","offset":0,"slot":"9","type":"t_bool"},{"astId":1386,"contract":"contracts/FreelancerLogic.sol:FreelancerLogic","label":"registration_date","offset":0,"slot":"10","type":"t_uint256"},{"astId":1388,"contract":"contracts/FreelancerLogic.sol:FreelancerLogic","label":"starting_price","offset":0,"slot":"11","type":"t_uint256"}],"numberOfBytes":"384"},"t_struct(Job)1363_storage":{"encoding":"inplace","label":"struct Storage.Job","members":[{"astId":1347,"contract":"contracts/FreelancerLogic.sol:FreelancerLogic","label":"id","offset":0,"slot":"0","type":"t_uint8"},{"astId":1349,"contract":"contracts/FreelancerLogic.sol:FreelancerLogic","label":"employer","offset":1,"slot":"0","type":"t_address"},{"astId":1351,"contract":"contracts/FreelancerLogic.sol:FreelancerLogic","label":"title","offset":0,"slot":"1","type":"t_string_storage"},{"astId":1353,"contract":"contracts/FreelancerLogic.sol:FreelancerLogic","label":"description","offset":0,"slot":"2","type":"t_string_storage"},{"astId":1355,"contract":"contracts/FreelancerLogic.sol:FreelancerLogic","label":"budget","offset":0,"slot":"3","type":"t_uint256"},{"astId":1357,"contract":"contracts/FreelancerLogic.sol:FreelancerLogic","label":"completed","offset":0,"slot":"4","type":"t_bool"},{"astId":1360,"contract":"contracts/FreelancerLogic.sol:FreelancerLogic","label":"applicants","offset":0,"slot":"5","type":"t_array(t_address)dyn_storage"},{"astId":1362,"contract":"contracts/FreelancerLogic.sol:FreelancerLogic","label":"hiredFreelancer","offset":0,"slot":"6","type":"t_address"}],"numberOfBytes":"224"},"t_uint256":{"encoding":"inplace","label":"uint256","numberOfBytes":"32"},"t_uint8":{"encoding":"inplace","label":"uint8","numberOfBytes":"1"}}},"userdoc":{"kind":"user","methods":{},"version":1}}}}