{"contracts/FreelancerLogic.sol":{"FreelancerLogic":{"abi":[{"inputs":[],"name":"AR_F","type":"error"},{"inputs":[],"name":"II_F","type":"error"},{"inputs":[],"name":"WR_F","type":"error"},{"anonymous":false,"inputs":[{"indexed":false,"internalType":"address","name":"freelancerAddress","type":"address"},{"indexed":false,"internalType":"string[2]","name":"images","type":"string[2]"},{"indexed":false,"internalType":"uint256","name":"amount","type":"uint256"}],"name":"FreelancerRegistered","type":"event"},{"anonymous":false,"inputs":[{"indexed":false,"internalType":"address","name":"freelancer","type":"address"},{"indexed":false,"internalType":"uint256","name":"amount","type":"uint256"}],"name":"WithdrawFund","type":"event"},{"inputs":[{"internalType":"uint256","name":"","type":"uint256"}],"name":"allFreelancerAddresses","outputs":[{"internalType":"address","name":"","type":"address"}],"stateMutability":"view","type":"function"},{"inputs":[{"internalType":"string","name":"_name","type":"string"},{"internalType":"string","name":"_skills","type":"string"},{"internalType":"string","name":"_country","type":"string"},{"internalType":"string","name":"_gigTitle","type":"string"},{"internalType":"string","name":"_gigDesc","type":"string"},{"internalType":"string[2]","name":"_images","type":"string[2]"},{"internalType":"uint256","name":"_starting_price","type":"uint256"}],"name":"editFreelancerProfile","outputs":[],"stateMutability":"nonpayable","type":"function"},{"inputs":[{"internalType":"address","name":"","type":"address"}],"name":"employers","outputs":[{"internalType":"address","name":"employerAddress","type":"address"},{"internalType":"string","name":"name","type":"string"},{"internalType":"string","name":"industry","type":"string"},{"internalType":"uint256","name":"balance","type":"uint256"},{"internalType":"string","name":"country","type":"string"},{"internalType":"string","name":"image","type":"string"},{"internalType":"bool","name":"registered","type":"bool"},{"internalType":"uint256","name":"registration_date","type":"uint256"}],"stateMutability":"view","type":"function"},{"inputs":[{"internalType":"address","name":"","type":"address"},{"internalType":"uint256","name":"","type":"uint256"}],"name":"escrowFunds","outputs":[{"internalType":"uint256","name":"","type":"uint256"}],"stateMutability":"view","type":"function"},{"inputs":[{"internalType":"address","name":"","type":"address"}],"name":"freelancers","outputs":[{"internalType":"address","name":"freelancerAddress","type":"address"},{"internalType":"string","name":"name","type":"string"},{"internalType":"string","name":"skills","type":"string"},{"internalType":"uint256","name":"balance","type":"uint256"},{"internalType":"string","name":"country","type":"string"},{"internalType":"string","name":"gigTitle","type":"string"},{"internalType":"string","name":"gitDescription","type":"string"},{"internalType":"uint256","name":"jobsCompleted","type":"uint256"},{"internalType":"bool","name":"registered","type":"bool"},{"internalType":"uint256","name":"registration_date","type":"uint256"},{"internalType":"uint256","name":"starting_price","type":"uint256"}],"stateMutability":"view","type":"function"},{"inputs":[{"internalType":"uint256","name":"","type":"uint256"}],"name":"jobs","outputs":[{"internalType":"uint8","name":"id","type":"uint8"},{"internalType":"address","name":"employer","type":"address"},{"internalType":"string","name":"title","type":"string"},{"internalType":"string","name":"description","type":"string"},{"internalType":"uint256","name":"budget","type":"uint256"},{"internalType":"bool","name":"completed","type":"bool"},{"internalType":"address","name":"hiredFreelancer","type":"address"}],"stateMutability":"view","type":"function"},{"inputs":[],"name":"owner","outputs":[{"internalType":"address","name":"","type":"address"}],"stateMutability":"view","type":"function"},{"inputs":[{"internalType":"string","name":"_name","type":"string"},{"internalType":"string","name":"_skills","type":"string"},{"internalType":"string","name":"_country","type":"string"},{"internalType":"string","name":"_gigTitle","type":"string"},{"internalType":"string","name":"_gigDesc","type":"string"},{"internalType":"string[2]","name":"_images","type":"string[2]"},{"internalType":"uint256","name":"_starting_price","type":"uint256"}],"name":"registerFreelancer","outputs":[],"stateMutability":"nonpayable","type":"function"},{"inputs":[{"internalType":"address","name":"","type":"address"}],"name":"roles","outputs":[{"internalType":"uint8","name":"","type":"uint8"}],"stateMutability":"view","type":"function"},{"inputs":[],"name":"totalCompletedJobs","outputs":[{"internalType":"uint256","name":"","type":"uint256"}],"stateMutability":"view","type":"function"},{"inputs":[],"name":"totalEmployers","outputs":[{"internalType":"uint256","name":"","type":"uint256"}],"stateMutability":"view","type":"function"},{"inputs":[],"name":"totalFreelancers","outputs":[{"internalType":"uint256","name":"","type":"uint256"}],"stateMutability":"view","type":"function"},{"inputs":[],"name":"totalJobs","outputs":[{"internalType":"uint8","name":"","type":"uint8"}],"stateMutability":"view","type":"function"},{"inputs":[],"name":"withdrawEarnings","outputs":[],"stateMutability":"nonpayable","type":"function"}],"devdoc":{"kind":"dev","methods":{},"version":1},"evm":{"bytecode":{"linkReferences":{},"object":"608060405234801561001057600080fd5b506121ac806100206000396000f3fe608060405234801561001057600080fd5b50600436106100ea5760003560e01c80635e586eb11161008c57806399374642116100665780639937464214610264578063b73c6ce914610294578063c27a9dd41461029e578063fcafae11146102ce576100ea565b80635e586eb11461020c5780638da5cb5b1461022a5780639447cc3c14610248576100ea565b80631906b4ce116100c85780631906b4ce1461017a5780631ace87b31461019857806321bd6693146101b65780634398d285146101f0576100ea565b80630be435bd146100ef5780631033397b14610126578063180aedf314610144575b600080fd5b610109600480360381019061010491906113bc565b6102fe565b60405161011d9897969594939291906114bc565b60405180910390f35b61012e610593565b60405161013b9190611556565b60405180910390f35b61015e6004803603810190610159919061159d565b610599565b60405161017197969594939291906115e6565b60405180910390f35b610182610745565b60405161018f9190611556565b60405180910390f35b6101a061074b565b6040516101ad9190611663565b60405180910390f35b6101d060048036038101906101cb91906113bc565b61075e565b6040516101e79b9a9998979695949392919061167e565b60405180910390f35b61020a60048036038101906102059190611955565b610a8d565b005b610214610c22565b6040516102219190611556565b60405180910390f35b610232610c28565b60405161023f9190611a9f565b60405180910390f35b610262600480360381019061025d9190611955565b610c4c565b005b61027e600480360381019061027991906113bc565b610fd1565b60405161028b9190611663565b60405180910390f35b61029c610ff1565b005b6102b860048036038101906102b3919061159d565b611219565b6040516102c59190611a9f565b60405180910390f35b6102e860048036038101906102e39190611aba565b611258565b6040516102f59190611556565b60405180910390f35b60066020528060005260406000206000915090508060000160009054906101000a900473ffffffffffffffffffffffffffffffffffffffff169080600101805461034790611b29565b80601f016020809104026020016040519081016040528092919081815260200182805461037390611b29565b80156103c05780601f10610395576101008083540402835291602001916103c0565b820191906000526020600020905b8154815290600101906020018083116103a357829003601f168201915b5050505050908060020180546103d590611b29565b80601f016020809104026020016040519081016040528092919081815260200182805461040190611b29565b801561044e5780601f106104235761010080835404028352916020019161044e565b820191906000526020600020905b81548152906001019060200180831161043157829003601f168201915b50505050509080600301549080600401805461046990611b29565b80601f016020809104026020016040519081016040528092919081815260200182805461049590611b29565b80156104e25780601f106104b7576101008083540402835291602001916104e2565b820191906000526020600020905b8154815290600101906020018083116104c557829003601f168201915b5050505050908060050180546104f790611b29565b80601f016020809104026020016040519081016040528092919081815260200182805461052390611b29565b80156105705780601f1061054557610100808354040283529160200191610570565b820191906000526020600020905b81548152906001019060200180831161055357829003601f168201915b5050505050908060060160009054906101000a900460ff16908060070154905088565b60035481565b60046020528060005260406000206000915090508060000160009054906101000a900460ff16908060000160019054906101000a900473ffffffffffffffffffffffffffffffffffffffff16908060010180546105f590611b29565b80601f016020809104026020016040519081016040528092919081815260200182805461062190611b29565b801561066e5780601f106106435761010080835404028352916020019161066e565b820191906000526020600020905b81548152906001019060200180831161065157829003601f168201915b50505050509080600201805461068390611b29565b80601f01602080910402602001604051908101604052809291908181526020018280546106af90611b29565b80156106fc5780601f106106d1576101008083540402835291602001916106fc565b820191906000526020600020905b8154815290600101906020018083116106df57829003601f168201915b5050505050908060030154908060040160009054906101000a900460ff16908060060160009054906101000a900473ffffffffffffffffffffffffffffffffffffffff16905087565b60025481565b600060149054906101000a900460ff1681565b60056020528060005260406000206000915090508060000160009054906101000a900473ffffffffffffffffffffffffffffffffffffffff16908060010180546107a790611b29565b80601f01602080910402602001604051908101604052809291908181526020018280546107d390611b29565b80156108205780601f106107f557610100808354040283529160200191610820565b820191906000526020600020905b81548152906001019060200180831161080357829003601f168201915b50505050509080600201805461083590611b29565b80601f016020809104026020016040519081016040528092919081815260200182805461086190611b29565b80156108ae5780601f10610883576101008083540402835291602001916108ae565b820191906000526020600020905b81548152906001019060200180831161089157829003601f168201915b5050505050908060030154908060040180546108c990611b29565b80601f01602080910402602001604051908101604052809291908181526020018280546108f590611b29565b80156109425780601f1061091757610100808354040283529160200191610942565b820191906000526020600020905b81548152906001019060200180831161092557829003601f168201915b50505050509080600501805461095790611b29565b80601f016020809104026020016040519081016040528092919081815260200182805461098390611b29565b80156109d05780601f106109a5576101008083540402835291602001916109d0565b820191906000526020600020905b8154815290600101906020018083116109b357829003601f168201915b5050505050908060060180546109e590611b29565b80601f0160208091040260200160405190810160405280929190818152602001828054610a1190611b29565b8015610a5e5780601f10610a3357610100808354040283529160200191610a5e565b820191906000526020600020905b815481529060010190602001808311610a4157829003601f168201915b50505050509080600901549080600a0160009054906101000a900460ff169080600b01549080600c015490508b565b6002600860003373ffffffffffffffffffffffffffffffffffffffff1673ffffffffffffffffffffffffffffffffffffffff16815260200190815260200160002060009054906101000a900460ff1660ff1614610b16576040517fc23cf1f400000000000000000000000000000000000000000000000000000000815260040160405180910390fd5b600087511480610b27575060008651145b15610b5e576040517fbd0febc100000000000000000000000000000000000000000000000000000000815260040160405180910390fd5b6000600560003373ffffffffffffffffffffffffffffffffffffffff1673ffffffffffffffffffffffffffffffffffffffff168152602001908152602001600020905087816001019081610bb29190611d06565b5086816002019081610bc49190611d06565b5085816004019081610bd69190611d06565b5084816005019081610be89190611d06565b5083816006019081610bfa9190611d06565b508281600701906002610c0e92919061127d565b508181600c01819055505050505050505050565b60015481565b60008054906101000a900473ffffffffffffffffffffffffffffffffffffffff1681565b6000600860003373ffffffffffffffffffffffffffffffffffffffff1673ffffffffffffffffffffffffffffffffffffffff16815260200190815260200160002060009054906101000a900460ff1660ff1614610cd5576040517f0af79ad300000000000000000000000000000000000000000000000000000000815260040160405180910390fd5b6000875111610ce357600080fd5b6000865111610cf157600080fd5b60016000815480929190610d0490611e07565b91905055506002600860003373ffffffffffffffffffffffffffffffffffffffff1673ffffffffffffffffffffffffffffffffffffffff16815260200190815260200160002060006101000a81548160ff021916908360ff1602179055506040518061018001604052803373ffffffffffffffffffffffffffffffffffffffff168152602001888152602001878152602001600081526020018681526020018581526020018481526020018381526020016000815260200160011515815260200142815260200182815250600560003373ffffffffffffffffffffffffffffffffffffffff1673ffffffffffffffffffffffffffffffffffffffff16815260200190815260200160002060008201518160000160006101000a81548173ffffffffffffffffffffffffffffffffffffffff021916908373ffffffffffffffffffffffffffffffffffffffff1602179055506020820151816001019081610e6a9190611d06565b506040820151816002019081610e809190611d06565b50606082015181600301556080820151816004019081610ea09190611d06565b5060a0820151816005019081610eb69190611d06565b5060c0820151816006019081610ecc9190611d06565b5060e082015181600701906002610ee492919061127d565b50610100820151816009015561012082015181600a0160006101000a81548160ff02191690831515021790555061014082015181600b015561016082015181600c01559050506009339080600181540180825580915050600190039060005260206000200160009091909190916101000a81548173ffffffffffffffffffffffffffffffffffffffff021916908373ffffffffffffffffffffffffffffffffffffffff1602179055507f32c39bbab01bf382b8fba9407dda0afe0b705a5bfef4492708c0cd1e1cacce08338383604051610fc093929190611f4f565b60405180910390a150505050505050565b60086020528060005260406000206000915054906101000a900460ff1681565b6002600860003373ffffffffffffffffffffffffffffffffffffffff1673ffffffffffffffffffffffffffffffffffffffff16815260200190815260200160002060009054906101000a900460ff1660ff161461107a576040517fc23cf1f400000000000000000000000000000000000000000000000000000000815260040160405180910390fd5b6000600560003373ffffffffffffffffffffffffffffffffffffffff1673ffffffffffffffffffffffffffffffffffffffff16815260200190815260200160002090506000816003015411611104576040517f08c379a00000000000000000000000000000000000000000000000000000000081526004016110fb90611fd9565b60405180910390fd5b60006064605f83600301546111199190611ff9565b611123919061206a565b90506000826003018190555060003373ffffffffffffffffffffffffffffffffffffffff1682604051611155906120cc565b60006040518083038185875af1925050503d8060008114611192576040519150601f19603f3d011682016040523d82523d6000602084013e611197565b606091505b50509050806111db576040517f08c379a00000000000000000000000000000000000000000000000000000000081526004016111d29061212d565b60405180910390fd5b7f09ad672d4e7c4892da934d1051932ebe9ec4b6ec8c3f40d569176db3e93e5abe338360405161120c92919061214d565b60405180910390a1505050565b6009818154811061122957600080fd5b906000526020600020016000915054906101000a900473ffffffffffffffffffffffffffffffffffffffff1681565b6007602052816000526040600020602052806000526040600020600091509150505481565b82600281019282156112b8579160200282015b828111156112b75782518290816112a79190611d06565b5091602001919060010190611290565b5b5090506112c591906112c9565b5090565b5b808211156112e957600081816112e091906112ed565b506001016112ca565b5090565b5080546112f990611b29565b6000825580601f1061130b575061132a565b601f016020900490600052602060002090810190611329919061132d565b5b50565b5b8082111561134657600081600090555060010161132e565b5090565b6000604051905090565b600080fd5b600080fd5b600073ffffffffffffffffffffffffffffffffffffffff82169050919050565b60006113898261135e565b9050919050565b6113998161137e565b81146113a457600080fd5b50565b6000813590506113b681611390565b92915050565b6000602082840312156113d2576113d1611354565b5b60006113e0848285016113a7565b91505092915050565b6113f28161137e565b82525050565b600081519050919050565b600082825260208201905092915050565b60005b83811015611432578082015181840152602081019050611417565b60008484015250505050565b6000601f19601f8301169050919050565b600061145a826113f8565b6114648185611403565b9350611474818560208601611414565b61147d8161143e565b840191505092915050565b6000819050919050565b61149b81611488565b82525050565b60008115159050919050565b6114b6816114a1565b82525050565b6000610100820190506114d2600083018b6113e9565b81810360208301526114e4818a61144f565b905081810360408301526114f8818961144f565b90506115076060830188611492565b8181036080830152611519818761144f565b905081810360a083015261152d818661144f565b905061153c60c08301856114ad565b61154960e0830184611492565b9998505050505050505050565b600060208201905061156b6000830184611492565b92915050565b61157a81611488565b811461158557600080fd5b50565b60008135905061159781611571565b92915050565b6000602082840312156115b3576115b2611354565b5b60006115c184828501611588565b91505092915050565b600060ff82169050919050565b6115e0816115ca565b82525050565b600060e0820190506115fb600083018a6115d7565b61160860208301896113e9565b818103604083015261161a818861144f565b9050818103606083015261162e818761144f565b905061163d6080830186611492565b61164a60a08301856114ad565b61165760c08301846113e9565b98975050505050505050565b600060208201905061167860008301846115d7565b92915050565b600061016082019050611694600083018e6113e9565b81810360208301526116a6818d61144f565b905081810360408301526116ba818c61144f565b90506116c9606083018b611492565b81810360808301526116db818a61144f565b905081810360a08301526116ef818961144f565b905081810360c0830152611703818861144f565b905061171260e0830187611492565b6117206101008301866114ad565b61172e610120830185611492565b61173c610140830184611492565b9c9b505050505050505050505050565b600080fd5b600080fd5b7f4e487b7100000000000000000000000000000000000000000000000000000000600052604160045260246000fd5b61178e8261143e565b810181811067ffffffffffffffff821117156117ad576117ac611756565b5b80604052505050565b60006117c061134a565b90506117cc8282611785565b919050565b600067ffffffffffffffff8211156117ec576117eb611756565b5b6117f58261143e565b9050602081019050919050565b82818337600083830152505050565b600061182461181f846117d1565b6117b6565b9050828152602081018484840111156118405761183f611751565b5b61184b848285611802565b509392505050565b600082601f8301126118685761186761174c565b5b8135611878848260208601611811565b91505092915050565b600067ffffffffffffffff82111561189c5761189b611756565b5b602082029050919050565b600080fd5b60006118bf6118ba84611881565b6117b6565b905080602084028301858111156118d9576118d86118a7565b5b835b8181101561192057803567ffffffffffffffff8111156118fe576118fd61174c565b5b80860161190b8982611853565b855260208501945050506020810190506118db565b5050509392505050565b600082601f83011261193f5761193e61174c565b5b600261194c8482856118ac565b91505092915050565b600080600080600080600060e0888a03121561197457611973611354565b5b600088013567ffffffffffffffff81111561199257611991611359565b5b61199e8a828b01611853565b975050602088013567ffffffffffffffff8111156119bf576119be611359565b5b6119cb8a828b01611853565b965050604088013567ffffffffffffffff8111156119ec576119eb611359565b5b6119f88a828b01611853565b955050606088013567ffffffffffffffff811115611a1957611a18611359565b5b611a258a828b01611853565b945050608088013567ffffffffffffffff811115611a4657611a45611359565b5b611a528a828b01611853565b93505060a088013567ffffffffffffffff811115611a7357611a72611359565b5b611a7f8a828b0161192a565b92505060c0611a908a828b01611588565b91505092959891949750929550565b6000602082019050611ab460008301846113e9565b92915050565b60008060408385031215611ad157611ad0611354565b5b6000611adf858286016113a7565b9250506020611af085828601611588565b9150509250929050565b7f4e487b7100000000000000000000000000000000000000000000000000000000600052602260045260246000fd5b60006002820490506001821680611b4157607f821691505b602082108103611b5457611b53611afa565b5b50919050565b60008190508160005260206000209050919050565b60006020601f8301049050919050565b600082821b905092915050565b600060088302611bbc7fffffffffffffffffffffffffffffffffffffffffffffffffffffffffffffffff82611b7f565b611bc68683611b7f565b95508019841693508086168417925050509392505050565b6000819050919050565b6000611c03611bfe611bf984611488565b611bde565b611488565b9050919050565b6000819050919050565b611c1d83611be8565b611c31611c2982611c0a565b848454611b8c565b825550505050565b600090565b611c46611c39565b611c51818484611c14565b505050565b5b81811015611c7557611c6a600082611c3e565b600181019050611c57565b5050565b601f821115611cba57611c8b81611b5a565b611c9484611b6f565b81016020851015611ca3578190505b611cb7611caf85611b6f565b830182611c56565b50505b505050565b600082821c905092915050565b6000611cdd60001984600802611cbf565b1980831691505092915050565b6000611cf68383611ccc565b9150826002028217905092915050565b611d0f826113f8565b67ffffffffffffffff811115611d2857611d27611756565b5b611d328254611b29565b611d3d828285611c79565b600060209050601f831160018114611d705760008415611d5e578287015190505b611d688582611cea565b865550611dd0565b601f198416611d7e86611b5a565b60005b82811015611da657848901518255600182019150602085019450602081019050611d81565b86831015611dc35784890151611dbf601f891682611ccc565b8355505b6001600288020188555050505b505050505050565b7f4e487b7100000000000000000000000000000000000000000000000000000000600052601160045260246000fd5b6000611e1282611488565b91507fffffffffffffffffffffffffffffffffffffffffffffffffffffffffffffffff8203611e4457611e43611dd8565b5b600182019050919050565b600060029050919050565b600081905092915050565b6000819050919050565b600082825260208201905092915050565b6000611e8b826113f8565b611e958185611e6f565b9350611ea5818560208601611414565b611eae8161143e565b840191505092915050565b6000611ec58383611e80565b905092915050565b6000602082019050919050565b6000611ee582611e4f565b611eef8185611e5a565b935083602082028501611f0185611e65565b8060005b85811015611f3d5784840389528151611f1e8582611eb9565b9450611f2983611ecd565b925060208a01995050600181019050611f05565b50829750879550505050505092915050565b6000606082019050611f6460008301866113e9565b8181036020830152611f768185611eda565b9050611f856040830184611492565b949350505050565b7f4e42570000000000000000000000000000000000000000000000000000000000600082015250565b6000611fc3600383611403565b9150611fce82611f8d565b602082019050919050565b60006020820190508181036000830152611ff281611fb6565b9050919050565b600061200482611488565b915061200f83611488565b925082820261201d81611488565b9150828204841483151761203457612033611dd8565b5b5092915050565b7f4e487b7100000000000000000000000000000000000000000000000000000000600052601260045260246000fd5b600061207582611488565b915061208083611488565b9250826120905761208f61203b565b5b828204905092915050565b600081905092915050565b50565b60006120b660008361209b565b91506120c1826120a6565b600082019050919050565b60006120d7826120a9565b9150819050919050565b7f5446000000000000000000000000000000000000000000000000000000000000600082015250565b6000612117600283611403565b9150612122826120e1565b602082019050919050565b600060208201905081810360008301526121468161210a565b9050919050565b600060408201905061216260008301856113e9565b61216f6020830184611492565b939250505056fea2646970667358221220b96fdbf7fb23b8341402d7b37cb7d4e0692500a70118c16bba7719c4ab64f72a64736f6c63430008180033","opcodes":"PUSH1 0x80 PUSH1 0x40 MSTORE CALLVALUE DUP1 ISZERO PUSH2 0x10 JUMPI PUSH1 0x0 DUP1 REVERT JUMPDEST POP PUSH2 0x21AC DUP1 PUSH2 0x20 PUSH1 0x0 CODECOPY PUSH1 0x0 RETURN INVALID PUSH1 0x80 PUSH1 0x40 MSTORE CALLVALUE DUP1 ISZERO PUSH2 0x10 JUMPI PUSH1 0x0 DUP1 REVERT JUMPDEST POP PUSH1 0x4 CALLDATASIZE LT PUSH2 0xEA JUMPI PUSH1 0x0 CALLDATALOAD PUSH1 0xE0 SHR DUP1 PUSH4 0x5E586EB1 GT PUSH2 0x8C JUMPI DUP1 PUSH4 0x99374642 GT PUSH2 0x66 JUMPI DUP1 PUSH4 0x99374642 EQ PUSH2 0x264 JUMPI DUP1 PUSH4 0xB73C6CE9 EQ PUSH2 0x294 JUMPI DUP1 PUSH4 0xC27A9DD4 EQ PUSH2 0x29E JUMPI DUP1 PUSH4 0xFCAFAE11 EQ PUSH2 0x2CE JUMPI PUSH2 0xEA JUMP JUMPDEST DUP1 PUSH4 0x5E586EB1 EQ PUSH2 0x20C JUMPI DUP1 PUSH4 0x8DA5CB5B EQ PUSH2 0x22A JUMPI DUP1 PUSH4 0x9447CC3C EQ PUSH2 0x248 JUMPI PUSH2 0xEA JUMP JUMPDEST DUP1 PUSH4 0x1906B4CE GT PUSH2 0xC8 JUMPI DUP1 PUSH4 0x1906B4CE EQ PUSH2 0x17A JUMPI DUP1 PUSH4 0x1ACE87B3 EQ PUSH2 0x198 JUMPI DUP1 PUSH4 0x21BD6693 EQ PUSH2 0x1B6 JUMPI DUP1 PUSH4 0x4398D285 EQ PUSH2 0x1F0 JUMPI PUSH2 0xEA JUMP JUMPDEST DUP1 PUSH4 0xBE435BD EQ PUSH2 0xEF JUMPI DUP1 PUSH4 0x1033397B EQ PUSH2 0x126 JUMPI DUP1 PUSH4 0x180AEDF3 EQ PUSH2 0x144 JUMPI JUMPDEST PUSH1 0x0 DUP1 REVERT JUMPDEST PUSH2 0x109 PUSH1 0x4 DUP1 CALLDATASIZE SUB DUP2 ADD SWAP1 PUSH2 0x104 SWAP2 SWAP1 PUSH2 0x13BC JUMP JUMPDEST PUSH2 0x2FE JUMP JUMPDEST PUSH1 0x40 MLOAD PUSH2 0x11D SWAP9 SWAP8 SWAP7 SWAP6 SWAP5 SWAP4 SWAP3 SWAP2 SWAP1 PUSH2 0x14BC JUMP JUMPDEST PUSH1 0x40 MLOAD DUP1 SWAP2 SUB SWAP1 RETURN JUMPDEST PUSH2 0x12E PUSH2 0x593 JUMP JUMPDEST PUSH1 0x40 MLOAD PUSH2 0x13B SWAP2 SWAP1 PUSH2 0x1556 JUMP JUMPDEST PUSH1 0x40 MLOAD DUP1 SWAP2 SUB SWAP1 RETURN JUMPDEST PUSH2 0x15E PUSH1 0x4 DUP1 CALLDATASIZE SUB DUP2 ADD SWAP1 PUSH2 0x159 SWAP2 SWAP1 PUSH2 0x159D JUMP JUMPDEST PUSH2 0x599 JUMP JUMPDEST PUSH1 0x40 MLOAD PUSH2 0x171 SWAP8 SWAP7 SWAP6 SWAP5 SWAP4 SWAP3 SWAP2 SWAP1 PUSH2 0x15E6 JUMP JUMPDEST PUSH1 0x40 MLOAD DUP1 SWAP2 SUB SWAP1 RETURN JUMPDEST PUSH2 0x182 PUSH2 0x745 JUMP JUMPDEST PUSH1 0x40 MLOAD PUSH2 0x18F SWAP2 SWAP1 PUSH2 0x1556 JUMP JUMPDEST PUSH1 0x40 MLOAD DUP1 SWAP2 SUB SWAP1 RETURN JUMPDEST PUSH2 0x1A0 PUSH2 0x74B JUMP JUMPDEST PUSH1 0x40 MLOAD PUSH2 0x1AD SWAP2 SWAP1 PUSH2 0x1663 JUMP JUMPDEST PUSH1 0x40 MLOAD DUP1 SWAP2 SUB SWAP1 RETURN JUMPDEST PUSH2 0x1D0 PUSH1 0x4 DUP1 CALLDATASIZE SUB DUP2 ADD SWAP1 PUSH2 0x1CB SWAP2 SWAP1 PUSH2 0x13BC JUMP JUMPDEST PUSH2 0x75E JUMP JUMPDEST PUSH1 0x40 MLOAD PUSH2 0x1E7 SWAP12 SWAP11 SWAP10 SWAP9 SWAP8 SWAP7 SWAP6 SWAP5 SWAP4 SWAP3 SWAP2 SWAP1 PUSH2 0x167E JUMP JUMPDEST PUSH1 0x40 MLOAD DUP1 SWAP2 SUB SWAP1 RETURN JUMPDEST PUSH2 0x20A PUSH1 0x4 DUP1 CALLDATASIZE SUB DUP2 ADD SWAP1 PUSH2 0x205 SWAP2 SWAP1 PUSH2 0x1955 JUMP JUMPDEST PUSH2 0xA8D JUMP JUMPDEST STOP JUMPDEST PUSH2 0x214 PUSH2 0xC22 JUMP JUMPDEST PUSH1 0x40 MLOAD PUSH2 0x221 SWAP2 SWAP1 PUSH2 0x1556 JUMP JUMPDEST PUSH1 0x40 MLOAD DUP1 SWAP2 SUB SWAP1 RETURN JUMPDEST PUSH2 0x232 PUSH2 0xC28 JUMP JUMPDEST PUSH1 0x40 MLOAD PUSH2 0x23F SWAP2 SWAP1 PUSH2 0x1A9F JUMP JUMPDEST PUSH1 0x40 MLOAD DUP1 SWAP2 SUB SWAP1 RETURN JUMPDEST PUSH2 0x262 PUSH1 0x4 DUP1 CALLDATASIZE SUB DUP2 ADD SWAP1 PUSH2 0x25D SWAP2 SWAP1 PUSH2 0x1955 JUMP JUMPDEST PUSH2 0xC4C JUMP JUMPDEST STOP JUMPDEST PUSH2 0x27E PUSH1 0x4 DUP1 CALLDATASIZE SUB DUP2 ADD SWAP1 PUSH2 0x279 SWAP2 SWAP1 PUSH2 0x13BC JUMP JUMPDEST PUSH2 0xFD1 JUMP JUMPDEST PUSH1 0x40 MLOAD PUSH2 0x28B SWAP2 SWAP1 PUSH2 0x1663 JUMP JUMPDEST PUSH1 0x40 MLOAD DUP1 SWAP2 SUB SWAP1 RETURN JUMPDEST PUSH2 0x29C PUSH2 0xFF1 JUMP JUMPDEST STOP JUMPDEST PUSH2 0x2B8 PUSH1 0x4 DUP1 CALLDATASIZE SUB DUP2 ADD SWAP1 PUSH2 0x2B3 SWAP2 SWAP1 PUSH2 0x159D JUMP JUMPDEST PUSH2 0x1219 JUMP JUMPDEST PUSH1 0x40 MLOAD PUSH2 0x2C5 SWAP2 SWAP1 PUSH2 0x1A9F JUMP JUMPDEST PUSH1 0x40 MLOAD DUP1 SWAP2 SUB SWAP1 RETURN JUMPDEST PUSH2 0x2E8 PUSH1 0x4 DUP1 CALLDATASIZE SUB DUP2 ADD SWAP1 PUSH2 0x2E3 SWAP2 SWAP1 PUSH2 0x1ABA JUMP JUMPDEST PUSH2 0x1258 JUMP JUMPDEST PUSH1 0x40 MLOAD PUSH2 0x2F5 SWAP2 SWAP1 PUSH2 0x1556 JUMP JUMPDEST PUSH1 0x40 MLOAD DUP1 SWAP2 SUB SWAP1 RETURN JUMPDEST PUSH1 0x6 PUSH1 0x20 MSTORE DUP1 PUSH1 0x0 MSTORE PUSH1 0x40 PUSH1 0x0 KECCAK256 PUSH1 0x0 SWAP2 POP SWAP1 POP DUP1 PUSH1 0x0 ADD PUSH1 0x0 SWAP1 SLOAD SWAP1 PUSH2 0x100 EXP SWAP1 DIV PUSH20 0xFFFFFFFFFFFFFFFFFFFFFFFFFFFFFFFFFFFFFFFF AND SWAP1 DUP1 PUSH1 0x1 ADD DUP1 SLOAD PUSH2 0x347 SWAP1 PUSH2 0x1B29 JUMP JUMPDEST DUP1 PUSH1 0x1F ADD PUSH1 0x20 DUP1 SWAP2 DIV MUL PUSH1 0x20 ADD PUSH1 0x40 MLOAD SWAP1 DUP2 ADD PUSH1 0x40 MSTORE DUP1 SWAP3 SWAP2 SWAP1 DUP2 DUP2 MSTORE PUSH1 0x20 ADD DUP3 DUP1 SLOAD PUSH2 0x373 SWAP1 PUSH2 0x1B29 JUMP JUMPDEST DUP1 ISZERO PUSH2 0x3C0 JUMPI DUP1 PUSH1 0x1F LT PUSH2 0x395 JUMPI PUSH2 0x100 DUP1 DUP4 SLOAD DIV MUL DUP4 MSTORE SWAP2 PUSH1 0x20 ADD SWAP2 PUSH2 0x3C0 JUMP JUMPDEST DUP3 ADD SWAP2 SWAP1 PUSH1 0x0 MSTORE PUSH1 0x20 PUSH1 0x0 KECCAK256 SWAP1 JUMPDEST DUP2 SLOAD DUP2 MSTORE SWAP1 PUSH1 0x1 ADD SWAP1 PUSH1 0x20 ADD DUP1 DUP4 GT PUSH2 0x3A3 JUMPI DUP3 SWAP1 SUB PUSH1 0x1F AND DUP3 ADD SWAP2 JUMPDEST POP POP POP POP POP SWAP1 DUP1 PUSH1 0x2 ADD DUP1 SLOAD PUSH2 0x3D5 SWAP1 PUSH2 0x1B29 JUMP JUMPDEST DUP1 PUSH1 0x1F ADD PUSH1 0x20 DUP1 SWAP2 DIV MUL PUSH1 0x20 ADD PUSH1 0x40 MLOAD SWAP1 DUP2 ADD PUSH1 0x40 MSTORE DUP1 SWAP3 SWAP2 SWAP1 DUP2 DUP2 MSTORE PUSH1 0x20 ADD DUP3 DUP1 SLOAD PUSH2 0x401 SWAP1 PUSH2 0x1B29 JUMP JUMPDEST DUP1 ISZERO PUSH2 0x44E JUMPI DUP1 PUSH1 0x1F LT PUSH2 0x423 JUMPI PUSH2 0x100 DUP1 DUP4 SLOAD DIV MUL DUP4 MSTORE SWAP2 PUSH1 0x20 ADD SWAP2 PUSH2 0x44E JUMP JUMPDEST DUP3 ADD SWAP2 SWAP1 PUSH1 0x0 MSTORE PUSH1 0x20 PUSH1 0x0 KECCAK256 SWAP1 JUMPDEST DUP2 SLOAD DUP2 MSTORE SWAP1 PUSH1 0x1 ADD SWAP1 PUSH1 0x20 ADD DUP1 DUP4 GT PUSH2 0x431 JUMPI DUP3 SWAP1 SUB PUSH1 0x1F AND DUP3 ADD SWAP2 JUMPDEST POP POP POP POP POP SWAP1 DUP1 PUSH1 0x3 ADD SLOAD SWAP1 DUP1 PUSH1 0x4 ADD DUP1 SLOAD PUSH2 0x469 SWAP1 PUSH2 0x1B29 JUMP JUMPDEST DUP1 PUSH1 0x1F ADD PUSH1 0x20 DUP1 SWAP2 DIV MUL PUSH1 0x20 ADD PUSH1 0x40 MLOAD SWAP1 DUP2 ADD PUSH1 0x40 MSTORE DUP1 SWAP3 SWAP2 SWAP1 DUP2 DUP2 MSTORE PUSH1 0x20 ADD DUP3 DUP1 SLOAD PUSH2 0x495 SWAP1 PUSH2 0x1B29 JUMP JUMPDEST DUP1 ISZERO PUSH2 0x4E2 JUMPI DUP1 PUSH1 0x1F LT PUSH2 0x4B7 JUMPI PUSH2 0x100 DUP1 DUP4 SLOAD DIV MUL DUP4 MSTORE SWAP2 PUSH1 0x20 ADD SWAP2 PUSH2 0x4E2 JUMP JUMPDEST DUP3 ADD SWAP2 SWAP1 PUSH1 0x0 MSTORE PUSH1 0x20 PUSH1 0x0 KECCAK256 SWAP1 JUMPDEST DUP2 SLOAD DUP2 MSTORE SWAP1 PUSH1 0x1 ADD SWAP1 PUSH1 0x20 ADD DUP1 DUP4 GT PUSH2 0x4C5 JUMPI DUP3 SWAP1 SUB PUSH1 0x1F AND DUP3 ADD SWAP2 JUMPDEST POP POP POP POP POP SWAP1 DUP1 PUSH1 0x5 ADD DUP1 SLOAD PUSH2 0x4F7 SWAP1 PUSH2 0x1B29 JUMP JUMPDEST DUP1 PUSH1 0x1F ADD PUSH1 0x20 DUP1 SWAP2 DIV MUL PUSH1 0x20 ADD PUSH1 0x40 MLOAD SWAP1 DUP2 ADD PUSH1 0x40 MSTORE DUP1 SWAP3 SWAP2 SWAP1 DUP2 DUP2 MSTORE PUSH1 0x20 ADD DUP3 DUP1 SLOAD PUSH2 0x523 SWAP1 PUSH2 0x1B29 JUMP JUMPDEST DUP1 ISZERO PUSH2 0x570 JUMPI DUP1 PUSH1 0x1F LT PUSH2 0x545 JUMPI PUSH2 0x100 DUP1 DUP4 SLOAD DIV MUL DUP4 MSTORE SWAP2 PUSH1 0x20 ADD SWAP2 PUSH2 0x570 JUMP JUMPDEST DUP3 ADD SWAP2 SWAP1 PUSH1 0x0 MSTORE PUSH1 0x20 PUSH1 0x0 KECCAK256 SWAP1 JUMPDEST DUP2 SLOAD DUP2 MSTORE SWAP1 PUSH1 0x1 ADD SWAP1 PUSH1 0x20 ADD DUP1 DUP4 GT PUSH2 0x553 JUMPI DUP3 SWAP1 SUB PUSH1 0x1F AND DUP3 ADD SWAP2 JUMPDEST POP POP POP POP POP SWAP1 DUP1 PUSH1 0x6 ADD PUSH1 0x0 SWAP1 SLOAD SWAP1 PUSH2 0x100 EXP SWAP1 DIV PUSH1 0xFF AND SWAP1 DUP1 PUSH1 0x7 ADD SLOAD SWAP1 POP DUP9 JUMP JUMPDEST PUSH1 0x3 SLOAD DUP2 JUMP JUMPDEST PUSH1 0x4 PUSH1 0x20 MSTORE DUP1 PUSH1 0x0 MSTORE PUSH1 0x40 PUSH1 0x0 KECCAK256 PUSH1 0x0 SWAP2 POP SWAP1 POP DUP1 PUSH1 0x0 ADD PUSH1 0x0 SWAP1 SLOAD SWAP1 PUSH2 0x100 EXP SWAP1 DIV PUSH1 0xFF AND SWAP1 DUP1 PUSH1 0x0 ADD PUSH1 0x1 SWAP1 SLOAD SWAP1 PUSH2 0x100 EXP SWAP1 DIV PUSH20 0xFFFFFFFFFFFFFFFFFFFFFFFFFFFFFFFFFFFFFFFF AND SWAP1 DUP1 PUSH1 0x1 ADD DUP1 SLOAD PUSH2 0x5F5 SWAP1 PUSH2 0x1B29 JUMP JUMPDEST DUP1 PUSH1 0x1F ADD PUSH1 0x20 DUP1 SWAP2 DIV MUL PUSH1 0x20 ADD PUSH1 0x40 MLOAD SWAP1 DUP2 ADD PUSH1 0x40 MSTORE DUP1 SWAP3 SWAP2 SWAP1 DUP2 DUP2 MSTORE PUSH1 0x20 ADD DUP3 DUP1 SLOAD PUSH2 0x621 SWAP1 PUSH2 0x1B29 JUMP JUMPDEST DUP1 ISZERO PUSH2 0x66E JUMPI DUP1 PUSH1 0x1F LT PUSH2 0x643 JUMPI PUSH2 0x100 DUP1 DUP4 SLOAD DIV MUL DUP4 MSTORE SWAP2 PUSH1 0x20 ADD SWAP2 PUSH2 0x66E JUMP JUMPDEST DUP3 ADD SWAP2 SWAP1 PUSH1 0x0 MSTORE PUSH1 0x20 PUSH1 0x0 KECCAK256 SWAP1 JUMPDEST DUP2 SLOAD DUP2 MSTORE SWAP1 PUSH1 0x1 ADD SWAP1 PUSH1 0x20 ADD DUP1 DUP4 GT PUSH2 0x651 JUMPI DUP3 SWAP1 SUB PUSH1 0x1F AND DUP3 ADD SWAP2 JUMPDEST POP POP POP POP POP SWAP1 DUP1 PUSH1 0x2 ADD DUP1 SLOAD PUSH2 0x683 SWAP1 PUSH2 0x1B29 JUMP JUMPDEST DUP1 PUSH1 0x1F ADD PUSH1 0x20 DUP1 SWAP2 DIV MUL PUSH1 0x20 ADD PUSH1 0x40 MLOAD SWAP1 DUP2 ADD PUSH1 0x40 MSTORE DUP1 SWAP3 SWAP2 SWAP1 DUP2 DUP2 MSTORE PUSH1 0x20 ADD DUP3 DUP1 SLOAD PUSH2 0x6AF SWAP1 PUSH2 0x1B29 JUMP JUMPDEST DUP1 ISZERO PUSH2 0x6FC JUMPI DUP1 PUSH1 0x1F LT PUSH2 0x6D1 JUMPI PUSH2 0x100 DUP1 DUP4 SLOAD DIV MUL DUP4 MSTORE SWAP2 PUSH1 0x20 ADD SWAP2 PUSH2 0x6FC JUMP JUMPDEST DUP3 ADD SWAP2 SWAP1 PUSH1 0x0 MSTORE PUSH1 0x20 PUSH1 0x0 KECCAK256 SWAP1 JUMPDEST DUP2 SLOAD DUP2 MSTORE SWAP1 PUSH1 0x1 ADD SWAP1 PUSH1 0x20 ADD DUP1 DUP4 GT PUSH2 0x6DF JUMPI DUP3 SWAP1 SUB PUSH1 0x1F AND DUP3 ADD SWAP2 JUMPDEST POP POP POP POP POP SWAP1 DUP1 PUSH1 0x3 ADD SLOAD SWAP1 DUP1 PUSH1 0x4 ADD PUSH1 0x0 SWAP1 SLOAD SWAP1 PUSH2 0x100 EXP SWAP1 DIV PUSH1 0xFF AND SWAP1 DUP1 PUSH1 0x6 ADD PUSH1 0x0 SWAP1 SLOAD SWAP1 PUSH2 0x100 EXP SWAP1 DIV PUSH20 0xFFFFFFFFFFFFFFFFFFFFFFFFFFFFFFFFFFFFFFFF AND SWAP1 POP DUP8 JUMP JUMPDEST PUSH1 0x2 SLOAD DUP2 JUMP JUMPDEST PUSH1 0x0 PUSH1 0x14 SWAP1 SLOAD SWAP1 PUSH2 0x100 EXP SWAP1 DIV PUSH1 0xFF AND DUP2 JUMP JUMPDEST PUSH1 0x5 PUSH1 0x20 MSTORE DUP1 PUSH1 0x0 MSTORE PUSH1 0x40 PUSH1 0x0 KECCAK256 PUSH1 0x0 SWAP2 POP SWAP1 POP DUP1 PUSH1 0x0 ADD PUSH1 0x0 SWAP1 SLOAD SWAP1 PUSH2 0x100 EXP SWAP1 DIV PUSH20 0xFFFFFFFFFFFFFFFFFFFFFFFFFFFFFFFFFFFFFFFF AND SWAP1 DUP1 PUSH1 0x1 ADD DUP1 SLOAD PUSH2 0x7A7 SWAP1 PUSH2 0x1B29 JUMP JUMPDEST DUP1 PUSH1 0x1F ADD PUSH1 0x20 DUP1 SWAP2 DIV MUL PUSH1 0x20 ADD PUSH1 0x40 MLOAD SWAP1 DUP2 ADD PUSH1 0x40 MSTORE DUP1 SWAP3 SWAP2 SWAP1 DUP2 DUP2 MSTORE PUSH1 0x20 ADD DUP3 DUP1 SLOAD PUSH2 0x7D3 SWAP1 PUSH2 0x1B29 JUMP JUMPDEST DUP1 ISZERO PUSH2 0x820 JUMPI DUP1 PUSH1 0x1F LT PUSH2 0x7F5 JUMPI PUSH2 0x100 DUP1 DUP4 SLOAD DIV MUL DUP4 MSTORE SWAP2 PUSH1 0x20 ADD SWAP2 PUSH2 0x820 JUMP JUMPDEST DUP3 ADD SWAP2 SWAP1 PUSH1 0x0 MSTORE PUSH1 0x20 PUSH1 0x0 KECCAK256 SWAP1 JUMPDEST DUP2 SLOAD DUP2 MSTORE SWAP1 PUSH1 0x1 ADD SWAP1 PUSH1 0x20 ADD DUP1 DUP4 GT PUSH2 0x803 JUMPI DUP3 SWAP1 SUB PUSH1 0x1F AND DUP3 ADD SWAP2 JUMPDEST POP POP POP POP POP SWAP1 DUP1 PUSH1 0x2 ADD DUP1 SLOAD PUSH2 0x835 SWAP1 PUSH2 0x1B29 JUMP JUMPDEST DUP1 PUSH1 0x1F ADD PUSH1 0x20 DUP1 SWAP2 DIV MUL PUSH1 0x20 ADD PUSH1 0x40 MLOAD SWAP1 DUP2 ADD PUSH1 0x40 MSTORE DUP1 SWAP3 SWAP2 SWAP1 DUP2 DUP2 MSTORE PUSH1 0x20 ADD DUP3 DUP1 SLOAD PUSH2 0x861 SWAP1 PUSH2 0x1B29 JUMP JUMPDEST DUP1 ISZERO PUSH2 0x8AE JUMPI DUP1 PUSH1 0x1F LT PUSH2 0x883 JUMPI PUSH2 0x100 DUP1 DUP4 SLOAD DIV MUL DUP4 MSTORE SWAP2 PUSH1 0x20 ADD SWAP2 PUSH2 0x8AE JUMP JUMPDEST DUP3 ADD SWAP2 SWAP1 PUSH1 0x0 MSTORE PUSH1 0x20 PUSH1 0x0 KECCAK256 SWAP1 JUMPDEST DUP2 SLOAD DUP2 MSTORE SWAP1 PUSH1 0x1 ADD SWAP1 PUSH1 0x20 ADD DUP1 DUP4 GT PUSH2 0x891 JUMPI DUP3 SWAP1 SUB PUSH1 0x1F AND DUP3 ADD SWAP2 JUMPDEST POP POP POP POP POP SWAP1 DUP1 PUSH1 0x3 ADD SLOAD SWAP1 DUP1 PUSH1 0x4 ADD DUP1 SLOAD PUSH2 0x8C9 SWAP1 PUSH2 0x1B29 JUMP JUMPDEST DUP1 PUSH1 0x1F ADD PUSH1 0x20 DUP1 SWAP2 DIV MUL PUSH1 0x20 ADD PUSH1 0x40 MLOAD SWAP1 DUP2 ADD PUSH1 0x40 MSTORE DUP1 SWAP3 SWAP2 SWAP1 DUP2 DUP2 MSTORE PUSH1 0x20 ADD DUP3 DUP1 SLOAD PUSH2 0x8F5 SWAP1 PUSH2 0x1B29 JUMP JUMPDEST DUP1 ISZERO PUSH2 0x942 JUMPI DUP1 PUSH1 0x1F LT PUSH2 0x917 JUMPI PUSH2 0x100 DUP1 DUP4 SLOAD DIV MUL DUP4 MSTORE SWAP2 PUSH1 0x20 ADD SWAP2 PUSH2 0x942 JUMP JUMPDEST DUP3 ADD SWAP2 SWAP1 PUSH1 0x0 MSTORE PUSH1 0x20 PUSH1 0x0 KECCAK256 SWAP1 JUMPDEST DUP2 SLOAD DUP2 MSTORE SWAP1 PUSH1 0x1 ADD SWAP1 PUSH1 0x20 ADD DUP1 DUP4 GT PUSH2 0x925 JUMPI DUP3 SWAP1 SUB PUSH1 0x1F AND DUP3 ADD SWAP2 JUMPDEST POP POP POP POP POP SWAP1 DUP1 PUSH1 0x5 ADD DUP1 SLOAD PUSH2 0x957 SWAP1 PUSH2 0x1B29 JUMP JUMPDEST DUP1 PUSH1 0x1F ADD PUSH1 0x20 DUP1 SWAP2 DIV MUL PUSH1 0x20 ADD PUSH1 0x40 MLOAD SWAP1 DUP2 ADD PUSH1 0x40 MSTORE DUP1 SWAP3 SWAP2 SWAP1 DUP2 DUP2 MSTORE PUSH1 0x20 ADD DUP3 DUP1 SLOAD PUSH2 0x983 SWAP1 PUSH2 0x1B29 JUMP JUMPDEST DUP1 ISZERO PUSH2 0x9D0 JUMPI DUP1 PUSH1 0x1F LT PUSH2 0x9A5 JUMPI PUSH2 0x100 DUP1 DUP4 SLOAD DIV MUL DUP4 MSTORE SWAP2 PUSH1 0x20 ADD SWAP2 PUSH2 0x9D0 JUMP JUMPDEST DUP3 ADD SWAP2 SWAP1 PUSH1 0x0 MSTORE PUSH1 0x20 PUSH1 0x0 KECCAK256 SWAP1 JUMPDEST DUP2 SLOAD DUP2 MSTORE SWAP1 PUSH1 0x1 ADD SWAP1 PUSH1 0x20 ADD DUP1 DUP4 GT PUSH2 0x9B3 JUMPI DUP3 SWAP1 SUB PUSH1 0x1F AND DUP3 ADD SWAP2 JUMPDEST POP POP POP POP POP SWAP1 DUP1 PUSH1 0x6 ADD DUP1 SLOAD PUSH2 0x9E5 SWAP1 PUSH2 0x1B29 JUMP JUMPDEST DUP1 PUSH1 0x1F ADD PUSH1 0x20 DUP1 SWAP2 DIV MUL PUSH1 0x20 ADD PUSH1 0x40 MLOAD SWAP1 DUP2 ADD PUSH1 0x40 MSTORE DUP1 SWAP3 SWAP2 SWAP1 DUP2 DUP2 MSTORE PUSH1 0x20 ADD DUP3 DUP1 SLOAD PUSH2 0xA11 SWAP1 PUSH2 0x1B29 JUMP JUMPDEST DUP1 ISZERO PUSH2 0xA5E JUMPI DUP1 PUSH1 0x1F LT PUSH2 0xA33 JUMPI PUSH2 0x100 DUP1 DUP4 SLOAD DIV MUL DUP4 MSTORE SWAP2 PUSH1 0x20 ADD SWAP2 PUSH2 0xA5E JUMP JUMPDEST DUP3 ADD SWAP2 SWAP1 PUSH1 0x0 MSTORE PUSH1 0x20 PUSH1 0x0 KECCAK256 SWAP1 JUMPDEST DUP2 SLOAD DUP2 MSTORE SWAP1 PUSH1 0x1 ADD SWAP1 PUSH1 0x20 ADD DUP1 DUP4 GT PUSH2 0xA41 JUMPI DUP3 SWAP1 SUB PUSH1 0x1F AND DUP3 ADD SWAP2 JUMPDEST POP POP POP POP POP SWAP1 DUP1 PUSH1 0x9 ADD SLOAD SWAP1 DUP1 PUSH1 0xA ADD PUSH1 0x0 SWAP1 SLOAD SWAP1 PUSH2 0x100 EXP SWAP1 DIV PUSH1 0xFF AND SWAP1 DUP1 PUSH1 0xB ADD SLOAD SWAP1 DUP1 PUSH1 0xC ADD SLOAD SWAP1 POP DUP12 JUMP JUMPDEST PUSH1 0x2 PUSH1 0x8 PUSH1 0x0 CALLER PUSH20 0xFFFFFFFFFFFFFFFFFFFFFFFFFFFFFFFFFFFFFFFF AND PUSH20 0xFFFFFFFFFFFFFFFFFFFFFFFFFFFFFFFFFFFFFFFF AND DUP2 MSTORE PUSH1 0x20 ADD SWAP1 DUP2 MSTORE PUSH1 0x20 ADD PUSH1 0x0 KECCAK256 PUSH1 0x0 SWAP1 SLOAD SWAP1 PUSH2 0x100 EXP SWAP1 DIV PUSH1 0xFF AND PUSH1 0xFF AND EQ PUSH2 0xB16 JUMPI PUSH1 0x40 MLOAD PUSH32 0xC23CF1F400000000000000000000000000000000000000000000000000000000 DUP2 MSTORE PUSH1 0x4 ADD PUSH1 0x40 MLOAD DUP1 SWAP2 SUB SWAP1 REVERT JUMPDEST PUSH1 0x0 DUP8 MLOAD EQ DUP1 PUSH2 0xB27 JUMPI POP PUSH1 0x0 DUP7 MLOAD EQ JUMPDEST ISZERO PUSH2 0xB5E JUMPI PUSH1 0x40 MLOAD PUSH32 0xBD0FEBC100000000000000000000000000000000000000000000000000000000 DUP2 MSTORE PUSH1 0x4 ADD PUSH1 0x40 MLOAD DUP1 SWAP2 SUB SWAP1 REVERT JUMPDEST PUSH1 0x0 PUSH1 0x5 PUSH1 0x0 CALLER PUSH20 0xFFFFFFFFFFFFFFFFFFFFFFFFFFFFFFFFFFFFFFFF AND PUSH20 0xFFFFFFFFFFFFFFFFFFFFFFFFFFFFFFFFFFFFFFFF AND DUP2 MSTORE PUSH1 0x20 ADD SWAP1 DUP2 MSTORE PUSH1 0x20 ADD PUSH1 0x0 KECCAK256 SWAP1 POP DUP8 DUP2 PUSH1 0x1 ADD SWAP1 DUP2 PUSH2 0xBB2 SWAP2 SWAP1 PUSH2 0x1D06 JUMP JUMPDEST POP DUP7 DUP2 PUSH1 0x2 ADD SWAP1 DUP2 PUSH2 0xBC4 SWAP2 SWAP1 PUSH2 0x1D06 JUMP JUMPDEST POP DUP6 DUP2 PUSH1 0x4 ADD SWAP1 DUP2 PUSH2 0xBD6 SWAP2 SWAP1 PUSH2 0x1D06 JUMP JUMPDEST POP DUP5 DUP2 PUSH1 0x5 ADD SWAP1 DUP2 PUSH2 0xBE8 SWAP2 SWAP1 PUSH2 0x1D06 JUMP JUMPDEST POP DUP4 DUP2 PUSH1 0x6 ADD SWAP1 DUP2 PUSH2 0xBFA SWAP2 SWAP1 PUSH2 0x1D06 JUMP JUMPDEST POP DUP3 DUP2 PUSH1 0x7 ADD SWAP1 PUSH1 0x2 PUSH2 0xC0E SWAP3 SWAP2 SWAP1 PUSH2 0x127D JUMP JUMPDEST POP DUP2 DUP2 PUSH1 0xC ADD DUP2 SWAP1 SSTORE POP POP POP POP POP POP POP POP POP JUMP JUMPDEST PUSH1 0x1 SLOAD DUP2 JUMP JUMPDEST PUSH1 0x0 DUP1 SLOAD SWAP1 PUSH2 0x100 EXP SWAP1 DIV PUSH20 0xFFFFFFFFFFFFFFFFFFFFFFFFFFFFFFFFFFFFFFFF AND DUP2 JUMP JUMPDEST PUSH1 0x0 PUSH1 0x8 PUSH1 0x0 CALLER PUSH20 0xFFFFFFFFFFFFFFFFFFFFFFFFFFFFFFFFFFFFFFFF AND PUSH20 0xFFFFFFFFFFFFFFFFFFFFFFFFFFFFFFFFFFFFFFFF AND DUP2 MSTORE PUSH1 0x20 ADD SWAP1 DUP2 MSTORE PUSH1 0x20 ADD PUSH1 0x0 KECCAK256 PUSH1 0x0 SWAP1 SLOAD SWAP1 PUSH2 0x100 EXP SWAP1 DIV PUSH1 0xFF AND PUSH1 0xFF AND EQ PUSH2 0xCD5 JUMPI PUSH1 0x40 MLOAD PUSH32 0xAF79AD300000000000000000000000000000000000000000000000000000000 DUP2 MSTORE PUSH1 0x4 ADD PUSH1 0x40 MLOAD DUP1 SWAP2 SUB SWAP1 REVERT JUMPDEST PUSH1 0x0 DUP8 MLOAD GT PUSH2 0xCE3 JUMPI PUSH1 0x0 DUP1 REVERT JUMPDEST PUSH1 0x0 DUP7 MLOAD GT PUSH2 0xCF1 JUMPI PUSH1 0x0 DUP1 REVERT JUMPDEST PUSH1 0x1 PUSH1 0x0 DUP2 SLOAD DUP1 SWAP3 SWAP2 SWAP1 PUSH2 0xD04 SWAP1 PUSH2 0x1E07 JUMP JUMPDEST SWAP2 SWAP1 POP SSTORE POP PUSH1 0x2 PUSH1 0x8 PUSH1 0x0 CALLER PUSH20 0xFFFFFFFFFFFFFFFFFFFFFFFFFFFFFFFFFFFFFFFF AND PUSH20 0xFFFFFFFFFFFFFFFFFFFFFFFFFFFFFFFFFFFFFFFF AND DUP2 MSTORE PUSH1 0x20 ADD SWAP1 DUP2 MSTORE PUSH1 0x20 ADD PUSH1 0x0 KECCAK256 PUSH1 0x0 PUSH2 0x100 EXP DUP2 SLOAD DUP2 PUSH1 0xFF MUL NOT AND SWAP1 DUP4 PUSH1 0xFF AND MUL OR SWAP1 SSTORE POP PUSH1 0x40 MLOAD DUP1 PUSH2 0x180 ADD PUSH1 0x40 MSTORE DUP1 CALLER PUSH20 0xFFFFFFFFFFFFFFFFFFFFFFFFFFFFFFFFFFFFFFFF AND DUP2 MSTORE PUSH1 0x20 ADD DUP9 DUP2 MSTORE PUSH1 0x20 ADD DUP8 DUP2 MSTORE PUSH1 0x20 ADD PUSH1 0x0 DUP2 MSTORE PUSH1 0x20 ADD DUP7 DUP2 MSTORE PUSH1 0x20 ADD DUP6 DUP2 MSTORE PUSH1 0x20 ADD DUP5 DUP2 MSTORE PUSH1 0x20 ADD DUP4 DUP2 MSTORE PUSH1 0x20 ADD PUSH1 0x0 DUP2 MSTORE PUSH1 0x20 ADD PUSH1 0x1 ISZERO ISZERO DUP2 MSTORE PUSH1 0x20 ADD TIMESTAMP DUP2 MSTORE PUSH1 0x20 ADD DUP3 DUP2 MSTORE POP PUSH1 0x5 PUSH1 0x0 CALLER PUSH20 0xFFFFFFFFFFFFFFFFFFFFFFFFFFFFFFFFFFFFFFFF AND PUSH20 0xFFFFFFFFFFFFFFFFFFFFFFFFFFFFFFFFFFFFFFFF AND DUP2 MSTORE PUSH1 0x20 ADD SWAP1 DUP2 MSTORE PUSH1 0x20 ADD PUSH1 0x0 KECCAK256 PUSH1 0x0 DUP3 ADD MLOAD DUP2 PUSH1 0x0 ADD PUSH1 0x0 PUSH2 0x100 EXP DUP2 SLOAD DUP2 PUSH20 0xFFFFFFFFFFFFFFFFFFFFFFFFFFFFFFFFFFFFFFFF MUL NOT AND SWAP1 DUP4 PUSH20 0xFFFFFFFFFFFFFFFFFFFFFFFFFFFFFFFFFFFFFFFF AND MUL OR SWAP1 SSTORE POP PUSH1 0x20 DUP3 ADD MLOAD DUP2 PUSH1 0x1 ADD SWAP1 DUP2 PUSH2 0xE6A SWAP2 SWAP1 PUSH2 0x1D06 JUMP JUMPDEST POP PUSH1 0x40 DUP3 ADD MLOAD DUP2 PUSH1 0x2 ADD SWAP1 DUP2 PUSH2 0xE80 SWAP2 SWAP1 PUSH2 0x1D06 JUMP JUMPDEST POP PUSH1 0x60 DUP3 ADD MLOAD DUP2 PUSH1 0x3 ADD SSTORE PUSH1 0x80 DUP3 ADD MLOAD DUP2 PUSH1 0x4 ADD SWAP1 DUP2 PUSH2 0xEA0 SWAP2 SWAP1 PUSH2 0x1D06 JUMP JUMPDEST POP PUSH1 0xA0 DUP3 ADD MLOAD DUP2 PUSH1 0x5 ADD SWAP1 DUP2 PUSH2 0xEB6 SWAP2 SWAP1 PUSH2 0x1D06 JUMP JUMPDEST POP PUSH1 0xC0 DUP3 ADD MLOAD DUP2 PUSH1 0x6 ADD SWAP1 DUP2 PUSH2 0xECC SWAP2 SWAP1 PUSH2 0x1D06 JUMP JUMPDEST POP PUSH1 0xE0 DUP3 ADD MLOAD DUP2 PUSH1 0x7 ADD SWAP1 PUSH1 0x2 PUSH2 0xEE4 SWAP3 SWAP2 SWAP1 PUSH2 0x127D JUMP JUMPDEST POP PUSH2 0x100 DUP3 ADD MLOAD DUP2 PUSH1 0x9 ADD SSTORE PUSH2 0x120 DUP3 ADD MLOAD DUP2 PUSH1 0xA ADD PUSH1 0x0 PUSH2 0x100 EXP DUP2 SLOAD DUP2 PUSH1 0xFF MUL NOT AND SWAP1 DUP4 ISZERO ISZERO MUL OR SWAP1 SSTORE POP PUSH2 0x140 DUP3 ADD MLOAD DUP2 PUSH1 0xB ADD SSTORE PUSH2 0x160 DUP3 ADD MLOAD DUP2 PUSH1 0xC ADD SSTORE SWAP1 POP POP PUSH1 0x9 CALLER SWAP1 DUP1 PUSH1 0x1 DUP2 SLOAD ADD DUP1 DUP3 SSTORE DUP1 SWAP2 POP POP PUSH1 0x1 SWAP1 SUB SWAP1 PUSH1 0x0 MSTORE PUSH1 0x20 PUSH1 0x0 KECCAK256 ADD PUSH1 0x0 SWAP1 SWAP2 SWAP1 SWAP2 SWAP1 SWAP2 PUSH2 0x100 EXP DUP2 SLOAD DUP2 PUSH20 0xFFFFFFFFFFFFFFFFFFFFFFFFFFFFFFFFFFFFFFFF MUL NOT AND SWAP1 DUP4 PUSH20 0xFFFFFFFFFFFFFFFFFFFFFFFFFFFFFFFFFFFFFFFF AND MUL OR SWAP1 SSTORE POP PUSH32 0x32C39BBAB01BF382B8FBA9407DDA0AFE0B705A5BFEF4492708C0CD1E1CACCE08 CALLER DUP4 DUP4 PUSH1 0x40 MLOAD PUSH2 0xFC0 SWAP4 SWAP3 SWAP2 SWAP1 PUSH2 0x1F4F JUMP JUMPDEST PUSH1 0x40 MLOAD DUP1 SWAP2 SUB SWAP1 LOG1 POP POP POP POP POP POP POP JUMP JUMPDEST PUSH1 0x8 PUSH1 0x20 MSTORE DUP1 PUSH1 0x0 MSTORE PUSH1 0x40 PUSH1 0x0 KECCAK256 PUSH1 0x0 SWAP2 POP SLOAD SWAP1 PUSH2 0x100 EXP SWAP1 DIV PUSH1 0xFF AND DUP2 JUMP JUMPDEST PUSH1 0x2 PUSH1 0x8 PUSH1 0x0 CALLER PUSH20 0xFFFFFFFFFFFFFFFFFFFFFFFFFFFFFFFFFFFFFFFF AND PUSH20 0xFFFFFFFFFFFFFFFFFFFFFFFFFFFFFFFFFFFFFFFF AND DUP2 MSTORE PUSH1 0x20 ADD SWAP1 DUP2 MSTORE PUSH1 0x20 ADD PUSH1 0x0 KECCAK256 PUSH1 0x0 SWAP1 SLOAD SWAP1 PUSH2 0x100 EXP SWAP1 DIV PUSH1 0xFF AND PUSH1 0xFF AND EQ PUSH2 0x107A JUMPI PUSH1 0x40 MLOAD PUSH32 0xC23CF1F400000000000000000000000000000000000000000000000000000000 DUP2 MSTORE PUSH1 0x4 ADD PUSH1 0x40 MLOAD DUP1 SWAP2 SUB SWAP1 REVERT JUMPDEST PUSH1 0x0 PUSH1 0x5 PUSH1 0x0 CALLER PUSH20 0xFFFFFFFFFFFFFFFFFFFFFFFFFFFFFFFFFFFFFFFF AND PUSH20 0xFFFFFFFFFFFFFFFFFFFFFFFFFFFFFFFFFFFFFFFF AND DUP2 MSTORE PUSH1 0x20 ADD SWAP1 DUP2 MSTORE PUSH1 0x20 ADD PUSH1 0x0 KECCAK256 SWAP1 POP PUSH1 0x0 DUP2 PUSH1 0x3 ADD SLOAD GT PUSH2 0x1104 JUMPI PUSH1 0x40 MLOAD PUSH32 0x8C379A000000000000000000000000000000000000000000000000000000000 DUP2 MSTORE PUSH1 0x4 ADD PUSH2 0x10FB SWAP1 PUSH2 0x1FD9 JUMP JUMPDEST PUSH1 0x40 MLOAD DUP1 SWAP2 SUB SWAP1 REVERT JUMPDEST PUSH1 0x0 PUSH1 0x64 PUSH1 0x5F DUP4 PUSH1 0x3 ADD SLOAD PUSH2 0x1119 SWAP2 SWAP1 PUSH2 0x1FF9 JUMP JUMPDEST PUSH2 0x1123 SWAP2 SWAP1 PUSH2 0x206A JUMP JUMPDEST SWAP1 POP PUSH1 0x0 DUP3 PUSH1 0x3 ADD DUP2 SWAP1 SSTORE POP PUSH1 0x0 CALLER PUSH20 0xFFFFFFFFFFFFFFFFFFFFFFFFFFFFFFFFFFFFFFFF AND DUP3 PUSH1 0x40 MLOAD PUSH2 0x1155 SWAP1 PUSH2 0x20CC JUMP JUMPDEST PUSH1 0x0 PUSH1 0x40 MLOAD DUP1 DUP4 SUB DUP2 DUP6 DUP8 GAS CALL SWAP3 POP POP POP RETURNDATASIZE DUP1 PUSH1 0x0 DUP2 EQ PUSH2 0x1192 JUMPI PUSH1 0x40 MLOAD SWAP2 POP PUSH1 0x1F NOT PUSH1 0x3F RETURNDATASIZE ADD AND DUP3 ADD PUSH1 0x40 MSTORE RETURNDATASIZE DUP3 MSTORE RETURNDATASIZE PUSH1 0x0 PUSH1 0x20 DUP5 ADD RETURNDATACOPY PUSH2 0x1197 JUMP JUMPDEST PUSH1 0x60 SWAP2 POP JUMPDEST POP POP SWAP1 POP DUP1 PUSH2 0x11DB JUMPI PUSH1 0x40 MLOAD PUSH32 0x8C379A000000000000000000000000000000000000000000000000000000000 DUP2 MSTORE PUSH1 0x4 ADD PUSH2 0x11D2 SWAP1 PUSH2 0x212D JUMP JUMPDEST PUSH1 0x40 MLOAD DUP1 SWAP2 SUB SWAP1 REVERT JUMPDEST PUSH32 0x9AD672D4E7C4892DA934D1051932EBE9EC4B6EC8C3F40D569176DB3E93E5ABE CALLER DUP4 PUSH1 0x40 MLOAD PUSH2 0x120C SWAP3 SWAP2 SWAP1 PUSH2 0x214D JUMP JUMPDEST PUSH1 0x40 MLOAD DUP1 SWAP2 SUB SWAP1 LOG1 POP POP POP JUMP JUMPDEST PUSH1 0x9 DUP2 DUP2 SLOAD DUP2 LT PUSH2 0x1229 JUMPI PUSH1 0x0 DUP1 REVERT JUMPDEST SWAP1 PUSH1 0x0 MSTORE PUSH1 0x20 PUSH1 0x0 KECCAK256 ADD PUSH1 0x0 SWAP2 POP SLOAD SWAP1 PUSH2 0x100 EXP SWAP1 DIV PUSH20 0xFFFFFFFFFFFFFFFFFFFFFFFFFFFFFFFFFFFFFFFF AND DUP2 JUMP JUMPDEST PUSH1 0x7 PUSH1 0x20 MSTORE DUP2 PUSH1 0x0 MSTORE PUSH1 0x40 PUSH1 0x0 KECCAK256 PUSH1 0x20 MSTORE DUP1 PUSH1 0x0 MSTORE PUSH1 0x40 PUSH1 0x0 KECCAK256 PUSH1 0x0 SWAP2 POP SWAP2 POP POP SLOAD DUP2 JUMP JUMPDEST DUP3 PUSH1 0x2 DUP2 ADD SWAP3 DUP3 ISZERO PUSH2 0x12B8 JUMPI SWAP2 PUSH1 0x20 MUL DUP3 ADD JUMPDEST DUP3 DUP2 GT ISZERO PUSH2 0x12B7 JUMPI DUP3 MLOAD DUP3 SWAP1 DUP2 PUSH2 0x12A7 SWAP2 SWAP1 PUSH2 0x1D06 JUMP JUMPDEST POP SWAP2 PUSH1 0x20 ADD SWAP2 SWAP1 PUSH1 0x1 ADD SWAP1 PUSH2 0x1290 JUMP JUMPDEST JUMPDEST POP SWAP1 POP PUSH2 0x12C5 SWAP2 SWAP1 PUSH2 0x12C9 JUMP JUMPDEST POP SWAP1 JUMP JUMPDEST JUMPDEST DUP1 DUP3 GT ISZERO PUSH2 0x12E9 JUMPI PUSH1 0x0 DUP2 DUP2 PUSH2 0x12E0 SWAP2 SWAP1 PUSH2 0x12ED JUMP JUMPDEST POP PUSH1 0x1 ADD PUSH2 0x12CA JUMP JUMPDEST POP SWAP1 JUMP JUMPDEST POP DUP1 SLOAD PUSH2 0x12F9 SWAP1 PUSH2 0x1B29 JUMP JUMPDEST PUSH1 0x0 DUP3 SSTORE DUP1 PUSH1 0x1F LT PUSH2 0x130B JUMPI POP PUSH2 0x132A JUMP JUMPDEST PUSH1 0x1F ADD PUSH1 0x20 SWAP1 DIV SWAP1 PUSH1 0x0 MSTORE PUSH1 0x20 PUSH1 0x0 KECCAK256 SWAP1 DUP2 ADD SWAP1 PUSH2 0x1329 SWAP2 SWAP1 PUSH2 0x132D JUMP JUMPDEST JUMPDEST POP JUMP JUMPDEST JUMPDEST DUP1 DUP3 GT ISZERO PUSH2 0x1346 JUMPI PUSH1 0x0 DUP2 PUSH1 0x0 SWAP1 SSTORE POP PUSH1 0x1 ADD PUSH2 0x132E JUMP JUMPDEST POP SWAP1 JUMP JUMPDEST PUSH1 0x0 PUSH1 0x40 MLOAD SWAP1 POP SWAP1 JUMP JUMPDEST PUSH1 0x0 DUP1 REVERT JUMPDEST PUSH1 0x0 DUP1 REVERT JUMPDEST PUSH1 0x0 PUSH20 0xFFFFFFFFFFFFFFFFFFFFFFFFFFFFFFFFFFFFFFFF DUP3 AND SWAP1 POP SWAP2 SWAP1 POP JUMP JUMPDEST PUSH1 0x0 PUSH2 0x1389 DUP3 PUSH2 0x135E JUMP JUMPDEST SWAP1 POP SWAP2 SWAP1 POP JUMP JUMPDEST PUSH2 0x1399 DUP2 PUSH2 0x137E JUMP JUMPDEST DUP2 EQ PUSH2 0x13A4 JUMPI PUSH1 0x0 DUP1 REVERT JUMPDEST POP JUMP JUMPDEST PUSH1 0x0 DUP2 CALLDATALOAD SWAP1 POP PUSH2 0x13B6 DUP2 PUSH2 0x1390 JUMP JUMPDEST SWAP3 SWAP2 POP POP JUMP JUMPDEST PUSH1 0x0 PUSH1 0x20 DUP3 DUP5 SUB SLT ISZERO PUSH2 0x13D2 JUMPI PUSH2 0x13D1 PUSH2 0x1354 JUMP JUMPDEST JUMPDEST PUSH1 0x0 PUSH2 0x13E0 DUP5 DUP3 DUP6 ADD PUSH2 0x13A7 JUMP JUMPDEST SWAP2 POP POP SWAP3 SWAP2 POP POP JUMP JUMPDEST PUSH2 0x13F2 DUP2 PUSH2 0x137E JUMP JUMPDEST DUP3 MSTORE POP POP JUMP JUMPDEST PUSH1 0x0 DUP2 MLOAD SWAP1 POP SWAP2 SWAP1 POP JUMP JUMPDEST PUSH1 0x0 DUP3 DUP3 MSTORE PUSH1 0x20 DUP3 ADD SWAP1 POP SWAP3 SWAP2 POP POP JUMP JUMPDEST PUSH1 0x0 JUMPDEST DUP4 DUP2 LT ISZERO PUSH2 0x1432 JUMPI DUP1 DUP3 ADD MLOAD DUP2 DUP5 ADD MSTORE PUSH1 0x20 DUP2 ADD SWAP1 POP PUSH2 0x1417 JUMP JUMPDEST PUSH1 0x0 DUP5 DUP5 ADD MSTORE POP POP POP POP JUMP JUMPDEST PUSH1 0x0 PUSH1 0x1F NOT PUSH1 0x1F DUP4 ADD AND SWAP1 POP SWAP2 SWAP1 POP JUMP JUMPDEST PUSH1 0x0 PUSH2 0x145A DUP3 PUSH2 0x13F8 JUMP JUMPDEST PUSH2 0x1464 DUP2 DUP6 PUSH2 0x1403 JUMP JUMPDEST SWAP4 POP PUSH2 0x1474 DUP2 DUP6 PUSH1 0x20 DUP7 ADD PUSH2 0x1414 JUMP JUMPDEST PUSH2 0x147D DUP2 PUSH2 0x143E JUMP JUMPDEST DUP5 ADD SWAP2 POP POP SWAP3 SWAP2 POP POP JUMP JUMPDEST PUSH1 0x0 DUP2 SWAP1 POP SWAP2 SWAP1 POP JUMP JUMPDEST PUSH2 0x149B DUP2 PUSH2 0x1488 JUMP JUMPDEST DUP3 MSTORE POP POP JUMP JUMPDEST PUSH1 0x0 DUP2 ISZERO ISZERO SWAP1 POP SWAP2 SWAP1 POP JUMP JUMPDEST PUSH2 0x14B6 DUP2 PUSH2 0x14A1 JUMP JUMPDEST DUP3 MSTORE POP POP JUMP JUMPDEST PUSH1 0x0 PUSH2 0x100 DUP3 ADD SWAP1 POP PUSH2 0x14D2 PUSH1 0x0 DUP4 ADD DUP12 PUSH2 0x13E9 JUMP JUMPDEST DUP2 DUP2 SUB PUSH1 0x20 DUP4 ADD MSTORE PUSH2 0x14E4 DUP2 DUP11 PUSH2 0x144F JUMP JUMPDEST SWAP1 POP DUP2 DUP2 SUB PUSH1 0x40 DUP4 ADD MSTORE PUSH2 0x14F8 DUP2 DUP10 PUSH2 0x144F JUMP JUMPDEST SWAP1 POP PUSH2 0x1507 PUSH1 0x60 DUP4 ADD DUP9 PUSH2 0x1492 JUMP JUMPDEST DUP2 DUP2 SUB PUSH1 0x80 DUP4 ADD MSTORE PUSH2 0x1519 DUP2 DUP8 PUSH2 0x144F JUMP JUMPDEST SWAP1 POP DUP2 DUP2 SUB PUSH1 0xA0 DUP4 ADD MSTORE PUSH2 0x152D DUP2 DUP7 PUSH2 0x144F JUMP JUMPDEST SWAP1 POP PUSH2 0x153C PUSH1 0xC0 DUP4 ADD DUP6 PUSH2 0x14AD JUMP JUMPDEST PUSH2 0x1549 PUSH1 0xE0 DUP4 ADD DUP5 PUSH2 0x1492 JUMP JUMPDEST SWAP10 SWAP9 POP POP POP POP POP POP POP POP POP JUMP JUMPDEST PUSH1 0x0 PUSH1 0x20 DUP3 ADD SWAP1 POP PUSH2 0x156B PUSH1 0x0 DUP4 ADD DUP5 PUSH2 0x1492 JUMP JUMPDEST SWAP3 SWAP2 POP POP JUMP JUMPDEST PUSH2 0x157A DUP2 PUSH2 0x1488 JUMP JUMPDEST DUP2 EQ PUSH2 0x1585 JUMPI PUSH1 0x0 DUP1 REVERT JUMPDEST POP JUMP JUMPDEST PUSH1 0x0 DUP2 CALLDATALOAD SWAP1 POP PUSH2 0x1597 DUP2 PUSH2 0x1571 JUMP JUMPDEST SWAP3 SWAP2 POP POP JUMP JUMPDEST PUSH1 0x0 PUSH1 0x20 DUP3 DUP5 SUB SLT ISZERO PUSH2 0x15B3 JUMPI PUSH2 0x15B2 PUSH2 0x1354 JUMP JUMPDEST JUMPDEST PUSH1 0x0 PUSH2 0x15C1 DUP5 DUP3 DUP6 ADD PUSH2 0x1588 JUMP JUMPDEST SWAP2 POP POP SWAP3 SWAP2 POP POP JUMP JUMPDEST PUSH1 0x0 PUSH1 0xFF DUP3 AND SWAP1 POP SWAP2 SWAP1 POP JUMP JUMPDEST PUSH2 0x15E0 DUP2 PUSH2 0x15CA JUMP JUMPDEST DUP3 MSTORE POP POP JUMP JUMPDEST PUSH1 0x0 PUSH1 0xE0 DUP3 ADD SWAP1 POP PUSH2 0x15FB PUSH1 0x0 DUP4 ADD DUP11 PUSH2 0x15D7 JUMP JUMPDEST PUSH2 0x1608 PUSH1 0x20 DUP4 ADD DUP10 PUSH2 0x13E9 JUMP JUMPDEST DUP2 DUP2 SUB PUSH1 0x40 DUP4 ADD MSTORE PUSH2 0x161A DUP2 DUP9 PUSH2 0x144F JUMP JUMPDEST SWAP1 POP DUP2 DUP2 SUB PUSH1 0x60 DUP4 ADD MSTORE PUSH2 0x162E DUP2 DUP8 PUSH2 0x144F JUMP JUMPDEST SWAP1 POP PUSH2 0x163D PUSH1 0x80 DUP4 ADD DUP7 PUSH2 0x1492 JUMP JUMPDEST PUSH2 0x164A PUSH1 0xA0 DUP4 ADD DUP6 PUSH2 0x14AD JUMP JUMPDEST PUSH2 0x1657 PUSH1 0xC0 DUP4 ADD DUP5 PUSH2 0x13E9 JUMP JUMPDEST SWAP9 SWAP8 POP POP POP POP POP POP POP POP JUMP JUMPDEST PUSH1 0x0 PUSH1 0x20 DUP3 ADD SWAP1 POP PUSH2 0x1678 PUSH1 0x0 DUP4 ADD DUP5 PUSH2 0x15D7 JUMP JUMPDEST SWAP3 SWAP2 POP POP JUMP JUMPDEST PUSH1 0x0 PUSH2 0x160 DUP3 ADD SWAP1 POP PUSH2 0x1694 PUSH1 0x0 DUP4 ADD DUP15 PUSH2 0x13E9 JUMP JUMPDEST DUP2 DUP2 SUB PUSH1 0x20 DUP4 ADD MSTORE PUSH2 0x16A6 DUP2 DUP14 PUSH2 0x144F JUMP JUMPDEST SWAP1 POP DUP2 DUP2 SUB PUSH1 0x40 DUP4 ADD MSTORE PUSH2 0x16BA DUP2 DUP13 PUSH2 0x144F JUMP JUMPDEST SWAP1 POP PUSH2 0x16C9 PUSH1 0x60 DUP4 ADD DUP12 PUSH2 0x1492 JUMP JUMPDEST DUP2 DUP2 SUB PUSH1 0x80 DUP4 ADD MSTORE PUSH2 0x16DB DUP2 DUP11 PUSH2 0x144F JUMP JUMPDEST SWAP1 POP DUP2 DUP2 SUB PUSH1 0xA0 DUP4 ADD MSTORE PUSH2 0x16EF DUP2 DUP10 PUSH2 0x144F JUMP JUMPDEST SWAP1 POP DUP2 DUP2 SUB PUSH1 0xC0 DUP4 ADD MSTORE PUSH2 0x1703 DUP2 DUP9 PUSH2 0x144F JUMP JUMPDEST SWAP1 POP PUSH2 0x1712 PUSH1 0xE0 DUP4 ADD DUP8 PUSH2 0x1492 JUMP JUMPDEST PUSH2 0x1720 PUSH2 0x100 DUP4 ADD DUP7 PUSH2 0x14AD JUMP JUMPDEST PUSH2 0x172E PUSH2 0x120 DUP4 ADD DUP6 PUSH2 0x1492 JUMP JUMPDEST PUSH2 0x173C PUSH2 0x140 DUP4 ADD DUP5 PUSH2 0x1492 JUMP JUMPDEST SWAP13 SWAP12 POP POP POP POP POP POP POP POP POP POP POP POP JUMP JUMPDEST PUSH1 0x0 DUP1 REVERT JUMPDEST PUSH1 0x0 DUP1 REVERT JUMPDEST PUSH32 0x4E487B7100000000000000000000000000000000000000000000000000000000 PUSH1 0x0 MSTORE PUSH1 0x41 PUSH1 0x4 MSTORE PUSH1 0x24 PUSH1 0x0 REVERT JUMPDEST PUSH2 0x178E DUP3 PUSH2 0x143E JUMP JUMPDEST DUP2 ADD DUP2 DUP2 LT PUSH8 0xFFFFFFFFFFFFFFFF DUP3 GT OR ISZERO PUSH2 0x17AD JUMPI PUSH2 0x17AC PUSH2 0x1756 JUMP JUMPDEST JUMPDEST DUP1 PUSH1 0x40 MSTORE POP POP POP JUMP JUMPDEST PUSH1 0x0 PUSH2 0x17C0 PUSH2 0x134A JUMP JUMPDEST SWAP1 POP PUSH2 0x17CC DUP3 DUP3 PUSH2 0x1785 JUMP JUMPDEST SWAP2 SWAP1 POP JUMP JUMPDEST PUSH1 0x0 PUSH8 0xFFFFFFFFFFFFFFFF DUP3 GT ISZERO PUSH2 0x17EC JUMPI PUSH2 0x17EB PUSH2 0x1756 JUMP JUMPDEST JUMPDEST PUSH2 0x17F5 DUP3 PUSH2 0x143E JUMP JUMPDEST SWAP1 POP PUSH1 0x20 DUP2 ADD SWAP1 POP SWAP2 SWAP1 POP JUMP JUMPDEST DUP3 DUP2 DUP4 CALLDATACOPY PUSH1 0x0 DUP4 DUP4 ADD MSTORE POP POP POP JUMP JUMPDEST PUSH1 0x0 PUSH2 0x1824 PUSH2 0x181F DUP5 PUSH2 0x17D1 JUMP JUMPDEST PUSH2 0x17B6 JUMP JUMPDEST SWAP1 POP DUP3 DUP2 MSTORE PUSH1 0x20 DUP2 ADD DUP5 DUP5 DUP5 ADD GT ISZERO PUSH2 0x1840 JUMPI PUSH2 0x183F PUSH2 0x1751 JUMP JUMPDEST JUMPDEST PUSH2 0x184B DUP5 DUP3 DUP6 PUSH2 0x1802 JUMP JUMPDEST POP SWAP4 SWAP3 POP POP POP JUMP JUMPDEST PUSH1 0x0 DUP3 PUSH1 0x1F DUP4 ADD SLT PUSH2 0x1868 JUMPI PUSH2 0x1867 PUSH2 0x174C JUMP JUMPDEST JUMPDEST DUP2 CALLDATALOAD PUSH2 0x1878 DUP5 DUP3 PUSH1 0x20 DUP7 ADD PUSH2 0x1811 JUMP JUMPDEST SWAP2 POP POP SWAP3 SWAP2 POP POP JUMP JUMPDEST PUSH1 0x0 PUSH8 0xFFFFFFFFFFFFFFFF DUP3 GT ISZERO PUSH2 0x189C JUMPI PUSH2 0x189B PUSH2 0x1756 JUMP JUMPDEST JUMPDEST PUSH1 0x20 DUP3 MUL SWAP1 POP SWAP2 SWAP1 POP JUMP JUMPDEST PUSH1 0x0 DUP1 REVERT JUMPDEST PUSH1 0x0 PUSH2 0x18BF PUSH2 0x18BA DUP5 PUSH2 0x1881 JUMP JUMPDEST PUSH2 0x17B6 JUMP JUMPDEST SWAP1 POP DUP1 PUSH1 0x20 DUP5 MUL DUP4 ADD DUP6 DUP2 GT ISZERO PUSH2 0x18D9 JUMPI PUSH2 0x18D8 PUSH2 0x18A7 JUMP JUMPDEST JUMPDEST DUP4 JUMPDEST DUP2 DUP2 LT ISZERO PUSH2 0x1920 JUMPI DUP1 CALLDATALOAD PUSH8 0xFFFFFFFFFFFFFFFF DUP2 GT ISZERO PUSH2 0x18FE JUMPI PUSH2 0x18FD PUSH2 0x174C JUMP JUMPDEST JUMPDEST DUP1 DUP7 ADD PUSH2 0x190B DUP10 DUP3 PUSH2 0x1853 JUMP JUMPDEST DUP6 MSTORE PUSH1 0x20 DUP6 ADD SWAP5 POP POP POP PUSH1 0x20 DUP2 ADD SWAP1 POP PUSH2 0x18DB JUMP JUMPDEST POP POP POP SWAP4 SWAP3 POP POP POP JUMP JUMPDEST PUSH1 0x0 DUP3 PUSH1 0x1F DUP4 ADD SLT PUSH2 0x193F JUMPI PUSH2 0x193E PUSH2 0x174C JUMP JUMPDEST JUMPDEST PUSH1 0x2 PUSH2 0x194C DUP5 DUP3 DUP6 PUSH2 0x18AC JUMP JUMPDEST SWAP2 POP POP SWAP3 SWAP2 POP POP JUMP JUMPDEST PUSH1 0x0 DUP1 PUSH1 0x0 DUP1 PUSH1 0x0 DUP1 PUSH1 0x0 PUSH1 0xE0 DUP9 DUP11 SUB SLT ISZERO PUSH2 0x1974 JUMPI PUSH2 0x1973 PUSH2 0x1354 JUMP JUMPDEST JUMPDEST PUSH1 0x0 DUP9 ADD CALLDATALOAD PUSH8 0xFFFFFFFFFFFFFFFF DUP2 GT ISZERO PUSH2 0x1992 JUMPI PUSH2 0x1991 PUSH2 0x1359 JUMP JUMPDEST JUMPDEST PUSH2 0x199E DUP11 DUP3 DUP12 ADD PUSH2 0x1853 JUMP JUMPDEST SWAP8 POP POP PUSH1 0x20 DUP9 ADD CALLDATALOAD PUSH8 0xFFFFFFFFFFFFFFFF DUP2 GT ISZERO PUSH2 0x19BF JUMPI PUSH2 0x19BE PUSH2 0x1359 JUMP JUMPDEST JUMPDEST PUSH2 0x19CB DUP11 DUP3 DUP12 ADD PUSH2 0x1853 JUMP JUMPDEST SWAP7 POP POP PUSH1 0x40 DUP9 ADD CALLDATALOAD PUSH8 0xFFFFFFFFFFFFFFFF DUP2 GT ISZERO PUSH2 0x19EC JUMPI PUSH2 0x19EB PUSH2 0x1359 JUMP JUMPDEST JUMPDEST PUSH2 0x19F8 DUP11 DUP3 DUP12 ADD PUSH2 0x1853 JUMP JUMPDEST SWAP6 POP POP PUSH1 0x60 DUP9 ADD CALLDATALOAD PUSH8 0xFFFFFFFFFFFFFFFF DUP2 GT ISZERO PUSH2 0x1A19 JUMPI PUSH2 0x1A18 PUSH2 0x1359 JUMP JUMPDEST JUMPDEST PUSH2 0x1A25 DUP11 DUP3 DUP12 ADD PUSH2 0x1853 JUMP JUMPDEST SWAP5 POP POP PUSH1 0x80 DUP9 ADD CALLDATALOAD PUSH8 0xFFFFFFFFFFFFFFFF DUP2 GT ISZERO PUSH2 0x1A46 JUMPI PUSH2 0x1A45 PUSH2 0x1359 JUMP JUMPDEST JUMPDEST PUSH2 0x1A52 DUP11 DUP3 DUP12 ADD PUSH2 0x1853 JUMP JUMPDEST SWAP4 POP POP PUSH1 0xA0 DUP9 ADD CALLDATALOAD PUSH8 0xFFFFFFFFFFFFFFFF DUP2 GT ISZERO PUSH2 0x1A73 JUMPI PUSH2 0x1A72 PUSH2 0x1359 JUMP JUMPDEST JUMPDEST PUSH2 0x1A7F DUP11 DUP3 DUP12 ADD PUSH2 0x192A JUMP JUMPDEST SWAP3 POP POP PUSH1 0xC0 PUSH2 0x1A90 DUP11 DUP3 DUP12 ADD PUSH2 0x1588 JUMP JUMPDEST SWAP2 POP POP SWAP3 SWAP6 SWAP9 SWAP2 SWAP5 SWAP8 POP SWAP3 SWAP6 POP JUMP JUMPDEST PUSH1 0x0 PUSH1 0x20 DUP3 ADD SWAP1 POP PUSH2 0x1AB4 PUSH1 0x0 DUP4 ADD DUP5 PUSH2 0x13E9 JUMP JUMPDEST SWAP3 SWAP2 POP POP JUMP JUMPDEST PUSH1 0x0 DUP1 PUSH1 0x40 DUP4 DUP6 SUB SLT ISZERO PUSH2 0x1AD1 JUMPI PUSH2 0x1AD0 PUSH2 0x1354 JUMP JUMPDEST JUMPDEST PUSH1 0x0 PUSH2 0x1ADF DUP6 DUP3 DUP7 ADD PUSH2 0x13A7 JUMP JUMPDEST SWAP3 POP POP PUSH1 0x20 PUSH2 0x1AF0 DUP6 DUP3 DUP7 ADD PUSH2 0x1588 JUMP JUMPDEST SWAP2 POP POP SWAP3 POP SWAP3 SWAP1 POP JUMP JUMPDEST PUSH32 0x4E487B7100000000000000000000000000000000000000000000000000000000 PUSH1 0x0 MSTORE PUSH1 0x22 PUSH1 0x4 MSTORE PUSH1 0x24 PUSH1 0x0 REVERT JUMPDEST PUSH1 0x0 PUSH1 0x2 DUP3 DIV SWAP1 POP PUSH1 0x1 DUP3 AND DUP1 PUSH2 0x1B41 JUMPI PUSH1 0x7F DUP3 AND SWAP2 POP JUMPDEST PUSH1 0x20 DUP3 LT DUP2 SUB PUSH2 0x1B54 JUMPI PUSH2 0x1B53 PUSH2 0x1AFA JUMP JUMPDEST JUMPDEST POP SWAP2 SWAP1 POP JUMP JUMPDEST PUSH1 0x0 DUP2 SWAP1 POP DUP2 PUSH1 0x0 MSTORE PUSH1 0x20 PUSH1 0x0 KECCAK256 SWAP1 POP SWAP2 SWAP1 POP JUMP JUMPDEST PUSH1 0x0 PUSH1 0x20 PUSH1 0x1F DUP4 ADD DIV SWAP1 POP SWAP2 SWAP1 POP JUMP JUMPDEST PUSH1 0x0 DUP3 DUP3 SHL SWAP1 POP SWAP3 SWAP2 POP POP JUMP JUMPDEST PUSH1 0x0 PUSH1 0x8 DUP4 MUL PUSH2 0x1BBC PUSH32 0xFFFFFFFFFFFFFFFFFFFFFFFFFFFFFFFFFFFFFFFFFFFFFFFFFFFFFFFFFFFFFFFF DUP3 PUSH2 0x1B7F JUMP JUMPDEST PUSH2 0x1BC6 DUP7 DUP4 PUSH2 0x1B7F JUMP JUMPDEST SWAP6 POP DUP1 NOT DUP5 AND SWAP4 POP DUP1 DUP7 AND DUP5 OR SWAP3 POP POP POP SWAP4 SWAP3 POP POP POP JUMP JUMPDEST PUSH1 0x0 DUP2 SWAP1 POP SWAP2 SWAP1 POP JUMP JUMPDEST PUSH1 0x0 PUSH2 0x1C03 PUSH2 0x1BFE PUSH2 0x1BF9 DUP5 PUSH2 0x1488 JUMP JUMPDEST PUSH2 0x1BDE JUMP JUMPDEST PUSH2 0x1488 JUMP JUMPDEST SWAP1 POP SWAP2 SWAP1 POP JUMP JUMPDEST PUSH1 0x0 DUP2 SWAP1 POP SWAP2 SWAP1 POP JUMP JUMPDEST PUSH2 0x1C1D DUP4 PUSH2 0x1BE8 JUMP JUMPDEST PUSH2 0x1C31 PUSH2 0x1C29 DUP3 PUSH2 0x1C0A JUMP JUMPDEST DUP5 DUP5 SLOAD PUSH2 0x1B8C JUMP JUMPDEST DUP3 SSTORE POP POP POP POP JUMP JUMPDEST PUSH1 0x0 SWAP1 JUMP JUMPDEST PUSH2 0x1C46 PUSH2 0x1C39 JUMP JUMPDEST PUSH2 0x1C51 DUP2 DUP5 DUP5 PUSH2 0x1C14 JUMP JUMPDEST POP POP POP JUMP JUMPDEST JUMPDEST DUP2 DUP2 LT ISZERO PUSH2 0x1C75 JUMPI PUSH2 0x1C6A PUSH1 0x0 DUP3 PUSH2 0x1C3E JUMP JUMPDEST PUSH1 0x1 DUP2 ADD SWAP1 POP PUSH2 0x1C57 JUMP JUMPDEST POP POP JUMP JUMPDEST PUSH1 0x1F DUP3 GT ISZERO PUSH2 0x1CBA JUMPI PUSH2 0x1C8B DUP2 PUSH2 0x1B5A JUMP JUMPDEST PUSH2 0x1C94 DUP5 PUSH2 0x1B6F JUMP JUMPDEST DUP2 ADD PUSH1 0x20 DUP6 LT ISZERO PUSH2 0x1CA3 JUMPI DUP2 SWAP1 POP JUMPDEST PUSH2 0x1CB7 PUSH2 0x1CAF DUP6 PUSH2 0x1B6F JUMP JUMPDEST DUP4 ADD DUP3 PUSH2 0x1C56 JUMP JUMPDEST POP POP JUMPDEST POP POP POP JUMP JUMPDEST PUSH1 0x0 DUP3 DUP3 SHR SWAP1 POP SWAP3 SWAP2 POP POP JUMP JUMPDEST PUSH1 0x0 PUSH2 0x1CDD PUSH1 0x0 NOT DUP5 PUSH1 0x8 MUL PUSH2 0x1CBF JUMP JUMPDEST NOT DUP1 DUP4 AND SWAP2 POP POP SWAP3 SWAP2 POP POP JUMP JUMPDEST PUSH1 0x0 PUSH2 0x1CF6 DUP4 DUP4 PUSH2 0x1CCC JUMP JUMPDEST SWAP2 POP DUP3 PUSH1 0x2 MUL DUP3 OR SWAP1 POP SWAP3 SWAP2 POP POP JUMP JUMPDEST PUSH2 0x1D0F DUP3 PUSH2 0x13F8 JUMP JUMPDEST PUSH8 0xFFFFFFFFFFFFFFFF DUP2 GT ISZERO PUSH2 0x1D28 JUMPI PUSH2 0x1D27 PUSH2 0x1756 JUMP JUMPDEST JUMPDEST PUSH2 0x1D32 DUP3 SLOAD PUSH2 0x1B29 JUMP JUMPDEST PUSH2 0x1D3D DUP3 DUP3 DUP6 PUSH2 0x1C79 JUMP JUMPDEST PUSH1 0x0 PUSH1 0x20 SWAP1 POP PUSH1 0x1F DUP4 GT PUSH1 0x1 DUP2 EQ PUSH2 0x1D70 JUMPI PUSH1 0x0 DUP5 ISZERO PUSH2 0x1D5E JUMPI DUP3 DUP8 ADD MLOAD SWAP1 POP JUMPDEST PUSH2 0x1D68 DUP6 DUP3 PUSH2 0x1CEA JUMP JUMPDEST DUP7 SSTORE POP PUSH2 0x1DD0 JUMP JUMPDEST PUSH1 0x1F NOT DUP5 AND PUSH2 0x1D7E DUP7 PUSH2 0x1B5A JUMP JUMPDEST PUSH1 0x0 JUMPDEST DUP3 DUP2 LT ISZERO PUSH2 0x1DA6 JUMPI DUP5 DUP10 ADD MLOAD DUP3 SSTORE PUSH1 0x1 DUP3 ADD SWAP2 POP PUSH1 0x20 DUP6 ADD SWAP5 POP PUSH1 0x20 DUP2 ADD SWAP1 POP PUSH2 0x1D81 JUMP JUMPDEST DUP7 DUP4 LT ISZERO PUSH2 0x1DC3 JUMPI DUP5 DUP10 ADD MLOAD PUSH2 0x1DBF PUSH1 0x1F DUP10 AND DUP3 PUSH2 0x1CCC JUMP JUMPDEST DUP4 SSTORE POP JUMPDEST PUSH1 0x1 PUSH1 0x2 DUP9 MUL ADD DUP9 SSTORE POP POP POP JUMPDEST POP POP POP POP POP POP JUMP JUMPDEST PUSH32 0x4E487B7100000000000000000000000000000000000000000000000000000000 PUSH1 0x0 MSTORE PUSH1 0x11 PUSH1 0x4 MSTORE PUSH1 0x24 PUSH1 0x0 REVERT JUMPDEST PUSH1 0x0 PUSH2 0x1E12 DUP3 PUSH2 0x1488 JUMP JUMPDEST SWAP2 POP PUSH32 0xFFFFFFFFFFFFFFFFFFFFFFFFFFFFFFFFFFFFFFFFFFFFFFFFFFFFFFFFFFFFFFFF DUP3 SUB PUSH2 0x1E44 JUMPI PUSH2 0x1E43 PUSH2 0x1DD8 JUMP JUMPDEST JUMPDEST PUSH1 0x1 DUP3 ADD SWAP1 POP SWAP2 SWAP1 POP JUMP JUMPDEST PUSH1 0x0 PUSH1 0x2 SWAP1 POP SWAP2 SWAP1 POP JUMP JUMPDEST PUSH1 0x0 DUP2 SWAP1 POP SWAP3 SWAP2 POP POP JUMP JUMPDEST PUSH1 0x0 DUP2 SWAP1 POP SWAP2 SWAP1 POP JUMP JUMPDEST PUSH1 0x0 DUP3 DUP3 MSTORE PUSH1 0x20 DUP3 ADD SWAP1 POP SWAP3 SWAP2 POP POP JUMP JUMPDEST PUSH1 0x0 PUSH2 0x1E8B DUP3 PUSH2 0x13F8 JUMP JUMPDEST PUSH2 0x1E95 DUP2 DUP6 PUSH2 0x1E6F JUMP JUMPDEST SWAP4 POP PUSH2 0x1EA5 DUP2 DUP6 PUSH1 0x20 DUP7 ADD PUSH2 0x1414 JUMP JUMPDEST PUSH2 0x1EAE DUP2 PUSH2 0x143E JUMP JUMPDEST DUP5 ADD SWAP2 POP POP SWAP3 SWAP2 POP POP JUMP JUMPDEST PUSH1 0x0 PUSH2 0x1EC5 DUP4 DUP4 PUSH2 0x1E80 JUMP JUMPDEST SWAP1 POP SWAP3 SWAP2 POP POP JUMP JUMPDEST PUSH1 0x0 PUSH1 0x20 DUP3 ADD SWAP1 POP SWAP2 SWAP1 POP JUMP JUMPDEST PUSH1 0x0 PUSH2 0x1EE5 DUP3 PUSH2 0x1E4F JUMP JUMPDEST PUSH2 0x1EEF DUP2 DUP6 PUSH2 0x1E5A JUMP JUMPDEST SWAP4 POP DUP4 PUSH1 0x20 DUP3 MUL DUP6 ADD PUSH2 0x1F01 DUP6 PUSH2 0x1E65 JUMP JUMPDEST DUP1 PUSH1 0x0 JUMPDEST DUP6 DUP2 LT ISZERO PUSH2 0x1F3D JUMPI DUP5 DUP5 SUB DUP10 MSTORE DUP2 MLOAD PUSH2 0x1F1E DUP6 DUP3 PUSH2 0x1EB9 JUMP JUMPDEST SWAP5 POP PUSH2 0x1F29 DUP4 PUSH2 0x1ECD JUMP JUMPDEST SWAP3 POP PUSH1 0x20 DUP11 ADD SWAP10 POP POP PUSH1 0x1 DUP2 ADD SWAP1 POP PUSH2 0x1F05 JUMP JUMPDEST POP DUP3 SWAP8 POP DUP8 SWAP6 POP POP POP POP POP POP SWAP3 SWAP2 POP POP JUMP JUMPDEST PUSH1 0x0 PUSH1 0x60 DUP3 ADD SWAP1 POP PUSH2 0x1F64 PUSH1 0x0 DUP4 ADD DUP7 PUSH2 0x13E9 JUMP JUMPDEST DUP2 DUP2 SUB PUSH1 0x20 DUP4 ADD MSTORE PUSH2 0x1F76 DUP2 DUP6 PUSH2 0x1EDA JUMP JUMPDEST SWAP1 POP PUSH2 0x1F85 PUSH1 0x40 DUP4 ADD DUP5 PUSH2 0x1492 JUMP JUMPDEST SWAP5 SWAP4 POP POP POP POP JUMP JUMPDEST PUSH32 0x4E42570000000000000000000000000000000000000000000000000000000000 PUSH1 0x0 DUP3 ADD MSTORE POP JUMP JUMPDEST PUSH1 0x0 PUSH2 0x1FC3 PUSH1 0x3 DUP4 PUSH2 0x1403 JUMP JUMPDEST SWAP2 POP PUSH2 0x1FCE DUP3 PUSH2 0x1F8D JUMP JUMPDEST PUSH1 0x20 DUP3 ADD SWAP1 POP SWAP2 SWAP1 POP JUMP JUMPDEST PUSH1 0x0 PUSH1 0x20 DUP3 ADD SWAP1 POP DUP2 DUP2 SUB PUSH1 0x0 DUP4 ADD MSTORE PUSH2 0x1FF2 DUP2 PUSH2 0x1FB6 JUMP JUMPDEST SWAP1 POP SWAP2 SWAP1 POP JUMP JUMPDEST PUSH1 0x0 PUSH2 0x2004 DUP3 PUSH2 0x1488 JUMP JUMPDEST SWAP2 POP PUSH2 0x200F DUP4 PUSH2 0x1488 JUMP JUMPDEST SWAP3 POP DUP3 DUP3 MUL PUSH2 0x201D DUP2 PUSH2 0x1488 JUMP JUMPDEST SWAP2 POP DUP3 DUP3 DIV DUP5 EQ DUP4 ISZERO OR PUSH2 0x2034 JUMPI PUSH2 0x2033 PUSH2 0x1DD8 JUMP JUMPDEST JUMPDEST POP SWAP3 SWAP2 POP POP JUMP JUMPDEST PUSH32 0x4E487B7100000000000000000000000000000000000000000000000000000000 PUSH1 0x0 MSTORE PUSH1 0x12 PUSH1 0x4 MSTORE PUSH1 0x24 PUSH1 0x0 REVERT JUMPDEST PUSH1 0x0 PUSH2 0x2075 DUP3 PUSH2 0x1488 JUMP JUMPDEST SWAP2 POP PUSH2 0x2080 DUP4 PUSH2 0x1488 JUMP JUMPDEST SWAP3 POP DUP3 PUSH2 0x2090 JUMPI PUSH2 0x208F PUSH2 0x203B JUMP JUMPDEST JUMPDEST DUP3 DUP3 DIV SWAP1 POP SWAP3 SWAP2 POP POP JUMP JUMPDEST PUSH1 0x0 DUP2 SWAP1 POP SWAP3 SWAP2 POP POP JUMP JUMPDEST POP JUMP JUMPDEST PUSH1 0x0 PUSH2 0x20B6 PUSH1 0x0 DUP4 PUSH2 0x209B JUMP JUMPDEST SWAP2 POP PUSH2 0x20C1 DUP3 PUSH2 0x20A6 JUMP JUMPDEST PUSH1 0x0 DUP3 ADD SWAP1 POP SWAP2 SWAP1 POP JUMP JUMPDEST PUSH1 0x0 PUSH2 0x20D7 DUP3 PUSH2 0x20A9 JUMP JUMPDEST SWAP2 POP DUP2 SWAP1 POP SWAP2 SWAP1 POP JUMP JUMPDEST PUSH32 0x5446000000000000000000000000000000000000000000000000000000000000 PUSH1 0x0 DUP3 ADD MSTORE POP JUMP JUMPDEST PUSH1 0x0 PUSH2 0x2117 PUSH1 0x2 DUP4 PUSH2 0x1403 JUMP JUMPDEST SWAP2 POP PUSH2 0x2122 DUP3 PUSH2 0x20E1 JUMP JUMPDEST PUSH1 0x20 DUP3 ADD SWAP1 POP SWAP2 SWAP1 POP JUMP JUMPDEST PUSH1 0x0 PUSH1 0x20 DUP3 ADD SWAP1 POP DUP2 DUP2 SUB PUSH1 0x0 DUP4 ADD MSTORE PUSH2 0x2146 DUP2 PUSH2 0x210A JUMP JUMPDEST SWAP1 POP SWAP2 SWAP1 POP JUMP JUMPDEST PUSH1 0x0 PUSH1 0x40 DUP3 ADD SWAP1 POP PUSH2 0x2162 PUSH1 0x0 DUP4 ADD DUP6 PUSH2 0x13E9 JUMP JUMPDEST PUSH2 0x216F PUSH1 0x20 DUP4 ADD DUP5 PUSH2 0x1492 JUMP JUMPDEST SWAP4 SWAP3 POP POP POP JUMP INVALID LOG2 PUSH5 0x6970667358 0x22 SLT KECCAK256 0xB9 PUSH16 0xDBF7FB23B8341402D7B37CB7D4E06925 STOP 0xA7 ADD XOR 0xC1 PUSH12 0xBA7719C4AB64F72A64736F6C PUSH4 0x43000818 STOP CALLER "},"gasEstimates":{"creation":{"codeDepositCost":"1724000","executionCost":"1813","totalCost":"1725813"},"external":{"allFreelancerAddresses(uint256)":"5022","editFreelancerProfile(string,string,string,string,string,string[2],uint256)":"infinite","employers(address)":"infinite","escrowFunds(address,uint256)":"infinite","freelancers(address)":"infinite","jobs(uint256)":"infinite","owner()":"2556","registerFreelancer(string,string,string,string,string,string[2],uint256)":"infinite","roles(address)":"2867","totalCompletedJobs()":"2475","totalEmployers()":"2452","totalFreelancers()":"2452","totalJobs()":"2566","withdrawEarnings()":"infinite"}},"methodIdentifiers":{"allFreelancerAddresses(uint256)":"c27a9dd4","editFreelancerProfile(string,string,string,string,string,string[2],uint256)":"4398d285","employers(address)":"0be435bd","escrowFunds(address,uint256)":"fcafae11","freelancers(address)":"21bd6693","jobs(uint256)":"180aedf3","owner()":"8da5cb5b","registerFreelancer(string,string,string,string,string,string[2],uint256)":"9447cc3c","roles(address)":"99374642","totalCompletedJobs()":"1033397b","totalEmployers()":"1906b4ce","totalFreelancers()":"5e586eb1","totalJobs()":"1ace87b3","withdrawEarnings()":"b73c6ce9"}},"storageLayout":{"storage":[{"astId":1272,"contract":"contracts/FreelancerLogic.sol:FreelancerLogic","label":"owner","offset":0,"slot":"0","type":"t_address"},{"astId":1274,"contract":"contracts/FreelancerLogic.sol:FreelancerLogic","label":"totalJobs","offset":20,"slot":"0","type":"t_uint8"},{"astId":1276,"contract":"contracts/FreelancerLogic.sol:FreelancerLogic","label":"totalFreelancers","offset":0,"slot":"1","type":"t_uint256"},{"astId":1278,"contract":"contracts/FreelancerLogic.sol:FreelancerLogic","label":"totalEmployers","offset":0,"slot":"2","type":"t_uint256"},{"astId":1280,"contract":"contracts/FreelancerLogic.sol:FreelancerLogic","label":"totalCompletedJobs","offset":0,"slot":"3","type":"t_uint256"},{"astId":1347,"contract":"contracts/FreelancerLogic.sol:FreelancerLogic","label":"jobs","offset":0,"slot":"4","type":"t_mapping(t_uint256,t_struct(Job)1298_storage)"},{"astId":1352,"contract":"contracts/FreelancerLogic.sol:FreelancerLogic","label":"freelancers","offset":0,"slot":"5","type":"t_mapping(t_address,t_struct(Freelancer)1325_storage)"},{"astId":1357,"contract":"contracts/FreelancerLogic.sol:FreelancerLogic","label":"employers","offset":0,"slot":"6","type":"t_mapping(t_address,t_struct(Employer)1342_storage)"},{"astId":1363,"contract":"contracts/FreelancerLogic.sol:FreelancerLogic","label":"escrowFunds","offset":0,"slot":"7","type":"t_mapping(t_address,t_mapping(t_uint256,t_uint256))"},{"astId":1367,"contract":"contracts/FreelancerLogic.sol:FreelancerLogic","label":"roles","offset":0,"slot":"8","type":"t_mapping(t_address,t_uint8)"},{"astId":1370,"contract":"contracts/FreelancerLogic.sol:FreelancerLogic","label":"allFreelancerAddresses","offset":0,"slot":"9","type":"t_array(t_address)dyn_storage"}],"types":{"t_address":{"encoding":"inplace","label":"address","numberOfBytes":"20"},"t_array(t_address)dyn_storage":{"base":"t_address","encoding":"dynamic_array","label":"address[]","numberOfBytes":"32"},"t_array(t_string_storage)2_storage":{"base":"t_string_storage","encoding":"inplace","label":"string[2]","numberOfBytes":"64"},"t_bool":{"encoding":"inplace","label":"bool","numberOfBytes":"1"},"t_mapping(t_address,t_mapping(t_uint256,t_uint256))":{"encoding":"mapping","key":"t_address","label":"mapping(address => mapping(uint256 => uint256))","numberOfBytes":"32","value":"t_mapping(t_uint256,t_uint256)"},"t_mapping(t_address,t_struct(Employer)1342_storage)":{"encoding":"mapping","key":"t_address","label":"mapping(address => struct Storage.Employer)","numberOfBytes":"32","value":"t_struct(Employer)1342_storage"},"t_mapping(t_address,t_struct(Freelancer)1325_storage)":{"encoding":"mapping","key":"t_address","label":"mapping(address => struct Storage.Freelancer)","numberOfBytes":"32","value":"t_struct(Freelancer)1325_storage"},"t_mapping(t_address,t_uint8)":{"encoding":"mapping","key":"t_address","label":"mapping(address => uint8)","numberOfBytes":"32","value":"t_uint8"},"t_mapping(t_uint256,t_struct(Job)1298_storage)":{"encoding":"mapping","key":"t_uint256","label":"mapping(uint256 => struct Storage.Job)","numberOfBytes":"32","value":"t_struct(Job)1298_storage"},"t_mapping(t_uint256,t_uint256)":{"encoding":"mapping","key":"t_uint256","label":"mapping(uint256 => uint256)","numberOfBytes":"32","value":"t_uint256"},"t_string_storage":{"encoding":"bytes","label":"string","numberOfBytes":"32"},"t_struct(Employer)1342_storage":{"encoding":"inplace","label":"struct Storage.Employer","members":[{"astId":1327,"contract":"contracts/FreelancerLogic.sol:FreelancerLogic","label":"employerAddress","offset":0,"slot":"0","type":"t_address"},{"astId":1329,"contract":"contracts/FreelancerLogic.sol:FreelancerLogic","label":"name","offset":0,"slot":"1","type":"t_string_storage"},{"astId":1331,"contract":"contracts/FreelancerLogic.sol:FreelancerLogic","label":"industry","offset":0,"slot":"2","type":"t_string_storage"},{"astId":1333,"contract":"contracts/FreelancerLogic.sol:FreelancerLogic","label":"balance","offset":0,"slot":"3","type":"t_uint256"},{"astId":1335,"contract":"contracts/FreelancerLogic.sol:FreelancerLogic","label":"country","offset":0,"slot":"4","type":"t_string_storage"},{"astId":1337,"contract":"contracts/FreelancerLogic.sol:FreelancerLogic","label":"image","offset":0,"slot":"5","type":"t_string_storage"},{"astId":1339,"contract":"contracts/FreelancerLogic.sol:FreelancerLogic","label":"registered","offset":0,"slot":"6","type":"t_bool"},{"astId":1341,"contract":"contracts/FreelancerLogic.sol:FreelancerLogic","label":"registration_date","offset":0,"slot":"7","type":"t_uint256"}],"numberOfBytes":"256"},"t_struct(Freelancer)1325_storage":{"encoding":"inplace","label":"struct Storage.Freelancer","members":[{"astId":1300,"contract":"contracts/FreelancerLogic.sol:FreelancerLogic","label":"freelancerAddress","offset":0,"slot":"0","type":"t_address"},{"astId":1302,"contract":"contracts/FreelancerLogic.sol:FreelancerLogic","label":"name","offset":0,"slot":"1","type":"t_string_storage"},{"astId":1304,"contract":"contracts/FreelancerLogic.sol:FreelancerLogic","label":"skills","offset":0,"slot":"2","type":"t_string_storage"},{"astId":1306,"contract":"contracts/FreelancerLogic.sol:FreelancerLogic","label":"balance","offset":0,"slot":"3","type":"t_uint256"},{"astId":1308,"contract":"contracts/FreelancerLogic.sol:FreelancerLogic","label":"country","offset":0,"slot":"4","type":"t_string_storage"},{"astId":1310,"contract":"contracts/FreelancerLogic.sol:FreelancerLogic","label":"gigTitle","offset":0,"slot":"5","type":"t_string_storage"},{"astId":1312,"contract":"contracts/FreelancerLogic.sol:FreelancerLogic","label":"gitDescription","offset":0,"slot":"6","type":"t_string_storage"},{"astId":1316,"contract":"contracts/FreelancerLogic.sol:FreelancerLogic","label":"images","offset":0,"slot":"7","type":"t_array(t_string_storage)2_storage"},{"astId":1318,"contract":"contracts/FreelancerLogic.sol:FreelancerLogic","label":"jobsCompleted","offset":0,"slot":"9","type":"t_uint256"},{"astId":1320,"contract":"contracts/FreelancerLogic.sol:FreelancerLogic","label":"registered","offset":0,"slot":"10","type":"t_bool"},{"astId":1322,"contract":"contracts/FreelancerLogic.sol:FreelancerLogic","label":"registration_date","offset":0,"slot":"11","type":"t_uint256"},{"astId":1324,"contract":"contracts/FreelancerLogic.sol:FreelancerLogic","label":"starting_price","offset":0,"slot":"12","type":"t_uint256"}],"numberOfBytes":"416"},"t_struct(Job)1298_storage":{"encoding":"inplace","label":"struct Storage.Job","members":[{"astId":1282,"contract":"contracts/FreelancerLogic.sol:FreelancerLogic","label":"id","offset":0,"slot":"0","type":"t_uint8"},{"astId":1284,"contract":"contracts/FreelancerLogic.sol:FreelancerLogic","label":"employer","offset":1,"slot":"0","type":"t_address"},{"astId":1286,"contract":"contracts/FreelancerLogic.sol:FreelancerLogic","label":"title","offset":0,"slot":"1","type":"t_string_storage"},{"astId":1288,"contract":"contracts/FreelancerLogic.sol:FreelancerLogic","label":"description","offset":0,"slot":"2","type":"t_string_storage"},{"astId":1290,"contract":"contracts/FreelancerLogic.sol:FreelancerLogic","label":"budget","offset":0,"slot":"3","type":"t_uint256"},{"astId":1292,"contract":"contracts/FreelancerLogic.sol:FreelancerLogic","label":"completed","offset":0,"slot":"4","type":"t_bool"},{"astId":1295,"contract":"contracts/FreelancerLogic.sol:FreelancerLogic","label":"applicants","offset":0,"slot":"5","type":"t_array(t_address)dyn_storage"},{"astId":1297,"contract":"contracts/FreelancerLogic.sol:FreelancerLogic","label":"hiredFreelancer","offset":0,"slot":"6","type":"t_address"}],"numberOfBytes":"224"},"t_uint256":{"encoding":"inplace","label":"uint256","numberOfBytes":"32"},"t_uint8":{"encoding":"inplace","label":"uint8","numberOfBytes":"1"}}},"userdoc":{"kind":"user","methods":{},"version":1}}}}