{"contracts/FreelancerLogic.sol":{"FreelancerLogic":{"abi":[{"inputs":[],"name":"AR_F","type":"error"},{"inputs":[],"name":"II_F","type":"error"},{"inputs":[],"name":"WR_F","type":"error"},{"anonymous":false,"inputs":[{"indexed":false,"internalType":"address","name":"freelancerAddress","type":"address"},{"indexed":false,"internalType":"string[]","name":"images","type":"string[]"},{"indexed":false,"internalType":"uint256","name":"amount","type":"uint256"}],"name":"FreelancerRegistered","type":"event"},{"anonymous":false,"inputs":[{"indexed":false,"internalType":"address","name":"freelancer","type":"address"},{"indexed":false,"internalType":"uint256","name":"amount","type":"uint256"}],"name":"WithdrawFund","type":"event"},{"inputs":[{"internalType":"uint256","name":"","type":"uint256"}],"name":"allFreelancerAddresses","outputs":[{"internalType":"address","name":"","type":"address"}],"stateMutability":"view","type":"function"},{"inputs":[{"internalType":"string","name":"_name","type":"string"},{"internalType":"string","name":"_skills","type":"string"},{"internalType":"string","name":"_country","type":"string"},{"internalType":"string","name":"_gigTitle","type":"string"},{"internalType":"string","name":"_gigDesc","type":"string"},{"internalType":"string[]","name":"_images","type":"string[]"},{"internalType":"uint256","name":"_starting_price","type":"uint256"}],"name":"editFreelancerProfile","outputs":[],"stateMutability":"nonpayable","type":"function"},{"inputs":[{"internalType":"address","name":"","type":"address"}],"name":"employers","outputs":[{"internalType":"address","name":"employerAddress","type":"address"},{"internalType":"string","name":"name","type":"string"},{"internalType":"string","name":"industry","type":"string"},{"internalType":"uint256","name":"balance","type":"uint256"},{"internalType":"string","name":"country","type":"string"},{"internalType":"string","name":"image","type":"string"},{"internalType":"bool","name":"registered","type":"bool"},{"internalType":"uint256","name":"registration_date","type":"uint256"}],"stateMutability":"view","type":"function"},{"inputs":[{"internalType":"address","name":"","type":"address"},{"internalType":"uint256","name":"","type":"uint256"}],"name":"escrowFunds","outputs":[{"internalType":"uint256","name":"","type":"uint256"}],"stateMutability":"view","type":"function"},{"inputs":[{"internalType":"address","name":"","type":"address"}],"name":"freelancers","outputs":[{"internalType":"address","name":"freelancerAddress","type":"address"},{"internalType":"string","name":"name","type":"string"},{"internalType":"string","name":"skills","type":"string"},{"internalType":"uint256","name":"balance","type":"uint256"},{"internalType":"string","name":"country","type":"string"},{"internalType":"string","name":"gigTitle","type":"string"},{"internalType":"string","name":"gitDescription","type":"string"},{"internalType":"uint256","name":"jobsCompleted","type":"uint256"},{"internalType":"bool","name":"registered","type":"bool"},{"internalType":"uint256","name":"registration_date","type":"uint256"},{"internalType":"uint256","name":"starting_price","type":"uint256"}],"stateMutability":"view","type":"function"},{"inputs":[{"internalType":"uint256","name":"","type":"uint256"}],"name":"jobs","outputs":[{"internalType":"uint8","name":"id","type":"uint8"},{"internalType":"address","name":"employer","type":"address"},{"internalType":"string","name":"title","type":"string"},{"internalType":"string","name":"description","type":"string"},{"internalType":"uint256","name":"budget","type":"uint256"},{"internalType":"bool","name":"completed","type":"bool"},{"internalType":"address","name":"hiredFreelancer","type":"address"}],"stateMutability":"view","type":"function"},{"inputs":[],"name":"owner","outputs":[{"internalType":"address","name":"","type":"address"}],"stateMutability":"view","type":"function"},{"inputs":[{"internalType":"string","name":"_name","type":"string"},{"internalType":"string","name":"_skills","type":"string"},{"internalType":"string","name":"_country","type":"string"},{"internalType":"string","name":"_gigTitle","type":"string"},{"internalType":"string","name":"_gigDesc","type":"string"},{"internalType":"string[]","name":"_images","type":"string[]"},{"internalType":"uint256","name":"_starting_price","type":"uint256"}],"name":"registerFreelancer","outputs":[],"stateMutability":"nonpayable","type":"function"},{"inputs":[{"internalType":"address","name":"","type":"address"}],"name":"roles","outputs":[{"internalType":"uint8","name":"","type":"uint8"}],"stateMutability":"view","type":"function"},{"inputs":[],"name":"totalCompletedJobs","outputs":[{"internalType":"uint256","name":"","type":"uint256"}],"stateMutability":"view","type":"function"},{"inputs":[],"name":"totalEmployers","outputs":[{"internalType":"uint256","name":"","type":"uint256"}],"stateMutability":"view","type":"function"},{"inputs":[],"name":"totalFreelancers","outputs":[{"internalType":"uint256","name":"","type":"uint256"}],"stateMutability":"view","type":"function"},{"inputs":[],"name":"totalJobs","outputs":[{"internalType":"uint8","name":"","type":"uint8"}],"stateMutability":"view","type":"function"},{"inputs":[],"name":"withdrawEarnings","outputs":[],"stateMutability":"nonpayable","type":"function"}],"devdoc":{"kind":"dev","methods":{},"version":1},"evm":{"bytecode":{"linkReferences":{},"object":"608060405234801561001057600080fd5b506121e1806100206000396000f3fe608060405234801561001057600080fd5b50600436106100ea5760003560e01c80635e586eb11161008c57806399374642116100665780639937464214610264578063b73c6ce914610294578063c27a9dd41461029e578063fcafae11146102ce576100ea565b80635e586eb11461020c5780638da5cb5b1461022a57806391ca168714610248576100ea565b80631906b4ce116100c85780631906b4ce1461017a5780631ace87b31461019857806321bd6693146101b657806358d7f895146101f0576100ea565b80630be435bd146100ef5780631033397b14610126578063180aedf314610144575b600080fd5b610109600480360381019061010491906113d3565b6102fe565b60405161011d9897969594939291906114d3565b60405180910390f35b61012e610593565b60405161013b919061156d565b60405180910390f35b61015e600480360381019061015991906115b4565b610599565b60405161017197969594939291906115fd565b60405180910390f35b610182610745565b60405161018f919061156d565b60405180910390f35b6101a061074b565b6040516101ad919061167a565b60405180910390f35b6101d060048036038101906101cb91906113d3565b61075e565b6040516101e79b9a99989796959493929190611695565b60405180910390f35b61020a6004803603810190610205919061197e565b610a8d565b005b610214610e17565b604051610221919061156d565b60405180910390f35b610232610e1d565b60405161023f9190611ac8565b60405180910390f35b610262600480360381019061025d919061197e565b610e41565b005b61027e600480360381019061027991906113d3565b610fdb565b60405161028b919061167a565b60405180910390f35b61029c610ffb565b005b6102b860048036038101906102b391906115b4565b611223565b6040516102c59190611ac8565b60405180910390f35b6102e860048036038101906102e39190611ae3565b611262565b6040516102f5919061156d565b60405180910390f35b60066020528060005260406000206000915090508060000160009054906101000a900473ffffffffffffffffffffffffffffffffffffffff169080600101805461034790611b52565b80601f016020809104026020016040519081016040528092919081815260200182805461037390611b52565b80156103c05780601f10610395576101008083540402835291602001916103c0565b820191906000526020600020905b8154815290600101906020018083116103a357829003601f168201915b5050505050908060020180546103d590611b52565b80601f016020809104026020016040519081016040528092919081815260200182805461040190611b52565b801561044e5780601f106104235761010080835404028352916020019161044e565b820191906000526020600020905b81548152906001019060200180831161043157829003601f168201915b50505050509080600301549080600401805461046990611b52565b80601f016020809104026020016040519081016040528092919081815260200182805461049590611b52565b80156104e25780601f106104b7576101008083540402835291602001916104e2565b820191906000526020600020905b8154815290600101906020018083116104c557829003601f168201915b5050505050908060050180546104f790611b52565b80601f016020809104026020016040519081016040528092919081815260200182805461052390611b52565b80156105705780601f1061054557610100808354040283529160200191610570565b820191906000526020600020905b81548152906001019060200180831161055357829003601f168201915b5050505050908060060160009054906101000a900460ff16908060070154905088565b60035481565b60046020528060005260406000206000915090508060000160009054906101000a900460ff16908060000160019054906101000a900473ffffffffffffffffffffffffffffffffffffffff16908060010180546105f590611b52565b80601f016020809104026020016040519081016040528092919081815260200182805461062190611b52565b801561066e5780601f106106435761010080835404028352916020019161066e565b820191906000526020600020905b81548152906001019060200180831161065157829003601f168201915b50505050509080600201805461068390611b52565b80601f01602080910402602001604051908101604052809291908181526020018280546106af90611b52565b80156106fc5780601f106106d1576101008083540402835291602001916106fc565b820191906000526020600020905b8154815290600101906020018083116106df57829003601f168201915b5050505050908060030154908060040160009054906101000a900460ff16908060060160009054906101000a900473ffffffffffffffffffffffffffffffffffffffff16905087565b60025481565b600060149054906101000a900460ff1681565b60056020528060005260406000206000915090508060000160009054906101000a900473ffffffffffffffffffffffffffffffffffffffff16908060010180546107a790611b52565b80601f01602080910402602001604051908101604052809291908181526020018280546107d390611b52565b80156108205780601f106107f557610100808354040283529160200191610820565b820191906000526020600020905b81548152906001019060200180831161080357829003601f168201915b50505050509080600201805461083590611b52565b80601f016020809104026020016040519081016040528092919081815260200182805461086190611b52565b80156108ae5780601f10610883576101008083540402835291602001916108ae565b820191906000526020600020905b81548152906001019060200180831161089157829003601f168201915b5050505050908060030154908060040180546108c990611b52565b80601f01602080910402602001604051908101604052809291908181526020018280546108f590611b52565b80156109425780601f1061091757610100808354040283529160200191610942565b820191906000526020600020905b81548152906001019060200180831161092557829003601f168201915b50505050509080600501805461095790611b52565b80601f016020809104026020016040519081016040528092919081815260200182805461098390611b52565b80156109d05780601f106109a5576101008083540402835291602001916109d0565b820191906000526020600020905b8154815290600101906020018083116109b357829003601f168201915b5050505050908060060180546109e590611b52565b80601f0160208091040260200160405190810160405280929190818152602001828054610a1190611b52565b8015610a5e5780601f10610a3357610100808354040283529160200191610a5e565b820191906000526020600020905b815481529060010190602001808311610a4157829003601f168201915b5050505050908060080154908060090160009054906101000a900460ff169080600a01549080600b015490508b565b6000600860003373ffffffffffffffffffffffffffffffffffffffff1673ffffffffffffffffffffffffffffffffffffffff16815260200190815260200160002060009054906101000a900460ff1660ff1614610b16576040517f0af79ad300000000000000000000000000000000000000000000000000000000815260040160405180910390fd5b6000875111610b2457600080fd5b6000865111610b3257600080fd5b60016000815480929190610b4590611bb2565b91905055506002600860003373ffffffffffffffffffffffffffffffffffffffff1673ffffffffffffffffffffffffffffffffffffffff16815260200190815260200160002060006101000a81548160ff021916908360ff1602179055506040518061018001604052803373ffffffffffffffffffffffffffffffffffffffff168152602001888152602001878152602001600081526020018681526020018581526020018481526020018381526020016000815260200160011515815260200142815260200182815250600560003373ffffffffffffffffffffffffffffffffffffffff1673ffffffffffffffffffffffffffffffffffffffff16815260200190815260200160002060008201518160000160006101000a81548173ffffffffffffffffffffffffffffffffffffffff021916908373ffffffffffffffffffffffffffffffffffffffff1602179055506020820151816001019081610cab9190611da6565b506040820151816002019081610cc19190611da6565b50606082015181600301556080820151816004019081610ce19190611da6565b5060a0820151816005019081610cf79190611da6565b5060c0820151816006019081610d0d9190611da6565b5060e0820151816007019080519060200190610d2a929190611287565b5061010082015181600801556101208201518160090160006101000a81548160ff02191690831515021790555061014082015181600a015561016082015181600b01559050506009339080600181540180825580915050600190039060005260206000200160009091909190916101000a81548173ffffffffffffffffffffffffffffffffffffffff021916908373ffffffffffffffffffffffffffffffffffffffff1602179055507f21bef455eb0e77b12a579311ca8616d72216c8b628577eeda276ac16fe5b622e338383604051610e0693929190611f84565b60405180910390a150505050505050565b60015481565b60008054906101000a900473ffffffffffffffffffffffffffffffffffffffff1681565b6002600860003373ffffffffffffffffffffffffffffffffffffffff1673ffffffffffffffffffffffffffffffffffffffff16815260200190815260200160002060009054906101000a900460ff1660ff1614610eca576040517fc23cf1f400000000000000000000000000000000000000000000000000000000815260040160405180910390fd5b600087511480610edb575060008651145b15610f12576040517fbd0febc100000000000000000000000000000000000000000000000000000000815260040160405180910390fd5b6000600560003373ffffffffffffffffffffffffffffffffffffffff1673ffffffffffffffffffffffffffffffffffffffff168152602001908152602001600020905087816001019081610f669190611da6565b5086816002019081610f789190611da6565b5085816004019081610f8a9190611da6565b5084816005019081610f9c9190611da6565b5083816006019081610fae9190611da6565b5082816007019080519060200190610fc7929190611287565b508181600b01819055505050505050505050565b60086020528060005260406000206000915054906101000a900460ff1681565b6002600860003373ffffffffffffffffffffffffffffffffffffffff1673ffffffffffffffffffffffffffffffffffffffff16815260200190815260200160002060009054906101000a900460ff1660ff1614611084576040517fc23cf1f400000000000000000000000000000000000000000000000000000000815260040160405180910390fd5b6000600560003373ffffffffffffffffffffffffffffffffffffffff1673ffffffffffffffffffffffffffffffffffffffff1681526020019081526020016000209050600081600301541161110e576040517f08c379a00000000000000000000000000000000000000000000000000000000081526004016111059061200e565b60405180910390fd5b60006064605f8360030154611123919061202e565b61112d919061209f565b90506000826003018190555060003373ffffffffffffffffffffffffffffffffffffffff168260405161115f90612101565b60006040518083038185875af1925050503d806000811461119c576040519150601f19603f3d011682016040523d82523d6000602084013e6111a1565b606091505b50509050806111e5576040517f08c379a00000000000000000000000000000000000000000000000000000000081526004016111dc90612162565b60405180910390fd5b7f09ad672d4e7c4892da934d1051932ebe9ec4b6ec8c3f40d569176db3e93e5abe3383604051611216929190612182565b60405180910390a1505050565b6009818154811061123357600080fd5b906000526020600020016000915054906101000a900473ffffffffffffffffffffffffffffffffffffffff1681565b6007602052816000526040600020602052806000526040600020600091509150505481565b8280548282559060005260206000209081019282156112cf579160200282015b828111156112ce5782518290816112be9190611da6565b50916020019190600101906112a7565b5b5090506112dc91906112e0565b5090565b5b8082111561130057600081816112f79190611304565b506001016112e1565b5090565b50805461131090611b52565b6000825580601f106113225750611341565b601f0160209004906000526020600020908101906113409190611344565b5b50565b5b8082111561135d576000816000905550600101611345565b5090565b6000604051905090565b600080fd5b600080fd5b600073ffffffffffffffffffffffffffffffffffffffff82169050919050565b60006113a082611375565b9050919050565b6113b081611395565b81146113bb57600080fd5b50565b6000813590506113cd816113a7565b92915050565b6000602082840312156113e9576113e861136b565b5b60006113f7848285016113be565b91505092915050565b61140981611395565b82525050565b600081519050919050565b600082825260208201905092915050565b60005b8381101561144957808201518184015260208101905061142e565b60008484015250505050565b6000601f19601f8301169050919050565b60006114718261140f565b61147b818561141a565b935061148b81856020860161142b565b61149481611455565b840191505092915050565b6000819050919050565b6114b28161149f565b82525050565b60008115159050919050565b6114cd816114b8565b82525050565b6000610100820190506114e9600083018b611400565b81810360208301526114fb818a611466565b9050818103604083015261150f8189611466565b905061151e60608301886114a9565b81810360808301526115308187611466565b905081810360a08301526115448186611466565b905061155360c08301856114c4565b61156060e08301846114a9565b9998505050505050505050565b600060208201905061158260008301846114a9565b92915050565b6115918161149f565b811461159c57600080fd5b50565b6000813590506115ae81611588565b92915050565b6000602082840312156115ca576115c961136b565b5b60006115d88482850161159f565b91505092915050565b600060ff82169050919050565b6115f7816115e1565b82525050565b600060e082019050611612600083018a6115ee565b61161f6020830189611400565b81810360408301526116318188611466565b905081810360608301526116458187611466565b905061165460808301866114a9565b61166160a08301856114c4565b61166e60c0830184611400565b98975050505050505050565b600060208201905061168f60008301846115ee565b92915050565b6000610160820190506116ab600083018e611400565b81810360208301526116bd818d611466565b905081810360408301526116d1818c611466565b90506116e0606083018b6114a9565b81810360808301526116f2818a611466565b905081810360a08301526117068189611466565b905081810360c083015261171a8188611466565b905061172960e08301876114a9565b6117376101008301866114c4565b6117456101208301856114a9565b6117536101408301846114a9565b9c9b505050505050505050505050565b600080fd5b600080fd5b7f4e487b7100000000000000000000000000000000000000000000000000000000600052604160045260246000fd5b6117a582611455565b810181811067ffffffffffffffff821117156117c4576117c361176d565b5b80604052505050565b60006117d7611361565b90506117e3828261179c565b919050565b600067ffffffffffffffff8211156118035761180261176d565b5b61180c82611455565b9050602081019050919050565b82818337600083830152505050565b600061183b611836846117e8565b6117cd565b90508281526020810184848401111561185757611856611768565b5b611862848285611819565b509392505050565b600082601f83011261187f5761187e611763565b5b813561188f848260208601611828565b91505092915050565b600067ffffffffffffffff8211156118b3576118b261176d565b5b602082029050602081019050919050565b600080fd5b60006118dc6118d784611898565b6117cd565b905080838252602082019050602084028301858111156118ff576118fe6118c4565b5b835b8181101561194657803567ffffffffffffffff81111561192457611923611763565b5b808601611931898261186a565b85526020850194505050602081019050611901565b5050509392505050565b600082601f83011261196557611964611763565b5b81356119758482602086016118c9565b91505092915050565b600080600080600080600060e0888a03121561199d5761199c61136b565b5b600088013567ffffffffffffffff8111156119bb576119ba611370565b5b6119c78a828b0161186a565b975050602088013567ffffffffffffffff8111156119e8576119e7611370565b5b6119f48a828b0161186a565b965050604088013567ffffffffffffffff811115611a1557611a14611370565b5b611a218a828b0161186a565b955050606088013567ffffffffffffffff811115611a4257611a41611370565b5b611a4e8a828b0161186a565b945050608088013567ffffffffffffffff811115611a6f57611a6e611370565b5b611a7b8a828b0161186a565b93505060a088013567ffffffffffffffff811115611a9c57611a9b611370565b5b611aa88a828b01611950565b92505060c0611ab98a828b0161159f565b91505092959891949750929550565b6000602082019050611add6000830184611400565b92915050565b60008060408385031215611afa57611af961136b565b5b6000611b08858286016113be565b9250506020611b198582860161159f565b9150509250929050565b7f4e487b7100000000000000000000000000000000000000000000000000000000600052602260045260246000fd5b60006002820490506001821680611b6a57607f821691505b602082108103611b7d57611b7c611b23565b5b50919050565b7f4e487b7100000000000000000000000000000000000000000000000000000000600052601160045260246000fd5b6000611bbd8261149f565b91507fffffffffffffffffffffffffffffffffffffffffffffffffffffffffffffffff8203611bef57611bee611b83565b5b600182019050919050565b60008190508160005260206000209050919050565b60006020601f8301049050919050565b600082821b905092915050565b600060088302611c5c7fffffffffffffffffffffffffffffffffffffffffffffffffffffffffffffffff82611c1f565b611c668683611c1f565b95508019841693508086168417925050509392505050565b6000819050919050565b6000611ca3611c9e611c998461149f565b611c7e565b61149f565b9050919050565b6000819050919050565b611cbd83611c88565b611cd1611cc982611caa565b848454611c2c565b825550505050565b600090565b611ce6611cd9565b611cf1818484611cb4565b505050565b5b81811015611d1557611d0a600082611cde565b600181019050611cf7565b5050565b601f821115611d5a57611d2b81611bfa565b611d3484611c0f565b81016020851015611d43578190505b611d57611d4f85611c0f565b830182611cf6565b50505b505050565b600082821c905092915050565b6000611d7d60001984600802611d5f565b1980831691505092915050565b6000611d968383611d6c565b9150826002028217905092915050565b611daf8261140f565b67ffffffffffffffff811115611dc857611dc761176d565b5b611dd28254611b52565b611ddd828285611d19565b600060209050601f831160018114611e105760008415611dfe578287015190505b611e088582611d8a565b865550611e70565b601f198416611e1e86611bfa565b60005b82811015611e4657848901518255600182019150602085019450602081019050611e21565b86831015611e635784890151611e5f601f891682611d6c565b8355505b6001600288020188555050505b505050505050565b600081519050919050565b600082825260208201905092915050565b6000819050602082019050919050565b600082825260208201905092915050565b6000611ec08261140f565b611eca8185611ea4565b9350611eda81856020860161142b565b611ee381611455565b840191505092915050565b6000611efa8383611eb5565b905092915050565b6000602082019050919050565b6000611f1a82611e78565b611f248185611e83565b935083602082028501611f3685611e94565b8060005b85811015611f725784840389528151611f538582611eee565b9450611f5e83611f02565b925060208a01995050600181019050611f3a565b50829750879550505050505092915050565b6000606082019050611f996000830186611400565b8181036020830152611fab8185611f0f565b9050611fba60408301846114a9565b949350505050565b7f4e42570000000000000000000000000000000000000000000000000000000000600082015250565b6000611ff860038361141a565b915061200382611fc2565b602082019050919050565b6000602082019050818103600083015261202781611feb565b9050919050565b60006120398261149f565b91506120448361149f565b92508282026120528161149f565b9150828204841483151761206957612068611b83565b5b5092915050565b7f4e487b7100000000000000000000000000000000000000000000000000000000600052601260045260246000fd5b60006120aa8261149f565b91506120b58361149f565b9250826120c5576120c4612070565b5b828204905092915050565b600081905092915050565b50565b60006120eb6000836120d0565b91506120f6826120db565b600082019050919050565b600061210c826120de565b9150819050919050565b7f5446000000000000000000000000000000000000000000000000000000000000600082015250565b600061214c60028361141a565b915061215782612116565b602082019050919050565b6000602082019050818103600083015261217b8161213f565b9050919050565b60006040820190506121976000830185611400565b6121a460208301846114a9565b939250505056fea264697066735822122072d677fbe16574f0301475949c4361a2a8c5297280d631a8ed3cf5a332f3da6764736f6c63430008180033","opcodes":"PUSH1 0x80 PUSH1 0x40 MSTORE CALLVALUE DUP1 ISZERO PUSH2 0x10 JUMPI PUSH1 0x0 DUP1 REVERT JUMPDEST POP PUSH2 0x21E1 DUP1 PUSH2 0x20 PUSH1 0x0 CODECOPY PUSH1 0x0 RETURN INVALID PUSH1 0x80 PUSH1 0x40 MSTORE CALLVALUE DUP1 ISZERO PUSH2 0x10 JUMPI PUSH1 0x0 DUP1 REVERT JUMPDEST POP PUSH1 0x4 CALLDATASIZE LT PUSH2 0xEA JUMPI PUSH1 0x0 CALLDATALOAD PUSH1 0xE0 SHR DUP1 PUSH4 0x5E586EB1 GT PUSH2 0x8C JUMPI DUP1 PUSH4 0x99374642 GT PUSH2 0x66 JUMPI DUP1 PUSH4 0x99374642 EQ PUSH2 0x264 JUMPI DUP1 PUSH4 0xB73C6CE9 EQ PUSH2 0x294 JUMPI DUP1 PUSH4 0xC27A9DD4 EQ PUSH2 0x29E JUMPI DUP1 PUSH4 0xFCAFAE11 EQ PUSH2 0x2CE JUMPI PUSH2 0xEA JUMP JUMPDEST DUP1 PUSH4 0x5E586EB1 EQ PUSH2 0x20C JUMPI DUP1 PUSH4 0x8DA5CB5B EQ PUSH2 0x22A JUMPI DUP1 PUSH4 0x91CA1687 EQ PUSH2 0x248 JUMPI PUSH2 0xEA JUMP JUMPDEST DUP1 PUSH4 0x1906B4CE GT PUSH2 0xC8 JUMPI DUP1 PUSH4 0x1906B4CE EQ PUSH2 0x17A JUMPI DUP1 PUSH4 0x1ACE87B3 EQ PUSH2 0x198 JUMPI DUP1 PUSH4 0x21BD6693 EQ PUSH2 0x1B6 JUMPI DUP1 PUSH4 0x58D7F895 EQ PUSH2 0x1F0 JUMPI PUSH2 0xEA JUMP JUMPDEST DUP1 PUSH4 0xBE435BD EQ PUSH2 0xEF JUMPI DUP1 PUSH4 0x1033397B EQ PUSH2 0x126 JUMPI DUP1 PUSH4 0x180AEDF3 EQ PUSH2 0x144 JUMPI JUMPDEST PUSH1 0x0 DUP1 REVERT JUMPDEST PUSH2 0x109 PUSH1 0x4 DUP1 CALLDATASIZE SUB DUP2 ADD SWAP1 PUSH2 0x104 SWAP2 SWAP1 PUSH2 0x13D3 JUMP JUMPDEST PUSH2 0x2FE JUMP JUMPDEST PUSH1 0x40 MLOAD PUSH2 0x11D SWAP9 SWAP8 SWAP7 SWAP6 SWAP5 SWAP4 SWAP3 SWAP2 SWAP1 PUSH2 0x14D3 JUMP JUMPDEST PUSH1 0x40 MLOAD DUP1 SWAP2 SUB SWAP1 RETURN JUMPDEST PUSH2 0x12E PUSH2 0x593 JUMP JUMPDEST PUSH1 0x40 MLOAD PUSH2 0x13B SWAP2 SWAP1 PUSH2 0x156D JUMP JUMPDEST PUSH1 0x40 MLOAD DUP1 SWAP2 SUB SWAP1 RETURN JUMPDEST PUSH2 0x15E PUSH1 0x4 DUP1 CALLDATASIZE SUB DUP2 ADD SWAP1 PUSH2 0x159 SWAP2 SWAP1 PUSH2 0x15B4 JUMP JUMPDEST PUSH2 0x599 JUMP JUMPDEST PUSH1 0x40 MLOAD PUSH2 0x171 SWAP8 SWAP7 SWAP6 SWAP5 SWAP4 SWAP3 SWAP2 SWAP1 PUSH2 0x15FD JUMP JUMPDEST PUSH1 0x40 MLOAD DUP1 SWAP2 SUB SWAP1 RETURN JUMPDEST PUSH2 0x182 PUSH2 0x745 JUMP JUMPDEST PUSH1 0x40 MLOAD PUSH2 0x18F SWAP2 SWAP1 PUSH2 0x156D JUMP JUMPDEST PUSH1 0x40 MLOAD DUP1 SWAP2 SUB SWAP1 RETURN JUMPDEST PUSH2 0x1A0 PUSH2 0x74B JUMP JUMPDEST PUSH1 0x40 MLOAD PUSH2 0x1AD SWAP2 SWAP1 PUSH2 0x167A JUMP JUMPDEST PUSH1 0x40 MLOAD DUP1 SWAP2 SUB SWAP1 RETURN JUMPDEST PUSH2 0x1D0 PUSH1 0x4 DUP1 CALLDATASIZE SUB DUP2 ADD SWAP1 PUSH2 0x1CB SWAP2 SWAP1 PUSH2 0x13D3 JUMP JUMPDEST PUSH2 0x75E JUMP JUMPDEST PUSH1 0x40 MLOAD PUSH2 0x1E7 SWAP12 SWAP11 SWAP10 SWAP9 SWAP8 SWAP7 SWAP6 SWAP5 SWAP4 SWAP3 SWAP2 SWAP1 PUSH2 0x1695 JUMP JUMPDEST PUSH1 0x40 MLOAD DUP1 SWAP2 SUB SWAP1 RETURN JUMPDEST PUSH2 0x20A PUSH1 0x4 DUP1 CALLDATASIZE SUB DUP2 ADD SWAP1 PUSH2 0x205 SWAP2 SWAP1 PUSH2 0x197E JUMP JUMPDEST PUSH2 0xA8D JUMP JUMPDEST STOP JUMPDEST PUSH2 0x214 PUSH2 0xE17 JUMP JUMPDEST PUSH1 0x40 MLOAD PUSH2 0x221 SWAP2 SWAP1 PUSH2 0x156D JUMP JUMPDEST PUSH1 0x40 MLOAD DUP1 SWAP2 SUB SWAP1 RETURN JUMPDEST PUSH2 0x232 PUSH2 0xE1D JUMP JUMPDEST PUSH1 0x40 MLOAD PUSH2 0x23F SWAP2 SWAP1 PUSH2 0x1AC8 JUMP JUMPDEST PUSH1 0x40 MLOAD DUP1 SWAP2 SUB SWAP1 RETURN JUMPDEST PUSH2 0x262 PUSH1 0x4 DUP1 CALLDATASIZE SUB DUP2 ADD SWAP1 PUSH2 0x25D SWAP2 SWAP1 PUSH2 0x197E JUMP JUMPDEST PUSH2 0xE41 JUMP JUMPDEST STOP JUMPDEST PUSH2 0x27E PUSH1 0x4 DUP1 CALLDATASIZE SUB DUP2 ADD SWAP1 PUSH2 0x279 SWAP2 SWAP1 PUSH2 0x13D3 JUMP JUMPDEST PUSH2 0xFDB JUMP JUMPDEST PUSH1 0x40 MLOAD PUSH2 0x28B SWAP2 SWAP1 PUSH2 0x167A JUMP JUMPDEST PUSH1 0x40 MLOAD DUP1 SWAP2 SUB SWAP1 RETURN JUMPDEST PUSH2 0x29C PUSH2 0xFFB JUMP JUMPDEST STOP JUMPDEST PUSH2 0x2B8 PUSH1 0x4 DUP1 CALLDATASIZE SUB DUP2 ADD SWAP1 PUSH2 0x2B3 SWAP2 SWAP1 PUSH2 0x15B4 JUMP JUMPDEST PUSH2 0x1223 JUMP JUMPDEST PUSH1 0x40 MLOAD PUSH2 0x2C5 SWAP2 SWAP1 PUSH2 0x1AC8 JUMP JUMPDEST PUSH1 0x40 MLOAD DUP1 SWAP2 SUB SWAP1 RETURN JUMPDEST PUSH2 0x2E8 PUSH1 0x4 DUP1 CALLDATASIZE SUB DUP2 ADD SWAP1 PUSH2 0x2E3 SWAP2 SWAP1 PUSH2 0x1AE3 JUMP JUMPDEST PUSH2 0x1262 JUMP JUMPDEST PUSH1 0x40 MLOAD PUSH2 0x2F5 SWAP2 SWAP1 PUSH2 0x156D JUMP JUMPDEST PUSH1 0x40 MLOAD DUP1 SWAP2 SUB SWAP1 RETURN JUMPDEST PUSH1 0x6 PUSH1 0x20 MSTORE DUP1 PUSH1 0x0 MSTORE PUSH1 0x40 PUSH1 0x0 KECCAK256 PUSH1 0x0 SWAP2 POP SWAP1 POP DUP1 PUSH1 0x0 ADD PUSH1 0x0 SWAP1 SLOAD SWAP1 PUSH2 0x100 EXP SWAP1 DIV PUSH20 0xFFFFFFFFFFFFFFFFFFFFFFFFFFFFFFFFFFFFFFFF AND SWAP1 DUP1 PUSH1 0x1 ADD DUP1 SLOAD PUSH2 0x347 SWAP1 PUSH2 0x1B52 JUMP JUMPDEST DUP1 PUSH1 0x1F ADD PUSH1 0x20 DUP1 SWAP2 DIV MUL PUSH1 0x20 ADD PUSH1 0x40 MLOAD SWAP1 DUP2 ADD PUSH1 0x40 MSTORE DUP1 SWAP3 SWAP2 SWAP1 DUP2 DUP2 MSTORE PUSH1 0x20 ADD DUP3 DUP1 SLOAD PUSH2 0x373 SWAP1 PUSH2 0x1B52 JUMP JUMPDEST DUP1 ISZERO PUSH2 0x3C0 JUMPI DUP1 PUSH1 0x1F LT PUSH2 0x395 JUMPI PUSH2 0x100 DUP1 DUP4 SLOAD DIV MUL DUP4 MSTORE SWAP2 PUSH1 0x20 ADD SWAP2 PUSH2 0x3C0 JUMP JUMPDEST DUP3 ADD SWAP2 SWAP1 PUSH1 0x0 MSTORE PUSH1 0x20 PUSH1 0x0 KECCAK256 SWAP1 JUMPDEST DUP2 SLOAD DUP2 MSTORE SWAP1 PUSH1 0x1 ADD SWAP1 PUSH1 0x20 ADD DUP1 DUP4 GT PUSH2 0x3A3 JUMPI DUP3 SWAP1 SUB PUSH1 0x1F AND DUP3 ADD SWAP2 JUMPDEST POP POP POP POP POP SWAP1 DUP1 PUSH1 0x2 ADD DUP1 SLOAD PUSH2 0x3D5 SWAP1 PUSH2 0x1B52 JUMP JUMPDEST DUP1 PUSH1 0x1F ADD PUSH1 0x20 DUP1 SWAP2 DIV MUL PUSH1 0x20 ADD PUSH1 0x40 MLOAD SWAP1 DUP2 ADD PUSH1 0x40 MSTORE DUP1 SWAP3 SWAP2 SWAP1 DUP2 DUP2 MSTORE PUSH1 0x20 ADD DUP3 DUP1 SLOAD PUSH2 0x401 SWAP1 PUSH2 0x1B52 JUMP JUMPDEST DUP1 ISZERO PUSH2 0x44E JUMPI DUP1 PUSH1 0x1F LT PUSH2 0x423 JUMPI PUSH2 0x100 DUP1 DUP4 SLOAD DIV MUL DUP4 MSTORE SWAP2 PUSH1 0x20 ADD SWAP2 PUSH2 0x44E JUMP JUMPDEST DUP3 ADD SWAP2 SWAP1 PUSH1 0x0 MSTORE PUSH1 0x20 PUSH1 0x0 KECCAK256 SWAP1 JUMPDEST DUP2 SLOAD DUP2 MSTORE SWAP1 PUSH1 0x1 ADD SWAP1 PUSH1 0x20 ADD DUP1 DUP4 GT PUSH2 0x431 JUMPI DUP3 SWAP1 SUB PUSH1 0x1F AND DUP3 ADD SWAP2 JUMPDEST POP POP POP POP POP SWAP1 DUP1 PUSH1 0x3 ADD SLOAD SWAP1 DUP1 PUSH1 0x4 ADD DUP1 SLOAD PUSH2 0x469 SWAP1 PUSH2 0x1B52 JUMP JUMPDEST DUP1 PUSH1 0x1F ADD PUSH1 0x20 DUP1 SWAP2 DIV MUL PUSH1 0x20 ADD PUSH1 0x40 MLOAD SWAP1 DUP2 ADD PUSH1 0x40 MSTORE DUP1 SWAP3 SWAP2 SWAP1 DUP2 DUP2 MSTORE PUSH1 0x20 ADD DUP3 DUP1 SLOAD PUSH2 0x495 SWAP1 PUSH2 0x1B52 JUMP JUMPDEST DUP1 ISZERO PUSH2 0x4E2 JUMPI DUP1 PUSH1 0x1F LT PUSH2 0x4B7 JUMPI PUSH2 0x100 DUP1 DUP4 SLOAD DIV MUL DUP4 MSTORE SWAP2 PUSH1 0x20 ADD SWAP2 PUSH2 0x4E2 JUMP JUMPDEST DUP3 ADD SWAP2 SWAP1 PUSH1 0x0 MSTORE PUSH1 0x20 PUSH1 0x0 KECCAK256 SWAP1 JUMPDEST DUP2 SLOAD DUP2 MSTORE SWAP1 PUSH1 0x1 ADD SWAP1 PUSH1 0x20 ADD DUP1 DUP4 GT PUSH2 0x4C5 JUMPI DUP3 SWAP1 SUB PUSH1 0x1F AND DUP3 ADD SWAP2 JUMPDEST POP POP POP POP POP SWAP1 DUP1 PUSH1 0x5 ADD DUP1 SLOAD PUSH2 0x4F7 SWAP1 PUSH2 0x1B52 JUMP JUMPDEST DUP1 PUSH1 0x1F ADD PUSH1 0x20 DUP1 SWAP2 DIV MUL PUSH1 0x20 ADD PUSH1 0x40 MLOAD SWAP1 DUP2 ADD PUSH1 0x40 MSTORE DUP1 SWAP3 SWAP2 SWAP1 DUP2 DUP2 MSTORE PUSH1 0x20 ADD DUP3 DUP1 SLOAD PUSH2 0x523 SWAP1 PUSH2 0x1B52 JUMP JUMPDEST DUP1 ISZERO PUSH2 0x570 JUMPI DUP1 PUSH1 0x1F LT PUSH2 0x545 JUMPI PUSH2 0x100 DUP1 DUP4 SLOAD DIV MUL DUP4 MSTORE SWAP2 PUSH1 0x20 ADD SWAP2 PUSH2 0x570 JUMP JUMPDEST DUP3 ADD SWAP2 SWAP1 PUSH1 0x0 MSTORE PUSH1 0x20 PUSH1 0x0 KECCAK256 SWAP1 JUMPDEST DUP2 SLOAD DUP2 MSTORE SWAP1 PUSH1 0x1 ADD SWAP1 PUSH1 0x20 ADD DUP1 DUP4 GT PUSH2 0x553 JUMPI DUP3 SWAP1 SUB PUSH1 0x1F AND DUP3 ADD SWAP2 JUMPDEST POP POP POP POP POP SWAP1 DUP1 PUSH1 0x6 ADD PUSH1 0x0 SWAP1 SLOAD SWAP1 PUSH2 0x100 EXP SWAP1 DIV PUSH1 0xFF AND SWAP1 DUP1 PUSH1 0x7 ADD SLOAD SWAP1 POP DUP9 JUMP JUMPDEST PUSH1 0x3 SLOAD DUP2 JUMP JUMPDEST PUSH1 0x4 PUSH1 0x20 MSTORE DUP1 PUSH1 0x0 MSTORE PUSH1 0x40 PUSH1 0x0 KECCAK256 PUSH1 0x0 SWAP2 POP SWAP1 POP DUP1 PUSH1 0x0 ADD PUSH1 0x0 SWAP1 SLOAD SWAP1 PUSH2 0x100 EXP SWAP1 DIV PUSH1 0xFF AND SWAP1 DUP1 PUSH1 0x0 ADD PUSH1 0x1 SWAP1 SLOAD SWAP1 PUSH2 0x100 EXP SWAP1 DIV PUSH20 0xFFFFFFFFFFFFFFFFFFFFFFFFFFFFFFFFFFFFFFFF AND SWAP1 DUP1 PUSH1 0x1 ADD DUP1 SLOAD PUSH2 0x5F5 SWAP1 PUSH2 0x1B52 JUMP JUMPDEST DUP1 PUSH1 0x1F ADD PUSH1 0x20 DUP1 SWAP2 DIV MUL PUSH1 0x20 ADD PUSH1 0x40 MLOAD SWAP1 DUP2 ADD PUSH1 0x40 MSTORE DUP1 SWAP3 SWAP2 SWAP1 DUP2 DUP2 MSTORE PUSH1 0x20 ADD DUP3 DUP1 SLOAD PUSH2 0x621 SWAP1 PUSH2 0x1B52 JUMP JUMPDEST DUP1 ISZERO PUSH2 0x66E JUMPI DUP1 PUSH1 0x1F LT PUSH2 0x643 JUMPI PUSH2 0x100 DUP1 DUP4 SLOAD DIV MUL DUP4 MSTORE SWAP2 PUSH1 0x20 ADD SWAP2 PUSH2 0x66E JUMP JUMPDEST DUP3 ADD SWAP2 SWAP1 PUSH1 0x0 MSTORE PUSH1 0x20 PUSH1 0x0 KECCAK256 SWAP1 JUMPDEST DUP2 SLOAD DUP2 MSTORE SWAP1 PUSH1 0x1 ADD SWAP1 PUSH1 0x20 ADD DUP1 DUP4 GT PUSH2 0x651 JUMPI DUP3 SWAP1 SUB PUSH1 0x1F AND DUP3 ADD SWAP2 JUMPDEST POP POP POP POP POP SWAP1 DUP1 PUSH1 0x2 ADD DUP1 SLOAD PUSH2 0x683 SWAP1 PUSH2 0x1B52 JUMP JUMPDEST DUP1 PUSH1 0x1F ADD PUSH1 0x20 DUP1 SWAP2 DIV MUL PUSH1 0x20 ADD PUSH1 0x40 MLOAD SWAP1 DUP2 ADD PUSH1 0x40 MSTORE DUP1 SWAP3 SWAP2 SWAP1 DUP2 DUP2 MSTORE PUSH1 0x20 ADD DUP3 DUP1 SLOAD PUSH2 0x6AF SWAP1 PUSH2 0x1B52 JUMP JUMPDEST DUP1 ISZERO PUSH2 0x6FC JUMPI DUP1 PUSH1 0x1F LT PUSH2 0x6D1 JUMPI PUSH2 0x100 DUP1 DUP4 SLOAD DIV MUL DUP4 MSTORE SWAP2 PUSH1 0x20 ADD SWAP2 PUSH2 0x6FC JUMP JUMPDEST DUP3 ADD SWAP2 SWAP1 PUSH1 0x0 MSTORE PUSH1 0x20 PUSH1 0x0 KECCAK256 SWAP1 JUMPDEST DUP2 SLOAD DUP2 MSTORE SWAP1 PUSH1 0x1 ADD SWAP1 PUSH1 0x20 ADD DUP1 DUP4 GT PUSH2 0x6DF JUMPI DUP3 SWAP1 SUB PUSH1 0x1F AND DUP3 ADD SWAP2 JUMPDEST POP POP POP POP POP SWAP1 DUP1 PUSH1 0x3 ADD SLOAD SWAP1 DUP1 PUSH1 0x4 ADD PUSH1 0x0 SWAP1 SLOAD SWAP1 PUSH2 0x100 EXP SWAP1 DIV PUSH1 0xFF AND SWAP1 DUP1 PUSH1 0x6 ADD PUSH1 0x0 SWAP1 SLOAD SWAP1 PUSH2 0x100 EXP SWAP1 DIV PUSH20 0xFFFFFFFFFFFFFFFFFFFFFFFFFFFFFFFFFFFFFFFF AND SWAP1 POP DUP8 JUMP JUMPDEST PUSH1 0x2 SLOAD DUP2 JUMP JUMPDEST PUSH1 0x0 PUSH1 0x14 SWAP1 SLOAD SWAP1 PUSH2 0x100 EXP SWAP1 DIV PUSH1 0xFF AND DUP2 JUMP JUMPDEST PUSH1 0x5 PUSH1 0x20 MSTORE DUP1 PUSH1 0x0 MSTORE PUSH1 0x40 PUSH1 0x0 KECCAK256 PUSH1 0x0 SWAP2 POP SWAP1 POP DUP1 PUSH1 0x0 ADD PUSH1 0x0 SWAP1 SLOAD SWAP1 PUSH2 0x100 EXP SWAP1 DIV PUSH20 0xFFFFFFFFFFFFFFFFFFFFFFFFFFFFFFFFFFFFFFFF AND SWAP1 DUP1 PUSH1 0x1 ADD DUP1 SLOAD PUSH2 0x7A7 SWAP1 PUSH2 0x1B52 JUMP JUMPDEST DUP1 PUSH1 0x1F ADD PUSH1 0x20 DUP1 SWAP2 DIV MUL PUSH1 0x20 ADD PUSH1 0x40 MLOAD SWAP1 DUP2 ADD PUSH1 0x40 MSTORE DUP1 SWAP3 SWAP2 SWAP1 DUP2 DUP2 MSTORE PUSH1 0x20 ADD DUP3 DUP1 SLOAD PUSH2 0x7D3 SWAP1 PUSH2 0x1B52 JUMP JUMPDEST DUP1 ISZERO PUSH2 0x820 JUMPI DUP1 PUSH1 0x1F LT PUSH2 0x7F5 JUMPI PUSH2 0x100 DUP1 DUP4 SLOAD DIV MUL DUP4 MSTORE SWAP2 PUSH1 0x20 ADD SWAP2 PUSH2 0x820 JUMP JUMPDEST DUP3 ADD SWAP2 SWAP1 PUSH1 0x0 MSTORE PUSH1 0x20 PUSH1 0x0 KECCAK256 SWAP1 JUMPDEST DUP2 SLOAD DUP2 MSTORE SWAP1 PUSH1 0x1 ADD SWAP1 PUSH1 0x20 ADD DUP1 DUP4 GT PUSH2 0x803 JUMPI DUP3 SWAP1 SUB PUSH1 0x1F AND DUP3 ADD SWAP2 JUMPDEST POP POP POP POP POP SWAP1 DUP1 PUSH1 0x2 ADD DUP1 SLOAD PUSH2 0x835 SWAP1 PUSH2 0x1B52 JUMP JUMPDEST DUP1 PUSH1 0x1F ADD PUSH1 0x20 DUP1 SWAP2 DIV MUL PUSH1 0x20 ADD PUSH1 0x40 MLOAD SWAP1 DUP2 ADD PUSH1 0x40 MSTORE DUP1 SWAP3 SWAP2 SWAP1 DUP2 DUP2 MSTORE PUSH1 0x20 ADD DUP3 DUP1 SLOAD PUSH2 0x861 SWAP1 PUSH2 0x1B52 JUMP JUMPDEST DUP1 ISZERO PUSH2 0x8AE JUMPI DUP1 PUSH1 0x1F LT PUSH2 0x883 JUMPI PUSH2 0x100 DUP1 DUP4 SLOAD DIV MUL DUP4 MSTORE SWAP2 PUSH1 0x20 ADD SWAP2 PUSH2 0x8AE JUMP JUMPDEST DUP3 ADD SWAP2 SWAP1 PUSH1 0x0 MSTORE PUSH1 0x20 PUSH1 0x0 KECCAK256 SWAP1 JUMPDEST DUP2 SLOAD DUP2 MSTORE SWAP1 PUSH1 0x1 ADD SWAP1 PUSH1 0x20 ADD DUP1 DUP4 GT PUSH2 0x891 JUMPI DUP3 SWAP1 SUB PUSH1 0x1F AND DUP3 ADD SWAP2 JUMPDEST POP POP POP POP POP SWAP1 DUP1 PUSH1 0x3 ADD SLOAD SWAP1 DUP1 PUSH1 0x4 ADD DUP1 SLOAD PUSH2 0x8C9 SWAP1 PUSH2 0x1B52 JUMP JUMPDEST DUP1 PUSH1 0x1F ADD PUSH1 0x20 DUP1 SWAP2 DIV MUL PUSH1 0x20 ADD PUSH1 0x40 MLOAD SWAP1 DUP2 ADD PUSH1 0x40 MSTORE DUP1 SWAP3 SWAP2 SWAP1 DUP2 DUP2 MSTORE PUSH1 0x20 ADD DUP3 DUP1 SLOAD PUSH2 0x8F5 SWAP1 PUSH2 0x1B52 JUMP JUMPDEST DUP1 ISZERO PUSH2 0x942 JUMPI DUP1 PUSH1 0x1F LT PUSH2 0x917 JUMPI PUSH2 0x100 DUP1 DUP4 SLOAD DIV MUL DUP4 MSTORE SWAP2 PUSH1 0x20 ADD SWAP2 PUSH2 0x942 JUMP JUMPDEST DUP3 ADD SWAP2 SWAP1 PUSH1 0x0 MSTORE PUSH1 0x20 PUSH1 0x0 KECCAK256 SWAP1 JUMPDEST DUP2 SLOAD DUP2 MSTORE SWAP1 PUSH1 0x1 ADD SWAP1 PUSH1 0x20 ADD DUP1 DUP4 GT PUSH2 0x925 JUMPI DUP3 SWAP1 SUB PUSH1 0x1F AND DUP3 ADD SWAP2 JUMPDEST POP POP POP POP POP SWAP1 DUP1 PUSH1 0x5 ADD DUP1 SLOAD PUSH2 0x957 SWAP1 PUSH2 0x1B52 JUMP JUMPDEST DUP1 PUSH1 0x1F ADD PUSH1 0x20 DUP1 SWAP2 DIV MUL PUSH1 0x20 ADD PUSH1 0x40 MLOAD SWAP1 DUP2 ADD PUSH1 0x40 MSTORE DUP1 SWAP3 SWAP2 SWAP1 DUP2 DUP2 MSTORE PUSH1 0x20 ADD DUP3 DUP1 SLOAD PUSH2 0x983 SWAP1 PUSH2 0x1B52 JUMP JUMPDEST DUP1 ISZERO PUSH2 0x9D0 JUMPI DUP1 PUSH1 0x1F LT PUSH2 0x9A5 JUMPI PUSH2 0x100 DUP1 DUP4 SLOAD DIV MUL DUP4 MSTORE SWAP2 PUSH1 0x20 ADD SWAP2 PUSH2 0x9D0 JUMP JUMPDEST DUP3 ADD SWAP2 SWAP1 PUSH1 0x0 MSTORE PUSH1 0x20 PUSH1 0x0 KECCAK256 SWAP1 JUMPDEST DUP2 SLOAD DUP2 MSTORE SWAP1 PUSH1 0x1 ADD SWAP1 PUSH1 0x20 ADD DUP1 DUP4 GT PUSH2 0x9B3 JUMPI DUP3 SWAP1 SUB PUSH1 0x1F AND DUP3 ADD SWAP2 JUMPDEST POP POP POP POP POP SWAP1 DUP1 PUSH1 0x6 ADD DUP1 SLOAD PUSH2 0x9E5 SWAP1 PUSH2 0x1B52 JUMP JUMPDEST DUP1 PUSH1 0x1F ADD PUSH1 0x20 DUP1 SWAP2 DIV MUL PUSH1 0x20 ADD PUSH1 0x40 MLOAD SWAP1 DUP2 ADD PUSH1 0x40 MSTORE DUP1 SWAP3 SWAP2 SWAP1 DUP2 DUP2 MSTORE PUSH1 0x20 ADD DUP3 DUP1 SLOAD PUSH2 0xA11 SWAP1 PUSH2 0x1B52 JUMP JUMPDEST DUP1 ISZERO PUSH2 0xA5E JUMPI DUP1 PUSH1 0x1F LT PUSH2 0xA33 JUMPI PUSH2 0x100 DUP1 DUP4 SLOAD DIV MUL DUP4 MSTORE SWAP2 PUSH1 0x20 ADD SWAP2 PUSH2 0xA5E JUMP JUMPDEST DUP3 ADD SWAP2 SWAP1 PUSH1 0x0 MSTORE PUSH1 0x20 PUSH1 0x0 KECCAK256 SWAP1 JUMPDEST DUP2 SLOAD DUP2 MSTORE SWAP1 PUSH1 0x1 ADD SWAP1 PUSH1 0x20 ADD DUP1 DUP4 GT PUSH2 0xA41 JUMPI DUP3 SWAP1 SUB PUSH1 0x1F AND DUP3 ADD SWAP2 JUMPDEST POP POP POP POP POP SWAP1 DUP1 PUSH1 0x8 ADD SLOAD SWAP1 DUP1 PUSH1 0x9 ADD PUSH1 0x0 SWAP1 SLOAD SWAP1 PUSH2 0x100 EXP SWAP1 DIV PUSH1 0xFF AND SWAP1 DUP1 PUSH1 0xA ADD SLOAD SWAP1 DUP1 PUSH1 0xB ADD SLOAD SWAP1 POP DUP12 JUMP JUMPDEST PUSH1 0x0 PUSH1 0x8 PUSH1 0x0 CALLER PUSH20 0xFFFFFFFFFFFFFFFFFFFFFFFFFFFFFFFFFFFFFFFF AND PUSH20 0xFFFFFFFFFFFFFFFFFFFFFFFFFFFFFFFFFFFFFFFF AND DUP2 MSTORE PUSH1 0x20 ADD SWAP1 DUP2 MSTORE PUSH1 0x20 ADD PUSH1 0x0 KECCAK256 PUSH1 0x0 SWAP1 SLOAD SWAP1 PUSH2 0x100 EXP SWAP1 DIV PUSH1 0xFF AND PUSH1 0xFF AND EQ PUSH2 0xB16 JUMPI PUSH1 0x40 MLOAD PUSH32 0xAF79AD300000000000000000000000000000000000000000000000000000000 DUP2 MSTORE PUSH1 0x4 ADD PUSH1 0x40 MLOAD DUP1 SWAP2 SUB SWAP1 REVERT JUMPDEST PUSH1 0x0 DUP8 MLOAD GT PUSH2 0xB24 JUMPI PUSH1 0x0 DUP1 REVERT JUMPDEST PUSH1 0x0 DUP7 MLOAD GT PUSH2 0xB32 JUMPI PUSH1 0x0 DUP1 REVERT JUMPDEST PUSH1 0x1 PUSH1 0x0 DUP2 SLOAD DUP1 SWAP3 SWAP2 SWAP1 PUSH2 0xB45 SWAP1 PUSH2 0x1BB2 JUMP JUMPDEST SWAP2 SWAP1 POP SSTORE POP PUSH1 0x2 PUSH1 0x8 PUSH1 0x0 CALLER PUSH20 0xFFFFFFFFFFFFFFFFFFFFFFFFFFFFFFFFFFFFFFFF AND PUSH20 0xFFFFFFFFFFFFFFFFFFFFFFFFFFFFFFFFFFFFFFFF AND DUP2 MSTORE PUSH1 0x20 ADD SWAP1 DUP2 MSTORE PUSH1 0x20 ADD PUSH1 0x0 KECCAK256 PUSH1 0x0 PUSH2 0x100 EXP DUP2 SLOAD DUP2 PUSH1 0xFF MUL NOT AND SWAP1 DUP4 PUSH1 0xFF AND MUL OR SWAP1 SSTORE POP PUSH1 0x40 MLOAD DUP1 PUSH2 0x180 ADD PUSH1 0x40 MSTORE DUP1 CALLER PUSH20 0xFFFFFFFFFFFFFFFFFFFFFFFFFFFFFFFFFFFFFFFF AND DUP2 MSTORE PUSH1 0x20 ADD DUP9 DUP2 MSTORE PUSH1 0x20 ADD DUP8 DUP2 MSTORE PUSH1 0x20 ADD PUSH1 0x0 DUP2 MSTORE PUSH1 0x20 ADD DUP7 DUP2 MSTORE PUSH1 0x20 ADD DUP6 DUP2 MSTORE PUSH1 0x20 ADD DUP5 DUP2 MSTORE PUSH1 0x20 ADD DUP4 DUP2 MSTORE PUSH1 0x20 ADD PUSH1 0x0 DUP2 MSTORE PUSH1 0x20 ADD PUSH1 0x1 ISZERO ISZERO DUP2 MSTORE PUSH1 0x20 ADD TIMESTAMP DUP2 MSTORE PUSH1 0x20 ADD DUP3 DUP2 MSTORE POP PUSH1 0x5 PUSH1 0x0 CALLER PUSH20 0xFFFFFFFFFFFFFFFFFFFFFFFFFFFFFFFFFFFFFFFF AND PUSH20 0xFFFFFFFFFFFFFFFFFFFFFFFFFFFFFFFFFFFFFFFF AND DUP2 MSTORE PUSH1 0x20 ADD SWAP1 DUP2 MSTORE PUSH1 0x20 ADD PUSH1 0x0 KECCAK256 PUSH1 0x0 DUP3 ADD MLOAD DUP2 PUSH1 0x0 ADD PUSH1 0x0 PUSH2 0x100 EXP DUP2 SLOAD DUP2 PUSH20 0xFFFFFFFFFFFFFFFFFFFFFFFFFFFFFFFFFFFFFFFF MUL NOT AND SWAP1 DUP4 PUSH20 0xFFFFFFFFFFFFFFFFFFFFFFFFFFFFFFFFFFFFFFFF AND MUL OR SWAP1 SSTORE POP PUSH1 0x20 DUP3 ADD MLOAD DUP2 PUSH1 0x1 ADD SWAP1 DUP2 PUSH2 0xCAB SWAP2 SWAP1 PUSH2 0x1DA6 JUMP JUMPDEST POP PUSH1 0x40 DUP3 ADD MLOAD DUP2 PUSH1 0x2 ADD SWAP1 DUP2 PUSH2 0xCC1 SWAP2 SWAP1 PUSH2 0x1DA6 JUMP JUMPDEST POP PUSH1 0x60 DUP3 ADD MLOAD DUP2 PUSH1 0x3 ADD SSTORE PUSH1 0x80 DUP3 ADD MLOAD DUP2 PUSH1 0x4 ADD SWAP1 DUP2 PUSH2 0xCE1 SWAP2 SWAP1 PUSH2 0x1DA6 JUMP JUMPDEST POP PUSH1 0xA0 DUP3 ADD MLOAD DUP2 PUSH1 0x5 ADD SWAP1 DUP2 PUSH2 0xCF7 SWAP2 SWAP1 PUSH2 0x1DA6 JUMP JUMPDEST POP PUSH1 0xC0 DUP3 ADD MLOAD DUP2 PUSH1 0x6 ADD SWAP1 DUP2 PUSH2 0xD0D SWAP2 SWAP1 PUSH2 0x1DA6 JUMP JUMPDEST POP PUSH1 0xE0 DUP3 ADD MLOAD DUP2 PUSH1 0x7 ADD SWAP1 DUP1 MLOAD SWAP1 PUSH1 0x20 ADD SWAP1 PUSH2 0xD2A SWAP3 SWAP2 SWAP1 PUSH2 0x1287 JUMP JUMPDEST POP PUSH2 0x100 DUP3 ADD MLOAD DUP2 PUSH1 0x8 ADD SSTORE PUSH2 0x120 DUP3 ADD MLOAD DUP2 PUSH1 0x9 ADD PUSH1 0x0 PUSH2 0x100 EXP DUP2 SLOAD DUP2 PUSH1 0xFF MUL NOT AND SWAP1 DUP4 ISZERO ISZERO MUL OR SWAP1 SSTORE POP PUSH2 0x140 DUP3 ADD MLOAD DUP2 PUSH1 0xA ADD SSTORE PUSH2 0x160 DUP3 ADD MLOAD DUP2 PUSH1 0xB ADD SSTORE SWAP1 POP POP PUSH1 0x9 CALLER SWAP1 DUP1 PUSH1 0x1 DUP2 SLOAD ADD DUP1 DUP3 SSTORE DUP1 SWAP2 POP POP PUSH1 0x1 SWAP1 SUB SWAP1 PUSH1 0x0 MSTORE PUSH1 0x20 PUSH1 0x0 KECCAK256 ADD PUSH1 0x0 SWAP1 SWAP2 SWAP1 SWAP2 SWAP1 SWAP2 PUSH2 0x100 EXP DUP2 SLOAD DUP2 PUSH20 0xFFFFFFFFFFFFFFFFFFFFFFFFFFFFFFFFFFFFFFFF MUL NOT AND SWAP1 DUP4 PUSH20 0xFFFFFFFFFFFFFFFFFFFFFFFFFFFFFFFFFFFFFFFF AND MUL OR SWAP1 SSTORE POP PUSH32 0x21BEF455EB0E77B12A579311CA8616D72216C8B628577EEDA276AC16FE5B622E CALLER DUP4 DUP4 PUSH1 0x40 MLOAD PUSH2 0xE06 SWAP4 SWAP3 SWAP2 SWAP1 PUSH2 0x1F84 JUMP JUMPDEST PUSH1 0x40 MLOAD DUP1 SWAP2 SUB SWAP1 LOG1 POP POP POP POP POP POP POP JUMP JUMPDEST PUSH1 0x1 SLOAD DUP2 JUMP JUMPDEST PUSH1 0x0 DUP1 SLOAD SWAP1 PUSH2 0x100 EXP SWAP1 DIV PUSH20 0xFFFFFFFFFFFFFFFFFFFFFFFFFFFFFFFFFFFFFFFF AND DUP2 JUMP JUMPDEST PUSH1 0x2 PUSH1 0x8 PUSH1 0x0 CALLER PUSH20 0xFFFFFFFFFFFFFFFFFFFFFFFFFFFFFFFFFFFFFFFF AND PUSH20 0xFFFFFFFFFFFFFFFFFFFFFFFFFFFFFFFFFFFFFFFF AND DUP2 MSTORE PUSH1 0x20 ADD SWAP1 DUP2 MSTORE PUSH1 0x20 ADD PUSH1 0x0 KECCAK256 PUSH1 0x0 SWAP1 SLOAD SWAP1 PUSH2 0x100 EXP SWAP1 DIV PUSH1 0xFF AND PUSH1 0xFF AND EQ PUSH2 0xECA JUMPI PUSH1 0x40 MLOAD PUSH32 0xC23CF1F400000000000000000000000000000000000000000000000000000000 DUP2 MSTORE PUSH1 0x4 ADD PUSH1 0x40 MLOAD DUP1 SWAP2 SUB SWAP1 REVERT JUMPDEST PUSH1 0x0 DUP8 MLOAD EQ DUP1 PUSH2 0xEDB JUMPI POP PUSH1 0x0 DUP7 MLOAD EQ JUMPDEST ISZERO PUSH2 0xF12 JUMPI PUSH1 0x40 MLOAD PUSH32 0xBD0FEBC100000000000000000000000000000000000000000000000000000000 DUP2 MSTORE PUSH1 0x4 ADD PUSH1 0x40 MLOAD DUP1 SWAP2 SUB SWAP1 REVERT JUMPDEST PUSH1 0x0 PUSH1 0x5 PUSH1 0x0 CALLER PUSH20 0xFFFFFFFFFFFFFFFFFFFFFFFFFFFFFFFFFFFFFFFF AND PUSH20 0xFFFFFFFFFFFFFFFFFFFFFFFFFFFFFFFFFFFFFFFF AND DUP2 MSTORE PUSH1 0x20 ADD SWAP1 DUP2 MSTORE PUSH1 0x20 ADD PUSH1 0x0 KECCAK256 SWAP1 POP DUP8 DUP2 PUSH1 0x1 ADD SWAP1 DUP2 PUSH2 0xF66 SWAP2 SWAP1 PUSH2 0x1DA6 JUMP JUMPDEST POP DUP7 DUP2 PUSH1 0x2 ADD SWAP1 DUP2 PUSH2 0xF78 SWAP2 SWAP1 PUSH2 0x1DA6 JUMP JUMPDEST POP DUP6 DUP2 PUSH1 0x4 ADD SWAP1 DUP2 PUSH2 0xF8A SWAP2 SWAP1 PUSH2 0x1DA6 JUMP JUMPDEST POP DUP5 DUP2 PUSH1 0x5 ADD SWAP1 DUP2 PUSH2 0xF9C SWAP2 SWAP1 PUSH2 0x1DA6 JUMP JUMPDEST POP DUP4 DUP2 PUSH1 0x6 ADD SWAP1 DUP2 PUSH2 0xFAE SWAP2 SWAP1 PUSH2 0x1DA6 JUMP JUMPDEST POP DUP3 DUP2 PUSH1 0x7 ADD SWAP1 DUP1 MLOAD SWAP1 PUSH1 0x20 ADD SWAP1 PUSH2 0xFC7 SWAP3 SWAP2 SWAP1 PUSH2 0x1287 JUMP JUMPDEST POP DUP2 DUP2 PUSH1 0xB ADD DUP2 SWAP1 SSTORE POP POP POP POP POP POP POP POP POP JUMP JUMPDEST PUSH1 0x8 PUSH1 0x20 MSTORE DUP1 PUSH1 0x0 MSTORE PUSH1 0x40 PUSH1 0x0 KECCAK256 PUSH1 0x0 SWAP2 POP SLOAD SWAP1 PUSH2 0x100 EXP SWAP1 DIV PUSH1 0xFF AND DUP2 JUMP JUMPDEST PUSH1 0x2 PUSH1 0x8 PUSH1 0x0 CALLER PUSH20 0xFFFFFFFFFFFFFFFFFFFFFFFFFFFFFFFFFFFFFFFF AND PUSH20 0xFFFFFFFFFFFFFFFFFFFFFFFFFFFFFFFFFFFFFFFF AND DUP2 MSTORE PUSH1 0x20 ADD SWAP1 DUP2 MSTORE PUSH1 0x20 ADD PUSH1 0x0 KECCAK256 PUSH1 0x0 SWAP1 SLOAD SWAP1 PUSH2 0x100 EXP SWAP1 DIV PUSH1 0xFF AND PUSH1 0xFF AND EQ PUSH2 0x1084 JUMPI PUSH1 0x40 MLOAD PUSH32 0xC23CF1F400000000000000000000000000000000000000000000000000000000 DUP2 MSTORE PUSH1 0x4 ADD PUSH1 0x40 MLOAD DUP1 SWAP2 SUB SWAP1 REVERT JUMPDEST PUSH1 0x0 PUSH1 0x5 PUSH1 0x0 CALLER PUSH20 0xFFFFFFFFFFFFFFFFFFFFFFFFFFFFFFFFFFFFFFFF AND PUSH20 0xFFFFFFFFFFFFFFFFFFFFFFFFFFFFFFFFFFFFFFFF AND DUP2 MSTORE PUSH1 0x20 ADD SWAP1 DUP2 MSTORE PUSH1 0x20 ADD PUSH1 0x0 KECCAK256 SWAP1 POP PUSH1 0x0 DUP2 PUSH1 0x3 ADD SLOAD GT PUSH2 0x110E JUMPI PUSH1 0x40 MLOAD PUSH32 0x8C379A000000000000000000000000000000000000000000000000000000000 DUP2 MSTORE PUSH1 0x4 ADD PUSH2 0x1105 SWAP1 PUSH2 0x200E JUMP JUMPDEST PUSH1 0x40 MLOAD DUP1 SWAP2 SUB SWAP1 REVERT JUMPDEST PUSH1 0x0 PUSH1 0x64 PUSH1 0x5F DUP4 PUSH1 0x3 ADD SLOAD PUSH2 0x1123 SWAP2 SWAP1 PUSH2 0x202E JUMP JUMPDEST PUSH2 0x112D SWAP2 SWAP1 PUSH2 0x209F JUMP JUMPDEST SWAP1 POP PUSH1 0x0 DUP3 PUSH1 0x3 ADD DUP2 SWAP1 SSTORE POP PUSH1 0x0 CALLER PUSH20 0xFFFFFFFFFFFFFFFFFFFFFFFFFFFFFFFFFFFFFFFF AND DUP3 PUSH1 0x40 MLOAD PUSH2 0x115F SWAP1 PUSH2 0x2101 JUMP JUMPDEST PUSH1 0x0 PUSH1 0x40 MLOAD DUP1 DUP4 SUB DUP2 DUP6 DUP8 GAS CALL SWAP3 POP POP POP RETURNDATASIZE DUP1 PUSH1 0x0 DUP2 EQ PUSH2 0x119C JUMPI PUSH1 0x40 MLOAD SWAP2 POP PUSH1 0x1F NOT PUSH1 0x3F RETURNDATASIZE ADD AND DUP3 ADD PUSH1 0x40 MSTORE RETURNDATASIZE DUP3 MSTORE RETURNDATASIZE PUSH1 0x0 PUSH1 0x20 DUP5 ADD RETURNDATACOPY PUSH2 0x11A1 JUMP JUMPDEST PUSH1 0x60 SWAP2 POP JUMPDEST POP POP SWAP1 POP DUP1 PUSH2 0x11E5 JUMPI PUSH1 0x40 MLOAD PUSH32 0x8C379A000000000000000000000000000000000000000000000000000000000 DUP2 MSTORE PUSH1 0x4 ADD PUSH2 0x11DC SWAP1 PUSH2 0x2162 JUMP JUMPDEST PUSH1 0x40 MLOAD DUP1 SWAP2 SUB SWAP1 REVERT JUMPDEST PUSH32 0x9AD672D4E7C4892DA934D1051932EBE9EC4B6EC8C3F40D569176DB3E93E5ABE CALLER DUP4 PUSH1 0x40 MLOAD PUSH2 0x1216 SWAP3 SWAP2 SWAP1 PUSH2 0x2182 JUMP JUMPDEST PUSH1 0x40 MLOAD DUP1 SWAP2 SUB SWAP1 LOG1 POP POP POP JUMP JUMPDEST PUSH1 0x9 DUP2 DUP2 SLOAD DUP2 LT PUSH2 0x1233 JUMPI PUSH1 0x0 DUP1 REVERT JUMPDEST SWAP1 PUSH1 0x0 MSTORE PUSH1 0x20 PUSH1 0x0 KECCAK256 ADD PUSH1 0x0 SWAP2 POP SLOAD SWAP1 PUSH2 0x100 EXP SWAP1 DIV PUSH20 0xFFFFFFFFFFFFFFFFFFFFFFFFFFFFFFFFFFFFFFFF AND DUP2 JUMP JUMPDEST PUSH1 0x7 PUSH1 0x20 MSTORE DUP2 PUSH1 0x0 MSTORE PUSH1 0x40 PUSH1 0x0 KECCAK256 PUSH1 0x20 MSTORE DUP1 PUSH1 0x0 MSTORE PUSH1 0x40 PUSH1 0x0 KECCAK256 PUSH1 0x0 SWAP2 POP SWAP2 POP POP SLOAD DUP2 JUMP JUMPDEST DUP3 DUP1 SLOAD DUP3 DUP3 SSTORE SWAP1 PUSH1 0x0 MSTORE PUSH1 0x20 PUSH1 0x0 KECCAK256 SWAP1 DUP2 ADD SWAP3 DUP3 ISZERO PUSH2 0x12CF JUMPI SWAP2 PUSH1 0x20 MUL DUP3 ADD JUMPDEST DUP3 DUP2 GT ISZERO PUSH2 0x12CE JUMPI DUP3 MLOAD DUP3 SWAP1 DUP2 PUSH2 0x12BE SWAP2 SWAP1 PUSH2 0x1DA6 JUMP JUMPDEST POP SWAP2 PUSH1 0x20 ADD SWAP2 SWAP1 PUSH1 0x1 ADD SWAP1 PUSH2 0x12A7 JUMP JUMPDEST JUMPDEST POP SWAP1 POP PUSH2 0x12DC SWAP2 SWAP1 PUSH2 0x12E0 JUMP JUMPDEST POP SWAP1 JUMP JUMPDEST JUMPDEST DUP1 DUP3 GT ISZERO PUSH2 0x1300 JUMPI PUSH1 0x0 DUP2 DUP2 PUSH2 0x12F7 SWAP2 SWAP1 PUSH2 0x1304 JUMP JUMPDEST POP PUSH1 0x1 ADD PUSH2 0x12E1 JUMP JUMPDEST POP SWAP1 JUMP JUMPDEST POP DUP1 SLOAD PUSH2 0x1310 SWAP1 PUSH2 0x1B52 JUMP JUMPDEST PUSH1 0x0 DUP3 SSTORE DUP1 PUSH1 0x1F LT PUSH2 0x1322 JUMPI POP PUSH2 0x1341 JUMP JUMPDEST PUSH1 0x1F ADD PUSH1 0x20 SWAP1 DIV SWAP1 PUSH1 0x0 MSTORE PUSH1 0x20 PUSH1 0x0 KECCAK256 SWAP1 DUP2 ADD SWAP1 PUSH2 0x1340 SWAP2 SWAP1 PUSH2 0x1344 JUMP JUMPDEST JUMPDEST POP JUMP JUMPDEST JUMPDEST DUP1 DUP3 GT ISZERO PUSH2 0x135D JUMPI PUSH1 0x0 DUP2 PUSH1 0x0 SWAP1 SSTORE POP PUSH1 0x1 ADD PUSH2 0x1345 JUMP JUMPDEST POP SWAP1 JUMP JUMPDEST PUSH1 0x0 PUSH1 0x40 MLOAD SWAP1 POP SWAP1 JUMP JUMPDEST PUSH1 0x0 DUP1 REVERT JUMPDEST PUSH1 0x0 DUP1 REVERT JUMPDEST PUSH1 0x0 PUSH20 0xFFFFFFFFFFFFFFFFFFFFFFFFFFFFFFFFFFFFFFFF DUP3 AND SWAP1 POP SWAP2 SWAP1 POP JUMP JUMPDEST PUSH1 0x0 PUSH2 0x13A0 DUP3 PUSH2 0x1375 JUMP JUMPDEST SWAP1 POP SWAP2 SWAP1 POP JUMP JUMPDEST PUSH2 0x13B0 DUP2 PUSH2 0x1395 JUMP JUMPDEST DUP2 EQ PUSH2 0x13BB JUMPI PUSH1 0x0 DUP1 REVERT JUMPDEST POP JUMP JUMPDEST PUSH1 0x0 DUP2 CALLDATALOAD SWAP1 POP PUSH2 0x13CD DUP2 PUSH2 0x13A7 JUMP JUMPDEST SWAP3 SWAP2 POP POP JUMP JUMPDEST PUSH1 0x0 PUSH1 0x20 DUP3 DUP5 SUB SLT ISZERO PUSH2 0x13E9 JUMPI PUSH2 0x13E8 PUSH2 0x136B JUMP JUMPDEST JUMPDEST PUSH1 0x0 PUSH2 0x13F7 DUP5 DUP3 DUP6 ADD PUSH2 0x13BE JUMP JUMPDEST SWAP2 POP POP SWAP3 SWAP2 POP POP JUMP JUMPDEST PUSH2 0x1409 DUP2 PUSH2 0x1395 JUMP JUMPDEST DUP3 MSTORE POP POP JUMP JUMPDEST PUSH1 0x0 DUP2 MLOAD SWAP1 POP SWAP2 SWAP1 POP JUMP JUMPDEST PUSH1 0x0 DUP3 DUP3 MSTORE PUSH1 0x20 DUP3 ADD SWAP1 POP SWAP3 SWAP2 POP POP JUMP JUMPDEST PUSH1 0x0 JUMPDEST DUP4 DUP2 LT ISZERO PUSH2 0x1449 JUMPI DUP1 DUP3 ADD MLOAD DUP2 DUP5 ADD MSTORE PUSH1 0x20 DUP2 ADD SWAP1 POP PUSH2 0x142E JUMP JUMPDEST PUSH1 0x0 DUP5 DUP5 ADD MSTORE POP POP POP POP JUMP JUMPDEST PUSH1 0x0 PUSH1 0x1F NOT PUSH1 0x1F DUP4 ADD AND SWAP1 POP SWAP2 SWAP1 POP JUMP JUMPDEST PUSH1 0x0 PUSH2 0x1471 DUP3 PUSH2 0x140F JUMP JUMPDEST PUSH2 0x147B DUP2 DUP6 PUSH2 0x141A JUMP JUMPDEST SWAP4 POP PUSH2 0x148B DUP2 DUP6 PUSH1 0x20 DUP7 ADD PUSH2 0x142B JUMP JUMPDEST PUSH2 0x1494 DUP2 PUSH2 0x1455 JUMP JUMPDEST DUP5 ADD SWAP2 POP POP SWAP3 SWAP2 POP POP JUMP JUMPDEST PUSH1 0x0 DUP2 SWAP1 POP SWAP2 SWAP1 POP JUMP JUMPDEST PUSH2 0x14B2 DUP2 PUSH2 0x149F JUMP JUMPDEST DUP3 MSTORE POP POP JUMP JUMPDEST PUSH1 0x0 DUP2 ISZERO ISZERO SWAP1 POP SWAP2 SWAP1 POP JUMP JUMPDEST PUSH2 0x14CD DUP2 PUSH2 0x14B8 JUMP JUMPDEST DUP3 MSTORE POP POP JUMP JUMPDEST PUSH1 0x0 PUSH2 0x100 DUP3 ADD SWAP1 POP PUSH2 0x14E9 PUSH1 0x0 DUP4 ADD DUP12 PUSH2 0x1400 JUMP JUMPDEST DUP2 DUP2 SUB PUSH1 0x20 DUP4 ADD MSTORE PUSH2 0x14FB DUP2 DUP11 PUSH2 0x1466 JUMP JUMPDEST SWAP1 POP DUP2 DUP2 SUB PUSH1 0x40 DUP4 ADD MSTORE PUSH2 0x150F DUP2 DUP10 PUSH2 0x1466 JUMP JUMPDEST SWAP1 POP PUSH2 0x151E PUSH1 0x60 DUP4 ADD DUP9 PUSH2 0x14A9 JUMP JUMPDEST DUP2 DUP2 SUB PUSH1 0x80 DUP4 ADD MSTORE PUSH2 0x1530 DUP2 DUP8 PUSH2 0x1466 JUMP JUMPDEST SWAP1 POP DUP2 DUP2 SUB PUSH1 0xA0 DUP4 ADD MSTORE PUSH2 0x1544 DUP2 DUP7 PUSH2 0x1466 JUMP JUMPDEST SWAP1 POP PUSH2 0x1553 PUSH1 0xC0 DUP4 ADD DUP6 PUSH2 0x14C4 JUMP JUMPDEST PUSH2 0x1560 PUSH1 0xE0 DUP4 ADD DUP5 PUSH2 0x14A9 JUMP JUMPDEST SWAP10 SWAP9 POP POP POP POP POP POP POP POP POP JUMP JUMPDEST PUSH1 0x0 PUSH1 0x20 DUP3 ADD SWAP1 POP PUSH2 0x1582 PUSH1 0x0 DUP4 ADD DUP5 PUSH2 0x14A9 JUMP JUMPDEST SWAP3 SWAP2 POP POP JUMP JUMPDEST PUSH2 0x1591 DUP2 PUSH2 0x149F JUMP JUMPDEST DUP2 EQ PUSH2 0x159C JUMPI PUSH1 0x0 DUP1 REVERT JUMPDEST POP JUMP JUMPDEST PUSH1 0x0 DUP2 CALLDATALOAD SWAP1 POP PUSH2 0x15AE DUP2 PUSH2 0x1588 JUMP JUMPDEST SWAP3 SWAP2 POP POP JUMP JUMPDEST PUSH1 0x0 PUSH1 0x20 DUP3 DUP5 SUB SLT ISZERO PUSH2 0x15CA JUMPI PUSH2 0x15C9 PUSH2 0x136B JUMP JUMPDEST JUMPDEST PUSH1 0x0 PUSH2 0x15D8 DUP5 DUP3 DUP6 ADD PUSH2 0x159F JUMP JUMPDEST SWAP2 POP POP SWAP3 SWAP2 POP POP JUMP JUMPDEST PUSH1 0x0 PUSH1 0xFF DUP3 AND SWAP1 POP SWAP2 SWAP1 POP JUMP JUMPDEST PUSH2 0x15F7 DUP2 PUSH2 0x15E1 JUMP JUMPDEST DUP3 MSTORE POP POP JUMP JUMPDEST PUSH1 0x0 PUSH1 0xE0 DUP3 ADD SWAP1 POP PUSH2 0x1612 PUSH1 0x0 DUP4 ADD DUP11 PUSH2 0x15EE JUMP JUMPDEST PUSH2 0x161F PUSH1 0x20 DUP4 ADD DUP10 PUSH2 0x1400 JUMP JUMPDEST DUP2 DUP2 SUB PUSH1 0x40 DUP4 ADD MSTORE PUSH2 0x1631 DUP2 DUP9 PUSH2 0x1466 JUMP JUMPDEST SWAP1 POP DUP2 DUP2 SUB PUSH1 0x60 DUP4 ADD MSTORE PUSH2 0x1645 DUP2 DUP8 PUSH2 0x1466 JUMP JUMPDEST SWAP1 POP PUSH2 0x1654 PUSH1 0x80 DUP4 ADD DUP7 PUSH2 0x14A9 JUMP JUMPDEST PUSH2 0x1661 PUSH1 0xA0 DUP4 ADD DUP6 PUSH2 0x14C4 JUMP JUMPDEST PUSH2 0x166E PUSH1 0xC0 DUP4 ADD DUP5 PUSH2 0x1400 JUMP JUMPDEST SWAP9 SWAP8 POP POP POP POP POP POP POP POP JUMP JUMPDEST PUSH1 0x0 PUSH1 0x20 DUP3 ADD SWAP1 POP PUSH2 0x168F PUSH1 0x0 DUP4 ADD DUP5 PUSH2 0x15EE JUMP JUMPDEST SWAP3 SWAP2 POP POP JUMP JUMPDEST PUSH1 0x0 PUSH2 0x160 DUP3 ADD SWAP1 POP PUSH2 0x16AB PUSH1 0x0 DUP4 ADD DUP15 PUSH2 0x1400 JUMP JUMPDEST DUP2 DUP2 SUB PUSH1 0x20 DUP4 ADD MSTORE PUSH2 0x16BD DUP2 DUP14 PUSH2 0x1466 JUMP JUMPDEST SWAP1 POP DUP2 DUP2 SUB PUSH1 0x40 DUP4 ADD MSTORE PUSH2 0x16D1 DUP2 DUP13 PUSH2 0x1466 JUMP JUMPDEST SWAP1 POP PUSH2 0x16E0 PUSH1 0x60 DUP4 ADD DUP12 PUSH2 0x14A9 JUMP JUMPDEST DUP2 DUP2 SUB PUSH1 0x80 DUP4 ADD MSTORE PUSH2 0x16F2 DUP2 DUP11 PUSH2 0x1466 JUMP JUMPDEST SWAP1 POP DUP2 DUP2 SUB PUSH1 0xA0 DUP4 ADD MSTORE PUSH2 0x1706 DUP2 DUP10 PUSH2 0x1466 JUMP JUMPDEST SWAP1 POP DUP2 DUP2 SUB PUSH1 0xC0 DUP4 ADD MSTORE PUSH2 0x171A DUP2 DUP9 PUSH2 0x1466 JUMP JUMPDEST SWAP1 POP PUSH2 0x1729 PUSH1 0xE0 DUP4 ADD DUP8 PUSH2 0x14A9 JUMP JUMPDEST PUSH2 0x1737 PUSH2 0x100 DUP4 ADD DUP7 PUSH2 0x14C4 JUMP JUMPDEST PUSH2 0x1745 PUSH2 0x120 DUP4 ADD DUP6 PUSH2 0x14A9 JUMP JUMPDEST PUSH2 0x1753 PUSH2 0x140 DUP4 ADD DUP5 PUSH2 0x14A9 JUMP JUMPDEST SWAP13 SWAP12 POP POP POP POP POP POP POP POP POP POP POP POP JUMP JUMPDEST PUSH1 0x0 DUP1 REVERT JUMPDEST PUSH1 0x0 DUP1 REVERT JUMPDEST PUSH32 0x4E487B7100000000000000000000000000000000000000000000000000000000 PUSH1 0x0 MSTORE PUSH1 0x41 PUSH1 0x4 MSTORE PUSH1 0x24 PUSH1 0x0 REVERT JUMPDEST PUSH2 0x17A5 DUP3 PUSH2 0x1455 JUMP JUMPDEST DUP2 ADD DUP2 DUP2 LT PUSH8 0xFFFFFFFFFFFFFFFF DUP3 GT OR ISZERO PUSH2 0x17C4 JUMPI PUSH2 0x17C3 PUSH2 0x176D JUMP JUMPDEST JUMPDEST DUP1 PUSH1 0x40 MSTORE POP POP POP JUMP JUMPDEST PUSH1 0x0 PUSH2 0x17D7 PUSH2 0x1361 JUMP JUMPDEST SWAP1 POP PUSH2 0x17E3 DUP3 DUP3 PUSH2 0x179C JUMP JUMPDEST SWAP2 SWAP1 POP JUMP JUMPDEST PUSH1 0x0 PUSH8 0xFFFFFFFFFFFFFFFF DUP3 GT ISZERO PUSH2 0x1803 JUMPI PUSH2 0x1802 PUSH2 0x176D JUMP JUMPDEST JUMPDEST PUSH2 0x180C DUP3 PUSH2 0x1455 JUMP JUMPDEST SWAP1 POP PUSH1 0x20 DUP2 ADD SWAP1 POP SWAP2 SWAP1 POP JUMP JUMPDEST DUP3 DUP2 DUP4 CALLDATACOPY PUSH1 0x0 DUP4 DUP4 ADD MSTORE POP POP POP JUMP JUMPDEST PUSH1 0x0 PUSH2 0x183B PUSH2 0x1836 DUP5 PUSH2 0x17E8 JUMP JUMPDEST PUSH2 0x17CD JUMP JUMPDEST SWAP1 POP DUP3 DUP2 MSTORE PUSH1 0x20 DUP2 ADD DUP5 DUP5 DUP5 ADD GT ISZERO PUSH2 0x1857 JUMPI PUSH2 0x1856 PUSH2 0x1768 JUMP JUMPDEST JUMPDEST PUSH2 0x1862 DUP5 DUP3 DUP6 PUSH2 0x1819 JUMP JUMPDEST POP SWAP4 SWAP3 POP POP POP JUMP JUMPDEST PUSH1 0x0 DUP3 PUSH1 0x1F DUP4 ADD SLT PUSH2 0x187F JUMPI PUSH2 0x187E PUSH2 0x1763 JUMP JUMPDEST JUMPDEST DUP2 CALLDATALOAD PUSH2 0x188F DUP5 DUP3 PUSH1 0x20 DUP7 ADD PUSH2 0x1828 JUMP JUMPDEST SWAP2 POP POP SWAP3 SWAP2 POP POP JUMP JUMPDEST PUSH1 0x0 PUSH8 0xFFFFFFFFFFFFFFFF DUP3 GT ISZERO PUSH2 0x18B3 JUMPI PUSH2 0x18B2 PUSH2 0x176D JUMP JUMPDEST JUMPDEST PUSH1 0x20 DUP3 MUL SWAP1 POP PUSH1 0x20 DUP2 ADD SWAP1 POP SWAP2 SWAP1 POP JUMP JUMPDEST PUSH1 0x0 DUP1 REVERT JUMPDEST PUSH1 0x0 PUSH2 0x18DC PUSH2 0x18D7 DUP5 PUSH2 0x1898 JUMP JUMPDEST PUSH2 0x17CD JUMP JUMPDEST SWAP1 POP DUP1 DUP4 DUP3 MSTORE PUSH1 0x20 DUP3 ADD SWAP1 POP PUSH1 0x20 DUP5 MUL DUP4 ADD DUP6 DUP2 GT ISZERO PUSH2 0x18FF JUMPI PUSH2 0x18FE PUSH2 0x18C4 JUMP JUMPDEST JUMPDEST DUP4 JUMPDEST DUP2 DUP2 LT ISZERO PUSH2 0x1946 JUMPI DUP1 CALLDATALOAD PUSH8 0xFFFFFFFFFFFFFFFF DUP2 GT ISZERO PUSH2 0x1924 JUMPI PUSH2 0x1923 PUSH2 0x1763 JUMP JUMPDEST JUMPDEST DUP1 DUP7 ADD PUSH2 0x1931 DUP10 DUP3 PUSH2 0x186A JUMP JUMPDEST DUP6 MSTORE PUSH1 0x20 DUP6 ADD SWAP5 POP POP POP PUSH1 0x20 DUP2 ADD SWAP1 POP PUSH2 0x1901 JUMP JUMPDEST POP POP POP SWAP4 SWAP3 POP POP POP JUMP JUMPDEST PUSH1 0x0 DUP3 PUSH1 0x1F DUP4 ADD SLT PUSH2 0x1965 JUMPI PUSH2 0x1964 PUSH2 0x1763 JUMP JUMPDEST JUMPDEST DUP2 CALLDATALOAD PUSH2 0x1975 DUP5 DUP3 PUSH1 0x20 DUP7 ADD PUSH2 0x18C9 JUMP JUMPDEST SWAP2 POP POP SWAP3 SWAP2 POP POP JUMP JUMPDEST PUSH1 0x0 DUP1 PUSH1 0x0 DUP1 PUSH1 0x0 DUP1 PUSH1 0x0 PUSH1 0xE0 DUP9 DUP11 SUB SLT ISZERO PUSH2 0x199D JUMPI PUSH2 0x199C PUSH2 0x136B JUMP JUMPDEST JUMPDEST PUSH1 0x0 DUP9 ADD CALLDATALOAD PUSH8 0xFFFFFFFFFFFFFFFF DUP2 GT ISZERO PUSH2 0x19BB JUMPI PUSH2 0x19BA PUSH2 0x1370 JUMP JUMPDEST JUMPDEST PUSH2 0x19C7 DUP11 DUP3 DUP12 ADD PUSH2 0x186A JUMP JUMPDEST SWAP8 POP POP PUSH1 0x20 DUP9 ADD CALLDATALOAD PUSH8 0xFFFFFFFFFFFFFFFF DUP2 GT ISZERO PUSH2 0x19E8 JUMPI PUSH2 0x19E7 PUSH2 0x1370 JUMP JUMPDEST JUMPDEST PUSH2 0x19F4 DUP11 DUP3 DUP12 ADD PUSH2 0x186A JUMP JUMPDEST SWAP7 POP POP PUSH1 0x40 DUP9 ADD CALLDATALOAD PUSH8 0xFFFFFFFFFFFFFFFF DUP2 GT ISZERO PUSH2 0x1A15 JUMPI PUSH2 0x1A14 PUSH2 0x1370 JUMP JUMPDEST JUMPDEST PUSH2 0x1A21 DUP11 DUP3 DUP12 ADD PUSH2 0x186A JUMP JUMPDEST SWAP6 POP POP PUSH1 0x60 DUP9 ADD CALLDATALOAD PUSH8 0xFFFFFFFFFFFFFFFF DUP2 GT ISZERO PUSH2 0x1A42 JUMPI PUSH2 0x1A41 PUSH2 0x1370 JUMP JUMPDEST JUMPDEST PUSH2 0x1A4E DUP11 DUP3 DUP12 ADD PUSH2 0x186A JUMP JUMPDEST SWAP5 POP POP PUSH1 0x80 DUP9 ADD CALLDATALOAD PUSH8 0xFFFFFFFFFFFFFFFF DUP2 GT ISZERO PUSH2 0x1A6F JUMPI PUSH2 0x1A6E PUSH2 0x1370 JUMP JUMPDEST JUMPDEST PUSH2 0x1A7B DUP11 DUP3 DUP12 ADD PUSH2 0x186A JUMP JUMPDEST SWAP4 POP POP PUSH1 0xA0 DUP9 ADD CALLDATALOAD PUSH8 0xFFFFFFFFFFFFFFFF DUP2 GT ISZERO PUSH2 0x1A9C JUMPI PUSH2 0x1A9B PUSH2 0x1370 JUMP JUMPDEST JUMPDEST PUSH2 0x1AA8 DUP11 DUP3 DUP12 ADD PUSH2 0x1950 JUMP JUMPDEST SWAP3 POP POP PUSH1 0xC0 PUSH2 0x1AB9 DUP11 DUP3 DUP12 ADD PUSH2 0x159F JUMP JUMPDEST SWAP2 POP POP SWAP3 SWAP6 SWAP9 SWAP2 SWAP5 SWAP8 POP SWAP3 SWAP6 POP JUMP JUMPDEST PUSH1 0x0 PUSH1 0x20 DUP3 ADD SWAP1 POP PUSH2 0x1ADD PUSH1 0x0 DUP4 ADD DUP5 PUSH2 0x1400 JUMP JUMPDEST SWAP3 SWAP2 POP POP JUMP JUMPDEST PUSH1 0x0 DUP1 PUSH1 0x40 DUP4 DUP6 SUB SLT ISZERO PUSH2 0x1AFA JUMPI PUSH2 0x1AF9 PUSH2 0x136B JUMP JUMPDEST JUMPDEST PUSH1 0x0 PUSH2 0x1B08 DUP6 DUP3 DUP7 ADD PUSH2 0x13BE JUMP JUMPDEST SWAP3 POP POP PUSH1 0x20 PUSH2 0x1B19 DUP6 DUP3 DUP7 ADD PUSH2 0x159F JUMP JUMPDEST SWAP2 POP POP SWAP3 POP SWAP3 SWAP1 POP JUMP JUMPDEST PUSH32 0x4E487B7100000000000000000000000000000000000000000000000000000000 PUSH1 0x0 MSTORE PUSH1 0x22 PUSH1 0x4 MSTORE PUSH1 0x24 PUSH1 0x0 REVERT JUMPDEST PUSH1 0x0 PUSH1 0x2 DUP3 DIV SWAP1 POP PUSH1 0x1 DUP3 AND DUP1 PUSH2 0x1B6A JUMPI PUSH1 0x7F DUP3 AND SWAP2 POP JUMPDEST PUSH1 0x20 DUP3 LT DUP2 SUB PUSH2 0x1B7D JUMPI PUSH2 0x1B7C PUSH2 0x1B23 JUMP JUMPDEST JUMPDEST POP SWAP2 SWAP1 POP JUMP JUMPDEST PUSH32 0x4E487B7100000000000000000000000000000000000000000000000000000000 PUSH1 0x0 MSTORE PUSH1 0x11 PUSH1 0x4 MSTORE PUSH1 0x24 PUSH1 0x0 REVERT JUMPDEST PUSH1 0x0 PUSH2 0x1BBD DUP3 PUSH2 0x149F JUMP JUMPDEST SWAP2 POP PUSH32 0xFFFFFFFFFFFFFFFFFFFFFFFFFFFFFFFFFFFFFFFFFFFFFFFFFFFFFFFFFFFFFFFF DUP3 SUB PUSH2 0x1BEF JUMPI PUSH2 0x1BEE PUSH2 0x1B83 JUMP JUMPDEST JUMPDEST PUSH1 0x1 DUP3 ADD SWAP1 POP SWAP2 SWAP1 POP JUMP JUMPDEST PUSH1 0x0 DUP2 SWAP1 POP DUP2 PUSH1 0x0 MSTORE PUSH1 0x20 PUSH1 0x0 KECCAK256 SWAP1 POP SWAP2 SWAP1 POP JUMP JUMPDEST PUSH1 0x0 PUSH1 0x20 PUSH1 0x1F DUP4 ADD DIV SWAP1 POP SWAP2 SWAP1 POP JUMP JUMPDEST PUSH1 0x0 DUP3 DUP3 SHL SWAP1 POP SWAP3 SWAP2 POP POP JUMP JUMPDEST PUSH1 0x0 PUSH1 0x8 DUP4 MUL PUSH2 0x1C5C PUSH32 0xFFFFFFFFFFFFFFFFFFFFFFFFFFFFFFFFFFFFFFFFFFFFFFFFFFFFFFFFFFFFFFFF DUP3 PUSH2 0x1C1F JUMP JUMPDEST PUSH2 0x1C66 DUP7 DUP4 PUSH2 0x1C1F JUMP JUMPDEST SWAP6 POP DUP1 NOT DUP5 AND SWAP4 POP DUP1 DUP7 AND DUP5 OR SWAP3 POP POP POP SWAP4 SWAP3 POP POP POP JUMP JUMPDEST PUSH1 0x0 DUP2 SWAP1 POP SWAP2 SWAP1 POP JUMP JUMPDEST PUSH1 0x0 PUSH2 0x1CA3 PUSH2 0x1C9E PUSH2 0x1C99 DUP5 PUSH2 0x149F JUMP JUMPDEST PUSH2 0x1C7E JUMP JUMPDEST PUSH2 0x149F JUMP JUMPDEST SWAP1 POP SWAP2 SWAP1 POP JUMP JUMPDEST PUSH1 0x0 DUP2 SWAP1 POP SWAP2 SWAP1 POP JUMP JUMPDEST PUSH2 0x1CBD DUP4 PUSH2 0x1C88 JUMP JUMPDEST PUSH2 0x1CD1 PUSH2 0x1CC9 DUP3 PUSH2 0x1CAA JUMP JUMPDEST DUP5 DUP5 SLOAD PUSH2 0x1C2C JUMP JUMPDEST DUP3 SSTORE POP POP POP POP JUMP JUMPDEST PUSH1 0x0 SWAP1 JUMP JUMPDEST PUSH2 0x1CE6 PUSH2 0x1CD9 JUMP JUMPDEST PUSH2 0x1CF1 DUP2 DUP5 DUP5 PUSH2 0x1CB4 JUMP JUMPDEST POP POP POP JUMP JUMPDEST JUMPDEST DUP2 DUP2 LT ISZERO PUSH2 0x1D15 JUMPI PUSH2 0x1D0A PUSH1 0x0 DUP3 PUSH2 0x1CDE JUMP JUMPDEST PUSH1 0x1 DUP2 ADD SWAP1 POP PUSH2 0x1CF7 JUMP JUMPDEST POP POP JUMP JUMPDEST PUSH1 0x1F DUP3 GT ISZERO PUSH2 0x1D5A JUMPI PUSH2 0x1D2B DUP2 PUSH2 0x1BFA JUMP JUMPDEST PUSH2 0x1D34 DUP5 PUSH2 0x1C0F JUMP JUMPDEST DUP2 ADD PUSH1 0x20 DUP6 LT ISZERO PUSH2 0x1D43 JUMPI DUP2 SWAP1 POP JUMPDEST PUSH2 0x1D57 PUSH2 0x1D4F DUP6 PUSH2 0x1C0F JUMP JUMPDEST DUP4 ADD DUP3 PUSH2 0x1CF6 JUMP JUMPDEST POP POP JUMPDEST POP POP POP JUMP JUMPDEST PUSH1 0x0 DUP3 DUP3 SHR SWAP1 POP SWAP3 SWAP2 POP POP JUMP JUMPDEST PUSH1 0x0 PUSH2 0x1D7D PUSH1 0x0 NOT DUP5 PUSH1 0x8 MUL PUSH2 0x1D5F JUMP JUMPDEST NOT DUP1 DUP4 AND SWAP2 POP POP SWAP3 SWAP2 POP POP JUMP JUMPDEST PUSH1 0x0 PUSH2 0x1D96 DUP4 DUP4 PUSH2 0x1D6C JUMP JUMPDEST SWAP2 POP DUP3 PUSH1 0x2 MUL DUP3 OR SWAP1 POP SWAP3 SWAP2 POP POP JUMP JUMPDEST PUSH2 0x1DAF DUP3 PUSH2 0x140F JUMP JUMPDEST PUSH8 0xFFFFFFFFFFFFFFFF DUP2 GT ISZERO PUSH2 0x1DC8 JUMPI PUSH2 0x1DC7 PUSH2 0x176D JUMP JUMPDEST JUMPDEST PUSH2 0x1DD2 DUP3 SLOAD PUSH2 0x1B52 JUMP JUMPDEST PUSH2 0x1DDD DUP3 DUP3 DUP6 PUSH2 0x1D19 JUMP JUMPDEST PUSH1 0x0 PUSH1 0x20 SWAP1 POP PUSH1 0x1F DUP4 GT PUSH1 0x1 DUP2 EQ PUSH2 0x1E10 JUMPI PUSH1 0x0 DUP5 ISZERO PUSH2 0x1DFE JUMPI DUP3 DUP8 ADD MLOAD SWAP1 POP JUMPDEST PUSH2 0x1E08 DUP6 DUP3 PUSH2 0x1D8A JUMP JUMPDEST DUP7 SSTORE POP PUSH2 0x1E70 JUMP JUMPDEST PUSH1 0x1F NOT DUP5 AND PUSH2 0x1E1E DUP7 PUSH2 0x1BFA JUMP JUMPDEST PUSH1 0x0 JUMPDEST DUP3 DUP2 LT ISZERO PUSH2 0x1E46 JUMPI DUP5 DUP10 ADD MLOAD DUP3 SSTORE PUSH1 0x1 DUP3 ADD SWAP2 POP PUSH1 0x20 DUP6 ADD SWAP5 POP PUSH1 0x20 DUP2 ADD SWAP1 POP PUSH2 0x1E21 JUMP JUMPDEST DUP7 DUP4 LT ISZERO PUSH2 0x1E63 JUMPI DUP5 DUP10 ADD MLOAD PUSH2 0x1E5F PUSH1 0x1F DUP10 AND DUP3 PUSH2 0x1D6C JUMP JUMPDEST DUP4 SSTORE POP JUMPDEST PUSH1 0x1 PUSH1 0x2 DUP9 MUL ADD DUP9 SSTORE POP POP POP JUMPDEST POP POP POP POP POP POP JUMP JUMPDEST PUSH1 0x0 DUP2 MLOAD SWAP1 POP SWAP2 SWAP1 POP JUMP JUMPDEST PUSH1 0x0 DUP3 DUP3 MSTORE PUSH1 0x20 DUP3 ADD SWAP1 POP SWAP3 SWAP2 POP POP JUMP JUMPDEST PUSH1 0x0 DUP2 SWAP1 POP PUSH1 0x20 DUP3 ADD SWAP1 POP SWAP2 SWAP1 POP JUMP JUMPDEST PUSH1 0x0 DUP3 DUP3 MSTORE PUSH1 0x20 DUP3 ADD SWAP1 POP SWAP3 SWAP2 POP POP JUMP JUMPDEST PUSH1 0x0 PUSH2 0x1EC0 DUP3 PUSH2 0x140F JUMP JUMPDEST PUSH2 0x1ECA DUP2 DUP6 PUSH2 0x1EA4 JUMP JUMPDEST SWAP4 POP PUSH2 0x1EDA DUP2 DUP6 PUSH1 0x20 DUP7 ADD PUSH2 0x142B JUMP JUMPDEST PUSH2 0x1EE3 DUP2 PUSH2 0x1455 JUMP JUMPDEST DUP5 ADD SWAP2 POP POP SWAP3 SWAP2 POP POP JUMP JUMPDEST PUSH1 0x0 PUSH2 0x1EFA DUP4 DUP4 PUSH2 0x1EB5 JUMP JUMPDEST SWAP1 POP SWAP3 SWAP2 POP POP JUMP JUMPDEST PUSH1 0x0 PUSH1 0x20 DUP3 ADD SWAP1 POP SWAP2 SWAP1 POP JUMP JUMPDEST PUSH1 0x0 PUSH2 0x1F1A DUP3 PUSH2 0x1E78 JUMP JUMPDEST PUSH2 0x1F24 DUP2 DUP6 PUSH2 0x1E83 JUMP JUMPDEST SWAP4 POP DUP4 PUSH1 0x20 DUP3 MUL DUP6 ADD PUSH2 0x1F36 DUP6 PUSH2 0x1E94 JUMP JUMPDEST DUP1 PUSH1 0x0 JUMPDEST DUP6 DUP2 LT ISZERO PUSH2 0x1F72 JUMPI DUP5 DUP5 SUB DUP10 MSTORE DUP2 MLOAD PUSH2 0x1F53 DUP6 DUP3 PUSH2 0x1EEE JUMP JUMPDEST SWAP5 POP PUSH2 0x1F5E DUP4 PUSH2 0x1F02 JUMP JUMPDEST SWAP3 POP PUSH1 0x20 DUP11 ADD SWAP10 POP POP PUSH1 0x1 DUP2 ADD SWAP1 POP PUSH2 0x1F3A JUMP JUMPDEST POP DUP3 SWAP8 POP DUP8 SWAP6 POP POP POP POP POP POP SWAP3 SWAP2 POP POP JUMP JUMPDEST PUSH1 0x0 PUSH1 0x60 DUP3 ADD SWAP1 POP PUSH2 0x1F99 PUSH1 0x0 DUP4 ADD DUP7 PUSH2 0x1400 JUMP JUMPDEST DUP2 DUP2 SUB PUSH1 0x20 DUP4 ADD MSTORE PUSH2 0x1FAB DUP2 DUP6 PUSH2 0x1F0F JUMP JUMPDEST SWAP1 POP PUSH2 0x1FBA PUSH1 0x40 DUP4 ADD DUP5 PUSH2 0x14A9 JUMP JUMPDEST SWAP5 SWAP4 POP POP POP POP JUMP JUMPDEST PUSH32 0x4E42570000000000000000000000000000000000000000000000000000000000 PUSH1 0x0 DUP3 ADD MSTORE POP JUMP JUMPDEST PUSH1 0x0 PUSH2 0x1FF8 PUSH1 0x3 DUP4 PUSH2 0x141A JUMP JUMPDEST SWAP2 POP PUSH2 0x2003 DUP3 PUSH2 0x1FC2 JUMP JUMPDEST PUSH1 0x20 DUP3 ADD SWAP1 POP SWAP2 SWAP1 POP JUMP JUMPDEST PUSH1 0x0 PUSH1 0x20 DUP3 ADD SWAP1 POP DUP2 DUP2 SUB PUSH1 0x0 DUP4 ADD MSTORE PUSH2 0x2027 DUP2 PUSH2 0x1FEB JUMP JUMPDEST SWAP1 POP SWAP2 SWAP1 POP JUMP JUMPDEST PUSH1 0x0 PUSH2 0x2039 DUP3 PUSH2 0x149F JUMP JUMPDEST SWAP2 POP PUSH2 0x2044 DUP4 PUSH2 0x149F JUMP JUMPDEST SWAP3 POP DUP3 DUP3 MUL PUSH2 0x2052 DUP2 PUSH2 0x149F JUMP JUMPDEST SWAP2 POP DUP3 DUP3 DIV DUP5 EQ DUP4 ISZERO OR PUSH2 0x2069 JUMPI PUSH2 0x2068 PUSH2 0x1B83 JUMP JUMPDEST JUMPDEST POP SWAP3 SWAP2 POP POP JUMP JUMPDEST PUSH32 0x4E487B7100000000000000000000000000000000000000000000000000000000 PUSH1 0x0 MSTORE PUSH1 0x12 PUSH1 0x4 MSTORE PUSH1 0x24 PUSH1 0x0 REVERT JUMPDEST PUSH1 0x0 PUSH2 0x20AA DUP3 PUSH2 0x149F JUMP JUMPDEST SWAP2 POP PUSH2 0x20B5 DUP4 PUSH2 0x149F JUMP JUMPDEST SWAP3 POP DUP3 PUSH2 0x20C5 JUMPI PUSH2 0x20C4 PUSH2 0x2070 JUMP JUMPDEST JUMPDEST DUP3 DUP3 DIV SWAP1 POP SWAP3 SWAP2 POP POP JUMP JUMPDEST PUSH1 0x0 DUP2 SWAP1 POP SWAP3 SWAP2 POP POP JUMP JUMPDEST POP JUMP JUMPDEST PUSH1 0x0 PUSH2 0x20EB PUSH1 0x0 DUP4 PUSH2 0x20D0 JUMP JUMPDEST SWAP2 POP PUSH2 0x20F6 DUP3 PUSH2 0x20DB JUMP JUMPDEST PUSH1 0x0 DUP3 ADD SWAP1 POP SWAP2 SWAP1 POP JUMP JUMPDEST PUSH1 0x0 PUSH2 0x210C DUP3 PUSH2 0x20DE JUMP JUMPDEST SWAP2 POP DUP2 SWAP1 POP SWAP2 SWAP1 POP JUMP JUMPDEST PUSH32 0x5446000000000000000000000000000000000000000000000000000000000000 PUSH1 0x0 DUP3 ADD MSTORE POP JUMP JUMPDEST PUSH1 0x0 PUSH2 0x214C PUSH1 0x2 DUP4 PUSH2 0x141A JUMP JUMPDEST SWAP2 POP PUSH2 0x2157 DUP3 PUSH2 0x2116 JUMP JUMPDEST PUSH1 0x20 DUP3 ADD SWAP1 POP SWAP2 SWAP1 POP JUMP JUMPDEST PUSH1 0x0 PUSH1 0x20 DUP3 ADD SWAP1 POP DUP2 DUP2 SUB PUSH1 0x0 DUP4 ADD MSTORE PUSH2 0x217B DUP2 PUSH2 0x213F JUMP JUMPDEST SWAP1 POP SWAP2 SWAP1 POP JUMP JUMPDEST PUSH1 0x0 PUSH1 0x40 DUP3 ADD SWAP1 POP PUSH2 0x2197 PUSH1 0x0 DUP4 ADD DUP6 PUSH2 0x1400 JUMP JUMPDEST PUSH2 0x21A4 PUSH1 0x20 DUP4 ADD DUP5 PUSH2 0x14A9 JUMP JUMPDEST SWAP4 SWAP3 POP POP POP JUMP INVALID LOG2 PUSH5 0x6970667358 0x22 SLT KECCAK256 PUSH19 0xD677FBE16574F0301475949C4361A2A8C52972 DUP1 0xD6 BALANCE 0xA8 0xED EXTCODECOPY CREATE2 LOG3 ORIGIN RETURN 0xDA PUSH8 0x64736F6C63430008 XOR STOP CALLER "},"gasEstimates":{"creation":{"codeDepositCost":"1734600","executionCost":"1827","totalCost":"1736427"},"external":{"allFreelancerAddresses(uint256)":"5022","editFreelancerProfile(string,string,string,string,string,string[],uint256)":"infinite","employers(address)":"infinite","escrowFunds(address,uint256)":"infinite","freelancers(address)":"infinite","jobs(uint256)":"infinite","owner()":"2556","registerFreelancer(string,string,string,string,string,string[],uint256)":"infinite","roles(address)":"2867","totalCompletedJobs()":"2475","totalEmployers()":"2452","totalFreelancers()":"2452","totalJobs()":"2566","withdrawEarnings()":"infinite"}},"methodIdentifiers":{"allFreelancerAddresses(uint256)":"c27a9dd4","editFreelancerProfile(string,string,string,string,string,string[],uint256)":"91ca1687","employers(address)":"0be435bd","escrowFunds(address,uint256)":"fcafae11","freelancers(address)":"21bd6693","jobs(uint256)":"180aedf3","owner()":"8da5cb5b","registerFreelancer(string,string,string,string,string,string[],uint256)":"58d7f895","roles(address)":"99374642","totalCompletedJobs()":"1033397b","totalEmployers()":"1906b4ce","totalFreelancers()":"5e586eb1","totalJobs()":"1ace87b3","withdrawEarnings()":"b73c6ce9"}},"storageLayout":{"storage":[{"astId":1367,"contract":"contracts/FreelancerLogic.sol:FreelancerLogic","label":"owner","offset":0,"slot":"0","type":"t_address"},{"astId":1369,"contract":"contracts/FreelancerLogic.sol:FreelancerLogic","label":"totalJobs","offset":20,"slot":"0","type":"t_uint8"},{"astId":1371,"contract":"contracts/FreelancerLogic.sol:FreelancerLogic","label":"totalFreelancers","offset":0,"slot":"1","type":"t_uint256"},{"astId":1373,"contract":"contracts/FreelancerLogic.sol:FreelancerLogic","label":"totalEmployers","offset":0,"slot":"2","type":"t_uint256"},{"astId":1375,"contract":"contracts/FreelancerLogic.sol:FreelancerLogic","label":"totalCompletedJobs","offset":0,"slot":"3","type":"t_uint256"},{"astId":1441,"contract":"contracts/FreelancerLogic.sol:FreelancerLogic","label":"jobs","offset":0,"slot":"4","type":"t_mapping(t_uint256,t_struct(Job)1393_storage)"},{"astId":1446,"contract":"contracts/FreelancerLogic.sol:FreelancerLogic","label":"freelancers","offset":0,"slot":"5","type":"t_mapping(t_address,t_struct(Freelancer)1419_storage)"},{"astId":1451,"contract":"contracts/FreelancerLogic.sol:FreelancerLogic","label":"employers","offset":0,"slot":"6","type":"t_mapping(t_address,t_struct(Employer)1436_storage)"},{"astId":1457,"contract":"contracts/FreelancerLogic.sol:FreelancerLogic","label":"escrowFunds","offset":0,"slot":"7","type":"t_mapping(t_address,t_mapping(t_uint256,t_uint256))"},{"astId":1461,"contract":"contracts/FreelancerLogic.sol:FreelancerLogic","label":"roles","offset":0,"slot":"8","type":"t_mapping(t_address,t_uint8)"},{"astId":1464,"contract":"contracts/FreelancerLogic.sol:FreelancerLogic","label":"allFreelancerAddresses","offset":0,"slot":"9","type":"t_array(t_address)dyn_storage"}],"types":{"t_address":{"encoding":"inplace","label":"address","numberOfBytes":"20"},"t_array(t_address)dyn_storage":{"base":"t_address","encoding":"dynamic_array","label":"address[]","numberOfBytes":"32"},"t_array(t_string_storage)dyn_storage":{"base":"t_string_storage","encoding":"dynamic_array","label":"string[]","numberOfBytes":"32"},"t_bool":{"encoding":"inplace","label":"bool","numberOfBytes":"1"},"t_mapping(t_address,t_mapping(t_uint256,t_uint256))":{"encoding":"mapping","key":"t_address","label":"mapping(address => mapping(uint256 => uint256))","numberOfBytes":"32","value":"t_mapping(t_uint256,t_uint256)"},"t_mapping(t_address,t_struct(Employer)1436_storage)":{"encoding":"mapping","key":"t_address","label":"mapping(address => struct Storage.Employer)","numberOfBytes":"32","value":"t_struct(Employer)1436_storage"},"t_mapping(t_address,t_struct(Freelancer)1419_storage)":{"encoding":"mapping","key":"t_address","label":"mapping(address => struct Storage.Freelancer)","numberOfBytes":"32","value":"t_struct(Freelancer)1419_storage"},"t_mapping(t_address,t_uint8)":{"encoding":"mapping","key":"t_address","label":"mapping(address => uint8)","numberOfBytes":"32","value":"t_uint8"},"t_mapping(t_uint256,t_struct(Job)1393_storage)":{"encoding":"mapping","key":"t_uint256","label":"mapping(uint256 => struct Storage.Job)","numberOfBytes":"32","value":"t_struct(Job)1393_storage"},"t_mapping(t_uint256,t_uint256)":{"encoding":"mapping","key":"t_uint256","label":"mapping(uint256 => uint256)","numberOfBytes":"32","value":"t_uint256"},"t_string_storage":{"encoding":"bytes","label":"string","numberOfBytes":"32"},"t_struct(Employer)1436_storage":{"encoding":"inplace","label":"struct Storage.Employer","members":[{"astId":1421,"contract":"contracts/FreelancerLogic.sol:FreelancerLogic","label":"employerAddress","offset":0,"slot":"0","type":"t_address"},{"astId":1423,"contract":"contracts/FreelancerLogic.sol:FreelancerLogic","label":"name","offset":0,"slot":"1","type":"t_string_storage"},{"astId":1425,"contract":"contracts/FreelancerLogic.sol:FreelancerLogic","label":"industry","offset":0,"slot":"2","type":"t_string_storage"},{"astId":1427,"contract":"contracts/FreelancerLogic.sol:FreelancerLogic","label":"balance","offset":0,"slot":"3","type":"t_uint256"},{"astId":1429,"contract":"contracts/FreelancerLogic.sol:FreelancerLogic","label":"country","offset":0,"slot":"4","type":"t_string_storage"},{"astId":1431,"contract":"contracts/FreelancerLogic.sol:FreelancerLogic","label":"image","offset":0,"slot":"5","type":"t_string_storage"},{"astId":1433,"contract":"contracts/FreelancerLogic.sol:FreelancerLogic","label":"registered","offset":0,"slot":"6","type":"t_bool"},{"astId":1435,"contract":"contracts/FreelancerLogic.sol:FreelancerLogic","label":"registration_date","offset":0,"slot":"7","type":"t_uint256"}],"numberOfBytes":"256"},"t_struct(Freelancer)1419_storage":{"encoding":"inplace","label":"struct Storage.Freelancer","members":[{"astId":1395,"contract":"contracts/FreelancerLogic.sol:FreelancerLogic","label":"freelancerAddress","offset":0,"slot":"0","type":"t_address"},{"astId":1397,"contract":"contracts/FreelancerLogic.sol:FreelancerLogic","label":"name","offset":0,"slot":"1","type":"t_string_storage"},{"astId":1399,"contract":"contracts/FreelancerLogic.sol:FreelancerLogic","label":"skills","offset":0,"slot":"2","type":"t_string_storage"},{"astId":1401,"contract":"contracts/FreelancerLogic.sol:FreelancerLogic","label":"balance","offset":0,"slot":"3","type":"t_uint256"},{"astId":1403,"contract":"contracts/FreelancerLogic.sol:FreelancerLogic","label":"country","offset":0,"slot":"4","type":"t_string_storage"},{"astId":1405,"contract":"contracts/FreelancerLogic.sol:FreelancerLogic","label":"gigTitle","offset":0,"slot":"5","type":"t_string_storage"},{"astId":1407,"contract":"contracts/FreelancerLogic.sol:FreelancerLogic","label":"gitDescription","offset":0,"slot":"6","type":"t_string_storage"},{"astId":1410,"contract":"contracts/FreelancerLogic.sol:FreelancerLogic","label":"images","offset":0,"slot":"7","type":"t_array(t_string_storage)dyn_storage"},{"astId":1412,"contract":"contracts/FreelancerLogic.sol:FreelancerLogic","label":"jobsCompleted","offset":0,"slot":"8","type":"t_uint256"},{"astId":1414,"contract":"contracts/FreelancerLogic.sol:FreelancerLogic","label":"registered","offset":0,"slot":"9","type":"t_bool"},{"astId":1416,"contract":"contracts/FreelancerLogic.sol:FreelancerLogic","label":"registration_date","offset":0,"slot":"10","type":"t_uint256"},{"astId":1418,"contract":"contracts/FreelancerLogic.sol:FreelancerLogic","label":"starting_price","offset":0,"slot":"11","type":"t_uint256"}],"numberOfBytes":"384"},"t_struct(Job)1393_storage":{"encoding":"inplace","label":"struct Storage.Job","members":[{"astId":1377,"contract":"contracts/FreelancerLogic.sol:FreelancerLogic","label":"id","offset":0,"slot":"0","type":"t_uint8"},{"astId":1379,"contract":"contracts/FreelancerLogic.sol:FreelancerLogic","label":"employer","offset":1,"slot":"0","type":"t_address"},{"astId":1381,"contract":"contracts/FreelancerLogic.sol:FreelancerLogic","label":"title","offset":0,"slot":"1","type":"t_string_storage"},{"astId":1383,"contract":"contracts/FreelancerLogic.sol:FreelancerLogic","label":"description","offset":0,"slot":"2","type":"t_string_storage"},{"astId":1385,"contract":"contracts/FreelancerLogic.sol:FreelancerLogic","label":"budget","offset":0,"slot":"3","type":"t_uint256"},{"astId":1387,"contract":"contracts/FreelancerLogic.sol:FreelancerLogic","label":"completed","offset":0,"slot":"4","type":"t_bool"},{"astId":1390,"contract":"contracts/FreelancerLogic.sol:FreelancerLogic","label":"applicants","offset":0,"slot":"5","type":"t_array(t_address)dyn_storage"},{"astId":1392,"contract":"contracts/FreelancerLogic.sol:FreelancerLogic","label":"hiredFreelancer","offset":0,"slot":"6","type":"t_address"}],"numberOfBytes":"224"},"t_uint256":{"encoding":"inplace","label":"uint256","numberOfBytes":"32"},"t_uint8":{"encoding":"inplace","label":"uint8","numberOfBytes":"1"}}},"userdoc":{"kind":"user","methods":{},"version":1}}}}